{
	"ERC-20Tokens.sol": {
		"ERC20Token": {
			"abi": [
				{
					"inputs": [
						{
							"internalType": "string",
							"name": "_name",
							"type": "string"
						},
						{
							"internalType": "string",
							"name": "_symbol",
							"type": "string"
						},
						{
							"internalType": "uint8",
							"name": "_decimal",
							"type": "uint8"
						},
						{
							"internalType": "uint256",
							"name": "_totalSuply",
							"type": "uint256"
						}
					],
					"stateMutability": "nonpayable",
					"type": "constructor"
				},
				{
					"anonymous": false,
					"inputs": [
						{
							"indexed": true,
							"internalType": "address",
							"name": "owner",
							"type": "address"
						},
						{
							"indexed": true,
							"internalType": "address",
							"name": "spender",
							"type": "address"
						},
						{
							"indexed": false,
							"internalType": "uint256",
							"name": "tokens",
							"type": "uint256"
						}
					],
					"name": "Approval",
					"type": "event"
				},
				{
					"anonymous": false,
					"inputs": [
						{
							"indexed": false,
							"internalType": "address",
							"name": "owner",
							"type": "address"
						},
						{
							"indexed": false,
							"internalType": "address",
							"name": "to",
							"type": "address"
						},
						{
							"indexed": false,
							"internalType": "uint256",
							"name": "tokens",
							"type": "uint256"
						}
					],
					"name": "Transfer",
					"type": "event"
				},
				{
					"inputs": [],
					"name": "_totalSupply",
					"outputs": [
						{
							"internalType": "uint256",
							"name": "",
							"type": "uint256"
						}
					],
					"stateMutability": "view",
					"type": "function"
				},
				{
					"inputs": [
						{
							"internalType": "address",
							"name": "_owner",
							"type": "address"
						},
						{
							"internalType": "address",
							"name": "_spender",
							"type": "address"
						}
					],
					"name": "allowance",
					"outputs": [
						{
							"internalType": "uint256",
							"name": "remaningTokens",
							"type": "uint256"
						}
					],
					"stateMutability": "view",
					"type": "function"
				},
				{
					"inputs": [
						{
							"internalType": "address",
							"name": "",
							"type": "address"
						},
						{
							"internalType": "address",
							"name": "",
							"type": "address"
						}
					],
					"name": "allowed",
					"outputs": [
						{
							"internalType": "uint256",
							"name": "",
							"type": "uint256"
						}
					],
					"stateMutability": "view",
					"type": "function"
				},
				{
					"inputs": [
						{
							"internalType": "address",
							"name": "_spender",
							"type": "address"
						},
						{
							"internalType": "uint256",
							"name": "_tokens",
							"type": "uint256"
						}
					],
					"name": "approve",
					"outputs": [
						{
							"internalType": "bool",
							"name": "success",
							"type": "bool"
						}
					],
					"stateMutability": "nonpayable",
					"type": "function"
				},
				{
					"inputs": [
						{
							"internalType": "address",
							"name": "_address",
							"type": "address"
						}
					],
					"name": "balanceOf",
					"outputs": [
						{
							"internalType": "uint256",
							"name": "",
							"type": "uint256"
						}
					],
					"stateMutability": "view",
					"type": "function"
				},
				{
					"inputs": [
						{
							"internalType": "address",
							"name": "",
							"type": "address"
						}
					],
					"name": "balances",
					"outputs": [
						{
							"internalType": "uint256",
							"name": "",
							"type": "uint256"
						}
					],
					"stateMutability": "view",
					"type": "function"
				},
				{
					"inputs": [],
					"name": "decimal",
					"outputs": [
						{
							"internalType": "uint8",
							"name": "",
							"type": "uint8"
						}
					],
					"stateMutability": "view",
					"type": "function"
				},
				{
					"inputs": [],
					"name": "name",
					"outputs": [
						{
							"internalType": "string",
							"name": "",
							"type": "string"
						}
					],
					"stateMutability": "view",
					"type": "function"
				},
				{
					"inputs": [],
					"name": "symbol",
					"outputs": [
						{
							"internalType": "string",
							"name": "",
							"type": "string"
						}
					],
					"stateMutability": "view",
					"type": "function"
				},
				{
					"inputs": [
						{
							"internalType": "address",
							"name": "_to",
							"type": "address"
						},
						{
							"internalType": "uint256",
							"name": "_value",
							"type": "uint256"
						}
					],
					"name": "transfer",
					"outputs": [
						{
							"internalType": "bool",
							"name": "success",
							"type": "bool"
						}
					],
					"stateMutability": "nonpayable",
					"type": "function"
				},
				{
					"inputs": [
						{
							"internalType": "address",
							"name": "_owner",
							"type": "address"
						},
						{
							"internalType": "address",
							"name": "_to",
							"type": "address"
						},
						{
							"internalType": "uint256",
							"name": "_tokens",
							"type": "uint256"
						}
					],
					"name": "transferFrom",
					"outputs": [
						{
							"internalType": "bool",
							"name": "success",
							"type": "bool"
						}
					],
					"stateMutability": "nonpayable",
					"type": "function"
				}
			],
			"devdoc": {
				"kind": "dev",
				"methods": {},
				"version": 1
			},
			"evm": {
				"assembly": "    /* \"ERC-20Tokens.sol\":59:2012  contract  ERC20Token{... */\n  mstore(0x40, 0x80)\n    /* \"ERC-20Tokens.sol\":427:712  constructor(string memory _name, string memory _symbol, uint8 _decimal,uint256 _totalSuply){... */\n  callvalue\n  dup1\n  iszero\n  tag_1\n  jumpi\n  revert(0x00, 0x00)\ntag_1:\n  pop\n  mload(0x40)\n  sub(codesize, bytecodeSize)\n  dup1\n  bytecodeSize\n  dup4\n  codecopy\n  dup2\n  dup2\n  add\n  0x40\n  mstore\n  dup2\n  add\n  swap1\n  tag_2\n  swap2\n  swap1\n  tag_3\n  jump\t// in\ntag_2:\n    /* \"ERC-20Tokens.sol\":531:536  _name */\n  dup4\n    /* \"ERC-20Tokens.sol\":525:529  name */\n  0x00\n    /* \"ERC-20Tokens.sol\":525:536  name= _name */\n  swap1\n  dup2\n  tag_6\n  swap2\n  swap1\n  tag_7\n  jump\t// in\ntag_6:\n  pop\n    /* \"ERC-20Tokens.sol\":552:560  _decimal */\n  dup2\n    /* \"ERC-20Tokens.sol\":543:550  decimal */\n  0x02\n  0x00\n    /* \"ERC-20Tokens.sol\":543:560  decimal= _decimal */\n  0x0100\n  exp\n  dup2\n  sload\n  dup2\n  0xff\n  mul\n  not\n  and\n  swap1\n  dup4\n  0xff\n  and\n  mul\n  or\n  swap1\n  sstore\n  pop\n    /* \"ERC-20Tokens.sol\":575:582  _symbol */\n  dup3\n    /* \"ERC-20Tokens.sol\":567:573  symbol */\n  0x01\n    /* \"ERC-20Tokens.sol\":567:582  symbol= _symbol */\n  swap1\n  dup2\n  tag_8\n  swap2\n  swap1\n  tag_7\n  jump\t// in\ntag_8:\n  pop\n    /* \"ERC-20Tokens.sol\":602:613  _totalSuply */\n  dup1\n    /* \"ERC-20Tokens.sol\":589:600  totalSupply */\n  0x03\n    /* \"ERC-20Tokens.sol\":589:613  totalSupply= _totalSuply */\n  dup2\n  swap1\n  sstore\n  pop\n    /* \"ERC-20Tokens.sol\":641:652  totalSupply */\n  sload(0x03)\n    /* \"ERC-20Tokens.sol\":620:628  balances */\n  0x04\n    /* \"ERC-20Tokens.sol\":620:640  balances[msg.sender] */\n  0x00\n    /* \"ERC-20Tokens.sol\":629:639  msg.sender */\n  caller\n    /* \"ERC-20Tokens.sol\":620:640  balances[msg.sender] */\n  0xffffffffffffffffffffffffffffffffffffffff\n  and\n  0xffffffffffffffffffffffffffffffffffffffff\n  and\n  dup2\n  mstore\n  0x20\n  add\n  swap1\n  dup2\n  mstore\n  0x20\n  add\n  0x00\n  keccak256\n    /* \"ERC-20Tokens.sol\":620:652  balances[msg.sender]=totalSupply */\n  dup2\n  swap1\n  sstore\n  pop\n    /* \"ERC-20Tokens.sol\":664:708  Transfer(address(0),msg.sender, totalSupply) */\n  0xddf252ad1be2c89b69c2b068fc378daa952ba7f163c4a11628f55a4df523b3ef\n    /* \"ERC-20Tokens.sol\":681:682  0 */\n  0x00\n    /* \"ERC-20Tokens.sol\":684:694  msg.sender */\n  caller\n    /* \"ERC-20Tokens.sol\":696:707  totalSupply */\n  sload(0x03)\n    /* \"ERC-20Tokens.sol\":664:708  Transfer(address(0),msg.sender, totalSupply) */\n  mload(0x40)\n  tag_9\n  swap4\n  swap3\n  swap2\n  swap1\n  tag_10\n  jump\t// in\ntag_9:\n  mload(0x40)\n  dup1\n  swap2\n  sub\n  swap1\n  log1\n    /* \"ERC-20Tokens.sol\":427:712  constructor(string memory _name, string memory _symbol, uint8 _decimal,uint256 _totalSuply){... */\n  pop\n  pop\n  pop\n  pop\n    /* \"ERC-20Tokens.sol\":59:2012  contract  ERC20Token{... */\n  jump(tag_11)\n    /* \"#utility.yul\":7:82   */\ntag_12:\n    /* \"#utility.yul\":40:46   */\n  0x00\n    /* \"#utility.yul\":73:75   */\n  0x40\n    /* \"#utility.yul\":67:76   */\n  mload\n    /* \"#utility.yul\":57:76   */\n  swap1\n  pop\n    /* \"#utility.yul\":7:82   */\n  swap1\n  jump\t// out\n    /* \"#utility.yul\":88:205   */\ntag_13:\n    /* \"#utility.yul\":197:198   */\n  0x00\n    /* \"#utility.yul\":194:195   */\n  0x00\n    /* \"#utility.yul\":187:199   */\n  revert\n    /* \"#utility.yul\":211:328   */\ntag_14:\n    /* \"#utility.yul\":320:321   */\n  0x00\n    /* \"#utility.yul\":317:318   */\n  0x00\n    /* \"#utility.yul\":310:322   */\n  revert\n    /* \"#utility.yul\":334:451   */\ntag_15:\n    /* \"#utility.yul\":443:444   */\n  0x00\n    /* \"#utility.yul\":440:441   */\n  0x00\n    /* \"#utility.yul\":433:445   */\n  revert\n    /* \"#utility.yul\":457:574   */\ntag_16:\n    /* \"#utility.yul\":566:567   */\n  0x00\n    /* \"#utility.yul\":563:564   */\n  0x00\n    /* \"#utility.yul\":556:568   */\n  revert\n    /* \"#utility.yul\":580:682   */\ntag_17:\n    /* \"#utility.yul\":621:627   */\n  0x00\n    /* \"#utility.yul\":672:674   */\n  0x1f\n    /* \"#utility.yul\":668:675   */\n  not\n    /* \"#utility.yul\":663:665   */\n  0x1f\n    /* \"#utility.yul\":656:661   */\n  dup4\n    /* \"#utility.yul\":652:666   */\n  add\n    /* \"#utility.yul\":648:676   */\n  and\n    /* \"#utility.yul\":638:676   */\n  swap1\n  pop\n    /* \"#utility.yul\":580:682   */\n  swap2\n  swap1\n  pop\n  jump\t// out\n    /* \"#utility.yul\":688:868   */\ntag_18:\n    /* \"#utility.yul\":736:813   */\n  0x4e487b7100000000000000000000000000000000000000000000000000000000\n    /* \"#utility.yul\":733:734   */\n  0x00\n    /* \"#utility.yul\":726:814   */\n  mstore\n    /* \"#utility.yul\":833:837   */\n  0x41\n    /* \"#utility.yul\":830:831   */\n  0x04\n    /* \"#utility.yul\":823:838   */\n  mstore\n    /* \"#utility.yul\":857:861   */\n  0x24\n    /* \"#utility.yul\":854:855   */\n  0x00\n    /* \"#utility.yul\":847:862   */\n  revert\n    /* \"#utility.yul\":874:1155   */\ntag_19:\n    /* \"#utility.yul\":957:984   */\n  tag_62\n    /* \"#utility.yul\":979:983   */\n  dup3\n    /* \"#utility.yul\":957:984   */\n  tag_17\n  jump\t// in\ntag_62:\n    /* \"#utility.yul\":949:955   */\n  dup2\n    /* \"#utility.yul\":945:985   */\n  add\n    /* \"#utility.yul\":1087:1093   */\n  dup2\n    /* \"#utility.yul\":1075:1085   */\n  dup2\n    /* \"#utility.yul\":1072:1094   */\n  lt\n    /* \"#utility.yul\":1051:1069   */\n  0xffffffffffffffff\n    /* \"#utility.yul\":1039:1049   */\n  dup3\n    /* \"#utility.yul\":1036:1070   */\n  gt\n    /* \"#utility.yul\":1033:1095   */\n  or\n    /* \"#utility.yul\":1030:1118   */\n  iszero\n  tag_63\n  jumpi\n    /* \"#utility.yul\":1098:1116   */\n  tag_64\n  tag_18\n  jump\t// in\ntag_64:\n    /* \"#utility.yul\":1030:1118   */\ntag_63:\n    /* \"#utility.yul\":1138:1148   */\n  dup1\n    /* \"#utility.yul\":1134:1136   */\n  0x40\n    /* \"#utility.yul\":1127:1149   */\n  mstore\n    /* \"#utility.yul\":917:1155   */\n  pop\n    /* \"#utility.yul\":874:1155   */\n  pop\n  pop\n  jump\t// out\n    /* \"#utility.yul\":1161:1290   */\ntag_20:\n    /* \"#utility.yul\":1195:1201   */\n  0x00\n    /* \"#utility.yul\":1222:1242   */\n  tag_66\n  tag_12\n  jump\t// in\ntag_66:\n    /* \"#utility.yul\":1212:1242   */\n  swap1\n  pop\n    /* \"#utility.yul\":1251:1284   */\n  tag_67\n    /* \"#utility.yul\":1279:1283   */\n  dup3\n    /* \"#utility.yul\":1271:1277   */\n  dup3\n    /* \"#utility.yul\":1251:1284   */\n  tag_19\n  jump\t// in\ntag_67:\n    /* \"#utility.yul\":1161:1290   */\n  swap2\n  swap1\n  pop\n  jump\t// out\n    /* \"#utility.yul\":1296:1604   */\ntag_21:\n    /* \"#utility.yul\":1358:1362   */\n  0x00\n    /* \"#utility.yul\":1448:1466   */\n  0xffffffffffffffff\n    /* \"#utility.yul\":1440:1446   */\n  dup3\n    /* \"#utility.yul\":1437:1467   */\n  gt\n    /* \"#utility.yul\":1434:1490   */\n  iszero\n  tag_69\n  jumpi\n    /* \"#utility.yul\":1470:1488   */\n  tag_70\n  tag_18\n  jump\t// in\ntag_70:\n    /* \"#utility.yul\":1434:1490   */\ntag_69:\n    /* \"#utility.yul\":1508:1537   */\n  tag_71\n    /* \"#utility.yul\":1530:1536   */\n  dup3\n    /* \"#utility.yul\":1508:1537   */\n  tag_17\n  jump\t// in\ntag_71:\n    /* \"#utility.yul\":1500:1537   */\n  swap1\n  pop\n    /* \"#utility.yul\":1592:1596   */\n  0x20\n    /* \"#utility.yul\":1586:1590   */\n  dup2\n    /* \"#utility.yul\":1582:1597   */\n  add\n    /* \"#utility.yul\":1574:1597   */\n  swap1\n  pop\n    /* \"#utility.yul\":1296:1604   */\n  swap2\n  swap1\n  pop\n  jump\t// out\n    /* \"#utility.yul\":1610:1749   */\ntag_22:\n    /* \"#utility.yul\":1699:1705   */\n  dup3\n    /* \"#utility.yul\":1694:1697   */\n  dup2\n    /* \"#utility.yul\":1689:1692   */\n  dup4\n    /* \"#utility.yul\":1683:1706   */\n  mcopy\n    /* \"#utility.yul\":1740:1741   */\n  0x00\n    /* \"#utility.yul\":1731:1737   */\n  dup4\n    /* \"#utility.yul\":1726:1729   */\n  dup4\n    /* \"#utility.yul\":1722:1738   */\n  add\n    /* \"#utility.yul\":1715:1742   */\n  mstore\n    /* \"#utility.yul\":1610:1749   */\n  pop\n  pop\n  pop\n  jump\t// out\n    /* \"#utility.yul\":1755:2189   */\ntag_23:\n    /* \"#utility.yul\":1844:1849   */\n  0x00\n    /* \"#utility.yul\":1869:1935   */\n  tag_74\n    /* \"#utility.yul\":1885:1934   */\n  tag_75\n    /* \"#utility.yul\":1927:1933   */\n  dup5\n    /* \"#utility.yul\":1885:1934   */\n  tag_21\n  jump\t// in\ntag_75:\n    /* \"#utility.yul\":1869:1935   */\n  tag_20\n  jump\t// in\ntag_74:\n    /* \"#utility.yul\":1860:1935   */\n  swap1\n  pop\n    /* \"#utility.yul\":1958:1964   */\n  dup3\n    /* \"#utility.yul\":1951:1956   */\n  dup2\n    /* \"#utility.yul\":1944:1965   */\n  mstore\n    /* \"#utility.yul\":1996:2000   */\n  0x20\n    /* \"#utility.yul\":1989:1994   */\n  dup2\n    /* \"#utility.yul\":1985:2001   */\n  add\n    /* \"#utility.yul\":2034:2037   */\n  dup5\n    /* \"#utility.yul\":2025:2031   */\n  dup5\n    /* \"#utility.yul\":2020:2023   */\n  dup5\n    /* \"#utility.yul\":2016:2032   */\n  add\n    /* \"#utility.yul\":2013:2038   */\n  gt\n    /* \"#utility.yul\":2010:2122   */\n  iszero\n  tag_76\n  jumpi\n    /* \"#utility.yul\":2041:2120   */\n  tag_77\n  tag_16\n  jump\t// in\ntag_77:\n    /* \"#utility.yul\":2010:2122   */\ntag_76:\n    /* \"#utility.yul\":2131:2183   */\n  tag_78\n    /* \"#utility.yul\":2176:2182   */\n  dup5\n    /* \"#utility.yul\":2171:2174   */\n  dup3\n    /* \"#utility.yul\":2166:2169   */\n  dup6\n    /* \"#utility.yul\":2131:2183   */\n  tag_22\n  jump\t// in\ntag_78:\n    /* \"#utility.yul\":1850:2189   */\n  pop\n    /* \"#utility.yul\":1755:2189   */\n  swap4\n  swap3\n  pop\n  pop\n  pop\n  jump\t// out\n    /* \"#utility.yul\":2209:2564   */\ntag_24:\n    /* \"#utility.yul\":2276:2281   */\n  0x00\n    /* \"#utility.yul\":2325:2328   */\n  dup3\n    /* \"#utility.yul\":2318:2322   */\n  0x1f\n    /* \"#utility.yul\":2310:2316   */\n  dup4\n    /* \"#utility.yul\":2306:2323   */\n  add\n    /* \"#utility.yul\":2302:2329   */\n  slt\n    /* \"#utility.yul\":2292:2414   */\n  tag_80\n  jumpi\n    /* \"#utility.yul\":2333:2412   */\n  tag_81\n  tag_15\n  jump\t// in\ntag_81:\n    /* \"#utility.yul\":2292:2414   */\ntag_80:\n    /* \"#utility.yul\":2443:2449   */\n  dup2\n    /* \"#utility.yul\":2437:2450   */\n  mload\n    /* \"#utility.yul\":2468:2558   */\n  tag_82\n    /* \"#utility.yul\":2554:2557   */\n  dup5\n    /* \"#utility.yul\":2546:2552   */\n  dup3\n    /* \"#utility.yul\":2539:2543   */\n  0x20\n    /* \"#utility.yul\":2531:2537   */\n  dup7\n    /* \"#utility.yul\":2527:2544   */\n  add\n    /* \"#utility.yul\":2468:2558   */\n  tag_23\n  jump\t// in\ntag_82:\n    /* \"#utility.yul\":2459:2558   */\n  swap2\n  pop\n    /* \"#utility.yul\":2282:2564   */\n  pop\n    /* \"#utility.yul\":2209:2564   */\n  swap3\n  swap2\n  pop\n  pop\n  jump\t// out\n    /* \"#utility.yul\":2570:2656   */\ntag_25:\n    /* \"#utility.yul\":2605:2612   */\n  0x00\n    /* \"#utility.yul\":2645:2649   */\n  0xff\n    /* \"#utility.yul\":2638:2643   */\n  dup3\n    /* \"#utility.yul\":2634:2650   */\n  and\n    /* \"#utility.yul\":2623:2650   */\n  swap1\n  pop\n    /* \"#utility.yul\":2570:2656   */\n  swap2\n  swap1\n  pop\n  jump\t// out\n    /* \"#utility.yul\":2662:2780   */\ntag_26:\n    /* \"#utility.yul\":2733:2755   */\n  tag_85\n    /* \"#utility.yul\":2749:2754   */\n  dup2\n    /* \"#utility.yul\":2733:2755   */\n  tag_25\n  jump\t// in\ntag_85:\n    /* \"#utility.yul\":2726:2731   */\n  dup2\n    /* \"#utility.yul\":2723:2756   */\n  eq\n    /* \"#utility.yul\":2713:2774   */\n  tag_86\n  jumpi\n    /* \"#utility.yul\":2770:2771   */\n  0x00\n    /* \"#utility.yul\":2767:2768   */\n  0x00\n    /* \"#utility.yul\":2760:2772   */\n  revert\n    /* \"#utility.yul\":2713:2774   */\ntag_86:\n    /* \"#utility.yul\":2662:2780   */\n  pop\n  jump\t// out\n    /* \"#utility.yul\":2786:2925   */\ntag_27:\n    /* \"#utility.yul\":2841:2846   */\n  0x00\n    /* \"#utility.yul\":2872:2878   */\n  dup2\n    /* \"#utility.yul\":2866:2879   */\n  mload\n    /* \"#utility.yul\":2857:2879   */\n  swap1\n  pop\n    /* \"#utility.yul\":2888:2919   */\n  tag_88\n    /* \"#utility.yul\":2913:2918   */\n  dup2\n    /* \"#utility.yul\":2888:2919   */\n  tag_26\n  jump\t// in\ntag_88:\n    /* \"#utility.yul\":2786:2925   */\n  swap3\n  swap2\n  pop\n  pop\n  jump\t// out\n    /* \"#utility.yul\":2931:3008   */\ntag_28:\n    /* \"#utility.yul\":2968:2975   */\n  0x00\n    /* \"#utility.yul\":2997:3002   */\n  dup2\n    /* \"#utility.yul\":2986:3002   */\n  swap1\n  pop\n    /* \"#utility.yul\":2931:3008   */\n  swap2\n  swap1\n  pop\n  jump\t// out\n    /* \"#utility.yul\":3014:3136   */\ntag_29:\n    /* \"#utility.yul\":3087:3111   */\n  tag_91\n    /* \"#utility.yul\":3105:3110   */\n  dup2\n    /* \"#utility.yul\":3087:3111   */\n  tag_28\n  jump\t// in\ntag_91:\n    /* \"#utility.yul\":3080:3085   */\n  dup2\n    /* \"#utility.yul\":3077:3112   */\n  eq\n    /* \"#utility.yul\":3067:3130   */\n  tag_92\n  jumpi\n    /* \"#utility.yul\":3126:3127   */\n  0x00\n    /* \"#utility.yul\":3123:3124   */\n  0x00\n    /* \"#utility.yul\":3116:3128   */\n  revert\n    /* \"#utility.yul\":3067:3130   */\ntag_92:\n    /* \"#utility.yul\":3014:3136   */\n  pop\n  jump\t// out\n    /* \"#utility.yul\":3142:3285   */\ntag_30:\n    /* \"#utility.yul\":3199:3204   */\n  0x00\n    /* \"#utility.yul\":3230:3236   */\n  dup2\n    /* \"#utility.yul\":3224:3237   */\n  mload\n    /* \"#utility.yul\":3215:3237   */\n  swap1\n  pop\n    /* \"#utility.yul\":3246:3279   */\n  tag_94\n    /* \"#utility.yul\":3273:3278   */\n  dup2\n    /* \"#utility.yul\":3246:3279   */\n  tag_29\n  jump\t// in\ntag_94:\n    /* \"#utility.yul\":3142:3285   */\n  swap3\n  swap2\n  pop\n  pop\n  jump\t// out\n    /* \"#utility.yul\":3291:4453   */\ntag_3:\n    /* \"#utility.yul\":3406:3412   */\n  0x00\n    /* \"#utility.yul\":3414:3420   */\n  0x00\n    /* \"#utility.yul\":3422:3428   */\n  0x00\n    /* \"#utility.yul\":3430:3436   */\n  0x00\n    /* \"#utility.yul\":3479:3482   */\n  0x80\n    /* \"#utility.yul\":3467:3476   */\n  dup6\n    /* \"#utility.yul\":3458:3465   */\n  dup8\n    /* \"#utility.yul\":3454:3477   */\n  sub\n    /* \"#utility.yul\":3450:3483   */\n  slt\n    /* \"#utility.yul\":3447:3567   */\n  iszero\n  tag_96\n  jumpi\n    /* \"#utility.yul\":3486:3565   */\n  tag_97\n  tag_13\n  jump\t// in\ntag_97:\n    /* \"#utility.yul\":3447:3567   */\ntag_96:\n    /* \"#utility.yul\":3627:3628   */\n  0x00\n    /* \"#utility.yul\":3616:3625   */\n  dup6\n    /* \"#utility.yul\":3612:3629   */\n  add\n    /* \"#utility.yul\":3606:3630   */\n  mload\n    /* \"#utility.yul\":3657:3675   */\n  0xffffffffffffffff\n    /* \"#utility.yul\":3649:3655   */\n  dup2\n    /* \"#utility.yul\":3646:3676   */\n  gt\n    /* \"#utility.yul\":3643:3760   */\n  iszero\n  tag_98\n  jumpi\n    /* \"#utility.yul\":3679:3758   */\n  tag_99\n  tag_14\n  jump\t// in\ntag_99:\n    /* \"#utility.yul\":3643:3760   */\ntag_98:\n    /* \"#utility.yul\":3784:3858   */\n  tag_100\n    /* \"#utility.yul\":3850:3857   */\n  dup8\n    /* \"#utility.yul\":3841:3847   */\n  dup3\n    /* \"#utility.yul\":3830:3839   */\n  dup9\n    /* \"#utility.yul\":3826:3848   */\n  add\n    /* \"#utility.yul\":3784:3858   */\n  tag_24\n  jump\t// in\ntag_100:\n    /* \"#utility.yul\":3774:3858   */\n  swap5\n  pop\n    /* \"#utility.yul\":3577:3868   */\n  pop\n    /* \"#utility.yul\":3928:3930   */\n  0x20\n    /* \"#utility.yul\":3917:3926   */\n  dup6\n    /* \"#utility.yul\":3913:3931   */\n  add\n    /* \"#utility.yul\":3907:3932   */\n  mload\n    /* \"#utility.yul\":3959:3977   */\n  0xffffffffffffffff\n    /* \"#utility.yul\":3951:3957   */\n  dup2\n    /* \"#utility.yul\":3948:3978   */\n  gt\n    /* \"#utility.yul\":3945:4062   */\n  iszero\n  tag_101\n  jumpi\n    /* \"#utility.yul\":3981:4060   */\n  tag_102\n  tag_14\n  jump\t// in\ntag_102:\n    /* \"#utility.yul\":3945:4062   */\ntag_101:\n    /* \"#utility.yul\":4086:4160   */\n  tag_103\n    /* \"#utility.yul\":4152:4159   */\n  dup8\n    /* \"#utility.yul\":4143:4149   */\n  dup3\n    /* \"#utility.yul\":4132:4141   */\n  dup9\n    /* \"#utility.yul\":4128:4150   */\n  add\n    /* \"#utility.yul\":4086:4160   */\n  tag_24\n  jump\t// in\ntag_103:\n    /* \"#utility.yul\":4076:4160   */\n  swap4\n  pop\n    /* \"#utility.yul\":3878:4170   */\n  pop\n    /* \"#utility.yul\":4209:4211   */\n  0x40\n    /* \"#utility.yul\":4235:4297   */\n  tag_104\n    /* \"#utility.yul\":4289:4296   */\n  dup8\n    /* \"#utility.yul\":4280:4286   */\n  dup3\n    /* \"#utility.yul\":4269:4278   */\n  dup9\n    /* \"#utility.yul\":4265:4287   */\n  add\n    /* \"#utility.yul\":4235:4297   */\n  tag_27\n  jump\t// in\ntag_104:\n    /* \"#utility.yul\":4225:4297   */\n  swap3\n  pop\n    /* \"#utility.yul\":4180:4307   */\n  pop\n    /* \"#utility.yul\":4346:4348   */\n  0x60\n    /* \"#utility.yul\":4372:4436   */\n  tag_105\n    /* \"#utility.yul\":4428:4435   */\n  dup8\n    /* \"#utility.yul\":4419:4425   */\n  dup3\n    /* \"#utility.yul\":4408:4417   */\n  dup9\n    /* \"#utility.yul\":4404:4426   */\n  add\n    /* \"#utility.yul\":4372:4436   */\n  tag_30\n  jump\t// in\ntag_105:\n    /* \"#utility.yul\":4362:4436   */\n  swap2\n  pop\n    /* \"#utility.yul\":4317:4446   */\n  pop\n    /* \"#utility.yul\":3291:4453   */\n  swap3\n  swap6\n  swap2\n  swap5\n  pop\n  swap3\n  pop\n  jump\t// out\n    /* \"#utility.yul\":4459:4558   */\ntag_31:\n    /* \"#utility.yul\":4511:4517   */\n  0x00\n    /* \"#utility.yul\":4545:4550   */\n  dup2\n    /* \"#utility.yul\":4539:4551   */\n  mload\n    /* \"#utility.yul\":4529:4551   */\n  swap1\n  pop\n    /* \"#utility.yul\":4459:4558   */\n  swap2\n  swap1\n  pop\n  jump\t// out\n    /* \"#utility.yul\":4564:4744   */\ntag_32:\n    /* \"#utility.yul\":4612:4689   */\n  0x4e487b7100000000000000000000000000000000000000000000000000000000\n    /* \"#utility.yul\":4609:4610   */\n  0x00\n    /* \"#utility.yul\":4602:4690   */\n  mstore\n    /* \"#utility.yul\":4709:4713   */\n  0x22\n    /* \"#utility.yul\":4706:4707   */\n  0x04\n    /* \"#utility.yul\":4699:4714   */\n  mstore\n    /* \"#utility.yul\":4733:4737   */\n  0x24\n    /* \"#utility.yul\":4730:4731   */\n  0x00\n    /* \"#utility.yul\":4723:4738   */\n  revert\n    /* \"#utility.yul\":4750:5070   */\ntag_33:\n    /* \"#utility.yul\":4794:4800   */\n  0x00\n    /* \"#utility.yul\":4831:4832   */\n  0x02\n    /* \"#utility.yul\":4825:4829   */\n  dup3\n    /* \"#utility.yul\":4821:4833   */\n  div\n    /* \"#utility.yul\":4811:4833   */\n  swap1\n  pop\n    /* \"#utility.yul\":4878:4879   */\n  0x01\n    /* \"#utility.yul\":4872:4876   */\n  dup3\n    /* \"#utility.yul\":4868:4880   */\n  and\n    /* \"#utility.yul\":4899:4917   */\n  dup1\n    /* \"#utility.yul\":4889:4970   */\n  tag_109\n  jumpi\n    /* \"#utility.yul\":4955:4959   */\n  0x7f\n    /* \"#utility.yul\":4947:4953   */\n  dup3\n    /* \"#utility.yul\":4943:4960   */\n  and\n    /* \"#utility.yul\":4933:4960   */\n  swap2\n  pop\n    /* \"#utility.yul\":4889:4970   */\ntag_109:\n    /* \"#utility.yul\":5017:5019   */\n  0x20\n    /* \"#utility.yul\":5009:5015   */\n  dup3\n    /* \"#utility.yul\":5006:5020   */\n  lt\n    /* \"#utility.yul\":4986:5004   */\n  dup2\n    /* \"#utility.yul\":4983:5021   */\n  sub\n    /* \"#utility.yul\":4980:5064   */\n  tag_110\n  jumpi\n    /* \"#utility.yul\":5036:5054   */\n  tag_111\n  tag_32\n  jump\t// in\ntag_111:\n    /* \"#utility.yul\":4980:5064   */\ntag_110:\n    /* \"#utility.yul\":4801:5070   */\n  pop\n    /* \"#utility.yul\":4750:5070   */\n  swap2\n  swap1\n  pop\n  jump\t// out\n    /* \"#utility.yul\":5076:5217   */\ntag_34:\n    /* \"#utility.yul\":5125:5129   */\n  0x00\n    /* \"#utility.yul\":5148:5151   */\n  dup2\n    /* \"#utility.yul\":5140:5151   */\n  swap1\n  pop\n    /* \"#utility.yul\":5171:5174   */\n  dup2\n    /* \"#utility.yul\":5168:5169   */\n  0x00\n    /* \"#utility.yul\":5161:5175   */\n  mstore\n    /* \"#utility.yul\":5205:5209   */\n  0x20\n    /* \"#utility.yul\":5202:5203   */\n  0x00\n    /* \"#utility.yul\":5192:5210   */\n  keccak256\n    /* \"#utility.yul\":5184:5210   */\n  swap1\n  pop\n    /* \"#utility.yul\":5076:5217   */\n  swap2\n  swap1\n  pop\n  jump\t// out\n    /* \"#utility.yul\":5223:5316   */\ntag_35:\n    /* \"#utility.yul\":5260:5266   */\n  0x00\n    /* \"#utility.yul\":5307:5309   */\n  0x20\n    /* \"#utility.yul\":5302:5304   */\n  0x1f\n    /* \"#utility.yul\":5295:5300   */\n  dup4\n    /* \"#utility.yul\":5291:5305   */\n  add\n    /* \"#utility.yul\":5287:5310   */\n  div\n    /* \"#utility.yul\":5277:5310   */\n  swap1\n  pop\n    /* \"#utility.yul\":5223:5316   */\n  swap2\n  swap1\n  pop\n  jump\t// out\n    /* \"#utility.yul\":5322:5429   */\ntag_36:\n    /* \"#utility.yul\":5366:5374   */\n  0x00\n    /* \"#utility.yul\":5416:5421   */\n  dup3\n    /* \"#utility.yul\":5410:5414   */\n  dup3\n    /* \"#utility.yul\":5406:5422   */\n  shl\n    /* \"#utility.yul\":5385:5422   */\n  swap1\n  pop\n    /* \"#utility.yul\":5322:5429   */\n  swap3\n  swap2\n  pop\n  pop\n  jump\t// out\n    /* \"#utility.yul\":5435:5828   */\ntag_37:\n    /* \"#utility.yul\":5504:5510   */\n  0x00\n    /* \"#utility.yul\":5554:5555   */\n  0x08\n    /* \"#utility.yul\":5542:5552   */\n  dup4\n    /* \"#utility.yul\":5538:5556   */\n  mul\n    /* \"#utility.yul\":5577:5674   */\n  tag_116\n    /* \"#utility.yul\":5607:5673   */\n  0xffffffffffffffffffffffffffffffffffffffffffffffffffffffffffffffff\n    /* \"#utility.yul\":5596:5605   */\n  dup3\n    /* \"#utility.yul\":5577:5674   */\n  tag_36\n  jump\t// in\ntag_116:\n    /* \"#utility.yul\":5695:5734   */\n  tag_117\n    /* \"#utility.yul\":5725:5733   */\n  dup7\n    /* \"#utility.yul\":5714:5723   */\n  dup4\n    /* \"#utility.yul\":5695:5734   */\n  tag_36\n  jump\t// in\ntag_117:\n    /* \"#utility.yul\":5683:5734   */\n  swap6\n  pop\n    /* \"#utility.yul\":5767:5771   */\n  dup1\n    /* \"#utility.yul\":5763:5772   */\n  not\n    /* \"#utility.yul\":5756:5761   */\n  dup5\n    /* \"#utility.yul\":5752:5773   */\n  and\n    /* \"#utility.yul\":5743:5773   */\n  swap4\n  pop\n    /* \"#utility.yul\":5816:5820   */\n  dup1\n    /* \"#utility.yul\":5806:5814   */\n  dup7\n    /* \"#utility.yul\":5802:5821   */\n  and\n    /* \"#utility.yul\":5795:5800   */\n  dup5\n    /* \"#utility.yul\":5792:5822   */\n  or\n    /* \"#utility.yul\":5782:5822   */\n  swap3\n  pop\n    /* \"#utility.yul\":5511:5828   */\n  pop\n  pop\n    /* \"#utility.yul\":5435:5828   */\n  swap4\n  swap3\n  pop\n  pop\n  pop\n  jump\t// out\n    /* \"#utility.yul\":5834:5894   */\ntag_38:\n    /* \"#utility.yul\":5862:5865   */\n  0x00\n    /* \"#utility.yul\":5883:5888   */\n  dup2\n    /* \"#utility.yul\":5876:5888   */\n  swap1\n  pop\n    /* \"#utility.yul\":5834:5894   */\n  swap2\n  swap1\n  pop\n  jump\t// out\n    /* \"#utility.yul\":5900:6042   */\ntag_39:\n    /* \"#utility.yul\":5950:5959   */\n  0x00\n    /* \"#utility.yul\":5983:6036   */\n  tag_120\n    /* \"#utility.yul\":6001:6035   */\n  tag_121\n    /* \"#utility.yul\":6010:6034   */\n  tag_122\n    /* \"#utility.yul\":6028:6033   */\n  dup5\n    /* \"#utility.yul\":6010:6034   */\n  tag_28\n  jump\t// in\ntag_122:\n    /* \"#utility.yul\":6001:6035   */\n  tag_38\n  jump\t// in\ntag_121:\n    /* \"#utility.yul\":5983:6036   */\n  tag_28\n  jump\t// in\ntag_120:\n    /* \"#utility.yul\":5970:6036   */\n  swap1\n  pop\n    /* \"#utility.yul\":5900:6042   */\n  swap2\n  swap1\n  pop\n  jump\t// out\n    /* \"#utility.yul\":6048:6123   */\ntag_40:\n    /* \"#utility.yul\":6091:6094   */\n  0x00\n    /* \"#utility.yul\":6112:6117   */\n  dup2\n    /* \"#utility.yul\":6105:6117   */\n  swap1\n  pop\n    /* \"#utility.yul\":6048:6123   */\n  swap2\n  swap1\n  pop\n  jump\t// out\n    /* \"#utility.yul\":6129:6398   */\ntag_41:\n    /* \"#utility.yul\":6239:6278   */\n  tag_125\n    /* \"#utility.yul\":6270:6277   */\n  dup4\n    /* \"#utility.yul\":6239:6278   */\n  tag_39\n  jump\t// in\ntag_125:\n    /* \"#utility.yul\":6300:6391   */\n  tag_126\n    /* \"#utility.yul\":6349:6390   */\n  tag_127\n    /* \"#utility.yul\":6373:6389   */\n  dup3\n    /* \"#utility.yul\":6349:6390   */\n  tag_40\n  jump\t// in\ntag_127:\n    /* \"#utility.yul\":6341:6347   */\n  dup5\n    /* \"#utility.yul\":6334:6338   */\n  dup5\n    /* \"#utility.yul\":6328:6339   */\n  sload\n    /* \"#utility.yul\":6300:6391   */\n  tag_37\n  jump\t// in\ntag_126:\n    /* \"#utility.yul\":6294:6298   */\n  dup3\n    /* \"#utility.yul\":6287:6392   */\n  sstore\n    /* \"#utility.yul\":6205:6398   */\n  pop\n    /* \"#utility.yul\":6129:6398   */\n  pop\n  pop\n  pop\n  jump\t// out\n    /* \"#utility.yul\":6404:6477   */\ntag_42:\n    /* \"#utility.yul\":6449:6452   */\n  0x00\n    /* \"#utility.yul\":6470:6471   */\n  0x00\n    /* \"#utility.yul\":6463:6471   */\n  swap1\n  pop\n    /* \"#utility.yul\":6404:6477   */\n  swap1\n  jump\t// out\n    /* \"#utility.yul\":6483:6672   */\ntag_43:\n    /* \"#utility.yul\":6560:6592   */\n  tag_130\n  tag_42\n  jump\t// in\ntag_130:\n    /* \"#utility.yul\":6601:6666   */\n  tag_131\n    /* \"#utility.yul\":6659:6665   */\n  dup2\n    /* \"#utility.yul\":6651:6657   */\n  dup5\n    /* \"#utility.yul\":6645:6649   */\n  dup5\n    /* \"#utility.yul\":6601:6666   */\n  tag_41\n  jump\t// in\ntag_131:\n    /* \"#utility.yul\":6536:6672   */\n  pop\n    /* \"#utility.yul\":6483:6672   */\n  pop\n  pop\n  jump\t// out\n    /* \"#utility.yul\":6678:6864   */\ntag_44:\n    /* \"#utility.yul\":6738:6858   */\ntag_133:\n    /* \"#utility.yul\":6755:6758   */\n  dup2\n    /* \"#utility.yul\":6748:6753   */\n  dup2\n    /* \"#utility.yul\":6745:6759   */\n  lt\n    /* \"#utility.yul\":6738:6858   */\n  iszero\n  tag_135\n  jumpi\n    /* \"#utility.yul\":6809:6848   */\n  tag_136\n    /* \"#utility.yul\":6846:6847   */\n  0x00\n    /* \"#utility.yul\":6839:6844   */\n  dup3\n    /* \"#utility.yul\":6809:6848   */\n  tag_43\n  jump\t// in\ntag_136:\n    /* \"#utility.yul\":6782:6783   */\n  0x01\n    /* \"#utility.yul\":6775:6780   */\n  dup2\n    /* \"#utility.yul\":6771:6784   */\n  add\n    /* \"#utility.yul\":6762:6784   */\n  swap1\n  pop\n    /* \"#utility.yul\":6738:6858   */\n  jump(tag_133)\ntag_135:\n    /* \"#utility.yul\":6678:6864   */\n  pop\n  pop\n  jump\t// out\n    /* \"#utility.yul\":6870:7413   */\ntag_45:\n    /* \"#utility.yul\":6971:6973   */\n  0x1f\n    /* \"#utility.yul\":6966:6969   */\n  dup3\n    /* \"#utility.yul\":6963:6974   */\n  gt\n    /* \"#utility.yul\":6960:7406   */\n  iszero\n  tag_138\n  jumpi\n    /* \"#utility.yul\":7005:7043   */\n  tag_139\n    /* \"#utility.yul\":7037:7042   */\n  dup2\n    /* \"#utility.yul\":7005:7043   */\n  tag_34\n  jump\t// in\ntag_139:\n    /* \"#utility.yul\":7089:7118   */\n  tag_140\n    /* \"#utility.yul\":7107:7117   */\n  dup5\n    /* \"#utility.yul\":7089:7118   */\n  tag_35\n  jump\t// in\ntag_140:\n    /* \"#utility.yul\":7079:7087   */\n  dup2\n    /* \"#utility.yul\":7075:7119   */\n  add\n    /* \"#utility.yul\":7272:7274   */\n  0x20\n    /* \"#utility.yul\":7260:7270   */\n  dup6\n    /* \"#utility.yul\":7257:7275   */\n  lt\n    /* \"#utility.yul\":7254:7303   */\n  iszero\n  tag_141\n  jumpi\n    /* \"#utility.yul\":7293:7301   */\n  dup2\n    /* \"#utility.yul\":7278:7301   */\n  swap1\n  pop\n    /* \"#utility.yul\":7254:7303   */\ntag_141:\n    /* \"#utility.yul\":7316:7396   */\n  tag_142\n    /* \"#utility.yul\":7372:7394   */\n  tag_143\n    /* \"#utility.yul\":7390:7393   */\n  dup6\n    /* \"#utility.yul\":7372:7394   */\n  tag_35\n  jump\t// in\ntag_143:\n    /* \"#utility.yul\":7362:7370   */\n  dup4\n    /* \"#utility.yul\":7358:7395   */\n  add\n    /* \"#utility.yul\":7345:7356   */\n  dup3\n    /* \"#utility.yul\":7316:7396   */\n  tag_44\n  jump\t// in\ntag_142:\n    /* \"#utility.yul\":6975:7406   */\n  pop\n  pop\n    /* \"#utility.yul\":6960:7406   */\ntag_138:\n    /* \"#utility.yul\":6870:7413   */\n  pop\n  pop\n  pop\n  jump\t// out\n    /* \"#utility.yul\":7419:7536   */\ntag_46:\n    /* \"#utility.yul\":7473:7481   */\n  0x00\n    /* \"#utility.yul\":7523:7528   */\n  dup3\n    /* \"#utility.yul\":7517:7521   */\n  dup3\n    /* \"#utility.yul\":7513:7529   */\n  shr\n    /* \"#utility.yul\":7492:7529   */\n  swap1\n  pop\n    /* \"#utility.yul\":7419:7536   */\n  swap3\n  swap2\n  pop\n  pop\n  jump\t// out\n    /* \"#utility.yul\":7542:7711   */\ntag_47:\n    /* \"#utility.yul\":7586:7592   */\n  0x00\n    /* \"#utility.yul\":7619:7670   */\n  tag_146\n    /* \"#utility.yul\":7667:7668   */\n  0x00\n    /* \"#utility.yul\":7663:7669   */\n  not\n    /* \"#utility.yul\":7655:7660   */\n  dup5\n    /* \"#utility.yul\":7652:7653   */\n  0x08\n    /* \"#utility.yul\":7648:7661   */\n  mul\n    /* \"#utility.yul\":7619:7670   */\n  tag_46\n  jump\t// in\ntag_146:\n    /* \"#utility.yul\":7615:7671   */\n  not\n    /* \"#utility.yul\":7700:7704   */\n  dup1\n    /* \"#utility.yul\":7694:7698   */\n  dup4\n    /* \"#utility.yul\":7690:7705   */\n  and\n    /* \"#utility.yul\":7680:7705   */\n  swap2\n  pop\n    /* \"#utility.yul\":7593:7711   */\n  pop\n    /* \"#utility.yul\":7542:7711   */\n  swap3\n  swap2\n  pop\n  pop\n  jump\t// out\n    /* \"#utility.yul\":7716:8011   */\ntag_48:\n    /* \"#utility.yul\":7792:7796   */\n  0x00\n    /* \"#utility.yul\":7938:7967   */\n  tag_148\n    /* \"#utility.yul\":7963:7966   */\n  dup4\n    /* \"#utility.yul\":7957:7961   */\n  dup4\n    /* \"#utility.yul\":7938:7967   */\n  tag_47\n  jump\t// in\ntag_148:\n    /* \"#utility.yul\":7930:7967   */\n  swap2\n  pop\n    /* \"#utility.yul\":8000:8003   */\n  dup3\n    /* \"#utility.yul\":7997:7998   */\n  0x02\n    /* \"#utility.yul\":7993:8004   */\n  mul\n    /* \"#utility.yul\":7987:7991   */\n  dup3\n    /* \"#utility.yul\":7984:8005   */\n  or\n    /* \"#utility.yul\":7976:8005   */\n  swap1\n  pop\n    /* \"#utility.yul\":7716:8011   */\n  swap3\n  swap2\n  pop\n  pop\n  jump\t// out\n    /* \"#utility.yul\":8016:9411   */\ntag_7:\n    /* \"#utility.yul\":8133:8170   */\n  tag_150\n    /* \"#utility.yul\":8166:8169   */\n  dup3\n    /* \"#utility.yul\":8133:8170   */\n  tag_31\n  jump\t// in\ntag_150:\n    /* \"#utility.yul\":8235:8253   */\n  0xffffffffffffffff\n    /* \"#utility.yul\":8227:8233   */\n  dup2\n    /* \"#utility.yul\":8224:8254   */\n  gt\n    /* \"#utility.yul\":8221:8277   */\n  iszero\n  tag_151\n  jumpi\n    /* \"#utility.yul\":8257:8275   */\n  tag_152\n  tag_18\n  jump\t// in\ntag_152:\n    /* \"#utility.yul\":8221:8277   */\ntag_151:\n    /* \"#utility.yul\":8301:8339   */\n  tag_153\n    /* \"#utility.yul\":8333:8337   */\n  dup3\n    /* \"#utility.yul\":8327:8338   */\n  sload\n    /* \"#utility.yul\":8301:8339   */\n  tag_33\n  jump\t// in\ntag_153:\n    /* \"#utility.yul\":8386:8453   */\n  tag_154\n    /* \"#utility.yul\":8446:8452   */\n  dup3\n    /* \"#utility.yul\":8438:8444   */\n  dup3\n    /* \"#utility.yul\":8432:8436   */\n  dup6\n    /* \"#utility.yul\":8386:8453   */\n  tag_45\n  jump\t// in\ntag_154:\n    /* \"#utility.yul\":8480:8481   */\n  0x00\n    /* \"#utility.yul\":8504:8508   */\n  0x20\n    /* \"#utility.yul\":8491:8508   */\n  swap1\n  pop\n    /* \"#utility.yul\":8536:8538   */\n  0x1f\n    /* \"#utility.yul\":8528:8534   */\n  dup4\n    /* \"#utility.yul\":8525:8539   */\n  gt\n    /* \"#utility.yul\":8553:8554   */\n  0x01\n    /* \"#utility.yul\":8548:9166   */\n  dup2\n  eq\n  tag_156\n  jumpi\n    /* \"#utility.yul\":9210:9211   */\n  0x00\n    /* \"#utility.yul\":9227:9233   */\n  dup5\n    /* \"#utility.yul\":9224:9301   */\n  iszero\n  tag_157\n  jumpi\n    /* \"#utility.yul\":9276:9285   */\n  dup3\n    /* \"#utility.yul\":9271:9274   */\n  dup8\n    /* \"#utility.yul\":9267:9286   */\n  add\n    /* \"#utility.yul\":9261:9287   */\n  mload\n    /* \"#utility.yul\":9252:9287   */\n  swap1\n  pop\n    /* \"#utility.yul\":9224:9301   */\ntag_157:\n    /* \"#utility.yul\":9327:9394   */\n  tag_158\n    /* \"#utility.yul\":9387:9393   */\n  dup6\n    /* \"#utility.yul\":9380:9385   */\n  dup3\n    /* \"#utility.yul\":9327:9394   */\n  tag_48\n  jump\t// in\ntag_158:\n    /* \"#utility.yul\":9321:9325   */\n  dup7\n    /* \"#utility.yul\":9314:9395   */\n  sstore\n    /* \"#utility.yul\":9183:9405   */\n  pop\n    /* \"#utility.yul\":8518:9405   */\n  jump(tag_155)\n    /* \"#utility.yul\":8548:9166   */\ntag_156:\n    /* \"#utility.yul\":8600:8604   */\n  0x1f\n    /* \"#utility.yul\":8596:8605   */\n  not\n    /* \"#utility.yul\":8588:8594   */\n  dup5\n    /* \"#utility.yul\":8584:8606   */\n  and\n    /* \"#utility.yul\":8634:8671   */\n  tag_159\n    /* \"#utility.yul\":8666:8670   */\n  dup7\n    /* \"#utility.yul\":8634:8671   */\n  tag_34\n  jump\t// in\ntag_159:\n    /* \"#utility.yul\":8693:8694   */\n  0x00\n    /* \"#utility.yul\":8707:8915   */\ntag_160:\n    /* \"#utility.yul\":8721:8728   */\n  dup3\n    /* \"#utility.yul\":8718:8719   */\n  dup2\n    /* \"#utility.yul\":8715:8729   */\n  lt\n    /* \"#utility.yul\":8707:8915   */\n  iszero\n  tag_162\n  jumpi\n    /* \"#utility.yul\":8800:8809   */\n  dup5\n    /* \"#utility.yul\":8795:8798   */\n  dup10\n    /* \"#utility.yul\":8791:8810   */\n  add\n    /* \"#utility.yul\":8785:8811   */\n  mload\n    /* \"#utility.yul\":8777:8783   */\n  dup3\n    /* \"#utility.yul\":8770:8812   */\n  sstore\n    /* \"#utility.yul\":8851:8852   */\n  0x01\n    /* \"#utility.yul\":8843:8849   */\n  dup3\n    /* \"#utility.yul\":8839:8853   */\n  add\n    /* \"#utility.yul\":8829:8853   */\n  swap2\n  pop\n    /* \"#utility.yul\":8898:8900   */\n  0x20\n    /* \"#utility.yul\":8887:8896   */\n  dup6\n    /* \"#utility.yul\":8883:8901   */\n  add\n    /* \"#utility.yul\":8870:8901   */\n  swap5\n  pop\n    /* \"#utility.yul\":8744:8748   */\n  0x20\n    /* \"#utility.yul\":8741:8742   */\n  dup2\n    /* \"#utility.yul\":8737:8749   */\n  add\n    /* \"#utility.yul\":8732:8749   */\n  swap1\n  pop\n    /* \"#utility.yul\":8707:8915   */\n  jump(tag_160)\ntag_162:\n    /* \"#utility.yul\":8943:8949   */\n  dup7\n    /* \"#utility.yul\":8934:8941   */\n  dup4\n    /* \"#utility.yul\":8931:8950   */\n  lt\n    /* \"#utility.yul\":8928:9107   */\n  iszero\n  tag_163\n  jumpi\n    /* \"#utility.yul\":9001:9010   */\n  dup5\n    /* \"#utility.yul\":8996:8999   */\n  dup10\n    /* \"#utility.yul\":8992:9011   */\n  add\n    /* \"#utility.yul\":8986:9012   */\n  mload\n    /* \"#utility.yul\":9044:9092   */\n  tag_164\n    /* \"#utility.yul\":9086:9090   */\n  0x1f\n    /* \"#utility.yul\":9078:9084   */\n  dup10\n    /* \"#utility.yul\":9074:9091   */\n  and\n    /* \"#utility.yul\":9063:9072   */\n  dup3\n    /* \"#utility.yul\":9044:9092   */\n  tag_47\n  jump\t// in\ntag_164:\n    /* \"#utility.yul\":9036:9042   */\n  dup4\n    /* \"#utility.yul\":9029:9093   */\n  sstore\n    /* \"#utility.yul\":8951:9107   */\n  pop\n    /* \"#utility.yul\":8928:9107   */\ntag_163:\n    /* \"#utility.yul\":9153:9154   */\n  0x01\n    /* \"#utility.yul\":9149:9150   */\n  0x02\n    /* \"#utility.yul\":9141:9147   */\n  dup9\n    /* \"#utility.yul\":9137:9151   */\n  mul\n    /* \"#utility.yul\":9133:9155   */\n  add\n    /* \"#utility.yul\":9127:9131   */\n  dup9\n    /* \"#utility.yul\":9120:9156   */\n  sstore\n    /* \"#utility.yul\":8555:9166   */\n  pop\n  pop\n  pop\n    /* \"#utility.yul\":8518:9405   */\ntag_155:\n  pop\n    /* \"#utility.yul\":8108:9411   */\n  pop\n  pop\n  pop\n    /* \"#utility.yul\":8016:9411   */\n  pop\n  pop\n  jump\t// out\n    /* \"#utility.yul\":9417:9543   */\ntag_49:\n    /* \"#utility.yul\":9454:9461   */\n  0x00\n    /* \"#utility.yul\":9494:9536   */\n  0xffffffffffffffffffffffffffffffffffffffff\n    /* \"#utility.yul\":9487:9492   */\n  dup3\n    /* \"#utility.yul\":9483:9537   */\n  and\n    /* \"#utility.yul\":9472:9537   */\n  swap1\n  pop\n    /* \"#utility.yul\":9417:9543   */\n  swap2\n  swap1\n  pop\n  jump\t// out\n    /* \"#utility.yul\":9549:9645   */\ntag_50:\n    /* \"#utility.yul\":9586:9593   */\n  0x00\n    /* \"#utility.yul\":9615:9639   */\n  tag_167\n    /* \"#utility.yul\":9633:9638   */\n  dup3\n    /* \"#utility.yul\":9615:9639   */\n  tag_49\n  jump\t// in\ntag_167:\n    /* \"#utility.yul\":9604:9639   */\n  swap1\n  pop\n    /* \"#utility.yul\":9549:9645   */\n  swap2\n  swap1\n  pop\n  jump\t// out\n    /* \"#utility.yul\":9651:9769   */\ntag_51:\n    /* \"#utility.yul\":9738:9762   */\n  tag_169\n    /* \"#utility.yul\":9756:9761   */\n  dup2\n    /* \"#utility.yul\":9738:9762   */\n  tag_50\n  jump\t// in\ntag_169:\n    /* \"#utility.yul\":9733:9736   */\n  dup3\n    /* \"#utility.yul\":9726:9763   */\n  mstore\n    /* \"#utility.yul\":9651:9769   */\n  pop\n  pop\n  jump\t// out\n    /* \"#utility.yul\":9775:9893   */\ntag_52:\n    /* \"#utility.yul\":9862:9886   */\n  tag_171\n    /* \"#utility.yul\":9880:9885   */\n  dup2\n    /* \"#utility.yul\":9862:9886   */\n  tag_28\n  jump\t// in\ntag_171:\n    /* \"#utility.yul\":9857:9860   */\n  dup3\n    /* \"#utility.yul\":9850:9887   */\n  mstore\n    /* \"#utility.yul\":9775:9893   */\n  pop\n  pop\n  jump\t// out\n    /* \"#utility.yul\":9899:10341   */\ntag_10:\n    /* \"#utility.yul\":10048:10052   */\n  0x00\n    /* \"#utility.yul\":10086:10088   */\n  0x60\n    /* \"#utility.yul\":10075:10084   */\n  dup3\n    /* \"#utility.yul\":10071:10089   */\n  add\n    /* \"#utility.yul\":10063:10089   */\n  swap1\n  pop\n    /* \"#utility.yul\":10099:10170   */\n  tag_173\n    /* \"#utility.yul\":10167:10168   */\n  0x00\n    /* \"#utility.yul\":10156:10165   */\n  dup4\n    /* \"#utility.yul\":10152:10169   */\n  add\n    /* \"#utility.yul\":10143:10149   */\n  dup7\n    /* \"#utility.yul\":10099:10170   */\n  tag_51\n  jump\t// in\ntag_173:\n    /* \"#utility.yul\":10180:10252   */\n  tag_174\n    /* \"#utility.yul\":10248:10250   */\n  0x20\n    /* \"#utility.yul\":10237:10246   */\n  dup4\n    /* \"#utility.yul\":10233:10251   */\n  add\n    /* \"#utility.yul\":10224:10230   */\n  dup6\n    /* \"#utility.yul\":10180:10252   */\n  tag_51\n  jump\t// in\ntag_174:\n    /* \"#utility.yul\":10262:10334   */\n  tag_175\n    /* \"#utility.yul\":10330:10332   */\n  0x40\n    /* \"#utility.yul\":10319:10328   */\n  dup4\n    /* \"#utility.yul\":10315:10333   */\n  add\n    /* \"#utility.yul\":10306:10312   */\n  dup5\n    /* \"#utility.yul\":10262:10334   */\n  tag_52\n  jump\t// in\ntag_175:\n    /* \"#utility.yul\":9899:10341   */\n  swap5\n  swap4\n  pop\n  pop\n  pop\n  pop\n  jump\t// out\n    /* \"ERC-20Tokens.sol\":59:2012  contract  ERC20Token{... */\ntag_11:\n  dataSize(sub_0)\n  dup1\n  dataOffset(sub_0)\n  0x00\n  codecopy\n  0x00\n  return\nstop\n\nsub_0: assembly {\n        /* \"ERC-20Tokens.sol\":59:2012  contract  ERC20Token{... */\n      mstore(0x40, 0x80)\n      callvalue\n      dup1\n      iszero\n      tag_1\n      jumpi\n      revert(0x00, 0x00)\n    tag_1:\n      pop\n      jumpi(tag_2, lt(calldatasize, 0x04))\n      shr(0xe0, calldataload(0x00))\n      dup1\n      0x5c658165\n      gt\n      tag_14\n      jumpi\n      dup1\n      0x5c658165\n      eq\n      tag_8\n      jumpi\n      dup1\n      0x70a08231\n      eq\n      tag_9\n      jumpi\n      dup1\n      0x76809ce3\n      eq\n      tag_10\n      jumpi\n      dup1\n      0x95d89b41\n      eq\n      tag_11\n      jumpi\n      dup1\n      0xa9059cbb\n      eq\n      tag_12\n      jumpi\n      dup1\n      0xdd62ed3e\n      eq\n      tag_13\n      jumpi\n      jump(tag_2)\n    tag_14:\n      dup1\n      0x06fdde03\n      eq\n      tag_3\n      jumpi\n      dup1\n      0x095ea7b3\n      eq\n      tag_4\n      jumpi\n      dup1\n      0x23b872dd\n      eq\n      tag_5\n      jumpi\n      dup1\n      0x27e235e3\n      eq\n      tag_6\n      jumpi\n      dup1\n      0x3eaaf86b\n      eq\n      tag_7\n      jumpi\n    tag_2:\n      revert(0x00, 0x00)\n        /* \"ERC-20Tokens.sol\":82:100  string public name */\n    tag_3:\n      tag_15\n      tag_16\n      jump\t// in\n    tag_15:\n      mload(0x40)\n      tag_17\n      swap2\n      swap1\n      tag_18\n      jump\t// in\n    tag_17:\n      mload(0x40)\n      dup1\n      swap2\n      sub\n      swap1\n      return\n        /* \"ERC-20Tokens.sol\":1206:1404  function approve( address _spender, uint256 _tokens) public returns(bool success){... */\n    tag_4:\n      tag_19\n      0x04\n      dup1\n      calldatasize\n      sub\n      dup2\n      add\n      swap1\n      tag_20\n      swap2\n      swap1\n      tag_21\n      jump\t// in\n    tag_20:\n      tag_22\n      jump\t// in\n    tag_19:\n      mload(0x40)\n      tag_23\n      swap2\n      swap1\n      tag_24\n      jump\t// in\n    tag_23:\n      mload(0x40)\n      dup1\n      swap2\n      sub\n      swap1\n      return\n        /* \"ERC-20Tokens.sol\":1406:1866  function transferFrom(address _owner, address _to, uint256 _tokens)public returns(bool success){... */\n    tag_5:\n      tag_25\n      0x04\n      dup1\n      calldatasize\n      sub\n      dup2\n      add\n      swap1\n      tag_26\n      swap2\n      swap1\n      tag_27\n      jump\t// in\n    tag_26:\n      tag_28\n      jump\t// in\n    tag_25:\n      mload(0x40)\n      tag_29\n      swap2\n      swap1\n      tag_24\n      jump\t// in\n    tag_29:\n      mload(0x40)\n      dup1\n      swap2\n      sub\n      swap1\n      return\n        /* \"ERC-20Tokens.sol\":179:220  mapping(address=>uint256) public balances */\n    tag_6:\n      tag_30\n      0x04\n      dup1\n      calldatasize\n      sub\n      dup2\n      add\n      swap1\n      tag_31\n      swap2\n      swap1\n      tag_32\n      jump\t// in\n    tag_31:\n      tag_33\n      jump\t// in\n    tag_30:\n      mload(0x40)\n      tag_34\n      swap2\n      swap1\n      tag_35\n      jump\t// in\n    tag_34:\n      mload(0x40)\n      dup1\n      swap2\n      sub\n      swap1\n      return\n        /* \"ERC-20Tokens.sol\":714:795  function _totalSupply() public view returns(uint256){... */\n    tag_7:\n      tag_36\n      tag_37\n      jump\t// in\n    tag_36:\n      mload(0x40)\n      tag_38\n      swap2\n      swap1\n      tag_35\n      jump\t// in\n    tag_38:\n      mload(0x40)\n      dup1\n      swap2\n      sub\n      swap1\n      return\n        /* \"ERC-20Tokens.sol\":223:283  mapping (address=>mapping (address=>uint256)) public allowed */\n    tag_8:\n      tag_39\n      0x04\n      dup1\n      calldatasize\n      sub\n      dup2\n      add\n      swap1\n      tag_40\n      swap2\n      swap1\n      tag_41\n      jump\t// in\n    tag_40:\n      tag_42\n      jump\t// in\n    tag_39:\n      mload(0x40)\n      tag_43\n      swap2\n      swap1\n      tag_35\n      jump\t// in\n    tag_43:\n      mload(0x40)\n      dup1\n      swap2\n      sub\n      swap1\n      return\n        /* \"ERC-20Tokens.sol\":797:895  function balanceOf(address _address) public view returns(uint256){... */\n    tag_9:\n      tag_44\n      0x04\n      dup1\n      calldatasize\n      sub\n      dup2\n      add\n      swap1\n      tag_45\n      swap2\n      swap1\n      tag_32\n      jump\t// in\n    tag_45:\n      tag_46\n      jump\t// in\n    tag_44:\n      mload(0x40)\n      tag_47\n      swap2\n      swap1\n      tag_35\n      jump\t// in\n    tag_47:\n      mload(0x40)\n      dup1\n      swap2\n      sub\n      swap1\n      return\n        /* \"ERC-20Tokens.sol\":126:146  uint8 public decimal */\n    tag_10:\n      tag_48\n      tag_49\n      jump\t// in\n    tag_48:\n      mload(0x40)\n      tag_50\n      swap2\n      swap1\n      tag_51\n      jump\t// in\n    tag_50:\n      mload(0x40)\n      dup1\n      swap2\n      sub\n      swap1\n      return\n        /* \"ERC-20Tokens.sol\":103:123  string public symbol */\n    tag_11:\n      tag_52\n      tag_53\n      jump\t// in\n    tag_52:\n      mload(0x40)\n      tag_54\n      swap2\n      swap1\n      tag_18\n      jump\t// in\n    tag_54:\n      mload(0x40)\n      dup1\n      swap2\n      sub\n      swap1\n      return\n        /* \"ERC-20Tokens.sol\":897:1204  function transfer(address _to, uint256 _value)public  returns(bool success){... */\n    tag_12:\n      tag_55\n      0x04\n      dup1\n      calldatasize\n      sub\n      dup2\n      add\n      swap1\n      tag_56\n      swap2\n      swap1\n      tag_21\n      jump\t// in\n    tag_56:\n      tag_57\n      jump\t// in\n    tag_55:\n      mload(0x40)\n      tag_58\n      swap2\n      swap1\n      tag_24\n      jump\t// in\n    tag_58:\n      mload(0x40)\n      dup1\n      swap2\n      sub\n      swap1\n      return\n        /* \"ERC-20Tokens.sol\":1870:2009  function allowance(address _owner, address _spender) public view returns(uint256 remaningTokens){... */\n    tag_13:\n      tag_59\n      0x04\n      dup1\n      calldatasize\n      sub\n      dup2\n      add\n      swap1\n      tag_60\n      swap2\n      swap1\n      tag_41\n      jump\t// in\n    tag_60:\n      tag_61\n      jump\t// in\n    tag_59:\n      mload(0x40)\n      tag_62\n      swap2\n      swap1\n      tag_35\n      jump\t// in\n    tag_62:\n      mload(0x40)\n      dup1\n      swap2\n      sub\n      swap1\n      return\n        /* \"ERC-20Tokens.sol\":82:100  string public name */\n    tag_16:\n      0x00\n      dup1\n      sload\n      tag_63\n      swap1\n      tag_64\n      jump\t// in\n    tag_63:\n      dup1\n      0x1f\n      add\n      0x20\n      dup1\n      swap2\n      div\n      mul\n      0x20\n      add\n      mload(0x40)\n      swap1\n      dup2\n      add\n      0x40\n      mstore\n      dup1\n      swap3\n      swap2\n      swap1\n      dup2\n      dup2\n      mstore\n      0x20\n      add\n      dup3\n      dup1\n      sload\n      tag_65\n      swap1\n      tag_64\n      jump\t// in\n    tag_65:\n      dup1\n      iszero\n      tag_66\n      jumpi\n      dup1\n      0x1f\n      lt\n      tag_67\n      jumpi\n      0x0100\n      dup1\n      dup4\n      sload\n      div\n      mul\n      dup4\n      mstore\n      swap2\n      0x20\n      add\n      swap2\n      jump(tag_66)\n    tag_67:\n      dup3\n      add\n      swap2\n      swap1\n      0x00\n      mstore\n      keccak256(0x00, 0x20)\n      swap1\n    tag_68:\n      dup2\n      sload\n      dup2\n      mstore\n      swap1\n      0x01\n      add\n      swap1\n      0x20\n      add\n      dup1\n      dup4\n      gt\n      tag_68\n      jumpi\n      dup3\n      swap1\n      sub\n      0x1f\n      and\n      dup3\n      add\n      swap2\n    tag_66:\n      pop\n      pop\n      pop\n      pop\n      pop\n      dup2\n      jump\t// out\n        /* \"ERC-20Tokens.sol\":1206:1404  function approve( address _spender, uint256 _tokens) public returns(bool success){... */\n    tag_22:\n        /* \"ERC-20Tokens.sol\":1274:1286  bool success */\n      0x00\n        /* \"ERC-20Tokens.sol\":1324:1331  _tokens */\n      dup2\n        /* \"ERC-20Tokens.sol\":1294:1301  allowed */\n      0x05\n        /* \"ERC-20Tokens.sol\":1294:1313  allowed[msg.sender] */\n      0x00\n        /* \"ERC-20Tokens.sol\":1302:1312  msg.sender */\n      caller\n        /* \"ERC-20Tokens.sol\":1294:1313  allowed[msg.sender] */\n      0xffffffffffffffffffffffffffffffffffffffff\n      and\n      0xffffffffffffffffffffffffffffffffffffffff\n      and\n      dup2\n      mstore\n      0x20\n      add\n      swap1\n      dup2\n      mstore\n      0x20\n      add\n      0x00\n      keccak256\n        /* \"ERC-20Tokens.sol\":1294:1323  allowed[msg.sender][_spender] */\n      0x00\n        /* \"ERC-20Tokens.sol\":1314:1322  _spender */\n      dup6\n        /* \"ERC-20Tokens.sol\":1294:1323  allowed[msg.sender][_spender] */\n      0xffffffffffffffffffffffffffffffffffffffff\n      and\n      0xffffffffffffffffffffffffffffffffffffffff\n      and\n      dup2\n      mstore\n      0x20\n      add\n      swap1\n      dup2\n      mstore\n      0x20\n      add\n      0x00\n      keccak256\n        /* \"ERC-20Tokens.sol\":1294:1331  allowed[msg.sender][_spender]=_tokens */\n      dup2\n      swap1\n      sstore\n      pop\n        /* \"ERC-20Tokens.sol\":1364:1372  _spender */\n      dup3\n        /* \"ERC-20Tokens.sol\":1343:1382  Approval(msg.sender, _spender, _tokens) */\n      0xffffffffffffffffffffffffffffffffffffffff\n      and\n        /* \"ERC-20Tokens.sol\":1352:1362  msg.sender */\n      caller\n        /* \"ERC-20Tokens.sol\":1343:1382  Approval(msg.sender, _spender, _tokens) */\n      0xffffffffffffffffffffffffffffffffffffffff\n      and\n      0x8c5be1e5ebec7d5bd14f71427d1e84f3dd0314c0f7b2291e5b200ac8c7c3b925\n        /* \"ERC-20Tokens.sol\":1374:1381  _tokens */\n      dup5\n        /* \"ERC-20Tokens.sol\":1343:1382  Approval(msg.sender, _spender, _tokens) */\n      mload(0x40)\n      tag_70\n      swap2\n      swap1\n      tag_35\n      jump\t// in\n    tag_70:\n      mload(0x40)\n      dup1\n      swap2\n      sub\n      swap1\n      log3\n        /* \"ERC-20Tokens.sol\":1396:1400  true */\n      0x01\n        /* \"ERC-20Tokens.sol\":1389:1400  return true */\n      swap1\n      pop\n        /* \"ERC-20Tokens.sol\":1206:1404  function approve( address _spender, uint256 _tokens) public returns(bool success){... */\n      swap3\n      swap2\n      pop\n      pop\n      jump\t// out\n        /* \"ERC-20Tokens.sol\":1406:1866  function transferFrom(address _owner, address _to, uint256 _tokens)public returns(bool success){... */\n    tag_28:\n        /* \"ERC-20Tokens.sol\":1488:1500  bool success */\n      0x00\n        /* \"ERC-20Tokens.sol\":1526:1534  balances */\n      0x04\n        /* \"ERC-20Tokens.sol\":1526:1542  balances[_owner] */\n      0x00\n        /* \"ERC-20Tokens.sol\":1535:1541  _owner */\n      dup6\n        /* \"ERC-20Tokens.sol\":1526:1542  balances[_owner] */\n      0xffffffffffffffffffffffffffffffffffffffff\n      and\n      0xffffffffffffffffffffffffffffffffffffffff\n      and\n      dup2\n      mstore\n      0x20\n      add\n      swap1\n      dup2\n      mstore\n      0x20\n      add\n      0x00\n      keccak256\n      sload\n        /* \"ERC-20Tokens.sol\":1516:1523  _tokens */\n      dup3\n        /* \"ERC-20Tokens.sol\":1516:1542  _tokens<= balances[_owner] */\n      gt\n      iszero\n        /* \"ERC-20Tokens.sol\":1508:1566  require(_tokens<= balances[_owner],\"Insufficient balance\") */\n      tag_72\n      jumpi\n      mload(0x40)\n      0x08c379a000000000000000000000000000000000000000000000000000000000\n      dup2\n      mstore\n      0x04\n      add\n      tag_73\n      swap1\n      tag_74\n      jump\t// in\n    tag_73:\n      mload(0x40)\n      dup1\n      swap2\n      sub\n      swap1\n      revert\n    tag_72:\n        /* \"ERC-20Tokens.sol\":1591:1598  allowed */\n      0x05\n        /* \"ERC-20Tokens.sol\":1591:1606  allowed[_owner] */\n      0x00\n        /* \"ERC-20Tokens.sol\":1599:1605  _owner */\n      dup6\n        /* \"ERC-20Tokens.sol\":1591:1606  allowed[_owner] */\n      0xffffffffffffffffffffffffffffffffffffffff\n      and\n      0xffffffffffffffffffffffffffffffffffffffff\n      and\n      dup2\n      mstore\n      0x20\n      add\n      swap1\n      dup2\n      mstore\n      0x20\n      add\n      0x00\n      keccak256\n        /* \"ERC-20Tokens.sol\":1591:1618  allowed[_owner][msg.sender] */\n      0x00\n        /* \"ERC-20Tokens.sol\":1607:1617  msg.sender */\n      caller\n        /* \"ERC-20Tokens.sol\":1591:1618  allowed[_owner][msg.sender] */\n      0xffffffffffffffffffffffffffffffffffffffff\n      and\n      0xffffffffffffffffffffffffffffffffffffffff\n      and\n      dup2\n      mstore\n      0x20\n      add\n      swap1\n      dup2\n      mstore\n      0x20\n      add\n      0x00\n      keccak256\n      sload\n        /* \"ERC-20Tokens.sol\":1581:1588  _tokens */\n      dup3\n        /* \"ERC-20Tokens.sol\":1581:1618  _tokens<= allowed[_owner][msg.sender] */\n      gt\n      iszero\n        /* \"ERC-20Tokens.sol\":1573:1641  require(_tokens<= allowed[_owner][msg.sender], \"Tokens not allowed\") */\n      tag_75\n      jumpi\n      mload(0x40)\n      0x08c379a000000000000000000000000000000000000000000000000000000000\n      dup2\n      mstore\n      0x04\n      add\n      tag_76\n      swap1\n      tag_77\n      jump\t// in\n    tag_76:\n      mload(0x40)\n      dup1\n      swap2\n      sub\n      swap1\n      revert\n    tag_75:\n        /* \"ERC-20Tokens.sol\":1683:1690  _tokens */\n      dup2\n        /* \"ERC-20Tokens.sol\":1666:1674  balances */\n      0x04\n        /* \"ERC-20Tokens.sol\":1666:1682  balances[_owner] */\n      0x00\n        /* \"ERC-20Tokens.sol\":1675:1681  _owner */\n      dup7\n        /* \"ERC-20Tokens.sol\":1666:1682  balances[_owner] */\n      0xffffffffffffffffffffffffffffffffffffffff\n      and\n      0xffffffffffffffffffffffffffffffffffffffff\n      and\n      dup2\n      mstore\n      0x20\n      add\n      swap1\n      dup2\n      mstore\n      0x20\n      add\n      0x00\n      keccak256\n      sload\n        /* \"ERC-20Tokens.sol\":1666:1690  balances[_owner]-_tokens */\n      tag_78\n      swap2\n      swap1\n      tag_79\n      jump\t// in\n    tag_78:\n        /* \"ERC-20Tokens.sol\":1648:1656  balances */\n      0x04\n        /* \"ERC-20Tokens.sol\":1648:1664  balances[_owner] */\n      0x00\n        /* \"ERC-20Tokens.sol\":1657:1663  _owner */\n      dup7\n        /* \"ERC-20Tokens.sol\":1648:1664  balances[_owner] */\n      0xffffffffffffffffffffffffffffffffffffffff\n      and\n      0xffffffffffffffffffffffffffffffffffffffff\n      and\n      dup2\n      mstore\n      0x20\n      add\n      swap1\n      dup2\n      mstore\n      0x20\n      add\n      0x00\n      keccak256\n        /* \"ERC-20Tokens.sol\":1648:1690  balances[_owner]= balances[_owner]-_tokens */\n      dup2\n      swap1\n      sstore\n      pop\n        /* \"ERC-20Tokens.sol\":1725:1732  _tokens */\n      dup2\n        /* \"ERC-20Tokens.sol\":1711:1719  balances */\n      0x04\n        /* \"ERC-20Tokens.sol\":1711:1724  balances[_to] */\n      0x00\n        /* \"ERC-20Tokens.sol\":1720:1723  _to */\n      dup6\n        /* \"ERC-20Tokens.sol\":1711:1724  balances[_to] */\n      0xffffffffffffffffffffffffffffffffffffffff\n      and\n      0xffffffffffffffffffffffffffffffffffffffff\n      and\n      dup2\n      mstore\n      0x20\n      add\n      swap1\n      dup2\n      mstore\n      0x20\n      add\n      0x00\n      keccak256\n      sload\n        /* \"ERC-20Tokens.sol\":1711:1732  balances[_to]+_tokens */\n      tag_80\n      swap2\n      swap1\n      tag_81\n      jump\t// in\n    tag_80:\n        /* \"ERC-20Tokens.sol\":1697:1705  balances */\n      0x04\n        /* \"ERC-20Tokens.sol\":1697:1710  balances[_to] */\n      0x00\n        /* \"ERC-20Tokens.sol\":1706:1709  _to */\n      dup6\n        /* \"ERC-20Tokens.sol\":1697:1710  balances[_to] */\n      0xffffffffffffffffffffffffffffffffffffffff\n      and\n      0xffffffffffffffffffffffffffffffffffffffff\n      and\n      dup2\n      mstore\n      0x20\n      add\n      swap1\n      dup2\n      mstore\n      0x20\n      add\n      0x00\n      keccak256\n        /* \"ERC-20Tokens.sol\":1697:1732  balances[_to]=balances[_to]+_tokens */\n      dup2\n      swap1\n      sstore\n      pop\n        /* \"ERC-20Tokens.sol\":1795:1802  _tokens */\n      dup2\n        /* \"ERC-20Tokens.sol\":1767:1774  allowed */\n      0x05\n        /* \"ERC-20Tokens.sol\":1767:1782  allowed[_owner] */\n      0x00\n        /* \"ERC-20Tokens.sol\":1775:1781  _owner */\n      dup7\n        /* \"ERC-20Tokens.sol\":1767:1782  allowed[_owner] */\n      0xffffffffffffffffffffffffffffffffffffffff\n      and\n      0xffffffffffffffffffffffffffffffffffffffff\n      and\n      dup2\n      mstore\n      0x20\n      add\n      swap1\n      dup2\n      mstore\n      0x20\n      add\n      0x00\n      keccak256\n        /* \"ERC-20Tokens.sol\":1767:1794  allowed[_owner][msg.sender] */\n      0x00\n        /* \"ERC-20Tokens.sol\":1783:1793  msg.sender */\n      caller\n        /* \"ERC-20Tokens.sol\":1767:1794  allowed[_owner][msg.sender] */\n      0xffffffffffffffffffffffffffffffffffffffff\n      and\n      0xffffffffffffffffffffffffffffffffffffffff\n      and\n      dup2\n      mstore\n      0x20\n      add\n      swap1\n      dup2\n      mstore\n      0x20\n      add\n      0x00\n      keccak256\n      sload\n        /* \"ERC-20Tokens.sol\":1767:1802  allowed[_owner][msg.sender]-_tokens */\n      tag_82\n      swap2\n      swap1\n      tag_79\n      jump\t// in\n    tag_82:\n        /* \"ERC-20Tokens.sol\":1739:1746  allowed */\n      0x05\n        /* \"ERC-20Tokens.sol\":1739:1754  allowed[_owner] */\n      0x00\n        /* \"ERC-20Tokens.sol\":1747:1753  _owner */\n      dup7\n        /* \"ERC-20Tokens.sol\":1739:1754  allowed[_owner] */\n      0xffffffffffffffffffffffffffffffffffffffff\n      and\n      0xffffffffffffffffffffffffffffffffffffffff\n      and\n      dup2\n      mstore\n      0x20\n      add\n      swap1\n      dup2\n      mstore\n      0x20\n      add\n      0x00\n      keccak256\n        /* \"ERC-20Tokens.sol\":1739:1766  allowed[_owner][msg.sender] */\n      0x00\n        /* \"ERC-20Tokens.sol\":1755:1765  msg.sender */\n      caller\n        /* \"ERC-20Tokens.sol\":1739:1766  allowed[_owner][msg.sender] */\n      0xffffffffffffffffffffffffffffffffffffffff\n      and\n      0xffffffffffffffffffffffffffffffffffffffff\n      and\n      dup2\n      mstore\n      0x20\n      add\n      swap1\n      dup2\n      mstore\n      0x20\n      add\n      0x00\n      keccak256\n        /* \"ERC-20Tokens.sol\":1739:1802  allowed[_owner][msg.sender]=allowed[_owner][msg.sender]-_tokens */\n      dup2\n      swap1\n      sstore\n      pop\n        /* \"ERC-20Tokens.sol\":1814:1844  Transfer(_owner, _to, _tokens) */\n      0xddf252ad1be2c89b69c2b068fc378daa952ba7f163c4a11628f55a4df523b3ef\n        /* \"ERC-20Tokens.sol\":1823:1829  _owner */\n      dup5\n        /* \"ERC-20Tokens.sol\":1831:1834  _to */\n      dup5\n        /* \"ERC-20Tokens.sol\":1836:1843  _tokens */\n      dup5\n        /* \"ERC-20Tokens.sol\":1814:1844  Transfer(_owner, _to, _tokens) */\n      mload(0x40)\n      tag_83\n      swap4\n      swap3\n      swap2\n      swap1\n      tag_84\n      jump\t// in\n    tag_83:\n      mload(0x40)\n      dup1\n      swap2\n      sub\n      swap1\n      log1\n        /* \"ERC-20Tokens.sol\":1858:1862  true */\n      0x01\n        /* \"ERC-20Tokens.sol\":1851:1862  return true */\n      swap1\n      pop\n        /* \"ERC-20Tokens.sol\":1406:1866  function transferFrom(address _owner, address _to, uint256 _tokens)public returns(bool success){... */\n      swap4\n      swap3\n      pop\n      pop\n      pop\n      jump\t// out\n        /* \"ERC-20Tokens.sol\":179:220  mapping(address=>uint256) public balances */\n    tag_33:\n      mstore(0x20, 0x04)\n      dup1\n      0x00\n      mstore\n      keccak256(0x00, 0x40)\n      0x00\n      swap2\n      pop\n      swap1\n      pop\n      sload\n      dup2\n      jump\t// out\n        /* \"ERC-20Tokens.sol\":714:795  function _totalSupply() public view returns(uint256){... */\n    tag_37:\n        /* \"ERC-20Tokens.sol\":758:765  uint256 */\n      0x00\n        /* \"ERC-20Tokens.sol\":780:791  totalSupply */\n      sload(0x03)\n        /* \"ERC-20Tokens.sol\":773:791  return totalSupply */\n      swap1\n      pop\n        /* \"ERC-20Tokens.sol\":714:795  function _totalSupply() public view returns(uint256){... */\n      swap1\n      jump\t// out\n        /* \"ERC-20Tokens.sol\":223:283  mapping (address=>mapping (address=>uint256)) public allowed */\n    tag_42:\n      mstore(0x20, 0x05)\n      dup2\n      0x00\n      mstore\n      mstore(0x20, keccak256(0x00, 0x40))\n      dup1\n      0x00\n      mstore\n      keccak256(0x00, 0x40)\n      0x00\n      swap2\n      pop\n      swap2\n      pop\n      pop\n      sload\n      dup2\n      jump\t// out\n        /* \"ERC-20Tokens.sol\":797:895  function balanceOf(address _address) public view returns(uint256){... */\n    tag_46:\n        /* \"ERC-20Tokens.sol\":854:861  uint256 */\n      0x00\n        /* \"ERC-20Tokens.sol\":873:881  balances */\n      0x04\n        /* \"ERC-20Tokens.sol\":873:891  balances[_address] */\n      0x00\n        /* \"ERC-20Tokens.sol\":882:890  _address */\n      dup4\n        /* \"ERC-20Tokens.sol\":873:891  balances[_address] */\n      0xffffffffffffffffffffffffffffffffffffffff\n      and\n      0xffffffffffffffffffffffffffffffffffffffff\n      and\n      dup2\n      mstore\n      0x20\n      add\n      swap1\n      dup2\n      mstore\n      0x20\n      add\n      0x00\n      keccak256\n      sload\n        /* \"ERC-20Tokens.sol\":866:891  return balances[_address] */\n      swap1\n      pop\n        /* \"ERC-20Tokens.sol\":797:895  function balanceOf(address _address) public view returns(uint256){... */\n      swap2\n      swap1\n      pop\n      jump\t// out\n        /* \"ERC-20Tokens.sol\":126:146  uint8 public decimal */\n    tag_49:\n      0x02\n      0x00\n      swap1\n      sload\n      swap1\n      0x0100\n      exp\n      swap1\n      div\n      0xff\n      and\n      dup2\n      jump\t// out\n        /* \"ERC-20Tokens.sol\":103:123  string public symbol */\n    tag_53:\n      0x01\n      dup1\n      sload\n      tag_87\n      swap1\n      tag_64\n      jump\t// in\n    tag_87:\n      dup1\n      0x1f\n      add\n      0x20\n      dup1\n      swap2\n      div\n      mul\n      0x20\n      add\n      mload(0x40)\n      swap1\n      dup2\n      add\n      0x40\n      mstore\n      dup1\n      swap3\n      swap2\n      swap1\n      dup2\n      dup2\n      mstore\n      0x20\n      add\n      dup3\n      dup1\n      sload\n      tag_88\n      swap1\n      tag_64\n      jump\t// in\n    tag_88:\n      dup1\n      iszero\n      tag_89\n      jumpi\n      dup1\n      0x1f\n      lt\n      tag_90\n      jumpi\n      0x0100\n      dup1\n      dup4\n      sload\n      div\n      mul\n      dup4\n      mstore\n      swap2\n      0x20\n      add\n      swap2\n      jump(tag_89)\n    tag_90:\n      dup3\n      add\n      swap2\n      swap1\n      0x00\n      mstore\n      keccak256(0x00, 0x20)\n      swap1\n    tag_91:\n      dup2\n      sload\n      dup2\n      mstore\n      swap1\n      0x01\n      add\n      swap1\n      0x20\n      add\n      dup1\n      dup4\n      gt\n      tag_91\n      jumpi\n      dup3\n      swap1\n      sub\n      0x1f\n      and\n      dup3\n      add\n      swap2\n    tag_89:\n      pop\n      pop\n      pop\n      pop\n      pop\n      dup2\n      jump\t// out\n        /* \"ERC-20Tokens.sol\":897:1204  function transfer(address _to, uint256 _value)public  returns(bool success){... */\n    tag_57:\n        /* \"ERC-20Tokens.sol\":959:971  bool success */\n      0x00\n        /* \"ERC-20Tokens.sol\":1009:1015  _value */\n      dup2\n        /* \"ERC-20Tokens.sol\":987:995  balances */\n      0x04\n        /* \"ERC-20Tokens.sol\":987:1007  balances[msg.sender] */\n      0x00\n        /* \"ERC-20Tokens.sol\":996:1006  msg.sender */\n      caller\n        /* \"ERC-20Tokens.sol\":987:1007  balances[msg.sender] */\n      0xffffffffffffffffffffffffffffffffffffffff\n      and\n      0xffffffffffffffffffffffffffffffffffffffff\n      and\n      dup2\n      mstore\n      0x20\n      add\n      swap1\n      dup2\n      mstore\n      0x20\n      add\n      0x00\n      keccak256\n      sload\n        /* \"ERC-20Tokens.sol\":987:1015  balances[msg.sender]>=_value */\n      lt\n      iszero\n        /* \"ERC-20Tokens.sol\":979:1039  require(balances[msg.sender]>=_value,\"insufficient balance\") */\n      tag_93\n      jumpi\n      mload(0x40)\n      0x08c379a000000000000000000000000000000000000000000000000000000000\n      dup2\n      mstore\n      0x04\n      add\n      tag_94\n      swap1\n      tag_95\n      jump\t// in\n    tag_94:\n      mload(0x40)\n      dup1\n      swap2\n      sub\n      swap1\n      revert\n    tag_93:\n        /* \"ERC-20Tokens.sol\":1088:1094  _value */\n      dup2\n        /* \"ERC-20Tokens.sol\":1067:1075  balances */\n      0x04\n        /* \"ERC-20Tokens.sol\":1067:1087  balances[msg.sender] */\n      0x00\n        /* \"ERC-20Tokens.sol\":1076:1086  msg.sender */\n      caller\n        /* \"ERC-20Tokens.sol\":1067:1087  balances[msg.sender] */\n      0xffffffffffffffffffffffffffffffffffffffff\n      and\n      0xffffffffffffffffffffffffffffffffffffffff\n      and\n      dup2\n      mstore\n      0x20\n      add\n      swap1\n      dup2\n      mstore\n      0x20\n      add\n      0x00\n      keccak256\n      sload\n        /* \"ERC-20Tokens.sol\":1067:1094  balances[msg.sender]-_value */\n      tag_96\n      swap2\n      swap1\n      tag_79\n      jump\t// in\n    tag_96:\n        /* \"ERC-20Tokens.sol\":1046:1054  balances */\n      0x04\n        /* \"ERC-20Tokens.sol\":1046:1066  balances[msg.sender] */\n      0x00\n        /* \"ERC-20Tokens.sol\":1055:1065  msg.sender */\n      caller\n        /* \"ERC-20Tokens.sol\":1046:1066  balances[msg.sender] */\n      0xffffffffffffffffffffffffffffffffffffffff\n      and\n      0xffffffffffffffffffffffffffffffffffffffff\n      and\n      dup2\n      mstore\n      0x20\n      add\n      swap1\n      dup2\n      mstore\n      0x20\n      add\n      0x00\n      keccak256\n        /* \"ERC-20Tokens.sol\":1046:1094  balances[msg.sender]=balances[msg.sender]-_value */\n      dup2\n      swap1\n      sstore\n      pop\n        /* \"ERC-20Tokens.sol\":1131:1137  _value */\n      dup2\n        /* \"ERC-20Tokens.sol\":1116:1124  balances */\n      0x04\n        /* \"ERC-20Tokens.sol\":1116:1129  balances[_to] */\n      0x00\n        /* \"ERC-20Tokens.sol\":1125:1128  _to */\n      dup6\n        /* \"ERC-20Tokens.sol\":1116:1129  balances[_to] */\n      0xffffffffffffffffffffffffffffffffffffffff\n      and\n      0xffffffffffffffffffffffffffffffffffffffff\n      and\n      dup2\n      mstore\n      0x20\n      add\n      swap1\n      dup2\n      mstore\n      0x20\n      add\n      0x00\n      keccak256\n      sload\n        /* \"ERC-20Tokens.sol\":1116:1137  balances[_to]+ _value */\n      tag_97\n      swap2\n      swap1\n      tag_81\n      jump\t// in\n    tag_97:\n        /* \"ERC-20Tokens.sol\":1101:1109  balances */\n      0x04\n        /* \"ERC-20Tokens.sol\":1101:1114  balances[_to] */\n      0x00\n        /* \"ERC-20Tokens.sol\":1110:1113  _to */\n      dup6\n        /* \"ERC-20Tokens.sol\":1101:1114  balances[_to] */\n      0xffffffffffffffffffffffffffffffffffffffff\n      and\n      0xffffffffffffffffffffffffffffffffffffffff\n      and\n      dup2\n      mstore\n      0x20\n      add\n      swap1\n      dup2\n      mstore\n      0x20\n      add\n      0x00\n      keccak256\n        /* \"ERC-20Tokens.sol\":1101:1137  balances[_to]= balances[_to]+ _value */\n      dup2\n      swap1\n      sstore\n      pop\n        /* \"ERC-20Tokens.sol\":1149:1182  Transfer(msg.sender, _to, _value) */\n      0xddf252ad1be2c89b69c2b068fc378daa952ba7f163c4a11628f55a4df523b3ef\n        /* \"ERC-20Tokens.sol\":1158:1168  msg.sender */\n      caller\n        /* \"ERC-20Tokens.sol\":1170:1173  _to */\n      dup5\n        /* \"ERC-20Tokens.sol\":1175:1181  _value */\n      dup5\n        /* \"ERC-20Tokens.sol\":1149:1182  Transfer(msg.sender, _to, _value) */\n      mload(0x40)\n      tag_98\n      swap4\n      swap3\n      swap2\n      swap1\n      tag_84\n      jump\t// in\n    tag_98:\n      mload(0x40)\n      dup1\n      swap2\n      sub\n      swap1\n      log1\n        /* \"ERC-20Tokens.sol\":1196:1200  true */\n      0x01\n        /* \"ERC-20Tokens.sol\":1189:1200  return true */\n      swap1\n      pop\n        /* \"ERC-20Tokens.sol\":897:1204  function transfer(address _to, uint256 _value)public  returns(bool success){... */\n      swap3\n      swap2\n      pop\n      pop\n      jump\t// out\n        /* \"ERC-20Tokens.sol\":1870:2009  function allowance(address _owner, address _spender) public view returns(uint256 remaningTokens){... */\n    tag_61:\n        /* \"ERC-20Tokens.sol\":1943:1965  uint256 remaningTokens */\n      0x00\n        /* \"ERC-20Tokens.sol\":1980:1987  allowed */\n      0x05\n        /* \"ERC-20Tokens.sol\":1980:1995  allowed[_owner] */\n      0x00\n        /* \"ERC-20Tokens.sol\":1988:1994  _owner */\n      dup5\n        /* \"ERC-20Tokens.sol\":1980:1995  allowed[_owner] */\n      0xffffffffffffffffffffffffffffffffffffffff\n      and\n      0xffffffffffffffffffffffffffffffffffffffff\n      and\n      dup2\n      mstore\n      0x20\n      add\n      swap1\n      dup2\n      mstore\n      0x20\n      add\n      0x00\n      keccak256\n        /* \"ERC-20Tokens.sol\":1980:2005  allowed[_owner][_spender] */\n      0x00\n        /* \"ERC-20Tokens.sol\":1996:2004  _spender */\n      dup4\n        /* \"ERC-20Tokens.sol\":1980:2005  allowed[_owner][_spender] */\n      0xffffffffffffffffffffffffffffffffffffffff\n      and\n      0xffffffffffffffffffffffffffffffffffffffff\n      and\n      dup2\n      mstore\n      0x20\n      add\n      swap1\n      dup2\n      mstore\n      0x20\n      add\n      0x00\n      keccak256\n      sload\n        /* \"ERC-20Tokens.sol\":1973:2005  return allowed[_owner][_spender] */\n      swap1\n      pop\n        /* \"ERC-20Tokens.sol\":1870:2009  function allowance(address _owner, address _spender) public view returns(uint256 remaningTokens){... */\n      swap3\n      swap2\n      pop\n      pop\n      jump\t// out\n        /* \"#utility.yul\":7:106   */\n    tag_100:\n        /* \"#utility.yul\":59:65   */\n      0x00\n        /* \"#utility.yul\":93:98   */\n      dup2\n        /* \"#utility.yul\":87:99   */\n      mload\n        /* \"#utility.yul\":77:99   */\n      swap1\n      pop\n        /* \"#utility.yul\":7:106   */\n      swap2\n      swap1\n      pop\n      jump\t// out\n        /* \"#utility.yul\":112:281   */\n    tag_101:\n        /* \"#utility.yul\":196:207   */\n      0x00\n        /* \"#utility.yul\":230:236   */\n      dup3\n        /* \"#utility.yul\":225:228   */\n      dup3\n        /* \"#utility.yul\":218:237   */\n      mstore\n        /* \"#utility.yul\":270:274   */\n      0x20\n        /* \"#utility.yul\":265:268   */\n      dup3\n        /* \"#utility.yul\":261:275   */\n      add\n        /* \"#utility.yul\":246:275   */\n      swap1\n      pop\n        /* \"#utility.yul\":112:281   */\n      swap3\n      swap2\n      pop\n      pop\n      jump\t// out\n        /* \"#utility.yul\":287:426   */\n    tag_102:\n        /* \"#utility.yul\":376:382   */\n      dup3\n        /* \"#utility.yul\":371:374   */\n      dup2\n        /* \"#utility.yul\":366:369   */\n      dup4\n        /* \"#utility.yul\":360:383   */\n      mcopy\n        /* \"#utility.yul\":417:418   */\n      0x00\n        /* \"#utility.yul\":408:414   */\n      dup4\n        /* \"#utility.yul\":403:406   */\n      dup4\n        /* \"#utility.yul\":399:415   */\n      add\n        /* \"#utility.yul\":392:419   */\n      mstore\n        /* \"#utility.yul\":287:426   */\n      pop\n      pop\n      pop\n      jump\t// out\n        /* \"#utility.yul\":432:534   */\n    tag_103:\n        /* \"#utility.yul\":473:479   */\n      0x00\n        /* \"#utility.yul\":524:526   */\n      0x1f\n        /* \"#utility.yul\":520:527   */\n      not\n        /* \"#utility.yul\":515:517   */\n      0x1f\n        /* \"#utility.yul\":508:513   */\n      dup4\n        /* \"#utility.yul\":504:518   */\n      add\n        /* \"#utility.yul\":500:528   */\n      and\n        /* \"#utility.yul\":490:528   */\n      swap1\n      pop\n        /* \"#utility.yul\":432:534   */\n      swap2\n      swap1\n      pop\n      jump\t// out\n        /* \"#utility.yul\":540:917   */\n    tag_104:\n        /* \"#utility.yul\":628:631   */\n      0x00\n        /* \"#utility.yul\":656:695   */\n      tag_135\n        /* \"#utility.yul\":689:694   */\n      dup3\n        /* \"#utility.yul\":656:695   */\n      tag_100\n      jump\t// in\n    tag_135:\n        /* \"#utility.yul\":711:782   */\n      tag_136\n        /* \"#utility.yul\":775:781   */\n      dup2\n        /* \"#utility.yul\":770:773   */\n      dup6\n        /* \"#utility.yul\":711:782   */\n      tag_101\n      jump\t// in\n    tag_136:\n        /* \"#utility.yul\":704:782   */\n      swap4\n      pop\n        /* \"#utility.yul\":791:856   */\n      tag_137\n        /* \"#utility.yul\":849:855   */\n      dup2\n        /* \"#utility.yul\":844:847   */\n      dup6\n        /* \"#utility.yul\":837:841   */\n      0x20\n        /* \"#utility.yul\":830:835   */\n      dup7\n        /* \"#utility.yul\":826:842   */\n      add\n        /* \"#utility.yul\":791:856   */\n      tag_102\n      jump\t// in\n    tag_137:\n        /* \"#utility.yul\":881:910   */\n      tag_138\n        /* \"#utility.yul\":903:909   */\n      dup2\n        /* \"#utility.yul\":881:910   */\n      tag_103\n      jump\t// in\n    tag_138:\n        /* \"#utility.yul\":876:879   */\n      dup5\n        /* \"#utility.yul\":872:911   */\n      add\n        /* \"#utility.yul\":865:911   */\n      swap2\n      pop\n        /* \"#utility.yul\":632:917   */\n      pop\n        /* \"#utility.yul\":540:917   */\n      swap3\n      swap2\n      pop\n      pop\n      jump\t// out\n        /* \"#utility.yul\":923:1236   */\n    tag_18:\n        /* \"#utility.yul\":1036:1040   */\n      0x00\n        /* \"#utility.yul\":1074:1076   */\n      0x20\n        /* \"#utility.yul\":1063:1072   */\n      dup3\n        /* \"#utility.yul\":1059:1077   */\n      add\n        /* \"#utility.yul\":1051:1077   */\n      swap1\n      pop\n        /* \"#utility.yul\":1123:1132   */\n      dup2\n        /* \"#utility.yul\":1117:1121   */\n      dup2\n        /* \"#utility.yul\":1113:1133   */\n      sub\n        /* \"#utility.yul\":1109:1110   */\n      0x00\n        /* \"#utility.yul\":1098:1107   */\n      dup4\n        /* \"#utility.yul\":1094:1111   */\n      add\n        /* \"#utility.yul\":1087:1134   */\n      mstore\n        /* \"#utility.yul\":1151:1229   */\n      tag_140\n        /* \"#utility.yul\":1224:1228   */\n      dup2\n        /* \"#utility.yul\":1215:1221   */\n      dup5\n        /* \"#utility.yul\":1151:1229   */\n      tag_104\n      jump\t// in\n    tag_140:\n        /* \"#utility.yul\":1143:1229   */\n      swap1\n      pop\n        /* \"#utility.yul\":923:1236   */\n      swap3\n      swap2\n      pop\n      pop\n      jump\t// out\n        /* \"#utility.yul\":1323:1440   */\n    tag_106:\n        /* \"#utility.yul\":1432:1433   */\n      0x00\n        /* \"#utility.yul\":1429:1430   */\n      0x00\n        /* \"#utility.yul\":1422:1434   */\n      revert\n        /* \"#utility.yul\":1569:1695   */\n    tag_108:\n        /* \"#utility.yul\":1606:1613   */\n      0x00\n        /* \"#utility.yul\":1646:1688   */\n      0xffffffffffffffffffffffffffffffffffffffff\n        /* \"#utility.yul\":1639:1644   */\n      dup3\n        /* \"#utility.yul\":1635:1689   */\n      and\n        /* \"#utility.yul\":1624:1689   */\n      swap1\n      pop\n        /* \"#utility.yul\":1569:1695   */\n      swap2\n      swap1\n      pop\n      jump\t// out\n        /* \"#utility.yul\":1701:1797   */\n    tag_109:\n        /* \"#utility.yul\":1738:1745   */\n      0x00\n        /* \"#utility.yul\":1767:1791   */\n      tag_146\n        /* \"#utility.yul\":1785:1790   */\n      dup3\n        /* \"#utility.yul\":1767:1791   */\n      tag_108\n      jump\t// in\n    tag_146:\n        /* \"#utility.yul\":1756:1791   */\n      swap1\n      pop\n        /* \"#utility.yul\":1701:1797   */\n      swap2\n      swap1\n      pop\n      jump\t// out\n        /* \"#utility.yul\":1803:1925   */\n    tag_110:\n        /* \"#utility.yul\":1876:1900   */\n      tag_148\n        /* \"#utility.yul\":1894:1899   */\n      dup2\n        /* \"#utility.yul\":1876:1900   */\n      tag_109\n      jump\t// in\n    tag_148:\n        /* \"#utility.yul\":1869:1874   */\n      dup2\n        /* \"#utility.yul\":1866:1901   */\n      eq\n        /* \"#utility.yul\":1856:1919   */\n      tag_149\n      jumpi\n        /* \"#utility.yul\":1915:1916   */\n      0x00\n        /* \"#utility.yul\":1912:1913   */\n      0x00\n        /* \"#utility.yul\":1905:1917   */\n      revert\n        /* \"#utility.yul\":1856:1919   */\n    tag_149:\n        /* \"#utility.yul\":1803:1925   */\n      pop\n      jump\t// out\n        /* \"#utility.yul\":1931:2070   */\n    tag_111:\n        /* \"#utility.yul\":1977:1982   */\n      0x00\n        /* \"#utility.yul\":2015:2021   */\n      dup2\n        /* \"#utility.yul\":2002:2022   */\n      calldataload\n        /* \"#utility.yul\":1993:2022   */\n      swap1\n      pop\n        /* \"#utility.yul\":2031:2064   */\n      tag_151\n        /* \"#utility.yul\":2058:2063   */\n      dup2\n        /* \"#utility.yul\":2031:2064   */\n      tag_110\n      jump\t// in\n    tag_151:\n        /* \"#utility.yul\":1931:2070   */\n      swap3\n      swap2\n      pop\n      pop\n      jump\t// out\n        /* \"#utility.yul\":2076:2153   */\n    tag_112:\n        /* \"#utility.yul\":2113:2120   */\n      0x00\n        /* \"#utility.yul\":2142:2147   */\n      dup2\n        /* \"#utility.yul\":2131:2147   */\n      swap1\n      pop\n        /* \"#utility.yul\":2076:2153   */\n      swap2\n      swap1\n      pop\n      jump\t// out\n        /* \"#utility.yul\":2159:2281   */\n    tag_113:\n        /* \"#utility.yul\":2232:2256   */\n      tag_154\n        /* \"#utility.yul\":2250:2255   */\n      dup2\n        /* \"#utility.yul\":2232:2256   */\n      tag_112\n      jump\t// in\n    tag_154:\n        /* \"#utility.yul\":2225:2230   */\n      dup2\n        /* \"#utility.yul\":2222:2257   */\n      eq\n        /* \"#utility.yul\":2212:2275   */\n      tag_155\n      jumpi\n        /* \"#utility.yul\":2271:2272   */\n      0x00\n        /* \"#utility.yul\":2268:2269   */\n      0x00\n        /* \"#utility.yul\":2261:2273   */\n      revert\n        /* \"#utility.yul\":2212:2275   */\n    tag_155:\n        /* \"#utility.yul\":2159:2281   */\n      pop\n      jump\t// out\n        /* \"#utility.yul\":2287:2426   */\n    tag_114:\n        /* \"#utility.yul\":2333:2338   */\n      0x00\n        /* \"#utility.yul\":2371:2377   */\n      dup2\n        /* \"#utility.yul\":2358:2378   */\n      calldataload\n        /* \"#utility.yul\":2349:2378   */\n      swap1\n      pop\n        /* \"#utility.yul\":2387:2420   */\n      tag_157\n        /* \"#utility.yul\":2414:2419   */\n      dup2\n        /* \"#utility.yul\":2387:2420   */\n      tag_113\n      jump\t// in\n    tag_157:\n        /* \"#utility.yul\":2287:2426   */\n      swap3\n      swap2\n      pop\n      pop\n      jump\t// out\n        /* \"#utility.yul\":2432:2906   */\n    tag_21:\n        /* \"#utility.yul\":2500:2506   */\n      0x00\n        /* \"#utility.yul\":2508:2514   */\n      0x00\n        /* \"#utility.yul\":2557:2559   */\n      0x40\n        /* \"#utility.yul\":2545:2554   */\n      dup4\n        /* \"#utility.yul\":2536:2543   */\n      dup6\n        /* \"#utility.yul\":2532:2555   */\n      sub\n        /* \"#utility.yul\":2528:2560   */\n      slt\n        /* \"#utility.yul\":2525:2644   */\n      iszero\n      tag_159\n      jumpi\n        /* \"#utility.yul\":2563:2642   */\n      tag_160\n      tag_106\n      jump\t// in\n    tag_160:\n        /* \"#utility.yul\":2525:2644   */\n    tag_159:\n        /* \"#utility.yul\":2683:2684   */\n      0x00\n        /* \"#utility.yul\":2708:2761   */\n      tag_161\n        /* \"#utility.yul\":2753:2760   */\n      dup6\n        /* \"#utility.yul\":2744:2750   */\n      dup3\n        /* \"#utility.yul\":2733:2742   */\n      dup7\n        /* \"#utility.yul\":2729:2751   */\n      add\n        /* \"#utility.yul\":2708:2761   */\n      tag_111\n      jump\t// in\n    tag_161:\n        /* \"#utility.yul\":2698:2761   */\n      swap3\n      pop\n        /* \"#utility.yul\":2654:2771   */\n      pop\n        /* \"#utility.yul\":2810:2812   */\n      0x20\n        /* \"#utility.yul\":2836:2889   */\n      tag_162\n        /* \"#utility.yul\":2881:2888   */\n      dup6\n        /* \"#utility.yul\":2872:2878   */\n      dup3\n        /* \"#utility.yul\":2861:2870   */\n      dup7\n        /* \"#utility.yul\":2857:2879   */\n      add\n        /* \"#utility.yul\":2836:2889   */\n      tag_114\n      jump\t// in\n    tag_162:\n        /* \"#utility.yul\":2826:2889   */\n      swap2\n      pop\n        /* \"#utility.yul\":2781:2899   */\n      pop\n        /* \"#utility.yul\":2432:2906   */\n      swap3\n      pop\n      swap3\n      swap1\n      pop\n      jump\t// out\n        /* \"#utility.yul\":2912:3002   */\n    tag_115:\n        /* \"#utility.yul\":2946:2953   */\n      0x00\n        /* \"#utility.yul\":2989:2994   */\n      dup2\n        /* \"#utility.yul\":2982:2995   */\n      iszero\n        /* \"#utility.yul\":2975:2996   */\n      iszero\n        /* \"#utility.yul\":2964:2996   */\n      swap1\n      pop\n        /* \"#utility.yul\":2912:3002   */\n      swap2\n      swap1\n      pop\n      jump\t// out\n        /* \"#utility.yul\":3008:3117   */\n    tag_116:\n        /* \"#utility.yul\":3089:3110   */\n      tag_165\n        /* \"#utility.yul\":3104:3109   */\n      dup2\n        /* \"#utility.yul\":3089:3110   */\n      tag_115\n      jump\t// in\n    tag_165:\n        /* \"#utility.yul\":3084:3087   */\n      dup3\n        /* \"#utility.yul\":3077:3111   */\n      mstore\n        /* \"#utility.yul\":3008:3117   */\n      pop\n      pop\n      jump\t// out\n        /* \"#utility.yul\":3123:3333   */\n    tag_24:\n        /* \"#utility.yul\":3210:3214   */\n      0x00\n        /* \"#utility.yul\":3248:3250   */\n      0x20\n        /* \"#utility.yul\":3237:3246   */\n      dup3\n        /* \"#utility.yul\":3233:3251   */\n      add\n        /* \"#utility.yul\":3225:3251   */\n      swap1\n      pop\n        /* \"#utility.yul\":3261:3326   */\n      tag_167\n        /* \"#utility.yul\":3323:3324   */\n      0x00\n        /* \"#utility.yul\":3312:3321   */\n      dup4\n        /* \"#utility.yul\":3308:3325   */\n      add\n        /* \"#utility.yul\":3299:3305   */\n      dup5\n        /* \"#utility.yul\":3261:3326   */\n      tag_116\n      jump\t// in\n    tag_167:\n        /* \"#utility.yul\":3123:3333   */\n      swap3\n      swap2\n      pop\n      pop\n      jump\t// out\n        /* \"#utility.yul\":3339:3958   */\n    tag_27:\n        /* \"#utility.yul\":3416:3422   */\n      0x00\n        /* \"#utility.yul\":3424:3430   */\n      0x00\n        /* \"#utility.yul\":3432:3438   */\n      0x00\n        /* \"#utility.yul\":3481:3483   */\n      0x60\n        /* \"#utility.yul\":3469:3478   */\n      dup5\n        /* \"#utility.yul\":3460:3467   */\n      dup7\n        /* \"#utility.yul\":3456:3479   */\n      sub\n        /* \"#utility.yul\":3452:3484   */\n      slt\n        /* \"#utility.yul\":3449:3568   */\n      iszero\n      tag_169\n      jumpi\n        /* \"#utility.yul\":3487:3566   */\n      tag_170\n      tag_106\n      jump\t// in\n    tag_170:\n        /* \"#utility.yul\":3449:3568   */\n    tag_169:\n        /* \"#utility.yul\":3607:3608   */\n      0x00\n        /* \"#utility.yul\":3632:3685   */\n      tag_171\n        /* \"#utility.yul\":3677:3684   */\n      dup7\n        /* \"#utility.yul\":3668:3674   */\n      dup3\n        /* \"#utility.yul\":3657:3666   */\n      dup8\n        /* \"#utility.yul\":3653:3675   */\n      add\n        /* \"#utility.yul\":3632:3685   */\n      tag_111\n      jump\t// in\n    tag_171:\n        /* \"#utility.yul\":3622:3685   */\n      swap4\n      pop\n        /* \"#utility.yul\":3578:3695   */\n      pop\n        /* \"#utility.yul\":3734:3736   */\n      0x20\n        /* \"#utility.yul\":3760:3813   */\n      tag_172\n        /* \"#utility.yul\":3805:3812   */\n      dup7\n        /* \"#utility.yul\":3796:3802   */\n      dup3\n        /* \"#utility.yul\":3785:3794   */\n      dup8\n        /* \"#utility.yul\":3781:3803   */\n      add\n        /* \"#utility.yul\":3760:3813   */\n      tag_111\n      jump\t// in\n    tag_172:\n        /* \"#utility.yul\":3750:3813   */\n      swap3\n      pop\n        /* \"#utility.yul\":3705:3823   */\n      pop\n        /* \"#utility.yul\":3862:3864   */\n      0x40\n        /* \"#utility.yul\":3888:3941   */\n      tag_173\n        /* \"#utility.yul\":3933:3940   */\n      dup7\n        /* \"#utility.yul\":3924:3930   */\n      dup3\n        /* \"#utility.yul\":3913:3922   */\n      dup8\n        /* \"#utility.yul\":3909:3931   */\n      add\n        /* \"#utility.yul\":3888:3941   */\n      tag_114\n      jump\t// in\n    tag_173:\n        /* \"#utility.yul\":3878:3941   */\n      swap2\n      pop\n        /* \"#utility.yul\":3833:3951   */\n      pop\n        /* \"#utility.yul\":3339:3958   */\n      swap3\n      pop\n      swap3\n      pop\n      swap3\n      jump\t// out\n        /* \"#utility.yul\":3964:4293   */\n    tag_32:\n        /* \"#utility.yul\":4023:4029   */\n      0x00\n        /* \"#utility.yul\":4072:4074   */\n      0x20\n        /* \"#utility.yul\":4060:4069   */\n      dup3\n        /* \"#utility.yul\":4051:4058   */\n      dup5\n        /* \"#utility.yul\":4047:4070   */\n      sub\n        /* \"#utility.yul\":4043:4075   */\n      slt\n        /* \"#utility.yul\":4040:4159   */\n      iszero\n      tag_175\n      jumpi\n        /* \"#utility.yul\":4078:4157   */\n      tag_176\n      tag_106\n      jump\t// in\n    tag_176:\n        /* \"#utility.yul\":4040:4159   */\n    tag_175:\n        /* \"#utility.yul\":4198:4199   */\n      0x00\n        /* \"#utility.yul\":4223:4276   */\n      tag_177\n        /* \"#utility.yul\":4268:4275   */\n      dup5\n        /* \"#utility.yul\":4259:4265   */\n      dup3\n        /* \"#utility.yul\":4248:4257   */\n      dup6\n        /* \"#utility.yul\":4244:4266   */\n      add\n        /* \"#utility.yul\":4223:4276   */\n      tag_111\n      jump\t// in\n    tag_177:\n        /* \"#utility.yul\":4213:4276   */\n      swap2\n      pop\n        /* \"#utility.yul\":4169:4286   */\n      pop\n        /* \"#utility.yul\":3964:4293   */\n      swap3\n      swap2\n      pop\n      pop\n      jump\t// out\n        /* \"#utility.yul\":4299:4417   */\n    tag_117:\n        /* \"#utility.yul\":4386:4410   */\n      tag_179\n        /* \"#utility.yul\":4404:4409   */\n      dup2\n        /* \"#utility.yul\":4386:4410   */\n      tag_112\n      jump\t// in\n    tag_179:\n        /* \"#utility.yul\":4381:4384   */\n      dup3\n        /* \"#utility.yul\":4374:4411   */\n      mstore\n        /* \"#utility.yul\":4299:4417   */\n      pop\n      pop\n      jump\t// out\n        /* \"#utility.yul\":4423:4645   */\n    tag_35:\n        /* \"#utility.yul\":4516:4520   */\n      0x00\n        /* \"#utility.yul\":4554:4556   */\n      0x20\n        /* \"#utility.yul\":4543:4552   */\n      dup3\n        /* \"#utility.yul\":4539:4557   */\n      add\n        /* \"#utility.yul\":4531:4557   */\n      swap1\n      pop\n        /* \"#utility.yul\":4567:4638   */\n      tag_181\n        /* \"#utility.yul\":4635:4636   */\n      0x00\n        /* \"#utility.yul\":4624:4633   */\n      dup4\n        /* \"#utility.yul\":4620:4637   */\n      add\n        /* \"#utility.yul\":4611:4617   */\n      dup5\n        /* \"#utility.yul\":4567:4638   */\n      tag_117\n      jump\t// in\n    tag_181:\n        /* \"#utility.yul\":4423:4645   */\n      swap3\n      swap2\n      pop\n      pop\n      jump\t// out\n        /* \"#utility.yul\":4651:5125   */\n    tag_41:\n        /* \"#utility.yul\":4719:4725   */\n      0x00\n        /* \"#utility.yul\":4727:4733   */\n      0x00\n        /* \"#utility.yul\":4776:4778   */\n      0x40\n        /* \"#utility.yul\":4764:4773   */\n      dup4\n        /* \"#utility.yul\":4755:4762   */\n      dup6\n        /* \"#utility.yul\":4751:4774   */\n      sub\n        /* \"#utility.yul\":4747:4779   */\n      slt\n        /* \"#utility.yul\":4744:4863   */\n      iszero\n      tag_183\n      jumpi\n        /* \"#utility.yul\":4782:4861   */\n      tag_184\n      tag_106\n      jump\t// in\n    tag_184:\n        /* \"#utility.yul\":4744:4863   */\n    tag_183:\n        /* \"#utility.yul\":4902:4903   */\n      0x00\n        /* \"#utility.yul\":4927:4980   */\n      tag_185\n        /* \"#utility.yul\":4972:4979   */\n      dup6\n        /* \"#utility.yul\":4963:4969   */\n      dup3\n        /* \"#utility.yul\":4952:4961   */\n      dup7\n        /* \"#utility.yul\":4948:4970   */\n      add\n        /* \"#utility.yul\":4927:4980   */\n      tag_111\n      jump\t// in\n    tag_185:\n        /* \"#utility.yul\":4917:4980   */\n      swap3\n      pop\n        /* \"#utility.yul\":4873:4990   */\n      pop\n        /* \"#utility.yul\":5029:5031   */\n      0x20\n        /* \"#utility.yul\":5055:5108   */\n      tag_186\n        /* \"#utility.yul\":5100:5107   */\n      dup6\n        /* \"#utility.yul\":5091:5097   */\n      dup3\n        /* \"#utility.yul\":5080:5089   */\n      dup7\n        /* \"#utility.yul\":5076:5098   */\n      add\n        /* \"#utility.yul\":5055:5108   */\n      tag_111\n      jump\t// in\n    tag_186:\n        /* \"#utility.yul\":5045:5108   */\n      swap2\n      pop\n        /* \"#utility.yul\":5000:5118   */\n      pop\n        /* \"#utility.yul\":4651:5125   */\n      swap3\n      pop\n      swap3\n      swap1\n      pop\n      jump\t// out\n        /* \"#utility.yul\":5131:5217   */\n    tag_118:\n        /* \"#utility.yul\":5166:5173   */\n      0x00\n        /* \"#utility.yul\":5206:5210   */\n      0xff\n        /* \"#utility.yul\":5199:5204   */\n      dup3\n        /* \"#utility.yul\":5195:5211   */\n      and\n        /* \"#utility.yul\":5184:5211   */\n      swap1\n      pop\n        /* \"#utility.yul\":5131:5217   */\n      swap2\n      swap1\n      pop\n      jump\t// out\n        /* \"#utility.yul\":5223:5335   */\n    tag_119:\n        /* \"#utility.yul\":5306:5328   */\n      tag_189\n        /* \"#utility.yul\":5322:5327   */\n      dup2\n        /* \"#utility.yul\":5306:5328   */\n      tag_118\n      jump\t// in\n    tag_189:\n        /* \"#utility.yul\":5301:5304   */\n      dup3\n        /* \"#utility.yul\":5294:5329   */\n      mstore\n        /* \"#utility.yul\":5223:5335   */\n      pop\n      pop\n      jump\t// out\n        /* \"#utility.yul\":5341:5555   */\n    tag_51:\n        /* \"#utility.yul\":5430:5434   */\n      0x00\n        /* \"#utility.yul\":5468:5470   */\n      0x20\n        /* \"#utility.yul\":5457:5466   */\n      dup3\n        /* \"#utility.yul\":5453:5471   */\n      add\n        /* \"#utility.yul\":5445:5471   */\n      swap1\n      pop\n        /* \"#utility.yul\":5481:5548   */\n      tag_191\n        /* \"#utility.yul\":5545:5546   */\n      0x00\n        /* \"#utility.yul\":5534:5543   */\n      dup4\n        /* \"#utility.yul\":5530:5547   */\n      add\n        /* \"#utility.yul\":5521:5527   */\n      dup5\n        /* \"#utility.yul\":5481:5548   */\n      tag_119\n      jump\t// in\n    tag_191:\n        /* \"#utility.yul\":5341:5555   */\n      swap3\n      swap2\n      pop\n      pop\n      jump\t// out\n        /* \"#utility.yul\":5561:5741   */\n    tag_120:\n        /* \"#utility.yul\":5609:5686   */\n      0x4e487b7100000000000000000000000000000000000000000000000000000000\n        /* \"#utility.yul\":5606:5607   */\n      0x00\n        /* \"#utility.yul\":5599:5687   */\n      mstore\n        /* \"#utility.yul\":5706:5710   */\n      0x22\n        /* \"#utility.yul\":5703:5704   */\n      0x04\n        /* \"#utility.yul\":5696:5711   */\n      mstore\n        /* \"#utility.yul\":5730:5734   */\n      0x24\n        /* \"#utility.yul\":5727:5728   */\n      0x00\n        /* \"#utility.yul\":5720:5735   */\n      revert\n        /* \"#utility.yul\":5747:6067   */\n    tag_64:\n        /* \"#utility.yul\":5791:5797   */\n      0x00\n        /* \"#utility.yul\":5828:5829   */\n      0x02\n        /* \"#utility.yul\":5822:5826   */\n      dup3\n        /* \"#utility.yul\":5818:5830   */\n      div\n        /* \"#utility.yul\":5808:5830   */\n      swap1\n      pop\n        /* \"#utility.yul\":5875:5876   */\n      0x01\n        /* \"#utility.yul\":5869:5873   */\n      dup3\n        /* \"#utility.yul\":5865:5877   */\n      and\n        /* \"#utility.yul\":5896:5914   */\n      dup1\n        /* \"#utility.yul\":5886:5967   */\n      tag_194\n      jumpi\n        /* \"#utility.yul\":5952:5956   */\n      0x7f\n        /* \"#utility.yul\":5944:5950   */\n      dup3\n        /* \"#utility.yul\":5940:5957   */\n      and\n        /* \"#utility.yul\":5930:5957   */\n      swap2\n      pop\n        /* \"#utility.yul\":5886:5967   */\n    tag_194:\n        /* \"#utility.yul\":6014:6016   */\n      0x20\n        /* \"#utility.yul\":6006:6012   */\n      dup3\n        /* \"#utility.yul\":6003:6017   */\n      lt\n        /* \"#utility.yul\":5983:6001   */\n      dup2\n        /* \"#utility.yul\":5980:6018   */\n      sub\n        /* \"#utility.yul\":5977:6061   */\n      tag_195\n      jumpi\n        /* \"#utility.yul\":6033:6051   */\n      tag_196\n      tag_120\n      jump\t// in\n    tag_196:\n        /* \"#utility.yul\":5977:6061   */\n    tag_195:\n        /* \"#utility.yul\":5798:6067   */\n      pop\n        /* \"#utility.yul\":5747:6067   */\n      swap2\n      swap1\n      pop\n      jump\t// out\n        /* \"#utility.yul\":6073:6243   */\n    tag_121:\n        /* \"#utility.yul\":6213:6235   */\n      0x496e73756666696369656e742062616c616e6365000000000000000000000000\n        /* \"#utility.yul\":6209:6210   */\n      0x00\n        /* \"#utility.yul\":6201:6207   */\n      dup3\n        /* \"#utility.yul\":6197:6211   */\n      add\n        /* \"#utility.yul\":6190:6236   */\n      mstore\n        /* \"#utility.yul\":6073:6243   */\n      pop\n      jump\t// out\n        /* \"#utility.yul\":6249:6615   */\n    tag_122:\n        /* \"#utility.yul\":6391:6394   */\n      0x00\n        /* \"#utility.yul\":6412:6479   */\n      tag_199\n        /* \"#utility.yul\":6476:6478   */\n      0x14\n        /* \"#utility.yul\":6471:6474   */\n      dup4\n        /* \"#utility.yul\":6412:6479   */\n      tag_101\n      jump\t// in\n    tag_199:\n        /* \"#utility.yul\":6405:6479   */\n      swap2\n      pop\n        /* \"#utility.yul\":6488:6581   */\n      tag_200\n        /* \"#utility.yul\":6577:6580   */\n      dup3\n        /* \"#utility.yul\":6488:6581   */\n      tag_121\n      jump\t// in\n    tag_200:\n        /* \"#utility.yul\":6606:6608   */\n      0x20\n        /* \"#utility.yul\":6601:6604   */\n      dup3\n        /* \"#utility.yul\":6597:6609   */\n      add\n        /* \"#utility.yul\":6590:6609   */\n      swap1\n      pop\n        /* \"#utility.yul\":6249:6615   */\n      swap2\n      swap1\n      pop\n      jump\t// out\n        /* \"#utility.yul\":6621:7040   */\n    tag_74:\n        /* \"#utility.yul\":6787:6791   */\n      0x00\n        /* \"#utility.yul\":6825:6827   */\n      0x20\n        /* \"#utility.yul\":6814:6823   */\n      dup3\n        /* \"#utility.yul\":6810:6828   */\n      add\n        /* \"#utility.yul\":6802:6828   */\n      swap1\n      pop\n        /* \"#utility.yul\":6874:6883   */\n      dup2\n        /* \"#utility.yul\":6868:6872   */\n      dup2\n        /* \"#utility.yul\":6864:6884   */\n      sub\n        /* \"#utility.yul\":6860:6861   */\n      0x00\n        /* \"#utility.yul\":6849:6858   */\n      dup4\n        /* \"#utility.yul\":6845:6862   */\n      add\n        /* \"#utility.yul\":6838:6885   */\n      mstore\n        /* \"#utility.yul\":6902:7033   */\n      tag_202\n        /* \"#utility.yul\":7028:7032   */\n      dup2\n        /* \"#utility.yul\":6902:7033   */\n      tag_122\n      jump\t// in\n    tag_202:\n        /* \"#utility.yul\":6894:7033   */\n      swap1\n      pop\n        /* \"#utility.yul\":6621:7040   */\n      swap2\n      swap1\n      pop\n      jump\t// out\n        /* \"#utility.yul\":7046:7214   */\n    tag_123:\n        /* \"#utility.yul\":7186:7206   */\n      0x546f6b656e73206e6f7420616c6c6f7765640000000000000000000000000000\n        /* \"#utility.yul\":7182:7183   */\n      0x00\n        /* \"#utility.yul\":7174:7180   */\n      dup3\n        /* \"#utility.yul\":7170:7184   */\n      add\n        /* \"#utility.yul\":7163:7207   */\n      mstore\n        /* \"#utility.yul\":7046:7214   */\n      pop\n      jump\t// out\n        /* \"#utility.yul\":7220:7586   */\n    tag_124:\n        /* \"#utility.yul\":7362:7365   */\n      0x00\n        /* \"#utility.yul\":7383:7450   */\n      tag_205\n        /* \"#utility.yul\":7447:7449   */\n      0x12\n        /* \"#utility.yul\":7442:7445   */\n      dup4\n        /* \"#utility.yul\":7383:7450   */\n      tag_101\n      jump\t// in\n    tag_205:\n        /* \"#utility.yul\":7376:7450   */\n      swap2\n      pop\n        /* \"#utility.yul\":7459:7552   */\n      tag_206\n        /* \"#utility.yul\":7548:7551   */\n      dup3\n        /* \"#utility.yul\":7459:7552   */\n      tag_123\n      jump\t// in\n    tag_206:\n        /* \"#utility.yul\":7577:7579   */\n      0x20\n        /* \"#utility.yul\":7572:7575   */\n      dup3\n        /* \"#utility.yul\":7568:7580   */\n      add\n        /* \"#utility.yul\":7561:7580   */\n      swap1\n      pop\n        /* \"#utility.yul\":7220:7586   */\n      swap2\n      swap1\n      pop\n      jump\t// out\n        /* \"#utility.yul\":7592:8011   */\n    tag_77:\n        /* \"#utility.yul\":7758:7762   */\n      0x00\n        /* \"#utility.yul\":7796:7798   */\n      0x20\n        /* \"#utility.yul\":7785:7794   */\n      dup3\n        /* \"#utility.yul\":7781:7799   */\n      add\n        /* \"#utility.yul\":7773:7799   */\n      swap1\n      pop\n        /* \"#utility.yul\":7845:7854   */\n      dup2\n        /* \"#utility.yul\":7839:7843   */\n      dup2\n        /* \"#utility.yul\":7835:7855   */\n      sub\n        /* \"#utility.yul\":7831:7832   */\n      0x00\n        /* \"#utility.yul\":7820:7829   */\n      dup4\n        /* \"#utility.yul\":7816:7833   */\n      add\n        /* \"#utility.yul\":7809:7856   */\n      mstore\n        /* \"#utility.yul\":7873:8004   */\n      tag_208\n        /* \"#utility.yul\":7999:8003   */\n      dup2\n        /* \"#utility.yul\":7873:8004   */\n      tag_124\n      jump\t// in\n    tag_208:\n        /* \"#utility.yul\":7865:8004   */\n      swap1\n      pop\n        /* \"#utility.yul\":7592:8011   */\n      swap2\n      swap1\n      pop\n      jump\t// out\n        /* \"#utility.yul\":8017:8197   */\n    tag_125:\n        /* \"#utility.yul\":8065:8142   */\n      0x4e487b7100000000000000000000000000000000000000000000000000000000\n        /* \"#utility.yul\":8062:8063   */\n      0x00\n        /* \"#utility.yul\":8055:8143   */\n      mstore\n        /* \"#utility.yul\":8162:8166   */\n      0x11\n        /* \"#utility.yul\":8159:8160   */\n      0x04\n        /* \"#utility.yul\":8152:8167   */\n      mstore\n        /* \"#utility.yul\":8186:8190   */\n      0x24\n        /* \"#utility.yul\":8183:8184   */\n      0x00\n        /* \"#utility.yul\":8176:8191   */\n      revert\n        /* \"#utility.yul\":8203:8397   */\n    tag_79:\n        /* \"#utility.yul\":8243:8247   */\n      0x00\n        /* \"#utility.yul\":8263:8283   */\n      tag_211\n        /* \"#utility.yul\":8281:8282   */\n      dup3\n        /* \"#utility.yul\":8263:8283   */\n      tag_112\n      jump\t// in\n    tag_211:\n        /* \"#utility.yul\":8258:8283   */\n      swap2\n      pop\n        /* \"#utility.yul\":8297:8317   */\n      tag_212\n        /* \"#utility.yul\":8315:8316   */\n      dup4\n        /* \"#utility.yul\":8297:8317   */\n      tag_112\n      jump\t// in\n    tag_212:\n        /* \"#utility.yul\":8292:8317   */\n      swap3\n      pop\n        /* \"#utility.yul\":8341:8342   */\n      dup3\n        /* \"#utility.yul\":8338:8339   */\n      dup3\n        /* \"#utility.yul\":8334:8343   */\n      sub\n        /* \"#utility.yul\":8326:8343   */\n      swap1\n      pop\n        /* \"#utility.yul\":8365:8366   */\n      dup2\n        /* \"#utility.yul\":8359:8363   */\n      dup2\n        /* \"#utility.yul\":8356:8367   */\n      gt\n        /* \"#utility.yul\":8353:8390   */\n      iszero\n      tag_213\n      jumpi\n        /* \"#utility.yul\":8370:8388   */\n      tag_214\n      tag_125\n      jump\t// in\n    tag_214:\n        /* \"#utility.yul\":8353:8390   */\n    tag_213:\n        /* \"#utility.yul\":8203:8397   */\n      swap3\n      swap2\n      pop\n      pop\n      jump\t// out\n        /* \"#utility.yul\":8403:8594   */\n    tag_81:\n        /* \"#utility.yul\":8443:8446   */\n      0x00\n        /* \"#utility.yul\":8462:8482   */\n      tag_216\n        /* \"#utility.yul\":8480:8481   */\n      dup3\n        /* \"#utility.yul\":8462:8482   */\n      tag_112\n      jump\t// in\n    tag_216:\n        /* \"#utility.yul\":8457:8482   */\n      swap2\n      pop\n        /* \"#utility.yul\":8496:8516   */\n      tag_217\n        /* \"#utility.yul\":8514:8515   */\n      dup4\n        /* \"#utility.yul\":8496:8516   */\n      tag_112\n      jump\t// in\n    tag_217:\n        /* \"#utility.yul\":8491:8516   */\n      swap3\n      pop\n        /* \"#utility.yul\":8539:8540   */\n      dup3\n        /* \"#utility.yul\":8536:8537   */\n      dup3\n        /* \"#utility.yul\":8532:8541   */\n      add\n        /* \"#utility.yul\":8525:8541   */\n      swap1\n      pop\n        /* \"#utility.yul\":8560:8563   */\n      dup1\n        /* \"#utility.yul\":8557:8558   */\n      dup3\n        /* \"#utility.yul\":8554:8564   */\n      gt\n        /* \"#utility.yul\":8551:8587   */\n      iszero\n      tag_218\n      jumpi\n        /* \"#utility.yul\":8567:8585   */\n      tag_219\n      tag_125\n      jump\t// in\n    tag_219:\n        /* \"#utility.yul\":8551:8587   */\n    tag_218:\n        /* \"#utility.yul\":8403:8594   */\n      swap3\n      swap2\n      pop\n      pop\n      jump\t// out\n        /* \"#utility.yul\":8600:8718   */\n    tag_126:\n        /* \"#utility.yul\":8687:8711   */\n      tag_221\n        /* \"#utility.yul\":8705:8710   */\n      dup2\n        /* \"#utility.yul\":8687:8711   */\n      tag_109\n      jump\t// in\n    tag_221:\n        /* \"#utility.yul\":8682:8685   */\n      dup3\n        /* \"#utility.yul\":8675:8712   */\n      mstore\n        /* \"#utility.yul\":8600:8718   */\n      pop\n      pop\n      jump\t// out\n        /* \"#utility.yul\":8724:9166   */\n    tag_84:\n        /* \"#utility.yul\":8873:8877   */\n      0x00\n        /* \"#utility.yul\":8911:8913   */\n      0x60\n        /* \"#utility.yul\":8900:8909   */\n      dup3\n        /* \"#utility.yul\":8896:8914   */\n      add\n        /* \"#utility.yul\":8888:8914   */\n      swap1\n      pop\n        /* \"#utility.yul\":8924:8995   */\n      tag_223\n        /* \"#utility.yul\":8992:8993   */\n      0x00\n        /* \"#utility.yul\":8981:8990   */\n      dup4\n        /* \"#utility.yul\":8977:8994   */\n      add\n        /* \"#utility.yul\":8968:8974   */\n      dup7\n        /* \"#utility.yul\":8924:8995   */\n      tag_126\n      jump\t// in\n    tag_223:\n        /* \"#utility.yul\":9005:9077   */\n      tag_224\n        /* \"#utility.yul\":9073:9075   */\n      0x20\n        /* \"#utility.yul\":9062:9071   */\n      dup4\n        /* \"#utility.yul\":9058:9076   */\n      add\n        /* \"#utility.yul\":9049:9055   */\n      dup6\n        /* \"#utility.yul\":9005:9077   */\n      tag_126\n      jump\t// in\n    tag_224:\n        /* \"#utility.yul\":9087:9159   */\n      tag_225\n        /* \"#utility.yul\":9155:9157   */\n      0x40\n        /* \"#utility.yul\":9144:9153   */\n      dup4\n        /* \"#utility.yul\":9140:9158   */\n      add\n        /* \"#utility.yul\":9131:9137   */\n      dup5\n        /* \"#utility.yul\":9087:9159   */\n      tag_117\n      jump\t// in\n    tag_225:\n        /* \"#utility.yul\":8724:9166   */\n      swap5\n      swap4\n      pop\n      pop\n      pop\n      pop\n      jump\t// out\n        /* \"#utility.yul\":9172:9342   */\n    tag_127:\n        /* \"#utility.yul\":9312:9334   */\n      0x696e73756666696369656e742062616c616e6365000000000000000000000000\n        /* \"#utility.yul\":9308:9309   */\n      0x00\n        /* \"#utility.yul\":9300:9306   */\n      dup3\n        /* \"#utility.yul\":9296:9310   */\n      add\n        /* \"#utility.yul\":9289:9335   */\n      mstore\n        /* \"#utility.yul\":9172:9342   */\n      pop\n      jump\t// out\n        /* \"#utility.yul\":9348:9714   */\n    tag_128:\n        /* \"#utility.yul\":9490:9493   */\n      0x00\n        /* \"#utility.yul\":9511:9578   */\n      tag_228\n        /* \"#utility.yul\":9575:9577   */\n      0x14\n        /* \"#utility.yul\":9570:9573   */\n      dup4\n        /* \"#utility.yul\":9511:9578   */\n      tag_101\n      jump\t// in\n    tag_228:\n        /* \"#utility.yul\":9504:9578   */\n      swap2\n      pop\n        /* \"#utility.yul\":9587:9680   */\n      tag_229\n        /* \"#utility.yul\":9676:9679   */\n      dup3\n        /* \"#utility.yul\":9587:9680   */\n      tag_127\n      jump\t// in\n    tag_229:\n        /* \"#utility.yul\":9705:9707   */\n      0x20\n        /* \"#utility.yul\":9700:9703   */\n      dup3\n        /* \"#utility.yul\":9696:9708   */\n      add\n        /* \"#utility.yul\":9689:9708   */\n      swap1\n      pop\n        /* \"#utility.yul\":9348:9714   */\n      swap2\n      swap1\n      pop\n      jump\t// out\n        /* \"#utility.yul\":9720:10139   */\n    tag_95:\n        /* \"#utility.yul\":9886:9890   */\n      0x00\n        /* \"#utility.yul\":9924:9926   */\n      0x20\n        /* \"#utility.yul\":9913:9922   */\n      dup3\n        /* \"#utility.yul\":9909:9927   */\n      add\n        /* \"#utility.yul\":9901:9927   */\n      swap1\n      pop\n        /* \"#utility.yul\":9973:9982   */\n      dup2\n        /* \"#utility.yul\":9967:9971   */\n      dup2\n        /* \"#utility.yul\":9963:9983   */\n      sub\n        /* \"#utility.yul\":9959:9960   */\n      0x00\n        /* \"#utility.yul\":9948:9957   */\n      dup4\n        /* \"#utility.yul\":9944:9961   */\n      add\n        /* \"#utility.yul\":9937:9984   */\n      mstore\n        /* \"#utility.yul\":10001:10132   */\n      tag_231\n        /* \"#utility.yul\":10127:10131   */\n      dup2\n        /* \"#utility.yul\":10001:10132   */\n      tag_128\n      jump\t// in\n    tag_231:\n        /* \"#utility.yul\":9993:10132   */\n      swap1\n      pop\n        /* \"#utility.yul\":9720:10139   */\n      swap2\n      swap1\n      pop\n      jump\t// out\n\n    auxdata: 0xa2646970667358221220c56f0884f677ef03327b4eaef1704bbfd1b3ef75b9fd193b1ad67596eae59c8d64736f6c634300081e0033\n}\n",
				"bytecode": {
					"linkReferences": {},
					"object": "608060405234801561000f575f5ffd5b506040516116fb3803806116fb833981810160405281019061003191906102b1565b835f908161003f9190610554565b508160025f6101000a81548160ff021916908360ff16021790555082600190816100699190610554565b508060038190555060035460045f3373ffffffffffffffffffffffffffffffffffffffff1673ffffffffffffffffffffffffffffffffffffffff1681526020019081526020015f20819055507fddf252ad1be2c89b69c2b068fc378daa952ba7f163c4a11628f55a4df523b3ef5f336003546040516100ea93929190610671565b60405180910390a1505050506106a6565b5f604051905090565b5f5ffd5b5f5ffd5b5f5ffd5b5f5ffd5b5f601f19601f8301169050919050565b7f4e487b71000000000000000000000000000000000000000000000000000000005f52604160045260245ffd5b61015a82610114565b810181811067ffffffffffffffff8211171561017957610178610124565b5b80604052505050565b5f61018b6100fb565b90506101978282610151565b919050565b5f67ffffffffffffffff8211156101b6576101b5610124565b5b6101bf82610114565b9050602081019050919050565b8281835e5f83830152505050565b5f6101ec6101e78461019c565b610182565b90508281526020810184848401111561020857610207610110565b5b6102138482856101cc565b509392505050565b5f82601f83011261022f5761022e61010c565b5b815161023f8482602086016101da565b91505092915050565b5f60ff82169050919050565b61025d81610248565b8114610267575f5ffd5b50565b5f8151905061027881610254565b92915050565b5f819050919050565b6102908161027e565b811461029a575f5ffd5b50565b5f815190506102ab81610287565b92915050565b5f5f5f5f608085870312156102c9576102c8610104565b5b5f85015167ffffffffffffffff8111156102e6576102e5610108565b5b6102f28782880161021b565b945050602085015167ffffffffffffffff81111561031357610312610108565b5b61031f8782880161021b565b93505060406103308782880161026a565b92505060606103418782880161029d565b91505092959194509250565b5f81519050919050565b7f4e487b71000000000000000000000000000000000000000000000000000000005f52602260045260245ffd5b5f600282049050600182168061039b57607f821691505b6020821081036103ae576103ad610357565b5b50919050565b5f819050815f5260205f209050919050565b5f6020601f8301049050919050565b5f82821b905092915050565b5f600883026104107fffffffffffffffffffffffffffffffffffffffffffffffffffffffffffffffff826103d5565b61041a86836103d5565b95508019841693508086168417925050509392505050565b5f819050919050565b5f61045561045061044b8461027e565b610432565b61027e565b9050919050565b5f819050919050565b61046e8361043b565b61048261047a8261045c565b8484546103e1565b825550505050565b5f5f905090565b61049961048a565b6104a4818484610465565b505050565b5b818110156104c7576104bc5f82610491565b6001810190506104aa565b5050565b601f82111561050c576104dd816103b4565b6104e6846103c6565b810160208510156104f5578190505b610509610501856103c6565b8301826104a9565b50505b505050565b5f82821c905092915050565b5f61052c5f1984600802610511565b1980831691505092915050565b5f610544838361051d565b9150826002028217905092915050565b61055d8261034d565b67ffffffffffffffff81111561057657610575610124565b5b6105808254610384565b61058b8282856104cb565b5f60209050601f8311600181146105bc575f84156105aa578287015190505b6105b48582610539565b86555061061b565b601f1984166105ca866103b4565b5f5b828110156105f1578489015182556001820191506020850194506020810190506105cc565b8683101561060e578489015161060a601f89168261051d565b8355505b6001600288020188555050505b505050505050565b5f73ffffffffffffffffffffffffffffffffffffffff82169050919050565b5f61064c82610623565b9050919050565b61065c81610642565b82525050565b61066b8161027e565b82525050565b5f6060820190506106845f830186610653565b6106916020830185610653565b61069e6040830184610662565b949350505050565b611048806106b35f395ff3fe608060405234801561000f575f5ffd5b50600436106100a7575f3560e01c80635c6581651161006f5780635c6581651461017757806370a08231146101a757806376809ce3146101d757806395d89b41146101f5578063a9059cbb14610213578063dd62ed3e14610243576100a7565b806306fdde03146100ab578063095ea7b3146100c957806323b872dd146100f957806327e235e3146101295780633eaaf86b14610159575b5f5ffd5b6100b3610273565b6040516100c09190610b6f565b60405180910390f35b6100e360048036038101906100de9190610c20565b6102fe565b6040516100f09190610c78565b60405180910390f35b610113600480360381019061010e9190610c91565b6103eb565b6040516101209190610c78565b60405180910390f35b610143600480360381019061013e9190610ce1565b610781565b6040516101509190610d1b565b60405180910390f35b610161610796565b60405161016e9190610d1b565b60405180910390f35b610191600480360381019061018c9190610d34565b61079f565b60405161019e9190610d1b565b60405180910390f35b6101c160048036038101906101bc9190610ce1565b6107bf565b6040516101ce9190610d1b565b60405180910390f35b6101df610805565b6040516101ec9190610d8d565b60405180910390f35b6101fd610817565b60405161020a9190610b6f565b60405180910390f35b61022d60048036038101906102289190610c20565b6108a3565b60405161023a9190610c78565b60405180910390f35b61025d60048036038101906102589190610d34565b610a7d565b60405161026a9190610d1b565b60405180910390f35b5f805461027f90610dd3565b80601f01602080910402602001604051908101604052809291908181526020018280546102ab90610dd3565b80156102f65780601f106102cd576101008083540402835291602001916102f6565b820191905f5260205f20905b8154815290600101906020018083116102d957829003601f168201915b505050505081565b5f8160055f3373ffffffffffffffffffffffffffffffffffffffff1673ffffffffffffffffffffffffffffffffffffffff1681526020019081526020015f205f8573ffffffffffffffffffffffffffffffffffffffff1673ffffffffffffffffffffffffffffffffffffffff1681526020019081526020015f20819055508273ffffffffffffffffffffffffffffffffffffffff163373ffffffffffffffffffffffffffffffffffffffff167f8c5be1e5ebec7d5bd14f71427d1e84f3dd0314c0f7b2291e5b200ac8c7c3b925846040516103d99190610d1b565b60405180910390a36001905092915050565b5f60045f8573ffffffffffffffffffffffffffffffffffffffff1673ffffffffffffffffffffffffffffffffffffffff1681526020019081526020015f205482111561046c576040517f08c379a000000000000000000000000000000000000000000000000000000000815260040161046390610e4d565b60405180910390fd5b60055f8573ffffffffffffffffffffffffffffffffffffffff1673ffffffffffffffffffffffffffffffffffffffff1681526020019081526020015f205f3373ffffffffffffffffffffffffffffffffffffffff1673ffffffffffffffffffffffffffffffffffffffff1681526020019081526020015f2054821115610527576040517f08c379a000000000000000000000000000000000000000000000000000000000815260040161051e90610eb5565b60405180910390fd5b8160045f8673ffffffffffffffffffffffffffffffffffffffff1673ffffffffffffffffffffffffffffffffffffffff1681526020019081526020015f20546105709190610f00565b60045f8673ffffffffffffffffffffffffffffffffffffffff1673ffffffffffffffffffffffffffffffffffffffff1681526020019081526020015f20819055508160045f8573ffffffffffffffffffffffffffffffffffffffff1673ffffffffffffffffffffffffffffffffffffffff1681526020019081526020015f20546105fa9190610f33565b60045f8573ffffffffffffffffffffffffffffffffffffffff1673ffffffffffffffffffffffffffffffffffffffff1681526020019081526020015f20819055508160055f8673ffffffffffffffffffffffffffffffffffffffff1673ffffffffffffffffffffffffffffffffffffffff1681526020019081526020015f205f3373ffffffffffffffffffffffffffffffffffffffff1673ffffffffffffffffffffffffffffffffffffffff1681526020019081526020015f20546106bf9190610f00565b60055f8673ffffffffffffffffffffffffffffffffffffffff1673ffffffffffffffffffffffffffffffffffffffff1681526020019081526020015f205f3373ffffffffffffffffffffffffffffffffffffffff1673ffffffffffffffffffffffffffffffffffffffff1681526020019081526020015f20819055507fddf252ad1be2c89b69c2b068fc378daa952ba7f163c4a11628f55a4df523b3ef84848460405161076e93929190610f75565b60405180910390a1600190509392505050565b6004602052805f5260405f205f915090505481565b5f600354905090565b6005602052815f5260405f20602052805f5260405f205f91509150505481565b5f60045f8373ffffffffffffffffffffffffffffffffffffffff1673ffffffffffffffffffffffffffffffffffffffff1681526020019081526020015f20549050919050565b60025f9054906101000a900460ff1681565b6001805461082490610dd3565b80601f016020809104026020016040519081016040528092919081815260200182805461085090610dd3565b801561089b5780601f106108725761010080835404028352916020019161089b565b820191905f5260205f20905b81548152906001019060200180831161087e57829003601f168201915b505050505081565b5f8160045f3373ffffffffffffffffffffffffffffffffffffffff1673ffffffffffffffffffffffffffffffffffffffff1681526020019081526020015f20541015610924576040517f08c379a000000000000000000000000000000000000000000000000000000000815260040161091b90610ff4565b60405180910390fd5b8160045f3373ffffffffffffffffffffffffffffffffffffffff1673ffffffffffffffffffffffffffffffffffffffff1681526020019081526020015f205461096d9190610f00565b60045f3373ffffffffffffffffffffffffffffffffffffffff1673ffffffffffffffffffffffffffffffffffffffff1681526020019081526020015f20819055508160045f8573ffffffffffffffffffffffffffffffffffffffff1673ffffffffffffffffffffffffffffffffffffffff1681526020019081526020015f20546109f79190610f33565b60045f8573ffffffffffffffffffffffffffffffffffffffff1673ffffffffffffffffffffffffffffffffffffffff1681526020019081526020015f20819055507fddf252ad1be2c89b69c2b068fc378daa952ba7f163c4a11628f55a4df523b3ef338484604051610a6b93929190610f75565b60405180910390a16001905092915050565b5f60055f8473ffffffffffffffffffffffffffffffffffffffff1673ffffffffffffffffffffffffffffffffffffffff1681526020019081526020015f205f8373ffffffffffffffffffffffffffffffffffffffff1673ffffffffffffffffffffffffffffffffffffffff1681526020019081526020015f2054905092915050565b5f81519050919050565b5f82825260208201905092915050565b8281835e5f83830152505050565b5f601f19601f8301169050919050565b5f610b4182610aff565b610b4b8185610b09565b9350610b5b818560208601610b19565b610b6481610b27565b840191505092915050565b5f6020820190508181035f830152610b878184610b37565b905092915050565b5f5ffd5b5f73ffffffffffffffffffffffffffffffffffffffff82169050919050565b5f610bbc82610b93565b9050919050565b610bcc81610bb2565b8114610bd6575f5ffd5b50565b5f81359050610be781610bc3565b92915050565b5f819050919050565b610bff81610bed565b8114610c09575f5ffd5b50565b5f81359050610c1a81610bf6565b92915050565b5f5f60408385031215610c3657610c35610b8f565b5b5f610c4385828601610bd9565b9250506020610c5485828601610c0c565b9150509250929050565b5f8115159050919050565b610c7281610c5e565b82525050565b5f602082019050610c8b5f830184610c69565b92915050565b5f5f5f60608486031215610ca857610ca7610b8f565b5b5f610cb586828701610bd9565b9350506020610cc686828701610bd9565b9250506040610cd786828701610c0c565b9150509250925092565b5f60208284031215610cf657610cf5610b8f565b5b5f610d0384828501610bd9565b91505092915050565b610d1581610bed565b82525050565b5f602082019050610d2e5f830184610d0c565b92915050565b5f5f60408385031215610d4a57610d49610b8f565b5b5f610d5785828601610bd9565b9250506020610d6885828601610bd9565b9150509250929050565b5f60ff82169050919050565b610d8781610d72565b82525050565b5f602082019050610da05f830184610d7e565b92915050565b7f4e487b71000000000000000000000000000000000000000000000000000000005f52602260045260245ffd5b5f6002820490506001821680610dea57607f821691505b602082108103610dfd57610dfc610da6565b5b50919050565b7f496e73756666696369656e742062616c616e63650000000000000000000000005f82015250565b5f610e37601483610b09565b9150610e4282610e03565b602082019050919050565b5f6020820190508181035f830152610e6481610e2b565b9050919050565b7f546f6b656e73206e6f7420616c6c6f77656400000000000000000000000000005f82015250565b5f610e9f601283610b09565b9150610eaa82610e6b565b602082019050919050565b5f6020820190508181035f830152610ecc81610e93565b9050919050565b7f4e487b71000000000000000000000000000000000000000000000000000000005f52601160045260245ffd5b5f610f0a82610bed565b9150610f1583610bed565b9250828203905081811115610f2d57610f2c610ed3565b5b92915050565b5f610f3d82610bed565b9150610f4883610bed565b9250828201905080821115610f6057610f5f610ed3565b5b92915050565b610f6f81610bb2565b82525050565b5f606082019050610f885f830186610f66565b610f956020830185610f66565b610fa26040830184610d0c565b949350505050565b7f696e73756666696369656e742062616c616e63650000000000000000000000005f82015250565b5f610fde601483610b09565b9150610fe982610faa565b602082019050919050565b5f6020820190508181035f83015261100b81610fd2565b905091905056fea2646970667358221220c56f0884f677ef03327b4eaef1704bbfd1b3ef75b9fd193b1ad67596eae59c8d64736f6c634300081e0033",
					"opcodes": "PUSH1 0x80 PUSH1 0x40 MSTORE CALLVALUE DUP1 ISZERO PUSH2 0xF JUMPI PUSH0 PUSH0 REVERT JUMPDEST POP PUSH1 0x40 MLOAD PUSH2 0x16FB CODESIZE SUB DUP1 PUSH2 0x16FB DUP4 CODECOPY DUP2 DUP2 ADD PUSH1 0x40 MSTORE DUP2 ADD SWAP1 PUSH2 0x31 SWAP2 SWAP1 PUSH2 0x2B1 JUMP JUMPDEST DUP4 PUSH0 SWAP1 DUP2 PUSH2 0x3F SWAP2 SWAP1 PUSH2 0x554 JUMP JUMPDEST POP DUP2 PUSH1 0x2 PUSH0 PUSH2 0x100 EXP DUP2 SLOAD DUP2 PUSH1 0xFF MUL NOT AND SWAP1 DUP4 PUSH1 0xFF AND MUL OR SWAP1 SSTORE POP DUP3 PUSH1 0x1 SWAP1 DUP2 PUSH2 0x69 SWAP2 SWAP1 PUSH2 0x554 JUMP JUMPDEST POP DUP1 PUSH1 0x3 DUP2 SWAP1 SSTORE POP PUSH1 0x3 SLOAD PUSH1 0x4 PUSH0 CALLER PUSH20 0xFFFFFFFFFFFFFFFFFFFFFFFFFFFFFFFFFFFFFFFF AND PUSH20 0xFFFFFFFFFFFFFFFFFFFFFFFFFFFFFFFFFFFFFFFF AND DUP2 MSTORE PUSH1 0x20 ADD SWAP1 DUP2 MSTORE PUSH1 0x20 ADD PUSH0 KECCAK256 DUP2 SWAP1 SSTORE POP PUSH32 0xDDF252AD1BE2C89B69C2B068FC378DAA952BA7F163C4A11628F55A4DF523B3EF PUSH0 CALLER PUSH1 0x3 SLOAD PUSH1 0x40 MLOAD PUSH2 0xEA SWAP4 SWAP3 SWAP2 SWAP1 PUSH2 0x671 JUMP JUMPDEST PUSH1 0x40 MLOAD DUP1 SWAP2 SUB SWAP1 LOG1 POP POP POP POP PUSH2 0x6A6 JUMP JUMPDEST PUSH0 PUSH1 0x40 MLOAD SWAP1 POP SWAP1 JUMP JUMPDEST PUSH0 PUSH0 REVERT JUMPDEST PUSH0 PUSH0 REVERT JUMPDEST PUSH0 PUSH0 REVERT JUMPDEST PUSH0 PUSH0 REVERT JUMPDEST PUSH0 PUSH1 0x1F NOT PUSH1 0x1F DUP4 ADD AND SWAP1 POP SWAP2 SWAP1 POP JUMP JUMPDEST PUSH32 0x4E487B7100000000000000000000000000000000000000000000000000000000 PUSH0 MSTORE PUSH1 0x41 PUSH1 0x4 MSTORE PUSH1 0x24 PUSH0 REVERT JUMPDEST PUSH2 0x15A DUP3 PUSH2 0x114 JUMP JUMPDEST DUP2 ADD DUP2 DUP2 LT PUSH8 0xFFFFFFFFFFFFFFFF DUP3 GT OR ISZERO PUSH2 0x179 JUMPI PUSH2 0x178 PUSH2 0x124 JUMP JUMPDEST JUMPDEST DUP1 PUSH1 0x40 MSTORE POP POP POP JUMP JUMPDEST PUSH0 PUSH2 0x18B PUSH2 0xFB JUMP JUMPDEST SWAP1 POP PUSH2 0x197 DUP3 DUP3 PUSH2 0x151 JUMP JUMPDEST SWAP2 SWAP1 POP JUMP JUMPDEST PUSH0 PUSH8 0xFFFFFFFFFFFFFFFF DUP3 GT ISZERO PUSH2 0x1B6 JUMPI PUSH2 0x1B5 PUSH2 0x124 JUMP JUMPDEST JUMPDEST PUSH2 0x1BF DUP3 PUSH2 0x114 JUMP JUMPDEST SWAP1 POP PUSH1 0x20 DUP2 ADD SWAP1 POP SWAP2 SWAP1 POP JUMP JUMPDEST DUP3 DUP2 DUP4 MCOPY PUSH0 DUP4 DUP4 ADD MSTORE POP POP POP JUMP JUMPDEST PUSH0 PUSH2 0x1EC PUSH2 0x1E7 DUP5 PUSH2 0x19C JUMP JUMPDEST PUSH2 0x182 JUMP JUMPDEST SWAP1 POP DUP3 DUP2 MSTORE PUSH1 0x20 DUP2 ADD DUP5 DUP5 DUP5 ADD GT ISZERO PUSH2 0x208 JUMPI PUSH2 0x207 PUSH2 0x110 JUMP JUMPDEST JUMPDEST PUSH2 0x213 DUP5 DUP3 DUP6 PUSH2 0x1CC JUMP JUMPDEST POP SWAP4 SWAP3 POP POP POP JUMP JUMPDEST PUSH0 DUP3 PUSH1 0x1F DUP4 ADD SLT PUSH2 0x22F JUMPI PUSH2 0x22E PUSH2 0x10C JUMP JUMPDEST JUMPDEST DUP2 MLOAD PUSH2 0x23F DUP5 DUP3 PUSH1 0x20 DUP7 ADD PUSH2 0x1DA JUMP JUMPDEST SWAP2 POP POP SWAP3 SWAP2 POP POP JUMP JUMPDEST PUSH0 PUSH1 0xFF DUP3 AND SWAP1 POP SWAP2 SWAP1 POP JUMP JUMPDEST PUSH2 0x25D DUP2 PUSH2 0x248 JUMP JUMPDEST DUP2 EQ PUSH2 0x267 JUMPI PUSH0 PUSH0 REVERT JUMPDEST POP JUMP JUMPDEST PUSH0 DUP2 MLOAD SWAP1 POP PUSH2 0x278 DUP2 PUSH2 0x254 JUMP JUMPDEST SWAP3 SWAP2 POP POP JUMP JUMPDEST PUSH0 DUP2 SWAP1 POP SWAP2 SWAP1 POP JUMP JUMPDEST PUSH2 0x290 DUP2 PUSH2 0x27E JUMP JUMPDEST DUP2 EQ PUSH2 0x29A JUMPI PUSH0 PUSH0 REVERT JUMPDEST POP JUMP JUMPDEST PUSH0 DUP2 MLOAD SWAP1 POP PUSH2 0x2AB DUP2 PUSH2 0x287 JUMP JUMPDEST SWAP3 SWAP2 POP POP JUMP JUMPDEST PUSH0 PUSH0 PUSH0 PUSH0 PUSH1 0x80 DUP6 DUP8 SUB SLT ISZERO PUSH2 0x2C9 JUMPI PUSH2 0x2C8 PUSH2 0x104 JUMP JUMPDEST JUMPDEST PUSH0 DUP6 ADD MLOAD PUSH8 0xFFFFFFFFFFFFFFFF DUP2 GT ISZERO PUSH2 0x2E6 JUMPI PUSH2 0x2E5 PUSH2 0x108 JUMP JUMPDEST JUMPDEST PUSH2 0x2F2 DUP8 DUP3 DUP9 ADD PUSH2 0x21B JUMP JUMPDEST SWAP5 POP POP PUSH1 0x20 DUP6 ADD MLOAD PUSH8 0xFFFFFFFFFFFFFFFF DUP2 GT ISZERO PUSH2 0x313 JUMPI PUSH2 0x312 PUSH2 0x108 JUMP JUMPDEST JUMPDEST PUSH2 0x31F DUP8 DUP3 DUP9 ADD PUSH2 0x21B JUMP JUMPDEST SWAP4 POP POP PUSH1 0x40 PUSH2 0x330 DUP8 DUP3 DUP9 ADD PUSH2 0x26A JUMP JUMPDEST SWAP3 POP POP PUSH1 0x60 PUSH2 0x341 DUP8 DUP3 DUP9 ADD PUSH2 0x29D JUMP JUMPDEST SWAP2 POP POP SWAP3 SWAP6 SWAP2 SWAP5 POP SWAP3 POP JUMP JUMPDEST PUSH0 DUP2 MLOAD SWAP1 POP SWAP2 SWAP1 POP JUMP JUMPDEST PUSH32 0x4E487B7100000000000000000000000000000000000000000000000000000000 PUSH0 MSTORE PUSH1 0x22 PUSH1 0x4 MSTORE PUSH1 0x24 PUSH0 REVERT JUMPDEST PUSH0 PUSH1 0x2 DUP3 DIV SWAP1 POP PUSH1 0x1 DUP3 AND DUP1 PUSH2 0x39B JUMPI PUSH1 0x7F DUP3 AND SWAP2 POP JUMPDEST PUSH1 0x20 DUP3 LT DUP2 SUB PUSH2 0x3AE JUMPI PUSH2 0x3AD PUSH2 0x357 JUMP JUMPDEST JUMPDEST POP SWAP2 SWAP1 POP JUMP JUMPDEST PUSH0 DUP2 SWAP1 POP DUP2 PUSH0 MSTORE PUSH1 0x20 PUSH0 KECCAK256 SWAP1 POP SWAP2 SWAP1 POP JUMP JUMPDEST PUSH0 PUSH1 0x20 PUSH1 0x1F DUP4 ADD DIV SWAP1 POP SWAP2 SWAP1 POP JUMP JUMPDEST PUSH0 DUP3 DUP3 SHL SWAP1 POP SWAP3 SWAP2 POP POP JUMP JUMPDEST PUSH0 PUSH1 0x8 DUP4 MUL PUSH2 0x410 PUSH32 0xFFFFFFFFFFFFFFFFFFFFFFFFFFFFFFFFFFFFFFFFFFFFFFFFFFFFFFFFFFFFFFFF DUP3 PUSH2 0x3D5 JUMP JUMPDEST PUSH2 0x41A DUP7 DUP4 PUSH2 0x3D5 JUMP JUMPDEST SWAP6 POP DUP1 NOT DUP5 AND SWAP4 POP DUP1 DUP7 AND DUP5 OR SWAP3 POP POP POP SWAP4 SWAP3 POP POP POP JUMP JUMPDEST PUSH0 DUP2 SWAP1 POP SWAP2 SWAP1 POP JUMP JUMPDEST PUSH0 PUSH2 0x455 PUSH2 0x450 PUSH2 0x44B DUP5 PUSH2 0x27E JUMP JUMPDEST PUSH2 0x432 JUMP JUMPDEST PUSH2 0x27E JUMP JUMPDEST SWAP1 POP SWAP2 SWAP1 POP JUMP JUMPDEST PUSH0 DUP2 SWAP1 POP SWAP2 SWAP1 POP JUMP JUMPDEST PUSH2 0x46E DUP4 PUSH2 0x43B JUMP JUMPDEST PUSH2 0x482 PUSH2 0x47A DUP3 PUSH2 0x45C JUMP JUMPDEST DUP5 DUP5 SLOAD PUSH2 0x3E1 JUMP JUMPDEST DUP3 SSTORE POP POP POP POP JUMP JUMPDEST PUSH0 PUSH0 SWAP1 POP SWAP1 JUMP JUMPDEST PUSH2 0x499 PUSH2 0x48A JUMP JUMPDEST PUSH2 0x4A4 DUP2 DUP5 DUP5 PUSH2 0x465 JUMP JUMPDEST POP POP POP JUMP JUMPDEST JUMPDEST DUP2 DUP2 LT ISZERO PUSH2 0x4C7 JUMPI PUSH2 0x4BC PUSH0 DUP3 PUSH2 0x491 JUMP JUMPDEST PUSH1 0x1 DUP2 ADD SWAP1 POP PUSH2 0x4AA JUMP JUMPDEST POP POP JUMP JUMPDEST PUSH1 0x1F DUP3 GT ISZERO PUSH2 0x50C JUMPI PUSH2 0x4DD DUP2 PUSH2 0x3B4 JUMP JUMPDEST PUSH2 0x4E6 DUP5 PUSH2 0x3C6 JUMP JUMPDEST DUP2 ADD PUSH1 0x20 DUP6 LT ISZERO PUSH2 0x4F5 JUMPI DUP2 SWAP1 POP JUMPDEST PUSH2 0x509 PUSH2 0x501 DUP6 PUSH2 0x3C6 JUMP JUMPDEST DUP4 ADD DUP3 PUSH2 0x4A9 JUMP JUMPDEST POP POP JUMPDEST POP POP POP JUMP JUMPDEST PUSH0 DUP3 DUP3 SHR SWAP1 POP SWAP3 SWAP2 POP POP JUMP JUMPDEST PUSH0 PUSH2 0x52C PUSH0 NOT DUP5 PUSH1 0x8 MUL PUSH2 0x511 JUMP JUMPDEST NOT DUP1 DUP4 AND SWAP2 POP POP SWAP3 SWAP2 POP POP JUMP JUMPDEST PUSH0 PUSH2 0x544 DUP4 DUP4 PUSH2 0x51D JUMP JUMPDEST SWAP2 POP DUP3 PUSH1 0x2 MUL DUP3 OR SWAP1 POP SWAP3 SWAP2 POP POP JUMP JUMPDEST PUSH2 0x55D DUP3 PUSH2 0x34D JUMP JUMPDEST PUSH8 0xFFFFFFFFFFFFFFFF DUP2 GT ISZERO PUSH2 0x576 JUMPI PUSH2 0x575 PUSH2 0x124 JUMP JUMPDEST JUMPDEST PUSH2 0x580 DUP3 SLOAD PUSH2 0x384 JUMP JUMPDEST PUSH2 0x58B DUP3 DUP3 DUP6 PUSH2 0x4CB JUMP JUMPDEST PUSH0 PUSH1 0x20 SWAP1 POP PUSH1 0x1F DUP4 GT PUSH1 0x1 DUP2 EQ PUSH2 0x5BC JUMPI PUSH0 DUP5 ISZERO PUSH2 0x5AA JUMPI DUP3 DUP8 ADD MLOAD SWAP1 POP JUMPDEST PUSH2 0x5B4 DUP6 DUP3 PUSH2 0x539 JUMP JUMPDEST DUP7 SSTORE POP PUSH2 0x61B JUMP JUMPDEST PUSH1 0x1F NOT DUP5 AND PUSH2 0x5CA DUP7 PUSH2 0x3B4 JUMP JUMPDEST PUSH0 JUMPDEST DUP3 DUP2 LT ISZERO PUSH2 0x5F1 JUMPI DUP5 DUP10 ADD MLOAD DUP3 SSTORE PUSH1 0x1 DUP3 ADD SWAP2 POP PUSH1 0x20 DUP6 ADD SWAP5 POP PUSH1 0x20 DUP2 ADD SWAP1 POP PUSH2 0x5CC JUMP JUMPDEST DUP7 DUP4 LT ISZERO PUSH2 0x60E JUMPI DUP5 DUP10 ADD MLOAD PUSH2 0x60A PUSH1 0x1F DUP10 AND DUP3 PUSH2 0x51D JUMP JUMPDEST DUP4 SSTORE POP JUMPDEST PUSH1 0x1 PUSH1 0x2 DUP9 MUL ADD DUP9 SSTORE POP POP POP JUMPDEST POP POP POP POP POP POP JUMP JUMPDEST PUSH0 PUSH20 0xFFFFFFFFFFFFFFFFFFFFFFFFFFFFFFFFFFFFFFFF DUP3 AND SWAP1 POP SWAP2 SWAP1 POP JUMP JUMPDEST PUSH0 PUSH2 0x64C DUP3 PUSH2 0x623 JUMP JUMPDEST SWAP1 POP SWAP2 SWAP1 POP JUMP JUMPDEST PUSH2 0x65C DUP2 PUSH2 0x642 JUMP JUMPDEST DUP3 MSTORE POP POP JUMP JUMPDEST PUSH2 0x66B DUP2 PUSH2 0x27E JUMP JUMPDEST DUP3 MSTORE POP POP JUMP JUMPDEST PUSH0 PUSH1 0x60 DUP3 ADD SWAP1 POP PUSH2 0x684 PUSH0 DUP4 ADD DUP7 PUSH2 0x653 JUMP JUMPDEST PUSH2 0x691 PUSH1 0x20 DUP4 ADD DUP6 PUSH2 0x653 JUMP JUMPDEST PUSH2 0x69E PUSH1 0x40 DUP4 ADD DUP5 PUSH2 0x662 JUMP JUMPDEST SWAP5 SWAP4 POP POP POP POP JUMP JUMPDEST PUSH2 0x1048 DUP1 PUSH2 0x6B3 PUSH0 CODECOPY PUSH0 RETURN INVALID PUSH1 0x80 PUSH1 0x40 MSTORE CALLVALUE DUP1 ISZERO PUSH2 0xF JUMPI PUSH0 PUSH0 REVERT JUMPDEST POP PUSH1 0x4 CALLDATASIZE LT PUSH2 0xA7 JUMPI PUSH0 CALLDATALOAD PUSH1 0xE0 SHR DUP1 PUSH4 0x5C658165 GT PUSH2 0x6F JUMPI DUP1 PUSH4 0x5C658165 EQ PUSH2 0x177 JUMPI DUP1 PUSH4 0x70A08231 EQ PUSH2 0x1A7 JUMPI DUP1 PUSH4 0x76809CE3 EQ PUSH2 0x1D7 JUMPI DUP1 PUSH4 0x95D89B41 EQ PUSH2 0x1F5 JUMPI DUP1 PUSH4 0xA9059CBB EQ PUSH2 0x213 JUMPI DUP1 PUSH4 0xDD62ED3E EQ PUSH2 0x243 JUMPI PUSH2 0xA7 JUMP JUMPDEST DUP1 PUSH4 0x6FDDE03 EQ PUSH2 0xAB JUMPI DUP1 PUSH4 0x95EA7B3 EQ PUSH2 0xC9 JUMPI DUP1 PUSH4 0x23B872DD EQ PUSH2 0xF9 JUMPI DUP1 PUSH4 0x27E235E3 EQ PUSH2 0x129 JUMPI DUP1 PUSH4 0x3EAAF86B EQ PUSH2 0x159 JUMPI JUMPDEST PUSH0 PUSH0 REVERT JUMPDEST PUSH2 0xB3 PUSH2 0x273 JUMP JUMPDEST PUSH1 0x40 MLOAD PUSH2 0xC0 SWAP2 SWAP1 PUSH2 0xB6F JUMP JUMPDEST PUSH1 0x40 MLOAD DUP1 SWAP2 SUB SWAP1 RETURN JUMPDEST PUSH2 0xE3 PUSH1 0x4 DUP1 CALLDATASIZE SUB DUP2 ADD SWAP1 PUSH2 0xDE SWAP2 SWAP1 PUSH2 0xC20 JUMP JUMPDEST PUSH2 0x2FE JUMP JUMPDEST PUSH1 0x40 MLOAD PUSH2 0xF0 SWAP2 SWAP1 PUSH2 0xC78 JUMP JUMPDEST PUSH1 0x40 MLOAD DUP1 SWAP2 SUB SWAP1 RETURN JUMPDEST PUSH2 0x113 PUSH1 0x4 DUP1 CALLDATASIZE SUB DUP2 ADD SWAP1 PUSH2 0x10E SWAP2 SWAP1 PUSH2 0xC91 JUMP JUMPDEST PUSH2 0x3EB JUMP JUMPDEST PUSH1 0x40 MLOAD PUSH2 0x120 SWAP2 SWAP1 PUSH2 0xC78 JUMP JUMPDEST PUSH1 0x40 MLOAD DUP1 SWAP2 SUB SWAP1 RETURN JUMPDEST PUSH2 0x143 PUSH1 0x4 DUP1 CALLDATASIZE SUB DUP2 ADD SWAP1 PUSH2 0x13E SWAP2 SWAP1 PUSH2 0xCE1 JUMP JUMPDEST PUSH2 0x781 JUMP JUMPDEST PUSH1 0x40 MLOAD PUSH2 0x150 SWAP2 SWAP1 PUSH2 0xD1B JUMP JUMPDEST PUSH1 0x40 MLOAD DUP1 SWAP2 SUB SWAP1 RETURN JUMPDEST PUSH2 0x161 PUSH2 0x796 JUMP JUMPDEST PUSH1 0x40 MLOAD PUSH2 0x16E SWAP2 SWAP1 PUSH2 0xD1B JUMP JUMPDEST PUSH1 0x40 MLOAD DUP1 SWAP2 SUB SWAP1 RETURN JUMPDEST PUSH2 0x191 PUSH1 0x4 DUP1 CALLDATASIZE SUB DUP2 ADD SWAP1 PUSH2 0x18C SWAP2 SWAP1 PUSH2 0xD34 JUMP JUMPDEST PUSH2 0x79F JUMP JUMPDEST PUSH1 0x40 MLOAD PUSH2 0x19E SWAP2 SWAP1 PUSH2 0xD1B JUMP JUMPDEST PUSH1 0x40 MLOAD DUP1 SWAP2 SUB SWAP1 RETURN JUMPDEST PUSH2 0x1C1 PUSH1 0x4 DUP1 CALLDATASIZE SUB DUP2 ADD SWAP1 PUSH2 0x1BC SWAP2 SWAP1 PUSH2 0xCE1 JUMP JUMPDEST PUSH2 0x7BF JUMP JUMPDEST PUSH1 0x40 MLOAD PUSH2 0x1CE SWAP2 SWAP1 PUSH2 0xD1B JUMP JUMPDEST PUSH1 0x40 MLOAD DUP1 SWAP2 SUB SWAP1 RETURN JUMPDEST PUSH2 0x1DF PUSH2 0x805 JUMP JUMPDEST PUSH1 0x40 MLOAD PUSH2 0x1EC SWAP2 SWAP1 PUSH2 0xD8D JUMP JUMPDEST PUSH1 0x40 MLOAD DUP1 SWAP2 SUB SWAP1 RETURN JUMPDEST PUSH2 0x1FD PUSH2 0x817 JUMP JUMPDEST PUSH1 0x40 MLOAD PUSH2 0x20A SWAP2 SWAP1 PUSH2 0xB6F JUMP JUMPDEST PUSH1 0x40 MLOAD DUP1 SWAP2 SUB SWAP1 RETURN JUMPDEST PUSH2 0x22D PUSH1 0x4 DUP1 CALLDATASIZE SUB DUP2 ADD SWAP1 PUSH2 0x228 SWAP2 SWAP1 PUSH2 0xC20 JUMP JUMPDEST PUSH2 0x8A3 JUMP JUMPDEST PUSH1 0x40 MLOAD PUSH2 0x23A SWAP2 SWAP1 PUSH2 0xC78 JUMP JUMPDEST PUSH1 0x40 MLOAD DUP1 SWAP2 SUB SWAP1 RETURN JUMPDEST PUSH2 0x25D PUSH1 0x4 DUP1 CALLDATASIZE SUB DUP2 ADD SWAP1 PUSH2 0x258 SWAP2 SWAP1 PUSH2 0xD34 JUMP JUMPDEST PUSH2 0xA7D JUMP JUMPDEST PUSH1 0x40 MLOAD PUSH2 0x26A SWAP2 SWAP1 PUSH2 0xD1B JUMP JUMPDEST PUSH1 0x40 MLOAD DUP1 SWAP2 SUB SWAP1 RETURN JUMPDEST PUSH0 DUP1 SLOAD PUSH2 0x27F SWAP1 PUSH2 0xDD3 JUMP JUMPDEST DUP1 PUSH1 0x1F ADD PUSH1 0x20 DUP1 SWAP2 DIV MUL PUSH1 0x20 ADD PUSH1 0x40 MLOAD SWAP1 DUP2 ADD PUSH1 0x40 MSTORE DUP1 SWAP3 SWAP2 SWAP1 DUP2 DUP2 MSTORE PUSH1 0x20 ADD DUP3 DUP1 SLOAD PUSH2 0x2AB SWAP1 PUSH2 0xDD3 JUMP JUMPDEST DUP1 ISZERO PUSH2 0x2F6 JUMPI DUP1 PUSH1 0x1F LT PUSH2 0x2CD JUMPI PUSH2 0x100 DUP1 DUP4 SLOAD DIV MUL DUP4 MSTORE SWAP2 PUSH1 0x20 ADD SWAP2 PUSH2 0x2F6 JUMP JUMPDEST DUP3 ADD SWAP2 SWAP1 PUSH0 MSTORE PUSH1 0x20 PUSH0 KECCAK256 SWAP1 JUMPDEST DUP2 SLOAD DUP2 MSTORE SWAP1 PUSH1 0x1 ADD SWAP1 PUSH1 0x20 ADD DUP1 DUP4 GT PUSH2 0x2D9 JUMPI DUP3 SWAP1 SUB PUSH1 0x1F AND DUP3 ADD SWAP2 JUMPDEST POP POP POP POP POP DUP2 JUMP JUMPDEST PUSH0 DUP2 PUSH1 0x5 PUSH0 CALLER PUSH20 0xFFFFFFFFFFFFFFFFFFFFFFFFFFFFFFFFFFFFFFFF AND PUSH20 0xFFFFFFFFFFFFFFFFFFFFFFFFFFFFFFFFFFFFFFFF AND DUP2 MSTORE PUSH1 0x20 ADD SWAP1 DUP2 MSTORE PUSH1 0x20 ADD PUSH0 KECCAK256 PUSH0 DUP6 PUSH20 0xFFFFFFFFFFFFFFFFFFFFFFFFFFFFFFFFFFFFFFFF AND PUSH20 0xFFFFFFFFFFFFFFFFFFFFFFFFFFFFFFFFFFFFFFFF AND DUP2 MSTORE PUSH1 0x20 ADD SWAP1 DUP2 MSTORE PUSH1 0x20 ADD PUSH0 KECCAK256 DUP2 SWAP1 SSTORE POP DUP3 PUSH20 0xFFFFFFFFFFFFFFFFFFFFFFFFFFFFFFFFFFFFFFFF AND CALLER PUSH20 0xFFFFFFFFFFFFFFFFFFFFFFFFFFFFFFFFFFFFFFFF AND PUSH32 0x8C5BE1E5EBEC7D5BD14F71427D1E84F3DD0314C0F7B2291E5B200AC8C7C3B925 DUP5 PUSH1 0x40 MLOAD PUSH2 0x3D9 SWAP2 SWAP1 PUSH2 0xD1B JUMP JUMPDEST PUSH1 0x40 MLOAD DUP1 SWAP2 SUB SWAP1 LOG3 PUSH1 0x1 SWAP1 POP SWAP3 SWAP2 POP POP JUMP JUMPDEST PUSH0 PUSH1 0x4 PUSH0 DUP6 PUSH20 0xFFFFFFFFFFFFFFFFFFFFFFFFFFFFFFFFFFFFFFFF AND PUSH20 0xFFFFFFFFFFFFFFFFFFFFFFFFFFFFFFFFFFFFFFFF AND DUP2 MSTORE PUSH1 0x20 ADD SWAP1 DUP2 MSTORE PUSH1 0x20 ADD PUSH0 KECCAK256 SLOAD DUP3 GT ISZERO PUSH2 0x46C JUMPI PUSH1 0x40 MLOAD PUSH32 0x8C379A000000000000000000000000000000000000000000000000000000000 DUP2 MSTORE PUSH1 0x4 ADD PUSH2 0x463 SWAP1 PUSH2 0xE4D JUMP JUMPDEST PUSH1 0x40 MLOAD DUP1 SWAP2 SUB SWAP1 REVERT JUMPDEST PUSH1 0x5 PUSH0 DUP6 PUSH20 0xFFFFFFFFFFFFFFFFFFFFFFFFFFFFFFFFFFFFFFFF AND PUSH20 0xFFFFFFFFFFFFFFFFFFFFFFFFFFFFFFFFFFFFFFFF AND DUP2 MSTORE PUSH1 0x20 ADD SWAP1 DUP2 MSTORE PUSH1 0x20 ADD PUSH0 KECCAK256 PUSH0 CALLER PUSH20 0xFFFFFFFFFFFFFFFFFFFFFFFFFFFFFFFFFFFFFFFF AND PUSH20 0xFFFFFFFFFFFFFFFFFFFFFFFFFFFFFFFFFFFFFFFF AND DUP2 MSTORE PUSH1 0x20 ADD SWAP1 DUP2 MSTORE PUSH1 0x20 ADD PUSH0 KECCAK256 SLOAD DUP3 GT ISZERO PUSH2 0x527 JUMPI PUSH1 0x40 MLOAD PUSH32 0x8C379A000000000000000000000000000000000000000000000000000000000 DUP2 MSTORE PUSH1 0x4 ADD PUSH2 0x51E SWAP1 PUSH2 0xEB5 JUMP JUMPDEST PUSH1 0x40 MLOAD DUP1 SWAP2 SUB SWAP1 REVERT JUMPDEST DUP2 PUSH1 0x4 PUSH0 DUP7 PUSH20 0xFFFFFFFFFFFFFFFFFFFFFFFFFFFFFFFFFFFFFFFF AND PUSH20 0xFFFFFFFFFFFFFFFFFFFFFFFFFFFFFFFFFFFFFFFF AND DUP2 MSTORE PUSH1 0x20 ADD SWAP1 DUP2 MSTORE PUSH1 0x20 ADD PUSH0 KECCAK256 SLOAD PUSH2 0x570 SWAP2 SWAP1 PUSH2 0xF00 JUMP JUMPDEST PUSH1 0x4 PUSH0 DUP7 PUSH20 0xFFFFFFFFFFFFFFFFFFFFFFFFFFFFFFFFFFFFFFFF AND PUSH20 0xFFFFFFFFFFFFFFFFFFFFFFFFFFFFFFFFFFFFFFFF AND DUP2 MSTORE PUSH1 0x20 ADD SWAP1 DUP2 MSTORE PUSH1 0x20 ADD PUSH0 KECCAK256 DUP2 SWAP1 SSTORE POP DUP2 PUSH1 0x4 PUSH0 DUP6 PUSH20 0xFFFFFFFFFFFFFFFFFFFFFFFFFFFFFFFFFFFFFFFF AND PUSH20 0xFFFFFFFFFFFFFFFFFFFFFFFFFFFFFFFFFFFFFFFF AND DUP2 MSTORE PUSH1 0x20 ADD SWAP1 DUP2 MSTORE PUSH1 0x20 ADD PUSH0 KECCAK256 SLOAD PUSH2 0x5FA SWAP2 SWAP1 PUSH2 0xF33 JUMP JUMPDEST PUSH1 0x4 PUSH0 DUP6 PUSH20 0xFFFFFFFFFFFFFFFFFFFFFFFFFFFFFFFFFFFFFFFF AND PUSH20 0xFFFFFFFFFFFFFFFFFFFFFFFFFFFFFFFFFFFFFFFF AND DUP2 MSTORE PUSH1 0x20 ADD SWAP1 DUP2 MSTORE PUSH1 0x20 ADD PUSH0 KECCAK256 DUP2 SWAP1 SSTORE POP DUP2 PUSH1 0x5 PUSH0 DUP7 PUSH20 0xFFFFFFFFFFFFFFFFFFFFFFFFFFFFFFFFFFFFFFFF AND PUSH20 0xFFFFFFFFFFFFFFFFFFFFFFFFFFFFFFFFFFFFFFFF AND DUP2 MSTORE PUSH1 0x20 ADD SWAP1 DUP2 MSTORE PUSH1 0x20 ADD PUSH0 KECCAK256 PUSH0 CALLER PUSH20 0xFFFFFFFFFFFFFFFFFFFFFFFFFFFFFFFFFFFFFFFF AND PUSH20 0xFFFFFFFFFFFFFFFFFFFFFFFFFFFFFFFFFFFFFFFF AND DUP2 MSTORE PUSH1 0x20 ADD SWAP1 DUP2 MSTORE PUSH1 0x20 ADD PUSH0 KECCAK256 SLOAD PUSH2 0x6BF SWAP2 SWAP1 PUSH2 0xF00 JUMP JUMPDEST PUSH1 0x5 PUSH0 DUP7 PUSH20 0xFFFFFFFFFFFFFFFFFFFFFFFFFFFFFFFFFFFFFFFF AND PUSH20 0xFFFFFFFFFFFFFFFFFFFFFFFFFFFFFFFFFFFFFFFF AND DUP2 MSTORE PUSH1 0x20 ADD SWAP1 DUP2 MSTORE PUSH1 0x20 ADD PUSH0 KECCAK256 PUSH0 CALLER PUSH20 0xFFFFFFFFFFFFFFFFFFFFFFFFFFFFFFFFFFFFFFFF AND PUSH20 0xFFFFFFFFFFFFFFFFFFFFFFFFFFFFFFFFFFFFFFFF AND DUP2 MSTORE PUSH1 0x20 ADD SWAP1 DUP2 MSTORE PUSH1 0x20 ADD PUSH0 KECCAK256 DUP2 SWAP1 SSTORE POP PUSH32 0xDDF252AD1BE2C89B69C2B068FC378DAA952BA7F163C4A11628F55A4DF523B3EF DUP5 DUP5 DUP5 PUSH1 0x40 MLOAD PUSH2 0x76E SWAP4 SWAP3 SWAP2 SWAP1 PUSH2 0xF75 JUMP JUMPDEST PUSH1 0x40 MLOAD DUP1 SWAP2 SUB SWAP1 LOG1 PUSH1 0x1 SWAP1 POP SWAP4 SWAP3 POP POP POP JUMP JUMPDEST PUSH1 0x4 PUSH1 0x20 MSTORE DUP1 PUSH0 MSTORE PUSH1 0x40 PUSH0 KECCAK256 PUSH0 SWAP2 POP SWAP1 POP SLOAD DUP2 JUMP JUMPDEST PUSH0 PUSH1 0x3 SLOAD SWAP1 POP SWAP1 JUMP JUMPDEST PUSH1 0x5 PUSH1 0x20 MSTORE DUP2 PUSH0 MSTORE PUSH1 0x40 PUSH0 KECCAK256 PUSH1 0x20 MSTORE DUP1 PUSH0 MSTORE PUSH1 0x40 PUSH0 KECCAK256 PUSH0 SWAP2 POP SWAP2 POP POP SLOAD DUP2 JUMP JUMPDEST PUSH0 PUSH1 0x4 PUSH0 DUP4 PUSH20 0xFFFFFFFFFFFFFFFFFFFFFFFFFFFFFFFFFFFFFFFF AND PUSH20 0xFFFFFFFFFFFFFFFFFFFFFFFFFFFFFFFFFFFFFFFF AND DUP2 MSTORE PUSH1 0x20 ADD SWAP1 DUP2 MSTORE PUSH1 0x20 ADD PUSH0 KECCAK256 SLOAD SWAP1 POP SWAP2 SWAP1 POP JUMP JUMPDEST PUSH1 0x2 PUSH0 SWAP1 SLOAD SWAP1 PUSH2 0x100 EXP SWAP1 DIV PUSH1 0xFF AND DUP2 JUMP JUMPDEST PUSH1 0x1 DUP1 SLOAD PUSH2 0x824 SWAP1 PUSH2 0xDD3 JUMP JUMPDEST DUP1 PUSH1 0x1F ADD PUSH1 0x20 DUP1 SWAP2 DIV MUL PUSH1 0x20 ADD PUSH1 0x40 MLOAD SWAP1 DUP2 ADD PUSH1 0x40 MSTORE DUP1 SWAP3 SWAP2 SWAP1 DUP2 DUP2 MSTORE PUSH1 0x20 ADD DUP3 DUP1 SLOAD PUSH2 0x850 SWAP1 PUSH2 0xDD3 JUMP JUMPDEST DUP1 ISZERO PUSH2 0x89B JUMPI DUP1 PUSH1 0x1F LT PUSH2 0x872 JUMPI PUSH2 0x100 DUP1 DUP4 SLOAD DIV MUL DUP4 MSTORE SWAP2 PUSH1 0x20 ADD SWAP2 PUSH2 0x89B JUMP JUMPDEST DUP3 ADD SWAP2 SWAP1 PUSH0 MSTORE PUSH1 0x20 PUSH0 KECCAK256 SWAP1 JUMPDEST DUP2 SLOAD DUP2 MSTORE SWAP1 PUSH1 0x1 ADD SWAP1 PUSH1 0x20 ADD DUP1 DUP4 GT PUSH2 0x87E JUMPI DUP3 SWAP1 SUB PUSH1 0x1F AND DUP3 ADD SWAP2 JUMPDEST POP POP POP POP POP DUP2 JUMP JUMPDEST PUSH0 DUP2 PUSH1 0x4 PUSH0 CALLER PUSH20 0xFFFFFFFFFFFFFFFFFFFFFFFFFFFFFFFFFFFFFFFF AND PUSH20 0xFFFFFFFFFFFFFFFFFFFFFFFFFFFFFFFFFFFFFFFF AND DUP2 MSTORE PUSH1 0x20 ADD SWAP1 DUP2 MSTORE PUSH1 0x20 ADD PUSH0 KECCAK256 SLOAD LT ISZERO PUSH2 0x924 JUMPI PUSH1 0x40 MLOAD PUSH32 0x8C379A000000000000000000000000000000000000000000000000000000000 DUP2 MSTORE PUSH1 0x4 ADD PUSH2 0x91B SWAP1 PUSH2 0xFF4 JUMP JUMPDEST PUSH1 0x40 MLOAD DUP1 SWAP2 SUB SWAP1 REVERT JUMPDEST DUP2 PUSH1 0x4 PUSH0 CALLER PUSH20 0xFFFFFFFFFFFFFFFFFFFFFFFFFFFFFFFFFFFFFFFF AND PUSH20 0xFFFFFFFFFFFFFFFFFFFFFFFFFFFFFFFFFFFFFFFF AND DUP2 MSTORE PUSH1 0x20 ADD SWAP1 DUP2 MSTORE PUSH1 0x20 ADD PUSH0 KECCAK256 SLOAD PUSH2 0x96D SWAP2 SWAP1 PUSH2 0xF00 JUMP JUMPDEST PUSH1 0x4 PUSH0 CALLER PUSH20 0xFFFFFFFFFFFFFFFFFFFFFFFFFFFFFFFFFFFFFFFF AND PUSH20 0xFFFFFFFFFFFFFFFFFFFFFFFFFFFFFFFFFFFFFFFF AND DUP2 MSTORE PUSH1 0x20 ADD SWAP1 DUP2 MSTORE PUSH1 0x20 ADD PUSH0 KECCAK256 DUP2 SWAP1 SSTORE POP DUP2 PUSH1 0x4 PUSH0 DUP6 PUSH20 0xFFFFFFFFFFFFFFFFFFFFFFFFFFFFFFFFFFFFFFFF AND PUSH20 0xFFFFFFFFFFFFFFFFFFFFFFFFFFFFFFFFFFFFFFFF AND DUP2 MSTORE PUSH1 0x20 ADD SWAP1 DUP2 MSTORE PUSH1 0x20 ADD PUSH0 KECCAK256 SLOAD PUSH2 0x9F7 SWAP2 SWAP1 PUSH2 0xF33 JUMP JUMPDEST PUSH1 0x4 PUSH0 DUP6 PUSH20 0xFFFFFFFFFFFFFFFFFFFFFFFFFFFFFFFFFFFFFFFF AND PUSH20 0xFFFFFFFFFFFFFFFFFFFFFFFFFFFFFFFFFFFFFFFF AND DUP2 MSTORE PUSH1 0x20 ADD SWAP1 DUP2 MSTORE PUSH1 0x20 ADD PUSH0 KECCAK256 DUP2 SWAP1 SSTORE POP PUSH32 0xDDF252AD1BE2C89B69C2B068FC378DAA952BA7F163C4A11628F55A4DF523B3EF CALLER DUP5 DUP5 PUSH1 0x40 MLOAD PUSH2 0xA6B SWAP4 SWAP3 SWAP2 SWAP1 PUSH2 0xF75 JUMP JUMPDEST PUSH1 0x40 MLOAD DUP1 SWAP2 SUB SWAP1 LOG1 PUSH1 0x1 SWAP1 POP SWAP3 SWAP2 POP POP JUMP JUMPDEST PUSH0 PUSH1 0x5 PUSH0 DUP5 PUSH20 0xFFFFFFFFFFFFFFFFFFFFFFFFFFFFFFFFFFFFFFFF AND PUSH20 0xFFFFFFFFFFFFFFFFFFFFFFFFFFFFFFFFFFFFFFFF AND DUP2 MSTORE PUSH1 0x20 ADD SWAP1 DUP2 MSTORE PUSH1 0x20 ADD PUSH0 KECCAK256 PUSH0 DUP4 PUSH20 0xFFFFFFFFFFFFFFFFFFFFFFFFFFFFFFFFFFFFFFFF AND PUSH20 0xFFFFFFFFFFFFFFFFFFFFFFFFFFFFFFFFFFFFFFFF AND DUP2 MSTORE PUSH1 0x20 ADD SWAP1 DUP2 MSTORE PUSH1 0x20 ADD PUSH0 KECCAK256 SLOAD SWAP1 POP SWAP3 SWAP2 POP POP JUMP JUMPDEST PUSH0 DUP2 MLOAD SWAP1 POP SWAP2 SWAP1 POP JUMP JUMPDEST PUSH0 DUP3 DUP3 MSTORE PUSH1 0x20 DUP3 ADD SWAP1 POP SWAP3 SWAP2 POP POP JUMP JUMPDEST DUP3 DUP2 DUP4 MCOPY PUSH0 DUP4 DUP4 ADD MSTORE POP POP POP JUMP JUMPDEST PUSH0 PUSH1 0x1F NOT PUSH1 0x1F DUP4 ADD AND SWAP1 POP SWAP2 SWAP1 POP JUMP JUMPDEST PUSH0 PUSH2 0xB41 DUP3 PUSH2 0xAFF JUMP JUMPDEST PUSH2 0xB4B DUP2 DUP6 PUSH2 0xB09 JUMP JUMPDEST SWAP4 POP PUSH2 0xB5B DUP2 DUP6 PUSH1 0x20 DUP7 ADD PUSH2 0xB19 JUMP JUMPDEST PUSH2 0xB64 DUP2 PUSH2 0xB27 JUMP JUMPDEST DUP5 ADD SWAP2 POP POP SWAP3 SWAP2 POP POP JUMP JUMPDEST PUSH0 PUSH1 0x20 DUP3 ADD SWAP1 POP DUP2 DUP2 SUB PUSH0 DUP4 ADD MSTORE PUSH2 0xB87 DUP2 DUP5 PUSH2 0xB37 JUMP JUMPDEST SWAP1 POP SWAP3 SWAP2 POP POP JUMP JUMPDEST PUSH0 PUSH0 REVERT JUMPDEST PUSH0 PUSH20 0xFFFFFFFFFFFFFFFFFFFFFFFFFFFFFFFFFFFFFFFF DUP3 AND SWAP1 POP SWAP2 SWAP1 POP JUMP JUMPDEST PUSH0 PUSH2 0xBBC DUP3 PUSH2 0xB93 JUMP JUMPDEST SWAP1 POP SWAP2 SWAP1 POP JUMP JUMPDEST PUSH2 0xBCC DUP2 PUSH2 0xBB2 JUMP JUMPDEST DUP2 EQ PUSH2 0xBD6 JUMPI PUSH0 PUSH0 REVERT JUMPDEST POP JUMP JUMPDEST PUSH0 DUP2 CALLDATALOAD SWAP1 POP PUSH2 0xBE7 DUP2 PUSH2 0xBC3 JUMP JUMPDEST SWAP3 SWAP2 POP POP JUMP JUMPDEST PUSH0 DUP2 SWAP1 POP SWAP2 SWAP1 POP JUMP JUMPDEST PUSH2 0xBFF DUP2 PUSH2 0xBED JUMP JUMPDEST DUP2 EQ PUSH2 0xC09 JUMPI PUSH0 PUSH0 REVERT JUMPDEST POP JUMP JUMPDEST PUSH0 DUP2 CALLDATALOAD SWAP1 POP PUSH2 0xC1A DUP2 PUSH2 0xBF6 JUMP JUMPDEST SWAP3 SWAP2 POP POP JUMP JUMPDEST PUSH0 PUSH0 PUSH1 0x40 DUP4 DUP6 SUB SLT ISZERO PUSH2 0xC36 JUMPI PUSH2 0xC35 PUSH2 0xB8F JUMP JUMPDEST JUMPDEST PUSH0 PUSH2 0xC43 DUP6 DUP3 DUP7 ADD PUSH2 0xBD9 JUMP JUMPDEST SWAP3 POP POP PUSH1 0x20 PUSH2 0xC54 DUP6 DUP3 DUP7 ADD PUSH2 0xC0C JUMP JUMPDEST SWAP2 POP POP SWAP3 POP SWAP3 SWAP1 POP JUMP JUMPDEST PUSH0 DUP2 ISZERO ISZERO SWAP1 POP SWAP2 SWAP1 POP JUMP JUMPDEST PUSH2 0xC72 DUP2 PUSH2 0xC5E JUMP JUMPDEST DUP3 MSTORE POP POP JUMP JUMPDEST PUSH0 PUSH1 0x20 DUP3 ADD SWAP1 POP PUSH2 0xC8B PUSH0 DUP4 ADD DUP5 PUSH2 0xC69 JUMP JUMPDEST SWAP3 SWAP2 POP POP JUMP JUMPDEST PUSH0 PUSH0 PUSH0 PUSH1 0x60 DUP5 DUP7 SUB SLT ISZERO PUSH2 0xCA8 JUMPI PUSH2 0xCA7 PUSH2 0xB8F JUMP JUMPDEST JUMPDEST PUSH0 PUSH2 0xCB5 DUP7 DUP3 DUP8 ADD PUSH2 0xBD9 JUMP JUMPDEST SWAP4 POP POP PUSH1 0x20 PUSH2 0xCC6 DUP7 DUP3 DUP8 ADD PUSH2 0xBD9 JUMP JUMPDEST SWAP3 POP POP PUSH1 0x40 PUSH2 0xCD7 DUP7 DUP3 DUP8 ADD PUSH2 0xC0C JUMP JUMPDEST SWAP2 POP POP SWAP3 POP SWAP3 POP SWAP3 JUMP JUMPDEST PUSH0 PUSH1 0x20 DUP3 DUP5 SUB SLT ISZERO PUSH2 0xCF6 JUMPI PUSH2 0xCF5 PUSH2 0xB8F JUMP JUMPDEST JUMPDEST PUSH0 PUSH2 0xD03 DUP5 DUP3 DUP6 ADD PUSH2 0xBD9 JUMP JUMPDEST SWAP2 POP POP SWAP3 SWAP2 POP POP JUMP JUMPDEST PUSH2 0xD15 DUP2 PUSH2 0xBED JUMP JUMPDEST DUP3 MSTORE POP POP JUMP JUMPDEST PUSH0 PUSH1 0x20 DUP3 ADD SWAP1 POP PUSH2 0xD2E PUSH0 DUP4 ADD DUP5 PUSH2 0xD0C JUMP JUMPDEST SWAP3 SWAP2 POP POP JUMP JUMPDEST PUSH0 PUSH0 PUSH1 0x40 DUP4 DUP6 SUB SLT ISZERO PUSH2 0xD4A JUMPI PUSH2 0xD49 PUSH2 0xB8F JUMP JUMPDEST JUMPDEST PUSH0 PUSH2 0xD57 DUP6 DUP3 DUP7 ADD PUSH2 0xBD9 JUMP JUMPDEST SWAP3 POP POP PUSH1 0x20 PUSH2 0xD68 DUP6 DUP3 DUP7 ADD PUSH2 0xBD9 JUMP JUMPDEST SWAP2 POP POP SWAP3 POP SWAP3 SWAP1 POP JUMP JUMPDEST PUSH0 PUSH1 0xFF DUP3 AND SWAP1 POP SWAP2 SWAP1 POP JUMP JUMPDEST PUSH2 0xD87 DUP2 PUSH2 0xD72 JUMP JUMPDEST DUP3 MSTORE POP POP JUMP JUMPDEST PUSH0 PUSH1 0x20 DUP3 ADD SWAP1 POP PUSH2 0xDA0 PUSH0 DUP4 ADD DUP5 PUSH2 0xD7E JUMP JUMPDEST SWAP3 SWAP2 POP POP JUMP JUMPDEST PUSH32 0x4E487B7100000000000000000000000000000000000000000000000000000000 PUSH0 MSTORE PUSH1 0x22 PUSH1 0x4 MSTORE PUSH1 0x24 PUSH0 REVERT JUMPDEST PUSH0 PUSH1 0x2 DUP3 DIV SWAP1 POP PUSH1 0x1 DUP3 AND DUP1 PUSH2 0xDEA JUMPI PUSH1 0x7F DUP3 AND SWAP2 POP JUMPDEST PUSH1 0x20 DUP3 LT DUP2 SUB PUSH2 0xDFD JUMPI PUSH2 0xDFC PUSH2 0xDA6 JUMP JUMPDEST JUMPDEST POP SWAP2 SWAP1 POP JUMP JUMPDEST PUSH32 0x496E73756666696369656E742062616C616E6365000000000000000000000000 PUSH0 DUP3 ADD MSTORE POP JUMP JUMPDEST PUSH0 PUSH2 0xE37 PUSH1 0x14 DUP4 PUSH2 0xB09 JUMP JUMPDEST SWAP2 POP PUSH2 0xE42 DUP3 PUSH2 0xE03 JUMP JUMPDEST PUSH1 0x20 DUP3 ADD SWAP1 POP SWAP2 SWAP1 POP JUMP JUMPDEST PUSH0 PUSH1 0x20 DUP3 ADD SWAP1 POP DUP2 DUP2 SUB PUSH0 DUP4 ADD MSTORE PUSH2 0xE64 DUP2 PUSH2 0xE2B JUMP JUMPDEST SWAP1 POP SWAP2 SWAP1 POP JUMP JUMPDEST PUSH32 0x546F6B656E73206E6F7420616C6C6F7765640000000000000000000000000000 PUSH0 DUP3 ADD MSTORE POP JUMP JUMPDEST PUSH0 PUSH2 0xE9F PUSH1 0x12 DUP4 PUSH2 0xB09 JUMP JUMPDEST SWAP2 POP PUSH2 0xEAA DUP3 PUSH2 0xE6B JUMP JUMPDEST PUSH1 0x20 DUP3 ADD SWAP1 POP SWAP2 SWAP1 POP JUMP JUMPDEST PUSH0 PUSH1 0x20 DUP3 ADD SWAP1 POP DUP2 DUP2 SUB PUSH0 DUP4 ADD MSTORE PUSH2 0xECC DUP2 PUSH2 0xE93 JUMP JUMPDEST SWAP1 POP SWAP2 SWAP1 POP JUMP JUMPDEST PUSH32 0x4E487B7100000000000000000000000000000000000000000000000000000000 PUSH0 MSTORE PUSH1 0x11 PUSH1 0x4 MSTORE PUSH1 0x24 PUSH0 REVERT JUMPDEST PUSH0 PUSH2 0xF0A DUP3 PUSH2 0xBED JUMP JUMPDEST SWAP2 POP PUSH2 0xF15 DUP4 PUSH2 0xBED JUMP JUMPDEST SWAP3 POP DUP3 DUP3 SUB SWAP1 POP DUP2 DUP2 GT ISZERO PUSH2 0xF2D JUMPI PUSH2 0xF2C PUSH2 0xED3 JUMP JUMPDEST JUMPDEST SWAP3 SWAP2 POP POP JUMP JUMPDEST PUSH0 PUSH2 0xF3D DUP3 PUSH2 0xBED JUMP JUMPDEST SWAP2 POP PUSH2 0xF48 DUP4 PUSH2 0xBED JUMP JUMPDEST SWAP3 POP DUP3 DUP3 ADD SWAP1 POP DUP1 DUP3 GT ISZERO PUSH2 0xF60 JUMPI PUSH2 0xF5F PUSH2 0xED3 JUMP JUMPDEST JUMPDEST SWAP3 SWAP2 POP POP JUMP JUMPDEST PUSH2 0xF6F DUP2 PUSH2 0xBB2 JUMP JUMPDEST DUP3 MSTORE POP POP JUMP JUMPDEST PUSH0 PUSH1 0x60 DUP3 ADD SWAP1 POP PUSH2 0xF88 PUSH0 DUP4 ADD DUP7 PUSH2 0xF66 JUMP JUMPDEST PUSH2 0xF95 PUSH1 0x20 DUP4 ADD DUP6 PUSH2 0xF66 JUMP JUMPDEST PUSH2 0xFA2 PUSH1 0x40 DUP4 ADD DUP5 PUSH2 0xD0C JUMP JUMPDEST SWAP5 SWAP4 POP POP POP POP JUMP JUMPDEST PUSH32 0x696E73756666696369656E742062616C616E6365000000000000000000000000 PUSH0 DUP3 ADD MSTORE POP JUMP JUMPDEST PUSH0 PUSH2 0xFDE PUSH1 0x14 DUP4 PUSH2 0xB09 JUMP JUMPDEST SWAP2 POP PUSH2 0xFE9 DUP3 PUSH2 0xFAA JUMP JUMPDEST PUSH1 0x20 DUP3 ADD SWAP1 POP SWAP2 SWAP1 POP JUMP JUMPDEST PUSH0 PUSH1 0x20 DUP3 ADD SWAP1 POP DUP2 DUP2 SUB PUSH0 DUP4 ADD MSTORE PUSH2 0x100B DUP2 PUSH2 0xFD2 JUMP JUMPDEST SWAP1 POP SWAP2 SWAP1 POP JUMP INVALID LOG2 PUSH5 0x6970667358 0x22 SLT KECCAK256 0xC5 PUSH16 0x884F677EF03327B4EAEF1704BBFD1B3 0xEF PUSH22 0xB9FD193B1AD67596EAE59C8D64736F6C634300081E00 CALLER "
				},
				"gasEstimates": {
					"creation": {
						"codeDepositCost": "833600",
						"executionCost": "infinite",
						"totalCost": "infinite"
					},
					"external": {
						"_totalSupply()": "2521",
						"allowance(address,address)": "infinite",
						"allowed(address,address)": "infinite",
						"approve(address,uint256)": "infinite",
						"balanceOf(address)": "2851",
						"balances(address)": "2869",
						"decimal()": "2510",
						"name()": "infinite",
						"symbol()": "infinite",
						"transfer(address,uint256)": "infinite",
						"transferFrom(address,address,uint256)": "infinite"
					}
				},
				"methodIdentifiers": {
					"_totalSupply()": "3eaaf86b",
					"allowance(address,address)": "dd62ed3e",
					"allowed(address,address)": "5c658165",
					"approve(address,uint256)": "095ea7b3",
					"balanceOf(address)": "70a08231",
					"balances(address)": "27e235e3",
					"decimal()": "76809ce3",
					"name()": "06fdde03",
					"symbol()": "95d89b41",
					"transfer(address,uint256)": "a9059cbb",
					"transferFrom(address,address,uint256)": "23b872dd"
				}
			},
			"storageLayout": {
				"storage": [
					{
						"astId": 3,
						"contract": "ERC-20Tokens.sol:ERC20Token",
						"label": "name",
						"offset": 0,
						"slot": "0",
						"type": "t_string_storage"
					},
					{
						"astId": 5,
						"contract": "ERC-20Tokens.sol:ERC20Token",
						"label": "symbol",
						"offset": 0,
						"slot": "1",
						"type": "t_string_storage"
					},
					{
						"astId": 7,
						"contract": "ERC-20Tokens.sol:ERC20Token",
						"label": "decimal",
						"offset": 0,
						"slot": "2",
						"type": "t_uint8"
					},
					{
						"astId": 9,
						"contract": "ERC-20Tokens.sol:ERC20Token",
						"label": "totalSupply",
						"offset": 0,
						"slot": "3",
						"type": "t_uint256"
					},
					{
						"astId": 13,
						"contract": "ERC-20Tokens.sol:ERC20Token",
						"label": "balances",
						"offset": 0,
						"slot": "4",
						"type": "t_mapping(t_address,t_uint256)"
					},
					{
						"astId": 19,
						"contract": "ERC-20Tokens.sol:ERC20Token",
						"label": "allowed",
						"offset": 0,
						"slot": "5",
						"type": "t_mapping(t_address,t_mapping(t_address,t_uint256))"
					}
				],
				"types": {
					"t_address": {
						"encoding": "inplace",
						"label": "address",
						"numberOfBytes": "20"
					},
					"t_mapping(t_address,t_mapping(t_address,t_uint256))": {
						"encoding": "mapping",
						"key": "t_address",
						"label": "mapping(address => mapping(address => uint256))",
						"numberOfBytes": "32",
						"value": "t_mapping(t_address,t_uint256)"
					},
					"t_mapping(t_address,t_uint256)": {
						"encoding": "mapping",
						"key": "t_address",
						"label": "mapping(address => uint256)",
						"numberOfBytes": "32",
						"value": "t_uint256"
					},
					"t_string_storage": {
						"encoding": "bytes",
						"label": "string",
						"numberOfBytes": "32"
					},
					"t_uint256": {
						"encoding": "inplace",
						"label": "uint256",
						"numberOfBytes": "32"
					},
					"t_uint8": {
						"encoding": "inplace",
						"label": "uint8",
						"numberOfBytes": "1"
					}
				}
			},
			"userdoc": {
				"kind": "user",
				"methods": {},
				"version": 1
			}
		}
	}
}