{
	"CrowdFundingProject.sol": {
		"crowdFunding": {
			"abi": [
				{
					"inputs": [
						{
							"internalType": "uint256",
							"name": "_target",
							"type": "uint256"
						},
						{
							"internalType": "uint256",
							"name": "_deadline",
							"type": "uint256"
						},
						{
							"internalType": "uint256",
							"name": "_minContribution",
							"type": "uint256"
						}
					],
					"stateMutability": "nonpayable",
					"type": "constructor"
				},
				{
					"anonymous": false,
					"inputs": [
						{
							"indexed": false,
							"internalType": "uint256",
							"name": "amount",
							"type": "uint256"
						}
					],
					"name": "FundRased",
					"type": "event"
				},
				{
					"inputs": [
						{
							"internalType": "address",
							"name": "",
							"type": "address"
						}
					],
					"name": "contributors",
					"outputs": [
						{
							"internalType": "uint256",
							"name": "",
							"type": "uint256"
						}
					],
					"stateMutability": "view",
					"type": "function"
				},
				{
					"inputs": [
						{
							"internalType": "string",
							"name": "_description",
							"type": "string"
						},
						{
							"internalType": "uint256",
							"name": "_value",
							"type": "uint256"
						},
						{
							"internalType": "address payable",
							"name": "_recipient",
							"type": "address"
						}
					],
					"name": "createRequest",
					"outputs": [],
					"stateMutability": "nonpayable",
					"type": "function"
				},
				{
					"inputs": [],
					"name": "deadline",
					"outputs": [
						{
							"internalType": "uint256",
							"name": "",
							"type": "uint256"
						}
					],
					"stateMutability": "view",
					"type": "function"
				},
				{
					"inputs": [],
					"name": "getBalance",
					"outputs": [
						{
							"internalType": "uint256",
							"name": "",
							"type": "uint256"
						}
					],
					"stateMutability": "view",
					"type": "function"
				},
				{
					"inputs": [
						{
							"internalType": "uint256",
							"name": "_numRequest",
							"type": "uint256"
						}
					],
					"name": "makePayment",
					"outputs": [],
					"stateMutability": "nonpayable",
					"type": "function"
				},
				{
					"inputs": [],
					"name": "minContribution",
					"outputs": [
						{
							"internalType": "uint256",
							"name": "",
							"type": "uint256"
						}
					],
					"stateMutability": "view",
					"type": "function"
				},
				{
					"inputs": [],
					"name": "organizer",
					"outputs": [
						{
							"internalType": "address",
							"name": "",
							"type": "address"
						}
					],
					"stateMutability": "view",
					"type": "function"
				},
				{
					"inputs": [],
					"name": "raiseAmount",
					"outputs": [
						{
							"internalType": "uint256",
							"name": "",
							"type": "uint256"
						}
					],
					"stateMutability": "view",
					"type": "function"
				},
				{
					"inputs": [],
					"name": "refund",
					"outputs": [],
					"stateMutability": "nonpayable",
					"type": "function"
				},
				{
					"inputs": [],
					"name": "requestCount",
					"outputs": [
						{
							"internalType": "uint256",
							"name": "",
							"type": "uint256"
						}
					],
					"stateMutability": "view",
					"type": "function"
				},
				{
					"inputs": [
						{
							"internalType": "uint256",
							"name": "",
							"type": "uint256"
						}
					],
					"name": "requests",
					"outputs": [
						{
							"internalType": "bool",
							"name": "isComplete",
							"type": "bool"
						},
						{
							"internalType": "string",
							"name": "description",
							"type": "string"
						},
						{
							"internalType": "uint256",
							"name": "value",
							"type": "uint256"
						},
						{
							"internalType": "address payable",
							"name": "recipient",
							"type": "address"
						},
						{
							"internalType": "uint256",
							"name": "noOfVoter",
							"type": "uint256"
						}
					],
					"stateMutability": "view",
					"type": "function"
				},
				{
					"inputs": [],
					"name": "sendEth",
					"outputs": [],
					"stateMutability": "payable",
					"type": "function"
				},
				{
					"inputs": [],
					"name": "target",
					"outputs": [
						{
							"internalType": "uint256",
							"name": "",
							"type": "uint256"
						}
					],
					"stateMutability": "view",
					"type": "function"
				},
				{
					"inputs": [],
					"name": "totalContributors",
					"outputs": [
						{
							"internalType": "uint256",
							"name": "",
							"type": "uint256"
						}
					],
					"stateMutability": "view",
					"type": "function"
				},
				{
					"inputs": [
						{
							"internalType": "uint256",
							"name": "_noRequest",
							"type": "uint256"
						}
					],
					"name": "voteRequest",
					"outputs": [],
					"stateMutability": "nonpayable",
					"type": "function"
				}
			],
			"devdoc": {
				"kind": "dev",
				"methods": {},
				"version": 1
			},
			"evm": {
				"assembly": "    /* \"CrowdFundingProject.sol\":59:2822  contract crowdFunding{... */\n  mstore(0x40, 0x80)\n    /* \"CrowdFundingProject.sol\":388:595  constructor(uint256 _target, uint256 _deadline, uint256 _minContribution){... */\n  callvalue\n  dup1\n  iszero\n  tag_1\n  jumpi\n  revert(0x00, 0x00)\ntag_1:\n  pop\n  mload(0x40)\n  sub(codesize, bytecodeSize)\n  dup1\n  bytecodeSize\n  dup4\n  codecopy\n  dup2\n  dup2\n  add\n  0x40\n  mstore\n  dup2\n  add\n  swap1\n  tag_2\n  swap2\n  swap1\n  tag_3\n  jump\t// in\ntag_2:\n    /* \"CrowdFundingProject.sol\":477:487  msg.sender */\n  caller\n    /* \"CrowdFundingProject.sol\":467:476  organizer */\n  0x00\n  0x00\n    /* \"CrowdFundingProject.sol\":467:487  organizer=msg.sender */\n  0x0100\n  exp\n  dup2\n  sload\n  dup2\n  0xffffffffffffffffffffffffffffffffffffffff\n  mul\n  not\n  and\n  swap1\n  dup4\n  0xffffffffffffffffffffffffffffffffffffffff\n  and\n  mul\n  or\n  swap1\n  sstore\n  pop\n    /* \"CrowdFundingProject.sol\":501:508  _target */\n  dup3\n    /* \"CrowdFundingProject.sol\":493:499  target */\n  0x01\n    /* \"CrowdFundingProject.sol\":493:508  target= _target */\n  dup2\n  swap1\n  sstore\n  pop\n    /* \"CrowdFundingProject.sol\":541:550  _deadline */\n  dup2\n    /* \"CrowdFundingProject.sol\":523:538  block.timestamp */\n  timestamp\n    /* \"CrowdFundingProject.sol\":523:550  block.timestamp + _deadline */\n  tag_6\n  swap2\n  swap1\n  tag_7\n  jump\t// in\ntag_6:\n    /* \"CrowdFundingProject.sol\":514:522  deadline */\n  0x02\n    /* \"CrowdFundingProject.sol\":514:550  deadline=block.timestamp + _deadline */\n  dup2\n  swap1\n  sstore\n  pop\n    /* \"CrowdFundingProject.sol\":573:589  _minContribution */\n  dup1\n    /* \"CrowdFundingProject.sol\":556:571  minContribution */\n  0x03\n    /* \"CrowdFundingProject.sol\":556:589  minContribution= _minContribution */\n  dup2\n  swap1\n  sstore\n  pop\n    /* \"CrowdFundingProject.sol\":388:595  constructor(uint256 _target, uint256 _deadline, uint256 _minContribution){... */\n  pop\n  pop\n  pop\n    /* \"CrowdFundingProject.sol\":59:2822  contract crowdFunding{... */\n  jump(tag_8)\n    /* \"#utility.yul\":88:205   */\ntag_10:\n    /* \"#utility.yul\":197:198   */\n  0x00\n    /* \"#utility.yul\":194:195   */\n  0x00\n    /* \"#utility.yul\":187:199   */\n  revert\n    /* \"#utility.yul\":334:411   */\ntag_12:\n    /* \"#utility.yul\":371:378   */\n  0x00\n    /* \"#utility.yul\":400:405   */\n  dup2\n    /* \"#utility.yul\":389:405   */\n  swap1\n  pop\n    /* \"#utility.yul\":334:411   */\n  swap2\n  swap1\n  pop\n  jump\t// out\n    /* \"#utility.yul\":417:539   */\ntag_13:\n    /* \"#utility.yul\":490:514   */\n  tag_22\n    /* \"#utility.yul\":508:513   */\n  dup2\n    /* \"#utility.yul\":490:514   */\n  tag_12\n  jump\t// in\ntag_22:\n    /* \"#utility.yul\":483:488   */\n  dup2\n    /* \"#utility.yul\":480:515   */\n  eq\n    /* \"#utility.yul\":470:533   */\n  tag_23\n  jumpi\n    /* \"#utility.yul\":529:530   */\n  0x00\n    /* \"#utility.yul\":526:527   */\n  0x00\n    /* \"#utility.yul\":519:531   */\n  revert\n    /* \"#utility.yul\":470:533   */\ntag_23:\n    /* \"#utility.yul\":417:539   */\n  pop\n  jump\t// out\n    /* \"#utility.yul\":545:688   */\ntag_14:\n    /* \"#utility.yul\":602:607   */\n  0x00\n    /* \"#utility.yul\":633:639   */\n  dup2\n    /* \"#utility.yul\":627:640   */\n  mload\n    /* \"#utility.yul\":618:640   */\n  swap1\n  pop\n    /* \"#utility.yul\":649:682   */\n  tag_25\n    /* \"#utility.yul\":676:681   */\n  dup2\n    /* \"#utility.yul\":649:682   */\n  tag_13\n  jump\t// in\ntag_25:\n    /* \"#utility.yul\":545:688   */\n  swap3\n  swap2\n  pop\n  pop\n  jump\t// out\n    /* \"#utility.yul\":694:1357   */\ntag_3:\n    /* \"#utility.yul\":782:788   */\n  0x00\n    /* \"#utility.yul\":790:796   */\n  0x00\n    /* \"#utility.yul\":798:804   */\n  0x00\n    /* \"#utility.yul\":847:849   */\n  0x60\n    /* \"#utility.yul\":835:844   */\n  dup5\n    /* \"#utility.yul\":826:833   */\n  dup7\n    /* \"#utility.yul\":822:845   */\n  sub\n    /* \"#utility.yul\":818:850   */\n  slt\n    /* \"#utility.yul\":815:934   */\n  iszero\n  tag_27\n  jumpi\n    /* \"#utility.yul\":853:932   */\n  tag_28\n  tag_10\n  jump\t// in\ntag_28:\n    /* \"#utility.yul\":815:934   */\ntag_27:\n    /* \"#utility.yul\":973:974   */\n  0x00\n    /* \"#utility.yul\":998:1062   */\n  tag_29\n    /* \"#utility.yul\":1054:1061   */\n  dup7\n    /* \"#utility.yul\":1045:1051   */\n  dup3\n    /* \"#utility.yul\":1034:1043   */\n  dup8\n    /* \"#utility.yul\":1030:1052   */\n  add\n    /* \"#utility.yul\":998:1062   */\n  tag_14\n  jump\t// in\ntag_29:\n    /* \"#utility.yul\":988:1062   */\n  swap4\n  pop\n    /* \"#utility.yul\":944:1072   */\n  pop\n    /* \"#utility.yul\":1111:1113   */\n  0x20\n    /* \"#utility.yul\":1137:1201   */\n  tag_30\n    /* \"#utility.yul\":1193:1200   */\n  dup7\n    /* \"#utility.yul\":1184:1190   */\n  dup3\n    /* \"#utility.yul\":1173:1182   */\n  dup8\n    /* \"#utility.yul\":1169:1191   */\n  add\n    /* \"#utility.yul\":1137:1201   */\n  tag_14\n  jump\t// in\ntag_30:\n    /* \"#utility.yul\":1127:1201   */\n  swap3\n  pop\n    /* \"#utility.yul\":1082:1211   */\n  pop\n    /* \"#utility.yul\":1250:1252   */\n  0x40\n    /* \"#utility.yul\":1276:1340   */\n  tag_31\n    /* \"#utility.yul\":1332:1339   */\n  dup7\n    /* \"#utility.yul\":1323:1329   */\n  dup3\n    /* \"#utility.yul\":1312:1321   */\n  dup8\n    /* \"#utility.yul\":1308:1330   */\n  add\n    /* \"#utility.yul\":1276:1340   */\n  tag_14\n  jump\t// in\ntag_31:\n    /* \"#utility.yul\":1266:1340   */\n  swap2\n  pop\n    /* \"#utility.yul\":1221:1350   */\n  pop\n    /* \"#utility.yul\":694:1357   */\n  swap3\n  pop\n  swap3\n  pop\n  swap3\n  jump\t// out\n    /* \"#utility.yul\":1363:1543   */\ntag_15:\n    /* \"#utility.yul\":1411:1488   */\n  0x4e487b7100000000000000000000000000000000000000000000000000000000\n    /* \"#utility.yul\":1408:1409   */\n  0x00\n    /* \"#utility.yul\":1401:1489   */\n  mstore\n    /* \"#utility.yul\":1508:1512   */\n  0x11\n    /* \"#utility.yul\":1505:1506   */\n  0x04\n    /* \"#utility.yul\":1498:1513   */\n  mstore\n    /* \"#utility.yul\":1532:1536   */\n  0x24\n    /* \"#utility.yul\":1529:1530   */\n  0x00\n    /* \"#utility.yul\":1522:1537   */\n  revert\n    /* \"#utility.yul\":1549:1740   */\ntag_7:\n    /* \"#utility.yul\":1589:1592   */\n  0x00\n    /* \"#utility.yul\":1608:1628   */\n  tag_34\n    /* \"#utility.yul\":1626:1627   */\n  dup3\n    /* \"#utility.yul\":1608:1628   */\n  tag_12\n  jump\t// in\ntag_34:\n    /* \"#utility.yul\":1603:1628   */\n  swap2\n  pop\n    /* \"#utility.yul\":1642:1662   */\n  tag_35\n    /* \"#utility.yul\":1660:1661   */\n  dup4\n    /* \"#utility.yul\":1642:1662   */\n  tag_12\n  jump\t// in\ntag_35:\n    /* \"#utility.yul\":1637:1662   */\n  swap3\n  pop\n    /* \"#utility.yul\":1685:1686   */\n  dup3\n    /* \"#utility.yul\":1682:1683   */\n  dup3\n    /* \"#utility.yul\":1678:1687   */\n  add\n    /* \"#utility.yul\":1671:1687   */\n  swap1\n  pop\n    /* \"#utility.yul\":1706:1709   */\n  dup1\n    /* \"#utility.yul\":1703:1704   */\n  dup3\n    /* \"#utility.yul\":1700:1710   */\n  gt\n    /* \"#utility.yul\":1697:1733   */\n  iszero\n  tag_36\n  jumpi\n    /* \"#utility.yul\":1713:1731   */\n  tag_37\n  tag_15\n  jump\t// in\ntag_37:\n    /* \"#utility.yul\":1697:1733   */\ntag_36:\n    /* \"#utility.yul\":1549:1740   */\n  swap3\n  swap2\n  pop\n  pop\n  jump\t// out\n    /* \"CrowdFundingProject.sol\":59:2822  contract crowdFunding{... */\ntag_8:\n  dataSize(sub_0)\n  dup1\n  dataOffset(sub_0)\n  0x00\n  codecopy\n  0x00\n  return\nstop\n\nsub_0: assembly {\n        /* \"CrowdFundingProject.sol\":59:2822  contract crowdFunding{... */\n      mstore(0x40, 0x80)\n      jumpi(tag_1, lt(calldatasize, 0x04))\n      shr(0xe0, calldataload(0x00))\n      dup1\n      0x5badbe4c\n      gt\n      tag_17\n      jumpi\n      dup1\n      0xaaffadf3\n      gt\n      tag_18\n      jumpi\n      dup1\n      0xaaffadf3\n      eq\n      tag_13\n      jumpi\n      dup1\n      0xd4b83992\n      eq\n      tag_14\n      jumpi\n      dup1\n      0xdb638f0b\n      eq\n      tag_15\n      jumpi\n      dup1\n      0xf251fc8c\n      eq\n      tag_16\n      jumpi\n      jump(tag_1)\n    tag_18:\n      dup1\n      0x5badbe4c\n      eq\n      tag_9\n      jumpi\n      dup1\n      0x61203265\n      eq\n      tag_10\n      jumpi\n      dup1\n      0x81d12c58\n      eq\n      tag_11\n      jumpi\n      dup1\n      0x8a9cfd55\n      eq\n      tag_12\n      jumpi\n      jump(tag_1)\n    tag_17:\n      dup1\n      0x29dcb0cf\n      gt\n      tag_19\n      jumpi\n      dup1\n      0x29dcb0cf\n      eq\n      tag_5\n      jumpi\n      dup1\n      0x4cb6f4a5\n      eq\n      tag_6\n      jumpi\n      dup1\n      0x5114cb52\n      eq\n      tag_7\n      jumpi\n      dup1\n      0x590e1ae3\n      eq\n      tag_8\n      jumpi\n      jump(tag_1)\n    tag_19:\n      dup1\n      0x06e99fef\n      eq\n      tag_2\n      jumpi\n      dup1\n      0x12065fe0\n      eq\n      tag_3\n      jumpi\n      dup1\n      0x1f6d4942\n      eq\n      tag_4\n      jumpi\n    tag_1:\n      revert(0x00, 0x00)\n        /* \"CrowdFundingProject.sol\":862:1169  function sendEth() public payable {... */\n    tag_2:\n      tag_20\n      tag_21\n      jump\t// in\n    tag_20:\n      stop\n        /* \"CrowdFundingProject.sol\":1173:1264  function getBalance() public view returns(uint256){... */\n    tag_3:\n      callvalue\n      dup1\n      iszero\n      tag_22\n      jumpi\n      revert(0x00, 0x00)\n    tag_22:\n      pop\n      tag_23\n      tag_24\n      jump\t// in\n    tag_23:\n      mload(0x40)\n      tag_25\n      swap2\n      swap1\n      tag_26\n      jump\t// in\n    tag_25:\n      mload(0x40)\n      dup1\n      swap2\n      sub\n      swap1\n      return\n        /* \"CrowdFundingProject.sol\":301:347  mapping(address =>uint256) public contributors */\n    tag_4:\n      callvalue\n      dup1\n      iszero\n      tag_27\n      jumpi\n      revert(0x00, 0x00)\n    tag_27:\n      pop\n      tag_28\n      0x04\n      dup1\n      calldatasize\n      sub\n      dup2\n      add\n      swap1\n      tag_29\n      swap2\n      swap1\n      tag_30\n      jump\t// in\n    tag_29:\n      tag_31\n      jump\t// in\n    tag_28:\n      mload(0x40)\n      tag_32\n      swap2\n      swap1\n      tag_26\n      jump\t// in\n    tag_32:\n      mload(0x40)\n      dup1\n      swap2\n      sub\n      swap1\n      return\n        /* \"CrowdFundingProject.sol\":146:169  uint256 public deadline */\n    tag_5:\n      callvalue\n      dup1\n      iszero\n      tag_33\n      jumpi\n      revert(0x00, 0x00)\n    tag_33:\n      pop\n      tag_34\n      tag_35\n      jump\t// in\n    tag_34:\n      mload(0x40)\n      tag_36\n      swap2\n      swap1\n      tag_26\n      jump\t// in\n    tag_36:\n      mload(0x40)\n      dup1\n      swap2\n      sub\n      swap1\n      return\n        /* \"CrowdFundingProject.sol\":2080:2395  function voteRequest(uint _noRequest) public{... */\n    tag_6:\n      callvalue\n      dup1\n      iszero\n      tag_37\n      jumpi\n      revert(0x00, 0x00)\n    tag_37:\n      pop\n      tag_38\n      0x04\n      dup1\n      calldatasize\n      sub\n      dup2\n      add\n      swap1\n      tag_39\n      swap2\n      swap1\n      tag_40\n      jump\t// in\n    tag_39:\n      tag_41\n      jump\t// in\n    tag_38:\n      stop\n        /* \"CrowdFundingProject.sol\":2399:2819  function makePayment(uint256 _numRequest) public onlyOrganizer{... */\n    tag_7:\n      callvalue\n      dup1\n      iszero\n      tag_42\n      jumpi\n      revert(0x00, 0x00)\n    tag_42:\n      pop\n      tag_43\n      0x04\n      dup1\n      calldatasize\n      sub\n      dup2\n      add\n      swap1\n      tag_44\n      swap2\n      swap1\n      tag_40\n      jump\t// in\n    tag_44:\n      tag_45\n      jump\t// in\n    tag_43:\n      stop\n        /* \"CrowdFundingProject.sol\":1268:1581  function refund() public {... */\n    tag_8:\n      callvalue\n      dup1\n      iszero\n      tag_46\n      jumpi\n      revert(0x00, 0x00)\n    tag_46:\n      pop\n      tag_47\n      tag_48\n      jump\t// in\n    tag_47:\n      stop\n        /* \"CrowdFundingProject.sol\":830:857  uint256 public requestCount */\n    tag_9:\n      callvalue\n      dup1\n      iszero\n      tag_49\n      jumpi\n      revert(0x00, 0x00)\n    tag_49:\n      pop\n      tag_50\n      tag_51\n      jump\t// in\n    tag_50:\n      mload(0x40)\n      tag_52\n      swap2\n      swap1\n      tag_26\n      jump\t// in\n    tag_52:\n      mload(0x40)\n      dup1\n      swap2\n      sub\n      swap1\n      return\n        /* \"CrowdFundingProject.sol\":87:111  address public organizer */\n    tag_10:\n      callvalue\n      dup1\n      iszero\n      tag_53\n      jumpi\n      revert(0x00, 0x00)\n    tag_53:\n      pop\n      tag_54\n      tag_55\n      jump\t// in\n    tag_54:\n      mload(0x40)\n      tag_56\n      swap2\n      swap1\n      tag_57\n      jump\t// in\n    tag_56:\n      mload(0x40)\n      dup1\n      swap2\n      sub\n      swap1\n      return\n        /* \"CrowdFundingProject.sol\":783:825  mapping(uint256=> Request) public requests */\n    tag_11:\n      callvalue\n      dup1\n      iszero\n      tag_58\n      jumpi\n      revert(0x00, 0x00)\n    tag_58:\n      pop\n      tag_59\n      0x04\n      dup1\n      calldatasize\n      sub\n      dup2\n      add\n      swap1\n      tag_60\n      swap2\n      swap1\n      tag_40\n      jump\t// in\n    tag_60:\n      tag_61\n      jump\t// in\n    tag_59:\n      mload(0x40)\n      tag_62\n      swap6\n      swap5\n      swap4\n      swap3\n      swap2\n      swap1\n      tag_63\n      jump\t// in\n    tag_62:\n      mload(0x40)\n      dup1\n      swap2\n      sub\n      swap1\n      return\n        /* \"CrowdFundingProject.sol\":1700:2076  function createRequest(string memory _description, uint256 _value, address payable _recipient)public onlyOrganizer{... */\n    tag_12:\n      callvalue\n      dup1\n      iszero\n      tag_64\n      jumpi\n      revert(0x00, 0x00)\n    tag_64:\n      pop\n      tag_65\n      0x04\n      dup1\n      calldatasize\n      sub\n      dup2\n      add\n      swap1\n      tag_66\n      swap2\n      swap1\n      tag_67\n      jump\t// in\n    tag_66:\n      tag_68\n      jump\t// in\n    tag_65:\n      stop\n        /* \"CrowdFundingProject.sol\":176:206  uint256 public minContribution */\n    tag_13:\n      callvalue\n      dup1\n      iszero\n      tag_69\n      jumpi\n      revert(0x00, 0x00)\n    tag_69:\n      pop\n      tag_70\n      tag_71\n      jump\t// in\n    tag_70:\n      mload(0x40)\n      tag_72\n      swap2\n      swap1\n      tag_26\n      jump\t// in\n    tag_72:\n      mload(0x40)\n      dup1\n      swap2\n      sub\n      swap1\n      return\n        /* \"CrowdFundingProject.sol\":118:139  uint256 public target */\n    tag_14:\n      callvalue\n      dup1\n      iszero\n      tag_73\n      jumpi\n      revert(0x00, 0x00)\n    tag_73:\n      pop\n      tag_74\n      tag_75\n      jump\t// in\n    tag_74:\n      mload(0x40)\n      tag_76\n      swap2\n      swap1\n      tag_26\n      jump\t// in\n    tag_76:\n      mload(0x40)\n      dup1\n      swap2\n      sub\n      swap1\n      return\n        /* \"CrowdFundingProject.sol\":252:278  uint256 public raiseAmount */\n    tag_15:\n      callvalue\n      dup1\n      iszero\n      tag_77\n      jumpi\n      revert(0x00, 0x00)\n    tag_77:\n      pop\n      tag_78\n      tag_79\n      jump\t// in\n    tag_78:\n      mload(0x40)\n      tag_80\n      swap2\n      swap1\n      tag_26\n      jump\t// in\n    tag_80:\n      mload(0x40)\n      dup1\n      swap2\n      sub\n      swap1\n      return\n        /* \"CrowdFundingProject.sol\":213:245  uint256 public totalContributors */\n    tag_16:\n      callvalue\n      dup1\n      iszero\n      tag_81\n      jumpi\n      revert(0x00, 0x00)\n    tag_81:\n      pop\n      tag_82\n      tag_83\n      jump\t// in\n    tag_82:\n      mload(0x40)\n      tag_84\n      swap2\n      swap1\n      tag_26\n      jump\t// in\n    tag_84:\n      mload(0x40)\n      dup1\n      swap2\n      sub\n      swap1\n      return\n        /* \"CrowdFundingProject.sol\":862:1169  function sendEth() public payable {... */\n    tag_21:\n        /* \"CrowdFundingProject.sol\":929:937  deadline */\n      sload(0x02)\n        /* \"CrowdFundingProject.sol\":911:926  block.timestamp */\n      timestamp\n        /* \"CrowdFundingProject.sol\":911:937  block.timestamp > deadline */\n      gt\n        /* \"CrowdFundingProject.sol\":903:958  require(block.timestamp > deadline,\"Funding time over\") */\n      tag_86\n      jumpi\n      mload(0x40)\n      0x08c379a000000000000000000000000000000000000000000000000000000000\n      dup2\n      mstore\n      0x04\n      add\n      tag_87\n      swap1\n      tag_88\n      jump\t// in\n    tag_87:\n      mload(0x40)\n      dup1\n      swap2\n      sub\n      swap1\n      revert\n    tag_86:\n        /* \"CrowdFundingProject.sol\":986:1001  minContribution */\n      sload(0x03)\n        /* \"CrowdFundingProject.sol\":973:982  msg.value */\n      callvalue\n        /* \"CrowdFundingProject.sol\":973:1001  msg.value >= minContribution */\n      lt\n      iszero\n        /* \"CrowdFundingProject.sol\":965:1034  require(msg.value >= minContribution, \"minimum contribution not met\") */\n      tag_89\n      jumpi\n      mload(0x40)\n      0x08c379a000000000000000000000000000000000000000000000000000000000\n      dup2\n      mstore\n      0x04\n      add\n      tag_90\n      swap1\n      tag_91\n      jump\t// in\n    tag_90:\n      mload(0x40)\n      dup1\n      swap2\n      sub\n      swap1\n      revert\n    tag_89:\n        /* \"CrowdFundingProject.sol\":1071:1072  0 */\n      0x00\n        /* \"CrowdFundingProject.sol\":1044:1056  contributors */\n      0x07\n        /* \"CrowdFundingProject.sol\":1044:1068  contributors[msg.sender] */\n      0x00\n        /* \"CrowdFundingProject.sol\":1057:1067  msg.sender */\n      caller\n        /* \"CrowdFundingProject.sol\":1044:1068  contributors[msg.sender] */\n      0xffffffffffffffffffffffffffffffffffffffff\n      and\n      0xffffffffffffffffffffffffffffffffffffffff\n      and\n      dup2\n      mstore\n      0x20\n      add\n      swap1\n      dup2\n      mstore\n      0x20\n      add\n      0x00\n      keccak256\n      sload\n        /* \"CrowdFundingProject.sol\":1044:1072  contributors[msg.sender]== 0 */\n      sub\n        /* \"CrowdFundingProject.sol\":1041:1092  if(contributors[msg.sender]== 0)totalContributors++ */\n      tag_92\n      jumpi\n        /* \"CrowdFundingProject.sol\":1073:1090  totalContributors */\n      0x04\n      0x00\n        /* \"CrowdFundingProject.sol\":1073:1092  totalContributors++ */\n      dup2\n      sload\n      dup1\n      swap3\n      swap2\n      swap1\n      tag_93\n      swap1\n      tag_94\n      jump\t// in\n    tag_93:\n      swap2\n      swap1\n      pop\n      sstore\n      pop\n        /* \"CrowdFundingProject.sol\":1041:1092  if(contributors[msg.sender]== 0)totalContributors++ */\n    tag_92:\n        /* \"CrowdFundingProject.sol\":1125:1134  msg.value */\n      callvalue\n        /* \"CrowdFundingProject.sol\":1099:1111  contributors */\n      0x07\n        /* \"CrowdFundingProject.sol\":1099:1123  contributors[msg.sender] */\n      0x00\n        /* \"CrowdFundingProject.sol\":1112:1122  msg.sender */\n      caller\n        /* \"CrowdFundingProject.sol\":1099:1123  contributors[msg.sender] */\n      0xffffffffffffffffffffffffffffffffffffffff\n      and\n      0xffffffffffffffffffffffffffffffffffffffff\n      and\n      dup2\n      mstore\n      0x20\n      add\n      swap1\n      dup2\n      mstore\n      0x20\n      add\n      0x00\n      keccak256\n      0x00\n        /* \"CrowdFundingProject.sol\":1099:1134  contributors[msg.sender]+=msg.value */\n      dup3\n      dup3\n      sload\n      tag_95\n      swap2\n      swap1\n      tag_96\n      jump\t// in\n    tag_95:\n      swap3\n      pop\n      pop\n      dup2\n      swap1\n      sstore\n      pop\n        /* \"CrowdFundingProject.sol\":1154:1163  msg.value */\n      callvalue\n        /* \"CrowdFundingProject.sol\":1141:1152  raiseAmount */\n      0x05\n      0x00\n        /* \"CrowdFundingProject.sol\":1141:1163  raiseAmount+=msg.value */\n      dup3\n      dup3\n      sload\n      tag_97\n      swap2\n      swap1\n      tag_96\n      jump\t// in\n    tag_97:\n      swap3\n      pop\n      pop\n      dup2\n      swap1\n      sstore\n      pop\n        /* \"CrowdFundingProject.sol\":862:1169  function sendEth() public payable {... */\n      jump\t// out\n        /* \"CrowdFundingProject.sol\":1173:1264  function getBalance() public view returns(uint256){... */\n    tag_24:\n        /* \"CrowdFundingProject.sol\":1215:1222  uint256 */\n      0x00\n        /* \"CrowdFundingProject.sol\":1237:1258  address(this).balance */\n      selfbalance\n        /* \"CrowdFundingProject.sol\":1230:1258  return address(this).balance */\n      swap1\n      pop\n        /* \"CrowdFundingProject.sol\":1173:1264  function getBalance() public view returns(uint256){... */\n      swap1\n      jump\t// out\n        /* \"CrowdFundingProject.sol\":301:347  mapping(address =>uint256) public contributors */\n    tag_31:\n      mstore(0x20, 0x07)\n      dup1\n      0x00\n      mstore\n      keccak256(0x00, 0x40)\n      0x00\n      swap2\n      pop\n      swap1\n      pop\n      sload\n      dup2\n      jump\t// out\n        /* \"CrowdFundingProject.sol\":146:169  uint256 public deadline */\n    tag_35:\n      sload(0x02)\n      dup2\n      jump\t// out\n        /* \"CrowdFundingProject.sol\":2080:2395  function voteRequest(uint _noRequest) public{... */\n    tag_41:\n        /* \"CrowdFundingProject.sol\":2163:2164  0 */\n      0x00\n        /* \"CrowdFundingProject.sol\":2138:2150  contributors */\n      0x07\n        /* \"CrowdFundingProject.sol\":2138:2162  contributors[msg.sender] */\n      0x00\n        /* \"CrowdFundingProject.sol\":2151:2161  msg.sender */\n      caller\n        /* \"CrowdFundingProject.sol\":2138:2162  contributors[msg.sender] */\n      0xffffffffffffffffffffffffffffffffffffffff\n      and\n      0xffffffffffffffffffffffffffffffffffffffff\n      and\n      dup2\n      mstore\n      0x20\n      add\n      swap1\n      dup2\n      mstore\n      0x20\n      add\n      0x00\n      keccak256\n      sload\n        /* \"CrowdFundingProject.sol\":2138:2164  contributors[msg.sender]>0 */\n      gt\n        /* \"CrowdFundingProject.sol\":2130:2193  require(contributors[msg.sender]>0,\"You are not a contributor\") */\n      tag_100\n      jumpi\n      mload(0x40)\n      0x08c379a000000000000000000000000000000000000000000000000000000000\n      dup2\n      mstore\n      0x04\n      add\n      tag_101\n      swap1\n      tag_102\n      jump\t// in\n    tag_101:\n      mload(0x40)\n      dup1\n      swap2\n      sub\n      swap1\n      revert\n    tag_100:\n        /* \"CrowdFundingProject.sol\":2199:2226  Request storage thisRequest */\n      0x00\n        /* \"CrowdFundingProject.sol\":2229:2237  requests */\n      0x08\n        /* \"CrowdFundingProject.sol\":2229:2249  requests[_noRequest] */\n      0x00\n        /* \"CrowdFundingProject.sol\":2238:2248  _noRequest */\n      dup4\n        /* \"CrowdFundingProject.sol\":2229:2249  requests[_noRequest] */\n      dup2\n      mstore\n      0x20\n      add\n      swap1\n      dup2\n      mstore\n      0x20\n      add\n      0x00\n      keccak256\n        /* \"CrowdFundingProject.sol\":2199:2249  Request storage thisRequest = requests[_noRequest] */\n      swap1\n      pop\n        /* \"CrowdFundingProject.sol\":2264:2275  thisRequest */\n      dup1\n        /* \"CrowdFundingProject.sol\":2264:2282  thisRequest.voters */\n      0x05\n      add\n        /* \"CrowdFundingProject.sol\":2264:2294  thisRequest.voters[msg.sender] */\n      0x00\n        /* \"CrowdFundingProject.sol\":2283:2293  msg.sender */\n      caller\n        /* \"CrowdFundingProject.sol\":2264:2294  thisRequest.voters[msg.sender] */\n      0xffffffffffffffffffffffffffffffffffffffff\n      and\n      0xffffffffffffffffffffffffffffffffffffffff\n      and\n      dup2\n      mstore\n      0x20\n      add\n      swap1\n      dup2\n      mstore\n      0x20\n      add\n      0x00\n      keccak256\n      0x00\n      swap1\n      sload\n      swap1\n      0x0100\n      exp\n      swap1\n      div\n      0xff\n      and\n        /* \"CrowdFundingProject.sol\":2263:2294  !thisRequest.voters[msg.sender] */\n      iszero\n        /* \"CrowdFundingProject.sol\":2255:2319  require(!thisRequest.voters[msg.sender], \"you are not vote yet\") */\n      tag_103\n      jumpi\n      mload(0x40)\n      0x08c379a000000000000000000000000000000000000000000000000000000000\n      dup2\n      mstore\n      0x04\n      add\n      tag_104\n      swap1\n      tag_105\n      jump\t// in\n    tag_104:\n      mload(0x40)\n      dup1\n      swap2\n      sub\n      swap1\n      revert\n    tag_103:\n        /* \"CrowdFundingProject.sol\":2356:2360  true */\n      0x01\n        /* \"CrowdFundingProject.sol\":2325:2336  thisRequest */\n      dup2\n        /* \"CrowdFundingProject.sol\":2325:2343  thisRequest.voters */\n      0x05\n      add\n        /* \"CrowdFundingProject.sol\":2325:2355  thisRequest.voters[msg.sender] */\n      0x00\n        /* \"CrowdFundingProject.sol\":2344:2354  msg.sender */\n      caller\n        /* \"CrowdFundingProject.sol\":2325:2355  thisRequest.voters[msg.sender] */\n      0xffffffffffffffffffffffffffffffffffffffff\n      and\n      0xffffffffffffffffffffffffffffffffffffffff\n      and\n      dup2\n      mstore\n      0x20\n      add\n      swap1\n      dup2\n      mstore\n      0x20\n      add\n      0x00\n      keccak256\n      0x00\n        /* \"CrowdFundingProject.sol\":2325:2360  thisRequest.voters[msg.sender]=true */\n      0x0100\n      exp\n      dup2\n      sload\n      dup2\n      0xff\n      mul\n      not\n      and\n      swap1\n      dup4\n      iszero\n      iszero\n      mul\n      or\n      swap1\n      sstore\n      pop\n        /* \"CrowdFundingProject.sol\":2366:2377  thisRequest */\n      dup1\n        /* \"CrowdFundingProject.sol\":2366:2387  thisRequest.noOfVoter */\n      0x04\n      add\n      0x00\n        /* \"CrowdFundingProject.sol\":2366:2389  thisRequest.noOfVoter++ */\n      dup2\n      sload\n      dup1\n      swap3\n      swap2\n      swap1\n      tag_106\n      swap1\n      tag_94\n      jump\t// in\n    tag_106:\n      swap2\n      swap1\n      pop\n      sstore\n      pop\n        /* \"CrowdFundingProject.sol\":2124:2395  {... */\n      pop\n        /* \"CrowdFundingProject.sol\":2080:2395  function voteRequest(uint _noRequest) public{... */\n      pop\n      jump\t// out\n        /* \"CrowdFundingProject.sol\":2399:2819  function makePayment(uint256 _numRequest) public onlyOrganizer{... */\n    tag_45:\n        /* \"CrowdFundingProject.sol\":1636:1645  organizer */\n      0x00\n      0x00\n      swap1\n      sload\n      swap1\n      0x0100\n      exp\n      swap1\n      div\n      0xffffffffffffffffffffffffffffffffffffffff\n      and\n        /* \"CrowdFundingProject.sol\":1622:1645  msg.sender == organizer */\n      0xffffffffffffffffffffffffffffffffffffffff\n      and\n        /* \"CrowdFundingProject.sol\":1622:1632  msg.sender */\n      caller\n        /* \"CrowdFundingProject.sol\":1622:1645  msg.sender == organizer */\n      0xffffffffffffffffffffffffffffffffffffffff\n      and\n      eq\n        /* \"CrowdFundingProject.sol\":1614:1682  require(msg.sender == organizer,\"Only organizer call this function\") */\n      tag_108\n      jumpi\n      mload(0x40)\n      0x08c379a000000000000000000000000000000000000000000000000000000000\n      dup2\n      mstore\n      0x04\n      add\n      tag_109\n      swap1\n      tag_110\n      jump\t// in\n    tag_109:\n      mload(0x40)\n      dup1\n      swap2\n      sub\n      swap1\n      revert\n    tag_108:\n        /* \"CrowdFundingProject.sol\":2489:2495  target */\n      sload(0x01)\n        /* \"CrowdFundingProject.sol\":2476:2487  raiseAmount */\n      sload(0x05)\n        /* \"CrowdFundingProject.sol\":2476:2495  raiseAmount>=target */\n      lt\n      iszero\n        /* \"CrowdFundingProject.sol\":2468:2517  require(raiseAmount>=target, \"target is not met\") */\n      tag_112\n      jumpi\n      mload(0x40)\n      0x08c379a000000000000000000000000000000000000000000000000000000000\n      dup2\n      mstore\n      0x04\n      add\n      tag_113\n      swap1\n      tag_114\n      jump\t// in\n    tag_113:\n      mload(0x40)\n      dup1\n      swap2\n      sub\n      swap1\n      revert\n    tag_112:\n        /* \"CrowdFundingProject.sol\":2524:2551  Request storage thisrequest */\n      0x00\n        /* \"CrowdFundingProject.sol\":2553:2561  requests */\n      0x08\n        /* \"CrowdFundingProject.sol\":2553:2574  requests[_numRequest] */\n      0x00\n        /* \"CrowdFundingProject.sol\":2562:2573  _numRequest */\n      dup4\n        /* \"CrowdFundingProject.sol\":2553:2574  requests[_numRequest] */\n      dup2\n      mstore\n      0x20\n      add\n      swap1\n      dup2\n      mstore\n      0x20\n      add\n      0x00\n      keccak256\n        /* \"CrowdFundingProject.sol\":2524:2574  Request storage thisrequest= requests[_numRequest] */\n      swap1\n      pop\n        /* \"CrowdFundingProject.sol\":2590:2601  thisrequest */\n      dup1\n        /* \"CrowdFundingProject.sol\":2590:2612  thisrequest.isComplete */\n      0x00\n      add\n      0x00\n      swap1\n      sload\n      swap1\n      0x0100\n      exp\n      swap1\n      div\n      0xff\n      and\n        /* \"CrowdFundingProject.sol\":2589:2612  !thisrequest.isComplete */\n      iszero\n        /* \"CrowdFundingProject.sol\":2581:2641  require(!thisrequest.isComplete, \"the request is completed\") */\n      tag_115\n      jumpi\n      mload(0x40)\n      0x08c379a000000000000000000000000000000000000000000000000000000000\n      dup2\n      mstore\n      0x04\n      add\n      tag_116\n      swap1\n      tag_117\n      jump\t// in\n    tag_116:\n      mload(0x40)\n      dup1\n      swap2\n      sub\n      swap1\n      revert\n    tag_115:\n        /* \"CrowdFundingProject.sol\":2698:2699  2 */\n      0x02\n        /* \"CrowdFundingProject.sol\":2680:2697  totalContributors */\n      sload(0x04)\n        /* \"CrowdFundingProject.sol\":2680:2699  totalContributors/2 */\n      tag_118\n      swap2\n      swap1\n      tag_119\n      jump\t// in\n    tag_118:\n        /* \"CrowdFundingProject.sol\":2656:2667  thisrequest */\n      dup2\n        /* \"CrowdFundingProject.sol\":2656:2677  thisrequest.noOfVoter */\n      0x04\n      add\n      sload\n        /* \"CrowdFundingProject.sol\":2656:2699  thisrequest.noOfVoter>= totalContributors/2 */\n      lt\n      iszero\n        /* \"CrowdFundingProject.sol\":2648:2721  require(thisrequest.noOfVoter>= totalContributors/2,\"not enough  voters\") */\n      tag_120\n      jumpi\n      mload(0x40)\n      0x08c379a000000000000000000000000000000000000000000000000000000000\n      dup2\n      mstore\n      0x04\n      add\n      tag_121\n      swap1\n      tag_122\n      jump\t// in\n    tag_121:\n      mload(0x40)\n      dup1\n      swap2\n      sub\n      swap1\n      revert\n    tag_120:\n        /* \"CrowdFundingProject.sol\":2728:2739  thisrequest */\n      dup1\n        /* \"CrowdFundingProject.sol\":2728:2749  thisrequest.recipient */\n      0x03\n      add\n      0x00\n      swap1\n      sload\n      swap1\n      0x0100\n      exp\n      swap1\n      div\n      0xffffffffffffffffffffffffffffffffffffffff\n      and\n        /* \"CrowdFundingProject.sol\":2728:2758  thisrequest.recipient.transfer */\n      0xffffffffffffffffffffffffffffffffffffffff\n      and\n        /* \"CrowdFundingProject.sol\":2728:2777  thisrequest.recipient.transfer(thisrequest.value) */\n      0x08fc\n        /* \"CrowdFundingProject.sol\":2759:2770  thisrequest */\n      dup3\n        /* \"CrowdFundingProject.sol\":2759:2776  thisrequest.value */\n      0x02\n      add\n      sload\n        /* \"CrowdFundingProject.sol\":2728:2777  thisrequest.recipient.transfer(thisrequest.value) */\n      swap1\n      dup2\n      iszero\n      mul\n      swap1\n      mload(0x40)\n      0x00\n      mload(0x40)\n      dup1\n      dup4\n      sub\n      dup2\n      dup6\n      dup9\n      dup9\n      call\n      swap4\n      pop\n      pop\n      pop\n      pop\n      iszero\n      dup1\n      iszero\n      tag_124\n      jumpi\n      returndatacopy(0x00, 0x00, returndatasize)\n      revert(0x00, returndatasize)\n    tag_124:\n      pop\n        /* \"CrowdFundingProject.sol\":2807:2811  true */\n      0x01\n        /* \"CrowdFundingProject.sol\":2784:2795  thisrequest */\n      dup2\n        /* \"CrowdFundingProject.sol\":2784:2806  thisrequest.isComplete */\n      0x00\n      add\n      0x00\n        /* \"CrowdFundingProject.sol\":2784:2811  thisrequest.isComplete=true */\n      0x0100\n      exp\n      dup2\n      sload\n      dup2\n      0xff\n      mul\n      not\n      and\n      swap1\n      dup4\n      iszero\n      iszero\n      mul\n      or\n      swap1\n      sstore\n      pop\n        /* \"CrowdFundingProject.sol\":2461:2819  {... */\n      pop\n        /* \"CrowdFundingProject.sol\":2399:2819  function makePayment(uint256 _numRequest) public onlyOrganizer{... */\n      pop\n      jump\t// out\n        /* \"CrowdFundingProject.sol\":1268:1581  function refund() public {... */\n    tag_48:\n        /* \"CrowdFundingProject.sol\":1323:1331  deadline */\n      sload(0x02)\n        /* \"CrowdFundingProject.sol\":1307:1322  block.timestamp */\n      timestamp\n        /* \"CrowdFundingProject.sol\":1307:1331  block.timestamp>deadline */\n      gt\n        /* \"CrowdFundingProject.sol\":1307:1353  block.timestamp>deadline && raiseAmount<target */\n      dup1\n      iszero\n      tag_126\n      jumpi\n      pop\n        /* \"CrowdFundingProject.sol\":1347:1353  target */\n      sload(0x01)\n        /* \"CrowdFundingProject.sol\":1335:1346  raiseAmount */\n      sload(0x05)\n        /* \"CrowdFundingProject.sol\":1335:1353  raiseAmount<target */\n      lt\n        /* \"CrowdFundingProject.sol\":1307:1353  block.timestamp>deadline && raiseAmount<target */\n    tag_126:\n        /* \"CrowdFundingProject.sol\":1299:1389  require(block.timestamp>deadline && raiseAmount<target, \"You are not eligible for refund\") */\n      tag_127\n      jumpi\n      mload(0x40)\n      0x08c379a000000000000000000000000000000000000000000000000000000000\n      dup2\n      mstore\n      0x04\n      add\n      tag_128\n      swap1\n      tag_129\n      jump\t// in\n    tag_128:\n      mload(0x40)\n      dup1\n      swap2\n      sub\n      swap1\n      revert\n    tag_127:\n        /* \"CrowdFundingProject.sol\":1428:1429  0 */\n      0x00\n        /* \"CrowdFundingProject.sol\":1403:1415  contributors */\n      0x07\n        /* \"CrowdFundingProject.sol\":1403:1427  contributors[msg.sender] */\n      0x00\n        /* \"CrowdFundingProject.sol\":1416:1426  msg.sender */\n      caller\n        /* \"CrowdFundingProject.sol\":1403:1427  contributors[msg.sender] */\n      0xffffffffffffffffffffffffffffffffffffffff\n      and\n      0xffffffffffffffffffffffffffffffffffffffff\n      and\n      dup2\n      mstore\n      0x20\n      add\n      swap1\n      dup2\n      mstore\n      0x20\n      add\n      0x00\n      keccak256\n      sload\n        /* \"CrowdFundingProject.sol\":1403:1429  contributors[msg.sender]>0 */\n      gt\n        /* \"CrowdFundingProject.sol\":1395:1458  require(contributors[msg.sender]>0,\"You are not a contributor\") */\n      tag_130\n      jumpi\n      mload(0x40)\n      0x08c379a000000000000000000000000000000000000000000000000000000000\n      dup2\n      mstore\n      0x04\n      add\n      tag_131\n      swap1\n      tag_102\n      jump\t// in\n    tag_131:\n      mload(0x40)\n      dup1\n      swap2\n      sub\n      swap1\n      revert\n    tag_130:\n        /* \"CrowdFundingProject.sol\":1472:1482  msg.sender */\n      caller\n        /* \"CrowdFundingProject.sol\":1464:1492  payable(msg.sender).transfer */\n      0xffffffffffffffffffffffffffffffffffffffff\n      and\n        /* \"CrowdFundingProject.sol\":1464:1518  payable(msg.sender).transfer(contributors[msg.sender]) */\n      0x08fc\n        /* \"CrowdFundingProject.sol\":1493:1505  contributors */\n      0x07\n        /* \"CrowdFundingProject.sol\":1493:1517  contributors[msg.sender] */\n      0x00\n        /* \"CrowdFundingProject.sol\":1506:1516  msg.sender */\n      caller\n        /* \"CrowdFundingProject.sol\":1493:1517  contributors[msg.sender] */\n      0xffffffffffffffffffffffffffffffffffffffff\n      and\n      0xffffffffffffffffffffffffffffffffffffffff\n      and\n      dup2\n      mstore\n      0x20\n      add\n      swap1\n      dup2\n      mstore\n      0x20\n      add\n      0x00\n      keccak256\n      sload\n        /* \"CrowdFundingProject.sol\":1464:1518  payable(msg.sender).transfer(contributors[msg.sender]) */\n      swap1\n      dup2\n      iszero\n      mul\n      swap1\n      mload(0x40)\n      0x00\n      mload(0x40)\n      dup1\n      dup4\n      sub\n      dup2\n      dup6\n      dup9\n      dup9\n      call\n      swap4\n      pop\n      pop\n      pop\n      pop\n      iszero\n      dup1\n      iszero\n      tag_133\n      jumpi\n      returndatacopy(0x00, 0x00, returndatasize)\n      revert(0x00, returndatasize)\n    tag_133:\n      pop\n        /* \"CrowdFundingProject.sol\":1549:1550  0 */\n      0x00\n        /* \"CrowdFundingProject.sol\":1524:1536  contributors */\n      0x07\n        /* \"CrowdFundingProject.sol\":1524:1548  contributors[msg.sender] */\n      0x00\n        /* \"CrowdFundingProject.sol\":1537:1547  msg.sender */\n      caller\n        /* \"CrowdFundingProject.sol\":1524:1548  contributors[msg.sender] */\n      0xffffffffffffffffffffffffffffffffffffffff\n      and\n      0xffffffffffffffffffffffffffffffffffffffff\n      and\n      dup2\n      mstore\n      0x20\n      add\n      swap1\n      dup2\n      mstore\n      0x20\n      add\n      0x00\n      keccak256\n        /* \"CrowdFundingProject.sol\":1524:1550  contributors[msg.sender]=0 */\n      dup2\n      swap1\n      sstore\n      pop\n        /* \"CrowdFundingProject.sol\":1556:1573  totalContributors */\n      0x04\n      0x00\n        /* \"CrowdFundingProject.sol\":1556:1575  totalContributors-- */\n      dup2\n      sload\n      dup1\n      swap3\n      swap2\n      swap1\n      tag_134\n      swap1\n      tag_135\n      jump\t// in\n    tag_134:\n      swap2\n      swap1\n      pop\n      sstore\n      pop\n        /* \"CrowdFundingProject.sol\":1268:1581  function refund() public {... */\n      jump\t// out\n        /* \"CrowdFundingProject.sol\":830:857  uint256 public requestCount */\n    tag_51:\n      sload(0x09)\n      dup2\n      jump\t// out\n        /* \"CrowdFundingProject.sol\":87:111  address public organizer */\n    tag_55:\n      0x00\n      0x00\n      swap1\n      sload\n      swap1\n      0x0100\n      exp\n      swap1\n      div\n      0xffffffffffffffffffffffffffffffffffffffff\n      and\n      dup2\n      jump\t// out\n        /* \"CrowdFundingProject.sol\":783:825  mapping(uint256=> Request) public requests */\n    tag_61:\n      mstore(0x20, 0x08)\n      dup1\n      0x00\n      mstore\n      keccak256(0x00, 0x40)\n      0x00\n      swap2\n      pop\n      swap1\n      pop\n      dup1\n      0x00\n      add\n      0x00\n      swap1\n      sload\n      swap1\n      0x0100\n      exp\n      swap1\n      div\n      0xff\n      and\n      swap1\n      dup1\n      0x01\n      add\n      dup1\n      sload\n      tag_136\n      swap1\n      tag_137\n      jump\t// in\n    tag_136:\n      dup1\n      0x1f\n      add\n      0x20\n      dup1\n      swap2\n      div\n      mul\n      0x20\n      add\n      mload(0x40)\n      swap1\n      dup2\n      add\n      0x40\n      mstore\n      dup1\n      swap3\n      swap2\n      swap1\n      dup2\n      dup2\n      mstore\n      0x20\n      add\n      dup3\n      dup1\n      sload\n      tag_138\n      swap1\n      tag_137\n      jump\t// in\n    tag_138:\n      dup1\n      iszero\n      tag_139\n      jumpi\n      dup1\n      0x1f\n      lt\n      tag_140\n      jumpi\n      0x0100\n      dup1\n      dup4\n      sload\n      div\n      mul\n      dup4\n      mstore\n      swap2\n      0x20\n      add\n      swap2\n      jump(tag_139)\n    tag_140:\n      dup3\n      add\n      swap2\n      swap1\n      0x00\n      mstore\n      keccak256(0x00, 0x20)\n      swap1\n    tag_141:\n      dup2\n      sload\n      dup2\n      mstore\n      swap1\n      0x01\n      add\n      swap1\n      0x20\n      add\n      dup1\n      dup4\n      gt\n      tag_141\n      jumpi\n      dup3\n      swap1\n      sub\n      0x1f\n      and\n      dup3\n      add\n      swap2\n    tag_139:\n      pop\n      pop\n      pop\n      pop\n      pop\n      swap1\n      dup1\n      0x02\n      add\n      sload\n      swap1\n      dup1\n      0x03\n      add\n      0x00\n      swap1\n      sload\n      swap1\n      0x0100\n      exp\n      swap1\n      div\n      0xffffffffffffffffffffffffffffffffffffffff\n      and\n      swap1\n      dup1\n      0x04\n      add\n      sload\n      swap1\n      pop\n      dup6\n      jump\t// out\n        /* \"CrowdFundingProject.sol\":1700:2076  function createRequest(string memory _description, uint256 _value, address payable _recipient)public onlyOrganizer{... */\n    tag_68:\n        /* \"CrowdFundingProject.sol\":1636:1645  organizer */\n      0x00\n      0x00\n      swap1\n      sload\n      swap1\n      0x0100\n      exp\n      swap1\n      div\n      0xffffffffffffffffffffffffffffffffffffffff\n      and\n        /* \"CrowdFundingProject.sol\":1622:1645  msg.sender == organizer */\n      0xffffffffffffffffffffffffffffffffffffffff\n      and\n        /* \"CrowdFundingProject.sol\":1622:1632  msg.sender */\n      caller\n        /* \"CrowdFundingProject.sol\":1622:1645  msg.sender == organizer */\n      0xffffffffffffffffffffffffffffffffffffffff\n      and\n      eq\n        /* \"CrowdFundingProject.sol\":1614:1682  require(msg.sender == organizer,\"Only organizer call this function\") */\n      tag_143\n      jumpi\n      mload(0x40)\n      0x08c379a000000000000000000000000000000000000000000000000000000000\n      dup2\n      mstore\n      0x04\n      add\n      tag_144\n      swap1\n      tag_110\n      jump\t// in\n    tag_144:\n      mload(0x40)\n      dup1\n      swap2\n      sub\n      swap1\n      revert\n    tag_143:\n        /* \"CrowdFundingProject.sol\":1821:1847  Request storage newRequest */\n      0x00\n        /* \"CrowdFundingProject.sol\":1849:1857  requests */\n      0x08\n        /* \"CrowdFundingProject.sol\":1849:1871  requests[requestCount] */\n      0x00\n        /* \"CrowdFundingProject.sol\":1858:1870  requestCount */\n      sload(0x09)\n        /* \"CrowdFundingProject.sol\":1849:1871  requests[requestCount] */\n      dup2\n      mstore\n      0x20\n      add\n      swap1\n      dup2\n      mstore\n      0x20\n      add\n      0x00\n      keccak256\n        /* \"CrowdFundingProject.sol\":1821:1871  Request storage newRequest= requests[requestCount] */\n      swap1\n      pop\n        /* \"CrowdFundingProject.sol\":1878:1890  requestCount */\n      0x09\n      0x00\n        /* \"CrowdFundingProject.sol\":1878:1892  requestCount++ */\n      dup2\n      sload\n      dup1\n      swap3\n      swap2\n      swap1\n      tag_146\n      swap1\n      tag_94\n      jump\t// in\n    tag_146:\n      swap2\n      swap1\n      pop\n      sstore\n      pop\n        /* \"CrowdFundingProject.sol\":1924:1936  _description */\n      dup4\n        /* \"CrowdFundingProject.sol\":1899:1909  newRequest */\n      dup2\n        /* \"CrowdFundingProject.sol\":1899:1921  newRequest.description */\n      0x01\n      add\n        /* \"CrowdFundingProject.sol\":1899:1936  newRequest.description = _description */\n      swap1\n      dup2\n      tag_147\n      swap2\n      swap1\n      tag_148\n      jump\t// in\n    tag_147:\n      pop\n        /* \"CrowdFundingProject.sol\":1962:1968  _value */\n      dup3\n        /* \"CrowdFundingProject.sol\":1943:1953  newRequest */\n      dup2\n        /* \"CrowdFundingProject.sol\":1943:1959  newRequest.value */\n      0x02\n      add\n        /* \"CrowdFundingProject.sol\":1943:1968  newRequest.value = _value */\n      dup2\n      swap1\n      sstore\n      pop\n        /* \"CrowdFundingProject.sol\":1997:2007  _recipient */\n      dup2\n        /* \"CrowdFundingProject.sol\":1975:1985  newRequest */\n      dup2\n        /* \"CrowdFundingProject.sol\":1975:1995  newRequest.recipient */\n      0x03\n      add\n      0x00\n        /* \"CrowdFundingProject.sol\":1975:2007  newRequest.recipient =_recipient */\n      0x0100\n      exp\n      dup2\n      sload\n      dup2\n      0xffffffffffffffffffffffffffffffffffffffff\n      mul\n      not\n      and\n      swap1\n      dup4\n      0xffffffffffffffffffffffffffffffffffffffff\n      and\n      mul\n      or\n      swap1\n      sstore\n      pop\n        /* \"CrowdFundingProject.sol\":2035:2036  0 */\n      0x00\n        /* \"CrowdFundingProject.sol\":2014:2024  newRequest */\n      dup2\n        /* \"CrowdFundingProject.sol\":2014:2034  newRequest.noOfVoter */\n      0x04\n      add\n        /* \"CrowdFundingProject.sol\":2014:2036  newRequest.noOfVoter=0 */\n      dup2\n      swap1\n      sstore\n      pop\n        /* \"CrowdFundingProject.sol\":2065:2070  false */\n      0x00\n        /* \"CrowdFundingProject.sol\":2043:2053  newRequest */\n      dup2\n        /* \"CrowdFundingProject.sol\":2043:2064  newRequest.isComplete */\n      0x00\n      add\n      0x00\n        /* \"CrowdFundingProject.sol\":2043:2070  newRequest.isComplete=false */\n      0x0100\n      exp\n      dup2\n      sload\n      dup2\n      0xff\n      mul\n      not\n      and\n      swap1\n      dup4\n      iszero\n      iszero\n      mul\n      or\n      swap1\n      sstore\n      pop\n        /* \"CrowdFundingProject.sol\":1814:2076  {... */\n      pop\n        /* \"CrowdFundingProject.sol\":1700:2076  function createRequest(string memory _description, uint256 _value, address payable _recipient)public onlyOrganizer{... */\n      pop\n      pop\n      pop\n      jump\t// out\n        /* \"CrowdFundingProject.sol\":176:206  uint256 public minContribution */\n    tag_71:\n      sload(0x03)\n      dup2\n      jump\t// out\n        /* \"CrowdFundingProject.sol\":118:139  uint256 public target */\n    tag_75:\n      sload(0x01)\n      dup2\n      jump\t// out\n        /* \"CrowdFundingProject.sol\":252:278  uint256 public raiseAmount */\n    tag_79:\n      sload(0x05)\n      dup2\n      jump\t// out\n        /* \"CrowdFundingProject.sol\":213:245  uint256 public totalContributors */\n    tag_83:\n      sload(0x04)\n      dup2\n      jump\t// out\n        /* \"#utility.yul\":7:84   */\n    tag_149:\n        /* \"#utility.yul\":44:51   */\n      0x00\n        /* \"#utility.yul\":73:78   */\n      dup2\n        /* \"#utility.yul\":62:78   */\n      swap1\n      pop\n        /* \"#utility.yul\":7:84   */\n      swap2\n      swap1\n      pop\n      jump\t// out\n        /* \"#utility.yul\":90:208   */\n    tag_150:\n        /* \"#utility.yul\":177:201   */\n      tag_220\n        /* \"#utility.yul\":195:200   */\n      dup2\n        /* \"#utility.yul\":177:201   */\n      tag_149\n      jump\t// in\n    tag_220:\n        /* \"#utility.yul\":172:175   */\n      dup3\n        /* \"#utility.yul\":165:202   */\n      mstore\n        /* \"#utility.yul\":90:208   */\n      pop\n      pop\n      jump\t// out\n        /* \"#utility.yul\":214:436   */\n    tag_26:\n        /* \"#utility.yul\":307:311   */\n      0x00\n        /* \"#utility.yul\":345:347   */\n      0x20\n        /* \"#utility.yul\":334:343   */\n      dup3\n        /* \"#utility.yul\":330:348   */\n      add\n        /* \"#utility.yul\":322:348   */\n      swap1\n      pop\n        /* \"#utility.yul\":358:429   */\n      tag_222\n        /* \"#utility.yul\":426:427   */\n      0x00\n        /* \"#utility.yul\":415:424   */\n      dup4\n        /* \"#utility.yul\":411:428   */\n      add\n        /* \"#utility.yul\":402:408   */\n      dup5\n        /* \"#utility.yul\":358:429   */\n      tag_150\n      jump\t// in\n    tag_222:\n        /* \"#utility.yul\":214:436   */\n      swap3\n      swap2\n      pop\n      pop\n      jump\t// out\n        /* \"#utility.yul\":442:517   */\n    tag_151:\n        /* \"#utility.yul\":475:481   */\n      0x00\n        /* \"#utility.yul\":508:510   */\n      0x40\n        /* \"#utility.yul\":502:511   */\n      mload\n        /* \"#utility.yul\":492:511   */\n      swap1\n      pop\n        /* \"#utility.yul\":442:517   */\n      swap1\n      jump\t// out\n        /* \"#utility.yul\":523:640   */\n    tag_152:\n        /* \"#utility.yul\":632:633   */\n      0x00\n        /* \"#utility.yul\":629:630   */\n      0x00\n        /* \"#utility.yul\":622:634   */\n      revert\n        /* \"#utility.yul\":646:763   */\n    tag_153:\n        /* \"#utility.yul\":755:756   */\n      0x00\n        /* \"#utility.yul\":752:753   */\n      0x00\n        /* \"#utility.yul\":745:757   */\n      revert\n        /* \"#utility.yul\":769:895   */\n    tag_154:\n        /* \"#utility.yul\":806:813   */\n      0x00\n        /* \"#utility.yul\":846:888   */\n      0xffffffffffffffffffffffffffffffffffffffff\n        /* \"#utility.yul\":839:844   */\n      dup3\n        /* \"#utility.yul\":835:889   */\n      and\n        /* \"#utility.yul\":824:889   */\n      swap1\n      pop\n        /* \"#utility.yul\":769:895   */\n      swap2\n      swap1\n      pop\n      jump\t// out\n        /* \"#utility.yul\":901:997   */\n    tag_155:\n        /* \"#utility.yul\":938:945   */\n      0x00\n        /* \"#utility.yul\":967:991   */\n      tag_228\n        /* \"#utility.yul\":985:990   */\n      dup3\n        /* \"#utility.yul\":967:991   */\n      tag_154\n      jump\t// in\n    tag_228:\n        /* \"#utility.yul\":956:991   */\n      swap1\n      pop\n        /* \"#utility.yul\":901:997   */\n      swap2\n      swap1\n      pop\n      jump\t// out\n        /* \"#utility.yul\":1003:1125   */\n    tag_156:\n        /* \"#utility.yul\":1076:1100   */\n      tag_230\n        /* \"#utility.yul\":1094:1099   */\n      dup2\n        /* \"#utility.yul\":1076:1100   */\n      tag_155\n      jump\t// in\n    tag_230:\n        /* \"#utility.yul\":1069:1074   */\n      dup2\n        /* \"#utility.yul\":1066:1101   */\n      eq\n        /* \"#utility.yul\":1056:1119   */\n      tag_231\n      jumpi\n        /* \"#utility.yul\":1115:1116   */\n      0x00\n        /* \"#utility.yul\":1112:1113   */\n      0x00\n        /* \"#utility.yul\":1105:1117   */\n      revert\n        /* \"#utility.yul\":1056:1119   */\n    tag_231:\n        /* \"#utility.yul\":1003:1125   */\n      pop\n      jump\t// out\n        /* \"#utility.yul\":1131:1270   */\n    tag_157:\n        /* \"#utility.yul\":1177:1182   */\n      0x00\n        /* \"#utility.yul\":1215:1221   */\n      dup2\n        /* \"#utility.yul\":1202:1222   */\n      calldataload\n        /* \"#utility.yul\":1193:1222   */\n      swap1\n      pop\n        /* \"#utility.yul\":1231:1264   */\n      tag_233\n        /* \"#utility.yul\":1258:1263   */\n      dup2\n        /* \"#utility.yul\":1231:1264   */\n      tag_156\n      jump\t// in\n    tag_233:\n        /* \"#utility.yul\":1131:1270   */\n      swap3\n      swap2\n      pop\n      pop\n      jump\t// out\n        /* \"#utility.yul\":1276:1605   */\n    tag_30:\n        /* \"#utility.yul\":1335:1341   */\n      0x00\n        /* \"#utility.yul\":1384:1386   */\n      0x20\n        /* \"#utility.yul\":1372:1381   */\n      dup3\n        /* \"#utility.yul\":1363:1370   */\n      dup5\n        /* \"#utility.yul\":1359:1382   */\n      sub\n        /* \"#utility.yul\":1355:1387   */\n      slt\n        /* \"#utility.yul\":1352:1471   */\n      iszero\n      tag_235\n      jumpi\n        /* \"#utility.yul\":1390:1469   */\n      tag_236\n      tag_152\n      jump\t// in\n    tag_236:\n        /* \"#utility.yul\":1352:1471   */\n    tag_235:\n        /* \"#utility.yul\":1510:1511   */\n      0x00\n        /* \"#utility.yul\":1535:1588   */\n      tag_237\n        /* \"#utility.yul\":1580:1587   */\n      dup5\n        /* \"#utility.yul\":1571:1577   */\n      dup3\n        /* \"#utility.yul\":1560:1569   */\n      dup6\n        /* \"#utility.yul\":1556:1578   */\n      add\n        /* \"#utility.yul\":1535:1588   */\n      tag_157\n      jump\t// in\n    tag_237:\n        /* \"#utility.yul\":1525:1588   */\n      swap2\n      pop\n        /* \"#utility.yul\":1481:1598   */\n      pop\n        /* \"#utility.yul\":1276:1605   */\n      swap3\n      swap2\n      pop\n      pop\n      jump\t// out\n        /* \"#utility.yul\":1611:1733   */\n    tag_158:\n        /* \"#utility.yul\":1684:1708   */\n      tag_239\n        /* \"#utility.yul\":1702:1707   */\n      dup2\n        /* \"#utility.yul\":1684:1708   */\n      tag_149\n      jump\t// in\n    tag_239:\n        /* \"#utility.yul\":1677:1682   */\n      dup2\n        /* \"#utility.yul\":1674:1709   */\n      eq\n        /* \"#utility.yul\":1664:1727   */\n      tag_240\n      jumpi\n        /* \"#utility.yul\":1723:1724   */\n      0x00\n        /* \"#utility.yul\":1720:1721   */\n      0x00\n        /* \"#utility.yul\":1713:1725   */\n      revert\n        /* \"#utility.yul\":1664:1727   */\n    tag_240:\n        /* \"#utility.yul\":1611:1733   */\n      pop\n      jump\t// out\n        /* \"#utility.yul\":1739:1878   */\n    tag_159:\n        /* \"#utility.yul\":1785:1790   */\n      0x00\n        /* \"#utility.yul\":1823:1829   */\n      dup2\n        /* \"#utility.yul\":1810:1830   */\n      calldataload\n        /* \"#utility.yul\":1801:1830   */\n      swap1\n      pop\n        /* \"#utility.yul\":1839:1872   */\n      tag_242\n        /* \"#utility.yul\":1866:1871   */\n      dup2\n        /* \"#utility.yul\":1839:1872   */\n      tag_158\n      jump\t// in\n    tag_242:\n        /* \"#utility.yul\":1739:1878   */\n      swap3\n      swap2\n      pop\n      pop\n      jump\t// out\n        /* \"#utility.yul\":1884:2213   */\n    tag_40:\n        /* \"#utility.yul\":1943:1949   */\n      0x00\n        /* \"#utility.yul\":1992:1994   */\n      0x20\n        /* \"#utility.yul\":1980:1989   */\n      dup3\n        /* \"#utility.yul\":1971:1978   */\n      dup5\n        /* \"#utility.yul\":1967:1990   */\n      sub\n        /* \"#utility.yul\":1963:1995   */\n      slt\n        /* \"#utility.yul\":1960:2079   */\n      iszero\n      tag_244\n      jumpi\n        /* \"#utility.yul\":1998:2077   */\n      tag_245\n      tag_152\n      jump\t// in\n    tag_245:\n        /* \"#utility.yul\":1960:2079   */\n    tag_244:\n        /* \"#utility.yul\":2118:2119   */\n      0x00\n        /* \"#utility.yul\":2143:2196   */\n      tag_246\n        /* \"#utility.yul\":2188:2195   */\n      dup5\n        /* \"#utility.yul\":2179:2185   */\n      dup3\n        /* \"#utility.yul\":2168:2177   */\n      dup6\n        /* \"#utility.yul\":2164:2186   */\n      add\n        /* \"#utility.yul\":2143:2196   */\n      tag_159\n      jump\t// in\n    tag_246:\n        /* \"#utility.yul\":2133:2196   */\n      swap2\n      pop\n        /* \"#utility.yul\":2089:2206   */\n      pop\n        /* \"#utility.yul\":1884:2213   */\n      swap3\n      swap2\n      pop\n      pop\n      jump\t// out\n        /* \"#utility.yul\":2219:2337   */\n    tag_160:\n        /* \"#utility.yul\":2306:2330   */\n      tag_248\n        /* \"#utility.yul\":2324:2329   */\n      dup2\n        /* \"#utility.yul\":2306:2330   */\n      tag_155\n      jump\t// in\n    tag_248:\n        /* \"#utility.yul\":2301:2304   */\n      dup3\n        /* \"#utility.yul\":2294:2331   */\n      mstore\n        /* \"#utility.yul\":2219:2337   */\n      pop\n      pop\n      jump\t// out\n        /* \"#utility.yul\":2343:2565   */\n    tag_57:\n        /* \"#utility.yul\":2436:2440   */\n      0x00\n        /* \"#utility.yul\":2474:2476   */\n      0x20\n        /* \"#utility.yul\":2463:2472   */\n      dup3\n        /* \"#utility.yul\":2459:2477   */\n      add\n        /* \"#utility.yul\":2451:2477   */\n      swap1\n      pop\n        /* \"#utility.yul\":2487:2558   */\n      tag_250\n        /* \"#utility.yul\":2555:2556   */\n      0x00\n        /* \"#utility.yul\":2544:2553   */\n      dup4\n        /* \"#utility.yul\":2540:2557   */\n      add\n        /* \"#utility.yul\":2531:2537   */\n      dup5\n        /* \"#utility.yul\":2487:2558   */\n      tag_160\n      jump\t// in\n    tag_250:\n        /* \"#utility.yul\":2343:2565   */\n      swap3\n      swap2\n      pop\n      pop\n      jump\t// out\n        /* \"#utility.yul\":2571:2661   */\n    tag_161:\n        /* \"#utility.yul\":2605:2612   */\n      0x00\n        /* \"#utility.yul\":2648:2653   */\n      dup2\n        /* \"#utility.yul\":2641:2654   */\n      iszero\n        /* \"#utility.yul\":2634:2655   */\n      iszero\n        /* \"#utility.yul\":2623:2655   */\n      swap1\n      pop\n        /* \"#utility.yul\":2571:2661   */\n      swap2\n      swap1\n      pop\n      jump\t// out\n        /* \"#utility.yul\":2667:2776   */\n    tag_162:\n        /* \"#utility.yul\":2748:2769   */\n      tag_253\n        /* \"#utility.yul\":2763:2768   */\n      dup2\n        /* \"#utility.yul\":2748:2769   */\n      tag_161\n      jump\t// in\n    tag_253:\n        /* \"#utility.yul\":2743:2746   */\n      dup3\n        /* \"#utility.yul\":2736:2770   */\n      mstore\n        /* \"#utility.yul\":2667:2776   */\n      pop\n      pop\n      jump\t// out\n        /* \"#utility.yul\":2782:2881   */\n    tag_163:\n        /* \"#utility.yul\":2834:2840   */\n      0x00\n        /* \"#utility.yul\":2868:2873   */\n      dup2\n        /* \"#utility.yul\":2862:2874   */\n      mload\n        /* \"#utility.yul\":2852:2874   */\n      swap1\n      pop\n        /* \"#utility.yul\":2782:2881   */\n      swap2\n      swap1\n      pop\n      jump\t// out\n        /* \"#utility.yul\":2887:3056   */\n    tag_164:\n        /* \"#utility.yul\":2971:2982   */\n      0x00\n        /* \"#utility.yul\":3005:3011   */\n      dup3\n        /* \"#utility.yul\":3000:3003   */\n      dup3\n        /* \"#utility.yul\":2993:3012   */\n      mstore\n        /* \"#utility.yul\":3045:3049   */\n      0x20\n        /* \"#utility.yul\":3040:3043   */\n      dup3\n        /* \"#utility.yul\":3036:3050   */\n      add\n        /* \"#utility.yul\":3021:3050   */\n      swap1\n      pop\n        /* \"#utility.yul\":2887:3056   */\n      swap3\n      swap2\n      pop\n      pop\n      jump\t// out\n        /* \"#utility.yul\":3062:3201   */\n    tag_165:\n        /* \"#utility.yul\":3151:3157   */\n      dup3\n        /* \"#utility.yul\":3146:3149   */\n      dup2\n        /* \"#utility.yul\":3141:3144   */\n      dup4\n        /* \"#utility.yul\":3135:3158   */\n      mcopy\n        /* \"#utility.yul\":3192:3193   */\n      0x00\n        /* \"#utility.yul\":3183:3189   */\n      dup4\n        /* \"#utility.yul\":3178:3181   */\n      dup4\n        /* \"#utility.yul\":3174:3190   */\n      add\n        /* \"#utility.yul\":3167:3194   */\n      mstore\n        /* \"#utility.yul\":3062:3201   */\n      pop\n      pop\n      pop\n      jump\t// out\n        /* \"#utility.yul\":3207:3309   */\n    tag_166:\n        /* \"#utility.yul\":3248:3254   */\n      0x00\n        /* \"#utility.yul\":3299:3301   */\n      0x1f\n        /* \"#utility.yul\":3295:3302   */\n      not\n        /* \"#utility.yul\":3290:3292   */\n      0x1f\n        /* \"#utility.yul\":3283:3288   */\n      dup4\n        /* \"#utility.yul\":3279:3293   */\n      add\n        /* \"#utility.yul\":3275:3303   */\n      and\n        /* \"#utility.yul\":3265:3303   */\n      swap1\n      pop\n        /* \"#utility.yul\":3207:3309   */\n      swap2\n      swap1\n      pop\n      jump\t// out\n        /* \"#utility.yul\":3315:3692   */\n    tag_167:\n        /* \"#utility.yul\":3403:3406   */\n      0x00\n        /* \"#utility.yul\":3431:3470   */\n      tag_259\n        /* \"#utility.yul\":3464:3469   */\n      dup3\n        /* \"#utility.yul\":3431:3470   */\n      tag_163\n      jump\t// in\n    tag_259:\n        /* \"#utility.yul\":3486:3557   */\n      tag_260\n        /* \"#utility.yul\":3550:3556   */\n      dup2\n        /* \"#utility.yul\":3545:3548   */\n      dup6\n        /* \"#utility.yul\":3486:3557   */\n      tag_164\n      jump\t// in\n    tag_260:\n        /* \"#utility.yul\":3479:3557   */\n      swap4\n      pop\n        /* \"#utility.yul\":3566:3631   */\n      tag_261\n        /* \"#utility.yul\":3624:3630   */\n      dup2\n        /* \"#utility.yul\":3619:3622   */\n      dup6\n        /* \"#utility.yul\":3612:3616   */\n      0x20\n        /* \"#utility.yul\":3605:3610   */\n      dup7\n        /* \"#utility.yul\":3601:3617   */\n      add\n        /* \"#utility.yul\":3566:3631   */\n      tag_165\n      jump\t// in\n    tag_261:\n        /* \"#utility.yul\":3656:3685   */\n      tag_262\n        /* \"#utility.yul\":3678:3684   */\n      dup2\n        /* \"#utility.yul\":3656:3685   */\n      tag_166\n      jump\t// in\n    tag_262:\n        /* \"#utility.yul\":3651:3654   */\n      dup5\n        /* \"#utility.yul\":3647:3686   */\n      add\n        /* \"#utility.yul\":3640:3686   */\n      swap2\n      pop\n        /* \"#utility.yul\":3407:3692   */\n      pop\n        /* \"#utility.yul\":3315:3692   */\n      swap3\n      swap2\n      pop\n      pop\n      jump\t// out\n        /* \"#utility.yul\":3698:3802   */\n    tag_168:\n        /* \"#utility.yul\":3743:3750   */\n      0x00\n        /* \"#utility.yul\":3772:3796   */\n      tag_264\n        /* \"#utility.yul\":3790:3795   */\n      dup3\n        /* \"#utility.yul\":3772:3796   */\n      tag_154\n      jump\t// in\n    tag_264:\n        /* \"#utility.yul\":3761:3796   */\n      swap1\n      pop\n        /* \"#utility.yul\":3698:3802   */\n      swap2\n      swap1\n      pop\n      jump\t// out\n        /* \"#utility.yul\":3808:3950   */\n    tag_169:\n        /* \"#utility.yul\":3911:3943   */\n      tag_266\n        /* \"#utility.yul\":3937:3942   */\n      dup2\n        /* \"#utility.yul\":3911:3943   */\n      tag_168\n      jump\t// in\n    tag_266:\n        /* \"#utility.yul\":3906:3909   */\n      dup3\n        /* \"#utility.yul\":3899:3944   */\n      mstore\n        /* \"#utility.yul\":3808:3950   */\n      pop\n      pop\n      jump\t// out\n        /* \"#utility.yul\":3956:4731   */\n    tag_63:\n        /* \"#utility.yul\":4191:4195   */\n      0x00\n        /* \"#utility.yul\":4229:4232   */\n      0xa0\n        /* \"#utility.yul\":4218:4227   */\n      dup3\n        /* \"#utility.yul\":4214:4233   */\n      add\n        /* \"#utility.yul\":4206:4233   */\n      swap1\n      pop\n        /* \"#utility.yul\":4243:4308   */\n      tag_268\n        /* \"#utility.yul\":4305:4306   */\n      0x00\n        /* \"#utility.yul\":4294:4303   */\n      dup4\n        /* \"#utility.yul\":4290:4307   */\n      add\n        /* \"#utility.yul\":4281:4287   */\n      dup9\n        /* \"#utility.yul\":4243:4308   */\n      tag_162\n      jump\t// in\n    tag_268:\n        /* \"#utility.yul\":4355:4364   */\n      dup2\n        /* \"#utility.yul\":4349:4353   */\n      dup2\n        /* \"#utility.yul\":4345:4365   */\n      sub\n        /* \"#utility.yul\":4340:4342   */\n      0x20\n        /* \"#utility.yul\":4329:4338   */\n      dup4\n        /* \"#utility.yul\":4325:4343   */\n      add\n        /* \"#utility.yul\":4318:4366   */\n      mstore\n        /* \"#utility.yul\":4383:4461   */\n      tag_269\n        /* \"#utility.yul\":4456:4460   */\n      dup2\n        /* \"#utility.yul\":4447:4453   */\n      dup8\n        /* \"#utility.yul\":4383:4461   */\n      tag_167\n      jump\t// in\n    tag_269:\n        /* \"#utility.yul\":4375:4461   */\n      swap1\n      pop\n        /* \"#utility.yul\":4471:4543   */\n      tag_270\n        /* \"#utility.yul\":4539:4541   */\n      0x40\n        /* \"#utility.yul\":4528:4537   */\n      dup4\n        /* \"#utility.yul\":4524:4542   */\n      add\n        /* \"#utility.yul\":4515:4521   */\n      dup7\n        /* \"#utility.yul\":4471:4543   */\n      tag_150\n      jump\t// in\n    tag_270:\n        /* \"#utility.yul\":4553:4641   */\n      tag_271\n        /* \"#utility.yul\":4637:4639   */\n      0x60\n        /* \"#utility.yul\":4626:4635   */\n      dup4\n        /* \"#utility.yul\":4622:4640   */\n      add\n        /* \"#utility.yul\":4613:4619   */\n      dup6\n        /* \"#utility.yul\":4553:4641   */\n      tag_169\n      jump\t// in\n    tag_271:\n        /* \"#utility.yul\":4651:4724   */\n      tag_272\n        /* \"#utility.yul\":4719:4722   */\n      0x80\n        /* \"#utility.yul\":4708:4717   */\n      dup4\n        /* \"#utility.yul\":4704:4723   */\n      add\n        /* \"#utility.yul\":4695:4701   */\n      dup5\n        /* \"#utility.yul\":4651:4724   */\n      tag_150\n      jump\t// in\n    tag_272:\n        /* \"#utility.yul\":3956:4731   */\n      swap7\n      swap6\n      pop\n      pop\n      pop\n      pop\n      pop\n      pop\n      jump\t// out\n        /* \"#utility.yul\":4737:4854   */\n    tag_170:\n        /* \"#utility.yul\":4846:4847   */\n      0x00\n        /* \"#utility.yul\":4843:4844   */\n      0x00\n        /* \"#utility.yul\":4836:4848   */\n      revert\n        /* \"#utility.yul\":4860:4977   */\n    tag_171:\n        /* \"#utility.yul\":4969:4970   */\n      0x00\n        /* \"#utility.yul\":4966:4967   */\n      0x00\n        /* \"#utility.yul\":4959:4971   */\n      revert\n        /* \"#utility.yul\":4983:5163   */\n    tag_172:\n        /* \"#utility.yul\":5031:5108   */\n      0x4e487b7100000000000000000000000000000000000000000000000000000000\n        /* \"#utility.yul\":5028:5029   */\n      0x00\n        /* \"#utility.yul\":5021:5109   */\n      mstore\n        /* \"#utility.yul\":5128:5132   */\n      0x41\n        /* \"#utility.yul\":5125:5126   */\n      0x04\n        /* \"#utility.yul\":5118:5133   */\n      mstore\n        /* \"#utility.yul\":5152:5156   */\n      0x24\n        /* \"#utility.yul\":5149:5150   */\n      0x00\n        /* \"#utility.yul\":5142:5157   */\n      revert\n        /* \"#utility.yul\":5169:5450   */\n    tag_173:\n        /* \"#utility.yul\":5252:5279   */\n      tag_277\n        /* \"#utility.yul\":5274:5278   */\n      dup3\n        /* \"#utility.yul\":5252:5279   */\n      tag_166\n      jump\t// in\n    tag_277:\n        /* \"#utility.yul\":5244:5250   */\n      dup2\n        /* \"#utility.yul\":5240:5280   */\n      add\n        /* \"#utility.yul\":5382:5388   */\n      dup2\n        /* \"#utility.yul\":5370:5380   */\n      dup2\n        /* \"#utility.yul\":5367:5389   */\n      lt\n        /* \"#utility.yul\":5346:5364   */\n      0xffffffffffffffff\n        /* \"#utility.yul\":5334:5344   */\n      dup3\n        /* \"#utility.yul\":5331:5365   */\n      gt\n        /* \"#utility.yul\":5328:5390   */\n      or\n        /* \"#utility.yul\":5325:5413   */\n      iszero\n      tag_278\n      jumpi\n        /* \"#utility.yul\":5393:5411   */\n      tag_279\n      tag_172\n      jump\t// in\n    tag_279:\n        /* \"#utility.yul\":5325:5413   */\n    tag_278:\n        /* \"#utility.yul\":5433:5443   */\n      dup1\n        /* \"#utility.yul\":5429:5431   */\n      0x40\n        /* \"#utility.yul\":5422:5444   */\n      mstore\n        /* \"#utility.yul\":5212:5450   */\n      pop\n        /* \"#utility.yul\":5169:5450   */\n      pop\n      pop\n      jump\t// out\n        /* \"#utility.yul\":5456:5585   */\n    tag_174:\n        /* \"#utility.yul\":5490:5496   */\n      0x00\n        /* \"#utility.yul\":5517:5537   */\n      tag_281\n      tag_151\n      jump\t// in\n    tag_281:\n        /* \"#utility.yul\":5507:5537   */\n      swap1\n      pop\n        /* \"#utility.yul\":5546:5579   */\n      tag_282\n        /* \"#utility.yul\":5574:5578   */\n      dup3\n        /* \"#utility.yul\":5566:5572   */\n      dup3\n        /* \"#utility.yul\":5546:5579   */\n      tag_173\n      jump\t// in\n    tag_282:\n        /* \"#utility.yul\":5456:5585   */\n      swap2\n      swap1\n      pop\n      jump\t// out\n        /* \"#utility.yul\":5591:5899   */\n    tag_175:\n        /* \"#utility.yul\":5653:5657   */\n      0x00\n        /* \"#utility.yul\":5743:5761   */\n      0xffffffffffffffff\n        /* \"#utility.yul\":5735:5741   */\n      dup3\n        /* \"#utility.yul\":5732:5762   */\n      gt\n        /* \"#utility.yul\":5729:5785   */\n      iszero\n      tag_284\n      jumpi\n        /* \"#utility.yul\":5765:5783   */\n      tag_285\n      tag_172\n      jump\t// in\n    tag_285:\n        /* \"#utility.yul\":5729:5785   */\n    tag_284:\n        /* \"#utility.yul\":5803:5832   */\n      tag_286\n        /* \"#utility.yul\":5825:5831   */\n      dup3\n        /* \"#utility.yul\":5803:5832   */\n      tag_166\n      jump\t// in\n    tag_286:\n        /* \"#utility.yul\":5795:5832   */\n      swap1\n      pop\n        /* \"#utility.yul\":5887:5891   */\n      0x20\n        /* \"#utility.yul\":5881:5885   */\n      dup2\n        /* \"#utility.yul\":5877:5892   */\n      add\n        /* \"#utility.yul\":5869:5892   */\n      swap1\n      pop\n        /* \"#utility.yul\":5591:5899   */\n      swap2\n      swap1\n      pop\n      jump\t// out\n        /* \"#utility.yul\":5905:6053   */\n    tag_176:\n        /* \"#utility.yul\":6003:6009   */\n      dup3\n        /* \"#utility.yul\":5998:6001   */\n      dup2\n        /* \"#utility.yul\":5993:5996   */\n      dup4\n        /* \"#utility.yul\":5980:6010   */\n      calldatacopy\n        /* \"#utility.yul\":6044:6045   */\n      0x00\n        /* \"#utility.yul\":6035:6041   */\n      dup4\n        /* \"#utility.yul\":6030:6033   */\n      dup4\n        /* \"#utility.yul\":6026:6042   */\n      add\n        /* \"#utility.yul\":6019:6046   */\n      mstore\n        /* \"#utility.yul\":5905:6053   */\n      pop\n      pop\n      pop\n      jump\t// out\n        /* \"#utility.yul\":6059:6484   */\n    tag_177:\n        /* \"#utility.yul\":6137:6142   */\n      0x00\n        /* \"#utility.yul\":6162:6228   */\n      tag_289\n        /* \"#utility.yul\":6178:6227   */\n      tag_290\n        /* \"#utility.yul\":6220:6226   */\n      dup5\n        /* \"#utility.yul\":6178:6227   */\n      tag_175\n      jump\t// in\n    tag_290:\n        /* \"#utility.yul\":6162:6228   */\n      tag_174\n      jump\t// in\n    tag_289:\n        /* \"#utility.yul\":6153:6228   */\n      swap1\n      pop\n        /* \"#utility.yul\":6251:6257   */\n      dup3\n        /* \"#utility.yul\":6244:6249   */\n      dup2\n        /* \"#utility.yul\":6237:6258   */\n      mstore\n        /* \"#utility.yul\":6289:6293   */\n      0x20\n        /* \"#utility.yul\":6282:6287   */\n      dup2\n        /* \"#utility.yul\":6278:6294   */\n      add\n        /* \"#utility.yul\":6327:6330   */\n      dup5\n        /* \"#utility.yul\":6318:6324   */\n      dup5\n        /* \"#utility.yul\":6313:6316   */\n      dup5\n        /* \"#utility.yul\":6309:6325   */\n      add\n        /* \"#utility.yul\":6306:6331   */\n      gt\n        /* \"#utility.yul\":6303:6415   */\n      iszero\n      tag_291\n      jumpi\n        /* \"#utility.yul\":6334:6413   */\n      tag_292\n      tag_171\n      jump\t// in\n    tag_292:\n        /* \"#utility.yul\":6303:6415   */\n    tag_291:\n        /* \"#utility.yul\":6424:6478   */\n      tag_293\n        /* \"#utility.yul\":6471:6477   */\n      dup5\n        /* \"#utility.yul\":6466:6469   */\n      dup3\n        /* \"#utility.yul\":6461:6464   */\n      dup6\n        /* \"#utility.yul\":6424:6478   */\n      tag_176\n      jump\t// in\n    tag_293:\n        /* \"#utility.yul\":6143:6484   */\n      pop\n        /* \"#utility.yul\":6059:6484   */\n      swap4\n      swap3\n      pop\n      pop\n      pop\n      jump\t// out\n        /* \"#utility.yul\":6504:6844   */\n    tag_178:\n        /* \"#utility.yul\":6560:6565   */\n      0x00\n        /* \"#utility.yul\":6609:6612   */\n      dup3\n        /* \"#utility.yul\":6602:6606   */\n      0x1f\n        /* \"#utility.yul\":6594:6600   */\n      dup4\n        /* \"#utility.yul\":6590:6607   */\n      add\n        /* \"#utility.yul\":6586:6613   */\n      slt\n        /* \"#utility.yul\":6576:6698   */\n      tag_295\n      jumpi\n        /* \"#utility.yul\":6617:6696   */\n      tag_296\n      tag_170\n      jump\t// in\n    tag_296:\n        /* \"#utility.yul\":6576:6698   */\n    tag_295:\n        /* \"#utility.yul\":6734:6740   */\n      dup2\n        /* \"#utility.yul\":6721:6741   */\n      calldataload\n        /* \"#utility.yul\":6759:6838   */\n      tag_297\n        /* \"#utility.yul\":6834:6837   */\n      dup5\n        /* \"#utility.yul\":6826:6832   */\n      dup3\n        /* \"#utility.yul\":6819:6823   */\n      0x20\n        /* \"#utility.yul\":6811:6817   */\n      dup7\n        /* \"#utility.yul\":6807:6824   */\n      add\n        /* \"#utility.yul\":6759:6838   */\n      tag_177\n      jump\t// in\n    tag_297:\n        /* \"#utility.yul\":6750:6838   */\n      swap2\n      pop\n        /* \"#utility.yul\":6566:6844   */\n      pop\n        /* \"#utility.yul\":6504:6844   */\n      swap3\n      swap2\n      pop\n      pop\n      jump\t// out\n        /* \"#utility.yul\":6850:6988   */\n    tag_179:\n        /* \"#utility.yul\":6931:6963   */\n      tag_299\n        /* \"#utility.yul\":6957:6962   */\n      dup2\n        /* \"#utility.yul\":6931:6963   */\n      tag_168\n      jump\t// in\n    tag_299:\n        /* \"#utility.yul\":6924:6929   */\n      dup2\n        /* \"#utility.yul\":6921:6964   */\n      eq\n        /* \"#utility.yul\":6911:6982   */\n      tag_300\n      jumpi\n        /* \"#utility.yul\":6978:6979   */\n      0x00\n        /* \"#utility.yul\":6975:6976   */\n      0x00\n        /* \"#utility.yul\":6968:6980   */\n      revert\n        /* \"#utility.yul\":6911:6982   */\n    tag_300:\n        /* \"#utility.yul\":6850:6988   */\n      pop\n      jump\t// out\n        /* \"#utility.yul\":6994:7149   */\n    tag_180:\n        /* \"#utility.yul\":7048:7053   */\n      0x00\n        /* \"#utility.yul\":7086:7092   */\n      dup2\n        /* \"#utility.yul\":7073:7093   */\n      calldataload\n        /* \"#utility.yul\":7064:7093   */\n      swap1\n      pop\n        /* \"#utility.yul\":7102:7143   */\n      tag_302\n        /* \"#utility.yul\":7137:7142   */\n      dup2\n        /* \"#utility.yul\":7102:7143   */\n      tag_179\n      jump\t// in\n    tag_302:\n        /* \"#utility.yul\":6994:7149   */\n      swap3\n      swap2\n      pop\n      pop\n      jump\t// out\n        /* \"#utility.yul\":7155:7970   */\n    tag_67:\n        /* \"#utility.yul\":7250:7256   */\n      0x00\n        /* \"#utility.yul\":7258:7264   */\n      0x00\n        /* \"#utility.yul\":7266:7272   */\n      0x00\n        /* \"#utility.yul\":7315:7317   */\n      0x60\n        /* \"#utility.yul\":7303:7312   */\n      dup5\n        /* \"#utility.yul\":7294:7301   */\n      dup7\n        /* \"#utility.yul\":7290:7313   */\n      sub\n        /* \"#utility.yul\":7286:7318   */\n      slt\n        /* \"#utility.yul\":7283:7402   */\n      iszero\n      tag_304\n      jumpi\n        /* \"#utility.yul\":7321:7400   */\n      tag_305\n      tag_152\n      jump\t// in\n    tag_305:\n        /* \"#utility.yul\":7283:7402   */\n    tag_304:\n        /* \"#utility.yul\":7469:7470   */\n      0x00\n        /* \"#utility.yul\":7458:7467   */\n      dup5\n        /* \"#utility.yul\":7454:7471   */\n      add\n        /* \"#utility.yul\":7441:7472   */\n      calldataload\n        /* \"#utility.yul\":7499:7517   */\n      0xffffffffffffffff\n        /* \"#utility.yul\":7491:7497   */\n      dup2\n        /* \"#utility.yul\":7488:7518   */\n      gt\n        /* \"#utility.yul\":7485:7602   */\n      iszero\n      tag_306\n      jumpi\n        /* \"#utility.yul\":7521:7600   */\n      tag_307\n      tag_153\n      jump\t// in\n    tag_307:\n        /* \"#utility.yul\":7485:7602   */\n    tag_306:\n        /* \"#utility.yul\":7626:7689   */\n      tag_308\n        /* \"#utility.yul\":7681:7688   */\n      dup7\n        /* \"#utility.yul\":7672:7678   */\n      dup3\n        /* \"#utility.yul\":7661:7670   */\n      dup8\n        /* \"#utility.yul\":7657:7679   */\n      add\n        /* \"#utility.yul\":7626:7689   */\n      tag_178\n      jump\t// in\n    tag_308:\n        /* \"#utility.yul\":7616:7689   */\n      swap4\n      pop\n        /* \"#utility.yul\":7412:7699   */\n      pop\n        /* \"#utility.yul\":7738:7740   */\n      0x20\n        /* \"#utility.yul\":7764:7817   */\n      tag_309\n        /* \"#utility.yul\":7809:7816   */\n      dup7\n        /* \"#utility.yul\":7800:7806   */\n      dup3\n        /* \"#utility.yul\":7789:7798   */\n      dup8\n        /* \"#utility.yul\":7785:7807   */\n      add\n        /* \"#utility.yul\":7764:7817   */\n      tag_159\n      jump\t// in\n    tag_309:\n        /* \"#utility.yul\":7754:7817   */\n      swap3\n      pop\n        /* \"#utility.yul\":7709:7827   */\n      pop\n        /* \"#utility.yul\":7866:7868   */\n      0x40\n        /* \"#utility.yul\":7892:7953   */\n      tag_310\n        /* \"#utility.yul\":7945:7952   */\n      dup7\n        /* \"#utility.yul\":7936:7942   */\n      dup3\n        /* \"#utility.yul\":7925:7934   */\n      dup8\n        /* \"#utility.yul\":7921:7943   */\n      add\n        /* \"#utility.yul\":7892:7953   */\n      tag_180\n      jump\t// in\n    tag_310:\n        /* \"#utility.yul\":7882:7953   */\n      swap2\n      pop\n        /* \"#utility.yul\":7837:7963   */\n      pop\n        /* \"#utility.yul\":7155:7970   */\n      swap3\n      pop\n      swap3\n      pop\n      swap3\n      jump\t// out\n        /* \"#utility.yul\":7976:8143   */\n    tag_181:\n        /* \"#utility.yul\":8116:8135   */\n      0x46756e64696e672074696d65206f766572000000000000000000000000000000\n        /* \"#utility.yul\":8112:8113   */\n      0x00\n        /* \"#utility.yul\":8104:8110   */\n      dup3\n        /* \"#utility.yul\":8100:8114   */\n      add\n        /* \"#utility.yul\":8093:8136   */\n      mstore\n        /* \"#utility.yul\":7976:8143   */\n      pop\n      jump\t// out\n        /* \"#utility.yul\":8149:8515   */\n    tag_182:\n        /* \"#utility.yul\":8291:8294   */\n      0x00\n        /* \"#utility.yul\":8312:8379   */\n      tag_313\n        /* \"#utility.yul\":8376:8378   */\n      0x11\n        /* \"#utility.yul\":8371:8374   */\n      dup4\n        /* \"#utility.yul\":8312:8379   */\n      tag_164\n      jump\t// in\n    tag_313:\n        /* \"#utility.yul\":8305:8379   */\n      swap2\n      pop\n        /* \"#utility.yul\":8388:8481   */\n      tag_314\n        /* \"#utility.yul\":8477:8480   */\n      dup3\n        /* \"#utility.yul\":8388:8481   */\n      tag_181\n      jump\t// in\n    tag_314:\n        /* \"#utility.yul\":8506:8508   */\n      0x20\n        /* \"#utility.yul\":8501:8504   */\n      dup3\n        /* \"#utility.yul\":8497:8509   */\n      add\n        /* \"#utility.yul\":8490:8509   */\n      swap1\n      pop\n        /* \"#utility.yul\":8149:8515   */\n      swap2\n      swap1\n      pop\n      jump\t// out\n        /* \"#utility.yul\":8521:8940   */\n    tag_88:\n        /* \"#utility.yul\":8687:8691   */\n      0x00\n        /* \"#utility.yul\":8725:8727   */\n      0x20\n        /* \"#utility.yul\":8714:8723   */\n      dup3\n        /* \"#utility.yul\":8710:8728   */\n      add\n        /* \"#utility.yul\":8702:8728   */\n      swap1\n      pop\n        /* \"#utility.yul\":8774:8783   */\n      dup2\n        /* \"#utility.yul\":8768:8772   */\n      dup2\n        /* \"#utility.yul\":8764:8784   */\n      sub\n        /* \"#utility.yul\":8760:8761   */\n      0x00\n        /* \"#utility.yul\":8749:8758   */\n      dup4\n        /* \"#utility.yul\":8745:8762   */\n      add\n        /* \"#utility.yul\":8738:8785   */\n      mstore\n        /* \"#utility.yul\":8802:8933   */\n      tag_316\n        /* \"#utility.yul\":8928:8932   */\n      dup2\n        /* \"#utility.yul\":8802:8933   */\n      tag_182\n      jump\t// in\n    tag_316:\n        /* \"#utility.yul\":8794:8933   */\n      swap1\n      pop\n        /* \"#utility.yul\":8521:8940   */\n      swap2\n      swap1\n      pop\n      jump\t// out\n        /* \"#utility.yul\":8946:9124   */\n    tag_183:\n        /* \"#utility.yul\":9086:9116   */\n      0x6d696e696d756d20636f6e747269627574696f6e206e6f74206d657400000000\n        /* \"#utility.yul\":9082:9083   */\n      0x00\n        /* \"#utility.yul\":9074:9080   */\n      dup3\n        /* \"#utility.yul\":9070:9084   */\n      add\n        /* \"#utility.yul\":9063:9117   */\n      mstore\n        /* \"#utility.yul\":8946:9124   */\n      pop\n      jump\t// out\n        /* \"#utility.yul\":9130:9496   */\n    tag_184:\n        /* \"#utility.yul\":9272:9275   */\n      0x00\n        /* \"#utility.yul\":9293:9360   */\n      tag_319\n        /* \"#utility.yul\":9357:9359   */\n      0x1c\n        /* \"#utility.yul\":9352:9355   */\n      dup4\n        /* \"#utility.yul\":9293:9360   */\n      tag_164\n      jump\t// in\n    tag_319:\n        /* \"#utility.yul\":9286:9360   */\n      swap2\n      pop\n        /* \"#utility.yul\":9369:9462   */\n      tag_320\n        /* \"#utility.yul\":9458:9461   */\n      dup3\n        /* \"#utility.yul\":9369:9462   */\n      tag_183\n      jump\t// in\n    tag_320:\n        /* \"#utility.yul\":9487:9489   */\n      0x20\n        /* \"#utility.yul\":9482:9485   */\n      dup3\n        /* \"#utility.yul\":9478:9490   */\n      add\n        /* \"#utility.yul\":9471:9490   */\n      swap1\n      pop\n        /* \"#utility.yul\":9130:9496   */\n      swap2\n      swap1\n      pop\n      jump\t// out\n        /* \"#utility.yul\":9502:9921   */\n    tag_91:\n        /* \"#utility.yul\":9668:9672   */\n      0x00\n        /* \"#utility.yul\":9706:9708   */\n      0x20\n        /* \"#utility.yul\":9695:9704   */\n      dup3\n        /* \"#utility.yul\":9691:9709   */\n      add\n        /* \"#utility.yul\":9683:9709   */\n      swap1\n      pop\n        /* \"#utility.yul\":9755:9764   */\n      dup2\n        /* \"#utility.yul\":9749:9753   */\n      dup2\n        /* \"#utility.yul\":9745:9765   */\n      sub\n        /* \"#utility.yul\":9741:9742   */\n      0x00\n        /* \"#utility.yul\":9730:9739   */\n      dup4\n        /* \"#utility.yul\":9726:9743   */\n      add\n        /* \"#utility.yul\":9719:9766   */\n      mstore\n        /* \"#utility.yul\":9783:9914   */\n      tag_322\n        /* \"#utility.yul\":9909:9913   */\n      dup2\n        /* \"#utility.yul\":9783:9914   */\n      tag_184\n      jump\t// in\n    tag_322:\n        /* \"#utility.yul\":9775:9914   */\n      swap1\n      pop\n        /* \"#utility.yul\":9502:9921   */\n      swap2\n      swap1\n      pop\n      jump\t// out\n        /* \"#utility.yul\":9927:10107   */\n    tag_185:\n        /* \"#utility.yul\":9975:10052   */\n      0x4e487b7100000000000000000000000000000000000000000000000000000000\n        /* \"#utility.yul\":9972:9973   */\n      0x00\n        /* \"#utility.yul\":9965:10053   */\n      mstore\n        /* \"#utility.yul\":10072:10076   */\n      0x11\n        /* \"#utility.yul\":10069:10070   */\n      0x04\n        /* \"#utility.yul\":10062:10077   */\n      mstore\n        /* \"#utility.yul\":10096:10100   */\n      0x24\n        /* \"#utility.yul\":10093:10094   */\n      0x00\n        /* \"#utility.yul\":10086:10101   */\n      revert\n        /* \"#utility.yul\":10113:10346   */\n    tag_94:\n        /* \"#utility.yul\":10152:10155   */\n      0x00\n        /* \"#utility.yul\":10175:10199   */\n      tag_325\n        /* \"#utility.yul\":10193:10198   */\n      dup3\n        /* \"#utility.yul\":10175:10199   */\n      tag_149\n      jump\t// in\n    tag_325:\n        /* \"#utility.yul\":10166:10199   */\n      swap2\n      pop\n        /* \"#utility.yul\":10221:10287   */\n      0xffffffffffffffffffffffffffffffffffffffffffffffffffffffffffffffff\n        /* \"#utility.yul\":10214:10219   */\n      dup3\n        /* \"#utility.yul\":10211:10288   */\n      sub\n        /* \"#utility.yul\":10208:10311   */\n      tag_326\n      jumpi\n        /* \"#utility.yul\":10291:10309   */\n      tag_327\n      tag_185\n      jump\t// in\n    tag_327:\n        /* \"#utility.yul\":10208:10311   */\n    tag_326:\n        /* \"#utility.yul\":10338:10339   */\n      0x01\n        /* \"#utility.yul\":10331:10336   */\n      dup3\n        /* \"#utility.yul\":10327:10340   */\n      add\n        /* \"#utility.yul\":10320:10340   */\n      swap1\n      pop\n        /* \"#utility.yul\":10113:10346   */\n      swap2\n      swap1\n      pop\n      jump\t// out\n        /* \"#utility.yul\":10352:10543   */\n    tag_96:\n        /* \"#utility.yul\":10392:10395   */\n      0x00\n        /* \"#utility.yul\":10411:10431   */\n      tag_329\n        /* \"#utility.yul\":10429:10430   */\n      dup3\n        /* \"#utility.yul\":10411:10431   */\n      tag_149\n      jump\t// in\n    tag_329:\n        /* \"#utility.yul\":10406:10431   */\n      swap2\n      pop\n        /* \"#utility.yul\":10445:10465   */\n      tag_330\n        /* \"#utility.yul\":10463:10464   */\n      dup4\n        /* \"#utility.yul\":10445:10465   */\n      tag_149\n      jump\t// in\n    tag_330:\n        /* \"#utility.yul\":10440:10465   */\n      swap3\n      pop\n        /* \"#utility.yul\":10488:10489   */\n      dup3\n        /* \"#utility.yul\":10485:10486   */\n      dup3\n        /* \"#utility.yul\":10481:10490   */\n      add\n        /* \"#utility.yul\":10474:10490   */\n      swap1\n      pop\n        /* \"#utility.yul\":10509:10512   */\n      dup1\n        /* \"#utility.yul\":10506:10507   */\n      dup3\n        /* \"#utility.yul\":10503:10513   */\n      gt\n        /* \"#utility.yul\":10500:10536   */\n      iszero\n      tag_331\n      jumpi\n        /* \"#utility.yul\":10516:10534   */\n      tag_332\n      tag_185\n      jump\t// in\n    tag_332:\n        /* \"#utility.yul\":10500:10536   */\n    tag_331:\n        /* \"#utility.yul\":10352:10543   */\n      swap3\n      swap2\n      pop\n      pop\n      jump\t// out\n        /* \"#utility.yul\":10549:10724   */\n    tag_186:\n        /* \"#utility.yul\":10689:10716   */\n      0x596f7520617265206e6f74206120636f6e7472696275746f7200000000000000\n        /* \"#utility.yul\":10685:10686   */\n      0x00\n        /* \"#utility.yul\":10677:10683   */\n      dup3\n        /* \"#utility.yul\":10673:10687   */\n      add\n        /* \"#utility.yul\":10666:10717   */\n      mstore\n        /* \"#utility.yul\":10549:10724   */\n      pop\n      jump\t// out\n        /* \"#utility.yul\":10730:11096   */\n    tag_187:\n        /* \"#utility.yul\":10872:10875   */\n      0x00\n        /* \"#utility.yul\":10893:10960   */\n      tag_335\n        /* \"#utility.yul\":10957:10959   */\n      0x19\n        /* \"#utility.yul\":10952:10955   */\n      dup4\n        /* \"#utility.yul\":10893:10960   */\n      tag_164\n      jump\t// in\n    tag_335:\n        /* \"#utility.yul\":10886:10960   */\n      swap2\n      pop\n        /* \"#utility.yul\":10969:11062   */\n      tag_336\n        /* \"#utility.yul\":11058:11061   */\n      dup3\n        /* \"#utility.yul\":10969:11062   */\n      tag_186\n      jump\t// in\n    tag_336:\n        /* \"#utility.yul\":11087:11089   */\n      0x20\n        /* \"#utility.yul\":11082:11085   */\n      dup3\n        /* \"#utility.yul\":11078:11090   */\n      add\n        /* \"#utility.yul\":11071:11090   */\n      swap1\n      pop\n        /* \"#utility.yul\":10730:11096   */\n      swap2\n      swap1\n      pop\n      jump\t// out\n        /* \"#utility.yul\":11102:11521   */\n    tag_102:\n        /* \"#utility.yul\":11268:11272   */\n      0x00\n        /* \"#utility.yul\":11306:11308   */\n      0x20\n        /* \"#utility.yul\":11295:11304   */\n      dup3\n        /* \"#utility.yul\":11291:11309   */\n      add\n        /* \"#utility.yul\":11283:11309   */\n      swap1\n      pop\n        /* \"#utility.yul\":11355:11364   */\n      dup2\n        /* \"#utility.yul\":11349:11353   */\n      dup2\n        /* \"#utility.yul\":11345:11365   */\n      sub\n        /* \"#utility.yul\":11341:11342   */\n      0x00\n        /* \"#utility.yul\":11330:11339   */\n      dup4\n        /* \"#utility.yul\":11326:11343   */\n      add\n        /* \"#utility.yul\":11319:11366   */\n      mstore\n        /* \"#utility.yul\":11383:11514   */\n      tag_338\n        /* \"#utility.yul\":11509:11513   */\n      dup2\n        /* \"#utility.yul\":11383:11514   */\n      tag_187\n      jump\t// in\n    tag_338:\n        /* \"#utility.yul\":11375:11514   */\n      swap1\n      pop\n        /* \"#utility.yul\":11102:11521   */\n      swap2\n      swap1\n      pop\n      jump\t// out\n        /* \"#utility.yul\":11527:11697   */\n    tag_188:\n        /* \"#utility.yul\":11667:11689   */\n      0x796f7520617265206e6f7420766f746520796574000000000000000000000000\n        /* \"#utility.yul\":11663:11664   */\n      0x00\n        /* \"#utility.yul\":11655:11661   */\n      dup3\n        /* \"#utility.yul\":11651:11665   */\n      add\n        /* \"#utility.yul\":11644:11690   */\n      mstore\n        /* \"#utility.yul\":11527:11697   */\n      pop\n      jump\t// out\n        /* \"#utility.yul\":11703:12069   */\n    tag_189:\n        /* \"#utility.yul\":11845:11848   */\n      0x00\n        /* \"#utility.yul\":11866:11933   */\n      tag_341\n        /* \"#utility.yul\":11930:11932   */\n      0x14\n        /* \"#utility.yul\":11925:11928   */\n      dup4\n        /* \"#utility.yul\":11866:11933   */\n      tag_164\n      jump\t// in\n    tag_341:\n        /* \"#utility.yul\":11859:11933   */\n      swap2\n      pop\n        /* \"#utility.yul\":11942:12035   */\n      tag_342\n        /* \"#utility.yul\":12031:12034   */\n      dup3\n        /* \"#utility.yul\":11942:12035   */\n      tag_188\n      jump\t// in\n    tag_342:\n        /* \"#utility.yul\":12060:12062   */\n      0x20\n        /* \"#utility.yul\":12055:12058   */\n      dup3\n        /* \"#utility.yul\":12051:12063   */\n      add\n        /* \"#utility.yul\":12044:12063   */\n      swap1\n      pop\n        /* \"#utility.yul\":11703:12069   */\n      swap2\n      swap1\n      pop\n      jump\t// out\n        /* \"#utility.yul\":12075:12494   */\n    tag_105:\n        /* \"#utility.yul\":12241:12245   */\n      0x00\n        /* \"#utility.yul\":12279:12281   */\n      0x20\n        /* \"#utility.yul\":12268:12277   */\n      dup3\n        /* \"#utility.yul\":12264:12282   */\n      add\n        /* \"#utility.yul\":12256:12282   */\n      swap1\n      pop\n        /* \"#utility.yul\":12328:12337   */\n      dup2\n        /* \"#utility.yul\":12322:12326   */\n      dup2\n        /* \"#utility.yul\":12318:12338   */\n      sub\n        /* \"#utility.yul\":12314:12315   */\n      0x00\n        /* \"#utility.yul\":12303:12312   */\n      dup4\n        /* \"#utility.yul\":12299:12316   */\n      add\n        /* \"#utility.yul\":12292:12339   */\n      mstore\n        /* \"#utility.yul\":12356:12487   */\n      tag_344\n        /* \"#utility.yul\":12482:12486   */\n      dup2\n        /* \"#utility.yul\":12356:12487   */\n      tag_189\n      jump\t// in\n    tag_344:\n        /* \"#utility.yul\":12348:12487   */\n      swap1\n      pop\n        /* \"#utility.yul\":12075:12494   */\n      swap2\n      swap1\n      pop\n      jump\t// out\n        /* \"#utility.yul\":12500:12720   */\n    tag_190:\n        /* \"#utility.yul\":12640:12674   */\n      0x4f6e6c79206f7267616e697a65722063616c6c20746869732066756e6374696f\n        /* \"#utility.yul\":12636:12637   */\n      0x00\n        /* \"#utility.yul\":12628:12634   */\n      dup3\n        /* \"#utility.yul\":12624:12638   */\n      add\n        /* \"#utility.yul\":12617:12675   */\n      mstore\n        /* \"#utility.yul\":12709:12712   */\n      0x6e00000000000000000000000000000000000000000000000000000000000000\n        /* \"#utility.yul\":12704:12706   */\n      0x20\n        /* \"#utility.yul\":12696:12702   */\n      dup3\n        /* \"#utility.yul\":12692:12707   */\n      add\n        /* \"#utility.yul\":12685:12713   */\n      mstore\n        /* \"#utility.yul\":12500:12720   */\n      pop\n      jump\t// out\n        /* \"#utility.yul\":12726:13092   */\n    tag_191:\n        /* \"#utility.yul\":12868:12871   */\n      0x00\n        /* \"#utility.yul\":12889:12956   */\n      tag_347\n        /* \"#utility.yul\":12953:12955   */\n      0x21\n        /* \"#utility.yul\":12948:12951   */\n      dup4\n        /* \"#utility.yul\":12889:12956   */\n      tag_164\n      jump\t// in\n    tag_347:\n        /* \"#utility.yul\":12882:12956   */\n      swap2\n      pop\n        /* \"#utility.yul\":12965:13058   */\n      tag_348\n        /* \"#utility.yul\":13054:13057   */\n      dup3\n        /* \"#utility.yul\":12965:13058   */\n      tag_190\n      jump\t// in\n    tag_348:\n        /* \"#utility.yul\":13083:13085   */\n      0x40\n        /* \"#utility.yul\":13078:13081   */\n      dup3\n        /* \"#utility.yul\":13074:13086   */\n      add\n        /* \"#utility.yul\":13067:13086   */\n      swap1\n      pop\n        /* \"#utility.yul\":12726:13092   */\n      swap2\n      swap1\n      pop\n      jump\t// out\n        /* \"#utility.yul\":13098:13517   */\n    tag_110:\n        /* \"#utility.yul\":13264:13268   */\n      0x00\n        /* \"#utility.yul\":13302:13304   */\n      0x20\n        /* \"#utility.yul\":13291:13300   */\n      dup3\n        /* \"#utility.yul\":13287:13305   */\n      add\n        /* \"#utility.yul\":13279:13305   */\n      swap1\n      pop\n        /* \"#utility.yul\":13351:13360   */\n      dup2\n        /* \"#utility.yul\":13345:13349   */\n      dup2\n        /* \"#utility.yul\":13341:13361   */\n      sub\n        /* \"#utility.yul\":13337:13338   */\n      0x00\n        /* \"#utility.yul\":13326:13335   */\n      dup4\n        /* \"#utility.yul\":13322:13339   */\n      add\n        /* \"#utility.yul\":13315:13362   */\n      mstore\n        /* \"#utility.yul\":13379:13510   */\n      tag_350\n        /* \"#utility.yul\":13505:13509   */\n      dup2\n        /* \"#utility.yul\":13379:13510   */\n      tag_191\n      jump\t// in\n    tag_350:\n        /* \"#utility.yul\":13371:13510   */\n      swap1\n      pop\n        /* \"#utility.yul\":13098:13517   */\n      swap2\n      swap1\n      pop\n      jump\t// out\n        /* \"#utility.yul\":13523:13690   */\n    tag_192:\n        /* \"#utility.yul\":13663:13682   */\n      0x746172676574206973206e6f74206d6574000000000000000000000000000000\n        /* \"#utility.yul\":13659:13660   */\n      0x00\n        /* \"#utility.yul\":13651:13657   */\n      dup3\n        /* \"#utility.yul\":13647:13661   */\n      add\n        /* \"#utility.yul\":13640:13683   */\n      mstore\n        /* \"#utility.yul\":13523:13690   */\n      pop\n      jump\t// out\n        /* \"#utility.yul\":13696:14062   */\n    tag_193:\n        /* \"#utility.yul\":13838:13841   */\n      0x00\n        /* \"#utility.yul\":13859:13926   */\n      tag_353\n        /* \"#utility.yul\":13923:13925   */\n      0x11\n        /* \"#utility.yul\":13918:13921   */\n      dup4\n        /* \"#utility.yul\":13859:13926   */\n      tag_164\n      jump\t// in\n    tag_353:\n        /* \"#utility.yul\":13852:13926   */\n      swap2\n      pop\n        /* \"#utility.yul\":13935:14028   */\n      tag_354\n        /* \"#utility.yul\":14024:14027   */\n      dup3\n        /* \"#utility.yul\":13935:14028   */\n      tag_192\n      jump\t// in\n    tag_354:\n        /* \"#utility.yul\":14053:14055   */\n      0x20\n        /* \"#utility.yul\":14048:14051   */\n      dup3\n        /* \"#utility.yul\":14044:14056   */\n      add\n        /* \"#utility.yul\":14037:14056   */\n      swap1\n      pop\n        /* \"#utility.yul\":13696:14062   */\n      swap2\n      swap1\n      pop\n      jump\t// out\n        /* \"#utility.yul\":14068:14487   */\n    tag_114:\n        /* \"#utility.yul\":14234:14238   */\n      0x00\n        /* \"#utility.yul\":14272:14274   */\n      0x20\n        /* \"#utility.yul\":14261:14270   */\n      dup3\n        /* \"#utility.yul\":14257:14275   */\n      add\n        /* \"#utility.yul\":14249:14275   */\n      swap1\n      pop\n        /* \"#utility.yul\":14321:14330   */\n      dup2\n        /* \"#utility.yul\":14315:14319   */\n      dup2\n        /* \"#utility.yul\":14311:14331   */\n      sub\n        /* \"#utility.yul\":14307:14308   */\n      0x00\n        /* \"#utility.yul\":14296:14305   */\n      dup4\n        /* \"#utility.yul\":14292:14309   */\n      add\n        /* \"#utility.yul\":14285:14332   */\n      mstore\n        /* \"#utility.yul\":14349:14480   */\n      tag_356\n        /* \"#utility.yul\":14475:14479   */\n      dup2\n        /* \"#utility.yul\":14349:14480   */\n      tag_193\n      jump\t// in\n    tag_356:\n        /* \"#utility.yul\":14341:14480   */\n      swap1\n      pop\n        /* \"#utility.yul\":14068:14487   */\n      swap2\n      swap1\n      pop\n      jump\t// out\n        /* \"#utility.yul\":14493:14667   */\n    tag_194:\n        /* \"#utility.yul\":14633:14659   */\n      0x746865207265717565737420697320636f6d706c657465640000000000000000\n        /* \"#utility.yul\":14629:14630   */\n      0x00\n        /* \"#utility.yul\":14621:14627   */\n      dup3\n        /* \"#utility.yul\":14617:14631   */\n      add\n        /* \"#utility.yul\":14610:14660   */\n      mstore\n        /* \"#utility.yul\":14493:14667   */\n      pop\n      jump\t// out\n        /* \"#utility.yul\":14673:15039   */\n    tag_195:\n        /* \"#utility.yul\":14815:14818   */\n      0x00\n        /* \"#utility.yul\":14836:14903   */\n      tag_359\n        /* \"#utility.yul\":14900:14902   */\n      0x18\n        /* \"#utility.yul\":14895:14898   */\n      dup4\n        /* \"#utility.yul\":14836:14903   */\n      tag_164\n      jump\t// in\n    tag_359:\n        /* \"#utility.yul\":14829:14903   */\n      swap2\n      pop\n        /* \"#utility.yul\":14912:15005   */\n      tag_360\n        /* \"#utility.yul\":15001:15004   */\n      dup3\n        /* \"#utility.yul\":14912:15005   */\n      tag_194\n      jump\t// in\n    tag_360:\n        /* \"#utility.yul\":15030:15032   */\n      0x20\n        /* \"#utility.yul\":15025:15028   */\n      dup3\n        /* \"#utility.yul\":15021:15033   */\n      add\n        /* \"#utility.yul\":15014:15033   */\n      swap1\n      pop\n        /* \"#utility.yul\":14673:15039   */\n      swap2\n      swap1\n      pop\n      jump\t// out\n        /* \"#utility.yul\":15045:15464   */\n    tag_117:\n        /* \"#utility.yul\":15211:15215   */\n      0x00\n        /* \"#utility.yul\":15249:15251   */\n      0x20\n        /* \"#utility.yul\":15238:15247   */\n      dup3\n        /* \"#utility.yul\":15234:15252   */\n      add\n        /* \"#utility.yul\":15226:15252   */\n      swap1\n      pop\n        /* \"#utility.yul\":15298:15307   */\n      dup2\n        /* \"#utility.yul\":15292:15296   */\n      dup2\n        /* \"#utility.yul\":15288:15308   */\n      sub\n        /* \"#utility.yul\":15284:15285   */\n      0x00\n        /* \"#utility.yul\":15273:15282   */\n      dup4\n        /* \"#utility.yul\":15269:15286   */\n      add\n        /* \"#utility.yul\":15262:15309   */\n      mstore\n        /* \"#utility.yul\":15326:15457   */\n      tag_362\n        /* \"#utility.yul\":15452:15456   */\n      dup2\n        /* \"#utility.yul\":15326:15457   */\n      tag_195\n      jump\t// in\n    tag_362:\n        /* \"#utility.yul\":15318:15457   */\n      swap1\n      pop\n        /* \"#utility.yul\":15045:15464   */\n      swap2\n      swap1\n      pop\n      jump\t// out\n        /* \"#utility.yul\":15470:15650   */\n    tag_196:\n        /* \"#utility.yul\":15518:15595   */\n      0x4e487b7100000000000000000000000000000000000000000000000000000000\n        /* \"#utility.yul\":15515:15516   */\n      0x00\n        /* \"#utility.yul\":15508:15596   */\n      mstore\n        /* \"#utility.yul\":15615:15619   */\n      0x12\n        /* \"#utility.yul\":15612:15613   */\n      0x04\n        /* \"#utility.yul\":15605:15620   */\n      mstore\n        /* \"#utility.yul\":15639:15643   */\n      0x24\n        /* \"#utility.yul\":15636:15637   */\n      0x00\n        /* \"#utility.yul\":15629:15644   */\n      revert\n        /* \"#utility.yul\":15656:15841   */\n    tag_119:\n        /* \"#utility.yul\":15696:15697   */\n      0x00\n        /* \"#utility.yul\":15713:15733   */\n      tag_365\n        /* \"#utility.yul\":15731:15732   */\n      dup3\n        /* \"#utility.yul\":15713:15733   */\n      tag_149\n      jump\t// in\n    tag_365:\n        /* \"#utility.yul\":15708:15733   */\n      swap2\n      pop\n        /* \"#utility.yul\":15747:15767   */\n      tag_366\n        /* \"#utility.yul\":15765:15766   */\n      dup4\n        /* \"#utility.yul\":15747:15767   */\n      tag_149\n      jump\t// in\n    tag_366:\n        /* \"#utility.yul\":15742:15767   */\n      swap3\n      pop\n        /* \"#utility.yul\":15786:15787   */\n      dup3\n        /* \"#utility.yul\":15776:15811   */\n      tag_367\n      jumpi\n        /* \"#utility.yul\":15791:15809   */\n      tag_368\n      tag_196\n      jump\t// in\n    tag_368:\n        /* \"#utility.yul\":15776:15811   */\n    tag_367:\n        /* \"#utility.yul\":15833:15834   */\n      dup3\n        /* \"#utility.yul\":15830:15831   */\n      dup3\n        /* \"#utility.yul\":15826:15835   */\n      div\n        /* \"#utility.yul\":15821:15835   */\n      swap1\n      pop\n        /* \"#utility.yul\":15656:15841   */\n      swap3\n      swap2\n      pop\n      pop\n      jump\t// out\n        /* \"#utility.yul\":15847:16015   */\n    tag_197:\n        /* \"#utility.yul\":15987:16007   */\n      0x6e6f7420656e6f7567682020766f746572730000000000000000000000000000\n        /* \"#utility.yul\":15983:15984   */\n      0x00\n        /* \"#utility.yul\":15975:15981   */\n      dup3\n        /* \"#utility.yul\":15971:15985   */\n      add\n        /* \"#utility.yul\":15964:16008   */\n      mstore\n        /* \"#utility.yul\":15847:16015   */\n      pop\n      jump\t// out\n        /* \"#utility.yul\":16021:16387   */\n    tag_198:\n        /* \"#utility.yul\":16163:16166   */\n      0x00\n        /* \"#utility.yul\":16184:16251   */\n      tag_371\n        /* \"#utility.yul\":16248:16250   */\n      0x12\n        /* \"#utility.yul\":16243:16246   */\n      dup4\n        /* \"#utility.yul\":16184:16251   */\n      tag_164\n      jump\t// in\n    tag_371:\n        /* \"#utility.yul\":16177:16251   */\n      swap2\n      pop\n        /* \"#utility.yul\":16260:16353   */\n      tag_372\n        /* \"#utility.yul\":16349:16352   */\n      dup3\n        /* \"#utility.yul\":16260:16353   */\n      tag_197\n      jump\t// in\n    tag_372:\n        /* \"#utility.yul\":16378:16380   */\n      0x20\n        /* \"#utility.yul\":16373:16376   */\n      dup3\n        /* \"#utility.yul\":16369:16381   */\n      add\n        /* \"#utility.yul\":16362:16381   */\n      swap1\n      pop\n        /* \"#utility.yul\":16021:16387   */\n      swap2\n      swap1\n      pop\n      jump\t// out\n        /* \"#utility.yul\":16393:16812   */\n    tag_122:\n        /* \"#utility.yul\":16559:16563   */\n      0x00\n        /* \"#utility.yul\":16597:16599   */\n      0x20\n        /* \"#utility.yul\":16586:16595   */\n      dup3\n        /* \"#utility.yul\":16582:16600   */\n      add\n        /* \"#utility.yul\":16574:16600   */\n      swap1\n      pop\n        /* \"#utility.yul\":16646:16655   */\n      dup2\n        /* \"#utility.yul\":16640:16644   */\n      dup2\n        /* \"#utility.yul\":16636:16656   */\n      sub\n        /* \"#utility.yul\":16632:16633   */\n      0x00\n        /* \"#utility.yul\":16621:16630   */\n      dup4\n        /* \"#utility.yul\":16617:16634   */\n      add\n        /* \"#utility.yul\":16610:16657   */\n      mstore\n        /* \"#utility.yul\":16674:16805   */\n      tag_374\n        /* \"#utility.yul\":16800:16804   */\n      dup2\n        /* \"#utility.yul\":16674:16805   */\n      tag_198\n      jump\t// in\n    tag_374:\n        /* \"#utility.yul\":16666:16805   */\n      swap1\n      pop\n        /* \"#utility.yul\":16393:16812   */\n      swap2\n      swap1\n      pop\n      jump\t// out\n        /* \"#utility.yul\":16818:16999   */\n    tag_199:\n        /* \"#utility.yul\":16958:16991   */\n      0x596f7520617265206e6f7420656c696769626c6520666f7220726566756e6400\n        /* \"#utility.yul\":16954:16955   */\n      0x00\n        /* \"#utility.yul\":16946:16952   */\n      dup3\n        /* \"#utility.yul\":16942:16956   */\n      add\n        /* \"#utility.yul\":16935:16992   */\n      mstore\n        /* \"#utility.yul\":16818:16999   */\n      pop\n      jump\t// out\n        /* \"#utility.yul\":17005:17371   */\n    tag_200:\n        /* \"#utility.yul\":17147:17150   */\n      0x00\n        /* \"#utility.yul\":17168:17235   */\n      tag_377\n        /* \"#utility.yul\":17232:17234   */\n      0x1f\n        /* \"#utility.yul\":17227:17230   */\n      dup4\n        /* \"#utility.yul\":17168:17235   */\n      tag_164\n      jump\t// in\n    tag_377:\n        /* \"#utility.yul\":17161:17235   */\n      swap2\n      pop\n        /* \"#utility.yul\":17244:17337   */\n      tag_378\n        /* \"#utility.yul\":17333:17336   */\n      dup3\n        /* \"#utility.yul\":17244:17337   */\n      tag_199\n      jump\t// in\n    tag_378:\n        /* \"#utility.yul\":17362:17364   */\n      0x20\n        /* \"#utility.yul\":17357:17360   */\n      dup3\n        /* \"#utility.yul\":17353:17365   */\n      add\n        /* \"#utility.yul\":17346:17365   */\n      swap1\n      pop\n        /* \"#utility.yul\":17005:17371   */\n      swap2\n      swap1\n      pop\n      jump\t// out\n        /* \"#utility.yul\":17377:17796   */\n    tag_129:\n        /* \"#utility.yul\":17543:17547   */\n      0x00\n        /* \"#utility.yul\":17581:17583   */\n      0x20\n        /* \"#utility.yul\":17570:17579   */\n      dup3\n        /* \"#utility.yul\":17566:17584   */\n      add\n        /* \"#utility.yul\":17558:17584   */\n      swap1\n      pop\n        /* \"#utility.yul\":17630:17639   */\n      dup2\n        /* \"#utility.yul\":17624:17628   */\n      dup2\n        /* \"#utility.yul\":17620:17640   */\n      sub\n        /* \"#utility.yul\":17616:17617   */\n      0x00\n        /* \"#utility.yul\":17605:17614   */\n      dup4\n        /* \"#utility.yul\":17601:17618   */\n      add\n        /* \"#utility.yul\":17594:17641   */\n      mstore\n        /* \"#utility.yul\":17658:17789   */\n      tag_380\n        /* \"#utility.yul\":17784:17788   */\n      dup2\n        /* \"#utility.yul\":17658:17789   */\n      tag_200\n      jump\t// in\n    tag_380:\n        /* \"#utility.yul\":17650:17789   */\n      swap1\n      pop\n        /* \"#utility.yul\":17377:17796   */\n      swap2\n      swap1\n      pop\n      jump\t// out\n        /* \"#utility.yul\":17802:17973   */\n    tag_135:\n        /* \"#utility.yul\":17841:17844   */\n      0x00\n        /* \"#utility.yul\":17864:17888   */\n      tag_382\n        /* \"#utility.yul\":17882:17887   */\n      dup3\n        /* \"#utility.yul\":17864:17888   */\n      tag_149\n      jump\t// in\n    tag_382:\n        /* \"#utility.yul\":17855:17888   */\n      swap2\n      pop\n        /* \"#utility.yul\":17910:17914   */\n      0x00\n        /* \"#utility.yul\":17903:17908   */\n      dup3\n        /* \"#utility.yul\":17900:17915   */\n      sub\n        /* \"#utility.yul\":17897:17938   */\n      tag_383\n      jumpi\n        /* \"#utility.yul\":17918:17936   */\n      tag_384\n      tag_185\n      jump\t// in\n    tag_384:\n        /* \"#utility.yul\":17897:17938   */\n    tag_383:\n        /* \"#utility.yul\":17965:17966   */\n      0x01\n        /* \"#utility.yul\":17958:17963   */\n      dup3\n        /* \"#utility.yul\":17954:17967   */\n      sub\n        /* \"#utility.yul\":17947:17967   */\n      swap1\n      pop\n        /* \"#utility.yul\":17802:17973   */\n      swap2\n      swap1\n      pop\n      jump\t// out\n        /* \"#utility.yul\":17979:18159   */\n    tag_201:\n        /* \"#utility.yul\":18027:18104   */\n      0x4e487b7100000000000000000000000000000000000000000000000000000000\n        /* \"#utility.yul\":18024:18025   */\n      0x00\n        /* \"#utility.yul\":18017:18105   */\n      mstore\n        /* \"#utility.yul\":18124:18128   */\n      0x22\n        /* \"#utility.yul\":18121:18122   */\n      0x04\n        /* \"#utility.yul\":18114:18129   */\n      mstore\n        /* \"#utility.yul\":18148:18152   */\n      0x24\n        /* \"#utility.yul\":18145:18146   */\n      0x00\n        /* \"#utility.yul\":18138:18153   */\n      revert\n        /* \"#utility.yul\":18165:18485   */\n    tag_137:\n        /* \"#utility.yul\":18209:18215   */\n      0x00\n        /* \"#utility.yul\":18246:18247   */\n      0x02\n        /* \"#utility.yul\":18240:18244   */\n      dup3\n        /* \"#utility.yul\":18236:18248   */\n      div\n        /* \"#utility.yul\":18226:18248   */\n      swap1\n      pop\n        /* \"#utility.yul\":18293:18294   */\n      0x01\n        /* \"#utility.yul\":18287:18291   */\n      dup3\n        /* \"#utility.yul\":18283:18295   */\n      and\n        /* \"#utility.yul\":18314:18332   */\n      dup1\n        /* \"#utility.yul\":18304:18385   */\n      tag_387\n      jumpi\n        /* \"#utility.yul\":18370:18374   */\n      0x7f\n        /* \"#utility.yul\":18362:18368   */\n      dup3\n        /* \"#utility.yul\":18358:18375   */\n      and\n        /* \"#utility.yul\":18348:18375   */\n      swap2\n      pop\n        /* \"#utility.yul\":18304:18385   */\n    tag_387:\n        /* \"#utility.yul\":18432:18434   */\n      0x20\n        /* \"#utility.yul\":18424:18430   */\n      dup3\n        /* \"#utility.yul\":18421:18435   */\n      lt\n        /* \"#utility.yul\":18401:18419   */\n      dup2\n        /* \"#utility.yul\":18398:18436   */\n      sub\n        /* \"#utility.yul\":18395:18479   */\n      tag_388\n      jumpi\n        /* \"#utility.yul\":18451:18469   */\n      tag_389\n      tag_201\n      jump\t// in\n    tag_389:\n        /* \"#utility.yul\":18395:18479   */\n    tag_388:\n        /* \"#utility.yul\":18216:18485   */\n      pop\n        /* \"#utility.yul\":18165:18485   */\n      swap2\n      swap1\n      pop\n      jump\t// out\n        /* \"#utility.yul\":18491:18632   */\n    tag_202:\n        /* \"#utility.yul\":18540:18544   */\n      0x00\n        /* \"#utility.yul\":18563:18566   */\n      dup2\n        /* \"#utility.yul\":18555:18566   */\n      swap1\n      pop\n        /* \"#utility.yul\":18586:18589   */\n      dup2\n        /* \"#utility.yul\":18583:18584   */\n      0x00\n        /* \"#utility.yul\":18576:18590   */\n      mstore\n        /* \"#utility.yul\":18620:18624   */\n      0x20\n        /* \"#utility.yul\":18617:18618   */\n      0x00\n        /* \"#utility.yul\":18607:18625   */\n      keccak256\n        /* \"#utility.yul\":18599:18625   */\n      swap1\n      pop\n        /* \"#utility.yul\":18491:18632   */\n      swap2\n      swap1\n      pop\n      jump\t// out\n        /* \"#utility.yul\":18638:18731   */\n    tag_203:\n        /* \"#utility.yul\":18675:18681   */\n      0x00\n        /* \"#utility.yul\":18722:18724   */\n      0x20\n        /* \"#utility.yul\":18717:18719   */\n      0x1f\n        /* \"#utility.yul\":18710:18715   */\n      dup4\n        /* \"#utility.yul\":18706:18720   */\n      add\n        /* \"#utility.yul\":18702:18725   */\n      div\n        /* \"#utility.yul\":18692:18725   */\n      swap1\n      pop\n        /* \"#utility.yul\":18638:18731   */\n      swap2\n      swap1\n      pop\n      jump\t// out\n        /* \"#utility.yul\":18737:18844   */\n    tag_204:\n        /* \"#utility.yul\":18781:18789   */\n      0x00\n        /* \"#utility.yul\":18831:18836   */\n      dup3\n        /* \"#utility.yul\":18825:18829   */\n      dup3\n        /* \"#utility.yul\":18821:18837   */\n      shl\n        /* \"#utility.yul\":18800:18837   */\n      swap1\n      pop\n        /* \"#utility.yul\":18737:18844   */\n      swap3\n      swap2\n      pop\n      pop\n      jump\t// out\n        /* \"#utility.yul\":18850:19243   */\n    tag_205:\n        /* \"#utility.yul\":18919:18925   */\n      0x00\n        /* \"#utility.yul\":18969:18970   */\n      0x08\n        /* \"#utility.yul\":18957:18967   */\n      dup4\n        /* \"#utility.yul\":18953:18971   */\n      mul\n        /* \"#utility.yul\":18992:19089   */\n      tag_394\n        /* \"#utility.yul\":19022:19088   */\n      0xffffffffffffffffffffffffffffffffffffffffffffffffffffffffffffffff\n        /* \"#utility.yul\":19011:19020   */\n      dup3\n        /* \"#utility.yul\":18992:19089   */\n      tag_204\n      jump\t// in\n    tag_394:\n        /* \"#utility.yul\":19110:19149   */\n      tag_395\n        /* \"#utility.yul\":19140:19148   */\n      dup7\n        /* \"#utility.yul\":19129:19138   */\n      dup4\n        /* \"#utility.yul\":19110:19149   */\n      tag_204\n      jump\t// in\n    tag_395:\n        /* \"#utility.yul\":19098:19149   */\n      swap6\n      pop\n        /* \"#utility.yul\":19182:19186   */\n      dup1\n        /* \"#utility.yul\":19178:19187   */\n      not\n        /* \"#utility.yul\":19171:19176   */\n      dup5\n        /* \"#utility.yul\":19167:19188   */\n      and\n        /* \"#utility.yul\":19158:19188   */\n      swap4\n      pop\n        /* \"#utility.yul\":19231:19235   */\n      dup1\n        /* \"#utility.yul\":19221:19229   */\n      dup7\n        /* \"#utility.yul\":19217:19236   */\n      and\n        /* \"#utility.yul\":19210:19215   */\n      dup5\n        /* \"#utility.yul\":19207:19237   */\n      or\n        /* \"#utility.yul\":19197:19237   */\n      swap3\n      pop\n        /* \"#utility.yul\":18926:19243   */\n      pop\n      pop\n        /* \"#utility.yul\":18850:19243   */\n      swap4\n      swap3\n      pop\n      pop\n      pop\n      jump\t// out\n        /* \"#utility.yul\":19249:19309   */\n    tag_206:\n        /* \"#utility.yul\":19277:19280   */\n      0x00\n        /* \"#utility.yul\":19298:19303   */\n      dup2\n        /* \"#utility.yul\":19291:19303   */\n      swap1\n      pop\n        /* \"#utility.yul\":19249:19309   */\n      swap2\n      swap1\n      pop\n      jump\t// out\n        /* \"#utility.yul\":19315:19457   */\n    tag_207:\n        /* \"#utility.yul\":19365:19374   */\n      0x00\n        /* \"#utility.yul\":19398:19451   */\n      tag_398\n        /* \"#utility.yul\":19416:19450   */\n      tag_399\n        /* \"#utility.yul\":19425:19449   */\n      tag_400\n        /* \"#utility.yul\":19443:19448   */\n      dup5\n        /* \"#utility.yul\":19425:19449   */\n      tag_149\n      jump\t// in\n    tag_400:\n        /* \"#utility.yul\":19416:19450   */\n      tag_206\n      jump\t// in\n    tag_399:\n        /* \"#utility.yul\":19398:19451   */\n      tag_149\n      jump\t// in\n    tag_398:\n        /* \"#utility.yul\":19385:19451   */\n      swap1\n      pop\n        /* \"#utility.yul\":19315:19457   */\n      swap2\n      swap1\n      pop\n      jump\t// out\n        /* \"#utility.yul\":19463:19538   */\n    tag_208:\n        /* \"#utility.yul\":19506:19509   */\n      0x00\n        /* \"#utility.yul\":19527:19532   */\n      dup2\n        /* \"#utility.yul\":19520:19532   */\n      swap1\n      pop\n        /* \"#utility.yul\":19463:19538   */\n      swap2\n      swap1\n      pop\n      jump\t// out\n        /* \"#utility.yul\":19544:19813   */\n    tag_209:\n        /* \"#utility.yul\":19654:19693   */\n      tag_403\n        /* \"#utility.yul\":19685:19692   */\n      dup4\n        /* \"#utility.yul\":19654:19693   */\n      tag_207\n      jump\t// in\n    tag_403:\n        /* \"#utility.yul\":19715:19806   */\n      tag_404\n        /* \"#utility.yul\":19764:19805   */\n      tag_405\n        /* \"#utility.yul\":19788:19804   */\n      dup3\n        /* \"#utility.yul\":19764:19805   */\n      tag_208\n      jump\t// in\n    tag_405:\n        /* \"#utility.yul\":19756:19762   */\n      dup5\n        /* \"#utility.yul\":19749:19753   */\n      dup5\n        /* \"#utility.yul\":19743:19754   */\n      sload\n        /* \"#utility.yul\":19715:19806   */\n      tag_205\n      jump\t// in\n    tag_404:\n        /* \"#utility.yul\":19709:19713   */\n      dup3\n        /* \"#utility.yul\":19702:19807   */\n      sstore\n        /* \"#utility.yul\":19620:19813   */\n      pop\n        /* \"#utility.yul\":19544:19813   */\n      pop\n      pop\n      pop\n      jump\t// out\n        /* \"#utility.yul\":19819:19892   */\n    tag_210:\n        /* \"#utility.yul\":19864:19867   */\n      0x00\n        /* \"#utility.yul\":19885:19886   */\n      0x00\n        /* \"#utility.yul\":19878:19886   */\n      swap1\n      pop\n        /* \"#utility.yul\":19819:19892   */\n      swap1\n      jump\t// out\n        /* \"#utility.yul\":19898:20087   */\n    tag_211:\n        /* \"#utility.yul\":19975:20007   */\n      tag_408\n      tag_210\n      jump\t// in\n    tag_408:\n        /* \"#utility.yul\":20016:20081   */\n      tag_409\n        /* \"#utility.yul\":20074:20080   */\n      dup2\n        /* \"#utility.yul\":20066:20072   */\n      dup5\n        /* \"#utility.yul\":20060:20064   */\n      dup5\n        /* \"#utility.yul\":20016:20081   */\n      tag_209\n      jump\t// in\n    tag_409:\n        /* \"#utility.yul\":19951:20087   */\n      pop\n        /* \"#utility.yul\":19898:20087   */\n      pop\n      pop\n      jump\t// out\n        /* \"#utility.yul\":20093:20279   */\n    tag_212:\n        /* \"#utility.yul\":20153:20273   */\n    tag_411:\n        /* \"#utility.yul\":20170:20173   */\n      dup2\n        /* \"#utility.yul\":20163:20168   */\n      dup2\n        /* \"#utility.yul\":20160:20174   */\n      lt\n        /* \"#utility.yul\":20153:20273   */\n      iszero\n      tag_413\n      jumpi\n        /* \"#utility.yul\":20224:20263   */\n      tag_414\n        /* \"#utility.yul\":20261:20262   */\n      0x00\n        /* \"#utility.yul\":20254:20259   */\n      dup3\n        /* \"#utility.yul\":20224:20263   */\n      tag_211\n      jump\t// in\n    tag_414:\n        /* \"#utility.yul\":20197:20198   */\n      0x01\n        /* \"#utility.yul\":20190:20195   */\n      dup2\n        /* \"#utility.yul\":20186:20199   */\n      add\n        /* \"#utility.yul\":20177:20199   */\n      swap1\n      pop\n        /* \"#utility.yul\":20153:20273   */\n      jump(tag_411)\n    tag_413:\n        /* \"#utility.yul\":20093:20279   */\n      pop\n      pop\n      jump\t// out\n        /* \"#utility.yul\":20285:20828   */\n    tag_213:\n        /* \"#utility.yul\":20386:20388   */\n      0x1f\n        /* \"#utility.yul\":20381:20384   */\n      dup3\n        /* \"#utility.yul\":20378:20389   */\n      gt\n        /* \"#utility.yul\":20375:20821   */\n      iszero\n      tag_416\n      jumpi\n        /* \"#utility.yul\":20420:20458   */\n      tag_417\n        /* \"#utility.yul\":20452:20457   */\n      dup2\n        /* \"#utility.yul\":20420:20458   */\n      tag_202\n      jump\t// in\n    tag_417:\n        /* \"#utility.yul\":20504:20533   */\n      tag_418\n        /* \"#utility.yul\":20522:20532   */\n      dup5\n        /* \"#utility.yul\":20504:20533   */\n      tag_203\n      jump\t// in\n    tag_418:\n        /* \"#utility.yul\":20494:20502   */\n      dup2\n        /* \"#utility.yul\":20490:20534   */\n      add\n        /* \"#utility.yul\":20687:20689   */\n      0x20\n        /* \"#utility.yul\":20675:20685   */\n      dup6\n        /* \"#utility.yul\":20672:20690   */\n      lt\n        /* \"#utility.yul\":20669:20718   */\n      iszero\n      tag_419\n      jumpi\n        /* \"#utility.yul\":20708:20716   */\n      dup2\n        /* \"#utility.yul\":20693:20716   */\n      swap1\n      pop\n        /* \"#utility.yul\":20669:20718   */\n    tag_419:\n        /* \"#utility.yul\":20731:20811   */\n      tag_420\n        /* \"#utility.yul\":20787:20809   */\n      tag_421\n        /* \"#utility.yul\":20805:20808   */\n      dup6\n        /* \"#utility.yul\":20787:20809   */\n      tag_203\n      jump\t// in\n    tag_421:\n        /* \"#utility.yul\":20777:20785   */\n      dup4\n        /* \"#utility.yul\":20773:20810   */\n      add\n        /* \"#utility.yul\":20760:20771   */\n      dup3\n        /* \"#utility.yul\":20731:20811   */\n      tag_212\n      jump\t// in\n    tag_420:\n        /* \"#utility.yul\":20390:20821   */\n      pop\n      pop\n        /* \"#utility.yul\":20375:20821   */\n    tag_416:\n        /* \"#utility.yul\":20285:20828   */\n      pop\n      pop\n      pop\n      jump\t// out\n        /* \"#utility.yul\":20834:20951   */\n    tag_214:\n        /* \"#utility.yul\":20888:20896   */\n      0x00\n        /* \"#utility.yul\":20938:20943   */\n      dup3\n        /* \"#utility.yul\":20932:20936   */\n      dup3\n        /* \"#utility.yul\":20928:20944   */\n      shr\n        /* \"#utility.yul\":20907:20944   */\n      swap1\n      pop\n        /* \"#utility.yul\":20834:20951   */\n      swap3\n      swap2\n      pop\n      pop\n      jump\t// out\n        /* \"#utility.yul\":20957:21126   */\n    tag_215:\n        /* \"#utility.yul\":21001:21007   */\n      0x00\n        /* \"#utility.yul\":21034:21085   */\n      tag_424\n        /* \"#utility.yul\":21082:21083   */\n      0x00\n        /* \"#utility.yul\":21078:21084   */\n      not\n        /* \"#utility.yul\":21070:21075   */\n      dup5\n        /* \"#utility.yul\":21067:21068   */\n      0x08\n        /* \"#utility.yul\":21063:21076   */\n      mul\n        /* \"#utility.yul\":21034:21085   */\n      tag_214\n      jump\t// in\n    tag_424:\n        /* \"#utility.yul\":21030:21086   */\n      not\n        /* \"#utility.yul\":21115:21119   */\n      dup1\n        /* \"#utility.yul\":21109:21113   */\n      dup4\n        /* \"#utility.yul\":21105:21120   */\n      and\n        /* \"#utility.yul\":21095:21120   */\n      swap2\n      pop\n        /* \"#utility.yul\":21008:21126   */\n      pop\n        /* \"#utility.yul\":20957:21126   */\n      swap3\n      swap2\n      pop\n      pop\n      jump\t// out\n        /* \"#utility.yul\":21131:21426   */\n    tag_216:\n        /* \"#utility.yul\":21207:21211   */\n      0x00\n        /* \"#utility.yul\":21353:21382   */\n      tag_426\n        /* \"#utility.yul\":21378:21381   */\n      dup4\n        /* \"#utility.yul\":21372:21376   */\n      dup4\n        /* \"#utility.yul\":21353:21382   */\n      tag_215\n      jump\t// in\n    tag_426:\n        /* \"#utility.yul\":21345:21382   */\n      swap2\n      pop\n        /* \"#utility.yul\":21415:21418   */\n      dup3\n        /* \"#utility.yul\":21412:21413   */\n      0x02\n        /* \"#utility.yul\":21408:21419   */\n      mul\n        /* \"#utility.yul\":21402:21406   */\n      dup3\n        /* \"#utility.yul\":21399:21420   */\n      or\n        /* \"#utility.yul\":21391:21420   */\n      swap1\n      pop\n        /* \"#utility.yul\":21131:21426   */\n      swap3\n      swap2\n      pop\n      pop\n      jump\t// out\n        /* \"#utility.yul\":21431:22826   */\n    tag_148:\n        /* \"#utility.yul\":21548:21585   */\n      tag_428\n        /* \"#utility.yul\":21581:21584   */\n      dup3\n        /* \"#utility.yul\":21548:21585   */\n      tag_163\n      jump\t// in\n    tag_428:\n        /* \"#utility.yul\":21650:21668   */\n      0xffffffffffffffff\n        /* \"#utility.yul\":21642:21648   */\n      dup2\n        /* \"#utility.yul\":21639:21669   */\n      gt\n        /* \"#utility.yul\":21636:21692   */\n      iszero\n      tag_429\n      jumpi\n        /* \"#utility.yul\":21672:21690   */\n      tag_430\n      tag_172\n      jump\t// in\n    tag_430:\n        /* \"#utility.yul\":21636:21692   */\n    tag_429:\n        /* \"#utility.yul\":21716:21754   */\n      tag_431\n        /* \"#utility.yul\":21748:21752   */\n      dup3\n        /* \"#utility.yul\":21742:21753   */\n      sload\n        /* \"#utility.yul\":21716:21754   */\n      tag_137\n      jump\t// in\n    tag_431:\n        /* \"#utility.yul\":21801:21868   */\n      tag_432\n        /* \"#utility.yul\":21861:21867   */\n      dup3\n        /* \"#utility.yul\":21853:21859   */\n      dup3\n        /* \"#utility.yul\":21847:21851   */\n      dup6\n        /* \"#utility.yul\":21801:21868   */\n      tag_213\n      jump\t// in\n    tag_432:\n        /* \"#utility.yul\":21895:21896   */\n      0x00\n        /* \"#utility.yul\":21919:21923   */\n      0x20\n        /* \"#utility.yul\":21906:21923   */\n      swap1\n      pop\n        /* \"#utility.yul\":21951:21953   */\n      0x1f\n        /* \"#utility.yul\":21943:21949   */\n      dup4\n        /* \"#utility.yul\":21940:21954   */\n      gt\n        /* \"#utility.yul\":21968:21969   */\n      0x01\n        /* \"#utility.yul\":21963:22581   */\n      dup2\n      eq\n      tag_434\n      jumpi\n        /* \"#utility.yul\":22625:22626   */\n      0x00\n        /* \"#utility.yul\":22642:22648   */\n      dup5\n        /* \"#utility.yul\":22639:22716   */\n      iszero\n      tag_435\n      jumpi\n        /* \"#utility.yul\":22691:22700   */\n      dup3\n        /* \"#utility.yul\":22686:22689   */\n      dup8\n        /* \"#utility.yul\":22682:22701   */\n      add\n        /* \"#utility.yul\":22676:22702   */\n      mload\n        /* \"#utility.yul\":22667:22702   */\n      swap1\n      pop\n        /* \"#utility.yul\":22639:22716   */\n    tag_435:\n        /* \"#utility.yul\":22742:22809   */\n      tag_436\n        /* \"#utility.yul\":22802:22808   */\n      dup6\n        /* \"#utility.yul\":22795:22800   */\n      dup3\n        /* \"#utility.yul\":22742:22809   */\n      tag_216\n      jump\t// in\n    tag_436:\n        /* \"#utility.yul\":22736:22740   */\n      dup7\n        /* \"#utility.yul\":22729:22810   */\n      sstore\n        /* \"#utility.yul\":22598:22820   */\n      pop\n        /* \"#utility.yul\":21933:22820   */\n      jump(tag_433)\n        /* \"#utility.yul\":21963:22581   */\n    tag_434:\n        /* \"#utility.yul\":22015:22019   */\n      0x1f\n        /* \"#utility.yul\":22011:22020   */\n      not\n        /* \"#utility.yul\":22003:22009   */\n      dup5\n        /* \"#utility.yul\":21999:22021   */\n      and\n        /* \"#utility.yul\":22049:22086   */\n      tag_437\n        /* \"#utility.yul\":22081:22085   */\n      dup7\n        /* \"#utility.yul\":22049:22086   */\n      tag_202\n      jump\t// in\n    tag_437:\n        /* \"#utility.yul\":22108:22109   */\n      0x00\n        /* \"#utility.yul\":22122:22330   */\n    tag_438:\n        /* \"#utility.yul\":22136:22143   */\n      dup3\n        /* \"#utility.yul\":22133:22134   */\n      dup2\n        /* \"#utility.yul\":22130:22144   */\n      lt\n        /* \"#utility.yul\":22122:22330   */\n      iszero\n      tag_440\n      jumpi\n        /* \"#utility.yul\":22215:22224   */\n      dup5\n        /* \"#utility.yul\":22210:22213   */\n      dup10\n        /* \"#utility.yul\":22206:22225   */\n      add\n        /* \"#utility.yul\":22200:22226   */\n      mload\n        /* \"#utility.yul\":22192:22198   */\n      dup3\n        /* \"#utility.yul\":22185:22227   */\n      sstore\n        /* \"#utility.yul\":22266:22267   */\n      0x01\n        /* \"#utility.yul\":22258:22264   */\n      dup3\n        /* \"#utility.yul\":22254:22268   */\n      add\n        /* \"#utility.yul\":22244:22268   */\n      swap2\n      pop\n        /* \"#utility.yul\":22313:22315   */\n      0x20\n        /* \"#utility.yul\":22302:22311   */\n      dup6\n        /* \"#utility.yul\":22298:22316   */\n      add\n        /* \"#utility.yul\":22285:22316   */\n      swap5\n      pop\n        /* \"#utility.yul\":22159:22163   */\n      0x20\n        /* \"#utility.yul\":22156:22157   */\n      dup2\n        /* \"#utility.yul\":22152:22164   */\n      add\n        /* \"#utility.yul\":22147:22164   */\n      swap1\n      pop\n        /* \"#utility.yul\":22122:22330   */\n      jump(tag_438)\n    tag_440:\n        /* \"#utility.yul\":22358:22364   */\n      dup7\n        /* \"#utility.yul\":22349:22356   */\n      dup4\n        /* \"#utility.yul\":22346:22365   */\n      lt\n        /* \"#utility.yul\":22343:22522   */\n      iszero\n      tag_441\n      jumpi\n        /* \"#utility.yul\":22416:22425   */\n      dup5\n        /* \"#utility.yul\":22411:22414   */\n      dup10\n        /* \"#utility.yul\":22407:22426   */\n      add\n        /* \"#utility.yul\":22401:22427   */\n      mload\n        /* \"#utility.yul\":22459:22507   */\n      tag_442\n        /* \"#utility.yul\":22501:22505   */\n      0x1f\n        /* \"#utility.yul\":22493:22499   */\n      dup10\n        /* \"#utility.yul\":22489:22506   */\n      and\n        /* \"#utility.yul\":22478:22487   */\n      dup3\n        /* \"#utility.yul\":22459:22507   */\n      tag_215\n      jump\t// in\n    tag_442:\n        /* \"#utility.yul\":22451:22457   */\n      dup4\n        /* \"#utility.yul\":22444:22508   */\n      sstore\n        /* \"#utility.yul\":22366:22522   */\n      pop\n        /* \"#utility.yul\":22343:22522   */\n    tag_441:\n        /* \"#utility.yul\":22568:22569   */\n      0x01\n        /* \"#utility.yul\":22564:22565   */\n      0x02\n        /* \"#utility.yul\":22556:22562   */\n      dup9\n        /* \"#utility.yul\":22552:22566   */\n      mul\n        /* \"#utility.yul\":22548:22570   */\n      add\n        /* \"#utility.yul\":22542:22546   */\n      dup9\n        /* \"#utility.yul\":22535:22571   */\n      sstore\n        /* \"#utility.yul\":21970:22581   */\n      pop\n      pop\n      pop\n        /* \"#utility.yul\":21933:22820   */\n    tag_433:\n      pop\n        /* \"#utility.yul\":21523:22826   */\n      pop\n      pop\n      pop\n        /* \"#utility.yul\":21431:22826   */\n      pop\n      pop\n      jump\t// out\n\n    auxdata: 0xa2646970667358221220cf7a7d07d037f88cc072ecd2073c8acaea20d887d2fbf697f9fdcbc6939befe064736f6c634300081e0033\n}\n",
				"bytecode": {
					"linkReferences": {},
					"object": "608060405234801561000f575f5ffd5b50604051611a11380380611a11833981810160405281019061003191906100cf565b335f5f6101000a81548173ffffffffffffffffffffffffffffffffffffffff021916908373ffffffffffffffffffffffffffffffffffffffff160217905550826001819055508142610083919061014c565b6002819055508060038190555050505061017f565b5f5ffd5b5f819050919050565b6100ae8161009c565b81146100b8575f5ffd5b50565b5f815190506100c9816100a5565b92915050565b5f5f5f606084860312156100e6576100e5610098565b5b5f6100f3868287016100bb565b9350506020610104868287016100bb565b9250506040610115868287016100bb565b9150509250925092565b7f4e487b71000000000000000000000000000000000000000000000000000000005f52601160045260245ffd5b5f6101568261009c565b91506101618361009c565b92508282019050808211156101795761017861011f565b5b92915050565b6118858061018c5f395ff3fe6080604052600436106100e7575f3560e01c80635badbe4c11610089578063aaffadf311610058578063aaffadf3146102a7578063d4b83992146102d1578063db638f0b146102fb578063f251fc8c14610325576100e7565b80635badbe4c146101eb578063612032651461021557806381d12c581461023f5780638a9cfd551461027f576100e7565b806329dcb0cf116100c557806329dcb0cf1461015b5780634cb6f4a5146101855780635114cb52146101ad578063590e1ae3146101d5576100e7565b806306e99fef146100eb57806312065fe0146100f55780631f6d49421461011f575b5f5ffd5b6100f361034f565b005b348015610100575f5ffd5b506101096104a1565b6040516101169190610c9a565b60405180910390f35b34801561012a575f5ffd5b5061014560048036038101906101409190610d1e565b6104a8565b6040516101529190610c9a565b60405180910390f35b348015610166575f5ffd5b5061016f6104bd565b60405161017c9190610c9a565b60405180910390f35b348015610190575f5ffd5b506101ab60048036038101906101a69190610d73565b6104c3565b005b3480156101b8575f5ffd5b506101d360048036038101906101ce9190610d73565b610656565b005b3480156101e0575f5ffd5b506101e961086e565b005b3480156101f6575f5ffd5b506101ff610a1c565b60405161020c9190610c9a565b60405180910390f35b348015610220575f5ffd5b50610229610a22565b6040516102369190610dad565b60405180910390f35b34801561024a575f5ffd5b5061026560048036038101906102609190610d73565b610a46565b604051610276959493929190610e70565b60405180910390f35b34801561028a575f5ffd5b506102a560048036038101906102a0919061101e565b610b29565b005b3480156102b2575f5ffd5b506102bb610c6a565b6040516102c89190610c9a565b60405180910390f35b3480156102dc575f5ffd5b506102e5610c70565b6040516102f29190610c9a565b60405180910390f35b348015610306575f5ffd5b5061030f610c76565b60405161031c9190610c9a565b60405180910390f35b348015610330575f5ffd5b50610339610c7c565b6040516103469190610c9a565b60405180910390f35b6002544211610393576040517f08c379a000000000000000000000000000000000000000000000000000000000815260040161038a906110d4565b60405180910390fd5b6003543410156103d8576040517f08c379a00000000000000000000000000000000000000000000000000000000081526004016103cf9061113c565b60405180910390fd5b5f60075f3373ffffffffffffffffffffffffffffffffffffffff1673ffffffffffffffffffffffffffffffffffffffff1681526020019081526020015f2054036104345760045f81548092919061042e90611187565b91905055505b3460075f3373ffffffffffffffffffffffffffffffffffffffff1673ffffffffffffffffffffffffffffffffffffffff1681526020019081526020015f205f82825461048091906111ce565b925050819055503460055f82825461049891906111ce565b92505081905550565b5f47905090565b6007602052805f5260405f205f915090505481565b60025481565b5f60075f3373ffffffffffffffffffffffffffffffffffffffff1673ffffffffffffffffffffffffffffffffffffffff1681526020019081526020015f205411610542576040517f08c379a00000000000000000000000000000000000000000000000000000000081526004016105399061124b565b60405180910390fd5b5f60085f8381526020019081526020015f209050806005015f3373ffffffffffffffffffffffffffffffffffffffff1673ffffffffffffffffffffffffffffffffffffffff1681526020019081526020015f205f9054906101000a900460ff16156105e2576040517f08c379a00000000000000000000000000000000000000000000000000000000081526004016105d9906112b3565b60405180910390fd5b6001816005015f3373ffffffffffffffffffffffffffffffffffffffff1673ffffffffffffffffffffffffffffffffffffffff1681526020019081526020015f205f6101000a81548160ff021916908315150217905550806004015f81548092919061064d90611187565b91905055505050565b5f5f9054906101000a900473ffffffffffffffffffffffffffffffffffffffff1673ffffffffffffffffffffffffffffffffffffffff163373ffffffffffffffffffffffffffffffffffffffff16146106e4576040517f08c379a00000000000000000000000000000000000000000000000000000000081526004016106db90611341565b60405180910390fd5b600154600554101561072b576040517f08c379a0000000000000000000000000000000000000000000000000000000008152600401610722906113a9565b60405180910390fd5b5f60085f8381526020019081526020015f209050805f015f9054906101000a900460ff161561078f576040517f08c379a000000000000000000000000000000000000000000000000000000000815260040161078690611411565b60405180910390fd5b600260045461079e919061145c565b816004015410156107e4576040517f08c379a00000000000000000000000000000000000000000000000000000000081526004016107db906114d6565b60405180910390fd5b806003015f9054906101000a900473ffffffffffffffffffffffffffffffffffffffff1673ffffffffffffffffffffffffffffffffffffffff166108fc826002015490811502906040515f60405180830381858888f1935050505015801561084e573d5f5f3e3d5ffd5b506001815f015f6101000a81548160ff0219169083151502179055505050565b600254421180156108825750600154600554105b6108c1576040517f08c379a00000000000000000000000000000000000000000000000000000000081526004016108b89061153e565b60405180910390fd5b5f60075f3373ffffffffffffffffffffffffffffffffffffffff1673ffffffffffffffffffffffffffffffffffffffff1681526020019081526020015f205411610940576040517f08c379a00000000000000000000000000000000000000000000000000000000081526004016109379061124b565b60405180910390fd5b3373ffffffffffffffffffffffffffffffffffffffff166108fc60075f3373ffffffffffffffffffffffffffffffffffffffff1673ffffffffffffffffffffffffffffffffffffffff1681526020019081526020015f205490811502906040515f60405180830381858888f193505050501580156109c0573d5f5f3e3d5ffd5b505f60075f3373ffffffffffffffffffffffffffffffffffffffff1673ffffffffffffffffffffffffffffffffffffffff1681526020019081526020015f208190555060045f815480929190610a159061155c565b9190505550565b60095481565b5f5f9054906101000a900473ffffffffffffffffffffffffffffffffffffffff1681565b6008602052805f5260405f205f91509050805f015f9054906101000a900460ff1690806001018054610a77906115b0565b80601f0160208091040260200160405190810160405280929190818152602001828054610aa3906115b0565b8015610aee5780601f10610ac557610100808354040283529160200191610aee565b820191905f5260205f20905b815481529060010190602001808311610ad157829003601f168201915b505050505090806002015490806003015f9054906101000a900473ffffffffffffffffffffffffffffffffffffffff16908060040154905085565b5f5f9054906101000a900473ffffffffffffffffffffffffffffffffffffffff1673ffffffffffffffffffffffffffffffffffffffff163373ffffffffffffffffffffffffffffffffffffffff1614610bb7576040517f08c379a0000000000000000000000000000000000000000000000000000000008152600401610bae90611341565b60405180910390fd5b5f60085f60095481526020019081526020015f20905060095f815480929190610bdf90611187565b919050555083816001019081610bf59190611780565b5082816002018190555081816003015f6101000a81548173ffffffffffffffffffffffffffffffffffffffff021916908373ffffffffffffffffffffffffffffffffffffffff1602179055505f81600401819055505f815f015f6101000a81548160ff02191690831515021790555050505050565b60035481565b60015481565b60055481565b60045481565b5f819050919050565b610c9481610c82565b82525050565b5f602082019050610cad5f830184610c8b565b92915050565b5f604051905090565b5f5ffd5b5f5ffd5b5f73ffffffffffffffffffffffffffffffffffffffff82169050919050565b5f610ced82610cc4565b9050919050565b610cfd81610ce3565b8114610d07575f5ffd5b50565b5f81359050610d1881610cf4565b92915050565b5f60208284031215610d3357610d32610cbc565b5b5f610d4084828501610d0a565b91505092915050565b610d5281610c82565b8114610d5c575f5ffd5b50565b5f81359050610d6d81610d49565b92915050565b5f60208284031215610d8857610d87610cbc565b5b5f610d9584828501610d5f565b91505092915050565b610da781610ce3565b82525050565b5f602082019050610dc05f830184610d9e565b92915050565b5f8115159050919050565b610dda81610dc6565b82525050565b5f81519050919050565b5f82825260208201905092915050565b8281835e5f83830152505050565b5f601f19601f8301169050919050565b5f610e2282610de0565b610e2c8185610dea565b9350610e3c818560208601610dfa565b610e4581610e08565b840191505092915050565b5f610e5a82610cc4565b9050919050565b610e6a81610e50565b82525050565b5f60a082019050610e835f830188610dd1565b8181036020830152610e958187610e18565b9050610ea46040830186610c8b565b610eb16060830185610e61565b610ebe6080830184610c8b565b9695505050505050565b5f5ffd5b5f5ffd5b7f4e487b71000000000000000000000000000000000000000000000000000000005f52604160045260245ffd5b610f0682610e08565b810181811067ffffffffffffffff82111715610f2557610f24610ed0565b5b80604052505050565b5f610f37610cb3565b9050610f438282610efd565b919050565b5f67ffffffffffffffff821115610f6257610f61610ed0565b5b610f6b82610e08565b9050602081019050919050565b828183375f83830152505050565b5f610f98610f9384610f48565b610f2e565b905082815260208101848484011115610fb457610fb3610ecc565b5b610fbf848285610f78565b509392505050565b5f82601f830112610fdb57610fda610ec8565b5b8135610feb848260208601610f86565b91505092915050565b610ffd81610e50565b8114611007575f5ffd5b50565b5f8135905061101881610ff4565b92915050565b5f5f5f6060848603121561103557611034610cbc565b5b5f84013567ffffffffffffffff81111561105257611051610cc0565b5b61105e86828701610fc7565b935050602061106f86828701610d5f565b92505060406110808682870161100a565b9150509250925092565b7f46756e64696e672074696d65206f7665720000000000000000000000000000005f82015250565b5f6110be601183610dea565b91506110c98261108a565b602082019050919050565b5f6020820190508181035f8301526110eb816110b2565b9050919050565b7f6d696e696d756d20636f6e747269627574696f6e206e6f74206d6574000000005f82015250565b5f611126601c83610dea565b9150611131826110f2565b602082019050919050565b5f6020820190508181035f8301526111538161111a565b9050919050565b7f4e487b71000000000000000000000000000000000000000000000000000000005f52601160045260245ffd5b5f61119182610c82565b91507fffffffffffffffffffffffffffffffffffffffffffffffffffffffffffffffff82036111c3576111c261115a565b5b600182019050919050565b5f6111d882610c82565b91506111e383610c82565b92508282019050808211156111fb576111fa61115a565b5b92915050565b7f596f7520617265206e6f74206120636f6e7472696275746f72000000000000005f82015250565b5f611235601983610dea565b915061124082611201565b602082019050919050565b5f6020820190508181035f83015261126281611229565b9050919050565b7f796f7520617265206e6f7420766f7465207965740000000000000000000000005f82015250565b5f61129d601483610dea565b91506112a882611269565b602082019050919050565b5f6020820190508181035f8301526112ca81611291565b9050919050565b7f4f6e6c79206f7267616e697a65722063616c6c20746869732066756e6374696f5f8201527f6e00000000000000000000000000000000000000000000000000000000000000602082015250565b5f61132b602183610dea565b9150611336826112d1565b604082019050919050565b5f6020820190508181035f8301526113588161131f565b9050919050565b7f746172676574206973206e6f74206d65740000000000000000000000000000005f82015250565b5f611393601183610dea565b915061139e8261135f565b602082019050919050565b5f6020820190508181035f8301526113c081611387565b9050919050565b7f746865207265717565737420697320636f6d706c6574656400000000000000005f82015250565b5f6113fb601883610dea565b9150611406826113c7565b602082019050919050565b5f6020820190508181035f830152611428816113ef565b9050919050565b7f4e487b71000000000000000000000000000000000000000000000000000000005f52601260045260245ffd5b5f61146682610c82565b915061147183610c82565b9250826114815761148061142f565b5b828204905092915050565b7f6e6f7420656e6f7567682020766f7465727300000000000000000000000000005f82015250565b5f6114c0601283610dea565b91506114cb8261148c565b602082019050919050565b5f6020820190508181035f8301526114ed816114b4565b9050919050565b7f596f7520617265206e6f7420656c696769626c6520666f7220726566756e64005f82015250565b5f611528601f83610dea565b9150611533826114f4565b602082019050919050565b5f6020820190508181035f8301526115558161151c565b9050919050565b5f61156682610c82565b91505f82036115785761157761115a565b5b600182039050919050565b7f4e487b71000000000000000000000000000000000000000000000000000000005f52602260045260245ffd5b5f60028204905060018216806115c757607f821691505b6020821081036115da576115d9611583565b5b50919050565b5f819050815f5260205f209050919050565b5f6020601f8301049050919050565b5f82821b905092915050565b5f6008830261163c7fffffffffffffffffffffffffffffffffffffffffffffffffffffffffffffffff82611601565b6116468683611601565b95508019841693508086168417925050509392505050565b5f819050919050565b5f61168161167c61167784610c82565b61165e565b610c82565b9050919050565b5f819050919050565b61169a83611667565b6116ae6116a682611688565b84845461160d565b825550505050565b5f5f905090565b6116c56116b6565b6116d0818484611691565b505050565b5b818110156116f3576116e85f826116bd565b6001810190506116d6565b5050565b601f82111561173857611709816115e0565b611712846115f2565b81016020851015611721578190505b61173561172d856115f2565b8301826116d5565b50505b505050565b5f82821c905092915050565b5f6117585f198460080261173d565b1980831691505092915050565b5f6117708383611749565b9150826002028217905092915050565b61178982610de0565b67ffffffffffffffff8111156117a2576117a1610ed0565b5b6117ac82546115b0565b6117b78282856116f7565b5f60209050601f8311600181146117e8575f84156117d6578287015190505b6117e08582611765565b865550611847565b601f1984166117f6866115e0565b5f5b8281101561181d578489015182556001820191506020850194506020810190506117f8565b8683101561183a5784890151611836601f891682611749565b8355505b6001600288020188555050505b50505050505056fea2646970667358221220cf7a7d07d037f88cc072ecd2073c8acaea20d887d2fbf697f9fdcbc6939befe064736f6c634300081e0033",
					"opcodes": "PUSH1 0x80 PUSH1 0x40 MSTORE CALLVALUE DUP1 ISZERO PUSH2 0xF JUMPI PUSH0 PUSH0 REVERT JUMPDEST POP PUSH1 0x40 MLOAD PUSH2 0x1A11 CODESIZE SUB DUP1 PUSH2 0x1A11 DUP4 CODECOPY DUP2 DUP2 ADD PUSH1 0x40 MSTORE DUP2 ADD SWAP1 PUSH2 0x31 SWAP2 SWAP1 PUSH2 0xCF JUMP JUMPDEST CALLER PUSH0 PUSH0 PUSH2 0x100 EXP DUP2 SLOAD DUP2 PUSH20 0xFFFFFFFFFFFFFFFFFFFFFFFFFFFFFFFFFFFFFFFF MUL NOT AND SWAP1 DUP4 PUSH20 0xFFFFFFFFFFFFFFFFFFFFFFFFFFFFFFFFFFFFFFFF AND MUL OR SWAP1 SSTORE POP DUP3 PUSH1 0x1 DUP2 SWAP1 SSTORE POP DUP2 TIMESTAMP PUSH2 0x83 SWAP2 SWAP1 PUSH2 0x14C JUMP JUMPDEST PUSH1 0x2 DUP2 SWAP1 SSTORE POP DUP1 PUSH1 0x3 DUP2 SWAP1 SSTORE POP POP POP POP PUSH2 0x17F JUMP JUMPDEST PUSH0 PUSH0 REVERT JUMPDEST PUSH0 DUP2 SWAP1 POP SWAP2 SWAP1 POP JUMP JUMPDEST PUSH2 0xAE DUP2 PUSH2 0x9C JUMP JUMPDEST DUP2 EQ PUSH2 0xB8 JUMPI PUSH0 PUSH0 REVERT JUMPDEST POP JUMP JUMPDEST PUSH0 DUP2 MLOAD SWAP1 POP PUSH2 0xC9 DUP2 PUSH2 0xA5 JUMP JUMPDEST SWAP3 SWAP2 POP POP JUMP JUMPDEST PUSH0 PUSH0 PUSH0 PUSH1 0x60 DUP5 DUP7 SUB SLT ISZERO PUSH2 0xE6 JUMPI PUSH2 0xE5 PUSH2 0x98 JUMP JUMPDEST JUMPDEST PUSH0 PUSH2 0xF3 DUP7 DUP3 DUP8 ADD PUSH2 0xBB JUMP JUMPDEST SWAP4 POP POP PUSH1 0x20 PUSH2 0x104 DUP7 DUP3 DUP8 ADD PUSH2 0xBB JUMP JUMPDEST SWAP3 POP POP PUSH1 0x40 PUSH2 0x115 DUP7 DUP3 DUP8 ADD PUSH2 0xBB JUMP JUMPDEST SWAP2 POP POP SWAP3 POP SWAP3 POP SWAP3 JUMP JUMPDEST PUSH32 0x4E487B7100000000000000000000000000000000000000000000000000000000 PUSH0 MSTORE PUSH1 0x11 PUSH1 0x4 MSTORE PUSH1 0x24 PUSH0 REVERT JUMPDEST PUSH0 PUSH2 0x156 DUP3 PUSH2 0x9C JUMP JUMPDEST SWAP2 POP PUSH2 0x161 DUP4 PUSH2 0x9C JUMP JUMPDEST SWAP3 POP DUP3 DUP3 ADD SWAP1 POP DUP1 DUP3 GT ISZERO PUSH2 0x179 JUMPI PUSH2 0x178 PUSH2 0x11F JUMP JUMPDEST JUMPDEST SWAP3 SWAP2 POP POP JUMP JUMPDEST PUSH2 0x1885 DUP1 PUSH2 0x18C PUSH0 CODECOPY PUSH0 RETURN INVALID PUSH1 0x80 PUSH1 0x40 MSTORE PUSH1 0x4 CALLDATASIZE LT PUSH2 0xE7 JUMPI PUSH0 CALLDATALOAD PUSH1 0xE0 SHR DUP1 PUSH4 0x5BADBE4C GT PUSH2 0x89 JUMPI DUP1 PUSH4 0xAAFFADF3 GT PUSH2 0x58 JUMPI DUP1 PUSH4 0xAAFFADF3 EQ PUSH2 0x2A7 JUMPI DUP1 PUSH4 0xD4B83992 EQ PUSH2 0x2D1 JUMPI DUP1 PUSH4 0xDB638F0B EQ PUSH2 0x2FB JUMPI DUP1 PUSH4 0xF251FC8C EQ PUSH2 0x325 JUMPI PUSH2 0xE7 JUMP JUMPDEST DUP1 PUSH4 0x5BADBE4C EQ PUSH2 0x1EB JUMPI DUP1 PUSH4 0x61203265 EQ PUSH2 0x215 JUMPI DUP1 PUSH4 0x81D12C58 EQ PUSH2 0x23F JUMPI DUP1 PUSH4 0x8A9CFD55 EQ PUSH2 0x27F JUMPI PUSH2 0xE7 JUMP JUMPDEST DUP1 PUSH4 0x29DCB0CF GT PUSH2 0xC5 JUMPI DUP1 PUSH4 0x29DCB0CF EQ PUSH2 0x15B JUMPI DUP1 PUSH4 0x4CB6F4A5 EQ PUSH2 0x185 JUMPI DUP1 PUSH4 0x5114CB52 EQ PUSH2 0x1AD JUMPI DUP1 PUSH4 0x590E1AE3 EQ PUSH2 0x1D5 JUMPI PUSH2 0xE7 JUMP JUMPDEST DUP1 PUSH4 0x6E99FEF EQ PUSH2 0xEB JUMPI DUP1 PUSH4 0x12065FE0 EQ PUSH2 0xF5 JUMPI DUP1 PUSH4 0x1F6D4942 EQ PUSH2 0x11F JUMPI JUMPDEST PUSH0 PUSH0 REVERT JUMPDEST PUSH2 0xF3 PUSH2 0x34F JUMP JUMPDEST STOP JUMPDEST CALLVALUE DUP1 ISZERO PUSH2 0x100 JUMPI PUSH0 PUSH0 REVERT JUMPDEST POP PUSH2 0x109 PUSH2 0x4A1 JUMP JUMPDEST PUSH1 0x40 MLOAD PUSH2 0x116 SWAP2 SWAP1 PUSH2 0xC9A JUMP JUMPDEST PUSH1 0x40 MLOAD DUP1 SWAP2 SUB SWAP1 RETURN JUMPDEST CALLVALUE DUP1 ISZERO PUSH2 0x12A JUMPI PUSH0 PUSH0 REVERT JUMPDEST POP PUSH2 0x145 PUSH1 0x4 DUP1 CALLDATASIZE SUB DUP2 ADD SWAP1 PUSH2 0x140 SWAP2 SWAP1 PUSH2 0xD1E JUMP JUMPDEST PUSH2 0x4A8 JUMP JUMPDEST PUSH1 0x40 MLOAD PUSH2 0x152 SWAP2 SWAP1 PUSH2 0xC9A JUMP JUMPDEST PUSH1 0x40 MLOAD DUP1 SWAP2 SUB SWAP1 RETURN JUMPDEST CALLVALUE DUP1 ISZERO PUSH2 0x166 JUMPI PUSH0 PUSH0 REVERT JUMPDEST POP PUSH2 0x16F PUSH2 0x4BD JUMP JUMPDEST PUSH1 0x40 MLOAD PUSH2 0x17C SWAP2 SWAP1 PUSH2 0xC9A JUMP JUMPDEST PUSH1 0x40 MLOAD DUP1 SWAP2 SUB SWAP1 RETURN JUMPDEST CALLVALUE DUP1 ISZERO PUSH2 0x190 JUMPI PUSH0 PUSH0 REVERT JUMPDEST POP PUSH2 0x1AB PUSH1 0x4 DUP1 CALLDATASIZE SUB DUP2 ADD SWAP1 PUSH2 0x1A6 SWAP2 SWAP1 PUSH2 0xD73 JUMP JUMPDEST PUSH2 0x4C3 JUMP JUMPDEST STOP JUMPDEST CALLVALUE DUP1 ISZERO PUSH2 0x1B8 JUMPI PUSH0 PUSH0 REVERT JUMPDEST POP PUSH2 0x1D3 PUSH1 0x4 DUP1 CALLDATASIZE SUB DUP2 ADD SWAP1 PUSH2 0x1CE SWAP2 SWAP1 PUSH2 0xD73 JUMP JUMPDEST PUSH2 0x656 JUMP JUMPDEST STOP JUMPDEST CALLVALUE DUP1 ISZERO PUSH2 0x1E0 JUMPI PUSH0 PUSH0 REVERT JUMPDEST POP PUSH2 0x1E9 PUSH2 0x86E JUMP JUMPDEST STOP JUMPDEST CALLVALUE DUP1 ISZERO PUSH2 0x1F6 JUMPI PUSH0 PUSH0 REVERT JUMPDEST POP PUSH2 0x1FF PUSH2 0xA1C JUMP JUMPDEST PUSH1 0x40 MLOAD PUSH2 0x20C SWAP2 SWAP1 PUSH2 0xC9A JUMP JUMPDEST PUSH1 0x40 MLOAD DUP1 SWAP2 SUB SWAP1 RETURN JUMPDEST CALLVALUE DUP1 ISZERO PUSH2 0x220 JUMPI PUSH0 PUSH0 REVERT JUMPDEST POP PUSH2 0x229 PUSH2 0xA22 JUMP JUMPDEST PUSH1 0x40 MLOAD PUSH2 0x236 SWAP2 SWAP1 PUSH2 0xDAD JUMP JUMPDEST PUSH1 0x40 MLOAD DUP1 SWAP2 SUB SWAP1 RETURN JUMPDEST CALLVALUE DUP1 ISZERO PUSH2 0x24A JUMPI PUSH0 PUSH0 REVERT JUMPDEST POP PUSH2 0x265 PUSH1 0x4 DUP1 CALLDATASIZE SUB DUP2 ADD SWAP1 PUSH2 0x260 SWAP2 SWAP1 PUSH2 0xD73 JUMP JUMPDEST PUSH2 0xA46 JUMP JUMPDEST PUSH1 0x40 MLOAD PUSH2 0x276 SWAP6 SWAP5 SWAP4 SWAP3 SWAP2 SWAP1 PUSH2 0xE70 JUMP JUMPDEST PUSH1 0x40 MLOAD DUP1 SWAP2 SUB SWAP1 RETURN JUMPDEST CALLVALUE DUP1 ISZERO PUSH2 0x28A JUMPI PUSH0 PUSH0 REVERT JUMPDEST POP PUSH2 0x2A5 PUSH1 0x4 DUP1 CALLDATASIZE SUB DUP2 ADD SWAP1 PUSH2 0x2A0 SWAP2 SWAP1 PUSH2 0x101E JUMP JUMPDEST PUSH2 0xB29 JUMP JUMPDEST STOP JUMPDEST CALLVALUE DUP1 ISZERO PUSH2 0x2B2 JUMPI PUSH0 PUSH0 REVERT JUMPDEST POP PUSH2 0x2BB PUSH2 0xC6A JUMP JUMPDEST PUSH1 0x40 MLOAD PUSH2 0x2C8 SWAP2 SWAP1 PUSH2 0xC9A JUMP JUMPDEST PUSH1 0x40 MLOAD DUP1 SWAP2 SUB SWAP1 RETURN JUMPDEST CALLVALUE DUP1 ISZERO PUSH2 0x2DC JUMPI PUSH0 PUSH0 REVERT JUMPDEST POP PUSH2 0x2E5 PUSH2 0xC70 JUMP JUMPDEST PUSH1 0x40 MLOAD PUSH2 0x2F2 SWAP2 SWAP1 PUSH2 0xC9A JUMP JUMPDEST PUSH1 0x40 MLOAD DUP1 SWAP2 SUB SWAP1 RETURN JUMPDEST CALLVALUE DUP1 ISZERO PUSH2 0x306 JUMPI PUSH0 PUSH0 REVERT JUMPDEST POP PUSH2 0x30F PUSH2 0xC76 JUMP JUMPDEST PUSH1 0x40 MLOAD PUSH2 0x31C SWAP2 SWAP1 PUSH2 0xC9A JUMP JUMPDEST PUSH1 0x40 MLOAD DUP1 SWAP2 SUB SWAP1 RETURN JUMPDEST CALLVALUE DUP1 ISZERO PUSH2 0x330 JUMPI PUSH0 PUSH0 REVERT JUMPDEST POP PUSH2 0x339 PUSH2 0xC7C JUMP JUMPDEST PUSH1 0x40 MLOAD PUSH2 0x346 SWAP2 SWAP1 PUSH2 0xC9A JUMP JUMPDEST PUSH1 0x40 MLOAD DUP1 SWAP2 SUB SWAP1 RETURN JUMPDEST PUSH1 0x2 SLOAD TIMESTAMP GT PUSH2 0x393 JUMPI PUSH1 0x40 MLOAD PUSH32 0x8C379A000000000000000000000000000000000000000000000000000000000 DUP2 MSTORE PUSH1 0x4 ADD PUSH2 0x38A SWAP1 PUSH2 0x10D4 JUMP JUMPDEST PUSH1 0x40 MLOAD DUP1 SWAP2 SUB SWAP1 REVERT JUMPDEST PUSH1 0x3 SLOAD CALLVALUE LT ISZERO PUSH2 0x3D8 JUMPI PUSH1 0x40 MLOAD PUSH32 0x8C379A000000000000000000000000000000000000000000000000000000000 DUP2 MSTORE PUSH1 0x4 ADD PUSH2 0x3CF SWAP1 PUSH2 0x113C JUMP JUMPDEST PUSH1 0x40 MLOAD DUP1 SWAP2 SUB SWAP1 REVERT JUMPDEST PUSH0 PUSH1 0x7 PUSH0 CALLER PUSH20 0xFFFFFFFFFFFFFFFFFFFFFFFFFFFFFFFFFFFFFFFF AND PUSH20 0xFFFFFFFFFFFFFFFFFFFFFFFFFFFFFFFFFFFFFFFF AND DUP2 MSTORE PUSH1 0x20 ADD SWAP1 DUP2 MSTORE PUSH1 0x20 ADD PUSH0 KECCAK256 SLOAD SUB PUSH2 0x434 JUMPI PUSH1 0x4 PUSH0 DUP2 SLOAD DUP1 SWAP3 SWAP2 SWAP1 PUSH2 0x42E SWAP1 PUSH2 0x1187 JUMP JUMPDEST SWAP2 SWAP1 POP SSTORE POP JUMPDEST CALLVALUE PUSH1 0x7 PUSH0 CALLER PUSH20 0xFFFFFFFFFFFFFFFFFFFFFFFFFFFFFFFFFFFFFFFF AND PUSH20 0xFFFFFFFFFFFFFFFFFFFFFFFFFFFFFFFFFFFFFFFF AND DUP2 MSTORE PUSH1 0x20 ADD SWAP1 DUP2 MSTORE PUSH1 0x20 ADD PUSH0 KECCAK256 PUSH0 DUP3 DUP3 SLOAD PUSH2 0x480 SWAP2 SWAP1 PUSH2 0x11CE JUMP JUMPDEST SWAP3 POP POP DUP2 SWAP1 SSTORE POP CALLVALUE PUSH1 0x5 PUSH0 DUP3 DUP3 SLOAD PUSH2 0x498 SWAP2 SWAP1 PUSH2 0x11CE JUMP JUMPDEST SWAP3 POP POP DUP2 SWAP1 SSTORE POP JUMP JUMPDEST PUSH0 SELFBALANCE SWAP1 POP SWAP1 JUMP JUMPDEST PUSH1 0x7 PUSH1 0x20 MSTORE DUP1 PUSH0 MSTORE PUSH1 0x40 PUSH0 KECCAK256 PUSH0 SWAP2 POP SWAP1 POP SLOAD DUP2 JUMP JUMPDEST PUSH1 0x2 SLOAD DUP2 JUMP JUMPDEST PUSH0 PUSH1 0x7 PUSH0 CALLER PUSH20 0xFFFFFFFFFFFFFFFFFFFFFFFFFFFFFFFFFFFFFFFF AND PUSH20 0xFFFFFFFFFFFFFFFFFFFFFFFFFFFFFFFFFFFFFFFF AND DUP2 MSTORE PUSH1 0x20 ADD SWAP1 DUP2 MSTORE PUSH1 0x20 ADD PUSH0 KECCAK256 SLOAD GT PUSH2 0x542 JUMPI PUSH1 0x40 MLOAD PUSH32 0x8C379A000000000000000000000000000000000000000000000000000000000 DUP2 MSTORE PUSH1 0x4 ADD PUSH2 0x539 SWAP1 PUSH2 0x124B JUMP JUMPDEST PUSH1 0x40 MLOAD DUP1 SWAP2 SUB SWAP1 REVERT JUMPDEST PUSH0 PUSH1 0x8 PUSH0 DUP4 DUP2 MSTORE PUSH1 0x20 ADD SWAP1 DUP2 MSTORE PUSH1 0x20 ADD PUSH0 KECCAK256 SWAP1 POP DUP1 PUSH1 0x5 ADD PUSH0 CALLER PUSH20 0xFFFFFFFFFFFFFFFFFFFFFFFFFFFFFFFFFFFFFFFF AND PUSH20 0xFFFFFFFFFFFFFFFFFFFFFFFFFFFFFFFFFFFFFFFF AND DUP2 MSTORE PUSH1 0x20 ADD SWAP1 DUP2 MSTORE PUSH1 0x20 ADD PUSH0 KECCAK256 PUSH0 SWAP1 SLOAD SWAP1 PUSH2 0x100 EXP SWAP1 DIV PUSH1 0xFF AND ISZERO PUSH2 0x5E2 JUMPI PUSH1 0x40 MLOAD PUSH32 0x8C379A000000000000000000000000000000000000000000000000000000000 DUP2 MSTORE PUSH1 0x4 ADD PUSH2 0x5D9 SWAP1 PUSH2 0x12B3 JUMP JUMPDEST PUSH1 0x40 MLOAD DUP1 SWAP2 SUB SWAP1 REVERT JUMPDEST PUSH1 0x1 DUP2 PUSH1 0x5 ADD PUSH0 CALLER PUSH20 0xFFFFFFFFFFFFFFFFFFFFFFFFFFFFFFFFFFFFFFFF AND PUSH20 0xFFFFFFFFFFFFFFFFFFFFFFFFFFFFFFFFFFFFFFFF AND DUP2 MSTORE PUSH1 0x20 ADD SWAP1 DUP2 MSTORE PUSH1 0x20 ADD PUSH0 KECCAK256 PUSH0 PUSH2 0x100 EXP DUP2 SLOAD DUP2 PUSH1 0xFF MUL NOT AND SWAP1 DUP4 ISZERO ISZERO MUL OR SWAP1 SSTORE POP DUP1 PUSH1 0x4 ADD PUSH0 DUP2 SLOAD DUP1 SWAP3 SWAP2 SWAP1 PUSH2 0x64D SWAP1 PUSH2 0x1187 JUMP JUMPDEST SWAP2 SWAP1 POP SSTORE POP POP POP JUMP JUMPDEST PUSH0 PUSH0 SWAP1 SLOAD SWAP1 PUSH2 0x100 EXP SWAP1 DIV PUSH20 0xFFFFFFFFFFFFFFFFFFFFFFFFFFFFFFFFFFFFFFFF AND PUSH20 0xFFFFFFFFFFFFFFFFFFFFFFFFFFFFFFFFFFFFFFFF AND CALLER PUSH20 0xFFFFFFFFFFFFFFFFFFFFFFFFFFFFFFFFFFFFFFFF AND EQ PUSH2 0x6E4 JUMPI PUSH1 0x40 MLOAD PUSH32 0x8C379A000000000000000000000000000000000000000000000000000000000 DUP2 MSTORE PUSH1 0x4 ADD PUSH2 0x6DB SWAP1 PUSH2 0x1341 JUMP JUMPDEST PUSH1 0x40 MLOAD DUP1 SWAP2 SUB SWAP1 REVERT JUMPDEST PUSH1 0x1 SLOAD PUSH1 0x5 SLOAD LT ISZERO PUSH2 0x72B JUMPI PUSH1 0x40 MLOAD PUSH32 0x8C379A000000000000000000000000000000000000000000000000000000000 DUP2 MSTORE PUSH1 0x4 ADD PUSH2 0x722 SWAP1 PUSH2 0x13A9 JUMP JUMPDEST PUSH1 0x40 MLOAD DUP1 SWAP2 SUB SWAP1 REVERT JUMPDEST PUSH0 PUSH1 0x8 PUSH0 DUP4 DUP2 MSTORE PUSH1 0x20 ADD SWAP1 DUP2 MSTORE PUSH1 0x20 ADD PUSH0 KECCAK256 SWAP1 POP DUP1 PUSH0 ADD PUSH0 SWAP1 SLOAD SWAP1 PUSH2 0x100 EXP SWAP1 DIV PUSH1 0xFF AND ISZERO PUSH2 0x78F JUMPI PUSH1 0x40 MLOAD PUSH32 0x8C379A000000000000000000000000000000000000000000000000000000000 DUP2 MSTORE PUSH1 0x4 ADD PUSH2 0x786 SWAP1 PUSH2 0x1411 JUMP JUMPDEST PUSH1 0x40 MLOAD DUP1 SWAP2 SUB SWAP1 REVERT JUMPDEST PUSH1 0x2 PUSH1 0x4 SLOAD PUSH2 0x79E SWAP2 SWAP1 PUSH2 0x145C JUMP JUMPDEST DUP2 PUSH1 0x4 ADD SLOAD LT ISZERO PUSH2 0x7E4 JUMPI PUSH1 0x40 MLOAD PUSH32 0x8C379A000000000000000000000000000000000000000000000000000000000 DUP2 MSTORE PUSH1 0x4 ADD PUSH2 0x7DB SWAP1 PUSH2 0x14D6 JUMP JUMPDEST PUSH1 0x40 MLOAD DUP1 SWAP2 SUB SWAP1 REVERT JUMPDEST DUP1 PUSH1 0x3 ADD PUSH0 SWAP1 SLOAD SWAP1 PUSH2 0x100 EXP SWAP1 DIV PUSH20 0xFFFFFFFFFFFFFFFFFFFFFFFFFFFFFFFFFFFFFFFF AND PUSH20 0xFFFFFFFFFFFFFFFFFFFFFFFFFFFFFFFFFFFFFFFF AND PUSH2 0x8FC DUP3 PUSH1 0x2 ADD SLOAD SWAP1 DUP2 ISZERO MUL SWAP1 PUSH1 0x40 MLOAD PUSH0 PUSH1 0x40 MLOAD DUP1 DUP4 SUB DUP2 DUP6 DUP9 DUP9 CALL SWAP4 POP POP POP POP ISZERO DUP1 ISZERO PUSH2 0x84E JUMPI RETURNDATASIZE PUSH0 PUSH0 RETURNDATACOPY RETURNDATASIZE PUSH0 REVERT JUMPDEST POP PUSH1 0x1 DUP2 PUSH0 ADD PUSH0 PUSH2 0x100 EXP DUP2 SLOAD DUP2 PUSH1 0xFF MUL NOT AND SWAP1 DUP4 ISZERO ISZERO MUL OR SWAP1 SSTORE POP POP POP JUMP JUMPDEST PUSH1 0x2 SLOAD TIMESTAMP GT DUP1 ISZERO PUSH2 0x882 JUMPI POP PUSH1 0x1 SLOAD PUSH1 0x5 SLOAD LT JUMPDEST PUSH2 0x8C1 JUMPI PUSH1 0x40 MLOAD PUSH32 0x8C379A000000000000000000000000000000000000000000000000000000000 DUP2 MSTORE PUSH1 0x4 ADD PUSH2 0x8B8 SWAP1 PUSH2 0x153E JUMP JUMPDEST PUSH1 0x40 MLOAD DUP1 SWAP2 SUB SWAP1 REVERT JUMPDEST PUSH0 PUSH1 0x7 PUSH0 CALLER PUSH20 0xFFFFFFFFFFFFFFFFFFFFFFFFFFFFFFFFFFFFFFFF AND PUSH20 0xFFFFFFFFFFFFFFFFFFFFFFFFFFFFFFFFFFFFFFFF AND DUP2 MSTORE PUSH1 0x20 ADD SWAP1 DUP2 MSTORE PUSH1 0x20 ADD PUSH0 KECCAK256 SLOAD GT PUSH2 0x940 JUMPI PUSH1 0x40 MLOAD PUSH32 0x8C379A000000000000000000000000000000000000000000000000000000000 DUP2 MSTORE PUSH1 0x4 ADD PUSH2 0x937 SWAP1 PUSH2 0x124B JUMP JUMPDEST PUSH1 0x40 MLOAD DUP1 SWAP2 SUB SWAP1 REVERT JUMPDEST CALLER PUSH20 0xFFFFFFFFFFFFFFFFFFFFFFFFFFFFFFFFFFFFFFFF AND PUSH2 0x8FC PUSH1 0x7 PUSH0 CALLER PUSH20 0xFFFFFFFFFFFFFFFFFFFFFFFFFFFFFFFFFFFFFFFF AND PUSH20 0xFFFFFFFFFFFFFFFFFFFFFFFFFFFFFFFFFFFFFFFF AND DUP2 MSTORE PUSH1 0x20 ADD SWAP1 DUP2 MSTORE PUSH1 0x20 ADD PUSH0 KECCAK256 SLOAD SWAP1 DUP2 ISZERO MUL SWAP1 PUSH1 0x40 MLOAD PUSH0 PUSH1 0x40 MLOAD DUP1 DUP4 SUB DUP2 DUP6 DUP9 DUP9 CALL SWAP4 POP POP POP POP ISZERO DUP1 ISZERO PUSH2 0x9C0 JUMPI RETURNDATASIZE PUSH0 PUSH0 RETURNDATACOPY RETURNDATASIZE PUSH0 REVERT JUMPDEST POP PUSH0 PUSH1 0x7 PUSH0 CALLER PUSH20 0xFFFFFFFFFFFFFFFFFFFFFFFFFFFFFFFFFFFFFFFF AND PUSH20 0xFFFFFFFFFFFFFFFFFFFFFFFFFFFFFFFFFFFFFFFF AND DUP2 MSTORE PUSH1 0x20 ADD SWAP1 DUP2 MSTORE PUSH1 0x20 ADD PUSH0 KECCAK256 DUP2 SWAP1 SSTORE POP PUSH1 0x4 PUSH0 DUP2 SLOAD DUP1 SWAP3 SWAP2 SWAP1 PUSH2 0xA15 SWAP1 PUSH2 0x155C JUMP JUMPDEST SWAP2 SWAP1 POP SSTORE POP JUMP JUMPDEST PUSH1 0x9 SLOAD DUP2 JUMP JUMPDEST PUSH0 PUSH0 SWAP1 SLOAD SWAP1 PUSH2 0x100 EXP SWAP1 DIV PUSH20 0xFFFFFFFFFFFFFFFFFFFFFFFFFFFFFFFFFFFFFFFF AND DUP2 JUMP JUMPDEST PUSH1 0x8 PUSH1 0x20 MSTORE DUP1 PUSH0 MSTORE PUSH1 0x40 PUSH0 KECCAK256 PUSH0 SWAP2 POP SWAP1 POP DUP1 PUSH0 ADD PUSH0 SWAP1 SLOAD SWAP1 PUSH2 0x100 EXP SWAP1 DIV PUSH1 0xFF AND SWAP1 DUP1 PUSH1 0x1 ADD DUP1 SLOAD PUSH2 0xA77 SWAP1 PUSH2 0x15B0 JUMP JUMPDEST DUP1 PUSH1 0x1F ADD PUSH1 0x20 DUP1 SWAP2 DIV MUL PUSH1 0x20 ADD PUSH1 0x40 MLOAD SWAP1 DUP2 ADD PUSH1 0x40 MSTORE DUP1 SWAP3 SWAP2 SWAP1 DUP2 DUP2 MSTORE PUSH1 0x20 ADD DUP3 DUP1 SLOAD PUSH2 0xAA3 SWAP1 PUSH2 0x15B0 JUMP JUMPDEST DUP1 ISZERO PUSH2 0xAEE JUMPI DUP1 PUSH1 0x1F LT PUSH2 0xAC5 JUMPI PUSH2 0x100 DUP1 DUP4 SLOAD DIV MUL DUP4 MSTORE SWAP2 PUSH1 0x20 ADD SWAP2 PUSH2 0xAEE JUMP JUMPDEST DUP3 ADD SWAP2 SWAP1 PUSH0 MSTORE PUSH1 0x20 PUSH0 KECCAK256 SWAP1 JUMPDEST DUP2 SLOAD DUP2 MSTORE SWAP1 PUSH1 0x1 ADD SWAP1 PUSH1 0x20 ADD DUP1 DUP4 GT PUSH2 0xAD1 JUMPI DUP3 SWAP1 SUB PUSH1 0x1F AND DUP3 ADD SWAP2 JUMPDEST POP POP POP POP POP SWAP1 DUP1 PUSH1 0x2 ADD SLOAD SWAP1 DUP1 PUSH1 0x3 ADD PUSH0 SWAP1 SLOAD SWAP1 PUSH2 0x100 EXP SWAP1 DIV PUSH20 0xFFFFFFFFFFFFFFFFFFFFFFFFFFFFFFFFFFFFFFFF AND SWAP1 DUP1 PUSH1 0x4 ADD SLOAD SWAP1 POP DUP6 JUMP JUMPDEST PUSH0 PUSH0 SWAP1 SLOAD SWAP1 PUSH2 0x100 EXP SWAP1 DIV PUSH20 0xFFFFFFFFFFFFFFFFFFFFFFFFFFFFFFFFFFFFFFFF AND PUSH20 0xFFFFFFFFFFFFFFFFFFFFFFFFFFFFFFFFFFFFFFFF AND CALLER PUSH20 0xFFFFFFFFFFFFFFFFFFFFFFFFFFFFFFFFFFFFFFFF AND EQ PUSH2 0xBB7 JUMPI PUSH1 0x40 MLOAD PUSH32 0x8C379A000000000000000000000000000000000000000000000000000000000 DUP2 MSTORE PUSH1 0x4 ADD PUSH2 0xBAE SWAP1 PUSH2 0x1341 JUMP JUMPDEST PUSH1 0x40 MLOAD DUP1 SWAP2 SUB SWAP1 REVERT JUMPDEST PUSH0 PUSH1 0x8 PUSH0 PUSH1 0x9 SLOAD DUP2 MSTORE PUSH1 0x20 ADD SWAP1 DUP2 MSTORE PUSH1 0x20 ADD PUSH0 KECCAK256 SWAP1 POP PUSH1 0x9 PUSH0 DUP2 SLOAD DUP1 SWAP3 SWAP2 SWAP1 PUSH2 0xBDF SWAP1 PUSH2 0x1187 JUMP JUMPDEST SWAP2 SWAP1 POP SSTORE POP DUP4 DUP2 PUSH1 0x1 ADD SWAP1 DUP2 PUSH2 0xBF5 SWAP2 SWAP1 PUSH2 0x1780 JUMP JUMPDEST POP DUP3 DUP2 PUSH1 0x2 ADD DUP2 SWAP1 SSTORE POP DUP2 DUP2 PUSH1 0x3 ADD PUSH0 PUSH2 0x100 EXP DUP2 SLOAD DUP2 PUSH20 0xFFFFFFFFFFFFFFFFFFFFFFFFFFFFFFFFFFFFFFFF MUL NOT AND SWAP1 DUP4 PUSH20 0xFFFFFFFFFFFFFFFFFFFFFFFFFFFFFFFFFFFFFFFF AND MUL OR SWAP1 SSTORE POP PUSH0 DUP2 PUSH1 0x4 ADD DUP2 SWAP1 SSTORE POP PUSH0 DUP2 PUSH0 ADD PUSH0 PUSH2 0x100 EXP DUP2 SLOAD DUP2 PUSH1 0xFF MUL NOT AND SWAP1 DUP4 ISZERO ISZERO MUL OR SWAP1 SSTORE POP POP POP POP POP JUMP JUMPDEST PUSH1 0x3 SLOAD DUP2 JUMP JUMPDEST PUSH1 0x1 SLOAD DUP2 JUMP JUMPDEST PUSH1 0x5 SLOAD DUP2 JUMP JUMPDEST PUSH1 0x4 SLOAD DUP2 JUMP JUMPDEST PUSH0 DUP2 SWAP1 POP SWAP2 SWAP1 POP JUMP JUMPDEST PUSH2 0xC94 DUP2 PUSH2 0xC82 JUMP JUMPDEST DUP3 MSTORE POP POP JUMP JUMPDEST PUSH0 PUSH1 0x20 DUP3 ADD SWAP1 POP PUSH2 0xCAD PUSH0 DUP4 ADD DUP5 PUSH2 0xC8B JUMP JUMPDEST SWAP3 SWAP2 POP POP JUMP JUMPDEST PUSH0 PUSH1 0x40 MLOAD SWAP1 POP SWAP1 JUMP JUMPDEST PUSH0 PUSH0 REVERT JUMPDEST PUSH0 PUSH0 REVERT JUMPDEST PUSH0 PUSH20 0xFFFFFFFFFFFFFFFFFFFFFFFFFFFFFFFFFFFFFFFF DUP3 AND SWAP1 POP SWAP2 SWAP1 POP JUMP JUMPDEST PUSH0 PUSH2 0xCED DUP3 PUSH2 0xCC4 JUMP JUMPDEST SWAP1 POP SWAP2 SWAP1 POP JUMP JUMPDEST PUSH2 0xCFD DUP2 PUSH2 0xCE3 JUMP JUMPDEST DUP2 EQ PUSH2 0xD07 JUMPI PUSH0 PUSH0 REVERT JUMPDEST POP JUMP JUMPDEST PUSH0 DUP2 CALLDATALOAD SWAP1 POP PUSH2 0xD18 DUP2 PUSH2 0xCF4 JUMP JUMPDEST SWAP3 SWAP2 POP POP JUMP JUMPDEST PUSH0 PUSH1 0x20 DUP3 DUP5 SUB SLT ISZERO PUSH2 0xD33 JUMPI PUSH2 0xD32 PUSH2 0xCBC JUMP JUMPDEST JUMPDEST PUSH0 PUSH2 0xD40 DUP5 DUP3 DUP6 ADD PUSH2 0xD0A JUMP JUMPDEST SWAP2 POP POP SWAP3 SWAP2 POP POP JUMP JUMPDEST PUSH2 0xD52 DUP2 PUSH2 0xC82 JUMP JUMPDEST DUP2 EQ PUSH2 0xD5C JUMPI PUSH0 PUSH0 REVERT JUMPDEST POP JUMP JUMPDEST PUSH0 DUP2 CALLDATALOAD SWAP1 POP PUSH2 0xD6D DUP2 PUSH2 0xD49 JUMP JUMPDEST SWAP3 SWAP2 POP POP JUMP JUMPDEST PUSH0 PUSH1 0x20 DUP3 DUP5 SUB SLT ISZERO PUSH2 0xD88 JUMPI PUSH2 0xD87 PUSH2 0xCBC JUMP JUMPDEST JUMPDEST PUSH0 PUSH2 0xD95 DUP5 DUP3 DUP6 ADD PUSH2 0xD5F JUMP JUMPDEST SWAP2 POP POP SWAP3 SWAP2 POP POP JUMP JUMPDEST PUSH2 0xDA7 DUP2 PUSH2 0xCE3 JUMP JUMPDEST DUP3 MSTORE POP POP JUMP JUMPDEST PUSH0 PUSH1 0x20 DUP3 ADD SWAP1 POP PUSH2 0xDC0 PUSH0 DUP4 ADD DUP5 PUSH2 0xD9E JUMP JUMPDEST SWAP3 SWAP2 POP POP JUMP JUMPDEST PUSH0 DUP2 ISZERO ISZERO SWAP1 POP SWAP2 SWAP1 POP JUMP JUMPDEST PUSH2 0xDDA DUP2 PUSH2 0xDC6 JUMP JUMPDEST DUP3 MSTORE POP POP JUMP JUMPDEST PUSH0 DUP2 MLOAD SWAP1 POP SWAP2 SWAP1 POP JUMP JUMPDEST PUSH0 DUP3 DUP3 MSTORE PUSH1 0x20 DUP3 ADD SWAP1 POP SWAP3 SWAP2 POP POP JUMP JUMPDEST DUP3 DUP2 DUP4 MCOPY PUSH0 DUP4 DUP4 ADD MSTORE POP POP POP JUMP JUMPDEST PUSH0 PUSH1 0x1F NOT PUSH1 0x1F DUP4 ADD AND SWAP1 POP SWAP2 SWAP1 POP JUMP JUMPDEST PUSH0 PUSH2 0xE22 DUP3 PUSH2 0xDE0 JUMP JUMPDEST PUSH2 0xE2C DUP2 DUP6 PUSH2 0xDEA JUMP JUMPDEST SWAP4 POP PUSH2 0xE3C DUP2 DUP6 PUSH1 0x20 DUP7 ADD PUSH2 0xDFA JUMP JUMPDEST PUSH2 0xE45 DUP2 PUSH2 0xE08 JUMP JUMPDEST DUP5 ADD SWAP2 POP POP SWAP3 SWAP2 POP POP JUMP JUMPDEST PUSH0 PUSH2 0xE5A DUP3 PUSH2 0xCC4 JUMP JUMPDEST SWAP1 POP SWAP2 SWAP1 POP JUMP JUMPDEST PUSH2 0xE6A DUP2 PUSH2 0xE50 JUMP JUMPDEST DUP3 MSTORE POP POP JUMP JUMPDEST PUSH0 PUSH1 0xA0 DUP3 ADD SWAP1 POP PUSH2 0xE83 PUSH0 DUP4 ADD DUP9 PUSH2 0xDD1 JUMP JUMPDEST DUP2 DUP2 SUB PUSH1 0x20 DUP4 ADD MSTORE PUSH2 0xE95 DUP2 DUP8 PUSH2 0xE18 JUMP JUMPDEST SWAP1 POP PUSH2 0xEA4 PUSH1 0x40 DUP4 ADD DUP7 PUSH2 0xC8B JUMP JUMPDEST PUSH2 0xEB1 PUSH1 0x60 DUP4 ADD DUP6 PUSH2 0xE61 JUMP JUMPDEST PUSH2 0xEBE PUSH1 0x80 DUP4 ADD DUP5 PUSH2 0xC8B JUMP JUMPDEST SWAP7 SWAP6 POP POP POP POP POP POP JUMP JUMPDEST PUSH0 PUSH0 REVERT JUMPDEST PUSH0 PUSH0 REVERT JUMPDEST PUSH32 0x4E487B7100000000000000000000000000000000000000000000000000000000 PUSH0 MSTORE PUSH1 0x41 PUSH1 0x4 MSTORE PUSH1 0x24 PUSH0 REVERT JUMPDEST PUSH2 0xF06 DUP3 PUSH2 0xE08 JUMP JUMPDEST DUP2 ADD DUP2 DUP2 LT PUSH8 0xFFFFFFFFFFFFFFFF DUP3 GT OR ISZERO PUSH2 0xF25 JUMPI PUSH2 0xF24 PUSH2 0xED0 JUMP JUMPDEST JUMPDEST DUP1 PUSH1 0x40 MSTORE POP POP POP JUMP JUMPDEST PUSH0 PUSH2 0xF37 PUSH2 0xCB3 JUMP JUMPDEST SWAP1 POP PUSH2 0xF43 DUP3 DUP3 PUSH2 0xEFD JUMP JUMPDEST SWAP2 SWAP1 POP JUMP JUMPDEST PUSH0 PUSH8 0xFFFFFFFFFFFFFFFF DUP3 GT ISZERO PUSH2 0xF62 JUMPI PUSH2 0xF61 PUSH2 0xED0 JUMP JUMPDEST JUMPDEST PUSH2 0xF6B DUP3 PUSH2 0xE08 JUMP JUMPDEST SWAP1 POP PUSH1 0x20 DUP2 ADD SWAP1 POP SWAP2 SWAP1 POP JUMP JUMPDEST DUP3 DUP2 DUP4 CALLDATACOPY PUSH0 DUP4 DUP4 ADD MSTORE POP POP POP JUMP JUMPDEST PUSH0 PUSH2 0xF98 PUSH2 0xF93 DUP5 PUSH2 0xF48 JUMP JUMPDEST PUSH2 0xF2E JUMP JUMPDEST SWAP1 POP DUP3 DUP2 MSTORE PUSH1 0x20 DUP2 ADD DUP5 DUP5 DUP5 ADD GT ISZERO PUSH2 0xFB4 JUMPI PUSH2 0xFB3 PUSH2 0xECC JUMP JUMPDEST JUMPDEST PUSH2 0xFBF DUP5 DUP3 DUP6 PUSH2 0xF78 JUMP JUMPDEST POP SWAP4 SWAP3 POP POP POP JUMP JUMPDEST PUSH0 DUP3 PUSH1 0x1F DUP4 ADD SLT PUSH2 0xFDB JUMPI PUSH2 0xFDA PUSH2 0xEC8 JUMP JUMPDEST JUMPDEST DUP2 CALLDATALOAD PUSH2 0xFEB DUP5 DUP3 PUSH1 0x20 DUP7 ADD PUSH2 0xF86 JUMP JUMPDEST SWAP2 POP POP SWAP3 SWAP2 POP POP JUMP JUMPDEST PUSH2 0xFFD DUP2 PUSH2 0xE50 JUMP JUMPDEST DUP2 EQ PUSH2 0x1007 JUMPI PUSH0 PUSH0 REVERT JUMPDEST POP JUMP JUMPDEST PUSH0 DUP2 CALLDATALOAD SWAP1 POP PUSH2 0x1018 DUP2 PUSH2 0xFF4 JUMP JUMPDEST SWAP3 SWAP2 POP POP JUMP JUMPDEST PUSH0 PUSH0 PUSH0 PUSH1 0x60 DUP5 DUP7 SUB SLT ISZERO PUSH2 0x1035 JUMPI PUSH2 0x1034 PUSH2 0xCBC JUMP JUMPDEST JUMPDEST PUSH0 DUP5 ADD CALLDATALOAD PUSH8 0xFFFFFFFFFFFFFFFF DUP2 GT ISZERO PUSH2 0x1052 JUMPI PUSH2 0x1051 PUSH2 0xCC0 JUMP JUMPDEST JUMPDEST PUSH2 0x105E DUP7 DUP3 DUP8 ADD PUSH2 0xFC7 JUMP JUMPDEST SWAP4 POP POP PUSH1 0x20 PUSH2 0x106F DUP7 DUP3 DUP8 ADD PUSH2 0xD5F JUMP JUMPDEST SWAP3 POP POP PUSH1 0x40 PUSH2 0x1080 DUP7 DUP3 DUP8 ADD PUSH2 0x100A JUMP JUMPDEST SWAP2 POP POP SWAP3 POP SWAP3 POP SWAP3 JUMP JUMPDEST PUSH32 0x46756E64696E672074696D65206F766572000000000000000000000000000000 PUSH0 DUP3 ADD MSTORE POP JUMP JUMPDEST PUSH0 PUSH2 0x10BE PUSH1 0x11 DUP4 PUSH2 0xDEA JUMP JUMPDEST SWAP2 POP PUSH2 0x10C9 DUP3 PUSH2 0x108A JUMP JUMPDEST PUSH1 0x20 DUP3 ADD SWAP1 POP SWAP2 SWAP1 POP JUMP JUMPDEST PUSH0 PUSH1 0x20 DUP3 ADD SWAP1 POP DUP2 DUP2 SUB PUSH0 DUP4 ADD MSTORE PUSH2 0x10EB DUP2 PUSH2 0x10B2 JUMP JUMPDEST SWAP1 POP SWAP2 SWAP1 POP JUMP JUMPDEST PUSH32 0x6D696E696D756D20636F6E747269627574696F6E206E6F74206D657400000000 PUSH0 DUP3 ADD MSTORE POP JUMP JUMPDEST PUSH0 PUSH2 0x1126 PUSH1 0x1C DUP4 PUSH2 0xDEA JUMP JUMPDEST SWAP2 POP PUSH2 0x1131 DUP3 PUSH2 0x10F2 JUMP JUMPDEST PUSH1 0x20 DUP3 ADD SWAP1 POP SWAP2 SWAP1 POP JUMP JUMPDEST PUSH0 PUSH1 0x20 DUP3 ADD SWAP1 POP DUP2 DUP2 SUB PUSH0 DUP4 ADD MSTORE PUSH2 0x1153 DUP2 PUSH2 0x111A JUMP JUMPDEST SWAP1 POP SWAP2 SWAP1 POP JUMP JUMPDEST PUSH32 0x4E487B7100000000000000000000000000000000000000000000000000000000 PUSH0 MSTORE PUSH1 0x11 PUSH1 0x4 MSTORE PUSH1 0x24 PUSH0 REVERT JUMPDEST PUSH0 PUSH2 0x1191 DUP3 PUSH2 0xC82 JUMP JUMPDEST SWAP2 POP PUSH32 0xFFFFFFFFFFFFFFFFFFFFFFFFFFFFFFFFFFFFFFFFFFFFFFFFFFFFFFFFFFFFFFFF DUP3 SUB PUSH2 0x11C3 JUMPI PUSH2 0x11C2 PUSH2 0x115A JUMP JUMPDEST JUMPDEST PUSH1 0x1 DUP3 ADD SWAP1 POP SWAP2 SWAP1 POP JUMP JUMPDEST PUSH0 PUSH2 0x11D8 DUP3 PUSH2 0xC82 JUMP JUMPDEST SWAP2 POP PUSH2 0x11E3 DUP4 PUSH2 0xC82 JUMP JUMPDEST SWAP3 POP DUP3 DUP3 ADD SWAP1 POP DUP1 DUP3 GT ISZERO PUSH2 0x11FB JUMPI PUSH2 0x11FA PUSH2 0x115A JUMP JUMPDEST JUMPDEST SWAP3 SWAP2 POP POP JUMP JUMPDEST PUSH32 0x596F7520617265206E6F74206120636F6E7472696275746F7200000000000000 PUSH0 DUP3 ADD MSTORE POP JUMP JUMPDEST PUSH0 PUSH2 0x1235 PUSH1 0x19 DUP4 PUSH2 0xDEA JUMP JUMPDEST SWAP2 POP PUSH2 0x1240 DUP3 PUSH2 0x1201 JUMP JUMPDEST PUSH1 0x20 DUP3 ADD SWAP1 POP SWAP2 SWAP1 POP JUMP JUMPDEST PUSH0 PUSH1 0x20 DUP3 ADD SWAP1 POP DUP2 DUP2 SUB PUSH0 DUP4 ADD MSTORE PUSH2 0x1262 DUP2 PUSH2 0x1229 JUMP JUMPDEST SWAP1 POP SWAP2 SWAP1 POP JUMP JUMPDEST PUSH32 0x796F7520617265206E6F7420766F746520796574000000000000000000000000 PUSH0 DUP3 ADD MSTORE POP JUMP JUMPDEST PUSH0 PUSH2 0x129D PUSH1 0x14 DUP4 PUSH2 0xDEA JUMP JUMPDEST SWAP2 POP PUSH2 0x12A8 DUP3 PUSH2 0x1269 JUMP JUMPDEST PUSH1 0x20 DUP3 ADD SWAP1 POP SWAP2 SWAP1 POP JUMP JUMPDEST PUSH0 PUSH1 0x20 DUP3 ADD SWAP1 POP DUP2 DUP2 SUB PUSH0 DUP4 ADD MSTORE PUSH2 0x12CA DUP2 PUSH2 0x1291 JUMP JUMPDEST SWAP1 POP SWAP2 SWAP1 POP JUMP JUMPDEST PUSH32 0x4F6E6C79206F7267616E697A65722063616C6C20746869732066756E6374696F PUSH0 DUP3 ADD MSTORE PUSH32 0x6E00000000000000000000000000000000000000000000000000000000000000 PUSH1 0x20 DUP3 ADD MSTORE POP JUMP JUMPDEST PUSH0 PUSH2 0x132B PUSH1 0x21 DUP4 PUSH2 0xDEA JUMP JUMPDEST SWAP2 POP PUSH2 0x1336 DUP3 PUSH2 0x12D1 JUMP JUMPDEST PUSH1 0x40 DUP3 ADD SWAP1 POP SWAP2 SWAP1 POP JUMP JUMPDEST PUSH0 PUSH1 0x20 DUP3 ADD SWAP1 POP DUP2 DUP2 SUB PUSH0 DUP4 ADD MSTORE PUSH2 0x1358 DUP2 PUSH2 0x131F JUMP JUMPDEST SWAP1 POP SWAP2 SWAP1 POP JUMP JUMPDEST PUSH32 0x746172676574206973206E6F74206D6574000000000000000000000000000000 PUSH0 DUP3 ADD MSTORE POP JUMP JUMPDEST PUSH0 PUSH2 0x1393 PUSH1 0x11 DUP4 PUSH2 0xDEA JUMP JUMPDEST SWAP2 POP PUSH2 0x139E DUP3 PUSH2 0x135F JUMP JUMPDEST PUSH1 0x20 DUP3 ADD SWAP1 POP SWAP2 SWAP1 POP JUMP JUMPDEST PUSH0 PUSH1 0x20 DUP3 ADD SWAP1 POP DUP2 DUP2 SUB PUSH0 DUP4 ADD MSTORE PUSH2 0x13C0 DUP2 PUSH2 0x1387 JUMP JUMPDEST SWAP1 POP SWAP2 SWAP1 POP JUMP JUMPDEST PUSH32 0x746865207265717565737420697320636F6D706C657465640000000000000000 PUSH0 DUP3 ADD MSTORE POP JUMP JUMPDEST PUSH0 PUSH2 0x13FB PUSH1 0x18 DUP4 PUSH2 0xDEA JUMP JUMPDEST SWAP2 POP PUSH2 0x1406 DUP3 PUSH2 0x13C7 JUMP JUMPDEST PUSH1 0x20 DUP3 ADD SWAP1 POP SWAP2 SWAP1 POP JUMP JUMPDEST PUSH0 PUSH1 0x20 DUP3 ADD SWAP1 POP DUP2 DUP2 SUB PUSH0 DUP4 ADD MSTORE PUSH2 0x1428 DUP2 PUSH2 0x13EF JUMP JUMPDEST SWAP1 POP SWAP2 SWAP1 POP JUMP JUMPDEST PUSH32 0x4E487B7100000000000000000000000000000000000000000000000000000000 PUSH0 MSTORE PUSH1 0x12 PUSH1 0x4 MSTORE PUSH1 0x24 PUSH0 REVERT JUMPDEST PUSH0 PUSH2 0x1466 DUP3 PUSH2 0xC82 JUMP JUMPDEST SWAP2 POP PUSH2 0x1471 DUP4 PUSH2 0xC82 JUMP JUMPDEST SWAP3 POP DUP3 PUSH2 0x1481 JUMPI PUSH2 0x1480 PUSH2 0x142F JUMP JUMPDEST JUMPDEST DUP3 DUP3 DIV SWAP1 POP SWAP3 SWAP2 POP POP JUMP JUMPDEST PUSH32 0x6E6F7420656E6F7567682020766F746572730000000000000000000000000000 PUSH0 DUP3 ADD MSTORE POP JUMP JUMPDEST PUSH0 PUSH2 0x14C0 PUSH1 0x12 DUP4 PUSH2 0xDEA JUMP JUMPDEST SWAP2 POP PUSH2 0x14CB DUP3 PUSH2 0x148C JUMP JUMPDEST PUSH1 0x20 DUP3 ADD SWAP1 POP SWAP2 SWAP1 POP JUMP JUMPDEST PUSH0 PUSH1 0x20 DUP3 ADD SWAP1 POP DUP2 DUP2 SUB PUSH0 DUP4 ADD MSTORE PUSH2 0x14ED DUP2 PUSH2 0x14B4 JUMP JUMPDEST SWAP1 POP SWAP2 SWAP1 POP JUMP JUMPDEST PUSH32 0x596F7520617265206E6F7420656C696769626C6520666F7220726566756E6400 PUSH0 DUP3 ADD MSTORE POP JUMP JUMPDEST PUSH0 PUSH2 0x1528 PUSH1 0x1F DUP4 PUSH2 0xDEA JUMP JUMPDEST SWAP2 POP PUSH2 0x1533 DUP3 PUSH2 0x14F4 JUMP JUMPDEST PUSH1 0x20 DUP3 ADD SWAP1 POP SWAP2 SWAP1 POP JUMP JUMPDEST PUSH0 PUSH1 0x20 DUP3 ADD SWAP1 POP DUP2 DUP2 SUB PUSH0 DUP4 ADD MSTORE PUSH2 0x1555 DUP2 PUSH2 0x151C JUMP JUMPDEST SWAP1 POP SWAP2 SWAP1 POP JUMP JUMPDEST PUSH0 PUSH2 0x1566 DUP3 PUSH2 0xC82 JUMP JUMPDEST SWAP2 POP PUSH0 DUP3 SUB PUSH2 0x1578 JUMPI PUSH2 0x1577 PUSH2 0x115A JUMP JUMPDEST JUMPDEST PUSH1 0x1 DUP3 SUB SWAP1 POP SWAP2 SWAP1 POP JUMP JUMPDEST PUSH32 0x4E487B7100000000000000000000000000000000000000000000000000000000 PUSH0 MSTORE PUSH1 0x22 PUSH1 0x4 MSTORE PUSH1 0x24 PUSH0 REVERT JUMPDEST PUSH0 PUSH1 0x2 DUP3 DIV SWAP1 POP PUSH1 0x1 DUP3 AND DUP1 PUSH2 0x15C7 JUMPI PUSH1 0x7F DUP3 AND SWAP2 POP JUMPDEST PUSH1 0x20 DUP3 LT DUP2 SUB PUSH2 0x15DA JUMPI PUSH2 0x15D9 PUSH2 0x1583 JUMP JUMPDEST JUMPDEST POP SWAP2 SWAP1 POP JUMP JUMPDEST PUSH0 DUP2 SWAP1 POP DUP2 PUSH0 MSTORE PUSH1 0x20 PUSH0 KECCAK256 SWAP1 POP SWAP2 SWAP1 POP JUMP JUMPDEST PUSH0 PUSH1 0x20 PUSH1 0x1F DUP4 ADD DIV SWAP1 POP SWAP2 SWAP1 POP JUMP JUMPDEST PUSH0 DUP3 DUP3 SHL SWAP1 POP SWAP3 SWAP2 POP POP JUMP JUMPDEST PUSH0 PUSH1 0x8 DUP4 MUL PUSH2 0x163C PUSH32 0xFFFFFFFFFFFFFFFFFFFFFFFFFFFFFFFFFFFFFFFFFFFFFFFFFFFFFFFFFFFFFFFF DUP3 PUSH2 0x1601 JUMP JUMPDEST PUSH2 0x1646 DUP7 DUP4 PUSH2 0x1601 JUMP JUMPDEST SWAP6 POP DUP1 NOT DUP5 AND SWAP4 POP DUP1 DUP7 AND DUP5 OR SWAP3 POP POP POP SWAP4 SWAP3 POP POP POP JUMP JUMPDEST PUSH0 DUP2 SWAP1 POP SWAP2 SWAP1 POP JUMP JUMPDEST PUSH0 PUSH2 0x1681 PUSH2 0x167C PUSH2 0x1677 DUP5 PUSH2 0xC82 JUMP JUMPDEST PUSH2 0x165E JUMP JUMPDEST PUSH2 0xC82 JUMP JUMPDEST SWAP1 POP SWAP2 SWAP1 POP JUMP JUMPDEST PUSH0 DUP2 SWAP1 POP SWAP2 SWAP1 POP JUMP JUMPDEST PUSH2 0x169A DUP4 PUSH2 0x1667 JUMP JUMPDEST PUSH2 0x16AE PUSH2 0x16A6 DUP3 PUSH2 0x1688 JUMP JUMPDEST DUP5 DUP5 SLOAD PUSH2 0x160D JUMP JUMPDEST DUP3 SSTORE POP POP POP POP JUMP JUMPDEST PUSH0 PUSH0 SWAP1 POP SWAP1 JUMP JUMPDEST PUSH2 0x16C5 PUSH2 0x16B6 JUMP JUMPDEST PUSH2 0x16D0 DUP2 DUP5 DUP5 PUSH2 0x1691 JUMP JUMPDEST POP POP POP JUMP JUMPDEST JUMPDEST DUP2 DUP2 LT ISZERO PUSH2 0x16F3 JUMPI PUSH2 0x16E8 PUSH0 DUP3 PUSH2 0x16BD JUMP JUMPDEST PUSH1 0x1 DUP2 ADD SWAP1 POP PUSH2 0x16D6 JUMP JUMPDEST POP POP JUMP JUMPDEST PUSH1 0x1F DUP3 GT ISZERO PUSH2 0x1738 JUMPI PUSH2 0x1709 DUP2 PUSH2 0x15E0 JUMP JUMPDEST PUSH2 0x1712 DUP5 PUSH2 0x15F2 JUMP JUMPDEST DUP2 ADD PUSH1 0x20 DUP6 LT ISZERO PUSH2 0x1721 JUMPI DUP2 SWAP1 POP JUMPDEST PUSH2 0x1735 PUSH2 0x172D DUP6 PUSH2 0x15F2 JUMP JUMPDEST DUP4 ADD DUP3 PUSH2 0x16D5 JUMP JUMPDEST POP POP JUMPDEST POP POP POP JUMP JUMPDEST PUSH0 DUP3 DUP3 SHR SWAP1 POP SWAP3 SWAP2 POP POP JUMP JUMPDEST PUSH0 PUSH2 0x1758 PUSH0 NOT DUP5 PUSH1 0x8 MUL PUSH2 0x173D JUMP JUMPDEST NOT DUP1 DUP4 AND SWAP2 POP POP SWAP3 SWAP2 POP POP JUMP JUMPDEST PUSH0 PUSH2 0x1770 DUP4 DUP4 PUSH2 0x1749 JUMP JUMPDEST SWAP2 POP DUP3 PUSH1 0x2 MUL DUP3 OR SWAP1 POP SWAP3 SWAP2 POP POP JUMP JUMPDEST PUSH2 0x1789 DUP3 PUSH2 0xDE0 JUMP JUMPDEST PUSH8 0xFFFFFFFFFFFFFFFF DUP2 GT ISZERO PUSH2 0x17A2 JUMPI PUSH2 0x17A1 PUSH2 0xED0 JUMP JUMPDEST JUMPDEST PUSH2 0x17AC DUP3 SLOAD PUSH2 0x15B0 JUMP JUMPDEST PUSH2 0x17B7 DUP3 DUP3 DUP6 PUSH2 0x16F7 JUMP JUMPDEST PUSH0 PUSH1 0x20 SWAP1 POP PUSH1 0x1F DUP4 GT PUSH1 0x1 DUP2 EQ PUSH2 0x17E8 JUMPI PUSH0 DUP5 ISZERO PUSH2 0x17D6 JUMPI DUP3 DUP8 ADD MLOAD SWAP1 POP JUMPDEST PUSH2 0x17E0 DUP6 DUP3 PUSH2 0x1765 JUMP JUMPDEST DUP7 SSTORE POP PUSH2 0x1847 JUMP JUMPDEST PUSH1 0x1F NOT DUP5 AND PUSH2 0x17F6 DUP7 PUSH2 0x15E0 JUMP JUMPDEST PUSH0 JUMPDEST DUP3 DUP2 LT ISZERO PUSH2 0x181D JUMPI DUP5 DUP10 ADD MLOAD DUP3 SSTORE PUSH1 0x1 DUP3 ADD SWAP2 POP PUSH1 0x20 DUP6 ADD SWAP5 POP PUSH1 0x20 DUP2 ADD SWAP1 POP PUSH2 0x17F8 JUMP JUMPDEST DUP7 DUP4 LT ISZERO PUSH2 0x183A JUMPI DUP5 DUP10 ADD MLOAD PUSH2 0x1836 PUSH1 0x1F DUP10 AND DUP3 PUSH2 0x1749 JUMP JUMPDEST DUP4 SSTORE POP JUMPDEST PUSH1 0x1 PUSH1 0x2 DUP9 MUL ADD DUP9 SSTORE POP POP POP JUMPDEST POP POP POP POP POP POP JUMP INVALID LOG2 PUSH5 0x6970667358 0x22 SLT KECCAK256 0xCF PUSH27 0x7D07D037F88CC072ECD2073C8ACAEA20D887D2FBF697F9FDCBC693 SWAP12 0xEF RJUMP 0x6473 PUSH16 0x6C634300081E00330000000000000000 "
				},
				"gasEstimates": {
					"creation": {
						"codeDepositCost": "1255400",
						"executionCost": "infinite",
						"totalCost": "infinite"
					},
					"external": {
						"contributors(address)": "2870",
						"createRequest(string,uint256,address)": "infinite",
						"deadline()": "2448",
						"getBalance()": "380",
						"makePayment(uint256)": "infinite",
						"minContribution()": "2447",
						"organizer()": "2552",
						"raiseAmount()": "2491",
						"refund()": "infinite",
						"requestCount()": "2448",
						"requests(uint256)": "infinite",
						"sendEth()": "infinite",
						"target()": "2469",
						"totalContributors()": "2513",
						"voteRequest(uint256)": "infinite"
					}
				},
				"methodIdentifiers": {
					"contributors(address)": "1f6d4942",
					"createRequest(string,uint256,address)": "8a9cfd55",
					"deadline()": "29dcb0cf",
					"getBalance()": "12065fe0",
					"makePayment(uint256)": "5114cb52",
					"minContribution()": "aaffadf3",
					"organizer()": "61203265",
					"raiseAmount()": "db638f0b",
					"refund()": "590e1ae3",
					"requestCount()": "5badbe4c",
					"requests(uint256)": "81d12c58",
					"sendEth()": "06e99fef",
					"target()": "d4b83992",
					"totalContributors()": "f251fc8c",
					"voteRequest(uint256)": "4cb6f4a5"
				}
			},
			"storageLayout": {
				"storage": [
					{
						"astId": 3,
						"contract": "CrowdFundingProject.sol:crowdFunding",
						"label": "organizer",
						"offset": 0,
						"slot": "0",
						"type": "t_address"
					},
					{
						"astId": 5,
						"contract": "CrowdFundingProject.sol:crowdFunding",
						"label": "target",
						"offset": 0,
						"slot": "1",
						"type": "t_uint256"
					},
					{
						"astId": 7,
						"contract": "CrowdFundingProject.sol:crowdFunding",
						"label": "deadline",
						"offset": 0,
						"slot": "2",
						"type": "t_uint256"
					},
					{
						"astId": 9,
						"contract": "CrowdFundingProject.sol:crowdFunding",
						"label": "minContribution",
						"offset": 0,
						"slot": "3",
						"type": "t_uint256"
					},
					{
						"astId": 11,
						"contract": "CrowdFundingProject.sol:crowdFunding",
						"label": "totalContributors",
						"offset": 0,
						"slot": "4",
						"type": "t_uint256"
					},
					{
						"astId": 13,
						"contract": "CrowdFundingProject.sol:crowdFunding",
						"label": "raiseAmount",
						"offset": 0,
						"slot": "5",
						"type": "t_uint256"
					},
					{
						"astId": 15,
						"contract": "CrowdFundingProject.sol:crowdFunding",
						"label": "isFund",
						"offset": 0,
						"slot": "6",
						"type": "t_bool"
					},
					{
						"astId": 19,
						"contract": "CrowdFundingProject.sol:crowdFunding",
						"label": "contributors",
						"offset": 0,
						"slot": "7",
						"type": "t_mapping(t_address,t_uint256)"
					},
					{
						"astId": 73,
						"contract": "CrowdFundingProject.sol:crowdFunding",
						"label": "requests",
						"offset": 0,
						"slot": "8",
						"type": "t_mapping(t_uint256,t_struct(Request)68_storage)"
					},
					{
						"astId": 75,
						"contract": "CrowdFundingProject.sol:crowdFunding",
						"label": "requestCount",
						"offset": 0,
						"slot": "9",
						"type": "t_uint256"
					}
				],
				"types": {
					"t_address": {
						"encoding": "inplace",
						"label": "address",
						"numberOfBytes": "20"
					},
					"t_address_payable": {
						"encoding": "inplace",
						"label": "address payable",
						"numberOfBytes": "20"
					},
					"t_bool": {
						"encoding": "inplace",
						"label": "bool",
						"numberOfBytes": "1"
					},
					"t_mapping(t_address,t_bool)": {
						"encoding": "mapping",
						"key": "t_address",
						"label": "mapping(address => bool)",
						"numberOfBytes": "32",
						"value": "t_bool"
					},
					"t_mapping(t_address,t_uint256)": {
						"encoding": "mapping",
						"key": "t_address",
						"label": "mapping(address => uint256)",
						"numberOfBytes": "32",
						"value": "t_uint256"
					},
					"t_mapping(t_uint256,t_struct(Request)68_storage)": {
						"encoding": "mapping",
						"key": "t_uint256",
						"label": "mapping(uint256 => struct crowdFunding.Request)",
						"numberOfBytes": "32",
						"value": "t_struct(Request)68_storage"
					},
					"t_string_storage": {
						"encoding": "bytes",
						"label": "string",
						"numberOfBytes": "32"
					},
					"t_struct(Request)68_storage": {
						"encoding": "inplace",
						"label": "struct crowdFunding.Request",
						"members": [
							{
								"astId": 55,
								"contract": "CrowdFundingProject.sol:crowdFunding",
								"label": "isComplete",
								"offset": 0,
								"slot": "0",
								"type": "t_bool"
							},
							{
								"astId": 57,
								"contract": "CrowdFundingProject.sol:crowdFunding",
								"label": "description",
								"offset": 0,
								"slot": "1",
								"type": "t_string_storage"
							},
							{
								"astId": 59,
								"contract": "CrowdFundingProject.sol:crowdFunding",
								"label": "value",
								"offset": 0,
								"slot": "2",
								"type": "t_uint256"
							},
							{
								"astId": 61,
								"contract": "CrowdFundingProject.sol:crowdFunding",
								"label": "recipient",
								"offset": 0,
								"slot": "3",
								"type": "t_address_payable"
							},
							{
								"astId": 63,
								"contract": "CrowdFundingProject.sol:crowdFunding",
								"label": "noOfVoter",
								"offset": 0,
								"slot": "4",
								"type": "t_uint256"
							},
							{
								"astId": 67,
								"contract": "CrowdFundingProject.sol:crowdFunding",
								"label": "voters",
								"offset": 0,
								"slot": "5",
								"type": "t_mapping(t_address,t_bool)"
							}
						],
						"numberOfBytes": "192"
					},
					"t_uint256": {
						"encoding": "inplace",
						"label": "uint256",
						"numberOfBytes": "32"
					}
				}
			},
			"userdoc": {
				"kind": "user",
				"methods": {},
				"version": 1
			}
		}
	}
}