{
	"multiSigWallet.sol": {
		"multiSig": {
			"abi": [
				{
					"inputs": [
						{
							"internalType": "address[]",
							"name": "_owners",
							"type": "address[]"
						},
						{
							"internalType": "uint256",
							"name": "_numberOfCompletion",
							"type": "uint256"
						}
					],
					"stateMutability": "nonpayable",
					"type": "constructor"
				},
				{
					"anonymous": false,
					"inputs": [
						{
							"indexed": false,
							"internalType": "uint256",
							"name": "transactionId",
							"type": "uint256"
						}
					],
					"name": "TransactionConfirmation",
					"type": "event"
				},
				{
					"anonymous": false,
					"inputs": [
						{
							"indexed": false,
							"internalType": "uint256",
							"name": "transactionId",
							"type": "uint256"
						}
					],
					"name": "TransactionExecuted",
					"type": "event"
				},
				{
					"anonymous": false,
					"inputs": [
						{
							"indexed": false,
							"internalType": "uint256",
							"name": "TransactionId",
							"type": "uint256"
						},
						{
							"indexed": false,
							"internalType": "address",
							"name": "sender",
							"type": "address"
						},
						{
							"indexed": false,
							"internalType": "address",
							"name": "receiver",
							"type": "address"
						},
						{
							"indexed": false,
							"internalType": "uint256",
							"name": "value",
							"type": "uint256"
						}
					],
					"name": "TransactionSbmit",
					"type": "event"
				},
				{
					"inputs": [
						{
							"internalType": "uint256",
							"name": "_transactionId",
							"type": "uint256"
						}
					],
					"name": "ConfirmTransaction",
					"outputs": [],
					"stateMutability": "nonpayable",
					"type": "function"
				},
				{
					"inputs": [
						{
							"internalType": "uint256",
							"name": "_transactionId",
							"type": "uint256"
						}
					],
					"name": "ExcuteTransaction",
					"outputs": [],
					"stateMutability": "nonpayable",
					"type": "function"
				},
				{
					"inputs": [
						{
							"internalType": "uint256",
							"name": "",
							"type": "uint256"
						},
						{
							"internalType": "address",
							"name": "",
							"type": "address"
						}
					],
					"name": "isconfirmed",
					"outputs": [
						{
							"internalType": "bool",
							"name": "",
							"type": "bool"
						}
					],
					"stateMutability": "view",
					"type": "function"
				},
				{
					"inputs": [
						{
							"internalType": "uint256",
							"name": "",
							"type": "uint256"
						}
					],
					"name": "owners",
					"outputs": [
						{
							"internalType": "address",
							"name": "",
							"type": "address"
						}
					],
					"stateMutability": "view",
					"type": "function"
				},
				{
					"inputs": [
						{
							"internalType": "address",
							"name": "_to",
							"type": "address"
						}
					],
					"name": "submitTransaction",
					"outputs": [],
					"stateMutability": "payable",
					"type": "function"
				},
				{
					"inputs": [
						{
							"internalType": "uint256",
							"name": "",
							"type": "uint256"
						}
					],
					"name": "transactions",
					"outputs": [
						{
							"internalType": "address",
							"name": "to",
							"type": "address"
						},
						{
							"internalType": "uint256",
							"name": "value",
							"type": "uint256"
						},
						{
							"internalType": "bool",
							"name": "execute",
							"type": "bool"
						}
					],
					"stateMutability": "view",
					"type": "function"
				}
			],
			"devdoc": {
				"kind": "dev",
				"methods": {},
				"version": 1
			},
			"evm": {
				"assembly": "    /* \"multiSigWallet.sol\":58:2728  contract multiSig{... */\n  mstore(0x40, 0x80)\n    /* \"multiSigWallet.sol\":544:1030  constructor(address[] memory _owners, uint _numberOfCompletion){... */\n  callvalue\n  dup1\n  iszero\n  tag_1\n  jumpi\n  revert(0x00, 0x00)\ntag_1:\n  pop\n  mload(0x40)\n  sub(codesize, bytecodeSize)\n  dup1\n  bytecodeSize\n  dup4\n  codecopy\n  dup2\n  dup2\n  add\n  0x40\n  mstore\n  dup2\n  add\n  swap1\n  tag_2\n  swap2\n  swap1\n  tag_3\n  jump\t// in\ntag_2:\n    /* \"multiSigWallet.sol\":641:642  1 */\n  0x01\n    /* \"multiSigWallet.sol\":626:633  _owners */\n  dup3\n    /* \"multiSigWallet.sol\":626:640  _owners.length */\n  mload\n    /* \"multiSigWallet.sol\":626:642  _owners.length>1 */\n  gt\n    /* \"multiSigWallet.sol\":618:684  require(_owners.length>1,\"owners required must be greater than 1\") */\n  tag_6\n  jumpi\n  mload(0x40)\n  0x08c379a000000000000000000000000000000000000000000000000000000000\n  dup2\n  mstore\n  0x04\n  add\n  tag_7\n  swap1\n  tag_8\n  jump\t// in\ntag_7:\n  mload(0x40)\n  dup1\n  swap2\n  sub\n  swap1\n  revert\ntag_6:\n    /* \"multiSigWallet.sol\":723:724  0 */\n  0x00\n    /* \"multiSigWallet.sol\":703:722  _numberOfCompletion */\n  dup2\n    /* \"multiSigWallet.sol\":703:724  _numberOfCompletion>0 */\n  gt\n    /* \"multiSigWallet.sol\":703:763  _numberOfCompletion>0 && _numberOfCompletion<=_owners.length */\n  dup1\n  iszero\n  tag_9\n  jumpi\n  pop\n    /* \"multiSigWallet.sol\":749:756  _owners */\n  dup2\n    /* \"multiSigWallet.sol\":749:763  _owners.length */\n  mload\n    /* \"multiSigWallet.sol\":728:747  _numberOfCompletion */\n  dup2\n    /* \"multiSigWallet.sol\":728:763  _numberOfCompletion<=_owners.length */\n  gt\n  iszero\n    /* \"multiSigWallet.sol\":703:763  _numberOfCompletion>0 && _numberOfCompletion<=_owners.length */\ntag_9:\n    /* \"multiSigWallet.sol\":695:815  require(_numberOfCompletion>0 && _numberOfCompletion<=_owners.length, \"owner must be greater than number of completion\") */\n  tag_10\n  jumpi\n  mload(0x40)\n  0x08c379a000000000000000000000000000000000000000000000000000000000\n  dup2\n  mstore\n  0x04\n  add\n  tag_11\n  swap1\n  tag_12\n  jump\t// in\ntag_11:\n  mload(0x40)\n  dup1\n  swap2\n  sub\n  swap1\n  revert\ntag_10:\n    /* \"multiSigWallet.sol\":832:838  uint i */\n  0x00\n    /* \"multiSigWallet.sol\":839:840  0 */\n  0x00\n    /* \"multiSigWallet.sol\":832:840  uint i=0 */\n  swap1\n  pop\n    /* \"multiSigWallet.sol\":828:976  for(uint i=0;i< _owners.length;++i){... */\ntag_13:\n    /* \"multiSigWallet.sol\":844:851  _owners */\n  dup3\n    /* \"multiSigWallet.sol\":844:858  _owners.length */\n  mload\n    /* \"multiSigWallet.sol\":841:842  i */\n  dup2\n    /* \"multiSigWallet.sol\":841:858  i< _owners.length */\n  lt\n    /* \"multiSigWallet.sol\":828:976  for(uint i=0;i< _owners.length;++i){... */\n  iszero\n  tag_14\n  jumpi\n    /* \"multiSigWallet.sol\":906:907  0 */\n  0x00\n    /* \"multiSigWallet.sol\":886:908  owners[i]!= address(0) */\n  0xffffffffffffffffffffffffffffffffffffffff\n  and\n    /* \"multiSigWallet.sol\":886:892  owners */\n  0x00\n    /* \"multiSigWallet.sol\":893:894  i */\n  dup3\n    /* \"multiSigWallet.sol\":886:895  owners[i] */\n  dup2\n  sload\n  dup2\n  lt\n  tag_16\n  jumpi\n  tag_17\n  tag_18\n  jump\t// in\ntag_17:\ntag_16:\n  swap1\n  0x00\n  mstore\n  keccak256(0x00, 0x20)\n  add\n  0x00\n  swap1\n  sload\n  swap1\n  0x0100\n  exp\n  swap1\n  div\n  0xffffffffffffffffffffffffffffffffffffffff\n  and\n    /* \"multiSigWallet.sol\":886:908  owners[i]!= address(0) */\n  0xffffffffffffffffffffffffffffffffffffffff\n  and\n  sub\n    /* \"multiSigWallet.sol\":878:926  require(owners[i]!= address(0), \"Invalid owner\") */\n  tag_20\n  jumpi\n  mload(0x40)\n  0x08c379a000000000000000000000000000000000000000000000000000000000\n  dup2\n  mstore\n  0x04\n  add\n  tag_21\n  swap1\n  tag_22\n  jump\t// in\ntag_21:\n  mload(0x40)\n  dup1\n  swap2\n  sub\n  swap1\n  revert\ntag_20:\n    /* \"multiSigWallet.sol\":941:947  owners */\n  0x00\n    /* \"multiSigWallet.sol\":953:960  _owners */\n  dup4\n    /* \"multiSigWallet.sol\":961:962  i */\n  dup3\n    /* \"multiSigWallet.sol\":953:963  _owners[i] */\n  dup2\n  mload\n  dup2\n  lt\n  tag_23\n  jumpi\n  tag_24\n  tag_18\n  jump\t// in\ntag_24:\ntag_23:\n  0x20\n  mul\n  0x20\n  add\n  add\n  mload\n    /* \"multiSigWallet.sol\":941:964  owners.push(_owners[i]) */\n  swap1\n  dup1\n  0x01\n  dup2\n  sload\n  add\n  dup1\n  dup3\n  sstore\n  dup1\n  swap2\n  pop\n  pop\n  0x01\n  swap1\n  sub\n  swap1\n  0x00\n  mstore\n  keccak256(0x00, 0x20)\n  add\n  0x00\n  swap1\n  swap2\n  swap1\n  swap2\n  swap1\n  swap2\n  0x0100\n  exp\n  dup2\n  sload\n  dup2\n  0xffffffffffffffffffffffffffffffffffffffff\n  mul\n  not\n  and\n  swap1\n  dup4\n  0xffffffffffffffffffffffffffffffffffffffff\n  and\n  mul\n  or\n  swap1\n  sstore\n  pop\n    /* \"multiSigWallet.sol\":859:862  ++i */\n  dup1\n  0x01\n  add\n  swap1\n  pop\n    /* \"multiSigWallet.sol\":828:976  for(uint i=0;i< _owners.length;++i){... */\n  jump(tag_13)\ntag_14:\n  pop\n    /* \"multiSigWallet.sol\":1003:1022  _numberOfCompletion */\n  dup1\n    /* \"multiSigWallet.sol\":986:1001  numOfCompletion */\n  0x01\n    /* \"multiSigWallet.sol\":986:1022  numOfCompletion= _numberOfCompletion */\n  dup2\n  swap1\n  sstore\n  pop\n    /* \"multiSigWallet.sol\":544:1030  constructor(address[] memory _owners, uint _numberOfCompletion){... */\n  pop\n  pop\n    /* \"multiSigWallet.sol\":58:2728  contract multiSig{... */\n  jump(tag_26)\n    /* \"#utility.yul\":7:82   */\ntag_27:\n    /* \"#utility.yul\":40:46   */\n  0x00\n    /* \"#utility.yul\":73:75   */\n  0x40\n    /* \"#utility.yul\":67:76   */\n  mload\n    /* \"#utility.yul\":57:76   */\n  swap1\n  pop\n    /* \"#utility.yul\":7:82   */\n  swap1\n  jump\t// out\n    /* \"#utility.yul\":88:205   */\ntag_28:\n    /* \"#utility.yul\":197:198   */\n  0x00\n    /* \"#utility.yul\":194:195   */\n  0x00\n    /* \"#utility.yul\":187:199   */\n  revert\n    /* \"#utility.yul\":211:328   */\ntag_29:\n    /* \"#utility.yul\":320:321   */\n  0x00\n    /* \"#utility.yul\":317:318   */\n  0x00\n    /* \"#utility.yul\":310:322   */\n  revert\n    /* \"#utility.yul\":334:451   */\ntag_30:\n    /* \"#utility.yul\":443:444   */\n  0x00\n    /* \"#utility.yul\":440:441   */\n  0x00\n    /* \"#utility.yul\":433:445   */\n  revert\n    /* \"#utility.yul\":457:559   */\ntag_31:\n    /* \"#utility.yul\":498:504   */\n  0x00\n    /* \"#utility.yul\":549:551   */\n  0x1f\n    /* \"#utility.yul\":545:552   */\n  not\n    /* \"#utility.yul\":540:542   */\n  0x1f\n    /* \"#utility.yul\":533:538   */\n  dup4\n    /* \"#utility.yul\":529:543   */\n  add\n    /* \"#utility.yul\":525:553   */\n  and\n    /* \"#utility.yul\":515:553   */\n  swap1\n  pop\n    /* \"#utility.yul\":457:559   */\n  swap2\n  swap1\n  pop\n  jump\t// out\n    /* \"#utility.yul\":565:745   */\ntag_32:\n    /* \"#utility.yul\":613:690   */\n  0x4e487b7100000000000000000000000000000000000000000000000000000000\n    /* \"#utility.yul\":610:611   */\n  0x00\n    /* \"#utility.yul\":603:691   */\n  mstore\n    /* \"#utility.yul\":710:714   */\n  0x41\n    /* \"#utility.yul\":707:708   */\n  0x04\n    /* \"#utility.yul\":700:715   */\n  mstore\n    /* \"#utility.yul\":734:738   */\n  0x24\n    /* \"#utility.yul\":731:732   */\n  0x00\n    /* \"#utility.yul\":724:739   */\n  revert\n    /* \"#utility.yul\":751:1032   */\ntag_33:\n    /* \"#utility.yul\":834:861   */\n  tag_61\n    /* \"#utility.yul\":856:860   */\n  dup3\n    /* \"#utility.yul\":834:861   */\n  tag_31\n  jump\t// in\ntag_61:\n    /* \"#utility.yul\":826:832   */\n  dup2\n    /* \"#utility.yul\":822:862   */\n  add\n    /* \"#utility.yul\":964:970   */\n  dup2\n    /* \"#utility.yul\":952:962   */\n  dup2\n    /* \"#utility.yul\":949:971   */\n  lt\n    /* \"#utility.yul\":928:946   */\n  0xffffffffffffffff\n    /* \"#utility.yul\":916:926   */\n  dup3\n    /* \"#utility.yul\":913:947   */\n  gt\n    /* \"#utility.yul\":910:972   */\n  or\n    /* \"#utility.yul\":907:995   */\n  iszero\n  tag_62\n  jumpi\n    /* \"#utility.yul\":975:993   */\n  tag_63\n  tag_32\n  jump\t// in\ntag_63:\n    /* \"#utility.yul\":907:995   */\ntag_62:\n    /* \"#utility.yul\":1015:1025   */\n  dup1\n    /* \"#utility.yul\":1011:1013   */\n  0x40\n    /* \"#utility.yul\":1004:1026   */\n  mstore\n    /* \"#utility.yul\":794:1032   */\n  pop\n    /* \"#utility.yul\":751:1032   */\n  pop\n  pop\n  jump\t// out\n    /* \"#utility.yul\":1038:1167   */\ntag_34:\n    /* \"#utility.yul\":1072:1078   */\n  0x00\n    /* \"#utility.yul\":1099:1119   */\n  tag_65\n  tag_27\n  jump\t// in\ntag_65:\n    /* \"#utility.yul\":1089:1119   */\n  swap1\n  pop\n    /* \"#utility.yul\":1128:1161   */\n  tag_66\n    /* \"#utility.yul\":1156:1160   */\n  dup3\n    /* \"#utility.yul\":1148:1154   */\n  dup3\n    /* \"#utility.yul\":1128:1161   */\n  tag_33\n  jump\t// in\ntag_66:\n    /* \"#utility.yul\":1038:1167   */\n  swap2\n  swap1\n  pop\n  jump\t// out\n    /* \"#utility.yul\":1173:1484   */\ntag_35:\n    /* \"#utility.yul\":1250:1254   */\n  0x00\n    /* \"#utility.yul\":1340:1358   */\n  0xffffffffffffffff\n    /* \"#utility.yul\":1332:1338   */\n  dup3\n    /* \"#utility.yul\":1329:1359   */\n  gt\n    /* \"#utility.yul\":1326:1382   */\n  iszero\n  tag_68\n  jumpi\n    /* \"#utility.yul\":1362:1380   */\n  tag_69\n  tag_32\n  jump\t// in\ntag_69:\n    /* \"#utility.yul\":1326:1382   */\ntag_68:\n    /* \"#utility.yul\":1412:1416   */\n  0x20\n    /* \"#utility.yul\":1404:1410   */\n  dup3\n    /* \"#utility.yul\":1400:1417   */\n  mul\n    /* \"#utility.yul\":1392:1417   */\n  swap1\n  pop\n    /* \"#utility.yul\":1472:1476   */\n  0x20\n    /* \"#utility.yul\":1466:1470   */\n  dup2\n    /* \"#utility.yul\":1462:1477   */\n  add\n    /* \"#utility.yul\":1454:1477   */\n  swap1\n  pop\n    /* \"#utility.yul\":1173:1484   */\n  swap2\n  swap1\n  pop\n  jump\t// out\n    /* \"#utility.yul\":1490:1607   */\ntag_36:\n    /* \"#utility.yul\":1599:1600   */\n  0x00\n    /* \"#utility.yul\":1596:1597   */\n  0x00\n    /* \"#utility.yul\":1589:1601   */\n  revert\n    /* \"#utility.yul\":1613:1739   */\ntag_37:\n    /* \"#utility.yul\":1650:1657   */\n  0x00\n    /* \"#utility.yul\":1690:1732   */\n  0xffffffffffffffffffffffffffffffffffffffff\n    /* \"#utility.yul\":1683:1688   */\n  dup3\n    /* \"#utility.yul\":1679:1733   */\n  and\n    /* \"#utility.yul\":1668:1733   */\n  swap1\n  pop\n    /* \"#utility.yul\":1613:1739   */\n  swap2\n  swap1\n  pop\n  jump\t// out\n    /* \"#utility.yul\":1745:1841   */\ntag_38:\n    /* \"#utility.yul\":1782:1789   */\n  0x00\n    /* \"#utility.yul\":1811:1835   */\n  tag_73\n    /* \"#utility.yul\":1829:1834   */\n  dup3\n    /* \"#utility.yul\":1811:1835   */\n  tag_37\n  jump\t// in\ntag_73:\n    /* \"#utility.yul\":1800:1835   */\n  swap1\n  pop\n    /* \"#utility.yul\":1745:1841   */\n  swap2\n  swap1\n  pop\n  jump\t// out\n    /* \"#utility.yul\":1847:1969   */\ntag_39:\n    /* \"#utility.yul\":1920:1944   */\n  tag_75\n    /* \"#utility.yul\":1938:1943   */\n  dup2\n    /* \"#utility.yul\":1920:1944   */\n  tag_38\n  jump\t// in\ntag_75:\n    /* \"#utility.yul\":1913:1918   */\n  dup2\n    /* \"#utility.yul\":1910:1945   */\n  eq\n    /* \"#utility.yul\":1900:1963   */\n  tag_76\n  jumpi\n    /* \"#utility.yul\":1959:1960   */\n  0x00\n    /* \"#utility.yul\":1956:1957   */\n  0x00\n    /* \"#utility.yul\":1949:1961   */\n  revert\n    /* \"#utility.yul\":1900:1963   */\ntag_76:\n    /* \"#utility.yul\":1847:1969   */\n  pop\n  jump\t// out\n    /* \"#utility.yul\":1975:2118   */\ntag_40:\n    /* \"#utility.yul\":2032:2037   */\n  0x00\n    /* \"#utility.yul\":2063:2069   */\n  dup2\n    /* \"#utility.yul\":2057:2070   */\n  mload\n    /* \"#utility.yul\":2048:2070   */\n  swap1\n  pop\n    /* \"#utility.yul\":2079:2112   */\n  tag_78\n    /* \"#utility.yul\":2106:2111   */\n  dup2\n    /* \"#utility.yul\":2079:2112   */\n  tag_39\n  jump\t// in\ntag_78:\n    /* \"#utility.yul\":1975:2118   */\n  swap3\n  swap2\n  pop\n  pop\n  jump\t// out\n    /* \"#utility.yul\":2141:2873   */\ntag_41:\n    /* \"#utility.yul\":2248:2253   */\n  0x00\n    /* \"#utility.yul\":2273:2354   */\n  tag_80\n    /* \"#utility.yul\":2289:2353   */\n  tag_81\n    /* \"#utility.yul\":2346:2352   */\n  dup5\n    /* \"#utility.yul\":2289:2353   */\n  tag_35\n  jump\t// in\ntag_81:\n    /* \"#utility.yul\":2273:2354   */\n  tag_34\n  jump\t// in\ntag_80:\n    /* \"#utility.yul\":2264:2354   */\n  swap1\n  pop\n    /* \"#utility.yul\":2374:2379   */\n  dup1\n    /* \"#utility.yul\":2403:2409   */\n  dup4\n    /* \"#utility.yul\":2396:2401   */\n  dup3\n    /* \"#utility.yul\":2389:2410   */\n  mstore\n    /* \"#utility.yul\":2437:2441   */\n  0x20\n    /* \"#utility.yul\":2430:2435   */\n  dup3\n    /* \"#utility.yul\":2426:2442   */\n  add\n    /* \"#utility.yul\":2419:2442   */\n  swap1\n  pop\n    /* \"#utility.yul\":2490:2494   */\n  0x20\n    /* \"#utility.yul\":2482:2488   */\n  dup5\n    /* \"#utility.yul\":2478:2495   */\n  mul\n    /* \"#utility.yul\":2470:2476   */\n  dup4\n    /* \"#utility.yul\":2466:2496   */\n  add\n    /* \"#utility.yul\":2519:2522   */\n  dup6\n    /* \"#utility.yul\":2511:2517   */\n  dup2\n    /* \"#utility.yul\":2508:2523   */\n  gt\n    /* \"#utility.yul\":2505:2627   */\n  iszero\n  tag_82\n  jumpi\n    /* \"#utility.yul\":2538:2617   */\n  tag_83\n  tag_36\n  jump\t// in\ntag_83:\n    /* \"#utility.yul\":2505:2627   */\ntag_82:\n    /* \"#utility.yul\":2653:2659   */\n  dup4\n    /* \"#utility.yul\":2636:2867   */\ntag_84:\n    /* \"#utility.yul\":2670:2676   */\n  dup2\n    /* \"#utility.yul\":2665:2668   */\n  dup2\n    /* \"#utility.yul\":2662:2677   */\n  lt\n    /* \"#utility.yul\":2636:2867   */\n  iszero\n  tag_86\n  jumpi\n    /* \"#utility.yul\":2745:2748   */\n  dup1\n    /* \"#utility.yul\":2774:2822   */\n  tag_87\n    /* \"#utility.yul\":2818:2821   */\n  dup9\n    /* \"#utility.yul\":2806:2816   */\n  dup3\n    /* \"#utility.yul\":2774:2822   */\n  tag_40\n  jump\t// in\ntag_87:\n    /* \"#utility.yul\":2769:2772   */\n  dup5\n    /* \"#utility.yul\":2762:2823   */\n  mstore\n    /* \"#utility.yul\":2852:2856   */\n  0x20\n    /* \"#utility.yul\":2847:2850   */\n  dup5\n    /* \"#utility.yul\":2843:2857   */\n  add\n    /* \"#utility.yul\":2836:2857   */\n  swap4\n  pop\n    /* \"#utility.yul\":2712:2867   */\n  pop\n    /* \"#utility.yul\":2696:2700   */\n  0x20\n    /* \"#utility.yul\":2691:2694   */\n  dup2\n    /* \"#utility.yul\":2687:2701   */\n  add\n    /* \"#utility.yul\":2680:2701   */\n  swap1\n  pop\n    /* \"#utility.yul\":2636:2867   */\n  jump(tag_84)\ntag_86:\n    /* \"#utility.yul\":2640:2661   */\n  pop\n    /* \"#utility.yul\":2254:2873   */\n  pop\n  pop\n    /* \"#utility.yul\":2141:2873   */\n  swap4\n  swap3\n  pop\n  pop\n  pop\n  jump\t// out\n    /* \"#utility.yul\":2896:3281   */\ntag_42:\n    /* \"#utility.yul\":2978:2983   */\n  0x00\n    /* \"#utility.yul\":3027:3030   */\n  dup3\n    /* \"#utility.yul\":3020:3024   */\n  0x1f\n    /* \"#utility.yul\":3012:3018   */\n  dup4\n    /* \"#utility.yul\":3008:3025   */\n  add\n    /* \"#utility.yul\":3004:3031   */\n  slt\n    /* \"#utility.yul\":2994:3116   */\n  tag_89\n  jumpi\n    /* \"#utility.yul\":3035:3114   */\n  tag_90\n  tag_30\n  jump\t// in\ntag_90:\n    /* \"#utility.yul\":2994:3116   */\ntag_89:\n    /* \"#utility.yul\":3145:3151   */\n  dup2\n    /* \"#utility.yul\":3139:3152   */\n  mload\n    /* \"#utility.yul\":3170:3275   */\n  tag_91\n    /* \"#utility.yul\":3271:3274   */\n  dup5\n    /* \"#utility.yul\":3263:3269   */\n  dup3\n    /* \"#utility.yul\":3256:3260   */\n  0x20\n    /* \"#utility.yul\":3248:3254   */\n  dup7\n    /* \"#utility.yul\":3244:3261   */\n  add\n    /* \"#utility.yul\":3170:3275   */\n  tag_41\n  jump\t// in\ntag_91:\n    /* \"#utility.yul\":3161:3275   */\n  swap2\n  pop\n    /* \"#utility.yul\":2984:3281   */\n  pop\n    /* \"#utility.yul\":2896:3281   */\n  swap3\n  swap2\n  pop\n  pop\n  jump\t// out\n    /* \"#utility.yul\":3287:3364   */\ntag_43:\n    /* \"#utility.yul\":3324:3331   */\n  0x00\n    /* \"#utility.yul\":3353:3358   */\n  dup2\n    /* \"#utility.yul\":3342:3358   */\n  swap1\n  pop\n    /* \"#utility.yul\":3287:3364   */\n  swap2\n  swap1\n  pop\n  jump\t// out\n    /* \"#utility.yul\":3370:3492   */\ntag_44:\n    /* \"#utility.yul\":3443:3467   */\n  tag_94\n    /* \"#utility.yul\":3461:3466   */\n  dup2\n    /* \"#utility.yul\":3443:3467   */\n  tag_43\n  jump\t// in\ntag_94:\n    /* \"#utility.yul\":3436:3441   */\n  dup2\n    /* \"#utility.yul\":3433:3468   */\n  eq\n    /* \"#utility.yul\":3423:3486   */\n  tag_95\n  jumpi\n    /* \"#utility.yul\":3482:3483   */\n  0x00\n    /* \"#utility.yul\":3479:3480   */\n  0x00\n    /* \"#utility.yul\":3472:3484   */\n  revert\n    /* \"#utility.yul\":3423:3486   */\ntag_95:\n    /* \"#utility.yul\":3370:3492   */\n  pop\n  jump\t// out\n    /* \"#utility.yul\":3498:3641   */\ntag_45:\n    /* \"#utility.yul\":3555:3560   */\n  0x00\n    /* \"#utility.yul\":3586:3592   */\n  dup2\n    /* \"#utility.yul\":3580:3593   */\n  mload\n    /* \"#utility.yul\":3571:3593   */\n  swap1\n  pop\n    /* \"#utility.yul\":3602:3635   */\n  tag_97\n    /* \"#utility.yul\":3629:3634   */\n  dup2\n    /* \"#utility.yul\":3602:3635   */\n  tag_44\n  jump\t// in\ntag_97:\n    /* \"#utility.yul\":3498:3641   */\n  swap3\n  swap2\n  pop\n  pop\n  jump\t// out\n    /* \"#utility.yul\":3647:4357   */\ntag_3:\n    /* \"#utility.yul\":3751:3757   */\n  0x00\n    /* \"#utility.yul\":3759:3765   */\n  0x00\n    /* \"#utility.yul\":3808:3810   */\n  0x40\n    /* \"#utility.yul\":3796:3805   */\n  dup4\n    /* \"#utility.yul\":3787:3794   */\n  dup6\n    /* \"#utility.yul\":3783:3806   */\n  sub\n    /* \"#utility.yul\":3779:3811   */\n  slt\n    /* \"#utility.yul\":3776:3895   */\n  iszero\n  tag_99\n  jumpi\n    /* \"#utility.yul\":3814:3893   */\n  tag_100\n  tag_28\n  jump\t// in\ntag_100:\n    /* \"#utility.yul\":3776:3895   */\ntag_99:\n    /* \"#utility.yul\":3955:3956   */\n  0x00\n    /* \"#utility.yul\":3944:3953   */\n  dup4\n    /* \"#utility.yul\":3940:3957   */\n  add\n    /* \"#utility.yul\":3934:3958   */\n  mload\n    /* \"#utility.yul\":3985:4003   */\n  0xffffffffffffffff\n    /* \"#utility.yul\":3977:3983   */\n  dup2\n    /* \"#utility.yul\":3974:4004   */\n  gt\n    /* \"#utility.yul\":3971:4088   */\n  iszero\n  tag_101\n  jumpi\n    /* \"#utility.yul\":4007:4086   */\n  tag_102\n  tag_29\n  jump\t// in\ntag_102:\n    /* \"#utility.yul\":3971:4088   */\ntag_101:\n    /* \"#utility.yul\":4112:4201   */\n  tag_103\n    /* \"#utility.yul\":4193:4200   */\n  dup6\n    /* \"#utility.yul\":4184:4190   */\n  dup3\n    /* \"#utility.yul\":4173:4182   */\n  dup7\n    /* \"#utility.yul\":4169:4191   */\n  add\n    /* \"#utility.yul\":4112:4201   */\n  tag_42\n  jump\t// in\ntag_103:\n    /* \"#utility.yul\":4102:4201   */\n  swap3\n  pop\n    /* \"#utility.yul\":3905:4211   */\n  pop\n    /* \"#utility.yul\":4250:4252   */\n  0x20\n    /* \"#utility.yul\":4276:4340   */\n  tag_104\n    /* \"#utility.yul\":4332:4339   */\n  dup6\n    /* \"#utility.yul\":4323:4329   */\n  dup3\n    /* \"#utility.yul\":4312:4321   */\n  dup7\n    /* \"#utility.yul\":4308:4330   */\n  add\n    /* \"#utility.yul\":4276:4340   */\n  tag_45\n  jump\t// in\ntag_104:\n    /* \"#utility.yul\":4266:4340   */\n  swap2\n  pop\n    /* \"#utility.yul\":4221:4350   */\n  pop\n    /* \"#utility.yul\":3647:4357   */\n  swap3\n  pop\n  swap3\n  swap1\n  pop\n  jump\t// out\n    /* \"#utility.yul\":4363:4532   */\ntag_46:\n    /* \"#utility.yul\":4447:4458   */\n  0x00\n    /* \"#utility.yul\":4481:4487   */\n  dup3\n    /* \"#utility.yul\":4476:4479   */\n  dup3\n    /* \"#utility.yul\":4469:4488   */\n  mstore\n    /* \"#utility.yul\":4521:4525   */\n  0x20\n    /* \"#utility.yul\":4516:4519   */\n  dup3\n    /* \"#utility.yul\":4512:4526   */\n  add\n    /* \"#utility.yul\":4497:4526   */\n  swap1\n  pop\n    /* \"#utility.yul\":4363:4532   */\n  swap3\n  swap2\n  pop\n  pop\n  jump\t// out\n    /* \"#utility.yul\":4538:4763   */\ntag_47:\n    /* \"#utility.yul\":4678:4712   */\n  0x6f776e657273207265717569726564206d757374206265206772656174657220\n    /* \"#utility.yul\":4674:4675   */\n  0x00\n    /* \"#utility.yul\":4666:4672   */\n  dup3\n    /* \"#utility.yul\":4662:4676   */\n  add\n    /* \"#utility.yul\":4655:4713   */\n  mstore\n    /* \"#utility.yul\":4747:4755   */\n  0x7468616e20310000000000000000000000000000000000000000000000000000\n    /* \"#utility.yul\":4742:4744   */\n  0x20\n    /* \"#utility.yul\":4734:4740   */\n  dup3\n    /* \"#utility.yul\":4730:4745   */\n  add\n    /* \"#utility.yul\":4723:4756   */\n  mstore\n    /* \"#utility.yul\":4538:4763   */\n  pop\n  jump\t// out\n    /* \"#utility.yul\":4769:5135   */\ntag_48:\n    /* \"#utility.yul\":4911:4914   */\n  0x00\n    /* \"#utility.yul\":4932:4999   */\n  tag_108\n    /* \"#utility.yul\":4996:4998   */\n  0x26\n    /* \"#utility.yul\":4991:4994   */\n  dup4\n    /* \"#utility.yul\":4932:4999   */\n  tag_46\n  jump\t// in\ntag_108:\n    /* \"#utility.yul\":4925:4999   */\n  swap2\n  pop\n    /* \"#utility.yul\":5008:5101   */\n  tag_109\n    /* \"#utility.yul\":5097:5100   */\n  dup3\n    /* \"#utility.yul\":5008:5101   */\n  tag_47\n  jump\t// in\ntag_109:\n    /* \"#utility.yul\":5126:5128   */\n  0x40\n    /* \"#utility.yul\":5121:5124   */\n  dup3\n    /* \"#utility.yul\":5117:5129   */\n  add\n    /* \"#utility.yul\":5110:5129   */\n  swap1\n  pop\n    /* \"#utility.yul\":4769:5135   */\n  swap2\n  swap1\n  pop\n  jump\t// out\n    /* \"#utility.yul\":5141:5560   */\ntag_8:\n    /* \"#utility.yul\":5307:5311   */\n  0x00\n    /* \"#utility.yul\":5345:5347   */\n  0x20\n    /* \"#utility.yul\":5334:5343   */\n  dup3\n    /* \"#utility.yul\":5330:5348   */\n  add\n    /* \"#utility.yul\":5322:5348   */\n  swap1\n  pop\n    /* \"#utility.yul\":5394:5403   */\n  dup2\n    /* \"#utility.yul\":5388:5392   */\n  dup2\n    /* \"#utility.yul\":5384:5404   */\n  sub\n    /* \"#utility.yul\":5380:5381   */\n  0x00\n    /* \"#utility.yul\":5369:5378   */\n  dup4\n    /* \"#utility.yul\":5365:5382   */\n  add\n    /* \"#utility.yul\":5358:5405   */\n  mstore\n    /* \"#utility.yul\":5422:5553   */\n  tag_111\n    /* \"#utility.yul\":5548:5552   */\n  dup2\n    /* \"#utility.yul\":5422:5553   */\n  tag_48\n  jump\t// in\ntag_111:\n    /* \"#utility.yul\":5414:5553   */\n  swap1\n  pop\n    /* \"#utility.yul\":5141:5560   */\n  swap2\n  swap1\n  pop\n  jump\t// out\n    /* \"#utility.yul\":5566:5800   */\ntag_49:\n    /* \"#utility.yul\":5706:5740   */\n  0x6f776e6572206d7573742062652067726561746572207468616e206e756d6265\n    /* \"#utility.yul\":5702:5703   */\n  0x00\n    /* \"#utility.yul\":5694:5700   */\n  dup3\n    /* \"#utility.yul\":5690:5704   */\n  add\n    /* \"#utility.yul\":5683:5741   */\n  mstore\n    /* \"#utility.yul\":5775:5792   */\n  0x72206f6620636f6d706c6574696f6e0000000000000000000000000000000000\n    /* \"#utility.yul\":5770:5772   */\n  0x20\n    /* \"#utility.yul\":5762:5768   */\n  dup3\n    /* \"#utility.yul\":5758:5773   */\n  add\n    /* \"#utility.yul\":5751:5793   */\n  mstore\n    /* \"#utility.yul\":5566:5800   */\n  pop\n  jump\t// out\n    /* \"#utility.yul\":5806:6172   */\ntag_50:\n    /* \"#utility.yul\":5948:5951   */\n  0x00\n    /* \"#utility.yul\":5969:6036   */\n  tag_114\n    /* \"#utility.yul\":6033:6035   */\n  0x2f\n    /* \"#utility.yul\":6028:6031   */\n  dup4\n    /* \"#utility.yul\":5969:6036   */\n  tag_46\n  jump\t// in\ntag_114:\n    /* \"#utility.yul\":5962:6036   */\n  swap2\n  pop\n    /* \"#utility.yul\":6045:6138   */\n  tag_115\n    /* \"#utility.yul\":6134:6137   */\n  dup3\n    /* \"#utility.yul\":6045:6138   */\n  tag_49\n  jump\t// in\ntag_115:\n    /* \"#utility.yul\":6163:6165   */\n  0x40\n    /* \"#utility.yul\":6158:6161   */\n  dup3\n    /* \"#utility.yul\":6154:6166   */\n  add\n    /* \"#utility.yul\":6147:6166   */\n  swap1\n  pop\n    /* \"#utility.yul\":5806:6172   */\n  swap2\n  swap1\n  pop\n  jump\t// out\n    /* \"#utility.yul\":6178:6597   */\ntag_12:\n    /* \"#utility.yul\":6344:6348   */\n  0x00\n    /* \"#utility.yul\":6382:6384   */\n  0x20\n    /* \"#utility.yul\":6371:6380   */\n  dup3\n    /* \"#utility.yul\":6367:6385   */\n  add\n    /* \"#utility.yul\":6359:6385   */\n  swap1\n  pop\n    /* \"#utility.yul\":6431:6440   */\n  dup2\n    /* \"#utility.yul\":6425:6429   */\n  dup2\n    /* \"#utility.yul\":6421:6441   */\n  sub\n    /* \"#utility.yul\":6417:6418   */\n  0x00\n    /* \"#utility.yul\":6406:6415   */\n  dup4\n    /* \"#utility.yul\":6402:6419   */\n  add\n    /* \"#utility.yul\":6395:6442   */\n  mstore\n    /* \"#utility.yul\":6459:6590   */\n  tag_117\n    /* \"#utility.yul\":6585:6589   */\n  dup2\n    /* \"#utility.yul\":6459:6590   */\n  tag_50\n  jump\t// in\ntag_117:\n    /* \"#utility.yul\":6451:6590   */\n  swap1\n  pop\n    /* \"#utility.yul\":6178:6597   */\n  swap2\n  swap1\n  pop\n  jump\t// out\n    /* \"#utility.yul\":6603:6783   */\ntag_18:\n    /* \"#utility.yul\":6651:6728   */\n  0x4e487b7100000000000000000000000000000000000000000000000000000000\n    /* \"#utility.yul\":6648:6649   */\n  0x00\n    /* \"#utility.yul\":6641:6729   */\n  mstore\n    /* \"#utility.yul\":6748:6752   */\n  0x32\n    /* \"#utility.yul\":6745:6746   */\n  0x04\n    /* \"#utility.yul\":6738:6753   */\n  mstore\n    /* \"#utility.yul\":6772:6776   */\n  0x24\n    /* \"#utility.yul\":6769:6770   */\n  0x00\n    /* \"#utility.yul\":6762:6777   */\n  revert\n    /* \"#utility.yul\":6789:6952   */\ntag_51:\n    /* \"#utility.yul\":6929:6944   */\n  0x496e76616c6964206f776e657200000000000000000000000000000000000000\n    /* \"#utility.yul\":6925:6926   */\n  0x00\n    /* \"#utility.yul\":6917:6923   */\n  dup3\n    /* \"#utility.yul\":6913:6927   */\n  add\n    /* \"#utility.yul\":6906:6945   */\n  mstore\n    /* \"#utility.yul\":6789:6952   */\n  pop\n  jump\t// out\n    /* \"#utility.yul\":6958:7324   */\ntag_52:\n    /* \"#utility.yul\":7100:7103   */\n  0x00\n    /* \"#utility.yul\":7121:7188   */\n  tag_121\n    /* \"#utility.yul\":7185:7187   */\n  0x0d\n    /* \"#utility.yul\":7180:7183   */\n  dup4\n    /* \"#utility.yul\":7121:7188   */\n  tag_46\n  jump\t// in\ntag_121:\n    /* \"#utility.yul\":7114:7188   */\n  swap2\n  pop\n    /* \"#utility.yul\":7197:7290   */\n  tag_122\n    /* \"#utility.yul\":7286:7289   */\n  dup3\n    /* \"#utility.yul\":7197:7290   */\n  tag_51\n  jump\t// in\ntag_122:\n    /* \"#utility.yul\":7315:7317   */\n  0x20\n    /* \"#utility.yul\":7310:7313   */\n  dup3\n    /* \"#utility.yul\":7306:7318   */\n  add\n    /* \"#utility.yul\":7299:7318   */\n  swap1\n  pop\n    /* \"#utility.yul\":6958:7324   */\n  swap2\n  swap1\n  pop\n  jump\t// out\n    /* \"#utility.yul\":7330:7749   */\ntag_22:\n    /* \"#utility.yul\":7496:7500   */\n  0x00\n    /* \"#utility.yul\":7534:7536   */\n  0x20\n    /* \"#utility.yul\":7523:7532   */\n  dup3\n    /* \"#utility.yul\":7519:7537   */\n  add\n    /* \"#utility.yul\":7511:7537   */\n  swap1\n  pop\n    /* \"#utility.yul\":7583:7592   */\n  dup2\n    /* \"#utility.yul\":7577:7581   */\n  dup2\n    /* \"#utility.yul\":7573:7593   */\n  sub\n    /* \"#utility.yul\":7569:7570   */\n  0x00\n    /* \"#utility.yul\":7558:7567   */\n  dup4\n    /* \"#utility.yul\":7554:7571   */\n  add\n    /* \"#utility.yul\":7547:7594   */\n  mstore\n    /* \"#utility.yul\":7611:7742   */\n  tag_124\n    /* \"#utility.yul\":7737:7741   */\n  dup2\n    /* \"#utility.yul\":7611:7742   */\n  tag_52\n  jump\t// in\ntag_124:\n    /* \"#utility.yul\":7603:7742   */\n  swap1\n  pop\n    /* \"#utility.yul\":7330:7749   */\n  swap2\n  swap1\n  pop\n  jump\t// out\n    /* \"multiSigWallet.sol\":58:2728  contract multiSig{... */\ntag_26:\n  dataSize(sub_0)\n  dup1\n  dataOffset(sub_0)\n  0x00\n  codecopy\n  0x00\n  return\nstop\n\nsub_0: assembly {\n        /* \"multiSigWallet.sol\":58:2728  contract multiSig{... */\n      mstore(0x40, 0x80)\n      jumpi(tag_1, lt(calldatasize, 0x04))\n      shr(0xe0, calldataload(0x00))\n      dup1\n      0x025e7c27\n      eq\n      tag_2\n      jumpi\n      dup1\n      0x0c22acbd\n      eq\n      tag_3\n      jumpi\n      dup1\n      0x4c9c7af3\n      eq\n      tag_4\n      jumpi\n      dup1\n      0x4d2aa371\n      eq\n      tag_5\n      jumpi\n      dup1\n      0x66d651db\n      eq\n      tag_6\n      jumpi\n      dup1\n      0x9ace38c2\n      eq\n      tag_7\n      jumpi\n    tag_1:\n      revert(0x00, 0x00)\n        /* \"multiSigWallet.sol\":82:105  address[] public owners */\n    tag_2:\n      callvalue\n      dup1\n      iszero\n      tag_8\n      jumpi\n      revert(0x00, 0x00)\n    tag_8:\n      pop\n      tag_9\n      0x04\n      dup1\n      calldatasize\n      sub\n      dup2\n      add\n      swap1\n      tag_10\n      swap2\n      swap1\n      tag_11\n      jump\t// in\n    tag_10:\n      tag_12\n      jump\t// in\n    tag_9:\n      mload(0x40)\n      tag_13\n      swap2\n      swap1\n      tag_14\n      jump\t// in\n    tag_13:\n      mload(0x40)\n      dup1\n      swap2\n      sub\n      swap1\n      return\n        /* \"multiSigWallet.sol\":1416:1857  function ConfirmTransaction(uint _transactionId) public {... */\n    tag_3:\n      callvalue\n      dup1\n      iszero\n      tag_15\n      jumpi\n      revert(0x00, 0x00)\n    tag_15:\n      pop\n      tag_16\n      0x04\n      dup1\n      calldatasize\n      sub\n      dup2\n      add\n      swap1\n      tag_17\n      swap2\n      swap1\n      tag_11\n      jump\t// in\n    tag_17:\n      tag_18\n      jump\t// in\n    tag_16:\n      stop\n        /* \"multiSigWallet.sol\":236:294  mapping (uint=>mapping (address=>bool)) public isconfirmed */\n    tag_4:\n      callvalue\n      dup1\n      iszero\n      tag_19\n      jumpi\n      revert(0x00, 0x00)\n    tag_19:\n      pop\n      tag_20\n      0x04\n      dup1\n      calldatasize\n      sub\n      dup2\n      add\n      swap1\n      tag_21\n      swap2\n      swap1\n      tag_22\n      jump\t// in\n    tag_21:\n      tag_23\n      jump\t// in\n    tag_20:\n      mload(0x40)\n      tag_24\n      swap2\n      swap1\n      tag_25\n      jump\t// in\n    tag_24:\n      mload(0x40)\n      dup1\n      swap2\n      sub\n      swap1\n      return\n        /* \"multiSigWallet.sol\":1863:2353  function ExcuteTransaction(uint _transactionId) public{... */\n    tag_5:\n      callvalue\n      dup1\n      iszero\n      tag_26\n      jumpi\n      revert(0x00, 0x00)\n    tag_26:\n      pop\n      tag_27\n      0x04\n      dup1\n      calldatasize\n      sub\n      dup2\n      add\n      swap1\n      tag_28\n      swap2\n      swap1\n      tag_11\n      jump\t// in\n    tag_28:\n      tag_29\n      jump\t// in\n    tag_27:\n      stop\n        /* \"multiSigWallet.sol\":1038:1410  function submitTransaction(address _to) public payable{... */\n    tag_6:\n      tag_30\n      0x04\n      dup1\n      calldatasize\n      sub\n      dup2\n      add\n      swap1\n      tag_31\n      swap2\n      swap1\n      tag_32\n      jump\t// in\n    tag_31:\n      tag_33\n      jump\t// in\n    tag_30:\n      stop\n        /* \"multiSigWallet.sol\":301:334  Transaction[] public transactions */\n    tag_7:\n      callvalue\n      dup1\n      iszero\n      tag_34\n      jumpi\n      revert(0x00, 0x00)\n    tag_34:\n      pop\n      tag_35\n      0x04\n      dup1\n      calldatasize\n      sub\n      dup2\n      add\n      swap1\n      tag_36\n      swap2\n      swap1\n      tag_11\n      jump\t// in\n    tag_36:\n      tag_37\n      jump\t// in\n    tag_35:\n      mload(0x40)\n      tag_38\n      swap4\n      swap3\n      swap2\n      swap1\n      tag_39\n      jump\t// in\n    tag_38:\n      mload(0x40)\n      dup1\n      swap2\n      sub\n      swap1\n      return\n        /* \"multiSigWallet.sol\":82:105  address[] public owners */\n    tag_12:\n      0x00\n      dup2\n      dup2\n      sload\n      dup2\n      lt\n      tag_40\n      jumpi\n      0x00\n      dup1\n      revert\n    tag_40:\n      swap1\n      0x00\n      mstore\n      keccak256(0x00, 0x20)\n      add\n      0x00\n      swap2\n      pop\n      sload\n      swap1\n      0x0100\n      exp\n      swap1\n      div\n      0xffffffffffffffffffffffffffffffffffffffff\n      and\n      dup2\n      jump\t// out\n        /* \"multiSigWallet.sol\":1416:1857  function ConfirmTransaction(uint _transactionId) public {... */\n    tag_18:\n        /* \"multiSigWallet.sol\":1506:1518  transactions */\n      0x03\n        /* \"multiSigWallet.sol\":1506:1525  transactions.length */\n      dup1\n      sload\n      swap1\n      pop\n        /* \"multiSigWallet.sol\":1491:1505  _transactionId */\n      dup2\n        /* \"multiSigWallet.sol\":1491:1525  _transactionId<transactions.length */\n      lt\n        /* \"multiSigWallet.sol\":1483:1548  require(_transactionId<transactions.length,\"Invalid transaction\") */\n      tag_43\n      jumpi\n      mload(0x40)\n      0x08c379a000000000000000000000000000000000000000000000000000000000\n      dup2\n      mstore\n      0x04\n      add\n      tag_44\n      swap1\n      tag_45\n      jump\t// in\n    tag_44:\n      mload(0x40)\n      dup1\n      swap2\n      sub\n      swap1\n      revert\n    tag_43:\n        /* \"multiSigWallet.sol\":1569:1580  isconfirmed */\n      0x02\n        /* \"multiSigWallet.sol\":1569:1596  isconfirmed[_transactionId] */\n      0x00\n        /* \"multiSigWallet.sol\":1581:1595  _transactionId */\n      dup3\n        /* \"multiSigWallet.sol\":1569:1596  isconfirmed[_transactionId] */\n      dup2\n      mstore\n      0x20\n      add\n      swap1\n      dup2\n      mstore\n      0x20\n      add\n      0x00\n      keccak256\n        /* \"multiSigWallet.sol\":1569:1608  isconfirmed[_transactionId][msg.sender] */\n      0x00\n        /* \"multiSigWallet.sol\":1597:1607  msg.sender */\n      caller\n        /* \"multiSigWallet.sol\":1569:1608  isconfirmed[_transactionId][msg.sender] */\n      0xffffffffffffffffffffffffffffffffffffffff\n      and\n      0xffffffffffffffffffffffffffffffffffffffff\n      and\n      dup2\n      mstore\n      0x20\n      add\n      swap1\n      dup2\n      mstore\n      0x20\n      add\n      0x00\n      keccak256\n      0x00\n      swap1\n      sload\n      swap1\n      0x0100\n      exp\n      swap1\n      div\n      0xff\n      and\n        /* \"multiSigWallet.sol\":1568:1608  !isconfirmed[_transactionId][msg.sender] */\n      iszero\n        /* \"multiSigWallet.sol\":1560:1629  require(!isconfirmed[_transactionId][msg.sender],\"Already confirmed\") */\n      tag_46\n      jumpi\n      mload(0x40)\n      0x08c379a000000000000000000000000000000000000000000000000000000000\n      dup2\n      mstore\n      0x04\n      add\n      tag_47\n      swap1\n      tag_48\n      jump\t// in\n    tag_47:\n      mload(0x40)\n      dup1\n      swap2\n      sub\n      swap1\n      revert\n    tag_46:\n        /* \"multiSigWallet.sol\":1680:1684  true */\n      0x01\n        /* \"multiSigWallet.sol\":1640:1651  isconfirmed */\n      0x02\n        /* \"multiSigWallet.sol\":1640:1667  isconfirmed[_transactionId] */\n      0x00\n        /* \"multiSigWallet.sol\":1652:1666  _transactionId */\n      dup4\n        /* \"multiSigWallet.sol\":1640:1667  isconfirmed[_transactionId] */\n      dup2\n      mstore\n      0x20\n      add\n      swap1\n      dup2\n      mstore\n      0x20\n      add\n      0x00\n      keccak256\n        /* \"multiSigWallet.sol\":1640:1679  isconfirmed[_transactionId][msg.sender] */\n      0x00\n        /* \"multiSigWallet.sol\":1668:1678  msg.sender */\n      caller\n        /* \"multiSigWallet.sol\":1640:1679  isconfirmed[_transactionId][msg.sender] */\n      0xffffffffffffffffffffffffffffffffffffffff\n      and\n      0xffffffffffffffffffffffffffffffffffffffff\n      and\n      dup2\n      mstore\n      0x20\n      add\n      swap1\n      dup2\n      mstore\n      0x20\n      add\n      0x00\n      keccak256\n      0x00\n        /* \"multiSigWallet.sol\":1640:1684  isconfirmed[_transactionId][msg.sender]=true */\n      0x0100\n      exp\n      dup2\n      sload\n      dup2\n      0xff\n      mul\n      not\n      and\n      swap1\n      dup4\n      iszero\n      iszero\n      mul\n      or\n      swap1\n      sstore\n      pop\n        /* \"multiSigWallet.sol\":1700:1739  TransactionConfirmation(_transactionId) */\n      0xd0ba147c6541b96b823f9c77b26935863e2ebe428383ba26065460bfc3818d77\n        /* \"multiSigWallet.sol\":1724:1738  _transactionId */\n      dup2\n        /* \"multiSigWallet.sol\":1700:1739  TransactionConfirmation(_transactionId) */\n      mload(0x40)\n      tag_49\n      swap2\n      swap1\n      tag_50\n      jump\t// in\n    tag_49:\n      mload(0x40)\n      dup1\n      swap2\n      sub\n      swap1\n      log1\n        /* \"multiSigWallet.sol\":1753:1789  isTransactionConfirm(_transactionId) */\n      tag_51\n        /* \"multiSigWallet.sol\":1774:1788  _transactionId */\n      dup2\n        /* \"multiSigWallet.sol\":1753:1773  isTransactionConfirm */\n      tag_52\n        /* \"multiSigWallet.sol\":1753:1789  isTransactionConfirm(_transactionId) */\n      jump\t// in\n    tag_51:\n        /* \"multiSigWallet.sol\":1750:1850  if(isTransactionConfirm(_transactionId)){... */\n      iszero\n      tag_53\n      jumpi\n        /* \"multiSigWallet.sol\":1805:1838  ExcuteTransaction(_transactionId) */\n      tag_54\n        /* \"multiSigWallet.sol\":1823:1837  _transactionId */\n      dup2\n        /* \"multiSigWallet.sol\":1805:1822  ExcuteTransaction */\n      tag_29\n        /* \"multiSigWallet.sol\":1805:1838  ExcuteTransaction(_transactionId) */\n      jump\t// in\n    tag_54:\n        /* \"multiSigWallet.sol\":1750:1850  if(isTransactionConfirm(_transactionId)){... */\n    tag_53:\n        /* \"multiSigWallet.sol\":1416:1857  function ConfirmTransaction(uint _transactionId) public {... */\n      pop\n      jump\t// out\n        /* \"multiSigWallet.sol\":236:294  mapping (uint=>mapping (address=>bool)) public isconfirmed */\n    tag_23:\n      mstore(0x20, 0x02)\n      dup2\n      0x00\n      mstore\n      mstore(0x20, keccak256(0x00, 0x40))\n      dup1\n      0x00\n      mstore\n      keccak256(0x00, 0x40)\n      0x00\n      swap2\n      pop\n      swap2\n      pop\n      swap1\n      sload\n      swap1\n      0x0100\n      exp\n      swap1\n      div\n      0xff\n      and\n      dup2\n      jump\t// out\n        /* \"multiSigWallet.sol\":1863:2353  function ExcuteTransaction(uint _transactionId) public{... */\n    tag_29:\n        /* \"multiSigWallet.sol\":1951:1963  transactions */\n      0x03\n        /* \"multiSigWallet.sol\":1951:1970  transactions.length */\n      dup1\n      sload\n      swap1\n      pop\n        /* \"multiSigWallet.sol\":1936:1950  _transactionId */\n      dup2\n        /* \"multiSigWallet.sol\":1936:1970  _transactionId<transactions.length */\n      lt\n        /* \"multiSigWallet.sol\":1928:1993  require(_transactionId<transactions.length,\"Invalid transaction\") */\n      tag_56\n      jumpi\n      mload(0x40)\n      0x08c379a000000000000000000000000000000000000000000000000000000000\n      dup2\n      mstore\n      0x04\n      add\n      tag_57\n      swap1\n      tag_45\n      jump\t// in\n    tag_57:\n      mload(0x40)\n      dup1\n      swap2\n      sub\n      swap1\n      revert\n    tag_56:\n        /* \"multiSigWallet.sol\":2014:2026  transactions */\n      0x03\n        /* \"multiSigWallet.sol\":2027:2041  _transactionId */\n      dup2\n        /* \"multiSigWallet.sol\":2014:2042  transactions[_transactionId] */\n      dup2\n      sload\n      dup2\n      lt\n      tag_58\n      jumpi\n      tag_59\n      tag_60\n      jump\t// in\n    tag_59:\n    tag_58:\n      swap1\n      0x00\n      mstore\n      keccak256(0x00, 0x20)\n      swap1\n      0x03\n      mul\n      add\n        /* \"multiSigWallet.sol\":2014:2050  transactions[_transactionId].execute */\n      0x02\n      add\n      0x00\n      swap1\n      sload\n      swap1\n      0x0100\n      exp\n      swap1\n      div\n      0xff\n      and\n        /* \"multiSigWallet.sol\":2013:2050  !transactions[_transactionId].execute */\n      iszero\n        /* \"multiSigWallet.sol\":2005:2071  require(!transactions[_transactionId].execute,\"Already executerd\") */\n      tag_62\n      jumpi\n      mload(0x40)\n      0x08c379a000000000000000000000000000000000000000000000000000000000\n      dup2\n      mstore\n      0x04\n      add\n      tag_63\n      swap1\n      tag_64\n      jump\t// in\n    tag_63:\n      mload(0x40)\n      dup1\n      swap2\n      sub\n      swap1\n      revert\n    tag_62:\n        /* \"multiSigWallet.sol\":2083:2095  bool success */\n      0x00\n        /* \"multiSigWallet.sol\":2098:2110  transactions */\n      0x03\n        /* \"multiSigWallet.sol\":2111:2125  _transactionId */\n      dup3\n        /* \"multiSigWallet.sol\":2098:2126  transactions[_transactionId] */\n      dup2\n      sload\n      dup2\n      lt\n      tag_65\n      jumpi\n      tag_66\n      tag_60\n      jump\t// in\n    tag_66:\n    tag_65:\n      swap1\n      0x00\n      mstore\n      keccak256(0x00, 0x20)\n      swap1\n      0x03\n      mul\n      add\n        /* \"multiSigWallet.sol\":2098:2129  transactions[_transactionId].to */\n      0x00\n      add\n      0x00\n      swap1\n      sload\n      swap1\n      0x0100\n      exp\n      swap1\n      div\n      0xffffffffffffffffffffffffffffffffffffffff\n      and\n        /* \"multiSigWallet.sol\":2098:2134  transactions[_transactionId].to.call */\n      0xffffffffffffffffffffffffffffffffffffffff\n      and\n        /* \"multiSigWallet.sol\":2141:2153  transactions */\n      0x03\n        /* \"multiSigWallet.sol\":2154:2168  _transactionId */\n      dup4\n        /* \"multiSigWallet.sol\":2141:2169  transactions[_transactionId] */\n      dup2\n      sload\n      dup2\n      lt\n      tag_68\n      jumpi\n      tag_69\n      tag_60\n      jump\t// in\n    tag_69:\n    tag_68:\n      swap1\n      0x00\n      mstore\n      keccak256(0x00, 0x20)\n      swap1\n      0x03\n      mul\n      add\n        /* \"multiSigWallet.sol\":2141:2175  transactions[_transactionId].value */\n      0x01\n      add\n      sload\n        /* \"multiSigWallet.sol\":2098:2180  transactions[_transactionId].to.call{value:transactions[_transactionId].value}(\"\") */\n      mload(0x40)\n      tag_71\n      swap1\n      tag_72\n      jump\t// in\n    tag_71:\n      0x00\n      mload(0x40)\n      dup1\n      dup4\n      sub\n      dup2\n      dup6\n      dup8\n      gas\n      call\n      swap3\n      pop\n      pop\n      pop\n      returndatasize\n      dup1\n      0x00\n      dup2\n      eq\n      tag_75\n      jumpi\n      mload(0x40)\n      swap2\n      pop\n      and(add(returndatasize, 0x3f), not(0x1f))\n      dup3\n      add\n      0x40\n      mstore\n      returndatasize\n      dup3\n      mstore\n      returndatasize\n      0x00\n      0x20\n      dup5\n      add\n      returndatacopy\n      jump(tag_74)\n    tag_75:\n      0x60\n      swap2\n      pop\n    tag_74:\n      pop\n        /* \"multiSigWallet.sol\":2082:2180  (bool success,)=transactions[_transactionId].to.call{value:transactions[_transactionId].value}(\"\") */\n      pop\n      swap1\n      pop\n        /* \"multiSigWallet.sol\":2199:2206  success */\n      dup1\n        /* \"multiSigWallet.sol\":2191:2238  require(success,\"Transaction execution failed\") */\n      tag_76\n      jumpi\n      mload(0x40)\n      0x08c379a000000000000000000000000000000000000000000000000000000000\n      dup2\n      mstore\n      0x04\n      add\n      tag_77\n      swap1\n      tag_78\n      jump\t// in\n    tag_77:\n      mload(0x40)\n      dup1\n      swap2\n      sub\n      swap1\n      revert\n    tag_76:\n        /* \"multiSigWallet.sol\":2288:2292  true */\n      0x01\n        /* \"multiSigWallet.sol\":2249:2261  transactions */\n      0x03\n        /* \"multiSigWallet.sol\":2262:2276  _transactionId */\n      dup4\n        /* \"multiSigWallet.sol\":2249:2277  transactions[_transactionId] */\n      dup2\n      sload\n      dup2\n      lt\n      tag_79\n      jumpi\n      tag_80\n      tag_60\n      jump\t// in\n    tag_80:\n    tag_79:\n      swap1\n      0x00\n      mstore\n      keccak256(0x00, 0x20)\n      swap1\n      0x03\n      mul\n      add\n        /* \"multiSigWallet.sol\":2249:2285  transactions[_transactionId].execute */\n      0x02\n      add\n      0x00\n        /* \"multiSigWallet.sol\":2249:2292  transactions[_transactionId].execute = true */\n      0x0100\n      exp\n      dup2\n      sload\n      dup2\n      0xff\n      mul\n      not\n      and\n      swap1\n      dup4\n      iszero\n      iszero\n      mul\n      or\n      swap1\n      sstore\n      pop\n        /* \"multiSigWallet.sol\":2308:2343  TransactionExecuted(_transactionId) */\n      0x15ed165a284872ea7017f03df402a0cadfbfab588320ffaf83f160c2f82781c7\n        /* \"multiSigWallet.sol\":2328:2342  _transactionId */\n      dup3\n        /* \"multiSigWallet.sol\":2308:2343  TransactionExecuted(_transactionId) */\n      mload(0x40)\n      tag_82\n      swap2\n      swap1\n      tag_50\n      jump\t// in\n    tag_82:\n      mload(0x40)\n      dup1\n      swap2\n      sub\n      swap1\n      log1\n        /* \"multiSigWallet.sol\":1917:2353  {... */\n      pop\n        /* \"multiSigWallet.sol\":1863:2353  function ExcuteTransaction(uint _transactionId) public{... */\n      pop\n      jump\t// out\n        /* \"multiSigWallet.sol\":1038:1410  function submitTransaction(address _to) public payable{... */\n    tag_33:\n        /* \"multiSigWallet.sol\":1122:1123  0 */\n      0x00\n        /* \"multiSigWallet.sol\":1109:1124  _to!=address(0) */\n      0xffffffffffffffffffffffffffffffffffffffff\n      and\n        /* \"multiSigWallet.sol\":1109:1112  _to */\n      dup2\n        /* \"multiSigWallet.sol\":1109:1124  _to!=address(0) */\n      0xffffffffffffffffffffffffffffffffffffffff\n      and\n      sub\n        /* \"multiSigWallet.sol\":1101:1145  require(_to!=address(0), \"Invalid receiver\") */\n      tag_84\n      jumpi\n      mload(0x40)\n      0x08c379a000000000000000000000000000000000000000000000000000000000\n      dup2\n      mstore\n      0x04\n      add\n      tag_85\n      swap1\n      tag_86\n      jump\t// in\n    tag_85:\n      mload(0x40)\n      dup1\n      swap2\n      sub\n      swap1\n      revert\n    tag_84:\n        /* \"multiSigWallet.sol\":1172:1173  0 */\n      0x00\n        /* \"multiSigWallet.sol\":1162:1171  msg.value */\n      callvalue\n        /* \"multiSigWallet.sol\":1162:1173  msg.value>0 */\n      gt\n        /* \"multiSigWallet.sol\":1154:1200  require(msg.value>0, \"Insuffieciennt balance\") */\n      tag_87\n      jumpi\n      mload(0x40)\n      0x08c379a000000000000000000000000000000000000000000000000000000000\n      dup2\n      mstore\n      0x04\n      add\n      tag_88\n      swap1\n      tag_89\n      jump\t// in\n    tag_88:\n      mload(0x40)\n      dup1\n      swap2\n      sub\n      swap1\n      revert\n    tag_87:\n        /* \"multiSigWallet.sol\":1209:1227  uint transactionId */\n      0x00\n        /* \"multiSigWallet.sol\":1229:1241  transactions */\n      0x03\n        /* \"multiSigWallet.sol\":1229:1248  transactions.length */\n      dup1\n      sload\n      swap1\n      pop\n        /* \"multiSigWallet.sol\":1209:1248  uint transactionId= transactions.length */\n      swap1\n      pop\n        /* \"multiSigWallet.sol\":1257:1269  transactions */\n      0x03\n        /* \"multiSigWallet.sol\":1275:1328  Transaction({to:_to, value:msg.value, execute:false}) */\n      mload(0x40)\n      dup1\n      0x60\n      add\n      0x40\n      mstore\n      dup1\n        /* \"multiSigWallet.sol\":1291:1294  _to */\n      dup5\n        /* \"multiSigWallet.sol\":1275:1328  Transaction({to:_to, value:msg.value, execute:false}) */\n      0xffffffffffffffffffffffffffffffffffffffff\n      and\n      dup2\n      mstore\n      0x20\n      add\n        /* \"multiSigWallet.sol\":1302:1311  msg.value */\n      callvalue\n        /* \"multiSigWallet.sol\":1275:1328  Transaction({to:_to, value:msg.value, execute:false}) */\n      dup2\n      mstore\n      0x20\n      add\n        /* \"multiSigWallet.sol\":1321:1326  false */\n      0x00\n        /* \"multiSigWallet.sol\":1275:1328  Transaction({to:_to, value:msg.value, execute:false}) */\n      iszero\n      iszero\n      dup2\n      mstore\n      pop\n        /* \"multiSigWallet.sol\":1257:1329  transactions.push(Transaction({to:_to, value:msg.value, execute:false})) */\n      swap1\n      dup1\n      0x01\n      dup2\n      sload\n      add\n      dup1\n      dup3\n      sstore\n      dup1\n      swap2\n      pop\n      pop\n      0x01\n      swap1\n      sub\n      swap1\n      0x00\n      mstore\n      keccak256(0x00, 0x20)\n      swap1\n      0x03\n      mul\n      add\n      0x00\n      swap1\n      swap2\n      swap1\n      swap2\n      swap1\n      swap2\n      pop\n      0x00\n      dup3\n      add\n      mload\n      dup2\n      0x00\n      add\n      exp(0x0100, 0x00)\n      dup2\n      sload\n      dup2\n      0xffffffffffffffffffffffffffffffffffffffff\n      mul\n      not\n      and\n      swap1\n      dup4\n      0xffffffffffffffffffffffffffffffffffffffff\n      and\n      mul\n      or\n      swap1\n      sstore\n      pop\n      0x20\n      dup3\n      add\n      mload\n      dup2\n      0x01\n      add\n      sstore\n      0x40\n      dup3\n      add\n      mload\n      dup2\n      0x02\n      add\n      exp(0x0100, 0x00)\n      dup2\n      sload\n      dup2\n      0xff\n      mul\n      not\n      and\n      swap1\n      dup4\n      iszero\n      iszero\n      mul\n      or\n      swap1\n      sstore\n      pop\n      pop\n      pop\n        /* \"multiSigWallet.sol\":1343:1402  TransactionSbmit(transactionId, msg.sender, _to, msg.value) */\n      0xa0b16c55c058e7838d1efc958be77a49ae97714bf05fd4f5e83acfbe4c8fe5b9\n        /* \"multiSigWallet.sol\":1360:1373  transactionId */\n      dup2\n        /* \"multiSigWallet.sol\":1375:1385  msg.sender */\n      caller\n        /* \"multiSigWallet.sol\":1387:1390  _to */\n      dup5\n        /* \"multiSigWallet.sol\":1392:1401  msg.value */\n      callvalue\n        /* \"multiSigWallet.sol\":1343:1402  TransactionSbmit(transactionId, msg.sender, _to, msg.value) */\n      mload(0x40)\n      tag_91\n      swap5\n      swap4\n      swap3\n      swap2\n      swap1\n      tag_92\n      jump\t// in\n    tag_91:\n      mload(0x40)\n      dup1\n      swap2\n      sub\n      swap1\n      log1\n        /* \"multiSigWallet.sol\":1092:1410  {... */\n      pop\n        /* \"multiSigWallet.sol\":1038:1410  function submitTransaction(address _to) public payable{... */\n      pop\n      jump\t// out\n        /* \"multiSigWallet.sol\":301:334  Transaction[] public transactions */\n    tag_37:\n      0x03\n      dup2\n      dup2\n      sload\n      dup2\n      lt\n      tag_93\n      jumpi\n      0x00\n      dup1\n      revert\n    tag_93:\n      swap1\n      0x00\n      mstore\n      keccak256(0x00, 0x20)\n      swap1\n      0x03\n      mul\n      add\n      0x00\n      swap2\n      pop\n      swap1\n      pop\n      dup1\n      0x00\n      add\n      0x00\n      swap1\n      sload\n      swap1\n      0x0100\n      exp\n      swap1\n      div\n      0xffffffffffffffffffffffffffffffffffffffff\n      and\n      swap1\n      dup1\n      0x01\n      add\n      sload\n      swap1\n      dup1\n      0x02\n      add\n      0x00\n      swap1\n      sload\n      swap1\n      0x0100\n      exp\n      swap1\n      div\n      0xff\n      and\n      swap1\n      pop\n      dup4\n      jump\t// out\n        /* \"multiSigWallet.sol\":2361:2725  function isTransactionConfirm(uint _transactionId) internal view returns(bool){... */\n    tag_52:\n        /* \"multiSigWallet.sol\":2434:2438  bool */\n      0x00\n        /* \"multiSigWallet.sol\":2473:2485  transactions */\n      0x03\n        /* \"multiSigWallet.sol\":2473:2492  transactions.length */\n      dup1\n      sload\n      swap1\n      pop\n        /* \"multiSigWallet.sol\":2458:2472  _transactionId */\n      dup3\n        /* \"multiSigWallet.sol\":2458:2492  _transactionId<transactions.length */\n      lt\n        /* \"multiSigWallet.sol\":2450:2515  require(_transactionId<transactions.length,\"Invalid transaction\") */\n      tag_96\n      jumpi\n      mload(0x40)\n      0x08c379a000000000000000000000000000000000000000000000000000000000\n      dup2\n      mstore\n      0x04\n      add\n      tag_97\n      swap1\n      tag_45\n      jump\t// in\n    tag_97:\n      mload(0x40)\n      dup1\n      swap2\n      sub\n      swap1\n      revert\n    tag_96:\n        /* \"multiSigWallet.sol\":2527:2544  uint confirmCount */\n      0x00\n        /* \"multiSigWallet.sol\":2559:2565  uint i */\n      0x00\n        /* \"multiSigWallet.sol\":2566:2567  0 */\n      0x00\n        /* \"multiSigWallet.sol\":2559:2567  uint i=0 */\n      swap1\n      pop\n        /* \"multiSigWallet.sol\":2555:2671  for(uint i=0;i<owners.length;++i){... */\n    tag_98:\n        /* \"multiSigWallet.sol\":2570:2576  owners */\n      0x00\n        /* \"multiSigWallet.sol\":2570:2583  owners.length */\n      dup1\n      sload\n      swap1\n      pop\n        /* \"multiSigWallet.sol\":2568:2569  i */\n      dup2\n        /* \"multiSigWallet.sol\":2568:2583  i<owners.length */\n      lt\n        /* \"multiSigWallet.sol\":2555:2671  for(uint i=0;i<owners.length;++i){... */\n      iszero\n      tag_99\n      jumpi\n        /* \"multiSigWallet.sol\":2605:2616  isconfirmed */\n      0x02\n        /* \"multiSigWallet.sol\":2605:2632  isconfirmed[_transactionId] */\n      0x00\n        /* \"multiSigWallet.sol\":2617:2631  _transactionId */\n      dup6\n        /* \"multiSigWallet.sol\":2605:2632  isconfirmed[_transactionId] */\n      dup2\n      mstore\n      0x20\n      add\n      swap1\n      dup2\n      mstore\n      0x20\n      add\n      0x00\n      keccak256\n        /* \"multiSigWallet.sol\":2605:2643  isconfirmed[_transactionId][owners[i]] */\n      0x00\n        /* \"multiSigWallet.sol\":2633:2639  owners */\n      0x00\n        /* \"multiSigWallet.sol\":2640:2641  i */\n      dup4\n        /* \"multiSigWallet.sol\":2633:2642  owners[i] */\n      dup2\n      sload\n      dup2\n      lt\n      tag_101\n      jumpi\n      tag_102\n      tag_60\n      jump\t// in\n    tag_102:\n    tag_101:\n      swap1\n      0x00\n      mstore\n      keccak256(0x00, 0x20)\n      add\n      0x00\n      swap1\n      sload\n      swap1\n      0x0100\n      exp\n      swap1\n      div\n      0xffffffffffffffffffffffffffffffffffffffff\n      and\n        /* \"multiSigWallet.sol\":2605:2643  isconfirmed[_transactionId][owners[i]] */\n      0xffffffffffffffffffffffffffffffffffffffff\n      and\n      0xffffffffffffffffffffffffffffffffffffffff\n      and\n      dup2\n      mstore\n      0x20\n      add\n      swap1\n      dup2\n      mstore\n      0x20\n      add\n      0x00\n      keccak256\n      0x00\n      swap1\n      sload\n      swap1\n      0x0100\n      exp\n      swap1\n      div\n      0xff\n      and\n        /* \"multiSigWallet.sol\":2602:2658  if(isconfirmed[_transactionId][owners[i]])confirmCount++ */\n      iszero\n      tag_104\n      jumpi\n        /* \"multiSigWallet.sol\":2644:2658  confirmCount++ */\n      dup2\n      dup1\n      tag_105\n      swap1\n      tag_106\n      jump\t// in\n    tag_105:\n      swap3\n      pop\n      pop\n        /* \"multiSigWallet.sol\":2602:2658  if(isconfirmed[_transactionId][owners[i]])confirmCount++ */\n    tag_104:\n        /* \"multiSigWallet.sol\":2584:2587  ++i */\n      dup1\n      0x01\n      add\n      swap1\n      pop\n        /* \"multiSigWallet.sol\":2555:2671  for(uint i=0;i<owners.length;++i){... */\n      jump(tag_98)\n    tag_99:\n      pop\n        /* \"multiSigWallet.sol\":2702:2717  numOfCompletion */\n      sload(0x01)\n        /* \"multiSigWallet.sol\":2688:2700  confirmCount */\n      dup2\n        /* \"multiSigWallet.sol\":2688:2717  confirmCount>=numOfCompletion */\n      lt\n      iszero\n        /* \"multiSigWallet.sol\":2681:2717  return confirmCount>=numOfCompletion */\n      swap2\n      pop\n      pop\n        /* \"multiSigWallet.sol\":2361:2725  function isTransactionConfirm(uint _transactionId) internal view returns(bool){... */\n      swap2\n      swap1\n      pop\n      jump\t// out\n        /* \"#utility.yul\":88:205   */\n    tag_108:\n        /* \"#utility.yul\":197:198   */\n      0x00\n        /* \"#utility.yul\":194:195   */\n      0x00\n        /* \"#utility.yul\":187:199   */\n      revert\n        /* \"#utility.yul\":334:411   */\n    tag_110:\n        /* \"#utility.yul\":371:378   */\n      0x00\n        /* \"#utility.yul\":400:405   */\n      dup2\n        /* \"#utility.yul\":389:405   */\n      swap1\n      pop\n        /* \"#utility.yul\":334:411   */\n      swap2\n      swap1\n      pop\n      jump\t// out\n        /* \"#utility.yul\":417:539   */\n    tag_111:\n        /* \"#utility.yul\":490:514   */\n      tag_144\n        /* \"#utility.yul\":508:513   */\n      dup2\n        /* \"#utility.yul\":490:514   */\n      tag_110\n      jump\t// in\n    tag_144:\n        /* \"#utility.yul\":483:488   */\n      dup2\n        /* \"#utility.yul\":480:515   */\n      eq\n        /* \"#utility.yul\":470:533   */\n      tag_145\n      jumpi\n        /* \"#utility.yul\":529:530   */\n      0x00\n        /* \"#utility.yul\":526:527   */\n      0x00\n        /* \"#utility.yul\":519:531   */\n      revert\n        /* \"#utility.yul\":470:533   */\n    tag_145:\n        /* \"#utility.yul\":417:539   */\n      pop\n      jump\t// out\n        /* \"#utility.yul\":545:684   */\n    tag_112:\n        /* \"#utility.yul\":591:596   */\n      0x00\n        /* \"#utility.yul\":629:635   */\n      dup2\n        /* \"#utility.yul\":616:636   */\n      calldataload\n        /* \"#utility.yul\":607:636   */\n      swap1\n      pop\n        /* \"#utility.yul\":645:678   */\n      tag_147\n        /* \"#utility.yul\":672:677   */\n      dup2\n        /* \"#utility.yul\":645:678   */\n      tag_111\n      jump\t// in\n    tag_147:\n        /* \"#utility.yul\":545:684   */\n      swap3\n      swap2\n      pop\n      pop\n      jump\t// out\n        /* \"#utility.yul\":690:1019   */\n    tag_11:\n        /* \"#utility.yul\":749:755   */\n      0x00\n        /* \"#utility.yul\":798:800   */\n      0x20\n        /* \"#utility.yul\":786:795   */\n      dup3\n        /* \"#utility.yul\":777:784   */\n      dup5\n        /* \"#utility.yul\":773:796   */\n      sub\n        /* \"#utility.yul\":769:801   */\n      slt\n        /* \"#utility.yul\":766:885   */\n      iszero\n      tag_149\n      jumpi\n        /* \"#utility.yul\":804:883   */\n      tag_150\n      tag_108\n      jump\t// in\n    tag_150:\n        /* \"#utility.yul\":766:885   */\n    tag_149:\n        /* \"#utility.yul\":924:925   */\n      0x00\n        /* \"#utility.yul\":949:1002   */\n      tag_151\n        /* \"#utility.yul\":994:1001   */\n      dup5\n        /* \"#utility.yul\":985:991   */\n      dup3\n        /* \"#utility.yul\":974:983   */\n      dup6\n        /* \"#utility.yul\":970:992   */\n      add\n        /* \"#utility.yul\":949:1002   */\n      tag_112\n      jump\t// in\n    tag_151:\n        /* \"#utility.yul\":939:1002   */\n      swap2\n      pop\n        /* \"#utility.yul\":895:1012   */\n      pop\n        /* \"#utility.yul\":690:1019   */\n      swap3\n      swap2\n      pop\n      pop\n      jump\t// out\n        /* \"#utility.yul\":1025:1151   */\n    tag_113:\n        /* \"#utility.yul\":1062:1069   */\n      0x00\n        /* \"#utility.yul\":1102:1144   */\n      0xffffffffffffffffffffffffffffffffffffffff\n        /* \"#utility.yul\":1095:1100   */\n      dup3\n        /* \"#utility.yul\":1091:1145   */\n      and\n        /* \"#utility.yul\":1080:1145   */\n      swap1\n      pop\n        /* \"#utility.yul\":1025:1151   */\n      swap2\n      swap1\n      pop\n      jump\t// out\n        /* \"#utility.yul\":1157:1253   */\n    tag_114:\n        /* \"#utility.yul\":1194:1201   */\n      0x00\n        /* \"#utility.yul\":1223:1247   */\n      tag_154\n        /* \"#utility.yul\":1241:1246   */\n      dup3\n        /* \"#utility.yul\":1223:1247   */\n      tag_113\n      jump\t// in\n    tag_154:\n        /* \"#utility.yul\":1212:1247   */\n      swap1\n      pop\n        /* \"#utility.yul\":1157:1253   */\n      swap2\n      swap1\n      pop\n      jump\t// out\n        /* \"#utility.yul\":1259:1377   */\n    tag_115:\n        /* \"#utility.yul\":1346:1370   */\n      tag_156\n        /* \"#utility.yul\":1364:1369   */\n      dup2\n        /* \"#utility.yul\":1346:1370   */\n      tag_114\n      jump\t// in\n    tag_156:\n        /* \"#utility.yul\":1341:1344   */\n      dup3\n        /* \"#utility.yul\":1334:1371   */\n      mstore\n        /* \"#utility.yul\":1259:1377   */\n      pop\n      pop\n      jump\t// out\n        /* \"#utility.yul\":1383:1605   */\n    tag_14:\n        /* \"#utility.yul\":1476:1480   */\n      0x00\n        /* \"#utility.yul\":1514:1516   */\n      0x20\n        /* \"#utility.yul\":1503:1512   */\n      dup3\n        /* \"#utility.yul\":1499:1517   */\n      add\n        /* \"#utility.yul\":1491:1517   */\n      swap1\n      pop\n        /* \"#utility.yul\":1527:1598   */\n      tag_158\n        /* \"#utility.yul\":1595:1596   */\n      0x00\n        /* \"#utility.yul\":1584:1593   */\n      dup4\n        /* \"#utility.yul\":1580:1597   */\n      add\n        /* \"#utility.yul\":1571:1577   */\n      dup5\n        /* \"#utility.yul\":1527:1598   */\n      tag_115\n      jump\t// in\n    tag_158:\n        /* \"#utility.yul\":1383:1605   */\n      swap3\n      swap2\n      pop\n      pop\n      jump\t// out\n        /* \"#utility.yul\":1611:1733   */\n    tag_116:\n        /* \"#utility.yul\":1684:1708   */\n      tag_160\n        /* \"#utility.yul\":1702:1707   */\n      dup2\n        /* \"#utility.yul\":1684:1708   */\n      tag_114\n      jump\t// in\n    tag_160:\n        /* \"#utility.yul\":1677:1682   */\n      dup2\n        /* \"#utility.yul\":1674:1709   */\n      eq\n        /* \"#utility.yul\":1664:1727   */\n      tag_161\n      jumpi\n        /* \"#utility.yul\":1723:1724   */\n      0x00\n        /* \"#utility.yul\":1720:1721   */\n      0x00\n        /* \"#utility.yul\":1713:1725   */\n      revert\n        /* \"#utility.yul\":1664:1727   */\n    tag_161:\n        /* \"#utility.yul\":1611:1733   */\n      pop\n      jump\t// out\n        /* \"#utility.yul\":1739:1878   */\n    tag_117:\n        /* \"#utility.yul\":1785:1790   */\n      0x00\n        /* \"#utility.yul\":1823:1829   */\n      dup2\n        /* \"#utility.yul\":1810:1830   */\n      calldataload\n        /* \"#utility.yul\":1801:1830   */\n      swap1\n      pop\n        /* \"#utility.yul\":1839:1872   */\n      tag_163\n        /* \"#utility.yul\":1866:1871   */\n      dup2\n        /* \"#utility.yul\":1839:1872   */\n      tag_116\n      jump\t// in\n    tag_163:\n        /* \"#utility.yul\":1739:1878   */\n      swap3\n      swap2\n      pop\n      pop\n      jump\t// out\n        /* \"#utility.yul\":1884:2358   */\n    tag_22:\n        /* \"#utility.yul\":1952:1958   */\n      0x00\n        /* \"#utility.yul\":1960:1966   */\n      0x00\n        /* \"#utility.yul\":2009:2011   */\n      0x40\n        /* \"#utility.yul\":1997:2006   */\n      dup4\n        /* \"#utility.yul\":1988:1995   */\n      dup6\n        /* \"#utility.yul\":1984:2007   */\n      sub\n        /* \"#utility.yul\":1980:2012   */\n      slt\n        /* \"#utility.yul\":1977:2096   */\n      iszero\n      tag_165\n      jumpi\n        /* \"#utility.yul\":2015:2094   */\n      tag_166\n      tag_108\n      jump\t// in\n    tag_166:\n        /* \"#utility.yul\":1977:2096   */\n    tag_165:\n        /* \"#utility.yul\":2135:2136   */\n      0x00\n        /* \"#utility.yul\":2160:2213   */\n      tag_167\n        /* \"#utility.yul\":2205:2212   */\n      dup6\n        /* \"#utility.yul\":2196:2202   */\n      dup3\n        /* \"#utility.yul\":2185:2194   */\n      dup7\n        /* \"#utility.yul\":2181:2203   */\n      add\n        /* \"#utility.yul\":2160:2213   */\n      tag_112\n      jump\t// in\n    tag_167:\n        /* \"#utility.yul\":2150:2213   */\n      swap3\n      pop\n        /* \"#utility.yul\":2106:2223   */\n      pop\n        /* \"#utility.yul\":2262:2264   */\n      0x20\n        /* \"#utility.yul\":2288:2341   */\n      tag_168\n        /* \"#utility.yul\":2333:2340   */\n      dup6\n        /* \"#utility.yul\":2324:2330   */\n      dup3\n        /* \"#utility.yul\":2313:2322   */\n      dup7\n        /* \"#utility.yul\":2309:2331   */\n      add\n        /* \"#utility.yul\":2288:2341   */\n      tag_117\n      jump\t// in\n    tag_168:\n        /* \"#utility.yul\":2278:2341   */\n      swap2\n      pop\n        /* \"#utility.yul\":2233:2351   */\n      pop\n        /* \"#utility.yul\":1884:2358   */\n      swap3\n      pop\n      swap3\n      swap1\n      pop\n      jump\t// out\n        /* \"#utility.yul\":2364:2454   */\n    tag_118:\n        /* \"#utility.yul\":2398:2405   */\n      0x00\n        /* \"#utility.yul\":2441:2446   */\n      dup2\n        /* \"#utility.yul\":2434:2447   */\n      iszero\n        /* \"#utility.yul\":2427:2448   */\n      iszero\n        /* \"#utility.yul\":2416:2448   */\n      swap1\n      pop\n        /* \"#utility.yul\":2364:2454   */\n      swap2\n      swap1\n      pop\n      jump\t// out\n        /* \"#utility.yul\":2460:2569   */\n    tag_119:\n        /* \"#utility.yul\":2541:2562   */\n      tag_171\n        /* \"#utility.yul\":2556:2561   */\n      dup2\n        /* \"#utility.yul\":2541:2562   */\n      tag_118\n      jump\t// in\n    tag_171:\n        /* \"#utility.yul\":2536:2539   */\n      dup3\n        /* \"#utility.yul\":2529:2563   */\n      mstore\n        /* \"#utility.yul\":2460:2569   */\n      pop\n      pop\n      jump\t// out\n        /* \"#utility.yul\":2575:2785   */\n    tag_25:\n        /* \"#utility.yul\":2662:2666   */\n      0x00\n        /* \"#utility.yul\":2700:2702   */\n      0x20\n        /* \"#utility.yul\":2689:2698   */\n      dup3\n        /* \"#utility.yul\":2685:2703   */\n      add\n        /* \"#utility.yul\":2677:2703   */\n      swap1\n      pop\n        /* \"#utility.yul\":2713:2778   */\n      tag_173\n        /* \"#utility.yul\":2775:2776   */\n      0x00\n        /* \"#utility.yul\":2764:2773   */\n      dup4\n        /* \"#utility.yul\":2760:2777   */\n      add\n        /* \"#utility.yul\":2751:2757   */\n      dup5\n        /* \"#utility.yul\":2713:2778   */\n      tag_119\n      jump\t// in\n    tag_173:\n        /* \"#utility.yul\":2575:2785   */\n      swap3\n      swap2\n      pop\n      pop\n      jump\t// out\n        /* \"#utility.yul\":2791:3120   */\n    tag_32:\n        /* \"#utility.yul\":2850:2856   */\n      0x00\n        /* \"#utility.yul\":2899:2901   */\n      0x20\n        /* \"#utility.yul\":2887:2896   */\n      dup3\n        /* \"#utility.yul\":2878:2885   */\n      dup5\n        /* \"#utility.yul\":2874:2897   */\n      sub\n        /* \"#utility.yul\":2870:2902   */\n      slt\n        /* \"#utility.yul\":2867:2986   */\n      iszero\n      tag_175\n      jumpi\n        /* \"#utility.yul\":2905:2984   */\n      tag_176\n      tag_108\n      jump\t// in\n    tag_176:\n        /* \"#utility.yul\":2867:2986   */\n    tag_175:\n        /* \"#utility.yul\":3025:3026   */\n      0x00\n        /* \"#utility.yul\":3050:3103   */\n      tag_177\n        /* \"#utility.yul\":3095:3102   */\n      dup5\n        /* \"#utility.yul\":3086:3092   */\n      dup3\n        /* \"#utility.yul\":3075:3084   */\n      dup6\n        /* \"#utility.yul\":3071:3093   */\n      add\n        /* \"#utility.yul\":3050:3103   */\n      tag_117\n      jump\t// in\n    tag_177:\n        /* \"#utility.yul\":3040:3103   */\n      swap2\n      pop\n        /* \"#utility.yul\":2996:3113   */\n      pop\n        /* \"#utility.yul\":2791:3120   */\n      swap3\n      swap2\n      pop\n      pop\n      jump\t// out\n        /* \"#utility.yul\":3126:3244   */\n    tag_120:\n        /* \"#utility.yul\":3213:3237   */\n      tag_179\n        /* \"#utility.yul\":3231:3236   */\n      dup2\n        /* \"#utility.yul\":3213:3237   */\n      tag_110\n      jump\t// in\n    tag_179:\n        /* \"#utility.yul\":3208:3211   */\n      dup3\n        /* \"#utility.yul\":3201:3238   */\n      mstore\n        /* \"#utility.yul\":3126:3244   */\n      pop\n      pop\n      jump\t// out\n        /* \"#utility.yul\":3250:3680   */\n    tag_39:\n        /* \"#utility.yul\":3393:3397   */\n      0x00\n        /* \"#utility.yul\":3431:3433   */\n      0x60\n        /* \"#utility.yul\":3420:3429   */\n      dup3\n        /* \"#utility.yul\":3416:3434   */\n      add\n        /* \"#utility.yul\":3408:3434   */\n      swap1\n      pop\n        /* \"#utility.yul\":3444:3515   */\n      tag_181\n        /* \"#utility.yul\":3512:3513   */\n      0x00\n        /* \"#utility.yul\":3501:3510   */\n      dup4\n        /* \"#utility.yul\":3497:3514   */\n      add\n        /* \"#utility.yul\":3488:3494   */\n      dup7\n        /* \"#utility.yul\":3444:3515   */\n      tag_115\n      jump\t// in\n    tag_181:\n        /* \"#utility.yul\":3525:3597   */\n      tag_182\n        /* \"#utility.yul\":3593:3595   */\n      0x20\n        /* \"#utility.yul\":3582:3591   */\n      dup4\n        /* \"#utility.yul\":3578:3596   */\n      add\n        /* \"#utility.yul\":3569:3575   */\n      dup6\n        /* \"#utility.yul\":3525:3597   */\n      tag_120\n      jump\t// in\n    tag_182:\n        /* \"#utility.yul\":3607:3673   */\n      tag_183\n        /* \"#utility.yul\":3669:3671   */\n      0x40\n        /* \"#utility.yul\":3658:3667   */\n      dup4\n        /* \"#utility.yul\":3654:3672   */\n      add\n        /* \"#utility.yul\":3645:3651   */\n      dup5\n        /* \"#utility.yul\":3607:3673   */\n      tag_119\n      jump\t// in\n    tag_183:\n        /* \"#utility.yul\":3250:3680   */\n      swap5\n      swap4\n      pop\n      pop\n      pop\n      pop\n      jump\t// out\n        /* \"#utility.yul\":3686:3855   */\n    tag_121:\n        /* \"#utility.yul\":3770:3781   */\n      0x00\n        /* \"#utility.yul\":3804:3810   */\n      dup3\n        /* \"#utility.yul\":3799:3802   */\n      dup3\n        /* \"#utility.yul\":3792:3811   */\n      mstore\n        /* \"#utility.yul\":3844:3848   */\n      0x20\n        /* \"#utility.yul\":3839:3842   */\n      dup3\n        /* \"#utility.yul\":3835:3849   */\n      add\n        /* \"#utility.yul\":3820:3849   */\n      swap1\n      pop\n        /* \"#utility.yul\":3686:3855   */\n      swap3\n      swap2\n      pop\n      pop\n      jump\t// out\n        /* \"#utility.yul\":3861:4030   */\n    tag_122:\n        /* \"#utility.yul\":4001:4022   */\n      0x496e76616c6964207472616e73616374696f6e00000000000000000000000000\n        /* \"#utility.yul\":3997:3998   */\n      0x00\n        /* \"#utility.yul\":3989:3995   */\n      dup3\n        /* \"#utility.yul\":3985:3999   */\n      add\n        /* \"#utility.yul\":3978:4023   */\n      mstore\n        /* \"#utility.yul\":3861:4030   */\n      pop\n      jump\t// out\n        /* \"#utility.yul\":4036:4402   */\n    tag_123:\n        /* \"#utility.yul\":4178:4181   */\n      0x00\n        /* \"#utility.yul\":4199:4266   */\n      tag_187\n        /* \"#utility.yul\":4263:4265   */\n      0x13\n        /* \"#utility.yul\":4258:4261   */\n      dup4\n        /* \"#utility.yul\":4199:4266   */\n      tag_121\n      jump\t// in\n    tag_187:\n        /* \"#utility.yul\":4192:4266   */\n      swap2\n      pop\n        /* \"#utility.yul\":4275:4368   */\n      tag_188\n        /* \"#utility.yul\":4364:4367   */\n      dup3\n        /* \"#utility.yul\":4275:4368   */\n      tag_122\n      jump\t// in\n    tag_188:\n        /* \"#utility.yul\":4393:4395   */\n      0x20\n        /* \"#utility.yul\":4388:4391   */\n      dup3\n        /* \"#utility.yul\":4384:4396   */\n      add\n        /* \"#utility.yul\":4377:4396   */\n      swap1\n      pop\n        /* \"#utility.yul\":4036:4402   */\n      swap2\n      swap1\n      pop\n      jump\t// out\n        /* \"#utility.yul\":4408:4827   */\n    tag_45:\n        /* \"#utility.yul\":4574:4578   */\n      0x00\n        /* \"#utility.yul\":4612:4614   */\n      0x20\n        /* \"#utility.yul\":4601:4610   */\n      dup3\n        /* \"#utility.yul\":4597:4615   */\n      add\n        /* \"#utility.yul\":4589:4615   */\n      swap1\n      pop\n        /* \"#utility.yul\":4661:4670   */\n      dup2\n        /* \"#utility.yul\":4655:4659   */\n      dup2\n        /* \"#utility.yul\":4651:4671   */\n      sub\n        /* \"#utility.yul\":4647:4648   */\n      0x00\n        /* \"#utility.yul\":4636:4645   */\n      dup4\n        /* \"#utility.yul\":4632:4649   */\n      add\n        /* \"#utility.yul\":4625:4672   */\n      mstore\n        /* \"#utility.yul\":4689:4820   */\n      tag_190\n        /* \"#utility.yul\":4815:4819   */\n      dup2\n        /* \"#utility.yul\":4689:4820   */\n      tag_123\n      jump\t// in\n    tag_190:\n        /* \"#utility.yul\":4681:4820   */\n      swap1\n      pop\n        /* \"#utility.yul\":4408:4827   */\n      swap2\n      swap1\n      pop\n      jump\t// out\n        /* \"#utility.yul\":4833:5000   */\n    tag_124:\n        /* \"#utility.yul\":4973:4992   */\n      0x416c726561647920636f6e6669726d6564000000000000000000000000000000\n        /* \"#utility.yul\":4969:4970   */\n      0x00\n        /* \"#utility.yul\":4961:4967   */\n      dup3\n        /* \"#utility.yul\":4957:4971   */\n      add\n        /* \"#utility.yul\":4950:4993   */\n      mstore\n        /* \"#utility.yul\":4833:5000   */\n      pop\n      jump\t// out\n        /* \"#utility.yul\":5006:5372   */\n    tag_125:\n        /* \"#utility.yul\":5148:5151   */\n      0x00\n        /* \"#utility.yul\":5169:5236   */\n      tag_193\n        /* \"#utility.yul\":5233:5235   */\n      0x11\n        /* \"#utility.yul\":5228:5231   */\n      dup4\n        /* \"#utility.yul\":5169:5236   */\n      tag_121\n      jump\t// in\n    tag_193:\n        /* \"#utility.yul\":5162:5236   */\n      swap2\n      pop\n        /* \"#utility.yul\":5245:5338   */\n      tag_194\n        /* \"#utility.yul\":5334:5337   */\n      dup3\n        /* \"#utility.yul\":5245:5338   */\n      tag_124\n      jump\t// in\n    tag_194:\n        /* \"#utility.yul\":5363:5365   */\n      0x20\n        /* \"#utility.yul\":5358:5361   */\n      dup3\n        /* \"#utility.yul\":5354:5366   */\n      add\n        /* \"#utility.yul\":5347:5366   */\n      swap1\n      pop\n        /* \"#utility.yul\":5006:5372   */\n      swap2\n      swap1\n      pop\n      jump\t// out\n        /* \"#utility.yul\":5378:5797   */\n    tag_48:\n        /* \"#utility.yul\":5544:5548   */\n      0x00\n        /* \"#utility.yul\":5582:5584   */\n      0x20\n        /* \"#utility.yul\":5571:5580   */\n      dup3\n        /* \"#utility.yul\":5567:5585   */\n      add\n        /* \"#utility.yul\":5559:5585   */\n      swap1\n      pop\n        /* \"#utility.yul\":5631:5640   */\n      dup2\n        /* \"#utility.yul\":5625:5629   */\n      dup2\n        /* \"#utility.yul\":5621:5641   */\n      sub\n        /* \"#utility.yul\":5617:5618   */\n      0x00\n        /* \"#utility.yul\":5606:5615   */\n      dup4\n        /* \"#utility.yul\":5602:5619   */\n      add\n        /* \"#utility.yul\":5595:5642   */\n      mstore\n        /* \"#utility.yul\":5659:5790   */\n      tag_196\n        /* \"#utility.yul\":5785:5789   */\n      dup2\n        /* \"#utility.yul\":5659:5790   */\n      tag_125\n      jump\t// in\n    tag_196:\n        /* \"#utility.yul\":5651:5790   */\n      swap1\n      pop\n        /* \"#utility.yul\":5378:5797   */\n      swap2\n      swap1\n      pop\n      jump\t// out\n        /* \"#utility.yul\":5803:6025   */\n    tag_50:\n        /* \"#utility.yul\":5896:5900   */\n      0x00\n        /* \"#utility.yul\":5934:5936   */\n      0x20\n        /* \"#utility.yul\":5923:5932   */\n      dup3\n        /* \"#utility.yul\":5919:5937   */\n      add\n        /* \"#utility.yul\":5911:5937   */\n      swap1\n      pop\n        /* \"#utility.yul\":5947:6018   */\n      tag_198\n        /* \"#utility.yul\":6015:6016   */\n      0x00\n        /* \"#utility.yul\":6004:6013   */\n      dup4\n        /* \"#utility.yul\":6000:6017   */\n      add\n        /* \"#utility.yul\":5991:5997   */\n      dup5\n        /* \"#utility.yul\":5947:6018   */\n      tag_120\n      jump\t// in\n    tag_198:\n        /* \"#utility.yul\":5803:6025   */\n      swap3\n      swap2\n      pop\n      pop\n      jump\t// out\n        /* \"#utility.yul\":6031:6211   */\n    tag_60:\n        /* \"#utility.yul\":6079:6156   */\n      0x4e487b7100000000000000000000000000000000000000000000000000000000\n        /* \"#utility.yul\":6076:6077   */\n      0x00\n        /* \"#utility.yul\":6069:6157   */\n      mstore\n        /* \"#utility.yul\":6176:6180   */\n      0x32\n        /* \"#utility.yul\":6173:6174   */\n      0x04\n        /* \"#utility.yul\":6166:6181   */\n      mstore\n        /* \"#utility.yul\":6200:6204   */\n      0x24\n        /* \"#utility.yul\":6197:6198   */\n      0x00\n        /* \"#utility.yul\":6190:6205   */\n      revert\n        /* \"#utility.yul\":6217:6384   */\n    tag_126:\n        /* \"#utility.yul\":6357:6376   */\n      0x416c726561647920657865637574657264000000000000000000000000000000\n        /* \"#utility.yul\":6353:6354   */\n      0x00\n        /* \"#utility.yul\":6345:6351   */\n      dup3\n        /* \"#utility.yul\":6341:6355   */\n      add\n        /* \"#utility.yul\":6334:6377   */\n      mstore\n        /* \"#utility.yul\":6217:6384   */\n      pop\n      jump\t// out\n        /* \"#utility.yul\":6390:6756   */\n    tag_127:\n        /* \"#utility.yul\":6532:6535   */\n      0x00\n        /* \"#utility.yul\":6553:6620   */\n      tag_202\n        /* \"#utility.yul\":6617:6619   */\n      0x11\n        /* \"#utility.yul\":6612:6615   */\n      dup4\n        /* \"#utility.yul\":6553:6620   */\n      tag_121\n      jump\t// in\n    tag_202:\n        /* \"#utility.yul\":6546:6620   */\n      swap2\n      pop\n        /* \"#utility.yul\":6629:6722   */\n      tag_203\n        /* \"#utility.yul\":6718:6721   */\n      dup3\n        /* \"#utility.yul\":6629:6722   */\n      tag_126\n      jump\t// in\n    tag_203:\n        /* \"#utility.yul\":6747:6749   */\n      0x20\n        /* \"#utility.yul\":6742:6745   */\n      dup3\n        /* \"#utility.yul\":6738:6750   */\n      add\n        /* \"#utility.yul\":6731:6750   */\n      swap1\n      pop\n        /* \"#utility.yul\":6390:6756   */\n      swap2\n      swap1\n      pop\n      jump\t// out\n        /* \"#utility.yul\":6762:7181   */\n    tag_64:\n        /* \"#utility.yul\":6928:6932   */\n      0x00\n        /* \"#utility.yul\":6966:6968   */\n      0x20\n        /* \"#utility.yul\":6955:6964   */\n      dup3\n        /* \"#utility.yul\":6951:6969   */\n      add\n        /* \"#utility.yul\":6943:6969   */\n      swap1\n      pop\n        /* \"#utility.yul\":7015:7024   */\n      dup2\n        /* \"#utility.yul\":7009:7013   */\n      dup2\n        /* \"#utility.yul\":7005:7025   */\n      sub\n        /* \"#utility.yul\":7001:7002   */\n      0x00\n        /* \"#utility.yul\":6990:6999   */\n      dup4\n        /* \"#utility.yul\":6986:7003   */\n      add\n        /* \"#utility.yul\":6979:7026   */\n      mstore\n        /* \"#utility.yul\":7043:7174   */\n      tag_205\n        /* \"#utility.yul\":7169:7173   */\n      dup2\n        /* \"#utility.yul\":7043:7174   */\n      tag_127\n      jump\t// in\n    tag_205:\n        /* \"#utility.yul\":7035:7174   */\n      swap1\n      pop\n        /* \"#utility.yul\":6762:7181   */\n      swap2\n      swap1\n      pop\n      jump\t// out\n        /* \"#utility.yul\":7187:7334   */\n    tag_128:\n        /* \"#utility.yul\":7288:7299   */\n      0x00\n        /* \"#utility.yul\":7325:7328   */\n      dup2\n        /* \"#utility.yul\":7310:7328   */\n      swap1\n      pop\n        /* \"#utility.yul\":7187:7334   */\n      swap3\n      swap2\n      pop\n      pop\n      jump\t// out\n        /* \"#utility.yul\":7340:7454   */\n    tag_129:\n      pop\n      jump\t// out\n        /* \"#utility.yul\":7460:7858   */\n    tag_130:\n        /* \"#utility.yul\":7619:7622   */\n      0x00\n        /* \"#utility.yul\":7640:7723   */\n      tag_209\n        /* \"#utility.yul\":7721:7722   */\n      0x00\n        /* \"#utility.yul\":7716:7719   */\n      dup4\n        /* \"#utility.yul\":7640:7723   */\n      tag_128\n      jump\t// in\n    tag_209:\n        /* \"#utility.yul\":7633:7723   */\n      swap2\n      pop\n        /* \"#utility.yul\":7732:7825   */\n      tag_210\n        /* \"#utility.yul\":7821:7824   */\n      dup3\n        /* \"#utility.yul\":7732:7825   */\n      tag_129\n      jump\t// in\n    tag_210:\n        /* \"#utility.yul\":7850:7851   */\n      0x00\n        /* \"#utility.yul\":7845:7848   */\n      dup3\n        /* \"#utility.yul\":7841:7852   */\n      add\n        /* \"#utility.yul\":7834:7852   */\n      swap1\n      pop\n        /* \"#utility.yul\":7460:7858   */\n      swap2\n      swap1\n      pop\n      jump\t// out\n        /* \"#utility.yul\":7864:8243   */\n    tag_72:\n        /* \"#utility.yul\":8048:8051   */\n      0x00\n        /* \"#utility.yul\":8070:8217   */\n      tag_212\n        /* \"#utility.yul\":8213:8216   */\n      dup3\n        /* \"#utility.yul\":8070:8217   */\n      tag_130\n      jump\t// in\n    tag_212:\n        /* \"#utility.yul\":8063:8217   */\n      swap2\n      pop\n        /* \"#utility.yul\":8234:8237   */\n      dup2\n        /* \"#utility.yul\":8227:8237   */\n      swap1\n      pop\n        /* \"#utility.yul\":7864:8243   */\n      swap2\n      swap1\n      pop\n      jump\t// out\n        /* \"#utility.yul\":8249:8427   */\n    tag_131:\n        /* \"#utility.yul\":8389:8419   */\n      0x5472616e73616374696f6e20657865637574696f6e206661696c656400000000\n        /* \"#utility.yul\":8385:8386   */\n      0x00\n        /* \"#utility.yul\":8377:8383   */\n      dup3\n        /* \"#utility.yul\":8373:8387   */\n      add\n        /* \"#utility.yul\":8366:8420   */\n      mstore\n        /* \"#utility.yul\":8249:8427   */\n      pop\n      jump\t// out\n        /* \"#utility.yul\":8433:8799   */\n    tag_132:\n        /* \"#utility.yul\":8575:8578   */\n      0x00\n        /* \"#utility.yul\":8596:8663   */\n      tag_215\n        /* \"#utility.yul\":8660:8662   */\n      0x1c\n        /* \"#utility.yul\":8655:8658   */\n      dup4\n        /* \"#utility.yul\":8596:8663   */\n      tag_121\n      jump\t// in\n    tag_215:\n        /* \"#utility.yul\":8589:8663   */\n      swap2\n      pop\n        /* \"#utility.yul\":8672:8765   */\n      tag_216\n        /* \"#utility.yul\":8761:8764   */\n      dup3\n        /* \"#utility.yul\":8672:8765   */\n      tag_131\n      jump\t// in\n    tag_216:\n        /* \"#utility.yul\":8790:8792   */\n      0x20\n        /* \"#utility.yul\":8785:8788   */\n      dup3\n        /* \"#utility.yul\":8781:8793   */\n      add\n        /* \"#utility.yul\":8774:8793   */\n      swap1\n      pop\n        /* \"#utility.yul\":8433:8799   */\n      swap2\n      swap1\n      pop\n      jump\t// out\n        /* \"#utility.yul\":8805:9224   */\n    tag_78:\n        /* \"#utility.yul\":8971:8975   */\n      0x00\n        /* \"#utility.yul\":9009:9011   */\n      0x20\n        /* \"#utility.yul\":8998:9007   */\n      dup3\n        /* \"#utility.yul\":8994:9012   */\n      add\n        /* \"#utility.yul\":8986:9012   */\n      swap1\n      pop\n        /* \"#utility.yul\":9058:9067   */\n      dup2\n        /* \"#utility.yul\":9052:9056   */\n      dup2\n        /* \"#utility.yul\":9048:9068   */\n      sub\n        /* \"#utility.yul\":9044:9045   */\n      0x00\n        /* \"#utility.yul\":9033:9042   */\n      dup4\n        /* \"#utility.yul\":9029:9046   */\n      add\n        /* \"#utility.yul\":9022:9069   */\n      mstore\n        /* \"#utility.yul\":9086:9217   */\n      tag_218\n        /* \"#utility.yul\":9212:9216   */\n      dup2\n        /* \"#utility.yul\":9086:9217   */\n      tag_132\n      jump\t// in\n    tag_218:\n        /* \"#utility.yul\":9078:9217   */\n      swap1\n      pop\n        /* \"#utility.yul\":8805:9224   */\n      swap2\n      swap1\n      pop\n      jump\t// out\n        /* \"#utility.yul\":9230:9396   */\n    tag_133:\n        /* \"#utility.yul\":9370:9388   */\n      0x496e76616c696420726563656976657200000000000000000000000000000000\n        /* \"#utility.yul\":9366:9367   */\n      0x00\n        /* \"#utility.yul\":9358:9364   */\n      dup3\n        /* \"#utility.yul\":9354:9368   */\n      add\n        /* \"#utility.yul\":9347:9389   */\n      mstore\n        /* \"#utility.yul\":9230:9396   */\n      pop\n      jump\t// out\n        /* \"#utility.yul\":9402:9768   */\n    tag_134:\n        /* \"#utility.yul\":9544:9547   */\n      0x00\n        /* \"#utility.yul\":9565:9632   */\n      tag_221\n        /* \"#utility.yul\":9629:9631   */\n      0x10\n        /* \"#utility.yul\":9624:9627   */\n      dup4\n        /* \"#utility.yul\":9565:9632   */\n      tag_121\n      jump\t// in\n    tag_221:\n        /* \"#utility.yul\":9558:9632   */\n      swap2\n      pop\n        /* \"#utility.yul\":9641:9734   */\n      tag_222\n        /* \"#utility.yul\":9730:9733   */\n      dup3\n        /* \"#utility.yul\":9641:9734   */\n      tag_133\n      jump\t// in\n    tag_222:\n        /* \"#utility.yul\":9759:9761   */\n      0x20\n        /* \"#utility.yul\":9754:9757   */\n      dup3\n        /* \"#utility.yul\":9750:9762   */\n      add\n        /* \"#utility.yul\":9743:9762   */\n      swap1\n      pop\n        /* \"#utility.yul\":9402:9768   */\n      swap2\n      swap1\n      pop\n      jump\t// out\n        /* \"#utility.yul\":9774:10193   */\n    tag_86:\n        /* \"#utility.yul\":9940:9944   */\n      0x00\n        /* \"#utility.yul\":9978:9980   */\n      0x20\n        /* \"#utility.yul\":9967:9976   */\n      dup3\n        /* \"#utility.yul\":9963:9981   */\n      add\n        /* \"#utility.yul\":9955:9981   */\n      swap1\n      pop\n        /* \"#utility.yul\":10027:10036   */\n      dup2\n        /* \"#utility.yul\":10021:10025   */\n      dup2\n        /* \"#utility.yul\":10017:10037   */\n      sub\n        /* \"#utility.yul\":10013:10014   */\n      0x00\n        /* \"#utility.yul\":10002:10011   */\n      dup4\n        /* \"#utility.yul\":9998:10015   */\n      add\n        /* \"#utility.yul\":9991:10038   */\n      mstore\n        /* \"#utility.yul\":10055:10186   */\n      tag_224\n        /* \"#utility.yul\":10181:10185   */\n      dup2\n        /* \"#utility.yul\":10055:10186   */\n      tag_134\n      jump\t// in\n    tag_224:\n        /* \"#utility.yul\":10047:10186   */\n      swap1\n      pop\n        /* \"#utility.yul\":9774:10193   */\n      swap2\n      swap1\n      pop\n      jump\t// out\n        /* \"#utility.yul\":10199:10371   */\n    tag_135:\n        /* \"#utility.yul\":10339:10363   */\n      0x496e7375666669656369656e6e742062616c616e636500000000000000000000\n        /* \"#utility.yul\":10335:10336   */\n      0x00\n        /* \"#utility.yul\":10327:10333   */\n      dup3\n        /* \"#utility.yul\":10323:10337   */\n      add\n        /* \"#utility.yul\":10316:10364   */\n      mstore\n        /* \"#utility.yul\":10199:10371   */\n      pop\n      jump\t// out\n        /* \"#utility.yul\":10377:10743   */\n    tag_136:\n        /* \"#utility.yul\":10519:10522   */\n      0x00\n        /* \"#utility.yul\":10540:10607   */\n      tag_227\n        /* \"#utility.yul\":10604:10606   */\n      0x16\n        /* \"#utility.yul\":10599:10602   */\n      dup4\n        /* \"#utility.yul\":10540:10607   */\n      tag_121\n      jump\t// in\n    tag_227:\n        /* \"#utility.yul\":10533:10607   */\n      swap2\n      pop\n        /* \"#utility.yul\":10616:10709   */\n      tag_228\n        /* \"#utility.yul\":10705:10708   */\n      dup3\n        /* \"#utility.yul\":10616:10709   */\n      tag_135\n      jump\t// in\n    tag_228:\n        /* \"#utility.yul\":10734:10736   */\n      0x20\n        /* \"#utility.yul\":10729:10732   */\n      dup3\n        /* \"#utility.yul\":10725:10737   */\n      add\n        /* \"#utility.yul\":10718:10737   */\n      swap1\n      pop\n        /* \"#utility.yul\":10377:10743   */\n      swap2\n      swap1\n      pop\n      jump\t// out\n        /* \"#utility.yul\":10749:11168   */\n    tag_89:\n        /* \"#utility.yul\":10915:10919   */\n      0x00\n        /* \"#utility.yul\":10953:10955   */\n      0x20\n        /* \"#utility.yul\":10942:10951   */\n      dup3\n        /* \"#utility.yul\":10938:10956   */\n      add\n        /* \"#utility.yul\":10930:10956   */\n      swap1\n      pop\n        /* \"#utility.yul\":11002:11011   */\n      dup2\n        /* \"#utility.yul\":10996:11000   */\n      dup2\n        /* \"#utility.yul\":10992:11012   */\n      sub\n        /* \"#utility.yul\":10988:10989   */\n      0x00\n        /* \"#utility.yul\":10977:10986   */\n      dup4\n        /* \"#utility.yul\":10973:10990   */\n      add\n        /* \"#utility.yul\":10966:11013   */\n      mstore\n        /* \"#utility.yul\":11030:11161   */\n      tag_230\n        /* \"#utility.yul\":11156:11160   */\n      dup2\n        /* \"#utility.yul\":11030:11161   */\n      tag_136\n      jump\t// in\n    tag_230:\n        /* \"#utility.yul\":11022:11161   */\n      swap1\n      pop\n        /* \"#utility.yul\":10749:11168   */\n      swap2\n      swap1\n      pop\n      jump\t// out\n        /* \"#utility.yul\":11174:11727   */\n    tag_92:\n        /* \"#utility.yul\":11351:11355   */\n      0x00\n        /* \"#utility.yul\":11389:11392   */\n      0x80\n        /* \"#utility.yul\":11378:11387   */\n      dup3\n        /* \"#utility.yul\":11374:11393   */\n      add\n        /* \"#utility.yul\":11366:11393   */\n      swap1\n      pop\n        /* \"#utility.yul\":11403:11474   */\n      tag_232\n        /* \"#utility.yul\":11471:11472   */\n      0x00\n        /* \"#utility.yul\":11460:11469   */\n      dup4\n        /* \"#utility.yul\":11456:11473   */\n      add\n        /* \"#utility.yul\":11447:11453   */\n      dup8\n        /* \"#utility.yul\":11403:11474   */\n      tag_120\n      jump\t// in\n    tag_232:\n        /* \"#utility.yul\":11484:11556   */\n      tag_233\n        /* \"#utility.yul\":11552:11554   */\n      0x20\n        /* \"#utility.yul\":11541:11550   */\n      dup4\n        /* \"#utility.yul\":11537:11555   */\n      add\n        /* \"#utility.yul\":11528:11534   */\n      dup7\n        /* \"#utility.yul\":11484:11556   */\n      tag_115\n      jump\t// in\n    tag_233:\n        /* \"#utility.yul\":11566:11638   */\n      tag_234\n        /* \"#utility.yul\":11634:11636   */\n      0x40\n        /* \"#utility.yul\":11623:11632   */\n      dup4\n        /* \"#utility.yul\":11619:11637   */\n      add\n        /* \"#utility.yul\":11610:11616   */\n      dup6\n        /* \"#utility.yul\":11566:11638   */\n      tag_115\n      jump\t// in\n    tag_234:\n        /* \"#utility.yul\":11648:11720   */\n      tag_235\n        /* \"#utility.yul\":11716:11718   */\n      0x60\n        /* \"#utility.yul\":11705:11714   */\n      dup4\n        /* \"#utility.yul\":11701:11719   */\n      add\n        /* \"#utility.yul\":11692:11698   */\n      dup5\n        /* \"#utility.yul\":11648:11720   */\n      tag_120\n      jump\t// in\n    tag_235:\n        /* \"#utility.yul\":11174:11727   */\n      swap6\n      swap5\n      pop\n      pop\n      pop\n      pop\n      pop\n      jump\t// out\n        /* \"#utility.yul\":11733:11913   */\n    tag_137:\n        /* \"#utility.yul\":11781:11858   */\n      0x4e487b7100000000000000000000000000000000000000000000000000000000\n        /* \"#utility.yul\":11778:11779   */\n      0x00\n        /* \"#utility.yul\":11771:11859   */\n      mstore\n        /* \"#utility.yul\":11878:11882   */\n      0x11\n        /* \"#utility.yul\":11875:11876   */\n      0x04\n        /* \"#utility.yul\":11868:11883   */\n      mstore\n        /* \"#utility.yul\":11902:11906   */\n      0x24\n        /* \"#utility.yul\":11899:11900   */\n      0x00\n        /* \"#utility.yul\":11892:11907   */\n      revert\n        /* \"#utility.yul\":11919:12152   */\n    tag_106:\n        /* \"#utility.yul\":11958:11961   */\n      0x00\n        /* \"#utility.yul\":11981:12005   */\n      tag_238\n        /* \"#utility.yul\":11999:12004   */\n      dup3\n        /* \"#utility.yul\":11981:12005   */\n      tag_110\n      jump\t// in\n    tag_238:\n        /* \"#utility.yul\":11972:12005   */\n      swap2\n      pop\n        /* \"#utility.yul\":12027:12093   */\n      0xffffffffffffffffffffffffffffffffffffffffffffffffffffffffffffffff\n        /* \"#utility.yul\":12020:12025   */\n      dup3\n        /* \"#utility.yul\":12017:12094   */\n      sub\n        /* \"#utility.yul\":12014:12117   */\n      tag_239\n      jumpi\n        /* \"#utility.yul\":12097:12115   */\n      tag_240\n      tag_137\n      jump\t// in\n    tag_240:\n        /* \"#utility.yul\":12014:12117   */\n    tag_239:\n        /* \"#utility.yul\":12144:12145   */\n      0x01\n        /* \"#utility.yul\":12137:12142   */\n      dup3\n        /* \"#utility.yul\":12133:12146   */\n      add\n        /* \"#utility.yul\":12126:12146   */\n      swap1\n      pop\n        /* \"#utility.yul\":11919:12152   */\n      swap2\n      swap1\n      pop\n      jump\t// out\n\n    auxdata: 0xa264697066735822122074070ec1a03e91a534284adc5abdf252b02ad3cc0cfaa66e43e663c70a63221e64736f6c634300081e0033\n}\n",
				"bytecode": {
					"linkReferences": {},
					"object": "608060405234801561000f575f5ffd5b506040516114c73803806114c7833981810160405281019061003191906103fb565b6001825111610075576040517f08c379a000000000000000000000000000000000000000000000000000000000815260040161006c906104d5565b60405180910390fd5b5f81118015610085575081518111155b6100c4576040517f08c379a00000000000000000000000000000000000000000000000000000000081526004016100bb90610563565b60405180910390fd5b5f5f90505b82518110156101fe575f73ffffffffffffffffffffffffffffffffffffffff165f82815481106100fc576100fb610581565b5b905f5260205f20015f9054906101000a900473ffffffffffffffffffffffffffffffffffffffff1673ffffffffffffffffffffffffffffffffffffffff160361017a576040517f08c379a0000000000000000000000000000000000000000000000000000000008152600401610171906105f8565b60405180910390fd5b5f83828151811061018e5761018d610581565b5b6020026020010151908060018154018082558091505060019003905f5260205f20015f9091909190916101000a81548173ffffffffffffffffffffffffffffffffffffffff021916908373ffffffffffffffffffffffffffffffffffffffff1602179055508060010190506100c9565b50806001819055505050610616565b5f604051905090565b5f5ffd5b5f5ffd5b5f5ffd5b5f601f19601f8301169050919050565b7f4e487b71000000000000000000000000000000000000000000000000000000005f52604160045260245ffd5b61026882610222565b810181811067ffffffffffffffff8211171561028757610286610232565b5b80604052505050565b5f61029961020d565b90506102a5828261025f565b919050565b5f67ffffffffffffffff8211156102c4576102c3610232565b5b602082029050602081019050919050565b5f5ffd5b5f73ffffffffffffffffffffffffffffffffffffffff82169050919050565b5f610302826102d9565b9050919050565b610312816102f8565b811461031c575f5ffd5b50565b5f8151905061032d81610309565b92915050565b5f610345610340846102aa565b610290565b90508083825260208201905060208402830185811115610368576103676102d5565b5b835b81811015610391578061037d888261031f565b84526020840193505060208101905061036a565b5050509392505050565b5f82601f8301126103af576103ae61021e565b5b81516103bf848260208601610333565b91505092915050565b5f819050919050565b6103da816103c8565b81146103e4575f5ffd5b50565b5f815190506103f5816103d1565b92915050565b5f5f6040838503121561041157610410610216565b5b5f83015167ffffffffffffffff81111561042e5761042d61021a565b5b61043a8582860161039b565b925050602061044b858286016103e7565b9150509250929050565b5f82825260208201905092915050565b7f6f776e657273207265717569726564206d7573742062652067726561746572205f8201527f7468616e20310000000000000000000000000000000000000000000000000000602082015250565b5f6104bf602683610455565b91506104ca82610465565b604082019050919050565b5f6020820190508181035f8301526104ec816104b3565b9050919050565b7f6f776e6572206d7573742062652067726561746572207468616e206e756d62655f8201527f72206f6620636f6d706c6574696f6e0000000000000000000000000000000000602082015250565b5f61054d602f83610455565b9150610558826104f3565b604082019050919050565b5f6020820190508181035f83015261057a81610541565b9050919050565b7f4e487b71000000000000000000000000000000000000000000000000000000005f52603260045260245ffd5b7f496e76616c6964206f776e6572000000000000000000000000000000000000005f82015250565b5f6105e2600d83610455565b91506105ed826105ae565b602082019050919050565b5f6020820190508181035f83015261060f816105d6565b9050919050565b610ea4806106235f395ff3fe608060405260043610610054575f3560e01c8063025e7c27146100585780630c22acbd146100945780634c9c7af3146100bc5780634d2aa371146100f857806366d651db146101205780639ace38c21461013c575b5f5ffd5b348015610063575f5ffd5b5061007e60048036038101906100799190610923565b61017a565b60405161008b919061098d565b60405180910390f35b34801561009f575f5ffd5b506100ba60048036038101906100b59190610923565b6101b4565b005b3480156100c7575f5ffd5b506100e260048036038101906100dd91906109d0565b61034a565b6040516100ef9190610a28565b60405180910390f35b348015610103575f5ffd5b5061011e60048036038101906101199190610923565b610374565b005b61013a60048036038101906101359190610a41565b6105ad565b005b348015610147575f5ffd5b50610162600480360381019061015d9190610923565b610771565b60405161017193929190610a7b565b60405180910390f35b5f8181548110610188575f80fd5b905f5260205f20015f915054906101000a900473ffffffffffffffffffffffffffffffffffffffff1681565b60038054905081106101fb576040517f08c379a00000000000000000000000000000000000000000000000000000000081526004016101f290610b0a565b60405180910390fd5b60025f8281526020019081526020015f205f3373ffffffffffffffffffffffffffffffffffffffff1673ffffffffffffffffffffffffffffffffffffffff1681526020019081526020015f205f9054906101000a900460ff1615610294576040517f08c379a000000000000000000000000000000000000000000000000000000000815260040161028b90610b72565b60405180910390fd5b600160025f8381526020019081526020015f205f3373ffffffffffffffffffffffffffffffffffffffff1673ffffffffffffffffffffffffffffffffffffffff1681526020019081526020015f205f6101000a81548160ff0219169083151502179055507fd0ba147c6541b96b823f9c77b26935863e2ebe428383ba26065460bfc3818d77816040516103279190610b90565b60405180910390a1610338816107d1565b156103475761034681610374565b5b50565b6002602052815f5260405f20602052805f5260405f205f915091509054906101000a900460ff1681565b60038054905081106103bb576040517f08c379a00000000000000000000000000000000000000000000000000000000081526004016103b290610b0a565b60405180910390fd5b600381815481106103cf576103ce610ba9565b5b905f5260205f2090600302016002015f9054906101000a900460ff161561042b576040517f08c379a000000000000000000000000000000000000000000000000000000000815260040161042290610c20565b60405180910390fd5b5f600382815481106104405761043f610ba9565b5b905f5260205f2090600302015f015f9054906101000a900473ffffffffffffffffffffffffffffffffffffffff1673ffffffffffffffffffffffffffffffffffffffff166003838154811061049857610497610ba9565b5b905f5260205f209060030201600101546040516104b490610c6b565b5f6040518083038185875af1925050503d805f81146104ee576040519150601f19603f3d011682016040523d82523d5f602084013e6104f3565b606091505b5050905080610537576040517f08c379a000000000000000000000000000000000000000000000000000000000815260040161052e90610cc9565b60405180910390fd5b60016003838154811061054d5761054c610ba9565b5b905f5260205f2090600302016002015f6101000a81548160ff0219169083151502179055507f15ed165a284872ea7017f03df402a0cadfbfab588320ffaf83f160c2f82781c7826040516105a19190610b90565b60405180910390a15050565b5f73ffffffffffffffffffffffffffffffffffffffff168173ffffffffffffffffffffffffffffffffffffffff160361061b576040517f08c379a000000000000000000000000000000000000000000000000000000000815260040161061290610d31565b60405180910390fd5b5f341161065d576040517f08c379a000000000000000000000000000000000000000000000000000000000815260040161065490610d99565b60405180910390fd5b5f6003805490509050600360405180606001604052808473ffffffffffffffffffffffffffffffffffffffff1681526020013481526020015f1515815250908060018154018082558091505060019003905f5260205f2090600302015f909190919091505f820151815f015f6101000a81548173ffffffffffffffffffffffffffffffffffffffff021916908373ffffffffffffffffffffffffffffffffffffffff160217905550602082015181600101556040820151816002015f6101000a81548160ff02191690831515021790555050507fa0b16c55c058e7838d1efc958be77a49ae97714bf05fd4f5e83acfbe4c8fe5b9813384346040516107659493929190610db7565b60405180910390a15050565b60038181548110610780575f80fd5b905f5260205f2090600302015f91509050805f015f9054906101000a900473ffffffffffffffffffffffffffffffffffffffff1690806001015490806002015f9054906101000a900460ff16905083565b5f6003805490508210610819576040517f08c379a000000000000000000000000000000000000000000000000000000000815260040161081090610b0a565b60405180910390fd5b5f5f5f90505b5f805490508110156108dd5760025f8581526020019081526020015f205f5f83815481106108505761084f610ba9565b5b905f5260205f20015f9054906101000a900473ffffffffffffffffffffffffffffffffffffffff1673ffffffffffffffffffffffffffffffffffffffff1673ffffffffffffffffffffffffffffffffffffffff1681526020019081526020015f205f9054906101000a900460ff16156108d25781806108ce90610e27565b9250505b80600101905061081f565b50600154811015915050919050565b5f5ffd5b5f819050919050565b610902816108f0565b811461090c575f5ffd5b50565b5f8135905061091d816108f9565b92915050565b5f60208284031215610938576109376108ec565b5b5f6109458482850161090f565b91505092915050565b5f73ffffffffffffffffffffffffffffffffffffffff82169050919050565b5f6109778261094e565b9050919050565b6109878161096d565b82525050565b5f6020820190506109a05f83018461097e565b92915050565b6109af8161096d565b81146109b9575f5ffd5b50565b5f813590506109ca816109a6565b92915050565b5f5f604083850312156109e6576109e56108ec565b5b5f6109f38582860161090f565b9250506020610a04858286016109bc565b9150509250929050565b5f8115159050919050565b610a2281610a0e565b82525050565b5f602082019050610a3b5f830184610a19565b92915050565b5f60208284031215610a5657610a556108ec565b5b5f610a63848285016109bc565b91505092915050565b610a75816108f0565b82525050565b5f606082019050610a8e5f83018661097e565b610a9b6020830185610a6c565b610aa86040830184610a19565b949350505050565b5f82825260208201905092915050565b7f496e76616c6964207472616e73616374696f6e000000000000000000000000005f82015250565b5f610af4601383610ab0565b9150610aff82610ac0565b602082019050919050565b5f6020820190508181035f830152610b2181610ae8565b9050919050565b7f416c726561647920636f6e6669726d65640000000000000000000000000000005f82015250565b5f610b5c601183610ab0565b9150610b6782610b28565b602082019050919050565b5f6020820190508181035f830152610b8981610b50565b9050919050565b5f602082019050610ba35f830184610a6c565b92915050565b7f4e487b71000000000000000000000000000000000000000000000000000000005f52603260045260245ffd5b7f416c7265616479206578656375746572640000000000000000000000000000005f82015250565b5f610c0a601183610ab0565b9150610c1582610bd6565b602082019050919050565b5f6020820190508181035f830152610c3781610bfe565b9050919050565b5f81905092915050565b50565b5f610c565f83610c3e565b9150610c6182610c48565b5f82019050919050565b5f610c7582610c4b565b9150819050919050565b7f5472616e73616374696f6e20657865637574696f6e206661696c6564000000005f82015250565b5f610cb3601c83610ab0565b9150610cbe82610c7f565b602082019050919050565b5f6020820190508181035f830152610ce081610ca7565b9050919050565b7f496e76616c6964207265636569766572000000000000000000000000000000005f82015250565b5f610d1b601083610ab0565b9150610d2682610ce7565b602082019050919050565b5f6020820190508181035f830152610d4881610d0f565b9050919050565b7f496e7375666669656369656e6e742062616c616e6365000000000000000000005f82015250565b5f610d83601683610ab0565b9150610d8e82610d4f565b602082019050919050565b5f6020820190508181035f830152610db081610d77565b9050919050565b5f608082019050610dca5f830187610a6c565b610dd7602083018661097e565b610de4604083018561097e565b610df16060830184610a6c565b95945050505050565b7f4e487b71000000000000000000000000000000000000000000000000000000005f52601160045260245ffd5b5f610e31826108f0565b91507fffffffffffffffffffffffffffffffffffffffffffffffffffffffffffffffff8203610e6357610e62610dfa565b5b60018201905091905056fea264697066735822122074070ec1a03e91a534284adc5abdf252b02ad3cc0cfaa66e43e663c70a63221e64736f6c634300081e0033",
					"opcodes": "PUSH1 0x80 PUSH1 0x40 MSTORE CALLVALUE DUP1 ISZERO PUSH2 0xF JUMPI PUSH0 PUSH0 REVERT JUMPDEST POP PUSH1 0x40 MLOAD PUSH2 0x14C7 CODESIZE SUB DUP1 PUSH2 0x14C7 DUP4 CODECOPY DUP2 DUP2 ADD PUSH1 0x40 MSTORE DUP2 ADD SWAP1 PUSH2 0x31 SWAP2 SWAP1 PUSH2 0x3FB JUMP JUMPDEST PUSH1 0x1 DUP3 MLOAD GT PUSH2 0x75 JUMPI PUSH1 0x40 MLOAD PUSH32 0x8C379A000000000000000000000000000000000000000000000000000000000 DUP2 MSTORE PUSH1 0x4 ADD PUSH2 0x6C SWAP1 PUSH2 0x4D5 JUMP JUMPDEST PUSH1 0x40 MLOAD DUP1 SWAP2 SUB SWAP1 REVERT JUMPDEST PUSH0 DUP2 GT DUP1 ISZERO PUSH2 0x85 JUMPI POP DUP2 MLOAD DUP2 GT ISZERO JUMPDEST PUSH2 0xC4 JUMPI PUSH1 0x40 MLOAD PUSH32 0x8C379A000000000000000000000000000000000000000000000000000000000 DUP2 MSTORE PUSH1 0x4 ADD PUSH2 0xBB SWAP1 PUSH2 0x563 JUMP JUMPDEST PUSH1 0x40 MLOAD DUP1 SWAP2 SUB SWAP1 REVERT JUMPDEST PUSH0 PUSH0 SWAP1 POP JUMPDEST DUP3 MLOAD DUP2 LT ISZERO PUSH2 0x1FE JUMPI PUSH0 PUSH20 0xFFFFFFFFFFFFFFFFFFFFFFFFFFFFFFFFFFFFFFFF AND PUSH0 DUP3 DUP2 SLOAD DUP2 LT PUSH2 0xFC JUMPI PUSH2 0xFB PUSH2 0x581 JUMP JUMPDEST JUMPDEST SWAP1 PUSH0 MSTORE PUSH1 0x20 PUSH0 KECCAK256 ADD PUSH0 SWAP1 SLOAD SWAP1 PUSH2 0x100 EXP SWAP1 DIV PUSH20 0xFFFFFFFFFFFFFFFFFFFFFFFFFFFFFFFFFFFFFFFF AND PUSH20 0xFFFFFFFFFFFFFFFFFFFFFFFFFFFFFFFFFFFFFFFF AND SUB PUSH2 0x17A JUMPI PUSH1 0x40 MLOAD PUSH32 0x8C379A000000000000000000000000000000000000000000000000000000000 DUP2 MSTORE PUSH1 0x4 ADD PUSH2 0x171 SWAP1 PUSH2 0x5F8 JUMP JUMPDEST PUSH1 0x40 MLOAD DUP1 SWAP2 SUB SWAP1 REVERT JUMPDEST PUSH0 DUP4 DUP3 DUP2 MLOAD DUP2 LT PUSH2 0x18E JUMPI PUSH2 0x18D PUSH2 0x581 JUMP JUMPDEST JUMPDEST PUSH1 0x20 MUL PUSH1 0x20 ADD ADD MLOAD SWAP1 DUP1 PUSH1 0x1 DUP2 SLOAD ADD DUP1 DUP3 SSTORE DUP1 SWAP2 POP POP PUSH1 0x1 SWAP1 SUB SWAP1 PUSH0 MSTORE PUSH1 0x20 PUSH0 KECCAK256 ADD PUSH0 SWAP1 SWAP2 SWAP1 SWAP2 SWAP1 SWAP2 PUSH2 0x100 EXP DUP2 SLOAD DUP2 PUSH20 0xFFFFFFFFFFFFFFFFFFFFFFFFFFFFFFFFFFFFFFFF MUL NOT AND SWAP1 DUP4 PUSH20 0xFFFFFFFFFFFFFFFFFFFFFFFFFFFFFFFFFFFFFFFF AND MUL OR SWAP1 SSTORE POP DUP1 PUSH1 0x1 ADD SWAP1 POP PUSH2 0xC9 JUMP JUMPDEST POP DUP1 PUSH1 0x1 DUP2 SWAP1 SSTORE POP POP POP PUSH2 0x616 JUMP JUMPDEST PUSH0 PUSH1 0x40 MLOAD SWAP1 POP SWAP1 JUMP JUMPDEST PUSH0 PUSH0 REVERT JUMPDEST PUSH0 PUSH0 REVERT JUMPDEST PUSH0 PUSH0 REVERT JUMPDEST PUSH0 PUSH1 0x1F NOT PUSH1 0x1F DUP4 ADD AND SWAP1 POP SWAP2 SWAP1 POP JUMP JUMPDEST PUSH32 0x4E487B7100000000000000000000000000000000000000000000000000000000 PUSH0 MSTORE PUSH1 0x41 PUSH1 0x4 MSTORE PUSH1 0x24 PUSH0 REVERT JUMPDEST PUSH2 0x268 DUP3 PUSH2 0x222 JUMP JUMPDEST DUP2 ADD DUP2 DUP2 LT PUSH8 0xFFFFFFFFFFFFFFFF DUP3 GT OR ISZERO PUSH2 0x287 JUMPI PUSH2 0x286 PUSH2 0x232 JUMP JUMPDEST JUMPDEST DUP1 PUSH1 0x40 MSTORE POP POP POP JUMP JUMPDEST PUSH0 PUSH2 0x299 PUSH2 0x20D JUMP JUMPDEST SWAP1 POP PUSH2 0x2A5 DUP3 DUP3 PUSH2 0x25F JUMP JUMPDEST SWAP2 SWAP1 POP JUMP JUMPDEST PUSH0 PUSH8 0xFFFFFFFFFFFFFFFF DUP3 GT ISZERO PUSH2 0x2C4 JUMPI PUSH2 0x2C3 PUSH2 0x232 JUMP JUMPDEST JUMPDEST PUSH1 0x20 DUP3 MUL SWAP1 POP PUSH1 0x20 DUP2 ADD SWAP1 POP SWAP2 SWAP1 POP JUMP JUMPDEST PUSH0 PUSH0 REVERT JUMPDEST PUSH0 PUSH20 0xFFFFFFFFFFFFFFFFFFFFFFFFFFFFFFFFFFFFFFFF DUP3 AND SWAP1 POP SWAP2 SWAP1 POP JUMP JUMPDEST PUSH0 PUSH2 0x302 DUP3 PUSH2 0x2D9 JUMP JUMPDEST SWAP1 POP SWAP2 SWAP1 POP JUMP JUMPDEST PUSH2 0x312 DUP2 PUSH2 0x2F8 JUMP JUMPDEST DUP2 EQ PUSH2 0x31C JUMPI PUSH0 PUSH0 REVERT JUMPDEST POP JUMP JUMPDEST PUSH0 DUP2 MLOAD SWAP1 POP PUSH2 0x32D DUP2 PUSH2 0x309 JUMP JUMPDEST SWAP3 SWAP2 POP POP JUMP JUMPDEST PUSH0 PUSH2 0x345 PUSH2 0x340 DUP5 PUSH2 0x2AA JUMP JUMPDEST PUSH2 0x290 JUMP JUMPDEST SWAP1 POP DUP1 DUP4 DUP3 MSTORE PUSH1 0x20 DUP3 ADD SWAP1 POP PUSH1 0x20 DUP5 MUL DUP4 ADD DUP6 DUP2 GT ISZERO PUSH2 0x368 JUMPI PUSH2 0x367 PUSH2 0x2D5 JUMP JUMPDEST JUMPDEST DUP4 JUMPDEST DUP2 DUP2 LT ISZERO PUSH2 0x391 JUMPI DUP1 PUSH2 0x37D DUP9 DUP3 PUSH2 0x31F JUMP JUMPDEST DUP5 MSTORE PUSH1 0x20 DUP5 ADD SWAP4 POP POP PUSH1 0x20 DUP2 ADD SWAP1 POP PUSH2 0x36A JUMP JUMPDEST POP POP POP SWAP4 SWAP3 POP POP POP JUMP JUMPDEST PUSH0 DUP3 PUSH1 0x1F DUP4 ADD SLT PUSH2 0x3AF JUMPI PUSH2 0x3AE PUSH2 0x21E JUMP JUMPDEST JUMPDEST DUP2 MLOAD PUSH2 0x3BF DUP5 DUP3 PUSH1 0x20 DUP7 ADD PUSH2 0x333 JUMP JUMPDEST SWAP2 POP POP SWAP3 SWAP2 POP POP JUMP JUMPDEST PUSH0 DUP2 SWAP1 POP SWAP2 SWAP1 POP JUMP JUMPDEST PUSH2 0x3DA DUP2 PUSH2 0x3C8 JUMP JUMPDEST DUP2 EQ PUSH2 0x3E4 JUMPI PUSH0 PUSH0 REVERT JUMPDEST POP JUMP JUMPDEST PUSH0 DUP2 MLOAD SWAP1 POP PUSH2 0x3F5 DUP2 PUSH2 0x3D1 JUMP JUMPDEST SWAP3 SWAP2 POP POP JUMP JUMPDEST PUSH0 PUSH0 PUSH1 0x40 DUP4 DUP6 SUB SLT ISZERO PUSH2 0x411 JUMPI PUSH2 0x410 PUSH2 0x216 JUMP JUMPDEST JUMPDEST PUSH0 DUP4 ADD MLOAD PUSH8 0xFFFFFFFFFFFFFFFF DUP2 GT ISZERO PUSH2 0x42E JUMPI PUSH2 0x42D PUSH2 0x21A JUMP JUMPDEST JUMPDEST PUSH2 0x43A DUP6 DUP3 DUP7 ADD PUSH2 0x39B JUMP JUMPDEST SWAP3 POP POP PUSH1 0x20 PUSH2 0x44B DUP6 DUP3 DUP7 ADD PUSH2 0x3E7 JUMP JUMPDEST SWAP2 POP POP SWAP3 POP SWAP3 SWAP1 POP JUMP JUMPDEST PUSH0 DUP3 DUP3 MSTORE PUSH1 0x20 DUP3 ADD SWAP1 POP SWAP3 SWAP2 POP POP JUMP JUMPDEST PUSH32 0x6F776E657273207265717569726564206D757374206265206772656174657220 PUSH0 DUP3 ADD MSTORE PUSH32 0x7468616E20310000000000000000000000000000000000000000000000000000 PUSH1 0x20 DUP3 ADD MSTORE POP JUMP JUMPDEST PUSH0 PUSH2 0x4BF PUSH1 0x26 DUP4 PUSH2 0x455 JUMP JUMPDEST SWAP2 POP PUSH2 0x4CA DUP3 PUSH2 0x465 JUMP JUMPDEST PUSH1 0x40 DUP3 ADD SWAP1 POP SWAP2 SWAP1 POP JUMP JUMPDEST PUSH0 PUSH1 0x20 DUP3 ADD SWAP1 POP DUP2 DUP2 SUB PUSH0 DUP4 ADD MSTORE PUSH2 0x4EC DUP2 PUSH2 0x4B3 JUMP JUMPDEST SWAP1 POP SWAP2 SWAP1 POP JUMP JUMPDEST PUSH32 0x6F776E6572206D7573742062652067726561746572207468616E206E756D6265 PUSH0 DUP3 ADD MSTORE PUSH32 0x72206F6620636F6D706C6574696F6E0000000000000000000000000000000000 PUSH1 0x20 DUP3 ADD MSTORE POP JUMP JUMPDEST PUSH0 PUSH2 0x54D PUSH1 0x2F DUP4 PUSH2 0x455 JUMP JUMPDEST SWAP2 POP PUSH2 0x558 DUP3 PUSH2 0x4F3 JUMP JUMPDEST PUSH1 0x40 DUP3 ADD SWAP1 POP SWAP2 SWAP1 POP JUMP JUMPDEST PUSH0 PUSH1 0x20 DUP3 ADD SWAP1 POP DUP2 DUP2 SUB PUSH0 DUP4 ADD MSTORE PUSH2 0x57A DUP2 PUSH2 0x541 JUMP JUMPDEST SWAP1 POP SWAP2 SWAP1 POP JUMP JUMPDEST PUSH32 0x4E487B7100000000000000000000000000000000000000000000000000000000 PUSH0 MSTORE PUSH1 0x32 PUSH1 0x4 MSTORE PUSH1 0x24 PUSH0 REVERT JUMPDEST PUSH32 0x496E76616C6964206F776E657200000000000000000000000000000000000000 PUSH0 DUP3 ADD MSTORE POP JUMP JUMPDEST PUSH0 PUSH2 0x5E2 PUSH1 0xD DUP4 PUSH2 0x455 JUMP JUMPDEST SWAP2 POP PUSH2 0x5ED DUP3 PUSH2 0x5AE JUMP JUMPDEST PUSH1 0x20 DUP3 ADD SWAP1 POP SWAP2 SWAP1 POP JUMP JUMPDEST PUSH0 PUSH1 0x20 DUP3 ADD SWAP1 POP DUP2 DUP2 SUB PUSH0 DUP4 ADD MSTORE PUSH2 0x60F DUP2 PUSH2 0x5D6 JUMP JUMPDEST SWAP1 POP SWAP2 SWAP1 POP JUMP JUMPDEST PUSH2 0xEA4 DUP1 PUSH2 0x623 PUSH0 CODECOPY PUSH0 RETURN INVALID PUSH1 0x80 PUSH1 0x40 MSTORE PUSH1 0x4 CALLDATASIZE LT PUSH2 0x54 JUMPI PUSH0 CALLDATALOAD PUSH1 0xE0 SHR DUP1 PUSH4 0x25E7C27 EQ PUSH2 0x58 JUMPI DUP1 PUSH4 0xC22ACBD EQ PUSH2 0x94 JUMPI DUP1 PUSH4 0x4C9C7AF3 EQ PUSH2 0xBC JUMPI DUP1 PUSH4 0x4D2AA371 EQ PUSH2 0xF8 JUMPI DUP1 PUSH4 0x66D651DB EQ PUSH2 0x120 JUMPI DUP1 PUSH4 0x9ACE38C2 EQ PUSH2 0x13C JUMPI JUMPDEST PUSH0 PUSH0 REVERT JUMPDEST CALLVALUE DUP1 ISZERO PUSH2 0x63 JUMPI PUSH0 PUSH0 REVERT JUMPDEST POP PUSH2 0x7E PUSH1 0x4 DUP1 CALLDATASIZE SUB DUP2 ADD SWAP1 PUSH2 0x79 SWAP2 SWAP1 PUSH2 0x923 JUMP JUMPDEST PUSH2 0x17A JUMP JUMPDEST PUSH1 0x40 MLOAD PUSH2 0x8B SWAP2 SWAP1 PUSH2 0x98D JUMP JUMPDEST PUSH1 0x40 MLOAD DUP1 SWAP2 SUB SWAP1 RETURN JUMPDEST CALLVALUE DUP1 ISZERO PUSH2 0x9F JUMPI PUSH0 PUSH0 REVERT JUMPDEST POP PUSH2 0xBA PUSH1 0x4 DUP1 CALLDATASIZE SUB DUP2 ADD SWAP1 PUSH2 0xB5 SWAP2 SWAP1 PUSH2 0x923 JUMP JUMPDEST PUSH2 0x1B4 JUMP JUMPDEST STOP JUMPDEST CALLVALUE DUP1 ISZERO PUSH2 0xC7 JUMPI PUSH0 PUSH0 REVERT JUMPDEST POP PUSH2 0xE2 PUSH1 0x4 DUP1 CALLDATASIZE SUB DUP2 ADD SWAP1 PUSH2 0xDD SWAP2 SWAP1 PUSH2 0x9D0 JUMP JUMPDEST PUSH2 0x34A JUMP JUMPDEST PUSH1 0x40 MLOAD PUSH2 0xEF SWAP2 SWAP1 PUSH2 0xA28 JUMP JUMPDEST PUSH1 0x40 MLOAD DUP1 SWAP2 SUB SWAP1 RETURN JUMPDEST CALLVALUE DUP1 ISZERO PUSH2 0x103 JUMPI PUSH0 PUSH0 REVERT JUMPDEST POP PUSH2 0x11E PUSH1 0x4 DUP1 CALLDATASIZE SUB DUP2 ADD SWAP1 PUSH2 0x119 SWAP2 SWAP1 PUSH2 0x923 JUMP JUMPDEST PUSH2 0x374 JUMP JUMPDEST STOP JUMPDEST PUSH2 0x13A PUSH1 0x4 DUP1 CALLDATASIZE SUB DUP2 ADD SWAP1 PUSH2 0x135 SWAP2 SWAP1 PUSH2 0xA41 JUMP JUMPDEST PUSH2 0x5AD JUMP JUMPDEST STOP JUMPDEST CALLVALUE DUP1 ISZERO PUSH2 0x147 JUMPI PUSH0 PUSH0 REVERT JUMPDEST POP PUSH2 0x162 PUSH1 0x4 DUP1 CALLDATASIZE SUB DUP2 ADD SWAP1 PUSH2 0x15D SWAP2 SWAP1 PUSH2 0x923 JUMP JUMPDEST PUSH2 0x771 JUMP JUMPDEST PUSH1 0x40 MLOAD PUSH2 0x171 SWAP4 SWAP3 SWAP2 SWAP1 PUSH2 0xA7B JUMP JUMPDEST PUSH1 0x40 MLOAD DUP1 SWAP2 SUB SWAP1 RETURN JUMPDEST PUSH0 DUP2 DUP2 SLOAD DUP2 LT PUSH2 0x188 JUMPI PUSH0 DUP1 REVERT JUMPDEST SWAP1 PUSH0 MSTORE PUSH1 0x20 PUSH0 KECCAK256 ADD PUSH0 SWAP2 POP SLOAD SWAP1 PUSH2 0x100 EXP SWAP1 DIV PUSH20 0xFFFFFFFFFFFFFFFFFFFFFFFFFFFFFFFFFFFFFFFF AND DUP2 JUMP JUMPDEST PUSH1 0x3 DUP1 SLOAD SWAP1 POP DUP2 LT PUSH2 0x1FB JUMPI PUSH1 0x40 MLOAD PUSH32 0x8C379A000000000000000000000000000000000000000000000000000000000 DUP2 MSTORE PUSH1 0x4 ADD PUSH2 0x1F2 SWAP1 PUSH2 0xB0A JUMP JUMPDEST PUSH1 0x40 MLOAD DUP1 SWAP2 SUB SWAP1 REVERT JUMPDEST PUSH1 0x2 PUSH0 DUP3 DUP2 MSTORE PUSH1 0x20 ADD SWAP1 DUP2 MSTORE PUSH1 0x20 ADD PUSH0 KECCAK256 PUSH0 CALLER PUSH20 0xFFFFFFFFFFFFFFFFFFFFFFFFFFFFFFFFFFFFFFFF AND PUSH20 0xFFFFFFFFFFFFFFFFFFFFFFFFFFFFFFFFFFFFFFFF AND DUP2 MSTORE PUSH1 0x20 ADD SWAP1 DUP2 MSTORE PUSH1 0x20 ADD PUSH0 KECCAK256 PUSH0 SWAP1 SLOAD SWAP1 PUSH2 0x100 EXP SWAP1 DIV PUSH1 0xFF AND ISZERO PUSH2 0x294 JUMPI PUSH1 0x40 MLOAD PUSH32 0x8C379A000000000000000000000000000000000000000000000000000000000 DUP2 MSTORE PUSH1 0x4 ADD PUSH2 0x28B SWAP1 PUSH2 0xB72 JUMP JUMPDEST PUSH1 0x40 MLOAD DUP1 SWAP2 SUB SWAP1 REVERT JUMPDEST PUSH1 0x1 PUSH1 0x2 PUSH0 DUP4 DUP2 MSTORE PUSH1 0x20 ADD SWAP1 DUP2 MSTORE PUSH1 0x20 ADD PUSH0 KECCAK256 PUSH0 CALLER PUSH20 0xFFFFFFFFFFFFFFFFFFFFFFFFFFFFFFFFFFFFFFFF AND PUSH20 0xFFFFFFFFFFFFFFFFFFFFFFFFFFFFFFFFFFFFFFFF AND DUP2 MSTORE PUSH1 0x20 ADD SWAP1 DUP2 MSTORE PUSH1 0x20 ADD PUSH0 KECCAK256 PUSH0 PUSH2 0x100 EXP DUP2 SLOAD DUP2 PUSH1 0xFF MUL NOT AND SWAP1 DUP4 ISZERO ISZERO MUL OR SWAP1 SSTORE POP PUSH32 0xD0BA147C6541B96B823F9C77B26935863E2EBE428383BA26065460BFC3818D77 DUP2 PUSH1 0x40 MLOAD PUSH2 0x327 SWAP2 SWAP1 PUSH2 0xB90 JUMP JUMPDEST PUSH1 0x40 MLOAD DUP1 SWAP2 SUB SWAP1 LOG1 PUSH2 0x338 DUP2 PUSH2 0x7D1 JUMP JUMPDEST ISZERO PUSH2 0x347 JUMPI PUSH2 0x346 DUP2 PUSH2 0x374 JUMP JUMPDEST JUMPDEST POP JUMP JUMPDEST PUSH1 0x2 PUSH1 0x20 MSTORE DUP2 PUSH0 MSTORE PUSH1 0x40 PUSH0 KECCAK256 PUSH1 0x20 MSTORE DUP1 PUSH0 MSTORE PUSH1 0x40 PUSH0 KECCAK256 PUSH0 SWAP2 POP SWAP2 POP SWAP1 SLOAD SWAP1 PUSH2 0x100 EXP SWAP1 DIV PUSH1 0xFF AND DUP2 JUMP JUMPDEST PUSH1 0x3 DUP1 SLOAD SWAP1 POP DUP2 LT PUSH2 0x3BB JUMPI PUSH1 0x40 MLOAD PUSH32 0x8C379A000000000000000000000000000000000000000000000000000000000 DUP2 MSTORE PUSH1 0x4 ADD PUSH2 0x3B2 SWAP1 PUSH2 0xB0A JUMP JUMPDEST PUSH1 0x40 MLOAD DUP1 SWAP2 SUB SWAP1 REVERT JUMPDEST PUSH1 0x3 DUP2 DUP2 SLOAD DUP2 LT PUSH2 0x3CF JUMPI PUSH2 0x3CE PUSH2 0xBA9 JUMP JUMPDEST JUMPDEST SWAP1 PUSH0 MSTORE PUSH1 0x20 PUSH0 KECCAK256 SWAP1 PUSH1 0x3 MUL ADD PUSH1 0x2 ADD PUSH0 SWAP1 SLOAD SWAP1 PUSH2 0x100 EXP SWAP1 DIV PUSH1 0xFF AND ISZERO PUSH2 0x42B JUMPI PUSH1 0x40 MLOAD PUSH32 0x8C379A000000000000000000000000000000000000000000000000000000000 DUP2 MSTORE PUSH1 0x4 ADD PUSH2 0x422 SWAP1 PUSH2 0xC20 JUMP JUMPDEST PUSH1 0x40 MLOAD DUP1 SWAP2 SUB SWAP1 REVERT JUMPDEST PUSH0 PUSH1 0x3 DUP3 DUP2 SLOAD DUP2 LT PUSH2 0x440 JUMPI PUSH2 0x43F PUSH2 0xBA9 JUMP JUMPDEST JUMPDEST SWAP1 PUSH0 MSTORE PUSH1 0x20 PUSH0 KECCAK256 SWAP1 PUSH1 0x3 MUL ADD PUSH0 ADD PUSH0 SWAP1 SLOAD SWAP1 PUSH2 0x100 EXP SWAP1 DIV PUSH20 0xFFFFFFFFFFFFFFFFFFFFFFFFFFFFFFFFFFFFFFFF AND PUSH20 0xFFFFFFFFFFFFFFFFFFFFFFFFFFFFFFFFFFFFFFFF AND PUSH1 0x3 DUP4 DUP2 SLOAD DUP2 LT PUSH2 0x498 JUMPI PUSH2 0x497 PUSH2 0xBA9 JUMP JUMPDEST JUMPDEST SWAP1 PUSH0 MSTORE PUSH1 0x20 PUSH0 KECCAK256 SWAP1 PUSH1 0x3 MUL ADD PUSH1 0x1 ADD SLOAD PUSH1 0x40 MLOAD PUSH2 0x4B4 SWAP1 PUSH2 0xC6B JUMP JUMPDEST PUSH0 PUSH1 0x40 MLOAD DUP1 DUP4 SUB DUP2 DUP6 DUP8 GAS CALL SWAP3 POP POP POP RETURNDATASIZE DUP1 PUSH0 DUP2 EQ PUSH2 0x4EE JUMPI PUSH1 0x40 MLOAD SWAP2 POP PUSH1 0x1F NOT PUSH1 0x3F RETURNDATASIZE ADD AND DUP3 ADD PUSH1 0x40 MSTORE RETURNDATASIZE DUP3 MSTORE RETURNDATASIZE PUSH0 PUSH1 0x20 DUP5 ADD RETURNDATACOPY PUSH2 0x4F3 JUMP JUMPDEST PUSH1 0x60 SWAP2 POP JUMPDEST POP POP SWAP1 POP DUP1 PUSH2 0x537 JUMPI PUSH1 0x40 MLOAD PUSH32 0x8C379A000000000000000000000000000000000000000000000000000000000 DUP2 MSTORE PUSH1 0x4 ADD PUSH2 0x52E SWAP1 PUSH2 0xCC9 JUMP JUMPDEST PUSH1 0x40 MLOAD DUP1 SWAP2 SUB SWAP1 REVERT JUMPDEST PUSH1 0x1 PUSH1 0x3 DUP4 DUP2 SLOAD DUP2 LT PUSH2 0x54D JUMPI PUSH2 0x54C PUSH2 0xBA9 JUMP JUMPDEST JUMPDEST SWAP1 PUSH0 MSTORE PUSH1 0x20 PUSH0 KECCAK256 SWAP1 PUSH1 0x3 MUL ADD PUSH1 0x2 ADD PUSH0 PUSH2 0x100 EXP DUP2 SLOAD DUP2 PUSH1 0xFF MUL NOT AND SWAP1 DUP4 ISZERO ISZERO MUL OR SWAP1 SSTORE POP PUSH32 0x15ED165A284872EA7017F03DF402A0CADFBFAB588320FFAF83F160C2F82781C7 DUP3 PUSH1 0x40 MLOAD PUSH2 0x5A1 SWAP2 SWAP1 PUSH2 0xB90 JUMP JUMPDEST PUSH1 0x40 MLOAD DUP1 SWAP2 SUB SWAP1 LOG1 POP POP JUMP JUMPDEST PUSH0 PUSH20 0xFFFFFFFFFFFFFFFFFFFFFFFFFFFFFFFFFFFFFFFF AND DUP2 PUSH20 0xFFFFFFFFFFFFFFFFFFFFFFFFFFFFFFFFFFFFFFFF AND SUB PUSH2 0x61B JUMPI PUSH1 0x40 MLOAD PUSH32 0x8C379A000000000000000000000000000000000000000000000000000000000 DUP2 MSTORE PUSH1 0x4 ADD PUSH2 0x612 SWAP1 PUSH2 0xD31 JUMP JUMPDEST PUSH1 0x40 MLOAD DUP1 SWAP2 SUB SWAP1 REVERT JUMPDEST PUSH0 CALLVALUE GT PUSH2 0x65D JUMPI PUSH1 0x40 MLOAD PUSH32 0x8C379A000000000000000000000000000000000000000000000000000000000 DUP2 MSTORE PUSH1 0x4 ADD PUSH2 0x654 SWAP1 PUSH2 0xD99 JUMP JUMPDEST PUSH1 0x40 MLOAD DUP1 SWAP2 SUB SWAP1 REVERT JUMPDEST PUSH0 PUSH1 0x3 DUP1 SLOAD SWAP1 POP SWAP1 POP PUSH1 0x3 PUSH1 0x40 MLOAD DUP1 PUSH1 0x60 ADD PUSH1 0x40 MSTORE DUP1 DUP5 PUSH20 0xFFFFFFFFFFFFFFFFFFFFFFFFFFFFFFFFFFFFFFFF AND DUP2 MSTORE PUSH1 0x20 ADD CALLVALUE DUP2 MSTORE PUSH1 0x20 ADD PUSH0 ISZERO ISZERO DUP2 MSTORE POP SWAP1 DUP1 PUSH1 0x1 DUP2 SLOAD ADD DUP1 DUP3 SSTORE DUP1 SWAP2 POP POP PUSH1 0x1 SWAP1 SUB SWAP1 PUSH0 MSTORE PUSH1 0x20 PUSH0 KECCAK256 SWAP1 PUSH1 0x3 MUL ADD PUSH0 SWAP1 SWAP2 SWAP1 SWAP2 SWAP1 SWAP2 POP PUSH0 DUP3 ADD MLOAD DUP2 PUSH0 ADD PUSH0 PUSH2 0x100 EXP DUP2 SLOAD DUP2 PUSH20 0xFFFFFFFFFFFFFFFFFFFFFFFFFFFFFFFFFFFFFFFF MUL NOT AND SWAP1 DUP4 PUSH20 0xFFFFFFFFFFFFFFFFFFFFFFFFFFFFFFFFFFFFFFFF AND MUL OR SWAP1 SSTORE POP PUSH1 0x20 DUP3 ADD MLOAD DUP2 PUSH1 0x1 ADD SSTORE PUSH1 0x40 DUP3 ADD MLOAD DUP2 PUSH1 0x2 ADD PUSH0 PUSH2 0x100 EXP DUP2 SLOAD DUP2 PUSH1 0xFF MUL NOT AND SWAP1 DUP4 ISZERO ISZERO MUL OR SWAP1 SSTORE POP POP POP PUSH32 0xA0B16C55C058E7838D1EFC958BE77A49AE97714BF05FD4F5E83ACFBE4C8FE5B9 DUP2 CALLER DUP5 CALLVALUE PUSH1 0x40 MLOAD PUSH2 0x765 SWAP5 SWAP4 SWAP3 SWAP2 SWAP1 PUSH2 0xDB7 JUMP JUMPDEST PUSH1 0x40 MLOAD DUP1 SWAP2 SUB SWAP1 LOG1 POP POP JUMP JUMPDEST PUSH1 0x3 DUP2 DUP2 SLOAD DUP2 LT PUSH2 0x780 JUMPI PUSH0 DUP1 REVERT JUMPDEST SWAP1 PUSH0 MSTORE PUSH1 0x20 PUSH0 KECCAK256 SWAP1 PUSH1 0x3 MUL ADD PUSH0 SWAP2 POP SWAP1 POP DUP1 PUSH0 ADD PUSH0 SWAP1 SLOAD SWAP1 PUSH2 0x100 EXP SWAP1 DIV PUSH20 0xFFFFFFFFFFFFFFFFFFFFFFFFFFFFFFFFFFFFFFFF AND SWAP1 DUP1 PUSH1 0x1 ADD SLOAD SWAP1 DUP1 PUSH1 0x2 ADD PUSH0 SWAP1 SLOAD SWAP1 PUSH2 0x100 EXP SWAP1 DIV PUSH1 0xFF AND SWAP1 POP DUP4 JUMP JUMPDEST PUSH0 PUSH1 0x3 DUP1 SLOAD SWAP1 POP DUP3 LT PUSH2 0x819 JUMPI PUSH1 0x40 MLOAD PUSH32 0x8C379A000000000000000000000000000000000000000000000000000000000 DUP2 MSTORE PUSH1 0x4 ADD PUSH2 0x810 SWAP1 PUSH2 0xB0A JUMP JUMPDEST PUSH1 0x40 MLOAD DUP1 SWAP2 SUB SWAP1 REVERT JUMPDEST PUSH0 PUSH0 PUSH0 SWAP1 POP JUMPDEST PUSH0 DUP1 SLOAD SWAP1 POP DUP2 LT ISZERO PUSH2 0x8DD JUMPI PUSH1 0x2 PUSH0 DUP6 DUP2 MSTORE PUSH1 0x20 ADD SWAP1 DUP2 MSTORE PUSH1 0x20 ADD PUSH0 KECCAK256 PUSH0 PUSH0 DUP4 DUP2 SLOAD DUP2 LT PUSH2 0x850 JUMPI PUSH2 0x84F PUSH2 0xBA9 JUMP JUMPDEST JUMPDEST SWAP1 PUSH0 MSTORE PUSH1 0x20 PUSH0 KECCAK256 ADD PUSH0 SWAP1 SLOAD SWAP1 PUSH2 0x100 EXP SWAP1 DIV PUSH20 0xFFFFFFFFFFFFFFFFFFFFFFFFFFFFFFFFFFFFFFFF AND PUSH20 0xFFFFFFFFFFFFFFFFFFFFFFFFFFFFFFFFFFFFFFFF AND PUSH20 0xFFFFFFFFFFFFFFFFFFFFFFFFFFFFFFFFFFFFFFFF AND DUP2 MSTORE PUSH1 0x20 ADD SWAP1 DUP2 MSTORE PUSH1 0x20 ADD PUSH0 KECCAK256 PUSH0 SWAP1 SLOAD SWAP1 PUSH2 0x100 EXP SWAP1 DIV PUSH1 0xFF AND ISZERO PUSH2 0x8D2 JUMPI DUP2 DUP1 PUSH2 0x8CE SWAP1 PUSH2 0xE27 JUMP JUMPDEST SWAP3 POP POP JUMPDEST DUP1 PUSH1 0x1 ADD SWAP1 POP PUSH2 0x81F JUMP JUMPDEST POP PUSH1 0x1 SLOAD DUP2 LT ISZERO SWAP2 POP POP SWAP2 SWAP1 POP JUMP JUMPDEST PUSH0 PUSH0 REVERT JUMPDEST PUSH0 DUP2 SWAP1 POP SWAP2 SWAP1 POP JUMP JUMPDEST PUSH2 0x902 DUP2 PUSH2 0x8F0 JUMP JUMPDEST DUP2 EQ PUSH2 0x90C JUMPI PUSH0 PUSH0 REVERT JUMPDEST POP JUMP JUMPDEST PUSH0 DUP2 CALLDATALOAD SWAP1 POP PUSH2 0x91D DUP2 PUSH2 0x8F9 JUMP JUMPDEST SWAP3 SWAP2 POP POP JUMP JUMPDEST PUSH0 PUSH1 0x20 DUP3 DUP5 SUB SLT ISZERO PUSH2 0x938 JUMPI PUSH2 0x937 PUSH2 0x8EC JUMP JUMPDEST JUMPDEST PUSH0 PUSH2 0x945 DUP5 DUP3 DUP6 ADD PUSH2 0x90F JUMP JUMPDEST SWAP2 POP POP SWAP3 SWAP2 POP POP JUMP JUMPDEST PUSH0 PUSH20 0xFFFFFFFFFFFFFFFFFFFFFFFFFFFFFFFFFFFFFFFF DUP3 AND SWAP1 POP SWAP2 SWAP1 POP JUMP JUMPDEST PUSH0 PUSH2 0x977 DUP3 PUSH2 0x94E JUMP JUMPDEST SWAP1 POP SWAP2 SWAP1 POP JUMP JUMPDEST PUSH2 0x987 DUP2 PUSH2 0x96D JUMP JUMPDEST DUP3 MSTORE POP POP JUMP JUMPDEST PUSH0 PUSH1 0x20 DUP3 ADD SWAP1 POP PUSH2 0x9A0 PUSH0 DUP4 ADD DUP5 PUSH2 0x97E JUMP JUMPDEST SWAP3 SWAP2 POP POP JUMP JUMPDEST PUSH2 0x9AF DUP2 PUSH2 0x96D JUMP JUMPDEST DUP2 EQ PUSH2 0x9B9 JUMPI PUSH0 PUSH0 REVERT JUMPDEST POP JUMP JUMPDEST PUSH0 DUP2 CALLDATALOAD SWAP1 POP PUSH2 0x9CA DUP2 PUSH2 0x9A6 JUMP JUMPDEST SWAP3 SWAP2 POP POP JUMP JUMPDEST PUSH0 PUSH0 PUSH1 0x40 DUP4 DUP6 SUB SLT ISZERO PUSH2 0x9E6 JUMPI PUSH2 0x9E5 PUSH2 0x8EC JUMP JUMPDEST JUMPDEST PUSH0 PUSH2 0x9F3 DUP6 DUP3 DUP7 ADD PUSH2 0x90F JUMP JUMPDEST SWAP3 POP POP PUSH1 0x20 PUSH2 0xA04 DUP6 DUP3 DUP7 ADD PUSH2 0x9BC JUMP JUMPDEST SWAP2 POP POP SWAP3 POP SWAP3 SWAP1 POP JUMP JUMPDEST PUSH0 DUP2 ISZERO ISZERO SWAP1 POP SWAP2 SWAP1 POP JUMP JUMPDEST PUSH2 0xA22 DUP2 PUSH2 0xA0E JUMP JUMPDEST DUP3 MSTORE POP POP JUMP JUMPDEST PUSH0 PUSH1 0x20 DUP3 ADD SWAP1 POP PUSH2 0xA3B PUSH0 DUP4 ADD DUP5 PUSH2 0xA19 JUMP JUMPDEST SWAP3 SWAP2 POP POP JUMP JUMPDEST PUSH0 PUSH1 0x20 DUP3 DUP5 SUB SLT ISZERO PUSH2 0xA56 JUMPI PUSH2 0xA55 PUSH2 0x8EC JUMP JUMPDEST JUMPDEST PUSH0 PUSH2 0xA63 DUP5 DUP3 DUP6 ADD PUSH2 0x9BC JUMP JUMPDEST SWAP2 POP POP SWAP3 SWAP2 POP POP JUMP JUMPDEST PUSH2 0xA75 DUP2 PUSH2 0x8F0 JUMP JUMPDEST DUP3 MSTORE POP POP JUMP JUMPDEST PUSH0 PUSH1 0x60 DUP3 ADD SWAP1 POP PUSH2 0xA8E PUSH0 DUP4 ADD DUP7 PUSH2 0x97E JUMP JUMPDEST PUSH2 0xA9B PUSH1 0x20 DUP4 ADD DUP6 PUSH2 0xA6C JUMP JUMPDEST PUSH2 0xAA8 PUSH1 0x40 DUP4 ADD DUP5 PUSH2 0xA19 JUMP JUMPDEST SWAP5 SWAP4 POP POP POP POP JUMP JUMPDEST PUSH0 DUP3 DUP3 MSTORE PUSH1 0x20 DUP3 ADD SWAP1 POP SWAP3 SWAP2 POP POP JUMP JUMPDEST PUSH32 0x496E76616C6964207472616E73616374696F6E00000000000000000000000000 PUSH0 DUP3 ADD MSTORE POP JUMP JUMPDEST PUSH0 PUSH2 0xAF4 PUSH1 0x13 DUP4 PUSH2 0xAB0 JUMP JUMPDEST SWAP2 POP PUSH2 0xAFF DUP3 PUSH2 0xAC0 JUMP JUMPDEST PUSH1 0x20 DUP3 ADD SWAP1 POP SWAP2 SWAP1 POP JUMP JUMPDEST PUSH0 PUSH1 0x20 DUP3 ADD SWAP1 POP DUP2 DUP2 SUB PUSH0 DUP4 ADD MSTORE PUSH2 0xB21 DUP2 PUSH2 0xAE8 JUMP JUMPDEST SWAP1 POP SWAP2 SWAP1 POP JUMP JUMPDEST PUSH32 0x416C726561647920636F6E6669726D6564000000000000000000000000000000 PUSH0 DUP3 ADD MSTORE POP JUMP JUMPDEST PUSH0 PUSH2 0xB5C PUSH1 0x11 DUP4 PUSH2 0xAB0 JUMP JUMPDEST SWAP2 POP PUSH2 0xB67 DUP3 PUSH2 0xB28 JUMP JUMPDEST PUSH1 0x20 DUP3 ADD SWAP1 POP SWAP2 SWAP1 POP JUMP JUMPDEST PUSH0 PUSH1 0x20 DUP3 ADD SWAP1 POP DUP2 DUP2 SUB PUSH0 DUP4 ADD MSTORE PUSH2 0xB89 DUP2 PUSH2 0xB50 JUMP JUMPDEST SWAP1 POP SWAP2 SWAP1 POP JUMP JUMPDEST PUSH0 PUSH1 0x20 DUP3 ADD SWAP1 POP PUSH2 0xBA3 PUSH0 DUP4 ADD DUP5 PUSH2 0xA6C JUMP JUMPDEST SWAP3 SWAP2 POP POP JUMP JUMPDEST PUSH32 0x4E487B7100000000000000000000000000000000000000000000000000000000 PUSH0 MSTORE PUSH1 0x32 PUSH1 0x4 MSTORE PUSH1 0x24 PUSH0 REVERT JUMPDEST PUSH32 0x416C726561647920657865637574657264000000000000000000000000000000 PUSH0 DUP3 ADD MSTORE POP JUMP JUMPDEST PUSH0 PUSH2 0xC0A PUSH1 0x11 DUP4 PUSH2 0xAB0 JUMP JUMPDEST SWAP2 POP PUSH2 0xC15 DUP3 PUSH2 0xBD6 JUMP JUMPDEST PUSH1 0x20 DUP3 ADD SWAP1 POP SWAP2 SWAP1 POP JUMP JUMPDEST PUSH0 PUSH1 0x20 DUP3 ADD SWAP1 POP DUP2 DUP2 SUB PUSH0 DUP4 ADD MSTORE PUSH2 0xC37 DUP2 PUSH2 0xBFE JUMP JUMPDEST SWAP1 POP SWAP2 SWAP1 POP JUMP JUMPDEST PUSH0 DUP2 SWAP1 POP SWAP3 SWAP2 POP POP JUMP JUMPDEST POP JUMP JUMPDEST PUSH0 PUSH2 0xC56 PUSH0 DUP4 PUSH2 0xC3E JUMP JUMPDEST SWAP2 POP PUSH2 0xC61 DUP3 PUSH2 0xC48 JUMP JUMPDEST PUSH0 DUP3 ADD SWAP1 POP SWAP2 SWAP1 POP JUMP JUMPDEST PUSH0 PUSH2 0xC75 DUP3 PUSH2 0xC4B JUMP JUMPDEST SWAP2 POP DUP2 SWAP1 POP SWAP2 SWAP1 POP JUMP JUMPDEST PUSH32 0x5472616E73616374696F6E20657865637574696F6E206661696C656400000000 PUSH0 DUP3 ADD MSTORE POP JUMP JUMPDEST PUSH0 PUSH2 0xCB3 PUSH1 0x1C DUP4 PUSH2 0xAB0 JUMP JUMPDEST SWAP2 POP PUSH2 0xCBE DUP3 PUSH2 0xC7F JUMP JUMPDEST PUSH1 0x20 DUP3 ADD SWAP1 POP SWAP2 SWAP1 POP JUMP JUMPDEST PUSH0 PUSH1 0x20 DUP3 ADD SWAP1 POP DUP2 DUP2 SUB PUSH0 DUP4 ADD MSTORE PUSH2 0xCE0 DUP2 PUSH2 0xCA7 JUMP JUMPDEST SWAP1 POP SWAP2 SWAP1 POP JUMP JUMPDEST PUSH32 0x496E76616C696420726563656976657200000000000000000000000000000000 PUSH0 DUP3 ADD MSTORE POP JUMP JUMPDEST PUSH0 PUSH2 0xD1B PUSH1 0x10 DUP4 PUSH2 0xAB0 JUMP JUMPDEST SWAP2 POP PUSH2 0xD26 DUP3 PUSH2 0xCE7 JUMP JUMPDEST PUSH1 0x20 DUP3 ADD SWAP1 POP SWAP2 SWAP1 POP JUMP JUMPDEST PUSH0 PUSH1 0x20 DUP3 ADD SWAP1 POP DUP2 DUP2 SUB PUSH0 DUP4 ADD MSTORE PUSH2 0xD48 DUP2 PUSH2 0xD0F JUMP JUMPDEST SWAP1 POP SWAP2 SWAP1 POP JUMP JUMPDEST PUSH32 0x496E7375666669656369656E6E742062616C616E636500000000000000000000 PUSH0 DUP3 ADD MSTORE POP JUMP JUMPDEST PUSH0 PUSH2 0xD83 PUSH1 0x16 DUP4 PUSH2 0xAB0 JUMP JUMPDEST SWAP2 POP PUSH2 0xD8E DUP3 PUSH2 0xD4F JUMP JUMPDEST PUSH1 0x20 DUP3 ADD SWAP1 POP SWAP2 SWAP1 POP JUMP JUMPDEST PUSH0 PUSH1 0x20 DUP3 ADD SWAP1 POP DUP2 DUP2 SUB PUSH0 DUP4 ADD MSTORE PUSH2 0xDB0 DUP2 PUSH2 0xD77 JUMP JUMPDEST SWAP1 POP SWAP2 SWAP1 POP JUMP JUMPDEST PUSH0 PUSH1 0x80 DUP3 ADD SWAP1 POP PUSH2 0xDCA PUSH0 DUP4 ADD DUP8 PUSH2 0xA6C JUMP JUMPDEST PUSH2 0xDD7 PUSH1 0x20 DUP4 ADD DUP7 PUSH2 0x97E JUMP JUMPDEST PUSH2 0xDE4 PUSH1 0x40 DUP4 ADD DUP6 PUSH2 0x97E JUMP JUMPDEST PUSH2 0xDF1 PUSH1 0x60 DUP4 ADD DUP5 PUSH2 0xA6C JUMP JUMPDEST SWAP6 SWAP5 POP POP POP POP POP JUMP JUMPDEST PUSH32 0x4E487B7100000000000000000000000000000000000000000000000000000000 PUSH0 MSTORE PUSH1 0x11 PUSH1 0x4 MSTORE PUSH1 0x24 PUSH0 REVERT JUMPDEST PUSH0 PUSH2 0xE31 DUP3 PUSH2 0x8F0 JUMP JUMPDEST SWAP2 POP PUSH32 0xFFFFFFFFFFFFFFFFFFFFFFFFFFFFFFFFFFFFFFFFFFFFFFFFFFFFFFFFFFFFFFFF DUP3 SUB PUSH2 0xE63 JUMPI PUSH2 0xE62 PUSH2 0xDFA JUMP JUMPDEST JUMPDEST PUSH1 0x1 DUP3 ADD SWAP1 POP SWAP2 SWAP1 POP JUMP INVALID LOG2 PUSH5 0x6970667358 0x22 SLT KECCAK256 PUSH21 0x70EC1A03E91A534284ADC5ABDF252B02AD3CC0CFA 0xA6 PUSH15 0x43E663C70A63221E64736F6C634300 ADDMOD 0x1E STOP CALLER "
				},
				"gasEstimates": {
					"creation": {
						"codeDepositCost": "749600",
						"executionCost": "infinite",
						"totalCost": "infinite"
					},
					"external": {
						"ConfirmTransaction(uint256)": "infinite",
						"ExcuteTransaction(uint256)": "infinite",
						"isconfirmed(uint256,address)": "3092",
						"owners(uint256)": "4921",
						"submitTransaction(address)": "infinite",
						"transactions(uint256)": "infinite"
					},
					"internal": {
						"isTransactionConfirm(uint256)": "infinite"
					}
				},
				"methodIdentifiers": {
					"ConfirmTransaction(uint256)": "0c22acbd",
					"ExcuteTransaction(uint256)": "4d2aa371",
					"isconfirmed(uint256,address)": "4c9c7af3",
					"owners(uint256)": "025e7c27",
					"submitTransaction(address)": "66d651db",
					"transactions(uint256)": "9ace38c2"
				}
			},
			"storageLayout": {
				"storage": [
					{
						"astId": 4,
						"contract": "multiSigWallet.sol:multiSig",
						"label": "owners",
						"offset": 0,
						"slot": "0",
						"type": "t_array(t_address)dyn_storage"
					},
					{
						"astId": 6,
						"contract": "multiSigWallet.sol:multiSig",
						"label": "numOfCompletion",
						"offset": 0,
						"slot": "1",
						"type": "t_uint256"
					},
					{
						"astId": 19,
						"contract": "multiSigWallet.sol:multiSig",
						"label": "isconfirmed",
						"offset": 0,
						"slot": "2",
						"type": "t_mapping(t_uint256,t_mapping(t_address,t_bool))"
					},
					{
						"astId": 23,
						"contract": "multiSigWallet.sol:multiSig",
						"label": "transactions",
						"offset": 0,
						"slot": "3",
						"type": "t_array(t_struct(Transaction)13_storage)dyn_storage"
					}
				],
				"types": {
					"t_address": {
						"encoding": "inplace",
						"label": "address",
						"numberOfBytes": "20"
					},
					"t_array(t_address)dyn_storage": {
						"base": "t_address",
						"encoding": "dynamic_array",
						"label": "address[]",
						"numberOfBytes": "32"
					},
					"t_array(t_struct(Transaction)13_storage)dyn_storage": {
						"base": "t_struct(Transaction)13_storage",
						"encoding": "dynamic_array",
						"label": "struct multiSig.Transaction[]",
						"numberOfBytes": "32"
					},
					"t_bool": {
						"encoding": "inplace",
						"label": "bool",
						"numberOfBytes": "1"
					},
					"t_mapping(t_address,t_bool)": {
						"encoding": "mapping",
						"key": "t_address",
						"label": "mapping(address => bool)",
						"numberOfBytes": "32",
						"value": "t_bool"
					},
					"t_mapping(t_uint256,t_mapping(t_address,t_bool))": {
						"encoding": "mapping",
						"key": "t_uint256",
						"label": "mapping(uint256 => mapping(address => bool))",
						"numberOfBytes": "32",
						"value": "t_mapping(t_address,t_bool)"
					},
					"t_struct(Transaction)13_storage": {
						"encoding": "inplace",
						"label": "struct multiSig.Transaction",
						"members": [
							{
								"astId": 8,
								"contract": "multiSigWallet.sol:multiSig",
								"label": "to",
								"offset": 0,
								"slot": "0",
								"type": "t_address"
							},
							{
								"astId": 10,
								"contract": "multiSigWallet.sol:multiSig",
								"label": "value",
								"offset": 0,
								"slot": "1",
								"type": "t_uint256"
							},
							{
								"astId": 12,
								"contract": "multiSigWallet.sol:multiSig",
								"label": "execute",
								"offset": 0,
								"slot": "2",
								"type": "t_bool"
							}
						],
						"numberOfBytes": "96"
					},
					"t_uint256": {
						"encoding": "inplace",
						"label": "uint256",
						"numberOfBytes": "32"
					}
				}
			},
			"userdoc": {
				"kind": "user",
				"methods": {},
				"version": 1
			}
		}
	}
}