{
	"government.sol": {
		"Government": {
			"abi": [
				{
					"inputs": [],
					"stateMutability": "nonpayable",
					"type": "constructor"
				},
				{
					"inputs": [
						{
							"internalType": "uint256",
							"name": "",
							"type": "uint256"
						}
					],
					"name": "citizens",
					"outputs": [
						{
							"internalType": "address",
							"name": "",
							"type": "address"
						}
					],
					"stateMutability": "view",
					"type": "function"
				},
				{
					"inputs": [],
					"name": "destroy",
					"outputs": [],
					"stateMutability": "nonpayable",
					"type": "function"
				},
				{
					"inputs": [
						{
							"internalType": "string",
							"name": "law",
							"type": "string"
						}
					],
					"name": "enactlaw",
					"outputs": [],
					"stateMutability": "view",
					"type": "function"
				},
				{
					"inputs": [],
					"name": "getOfficials",
					"outputs": [
						{
							"internalType": "address[]",
							"name": "",
							"type": "address[]"
						}
					],
					"stateMutability": "view",
					"type": "function"
				},
				{
					"inputs": [],
					"name": "getcitizens",
					"outputs": [
						{
							"internalType": "address[]",
							"name": "",
							"type": "address[]"
						}
					],
					"stateMutability": "view",
					"type": "function"
				},
				{
					"inputs": [
						{
							"internalType": "address payable",
							"name": "user",
							"type": "address"
						}
					],
					"name": "grantAccess",
					"outputs": [],
					"stateMutability": "nonpayable",
					"type": "function"
				},
				{
					"inputs": [
						{
							"internalType": "address",
							"name": "",
							"type": "address"
						}
					],
					"name": "isOfficial",
					"outputs": [
						{
							"internalType": "bool",
							"name": "",
							"type": "bool"
						}
					],
					"stateMutability": "view",
					"type": "function"
				},
				{
					"inputs": [
						{
							"internalType": "uint256",
							"name": "",
							"type": "uint256"
						}
					],
					"name": "officials",
					"outputs": [
						{
							"internalType": "address",
							"name": "",
							"type": "address"
						}
					],
					"stateMutability": "view",
					"type": "function"
				},
				{
					"inputs": [
						{
							"internalType": "string",
							"name": "law",
							"type": "string"
						}
					],
					"name": "proposeLaw",
					"outputs": [],
					"stateMutability": "view",
					"type": "function"
				},
				{
					"inputs": [],
					"name": "registerAsCitizen",
					"outputs": [],
					"stateMutability": "nonpayable",
					"type": "function"
				},
				{
					"inputs": [],
					"name": "registerAsOfficial",
					"outputs": [],
					"stateMutability": "nonpayable",
					"type": "function"
				},
				{
					"inputs": [
						{
							"internalType": "address payable",
							"name": "user",
							"type": "address"
						}
					],
					"name": "revokeAccess",
					"outputs": [],
					"stateMutability": "nonpayable",
					"type": "function"
				},
				{
					"inputs": [
						{
							"internalType": "address",
							"name": "candidate",
							"type": "address"
						}
					],
					"name": "vote",
					"outputs": [],
					"stateMutability": "view",
					"type": "function"
				}
			],
			"devdoc": {
				"kind": "dev",
				"methods": {},
				"version": 1
			},
			"evm": {
				"assembly": "    /* \"government.sol\":61:1861  contract Government{... */\n  mstore(0x40, 0x80)\n    /* \"government.sol\":228:285  constructor(){... */\n  callvalue\n  dup1\n  iszero\n  tag_1\n  jumpi\n  revert(0x00, 0x00)\ntag_1:\n  pop\n    /* \"government.sol\":266:276  msg.sender */\n  caller\n    /* \"government.sol\":251:256  owner */\n  0x02\n  0x00\n    /* \"government.sol\":251:277  owner= payable(msg.sender) */\n  0x0100\n  exp\n  dup2\n  sload\n  dup2\n  0xffffffffffffffffffffffffffffffffffffffff\n  mul\n  not\n  and\n  swap1\n  dup4\n  0xffffffffffffffffffffffffffffffffffffffff\n  and\n  mul\n  or\n  swap1\n  sstore\n  pop\n    /* \"government.sol\":61:1861  contract Government{... */\n  dataSize(sub_0)\n  dup1\n  dataOffset(sub_0)\n  0x00\n  codecopy\n  0x00\n  return\nstop\n\nsub_0: assembly {\n        /* \"government.sol\":61:1861  contract Government{... */\n      mstore(0x40, 0x80)\n      callvalue\n      dup1\n      iszero\n      tag_1\n      jumpi\n      revert(0x00, 0x00)\n    tag_1:\n      pop\n      jumpi(tag_2, lt(calldatasize, 0x04))\n      shr(0xe0, calldataload(0x00))\n      dup1\n      0x83197ef0\n      gt\n      tag_16\n      jumpi\n      dup1\n      0x97ad6afd\n      gt\n      tag_17\n      jumpi\n      dup1\n      0x97ad6afd\n      eq\n      tag_12\n      jumpi\n      dup1\n      0xa84f499b\n      eq\n      tag_13\n      jumpi\n      dup1\n      0xba05f053\n      eq\n      tag_14\n      jumpi\n      dup1\n      0xf317076c\n      eq\n      tag_15\n      jumpi\n      jump(tag_2)\n    tag_17:\n      dup1\n      0x83197ef0\n      eq\n      tag_9\n      jumpi\n      dup1\n      0x85e68531\n      eq\n      tag_10\n      jumpi\n      dup1\n      0x89907717\n      eq\n      tag_11\n      jumpi\n      jump(tag_2)\n    tag_16:\n      dup1\n      0x09a34f00\n      eq\n      tag_3\n      jumpi\n      dup1\n      0x0ae5e739\n      eq\n      tag_4\n      jumpi\n      dup1\n      0x58bc7331\n      eq\n      tag_5\n      jumpi\n      dup1\n      0x62e36eb8\n      eq\n      tag_6\n      jumpi\n      dup1\n      0x6dd7d8ea\n      eq\n      tag_7\n      jumpi\n      dup1\n      0x77b81aac\n      eq\n      tag_8\n      jumpi\n    tag_2:\n      revert(0x00, 0x00)\n        /* \"government.sol\":87:112  address[] public citizens */\n    tag_3:\n      tag_18\n      0x04\n      dup1\n      calldatasize\n      sub\n      dup2\n      add\n      swap1\n      tag_19\n      swap2\n      swap1\n      tag_20\n      jump\t// in\n    tag_19:\n      tag_21\n      jump\t// in\n    tag_18:\n      mload(0x40)\n      tag_22\n      swap2\n      swap1\n      tag_23\n      jump\t// in\n    tag_22:\n      mload(0x40)\n      dup1\n      swap2\n      sub\n      swap1\n      return\n        /* \"government.sol\":1347:1487  function grantAccess(address payable user) public{... */\n    tag_4:\n      tag_24\n      0x04\n      dup1\n      calldatasize\n      sub\n      dup2\n      add\n      swap1\n      tag_25\n      swap2\n      swap1\n      tag_26\n      jump\t// in\n    tag_25:\n      tag_27\n      jump\t// in\n    tag_24:\n      stop\n        /* \"government.sol\":1145:1241  function getOfficials() public view returns(address[] memory){... */\n    tag_5:\n      tag_28\n      tag_29\n      jump\t// in\n    tag_28:\n      mload(0x40)\n      tag_30\n      swap2\n      swap1\n      tag_31\n      jump\t// in\n    tag_30:\n      mload(0x40)\n      dup1\n      swap2\n      sub\n      swap1\n      return\n        /* \"government.sol\":291:441  function registerAsCitizen()public{... */\n    tag_6:\n      tag_32\n      tag_33\n      jump\t// in\n    tag_32:\n      stop\n        /* \"government.sol\":650:860  function vote(address candidate) public view{ ... */\n    tag_7:\n      tag_34\n      0x04\n      dup1\n      calldatasize\n      sub\n      dup2\n      add\n      swap1\n      tag_35\n      swap2\n      swap1\n      tag_36\n      jump\t// in\n    tag_35:\n      tag_37\n      jump\t// in\n    tag_34:\n      stop\n        /* \"government.sol\":180:221  mapping(address=> bool) public isOfficial */\n    tag_8:\n      tag_38\n      0x04\n      dup1\n      calldatasize\n      sub\n      dup2\n      add\n      swap1\n      tag_39\n      swap2\n      swap1\n      tag_36\n      jump\t// in\n    tag_39:\n      tag_40\n      jump\t// in\n    tag_38:\n      mload(0x40)\n      tag_41\n      swap2\n      swap1\n      tag_42\n      jump\t// in\n    tag_41:\n      mload(0x40)\n      dup1\n      swap2\n      sub\n      swap1\n      return\n        /* \"government.sol\":1720:1858  function destroy() public{... */\n    tag_9:\n      tag_43\n      tag_44\n      jump\t// in\n    tag_43:\n      stop\n        /* \"government.sol\":1493:1714  function revokeAccess(address payable user) public{... */\n    tag_10:\n      tag_45\n      0x04\n      dup1\n      calldatasize\n      sub\n      dup2\n      add\n      swap1\n      tag_46\n      swap2\n      swap1\n      tag_26\n      jump\t// in\n    tag_46:\n      tag_47\n      jump\t// in\n    tag_45:\n      stop\n        /* \"government.sol\":453:644  function registerAsOfficial()public{... */\n    tag_11:\n      tag_48\n      tag_49\n      jump\t// in\n    tag_48:\n      stop\n        /* \"government.sol\":119:145  address[] public officials */\n    tag_12:\n      tag_50\n      0x04\n      dup1\n      calldatasize\n      sub\n      dup2\n      add\n      swap1\n      tag_51\n      swap2\n      swap1\n      tag_20\n      jump\t// in\n    tag_51:\n      tag_52\n      jump\t// in\n    tag_50:\n      mload(0x40)\n      tag_53\n      swap2\n      swap1\n      tag_23\n      jump\t// in\n    tag_53:\n      mload(0x40)\n      dup1\n      swap2\n      sub\n      swap1\n      return\n        /* \"government.sol\":1247:1341  function getcitizens() public view returns(address[] memory){... */\n    tag_13:\n      tag_54\n      tag_55\n      jump\t// in\n    tag_54:\n      mload(0x40)\n      tag_56\n      swap2\n      swap1\n      tag_31\n      jump\t// in\n    tag_56:\n      mload(0x40)\n      dup1\n      swap2\n      sub\n      swap1\n      return\n        /* \"government.sol\":866:1013  function proposeLaw(string memory law) public view  {... */\n    tag_14:\n      tag_57\n      0x04\n      dup1\n      calldatasize\n      sub\n      dup2\n      add\n      swap1\n      tag_58\n      swap2\n      swap1\n      tag_59\n      jump\t// in\n    tag_58:\n      tag_60\n      jump\t// in\n    tag_57:\n      stop\n        /* \"government.sol\":1019:1139  function enactlaw(string memory law) public view{... */\n    tag_15:\n      tag_61\n      0x04\n      dup1\n      calldatasize\n      sub\n      dup2\n      add\n      swap1\n      tag_62\n      swap2\n      swap1\n      tag_59\n      jump\t// in\n    tag_62:\n      tag_63\n      jump\t// in\n    tag_61:\n      stop\n        /* \"government.sol\":87:112  address[] public citizens */\n    tag_21:\n      0x00\n      dup2\n      dup2\n      sload\n      dup2\n      lt\n      tag_64\n      jumpi\n      0x00\n      dup1\n      revert\n    tag_64:\n      swap1\n      0x00\n      mstore\n      keccak256(0x00, 0x20)\n      add\n      0x00\n      swap2\n      pop\n      sload\n      swap1\n      0x0100\n      exp\n      swap1\n      div\n      0xffffffffffffffffffffffffffffffffffffffff\n      and\n      dup2\n      jump\t// out\n        /* \"government.sol\":1347:1487  function grantAccess(address payable user) public{... */\n    tag_27:\n        /* \"government.sol\":1423:1428  owner */\n      0x02\n      0x00\n      swap1\n      sload\n      swap1\n      0x0100\n      exp\n      swap1\n      div\n      0xffffffffffffffffffffffffffffffffffffffff\n      and\n        /* \"government.sol\":1411:1428  msg.sender==owner */\n      0xffffffffffffffffffffffffffffffffffffffff\n      and\n        /* \"government.sol\":1411:1421  msg.sender */\n      caller\n        /* \"government.sol\":1411:1428  msg.sender==owner */\n      0xffffffffffffffffffffffffffffffffffffffff\n      and\n      eq\n        /* \"government.sol\":1403:1462  require(msg.sender==owner,\"only owner can give the access\") */\n      tag_67\n      jumpi\n      mload(0x40)\n      0x08c379a000000000000000000000000000000000000000000000000000000000\n      dup2\n      mstore\n      0x04\n      add\n      tag_68\n      swap1\n      tag_69\n      jump\t// in\n    tag_68:\n      mload(0x40)\n      dup1\n      swap2\n      sub\n      swap1\n      revert\n    tag_67:\n        /* \"government.sol\":1475:1479  user */\n      dup1\n        /* \"government.sol\":1469:1474  owner */\n      0x02\n      0x00\n        /* \"government.sol\":1469:1479  owner=user */\n      0x0100\n      exp\n      dup2\n      sload\n      dup2\n      0xffffffffffffffffffffffffffffffffffffffff\n      mul\n      not\n      and\n      swap1\n      dup4\n      0xffffffffffffffffffffffffffffffffffffffff\n      and\n      mul\n      or\n      swap1\n      sstore\n      pop\n        /* \"government.sol\":1347:1487  function grantAccess(address payable user) public{... */\n      pop\n      jump\t// out\n        /* \"government.sol\":1145:1241  function getOfficials() public view returns(address[] memory){... */\n    tag_29:\n        /* \"government.sol\":1189:1205  address[] memory */\n      0x60\n        /* \"government.sol\":1224:1233  officials */\n      0x01\n        /* \"government.sol\":1217:1233  return officials */\n      dup1\n      sload\n      dup1\n      0x20\n      mul\n      0x20\n      add\n      mload(0x40)\n      swap1\n      dup2\n      add\n      0x40\n      mstore\n      dup1\n      swap3\n      swap2\n      swap1\n      dup2\n      dup2\n      mstore\n      0x20\n      add\n      dup3\n      dup1\n      sload\n      dup1\n      iszero\n      tag_71\n      jumpi\n      0x20\n      mul\n      dup3\n      add\n      swap2\n      swap1\n      0x00\n      mstore\n      keccak256(0x00, 0x20)\n      swap1\n    tag_72:\n      dup2\n      0x00\n      swap1\n      sload\n      swap1\n      0x0100\n      exp\n      swap1\n      div\n      0xffffffffffffffffffffffffffffffffffffffff\n      and\n      0xffffffffffffffffffffffffffffffffffffffff\n      and\n      dup2\n      mstore\n      0x20\n      add\n      swap1\n      0x01\n      add\n      swap1\n      dup1\n      dup4\n      gt\n      tag_72\n      jumpi\n    tag_71:\n      pop\n      pop\n      pop\n      pop\n      pop\n      swap1\n      pop\n        /* \"government.sol\":1145:1241  function getOfficials() public view returns(address[] memory){... */\n      swap1\n      jump\t// out\n        /* \"government.sol\":291:441  function registerAsCitizen()public{... */\n    tag_33:\n        /* \"government.sol\":345:355  isOfficial */\n      0x03\n        /* \"government.sol\":345:367  isOfficial[msg.sender] */\n      0x00\n        /* \"government.sol\":356:366  msg.sender */\n      caller\n        /* \"government.sol\":345:367  isOfficial[msg.sender] */\n      0xffffffffffffffffffffffffffffffffffffffff\n      and\n      0xffffffffffffffffffffffffffffffffffffffff\n      and\n      dup2\n      mstore\n      0x20\n      add\n      swap1\n      dup2\n      mstore\n      0x20\n      add\n      0x00\n      keccak256\n      0x00\n      swap1\n      sload\n      swap1\n      0x0100\n      exp\n      swap1\n      div\n      0xff\n      and\n        /* \"government.sol\":344:367  !isOfficial[msg.sender] */\n      iszero\n        /* \"government.sol\":336:397  require(!isOfficial[msg.sender],\"only official can register\") */\n      tag_74\n      jumpi\n      mload(0x40)\n      0x08c379a000000000000000000000000000000000000000000000000000000000\n      dup2\n      mstore\n      0x04\n      add\n      tag_75\n      swap1\n      tag_76\n      jump\t// in\n    tag_75:\n      mload(0x40)\n      dup1\n      swap2\n      sub\n      swap1\n      revert\n    tag_74:\n        /* \"government.sol\":408:416  citizens */\n      0x00\n        /* \"government.sol\":422:432  msg.sender */\n      caller\n        /* \"government.sol\":408:433  citizens.push(msg.sender) */\n      swap1\n      dup1\n      0x01\n      dup2\n      sload\n      add\n      dup1\n      dup3\n      sstore\n      dup1\n      swap2\n      pop\n      pop\n      0x01\n      swap1\n      sub\n      swap1\n      0x00\n      mstore\n      keccak256(0x00, 0x20)\n      add\n      0x00\n      swap1\n      swap2\n      swap1\n      swap2\n      swap1\n      swap2\n      0x0100\n      exp\n      dup2\n      sload\n      dup2\n      0xffffffffffffffffffffffffffffffffffffffff\n      mul\n      not\n      and\n      swap1\n      dup4\n      0xffffffffffffffffffffffffffffffffffffffff\n      and\n      mul\n      or\n      swap1\n      sstore\n      pop\n        /* \"government.sol\":291:441  function registerAsCitizen()public{... */\n      jump\t// out\n        /* \"government.sol\":650:860  function vote(address candidate) public view{ ... */\n    tag_37:\n        /* \"government.sol\":715:725  isOfficial */\n      0x03\n        /* \"government.sol\":715:737  isOfficial[msg.sender] */\n      0x00\n        /* \"government.sol\":726:736  msg.sender */\n      caller\n        /* \"government.sol\":715:737  isOfficial[msg.sender] */\n      0xffffffffffffffffffffffffffffffffffffffff\n      and\n      0xffffffffffffffffffffffffffffffffffffffff\n      and\n      dup2\n      mstore\n      0x20\n      add\n      swap1\n      dup2\n      mstore\n      0x20\n      add\n      0x00\n      keccak256\n      0x00\n      swap1\n      sload\n      swap1\n      0x0100\n      exp\n      swap1\n      div\n      0xff\n      and\n        /* \"government.sol\":714:737  !isOfficial[msg.sender] */\n      iszero\n        /* \"government.sol\":706:764  require(!isOfficial[msg.sender],\"can't vote as officials\") */\n      tag_79\n      jumpi\n      mload(0x40)\n      0x08c379a000000000000000000000000000000000000000000000000000000000\n      dup2\n      mstore\n      0x04\n      add\n      tag_80\n      swap1\n      tag_81\n      jump\t// in\n    tag_80:\n      mload(0x40)\n      dup1\n      swap2\n      sub\n      swap1\n      revert\n    tag_79:\n        /* \"government.sol\":783:793  isOfficial */\n      0x03\n        /* \"government.sol\":783:804  isOfficial[candidate] */\n      0x00\n        /* \"government.sol\":794:803  candidate */\n      dup3\n        /* \"government.sol\":783:804  isOfficial[candidate] */\n      0xffffffffffffffffffffffffffffffffffffffff\n      and\n      0xffffffffffffffffffffffffffffffffffffffff\n      and\n      dup2\n      mstore\n      0x20\n      add\n      swap1\n      dup2\n      mstore\n      0x20\n      add\n      0x00\n      keccak256\n      0x00\n      swap1\n      sload\n      swap1\n      0x0100\n      exp\n      swap1\n      div\n      0xff\n      and\n        /* \"government.sol\":775:849  require(isOfficial[candidate],\"candidate must be registered as officials\") */\n      tag_82\n      jumpi\n      mload(0x40)\n      0x08c379a000000000000000000000000000000000000000000000000000000000\n      dup2\n      mstore\n      0x04\n      add\n      tag_83\n      swap1\n      tag_84\n      jump\t// in\n    tag_83:\n      mload(0x40)\n      dup1\n      swap2\n      sub\n      swap1\n      revert\n    tag_82:\n        /* \"government.sol\":650:860  function vote(address candidate) public view{ ... */\n      pop\n      jump\t// out\n        /* \"government.sol\":180:221  mapping(address=> bool) public isOfficial */\n    tag_40:\n      mstore(0x20, 0x03)\n      dup1\n      0x00\n      mstore\n      keccak256(0x00, 0x40)\n      0x00\n      swap2\n      pop\n      sload\n      swap1\n      0x0100\n      exp\n      swap1\n      div\n      0xff\n      and\n      dup2\n      jump\t// out\n        /* \"government.sol\":1720:1858  function destroy() public{... */\n    tag_44:\n        /* \"government.sol\":1776:1781  owner */\n      0x02\n      0x00\n      swap1\n      sload\n      swap1\n      0x0100\n      exp\n      swap1\n      div\n      0xffffffffffffffffffffffffffffffffffffffff\n      and\n        /* \"government.sol\":1764:1781  msg.sender==owner */\n      0xffffffffffffffffffffffffffffffffffffffff\n      and\n        /* \"government.sol\":1764:1774  msg.sender */\n      caller\n        /* \"government.sol\":1764:1781  msg.sender==owner */\n      0xffffffffffffffffffffffffffffffffffffffff\n      and\n      eq\n        /* \"government.sol\":1756:1820  require(msg.sender==owner,\"only owner can destroy the contract\") */\n      tag_86\n      jumpi\n      mload(0x40)\n      0x08c379a000000000000000000000000000000000000000000000000000000000\n      dup2\n      mstore\n      0x04\n      add\n      tag_87\n      swap1\n      tag_88\n      jump\t// in\n    tag_87:\n      mload(0x40)\n      dup1\n      swap2\n      sub\n      swap1\n      revert\n    tag_86:\n        /* \"government.sol\":1844:1849  owner */\n      0x02\n      0x00\n      swap1\n      sload\n      swap1\n      0x0100\n      exp\n      swap1\n      div\n      0xffffffffffffffffffffffffffffffffffffffff\n      and\n        /* \"government.sol\":1831:1850  selfdestruct(owner) */\n      0xffffffffffffffffffffffffffffffffffffffff\n      and\n      selfdestruct\n        /* \"government.sol\":1493:1714  function revokeAccess(address payable user) public{... */\n    tag_47:\n        /* \"government.sol\":1570:1575  owner */\n      0x02\n      0x00\n      swap1\n      sload\n      swap1\n      0x0100\n      exp\n      swap1\n      div\n      0xffffffffffffffffffffffffffffffffffffffff\n      and\n        /* \"government.sol\":1558:1575  msg.sender==owner */\n      0xffffffffffffffffffffffffffffffffffffffff\n      and\n        /* \"government.sol\":1558:1568  msg.sender */\n      caller\n        /* \"government.sol\":1558:1575  msg.sender==owner */\n      0xffffffffffffffffffffffffffffffffffffffff\n      and\n      eq\n        /* \"government.sol\":1550:1609  require(msg.sender==owner,\"only owner can give the access\") */\n      tag_90\n      jumpi\n      mload(0x40)\n      0x08c379a000000000000000000000000000000000000000000000000000000000\n      dup2\n      mstore\n      0x04\n      add\n      tag_91\n      swap1\n      tag_69\n      jump\t// in\n    tag_91:\n      mload(0x40)\n      dup1\n      swap2\n      sub\n      swap1\n      revert\n    tag_90:\n        /* \"government.sol\":1631:1636  owner */\n      0x02\n      0x00\n      swap1\n      sload\n      swap1\n      0x0100\n      exp\n      swap1\n      div\n      0xffffffffffffffffffffffffffffffffffffffff\n      and\n        /* \"government.sol\":1624:1636  user!= owner */\n      0xffffffffffffffffffffffffffffffffffffffff\n      and\n        /* \"government.sol\":1624:1628  user */\n      dup2\n        /* \"government.sol\":1624:1636  user!= owner */\n      0xffffffffffffffffffffffffffffffffffffffff\n      and\n      sub\n        /* \"government.sol\":1616:1674  require(user!= owner, \"current owner can't revoke access\") */\n      tag_92\n      jumpi\n      mload(0x40)\n      0x08c379a000000000000000000000000000000000000000000000000000000000\n      dup2\n      mstore\n      0x04\n      add\n      tag_93\n      swap1\n      tag_94\n      jump\t// in\n    tag_93:\n      mload(0x40)\n      dup1\n      swap2\n      sub\n      swap1\n      revert\n    tag_92:\n        /* \"government.sol\":1695:1705  msg.sender */\n      caller\n        /* \"government.sol\":1681:1686  owner */\n      0x02\n      0x00\n        /* \"government.sol\":1681:1706  owner=payable(msg.sender) */\n      0x0100\n      exp\n      dup2\n      sload\n      dup2\n      0xffffffffffffffffffffffffffffffffffffffff\n      mul\n      not\n      and\n      swap1\n      dup4\n      0xffffffffffffffffffffffffffffffffffffffff\n      and\n      mul\n      or\n      swap1\n      sstore\n      pop\n        /* \"government.sol\":1493:1714  function revokeAccess(address payable user) public{... */\n      pop\n      jump\t// out\n        /* \"government.sol\":453:644  function registerAsOfficial()public{... */\n    tag_49:\n        /* \"government.sol\":508:518  isOfficial */\n      0x03\n        /* \"government.sol\":508:530  isOfficial[msg.sender] */\n      0x00\n        /* \"government.sol\":519:529  msg.sender */\n      caller\n        /* \"government.sol\":508:530  isOfficial[msg.sender] */\n      0xffffffffffffffffffffffffffffffffffffffff\n      and\n      0xffffffffffffffffffffffffffffffffffffffff\n      and\n      dup2\n      mstore\n      0x20\n      add\n      swap1\n      dup2\n      mstore\n      0x20\n      add\n      0x00\n      keccak256\n      0x00\n      swap1\n      sload\n      swap1\n      0x0100\n      exp\n      swap1\n      div\n      0xff\n      and\n        /* \"government.sol\":507:530  !isOfficial[msg.sender] */\n      iszero\n        /* \"government.sol\":499:561  require(!isOfficial[msg.sender],\"can't register as officials\") */\n      tag_96\n      jumpi\n      mload(0x40)\n      0x08c379a000000000000000000000000000000000000000000000000000000000\n      dup2\n      mstore\n      0x04\n      add\n      tag_97\n      swap1\n      tag_98\n      jump\t// in\n    tag_97:\n      mload(0x40)\n      dup1\n      swap2\n      sub\n      swap1\n      revert\n    tag_96:\n        /* \"government.sol\":572:581  officials */\n      0x01\n        /* \"government.sol\":587:597  msg.sender */\n      caller\n        /* \"government.sol\":572:598  officials.push(msg.sender) */\n      swap1\n      dup1\n      0x01\n      dup2\n      sload\n      add\n      dup1\n      dup3\n      sstore\n      dup1\n      swap2\n      pop\n      pop\n      0x01\n      swap1\n      sub\n      swap1\n      0x00\n      mstore\n      keccak256(0x00, 0x20)\n      add\n      0x00\n      swap1\n      swap2\n      swap1\n      swap2\n      swap1\n      swap2\n      0x0100\n      exp\n      dup2\n      sload\n      dup2\n      0xffffffffffffffffffffffffffffffffffffffff\n      mul\n      not\n      and\n      swap1\n      dup4\n      0xffffffffffffffffffffffffffffffffffffffff\n      and\n      mul\n      or\n      swap1\n      sstore\n      pop\n        /* \"government.sol\":632:636  true */\n      0x01\n        /* \"government.sol\":609:619  isOfficial */\n      0x03\n        /* \"government.sol\":609:631  isOfficial[msg.sender] */\n      0x00\n        /* \"government.sol\":620:630  msg.sender */\n      caller\n        /* \"government.sol\":609:631  isOfficial[msg.sender] */\n      0xffffffffffffffffffffffffffffffffffffffff\n      and\n      0xffffffffffffffffffffffffffffffffffffffff\n      and\n      dup2\n      mstore\n      0x20\n      add\n      swap1\n      dup2\n      mstore\n      0x20\n      add\n      0x00\n      keccak256\n      0x00\n        /* \"government.sol\":609:636  isOfficial[msg.sender]=true */\n      0x0100\n      exp\n      dup2\n      sload\n      dup2\n      0xff\n      mul\n      not\n      and\n      swap1\n      dup4\n      iszero\n      iszero\n      mul\n      or\n      swap1\n      sstore\n      pop\n        /* \"government.sol\":453:644  function registerAsOfficial()public{... */\n      jump\t// out\n        /* \"government.sol\":119:145  address[] public officials */\n    tag_52:\n      0x01\n      dup2\n      dup2\n      sload\n      dup2\n      lt\n      tag_100\n      jumpi\n      0x00\n      dup1\n      revert\n    tag_100:\n      swap1\n      0x00\n      mstore\n      keccak256(0x00, 0x20)\n      add\n      0x00\n      swap2\n      pop\n      sload\n      swap1\n      0x0100\n      exp\n      swap1\n      div\n      0xffffffffffffffffffffffffffffffffffffffff\n      and\n      dup2\n      jump\t// out\n        /* \"government.sol\":1247:1341  function getcitizens() public view returns(address[] memory){... */\n    tag_55:\n        /* \"government.sol\":1290:1306  address[] memory */\n      0x60\n        /* \"government.sol\":1325:1333  citizens */\n      0x00\n        /* \"government.sol\":1318:1333  return citizens */\n      dup1\n      sload\n      dup1\n      0x20\n      mul\n      0x20\n      add\n      mload(0x40)\n      swap1\n      dup2\n      add\n      0x40\n      mstore\n      dup1\n      swap3\n      swap2\n      swap1\n      dup2\n      dup2\n      mstore\n      0x20\n      add\n      dup3\n      dup1\n      sload\n      dup1\n      iszero\n      tag_103\n      jumpi\n      0x20\n      mul\n      dup3\n      add\n      swap2\n      swap1\n      0x00\n      mstore\n      keccak256(0x00, 0x20)\n      swap1\n    tag_104:\n      dup2\n      0x00\n      swap1\n      sload\n      swap1\n      0x0100\n      exp\n      swap1\n      div\n      0xffffffffffffffffffffffffffffffffffffffff\n      and\n      0xffffffffffffffffffffffffffffffffffffffff\n      and\n      dup2\n      mstore\n      0x20\n      add\n      swap1\n      0x01\n      add\n      swap1\n      dup1\n      dup4\n      gt\n      tag_104\n      jumpi\n    tag_103:\n      pop\n      pop\n      pop\n      pop\n      pop\n      swap1\n      pop\n        /* \"government.sol\":1247:1341  function getcitizens() public view returns(address[] memory){... */\n      swap1\n      jump\t// out\n        /* \"government.sol\":866:1013  function proposeLaw(string memory law) public view  {... */\n    tag_60:\n        /* \"government.sol\":938:948  isOfficial */\n      0x03\n        /* \"government.sol\":938:960  isOfficial[msg.sender] */\n      0x00\n        /* \"government.sol\":949:959  msg.sender */\n      caller\n        /* \"government.sol\":938:960  isOfficial[msg.sender] */\n      0xffffffffffffffffffffffffffffffffffffffff\n      and\n      0xffffffffffffffffffffffffffffffffffffffff\n      and\n      dup2\n      mstore\n      0x20\n      add\n      swap1\n      dup2\n      mstore\n      0x20\n      add\n      0x00\n      keccak256\n      0x00\n      swap1\n      sload\n      swap1\n      0x0100\n      exp\n      swap1\n      div\n      0xff\n      and\n        /* \"government.sol\":937:960  !isOfficial[msg.sender] */\n      iszero\n        /* \"government.sol\":929:995  require(!isOfficial[msg.sender],\"only officials can propose laws\") */\n      tag_106\n      jumpi\n      mload(0x40)\n      0x08c379a000000000000000000000000000000000000000000000000000000000\n      dup2\n      mstore\n      0x04\n      add\n      tag_107\n      swap1\n      tag_108\n      jump\t// in\n    tag_107:\n      mload(0x40)\n      dup1\n      swap2\n      sub\n      swap1\n      revert\n    tag_106:\n        /* \"government.sol\":866:1013  function proposeLaw(string memory law) public view  {... */\n      pop\n      jump\t// out\n        /* \"government.sol\":1019:1139  function enactlaw(string memory law) public view{... */\n    tag_63:\n        /* \"government.sol\":1097:1102  owner */\n      0x02\n      0x00\n      swap1\n      sload\n      swap1\n      0x0100\n      exp\n      swap1\n      div\n      0xffffffffffffffffffffffffffffffffffffffff\n      and\n        /* \"government.sol\":1085:1102  msg.sender==owner */\n      0xffffffffffffffffffffffffffffffffffffffff\n      and\n        /* \"government.sol\":1085:1095  msg.sender */\n      caller\n        /* \"government.sol\":1085:1102  msg.sender==owner */\n      0xffffffffffffffffffffffffffffffffffffffff\n      and\n      eq\n        /* \"government.sol\":1077:1131  require(msg.sender==owner, \"only owner can enact law\") */\n      tag_110\n      jumpi\n      mload(0x40)\n      0x08c379a000000000000000000000000000000000000000000000000000000000\n      dup2\n      mstore\n      0x04\n      add\n      tag_111\n      swap1\n      tag_112\n      jump\t// in\n    tag_111:\n      mload(0x40)\n      dup1\n      swap2\n      sub\n      swap1\n      revert\n    tag_110:\n        /* \"government.sol\":1019:1139  function enactlaw(string memory law) public view{... */\n      pop\n      jump\t// out\n        /* \"#utility.yul\":7:82   */\n    tag_113:\n        /* \"#utility.yul\":40:46   */\n      0x00\n        /* \"#utility.yul\":73:75   */\n      0x40\n        /* \"#utility.yul\":67:76   */\n      mload\n        /* \"#utility.yul\":57:76   */\n      swap1\n      pop\n        /* \"#utility.yul\":7:82   */\n      swap1\n      jump\t// out\n        /* \"#utility.yul\":88:205   */\n    tag_114:\n        /* \"#utility.yul\":197:198   */\n      0x00\n        /* \"#utility.yul\":194:195   */\n      0x00\n        /* \"#utility.yul\":187:199   */\n      revert\n        /* \"#utility.yul\":211:328   */\n    tag_115:\n        /* \"#utility.yul\":320:321   */\n      0x00\n        /* \"#utility.yul\":317:318   */\n      0x00\n        /* \"#utility.yul\":310:322   */\n      revert\n        /* \"#utility.yul\":334:411   */\n    tag_116:\n        /* \"#utility.yul\":371:378   */\n      0x00\n        /* \"#utility.yul\":400:405   */\n      dup2\n        /* \"#utility.yul\":389:405   */\n      swap1\n      pop\n        /* \"#utility.yul\":334:411   */\n      swap2\n      swap1\n      pop\n      jump\t// out\n        /* \"#utility.yul\":417:539   */\n    tag_117:\n        /* \"#utility.yul\":490:514   */\n      tag_171\n        /* \"#utility.yul\":508:513   */\n      dup2\n        /* \"#utility.yul\":490:514   */\n      tag_116\n      jump\t// in\n    tag_171:\n        /* \"#utility.yul\":483:488   */\n      dup2\n        /* \"#utility.yul\":480:515   */\n      eq\n        /* \"#utility.yul\":470:533   */\n      tag_172\n      jumpi\n        /* \"#utility.yul\":529:530   */\n      0x00\n        /* \"#utility.yul\":526:527   */\n      0x00\n        /* \"#utility.yul\":519:531   */\n      revert\n        /* \"#utility.yul\":470:533   */\n    tag_172:\n        /* \"#utility.yul\":417:539   */\n      pop\n      jump\t// out\n        /* \"#utility.yul\":545:684   */\n    tag_118:\n        /* \"#utility.yul\":591:596   */\n      0x00\n        /* \"#utility.yul\":629:635   */\n      dup2\n        /* \"#utility.yul\":616:636   */\n      calldataload\n        /* \"#utility.yul\":607:636   */\n      swap1\n      pop\n        /* \"#utility.yul\":645:678   */\n      tag_174\n        /* \"#utility.yul\":672:677   */\n      dup2\n        /* \"#utility.yul\":645:678   */\n      tag_117\n      jump\t// in\n    tag_174:\n        /* \"#utility.yul\":545:684   */\n      swap3\n      swap2\n      pop\n      pop\n      jump\t// out\n        /* \"#utility.yul\":690:1019   */\n    tag_20:\n        /* \"#utility.yul\":749:755   */\n      0x00\n        /* \"#utility.yul\":798:800   */\n      0x20\n        /* \"#utility.yul\":786:795   */\n      dup3\n        /* \"#utility.yul\":777:784   */\n      dup5\n        /* \"#utility.yul\":773:796   */\n      sub\n        /* \"#utility.yul\":769:801   */\n      slt\n        /* \"#utility.yul\":766:885   */\n      iszero\n      tag_176\n      jumpi\n        /* \"#utility.yul\":804:883   */\n      tag_177\n      tag_114\n      jump\t// in\n    tag_177:\n        /* \"#utility.yul\":766:885   */\n    tag_176:\n        /* \"#utility.yul\":924:925   */\n      0x00\n        /* \"#utility.yul\":949:1002   */\n      tag_178\n        /* \"#utility.yul\":994:1001   */\n      dup5\n        /* \"#utility.yul\":985:991   */\n      dup3\n        /* \"#utility.yul\":974:983   */\n      dup6\n        /* \"#utility.yul\":970:992   */\n      add\n        /* \"#utility.yul\":949:1002   */\n      tag_118\n      jump\t// in\n    tag_178:\n        /* \"#utility.yul\":939:1002   */\n      swap2\n      pop\n        /* \"#utility.yul\":895:1012   */\n      pop\n        /* \"#utility.yul\":690:1019   */\n      swap3\n      swap2\n      pop\n      pop\n      jump\t// out\n        /* \"#utility.yul\":1025:1151   */\n    tag_119:\n        /* \"#utility.yul\":1062:1069   */\n      0x00\n        /* \"#utility.yul\":1102:1144   */\n      0xffffffffffffffffffffffffffffffffffffffff\n        /* \"#utility.yul\":1095:1100   */\n      dup3\n        /* \"#utility.yul\":1091:1145   */\n      and\n        /* \"#utility.yul\":1080:1145   */\n      swap1\n      pop\n        /* \"#utility.yul\":1025:1151   */\n      swap2\n      swap1\n      pop\n      jump\t// out\n        /* \"#utility.yul\":1157:1253   */\n    tag_120:\n        /* \"#utility.yul\":1194:1201   */\n      0x00\n        /* \"#utility.yul\":1223:1247   */\n      tag_181\n        /* \"#utility.yul\":1241:1246   */\n      dup3\n        /* \"#utility.yul\":1223:1247   */\n      tag_119\n      jump\t// in\n    tag_181:\n        /* \"#utility.yul\":1212:1247   */\n      swap1\n      pop\n        /* \"#utility.yul\":1157:1253   */\n      swap2\n      swap1\n      pop\n      jump\t// out\n        /* \"#utility.yul\":1259:1377   */\n    tag_121:\n        /* \"#utility.yul\":1346:1370   */\n      tag_183\n        /* \"#utility.yul\":1364:1369   */\n      dup2\n        /* \"#utility.yul\":1346:1370   */\n      tag_120\n      jump\t// in\n    tag_183:\n        /* \"#utility.yul\":1341:1344   */\n      dup3\n        /* \"#utility.yul\":1334:1371   */\n      mstore\n        /* \"#utility.yul\":1259:1377   */\n      pop\n      pop\n      jump\t// out\n        /* \"#utility.yul\":1383:1605   */\n    tag_23:\n        /* \"#utility.yul\":1476:1480   */\n      0x00\n        /* \"#utility.yul\":1514:1516   */\n      0x20\n        /* \"#utility.yul\":1503:1512   */\n      dup3\n        /* \"#utility.yul\":1499:1517   */\n      add\n        /* \"#utility.yul\":1491:1517   */\n      swap1\n      pop\n        /* \"#utility.yul\":1527:1598   */\n      tag_185\n        /* \"#utility.yul\":1595:1596   */\n      0x00\n        /* \"#utility.yul\":1584:1593   */\n      dup4\n        /* \"#utility.yul\":1580:1597   */\n      add\n        /* \"#utility.yul\":1571:1577   */\n      dup5\n        /* \"#utility.yul\":1527:1598   */\n      tag_121\n      jump\t// in\n    tag_185:\n        /* \"#utility.yul\":1383:1605   */\n      swap3\n      swap2\n      pop\n      pop\n      jump\t// out\n        /* \"#utility.yul\":1611:1715   */\n    tag_122:\n        /* \"#utility.yul\":1656:1663   */\n      0x00\n        /* \"#utility.yul\":1685:1709   */\n      tag_187\n        /* \"#utility.yul\":1703:1708   */\n      dup3\n        /* \"#utility.yul\":1685:1709   */\n      tag_119\n      jump\t// in\n    tag_187:\n        /* \"#utility.yul\":1674:1709   */\n      swap1\n      pop\n        /* \"#utility.yul\":1611:1715   */\n      swap2\n      swap1\n      pop\n      jump\t// out\n        /* \"#utility.yul\":1721:1859   */\n    tag_123:\n        /* \"#utility.yul\":1802:1834   */\n      tag_189\n        /* \"#utility.yul\":1828:1833   */\n      dup2\n        /* \"#utility.yul\":1802:1834   */\n      tag_122\n      jump\t// in\n    tag_189:\n        /* \"#utility.yul\":1795:1800   */\n      dup2\n        /* \"#utility.yul\":1792:1835   */\n      eq\n        /* \"#utility.yul\":1782:1853   */\n      tag_190\n      jumpi\n        /* \"#utility.yul\":1849:1850   */\n      0x00\n        /* \"#utility.yul\":1846:1847   */\n      0x00\n        /* \"#utility.yul\":1839:1851   */\n      revert\n        /* \"#utility.yul\":1782:1853   */\n    tag_190:\n        /* \"#utility.yul\":1721:1859   */\n      pop\n      jump\t// out\n        /* \"#utility.yul\":1865:2020   */\n    tag_124:\n        /* \"#utility.yul\":1919:1924   */\n      0x00\n        /* \"#utility.yul\":1957:1963   */\n      dup2\n        /* \"#utility.yul\":1944:1964   */\n      calldataload\n        /* \"#utility.yul\":1935:1964   */\n      swap1\n      pop\n        /* \"#utility.yul\":1973:2014   */\n      tag_192\n        /* \"#utility.yul\":2008:2013   */\n      dup2\n        /* \"#utility.yul\":1973:2014   */\n      tag_123\n      jump\t// in\n    tag_192:\n        /* \"#utility.yul\":1865:2020   */\n      swap3\n      swap2\n      pop\n      pop\n      jump\t// out\n        /* \"#utility.yul\":2026:2371   */\n    tag_26:\n        /* \"#utility.yul\":2093:2099   */\n      0x00\n        /* \"#utility.yul\":2142:2144   */\n      0x20\n        /* \"#utility.yul\":2130:2139   */\n      dup3\n        /* \"#utility.yul\":2121:2128   */\n      dup5\n        /* \"#utility.yul\":2117:2140   */\n      sub\n        /* \"#utility.yul\":2113:2145   */\n      slt\n        /* \"#utility.yul\":2110:2229   */\n      iszero\n      tag_194\n      jumpi\n        /* \"#utility.yul\":2148:2227   */\n      tag_195\n      tag_114\n      jump\t// in\n    tag_195:\n        /* \"#utility.yul\":2110:2229   */\n    tag_194:\n        /* \"#utility.yul\":2268:2269   */\n      0x00\n        /* \"#utility.yul\":2293:2354   */\n      tag_196\n        /* \"#utility.yul\":2346:2353   */\n      dup5\n        /* \"#utility.yul\":2337:2343   */\n      dup3\n        /* \"#utility.yul\":2326:2335   */\n      dup6\n        /* \"#utility.yul\":2322:2344   */\n      add\n        /* \"#utility.yul\":2293:2354   */\n      tag_124\n      jump\t// in\n    tag_196:\n        /* \"#utility.yul\":2283:2354   */\n      swap2\n      pop\n        /* \"#utility.yul\":2239:2364   */\n      pop\n        /* \"#utility.yul\":2026:2371   */\n      swap3\n      swap2\n      pop\n      pop\n      jump\t// out\n        /* \"#utility.yul\":2377:2491   */\n    tag_125:\n        /* \"#utility.yul\":2444:2450   */\n      0x00\n        /* \"#utility.yul\":2478:2483   */\n      dup2\n        /* \"#utility.yul\":2472:2484   */\n      mload\n        /* \"#utility.yul\":2462:2484   */\n      swap1\n      pop\n        /* \"#utility.yul\":2377:2491   */\n      swap2\n      swap1\n      pop\n      jump\t// out\n        /* \"#utility.yul\":2497:2681   */\n    tag_126:\n        /* \"#utility.yul\":2596:2607   */\n      0x00\n        /* \"#utility.yul\":2630:2636   */\n      dup3\n        /* \"#utility.yul\":2625:2628   */\n      dup3\n        /* \"#utility.yul\":2618:2637   */\n      mstore\n        /* \"#utility.yul\":2670:2674   */\n      0x20\n        /* \"#utility.yul\":2665:2668   */\n      dup3\n        /* \"#utility.yul\":2661:2675   */\n      add\n        /* \"#utility.yul\":2646:2675   */\n      swap1\n      pop\n        /* \"#utility.yul\":2497:2681   */\n      swap3\n      swap2\n      pop\n      pop\n      jump\t// out\n        /* \"#utility.yul\":2687:2819   */\n    tag_127:\n        /* \"#utility.yul\":2754:2758   */\n      0x00\n        /* \"#utility.yul\":2777:2780   */\n      dup2\n        /* \"#utility.yul\":2769:2780   */\n      swap1\n      pop\n        /* \"#utility.yul\":2807:2811   */\n      0x20\n        /* \"#utility.yul\":2802:2805   */\n      dup3\n        /* \"#utility.yul\":2798:2812   */\n      add\n        /* \"#utility.yul\":2790:2812   */\n      swap1\n      pop\n        /* \"#utility.yul\":2687:2819   */\n      swap2\n      swap1\n      pop\n      jump\t// out\n        /* \"#utility.yul\":2825:2933   */\n    tag_128:\n        /* \"#utility.yul\":2902:2926   */\n      tag_201\n        /* \"#utility.yul\":2920:2925   */\n      dup2\n        /* \"#utility.yul\":2902:2926   */\n      tag_120\n      jump\t// in\n    tag_201:\n        /* \"#utility.yul\":2897:2900   */\n      dup3\n        /* \"#utility.yul\":2890:2927   */\n      mstore\n        /* \"#utility.yul\":2825:2933   */\n      pop\n      pop\n      jump\t// out\n        /* \"#utility.yul\":2939:3118   */\n    tag_129:\n        /* \"#utility.yul\":3008:3018   */\n      0x00\n        /* \"#utility.yul\":3029:3075   */\n      tag_203\n        /* \"#utility.yul\":3071:3074   */\n      dup4\n        /* \"#utility.yul\":3063:3069   */\n      dup4\n        /* \"#utility.yul\":3029:3075   */\n      tag_128\n      jump\t// in\n    tag_203:\n        /* \"#utility.yul\":3107:3111   */\n      0x20\n        /* \"#utility.yul\":3102:3105   */\n      dup4\n        /* \"#utility.yul\":3098:3112   */\n      add\n        /* \"#utility.yul\":3084:3112   */\n      swap1\n      pop\n        /* \"#utility.yul\":2939:3118   */\n      swap3\n      swap2\n      pop\n      pop\n      jump\t// out\n        /* \"#utility.yul\":3124:3237   */\n    tag_130:\n        /* \"#utility.yul\":3194:3198   */\n      0x00\n        /* \"#utility.yul\":3226:3230   */\n      0x20\n        /* \"#utility.yul\":3221:3224   */\n      dup3\n        /* \"#utility.yul\":3217:3231   */\n      add\n        /* \"#utility.yul\":3209:3231   */\n      swap1\n      pop\n        /* \"#utility.yul\":3124:3237   */\n      swap2\n      swap1\n      pop\n      jump\t// out\n        /* \"#utility.yul\":3273:4005   */\n    tag_131:\n        /* \"#utility.yul\":3392:3395   */\n      0x00\n        /* \"#utility.yul\":3421:3475   */\n      tag_206\n        /* \"#utility.yul\":3469:3474   */\n      dup3\n        /* \"#utility.yul\":3421:3475   */\n      tag_125\n      jump\t// in\n    tag_206:\n        /* \"#utility.yul\":3491:3577   */\n      tag_207\n        /* \"#utility.yul\":3570:3576   */\n      dup2\n        /* \"#utility.yul\":3565:3568   */\n      dup6\n        /* \"#utility.yul\":3491:3577   */\n      tag_126\n      jump\t// in\n    tag_207:\n        /* \"#utility.yul\":3484:3577   */\n      swap4\n      pop\n        /* \"#utility.yul\":3601:3657   */\n      tag_208\n        /* \"#utility.yul\":3651:3656   */\n      dup4\n        /* \"#utility.yul\":3601:3657   */\n      tag_127\n      jump\t// in\n    tag_208:\n        /* \"#utility.yul\":3680:3687   */\n      dup1\n        /* \"#utility.yul\":3711:3712   */\n      0x00\n        /* \"#utility.yul\":3696:3980   */\n    tag_209:\n        /* \"#utility.yul\":3721:3727   */\n      dup4\n        /* \"#utility.yul\":3718:3719   */\n      dup2\n        /* \"#utility.yul\":3715:3728   */\n      lt\n        /* \"#utility.yul\":3696:3980   */\n      iszero\n      tag_211\n      jumpi\n        /* \"#utility.yul\":3797:3803   */\n      dup2\n        /* \"#utility.yul\":3791:3804   */\n      mload\n        /* \"#utility.yul\":3824:3887   */\n      tag_212\n        /* \"#utility.yul\":3883:3886   */\n      dup9\n        /* \"#utility.yul\":3868:3881   */\n      dup3\n        /* \"#utility.yul\":3824:3887   */\n      tag_129\n      jump\t// in\n    tag_212:\n        /* \"#utility.yul\":3817:3887   */\n      swap8\n      pop\n        /* \"#utility.yul\":3910:3970   */\n      tag_213\n        /* \"#utility.yul\":3963:3969   */\n      dup4\n        /* \"#utility.yul\":3910:3970   */\n      tag_130\n      jump\t// in\n    tag_213:\n        /* \"#utility.yul\":3900:3970   */\n      swap3\n      pop\n        /* \"#utility.yul\":3756:3980   */\n      pop\n        /* \"#utility.yul\":3743:3744   */\n      0x01\n        /* \"#utility.yul\":3740:3741   */\n      dup2\n        /* \"#utility.yul\":3736:3745   */\n      add\n        /* \"#utility.yul\":3731:3745   */\n      swap1\n      pop\n        /* \"#utility.yul\":3696:3980   */\n      jump(tag_209)\n    tag_211:\n        /* \"#utility.yul\":3700:3714   */\n      pop\n        /* \"#utility.yul\":3996:3999   */\n      dup6\n        /* \"#utility.yul\":3989:3999   */\n      swap4\n      pop\n        /* \"#utility.yul\":3397:4005   */\n      pop\n      pop\n      pop\n        /* \"#utility.yul\":3273:4005   */\n      swap3\n      swap2\n      pop\n      pop\n      jump\t// out\n        /* \"#utility.yul\":4011:4384   */\n    tag_31:\n        /* \"#utility.yul\":4154:4158   */\n      0x00\n        /* \"#utility.yul\":4192:4194   */\n      0x20\n        /* \"#utility.yul\":4181:4190   */\n      dup3\n        /* \"#utility.yul\":4177:4195   */\n      add\n        /* \"#utility.yul\":4169:4195   */\n      swap1\n      pop\n        /* \"#utility.yul\":4241:4250   */\n      dup2\n        /* \"#utility.yul\":4235:4239   */\n      dup2\n        /* \"#utility.yul\":4231:4251   */\n      sub\n        /* \"#utility.yul\":4227:4228   */\n      0x00\n        /* \"#utility.yul\":4216:4225   */\n      dup4\n        /* \"#utility.yul\":4212:4229   */\n      add\n        /* \"#utility.yul\":4205:4252   */\n      mstore\n        /* \"#utility.yul\":4269:4377   */\n      tag_215\n        /* \"#utility.yul\":4372:4376   */\n      dup2\n        /* \"#utility.yul\":4363:4369   */\n      dup5\n        /* \"#utility.yul\":4269:4377   */\n      tag_131\n      jump\t// in\n    tag_215:\n        /* \"#utility.yul\":4261:4377   */\n      swap1\n      pop\n        /* \"#utility.yul\":4011:4384   */\n      swap3\n      swap2\n      pop\n      pop\n      jump\t// out\n        /* \"#utility.yul\":4390:4512   */\n    tag_132:\n        /* \"#utility.yul\":4463:4487   */\n      tag_217\n        /* \"#utility.yul\":4481:4486   */\n      dup2\n        /* \"#utility.yul\":4463:4487   */\n      tag_120\n      jump\t// in\n    tag_217:\n        /* \"#utility.yul\":4456:4461   */\n      dup2\n        /* \"#utility.yul\":4453:4488   */\n      eq\n        /* \"#utility.yul\":4443:4506   */\n      tag_218\n      jumpi\n        /* \"#utility.yul\":4502:4503   */\n      0x00\n        /* \"#utility.yul\":4499:4500   */\n      0x00\n        /* \"#utility.yul\":4492:4504   */\n      revert\n        /* \"#utility.yul\":4443:4506   */\n    tag_218:\n        /* \"#utility.yul\":4390:4512   */\n      pop\n      jump\t// out\n        /* \"#utility.yul\":4518:4657   */\n    tag_133:\n        /* \"#utility.yul\":4564:4569   */\n      0x00\n        /* \"#utility.yul\":4602:4608   */\n      dup2\n        /* \"#utility.yul\":4589:4609   */\n      calldataload\n        /* \"#utility.yul\":4580:4609   */\n      swap1\n      pop\n        /* \"#utility.yul\":4618:4651   */\n      tag_220\n        /* \"#utility.yul\":4645:4650   */\n      dup2\n        /* \"#utility.yul\":4618:4651   */\n      tag_132\n      jump\t// in\n    tag_220:\n        /* \"#utility.yul\":4518:4657   */\n      swap3\n      swap2\n      pop\n      pop\n      jump\t// out\n        /* \"#utility.yul\":4663:4992   */\n    tag_36:\n        /* \"#utility.yul\":4722:4728   */\n      0x00\n        /* \"#utility.yul\":4771:4773   */\n      0x20\n        /* \"#utility.yul\":4759:4768   */\n      dup3\n        /* \"#utility.yul\":4750:4757   */\n      dup5\n        /* \"#utility.yul\":4746:4769   */\n      sub\n        /* \"#utility.yul\":4742:4774   */\n      slt\n        /* \"#utility.yul\":4739:4858   */\n      iszero\n      tag_222\n      jumpi\n        /* \"#utility.yul\":4777:4856   */\n      tag_223\n      tag_114\n      jump\t// in\n    tag_223:\n        /* \"#utility.yul\":4739:4858   */\n    tag_222:\n        /* \"#utility.yul\":4897:4898   */\n      0x00\n        /* \"#utility.yul\":4922:4975   */\n      tag_224\n        /* \"#utility.yul\":4967:4974   */\n      dup5\n        /* \"#utility.yul\":4958:4964   */\n      dup3\n        /* \"#utility.yul\":4947:4956   */\n      dup6\n        /* \"#utility.yul\":4943:4965   */\n      add\n        /* \"#utility.yul\":4922:4975   */\n      tag_133\n      jump\t// in\n    tag_224:\n        /* \"#utility.yul\":4912:4975   */\n      swap2\n      pop\n        /* \"#utility.yul\":4868:4985   */\n      pop\n        /* \"#utility.yul\":4663:4992   */\n      swap3\n      swap2\n      pop\n      pop\n      jump\t// out\n        /* \"#utility.yul\":4998:5088   */\n    tag_134:\n        /* \"#utility.yul\":5032:5039   */\n      0x00\n        /* \"#utility.yul\":5075:5080   */\n      dup2\n        /* \"#utility.yul\":5068:5081   */\n      iszero\n        /* \"#utility.yul\":5061:5082   */\n      iszero\n        /* \"#utility.yul\":5050:5082   */\n      swap1\n      pop\n        /* \"#utility.yul\":4998:5088   */\n      swap2\n      swap1\n      pop\n      jump\t// out\n        /* \"#utility.yul\":5094:5203   */\n    tag_135:\n        /* \"#utility.yul\":5175:5196   */\n      tag_227\n        /* \"#utility.yul\":5190:5195   */\n      dup2\n        /* \"#utility.yul\":5175:5196   */\n      tag_134\n      jump\t// in\n    tag_227:\n        /* \"#utility.yul\":5170:5173   */\n      dup3\n        /* \"#utility.yul\":5163:5197   */\n      mstore\n        /* \"#utility.yul\":5094:5203   */\n      pop\n      pop\n      jump\t// out\n        /* \"#utility.yul\":5209:5419   */\n    tag_42:\n        /* \"#utility.yul\":5296:5300   */\n      0x00\n        /* \"#utility.yul\":5334:5336   */\n      0x20\n        /* \"#utility.yul\":5323:5332   */\n      dup3\n        /* \"#utility.yul\":5319:5337   */\n      add\n        /* \"#utility.yul\":5311:5337   */\n      swap1\n      pop\n        /* \"#utility.yul\":5347:5412   */\n      tag_229\n        /* \"#utility.yul\":5409:5410   */\n      0x00\n        /* \"#utility.yul\":5398:5407   */\n      dup4\n        /* \"#utility.yul\":5394:5411   */\n      add\n        /* \"#utility.yul\":5385:5391   */\n      dup5\n        /* \"#utility.yul\":5347:5412   */\n      tag_135\n      jump\t// in\n    tag_229:\n        /* \"#utility.yul\":5209:5419   */\n      swap3\n      swap2\n      pop\n      pop\n      jump\t// out\n        /* \"#utility.yul\":5425:5542   */\n    tag_136:\n        /* \"#utility.yul\":5534:5535   */\n      0x00\n        /* \"#utility.yul\":5531:5532   */\n      0x00\n        /* \"#utility.yul\":5524:5536   */\n      revert\n        /* \"#utility.yul\":5548:5665   */\n    tag_137:\n        /* \"#utility.yul\":5657:5658   */\n      0x00\n        /* \"#utility.yul\":5654:5655   */\n      0x00\n        /* \"#utility.yul\":5647:5659   */\n      revert\n        /* \"#utility.yul\":5671:5773   */\n    tag_138:\n        /* \"#utility.yul\":5712:5718   */\n      0x00\n        /* \"#utility.yul\":5763:5765   */\n      0x1f\n        /* \"#utility.yul\":5759:5766   */\n      not\n        /* \"#utility.yul\":5754:5756   */\n      0x1f\n        /* \"#utility.yul\":5747:5752   */\n      dup4\n        /* \"#utility.yul\":5743:5757   */\n      add\n        /* \"#utility.yul\":5739:5767   */\n      and\n        /* \"#utility.yul\":5729:5767   */\n      swap1\n      pop\n        /* \"#utility.yul\":5671:5773   */\n      swap2\n      swap1\n      pop\n      jump\t// out\n        /* \"#utility.yul\":5779:5959   */\n    tag_139:\n        /* \"#utility.yul\":5827:5904   */\n      0x4e487b7100000000000000000000000000000000000000000000000000000000\n        /* \"#utility.yul\":5824:5825   */\n      0x00\n        /* \"#utility.yul\":5817:5905   */\n      mstore\n        /* \"#utility.yul\":5924:5928   */\n      0x41\n        /* \"#utility.yul\":5921:5922   */\n      0x04\n        /* \"#utility.yul\":5914:5929   */\n      mstore\n        /* \"#utility.yul\":5948:5952   */\n      0x24\n        /* \"#utility.yul\":5945:5946   */\n      0x00\n        /* \"#utility.yul\":5938:5953   */\n      revert\n        /* \"#utility.yul\":5965:6246   */\n    tag_140:\n        /* \"#utility.yul\":6048:6075   */\n      tag_235\n        /* \"#utility.yul\":6070:6074   */\n      dup3\n        /* \"#utility.yul\":6048:6075   */\n      tag_138\n      jump\t// in\n    tag_235:\n        /* \"#utility.yul\":6040:6046   */\n      dup2\n        /* \"#utility.yul\":6036:6076   */\n      add\n        /* \"#utility.yul\":6178:6184   */\n      dup2\n        /* \"#utility.yul\":6166:6176   */\n      dup2\n        /* \"#utility.yul\":6163:6185   */\n      lt\n        /* \"#utility.yul\":6142:6160   */\n      0xffffffffffffffff\n        /* \"#utility.yul\":6130:6140   */\n      dup3\n        /* \"#utility.yul\":6127:6161   */\n      gt\n        /* \"#utility.yul\":6124:6186   */\n      or\n        /* \"#utility.yul\":6121:6209   */\n      iszero\n      tag_236\n      jumpi\n        /* \"#utility.yul\":6189:6207   */\n      tag_237\n      tag_139\n      jump\t// in\n    tag_237:\n        /* \"#utility.yul\":6121:6209   */\n    tag_236:\n        /* \"#utility.yul\":6229:6239   */\n      dup1\n        /* \"#utility.yul\":6225:6227   */\n      0x40\n        /* \"#utility.yul\":6218:6240   */\n      mstore\n        /* \"#utility.yul\":6008:6246   */\n      pop\n        /* \"#utility.yul\":5965:6246   */\n      pop\n      pop\n      jump\t// out\n        /* \"#utility.yul\":6252:6381   */\n    tag_141:\n        /* \"#utility.yul\":6286:6292   */\n      0x00\n        /* \"#utility.yul\":6313:6333   */\n      tag_239\n      tag_113\n      jump\t// in\n    tag_239:\n        /* \"#utility.yul\":6303:6333   */\n      swap1\n      pop\n        /* \"#utility.yul\":6342:6375   */\n      tag_240\n        /* \"#utility.yul\":6370:6374   */\n      dup3\n        /* \"#utility.yul\":6362:6368   */\n      dup3\n        /* \"#utility.yul\":6342:6375   */\n      tag_140\n      jump\t// in\n    tag_240:\n        /* \"#utility.yul\":6252:6381   */\n      swap2\n      swap1\n      pop\n      jump\t// out\n        /* \"#utility.yul\":6387:6695   */\n    tag_142:\n        /* \"#utility.yul\":6449:6453   */\n      0x00\n        /* \"#utility.yul\":6539:6557   */\n      0xffffffffffffffff\n        /* \"#utility.yul\":6531:6537   */\n      dup3\n        /* \"#utility.yul\":6528:6558   */\n      gt\n        /* \"#utility.yul\":6525:6581   */\n      iszero\n      tag_242\n      jumpi\n        /* \"#utility.yul\":6561:6579   */\n      tag_243\n      tag_139\n      jump\t// in\n    tag_243:\n        /* \"#utility.yul\":6525:6581   */\n    tag_242:\n        /* \"#utility.yul\":6599:6628   */\n      tag_244\n        /* \"#utility.yul\":6621:6627   */\n      dup3\n        /* \"#utility.yul\":6599:6628   */\n      tag_138\n      jump\t// in\n    tag_244:\n        /* \"#utility.yul\":6591:6628   */\n      swap1\n      pop\n        /* \"#utility.yul\":6683:6687   */\n      0x20\n        /* \"#utility.yul\":6677:6681   */\n      dup2\n        /* \"#utility.yul\":6673:6688   */\n      add\n        /* \"#utility.yul\":6665:6688   */\n      swap1\n      pop\n        /* \"#utility.yul\":6387:6695   */\n      swap2\n      swap1\n      pop\n      jump\t// out\n        /* \"#utility.yul\":6701:6849   */\n    tag_143:\n        /* \"#utility.yul\":6799:6805   */\n      dup3\n        /* \"#utility.yul\":6794:6797   */\n      dup2\n        /* \"#utility.yul\":6789:6792   */\n      dup4\n        /* \"#utility.yul\":6776:6806   */\n      calldatacopy\n        /* \"#utility.yul\":6840:6841   */\n      0x00\n        /* \"#utility.yul\":6831:6837   */\n      dup4\n        /* \"#utility.yul\":6826:6829   */\n      dup4\n        /* \"#utility.yul\":6822:6838   */\n      add\n        /* \"#utility.yul\":6815:6842   */\n      mstore\n        /* \"#utility.yul\":6701:6849   */\n      pop\n      pop\n      pop\n      jump\t// out\n        /* \"#utility.yul\":6855:7280   */\n    tag_144:\n        /* \"#utility.yul\":6933:6938   */\n      0x00\n        /* \"#utility.yul\":6958:7024   */\n      tag_247\n        /* \"#utility.yul\":6974:7023   */\n      tag_248\n        /* \"#utility.yul\":7016:7022   */\n      dup5\n        /* \"#utility.yul\":6974:7023   */\n      tag_142\n      jump\t// in\n    tag_248:\n        /* \"#utility.yul\":6958:7024   */\n      tag_141\n      jump\t// in\n    tag_247:\n        /* \"#utility.yul\":6949:7024   */\n      swap1\n      pop\n        /* \"#utility.yul\":7047:7053   */\n      dup3\n        /* \"#utility.yul\":7040:7045   */\n      dup2\n        /* \"#utility.yul\":7033:7054   */\n      mstore\n        /* \"#utility.yul\":7085:7089   */\n      0x20\n        /* \"#utility.yul\":7078:7083   */\n      dup2\n        /* \"#utility.yul\":7074:7090   */\n      add\n        /* \"#utility.yul\":7123:7126   */\n      dup5\n        /* \"#utility.yul\":7114:7120   */\n      dup5\n        /* \"#utility.yul\":7109:7112   */\n      dup5\n        /* \"#utility.yul\":7105:7121   */\n      add\n        /* \"#utility.yul\":7102:7127   */\n      gt\n        /* \"#utility.yul\":7099:7211   */\n      iszero\n      tag_249\n      jumpi\n        /* \"#utility.yul\":7130:7209   */\n      tag_250\n      tag_137\n      jump\t// in\n    tag_250:\n        /* \"#utility.yul\":7099:7211   */\n    tag_249:\n        /* \"#utility.yul\":7220:7274   */\n      tag_251\n        /* \"#utility.yul\":7267:7273   */\n      dup5\n        /* \"#utility.yul\":7262:7265   */\n      dup3\n        /* \"#utility.yul\":7257:7260   */\n      dup6\n        /* \"#utility.yul\":7220:7274   */\n      tag_143\n      jump\t// in\n    tag_251:\n        /* \"#utility.yul\":6939:7280   */\n      pop\n        /* \"#utility.yul\":6855:7280   */\n      swap4\n      swap3\n      pop\n      pop\n      pop\n      jump\t// out\n        /* \"#utility.yul\":7300:7640   */\n    tag_145:\n        /* \"#utility.yul\":7356:7361   */\n      0x00\n        /* \"#utility.yul\":7405:7408   */\n      dup3\n        /* \"#utility.yul\":7398:7402   */\n      0x1f\n        /* \"#utility.yul\":7390:7396   */\n      dup4\n        /* \"#utility.yul\":7386:7403   */\n      add\n        /* \"#utility.yul\":7382:7409   */\n      slt\n        /* \"#utility.yul\":7372:7494   */\n      tag_253\n      jumpi\n        /* \"#utility.yul\":7413:7492   */\n      tag_254\n      tag_136\n      jump\t// in\n    tag_254:\n        /* \"#utility.yul\":7372:7494   */\n    tag_253:\n        /* \"#utility.yul\":7530:7536   */\n      dup2\n        /* \"#utility.yul\":7517:7537   */\n      calldataload\n        /* \"#utility.yul\":7555:7634   */\n      tag_255\n        /* \"#utility.yul\":7630:7633   */\n      dup5\n        /* \"#utility.yul\":7622:7628   */\n      dup3\n        /* \"#utility.yul\":7615:7619   */\n      0x20\n        /* \"#utility.yul\":7607:7613   */\n      dup7\n        /* \"#utility.yul\":7603:7620   */\n      add\n        /* \"#utility.yul\":7555:7634   */\n      tag_144\n      jump\t// in\n    tag_255:\n        /* \"#utility.yul\":7546:7634   */\n      swap2\n      pop\n        /* \"#utility.yul\":7362:7640   */\n      pop\n        /* \"#utility.yul\":7300:7640   */\n      swap3\n      swap2\n      pop\n      pop\n      jump\t// out\n        /* \"#utility.yul\":7646:8155   */\n    tag_59:\n        /* \"#utility.yul\":7715:7721   */\n      0x00\n        /* \"#utility.yul\":7764:7766   */\n      0x20\n        /* \"#utility.yul\":7752:7761   */\n      dup3\n        /* \"#utility.yul\":7743:7750   */\n      dup5\n        /* \"#utility.yul\":7739:7762   */\n      sub\n        /* \"#utility.yul\":7735:7767   */\n      slt\n        /* \"#utility.yul\":7732:7851   */\n      iszero\n      tag_257\n      jumpi\n        /* \"#utility.yul\":7770:7849   */\n      tag_258\n      tag_114\n      jump\t// in\n    tag_258:\n        /* \"#utility.yul\":7732:7851   */\n    tag_257:\n        /* \"#utility.yul\":7918:7919   */\n      0x00\n        /* \"#utility.yul\":7907:7916   */\n      dup3\n        /* \"#utility.yul\":7903:7920   */\n      add\n        /* \"#utility.yul\":7890:7921   */\n      calldataload\n        /* \"#utility.yul\":7948:7966   */\n      0xffffffffffffffff\n        /* \"#utility.yul\":7940:7946   */\n      dup2\n        /* \"#utility.yul\":7937:7967   */\n      gt\n        /* \"#utility.yul\":7934:8051   */\n      iszero\n      tag_259\n      jumpi\n        /* \"#utility.yul\":7970:8049   */\n      tag_260\n      tag_115\n      jump\t// in\n    tag_260:\n        /* \"#utility.yul\":7934:8051   */\n    tag_259:\n        /* \"#utility.yul\":8075:8138   */\n      tag_261\n        /* \"#utility.yul\":8130:8137   */\n      dup5\n        /* \"#utility.yul\":8121:8127   */\n      dup3\n        /* \"#utility.yul\":8110:8119   */\n      dup6\n        /* \"#utility.yul\":8106:8128   */\n      add\n        /* \"#utility.yul\":8075:8138   */\n      tag_145\n      jump\t// in\n    tag_261:\n        /* \"#utility.yul\":8065:8138   */\n      swap2\n      pop\n        /* \"#utility.yul\":7861:8148   */\n      pop\n        /* \"#utility.yul\":7646:8155   */\n      swap3\n      swap2\n      pop\n      pop\n      jump\t// out\n        /* \"#utility.yul\":8161:8330   */\n    tag_146:\n        /* \"#utility.yul\":8245:8256   */\n      0x00\n        /* \"#utility.yul\":8279:8285   */\n      dup3\n        /* \"#utility.yul\":8274:8277   */\n      dup3\n        /* \"#utility.yul\":8267:8286   */\n      mstore\n        /* \"#utility.yul\":8319:8323   */\n      0x20\n        /* \"#utility.yul\":8314:8317   */\n      dup3\n        /* \"#utility.yul\":8310:8324   */\n      add\n        /* \"#utility.yul\":8295:8324   */\n      swap1\n      pop\n        /* \"#utility.yul\":8161:8330   */\n      swap3\n      swap2\n      pop\n      pop\n      jump\t// out\n        /* \"#utility.yul\":8336:8516   */\n    tag_147:\n        /* \"#utility.yul\":8476:8508   */\n      0x6f6e6c79206f776e65722063616e206769766520746865206163636573730000\n        /* \"#utility.yul\":8472:8473   */\n      0x00\n        /* \"#utility.yul\":8464:8470   */\n      dup3\n        /* \"#utility.yul\":8460:8474   */\n      add\n        /* \"#utility.yul\":8453:8509   */\n      mstore\n        /* \"#utility.yul\":8336:8516   */\n      pop\n      jump\t// out\n        /* \"#utility.yul\":8522:8888   */\n    tag_148:\n        /* \"#utility.yul\":8664:8667   */\n      0x00\n        /* \"#utility.yul\":8685:8752   */\n      tag_265\n        /* \"#utility.yul\":8749:8751   */\n      0x1e\n        /* \"#utility.yul\":8744:8747   */\n      dup4\n        /* \"#utility.yul\":8685:8752   */\n      tag_146\n      jump\t// in\n    tag_265:\n        /* \"#utility.yul\":8678:8752   */\n      swap2\n      pop\n        /* \"#utility.yul\":8761:8854   */\n      tag_266\n        /* \"#utility.yul\":8850:8853   */\n      dup3\n        /* \"#utility.yul\":8761:8854   */\n      tag_147\n      jump\t// in\n    tag_266:\n        /* \"#utility.yul\":8879:8881   */\n      0x20\n        /* \"#utility.yul\":8874:8877   */\n      dup3\n        /* \"#utility.yul\":8870:8882   */\n      add\n        /* \"#utility.yul\":8863:8882   */\n      swap1\n      pop\n        /* \"#utility.yul\":8522:8888   */\n      swap2\n      swap1\n      pop\n      jump\t// out\n        /* \"#utility.yul\":8894:9313   */\n    tag_69:\n        /* \"#utility.yul\":9060:9064   */\n      0x00\n        /* \"#utility.yul\":9098:9100   */\n      0x20\n        /* \"#utility.yul\":9087:9096   */\n      dup3\n        /* \"#utility.yul\":9083:9101   */\n      add\n        /* \"#utility.yul\":9075:9101   */\n      swap1\n      pop\n        /* \"#utility.yul\":9147:9156   */\n      dup2\n        /* \"#utility.yul\":9141:9145   */\n      dup2\n        /* \"#utility.yul\":9137:9157   */\n      sub\n        /* \"#utility.yul\":9133:9134   */\n      0x00\n        /* \"#utility.yul\":9122:9131   */\n      dup4\n        /* \"#utility.yul\":9118:9135   */\n      add\n        /* \"#utility.yul\":9111:9158   */\n      mstore\n        /* \"#utility.yul\":9175:9306   */\n      tag_268\n        /* \"#utility.yul\":9301:9305   */\n      dup2\n        /* \"#utility.yul\":9175:9306   */\n      tag_148\n      jump\t// in\n    tag_268:\n        /* \"#utility.yul\":9167:9306   */\n      swap1\n      pop\n        /* \"#utility.yul\":8894:9313   */\n      swap2\n      swap1\n      pop\n      jump\t// out\n        /* \"#utility.yul\":9319:9495   */\n    tag_149:\n        /* \"#utility.yul\":9459:9487   */\n      0x6f6e6c79206f6666696369616c2063616e207265676973746572000000000000\n        /* \"#utility.yul\":9455:9456   */\n      0x00\n        /* \"#utility.yul\":9447:9453   */\n      dup3\n        /* \"#utility.yul\":9443:9457   */\n      add\n        /* \"#utility.yul\":9436:9488   */\n      mstore\n        /* \"#utility.yul\":9319:9495   */\n      pop\n      jump\t// out\n        /* \"#utility.yul\":9501:9867   */\n    tag_150:\n        /* \"#utility.yul\":9643:9646   */\n      0x00\n        /* \"#utility.yul\":9664:9731   */\n      tag_271\n        /* \"#utility.yul\":9728:9730   */\n      0x1a\n        /* \"#utility.yul\":9723:9726   */\n      dup4\n        /* \"#utility.yul\":9664:9731   */\n      tag_146\n      jump\t// in\n    tag_271:\n        /* \"#utility.yul\":9657:9731   */\n      swap2\n      pop\n        /* \"#utility.yul\":9740:9833   */\n      tag_272\n        /* \"#utility.yul\":9829:9832   */\n      dup3\n        /* \"#utility.yul\":9740:9833   */\n      tag_149\n      jump\t// in\n    tag_272:\n        /* \"#utility.yul\":9858:9860   */\n      0x20\n        /* \"#utility.yul\":9853:9856   */\n      dup3\n        /* \"#utility.yul\":9849:9861   */\n      add\n        /* \"#utility.yul\":9842:9861   */\n      swap1\n      pop\n        /* \"#utility.yul\":9501:9867   */\n      swap2\n      swap1\n      pop\n      jump\t// out\n        /* \"#utility.yul\":9873:10292   */\n    tag_76:\n        /* \"#utility.yul\":10039:10043   */\n      0x00\n        /* \"#utility.yul\":10077:10079   */\n      0x20\n        /* \"#utility.yul\":10066:10075   */\n      dup3\n        /* \"#utility.yul\":10062:10080   */\n      add\n        /* \"#utility.yul\":10054:10080   */\n      swap1\n      pop\n        /* \"#utility.yul\":10126:10135   */\n      dup2\n        /* \"#utility.yul\":10120:10124   */\n      dup2\n        /* \"#utility.yul\":10116:10136   */\n      sub\n        /* \"#utility.yul\":10112:10113   */\n      0x00\n        /* \"#utility.yul\":10101:10110   */\n      dup4\n        /* \"#utility.yul\":10097:10114   */\n      add\n        /* \"#utility.yul\":10090:10137   */\n      mstore\n        /* \"#utility.yul\":10154:10285   */\n      tag_274\n        /* \"#utility.yul\":10280:10284   */\n      dup2\n        /* \"#utility.yul\":10154:10285   */\n      tag_150\n      jump\t// in\n    tag_274:\n        /* \"#utility.yul\":10146:10285   */\n      swap1\n      pop\n        /* \"#utility.yul\":9873:10292   */\n      swap2\n      swap1\n      pop\n      jump\t// out\n        /* \"#utility.yul\":10298:10471   */\n    tag_151:\n        /* \"#utility.yul\":10438:10463   */\n      0x63616e277420766f7465206173206f6666696369616c73000000000000000000\n        /* \"#utility.yul\":10434:10435   */\n      0x00\n        /* \"#utility.yul\":10426:10432   */\n      dup3\n        /* \"#utility.yul\":10422:10436   */\n      add\n        /* \"#utility.yul\":10415:10464   */\n      mstore\n        /* \"#utility.yul\":10298:10471   */\n      pop\n      jump\t// out\n        /* \"#utility.yul\":10477:10843   */\n    tag_152:\n        /* \"#utility.yul\":10619:10622   */\n      0x00\n        /* \"#utility.yul\":10640:10707   */\n      tag_277\n        /* \"#utility.yul\":10704:10706   */\n      0x17\n        /* \"#utility.yul\":10699:10702   */\n      dup4\n        /* \"#utility.yul\":10640:10707   */\n      tag_146\n      jump\t// in\n    tag_277:\n        /* \"#utility.yul\":10633:10707   */\n      swap2\n      pop\n        /* \"#utility.yul\":10716:10809   */\n      tag_278\n        /* \"#utility.yul\":10805:10808   */\n      dup3\n        /* \"#utility.yul\":10716:10809   */\n      tag_151\n      jump\t// in\n    tag_278:\n        /* \"#utility.yul\":10834:10836   */\n      0x20\n        /* \"#utility.yul\":10829:10832   */\n      dup3\n        /* \"#utility.yul\":10825:10837   */\n      add\n        /* \"#utility.yul\":10818:10837   */\n      swap1\n      pop\n        /* \"#utility.yul\":10477:10843   */\n      swap2\n      swap1\n      pop\n      jump\t// out\n        /* \"#utility.yul\":10849:11268   */\n    tag_81:\n        /* \"#utility.yul\":11015:11019   */\n      0x00\n        /* \"#utility.yul\":11053:11055   */\n      0x20\n        /* \"#utility.yul\":11042:11051   */\n      dup3\n        /* \"#utility.yul\":11038:11056   */\n      add\n        /* \"#utility.yul\":11030:11056   */\n      swap1\n      pop\n        /* \"#utility.yul\":11102:11111   */\n      dup2\n        /* \"#utility.yul\":11096:11100   */\n      dup2\n        /* \"#utility.yul\":11092:11112   */\n      sub\n        /* \"#utility.yul\":11088:11089   */\n      0x00\n        /* \"#utility.yul\":11077:11086   */\n      dup4\n        /* \"#utility.yul\":11073:11090   */\n      add\n        /* \"#utility.yul\":11066:11113   */\n      mstore\n        /* \"#utility.yul\":11130:11261   */\n      tag_280\n        /* \"#utility.yul\":11256:11260   */\n      dup2\n        /* \"#utility.yul\":11130:11261   */\n      tag_152\n      jump\t// in\n    tag_280:\n        /* \"#utility.yul\":11122:11261   */\n      swap1\n      pop\n        /* \"#utility.yul\":10849:11268   */\n      swap2\n      swap1\n      pop\n      jump\t// out\n        /* \"#utility.yul\":11274:11502   */\n    tag_153:\n        /* \"#utility.yul\":11414:11448   */\n      0x63616e646964617465206d757374206265207265676973746572656420617320\n        /* \"#utility.yul\":11410:11411   */\n      0x00\n        /* \"#utility.yul\":11402:11408   */\n      dup3\n        /* \"#utility.yul\":11398:11412   */\n      add\n        /* \"#utility.yul\":11391:11449   */\n      mstore\n        /* \"#utility.yul\":11483:11494   */\n      0x6f6666696369616c730000000000000000000000000000000000000000000000\n        /* \"#utility.yul\":11478:11480   */\n      0x20\n        /* \"#utility.yul\":11470:11476   */\n      dup3\n        /* \"#utility.yul\":11466:11481   */\n      add\n        /* \"#utility.yul\":11459:11495   */\n      mstore\n        /* \"#utility.yul\":11274:11502   */\n      pop\n      jump\t// out\n        /* \"#utility.yul\":11508:11874   */\n    tag_154:\n        /* \"#utility.yul\":11650:11653   */\n      0x00\n        /* \"#utility.yul\":11671:11738   */\n      tag_283\n        /* \"#utility.yul\":11735:11737   */\n      0x29\n        /* \"#utility.yul\":11730:11733   */\n      dup4\n        /* \"#utility.yul\":11671:11738   */\n      tag_146\n      jump\t// in\n    tag_283:\n        /* \"#utility.yul\":11664:11738   */\n      swap2\n      pop\n        /* \"#utility.yul\":11747:11840   */\n      tag_284\n        /* \"#utility.yul\":11836:11839   */\n      dup3\n        /* \"#utility.yul\":11747:11840   */\n      tag_153\n      jump\t// in\n    tag_284:\n        /* \"#utility.yul\":11865:11867   */\n      0x40\n        /* \"#utility.yul\":11860:11863   */\n      dup3\n        /* \"#utility.yul\":11856:11868   */\n      add\n        /* \"#utility.yul\":11849:11868   */\n      swap1\n      pop\n        /* \"#utility.yul\":11508:11874   */\n      swap2\n      swap1\n      pop\n      jump\t// out\n        /* \"#utility.yul\":11880:12299   */\n    tag_84:\n        /* \"#utility.yul\":12046:12050   */\n      0x00\n        /* \"#utility.yul\":12084:12086   */\n      0x20\n        /* \"#utility.yul\":12073:12082   */\n      dup3\n        /* \"#utility.yul\":12069:12087   */\n      add\n        /* \"#utility.yul\":12061:12087   */\n      swap1\n      pop\n        /* \"#utility.yul\":12133:12142   */\n      dup2\n        /* \"#utility.yul\":12127:12131   */\n      dup2\n        /* \"#utility.yul\":12123:12143   */\n      sub\n        /* \"#utility.yul\":12119:12120   */\n      0x00\n        /* \"#utility.yul\":12108:12117   */\n      dup4\n        /* \"#utility.yul\":12104:12121   */\n      add\n        /* \"#utility.yul\":12097:12144   */\n      mstore\n        /* \"#utility.yul\":12161:12292   */\n      tag_286\n        /* \"#utility.yul\":12287:12291   */\n      dup2\n        /* \"#utility.yul\":12161:12292   */\n      tag_154\n      jump\t// in\n    tag_286:\n        /* \"#utility.yul\":12153:12292   */\n      swap1\n      pop\n        /* \"#utility.yul\":11880:12299   */\n      swap2\n      swap1\n      pop\n      jump\t// out\n        /* \"#utility.yul\":12305:12527   */\n    tag_155:\n        /* \"#utility.yul\":12445:12479   */\n      0x6f6e6c79206f776e65722063616e2064657374726f792074686520636f6e7472\n        /* \"#utility.yul\":12441:12442   */\n      0x00\n        /* \"#utility.yul\":12433:12439   */\n      dup3\n        /* \"#utility.yul\":12429:12443   */\n      add\n        /* \"#utility.yul\":12422:12480   */\n      mstore\n        /* \"#utility.yul\":12514:12519   */\n      0x6163740000000000000000000000000000000000000000000000000000000000\n        /* \"#utility.yul\":12509:12511   */\n      0x20\n        /* \"#utility.yul\":12501:12507   */\n      dup3\n        /* \"#utility.yul\":12497:12512   */\n      add\n        /* \"#utility.yul\":12490:12520   */\n      mstore\n        /* \"#utility.yul\":12305:12527   */\n      pop\n      jump\t// out\n        /* \"#utility.yul\":12533:12899   */\n    tag_156:\n        /* \"#utility.yul\":12675:12678   */\n      0x00\n        /* \"#utility.yul\":12696:12763   */\n      tag_289\n        /* \"#utility.yul\":12760:12762   */\n      0x23\n        /* \"#utility.yul\":12755:12758   */\n      dup4\n        /* \"#utility.yul\":12696:12763   */\n      tag_146\n      jump\t// in\n    tag_289:\n        /* \"#utility.yul\":12689:12763   */\n      swap2\n      pop\n        /* \"#utility.yul\":12772:12865   */\n      tag_290\n        /* \"#utility.yul\":12861:12864   */\n      dup3\n        /* \"#utility.yul\":12772:12865   */\n      tag_155\n      jump\t// in\n    tag_290:\n        /* \"#utility.yul\":12890:12892   */\n      0x40\n        /* \"#utility.yul\":12885:12888   */\n      dup3\n        /* \"#utility.yul\":12881:12893   */\n      add\n        /* \"#utility.yul\":12874:12893   */\n      swap1\n      pop\n        /* \"#utility.yul\":12533:12899   */\n      swap2\n      swap1\n      pop\n      jump\t// out\n        /* \"#utility.yul\":12905:13324   */\n    tag_88:\n        /* \"#utility.yul\":13071:13075   */\n      0x00\n        /* \"#utility.yul\":13109:13111   */\n      0x20\n        /* \"#utility.yul\":13098:13107   */\n      dup3\n        /* \"#utility.yul\":13094:13112   */\n      add\n        /* \"#utility.yul\":13086:13112   */\n      swap1\n      pop\n        /* \"#utility.yul\":13158:13167   */\n      dup2\n        /* \"#utility.yul\":13152:13156   */\n      dup2\n        /* \"#utility.yul\":13148:13168   */\n      sub\n        /* \"#utility.yul\":13144:13145   */\n      0x00\n        /* \"#utility.yul\":13133:13142   */\n      dup4\n        /* \"#utility.yul\":13129:13146   */\n      add\n        /* \"#utility.yul\":13122:13169   */\n      mstore\n        /* \"#utility.yul\":13186:13317   */\n      tag_292\n        /* \"#utility.yul\":13312:13316   */\n      dup2\n        /* \"#utility.yul\":13186:13317   */\n      tag_156\n      jump\t// in\n    tag_292:\n        /* \"#utility.yul\":13178:13317   */\n      swap1\n      pop\n        /* \"#utility.yul\":12905:13324   */\n      swap2\n      swap1\n      pop\n      jump\t// out\n        /* \"#utility.yul\":13330:13550   */\n    tag_157:\n        /* \"#utility.yul\":13470:13504   */\n      0x63757272656e74206f776e65722063616e2774207265766f6b65206163636573\n        /* \"#utility.yul\":13466:13467   */\n      0x00\n        /* \"#utility.yul\":13458:13464   */\n      dup3\n        /* \"#utility.yul\":13454:13468   */\n      add\n        /* \"#utility.yul\":13447:13505   */\n      mstore\n        /* \"#utility.yul\":13539:13542   */\n      0x7300000000000000000000000000000000000000000000000000000000000000\n        /* \"#utility.yul\":13534:13536   */\n      0x20\n        /* \"#utility.yul\":13526:13532   */\n      dup3\n        /* \"#utility.yul\":13522:13537   */\n      add\n        /* \"#utility.yul\":13515:13543   */\n      mstore\n        /* \"#utility.yul\":13330:13550   */\n      pop\n      jump\t// out\n        /* \"#utility.yul\":13556:13922   */\n    tag_158:\n        /* \"#utility.yul\":13698:13701   */\n      0x00\n        /* \"#utility.yul\":13719:13786   */\n      tag_295\n        /* \"#utility.yul\":13783:13785   */\n      0x21\n        /* \"#utility.yul\":13778:13781   */\n      dup4\n        /* \"#utility.yul\":13719:13786   */\n      tag_146\n      jump\t// in\n    tag_295:\n        /* \"#utility.yul\":13712:13786   */\n      swap2\n      pop\n        /* \"#utility.yul\":13795:13888   */\n      tag_296\n        /* \"#utility.yul\":13884:13887   */\n      dup3\n        /* \"#utility.yul\":13795:13888   */\n      tag_157\n      jump\t// in\n    tag_296:\n        /* \"#utility.yul\":13913:13915   */\n      0x40\n        /* \"#utility.yul\":13908:13911   */\n      dup3\n        /* \"#utility.yul\":13904:13916   */\n      add\n        /* \"#utility.yul\":13897:13916   */\n      swap1\n      pop\n        /* \"#utility.yul\":13556:13922   */\n      swap2\n      swap1\n      pop\n      jump\t// out\n        /* \"#utility.yul\":13928:14347   */\n    tag_94:\n        /* \"#utility.yul\":14094:14098   */\n      0x00\n        /* \"#utility.yul\":14132:14134   */\n      0x20\n        /* \"#utility.yul\":14121:14130   */\n      dup3\n        /* \"#utility.yul\":14117:14135   */\n      add\n        /* \"#utility.yul\":14109:14135   */\n      swap1\n      pop\n        /* \"#utility.yul\":14181:14190   */\n      dup2\n        /* \"#utility.yul\":14175:14179   */\n      dup2\n        /* \"#utility.yul\":14171:14191   */\n      sub\n        /* \"#utility.yul\":14167:14168   */\n      0x00\n        /* \"#utility.yul\":14156:14165   */\n      dup4\n        /* \"#utility.yul\":14152:14169   */\n      add\n        /* \"#utility.yul\":14145:14192   */\n      mstore\n        /* \"#utility.yul\":14209:14340   */\n      tag_298\n        /* \"#utility.yul\":14335:14339   */\n      dup2\n        /* \"#utility.yul\":14209:14340   */\n      tag_158\n      jump\t// in\n    tag_298:\n        /* \"#utility.yul\":14201:14340   */\n      swap1\n      pop\n        /* \"#utility.yul\":13928:14347   */\n      swap2\n      swap1\n      pop\n      jump\t// out\n        /* \"#utility.yul\":14353:14530   */\n    tag_159:\n        /* \"#utility.yul\":14493:14522   */\n      0x63616e2774207265676973746572206173206f6666696369616c730000000000\n        /* \"#utility.yul\":14489:14490   */\n      0x00\n        /* \"#utility.yul\":14481:14487   */\n      dup3\n        /* \"#utility.yul\":14477:14491   */\n      add\n        /* \"#utility.yul\":14470:14523   */\n      mstore\n        /* \"#utility.yul\":14353:14530   */\n      pop\n      jump\t// out\n        /* \"#utility.yul\":14536:14902   */\n    tag_160:\n        /* \"#utility.yul\":14678:14681   */\n      0x00\n        /* \"#utility.yul\":14699:14766   */\n      tag_301\n        /* \"#utility.yul\":14763:14765   */\n      0x1b\n        /* \"#utility.yul\":14758:14761   */\n      dup4\n        /* \"#utility.yul\":14699:14766   */\n      tag_146\n      jump\t// in\n    tag_301:\n        /* \"#utility.yul\":14692:14766   */\n      swap2\n      pop\n        /* \"#utility.yul\":14775:14868   */\n      tag_302\n        /* \"#utility.yul\":14864:14867   */\n      dup3\n        /* \"#utility.yul\":14775:14868   */\n      tag_159\n      jump\t// in\n    tag_302:\n        /* \"#utility.yul\":14893:14895   */\n      0x20\n        /* \"#utility.yul\":14888:14891   */\n      dup3\n        /* \"#utility.yul\":14884:14896   */\n      add\n        /* \"#utility.yul\":14877:14896   */\n      swap1\n      pop\n        /* \"#utility.yul\":14536:14902   */\n      swap2\n      swap1\n      pop\n      jump\t// out\n        /* \"#utility.yul\":14908:15327   */\n    tag_98:\n        /* \"#utility.yul\":15074:15078   */\n      0x00\n        /* \"#utility.yul\":15112:15114   */\n      0x20\n        /* \"#utility.yul\":15101:15110   */\n      dup3\n        /* \"#utility.yul\":15097:15115   */\n      add\n        /* \"#utility.yul\":15089:15115   */\n      swap1\n      pop\n        /* \"#utility.yul\":15161:15170   */\n      dup2\n        /* \"#utility.yul\":15155:15159   */\n      dup2\n        /* \"#utility.yul\":15151:15171   */\n      sub\n        /* \"#utility.yul\":15147:15148   */\n      0x00\n        /* \"#utility.yul\":15136:15145   */\n      dup4\n        /* \"#utility.yul\":15132:15149   */\n      add\n        /* \"#utility.yul\":15125:15172   */\n      mstore\n        /* \"#utility.yul\":15189:15320   */\n      tag_304\n        /* \"#utility.yul\":15315:15319   */\n      dup2\n        /* \"#utility.yul\":15189:15320   */\n      tag_160\n      jump\t// in\n    tag_304:\n        /* \"#utility.yul\":15181:15320   */\n      swap1\n      pop\n        /* \"#utility.yul\":14908:15327   */\n      swap2\n      swap1\n      pop\n      jump\t// out\n        /* \"#utility.yul\":15333:15514   */\n    tag_161:\n        /* \"#utility.yul\":15473:15506   */\n      0x6f6e6c79206f6666696369616c732063616e2070726f706f7365206c61777300\n        /* \"#utility.yul\":15469:15470   */\n      0x00\n        /* \"#utility.yul\":15461:15467   */\n      dup3\n        /* \"#utility.yul\":15457:15471   */\n      add\n        /* \"#utility.yul\":15450:15507   */\n      mstore\n        /* \"#utility.yul\":15333:15514   */\n      pop\n      jump\t// out\n        /* \"#utility.yul\":15520:15886   */\n    tag_162:\n        /* \"#utility.yul\":15662:15665   */\n      0x00\n        /* \"#utility.yul\":15683:15750   */\n      tag_307\n        /* \"#utility.yul\":15747:15749   */\n      0x1f\n        /* \"#utility.yul\":15742:15745   */\n      dup4\n        /* \"#utility.yul\":15683:15750   */\n      tag_146\n      jump\t// in\n    tag_307:\n        /* \"#utility.yul\":15676:15750   */\n      swap2\n      pop\n        /* \"#utility.yul\":15759:15852   */\n      tag_308\n        /* \"#utility.yul\":15848:15851   */\n      dup3\n        /* \"#utility.yul\":15759:15852   */\n      tag_161\n      jump\t// in\n    tag_308:\n        /* \"#utility.yul\":15877:15879   */\n      0x20\n        /* \"#utility.yul\":15872:15875   */\n      dup3\n        /* \"#utility.yul\":15868:15880   */\n      add\n        /* \"#utility.yul\":15861:15880   */\n      swap1\n      pop\n        /* \"#utility.yul\":15520:15886   */\n      swap2\n      swap1\n      pop\n      jump\t// out\n        /* \"#utility.yul\":15892:16311   */\n    tag_108:\n        /* \"#utility.yul\":16058:16062   */\n      0x00\n        /* \"#utility.yul\":16096:16098   */\n      0x20\n        /* \"#utility.yul\":16085:16094   */\n      dup3\n        /* \"#utility.yul\":16081:16099   */\n      add\n        /* \"#utility.yul\":16073:16099   */\n      swap1\n      pop\n        /* \"#utility.yul\":16145:16154   */\n      dup2\n        /* \"#utility.yul\":16139:16143   */\n      dup2\n        /* \"#utility.yul\":16135:16155   */\n      sub\n        /* \"#utility.yul\":16131:16132   */\n      0x00\n        /* \"#utility.yul\":16120:16129   */\n      dup4\n        /* \"#utility.yul\":16116:16133   */\n      add\n        /* \"#utility.yul\":16109:16156   */\n      mstore\n        /* \"#utility.yul\":16173:16304   */\n      tag_310\n        /* \"#utility.yul\":16299:16303   */\n      dup2\n        /* \"#utility.yul\":16173:16304   */\n      tag_162\n      jump\t// in\n    tag_310:\n        /* \"#utility.yul\":16165:16304   */\n      swap1\n      pop\n        /* \"#utility.yul\":15892:16311   */\n      swap2\n      swap1\n      pop\n      jump\t// out\n        /* \"#utility.yul\":16317:16491   */\n    tag_163:\n        /* \"#utility.yul\":16457:16483   */\n      0x6f6e6c79206f776e65722063616e20656e616374206c61770000000000000000\n        /* \"#utility.yul\":16453:16454   */\n      0x00\n        /* \"#utility.yul\":16445:16451   */\n      dup3\n        /* \"#utility.yul\":16441:16455   */\n      add\n        /* \"#utility.yul\":16434:16484   */\n      mstore\n        /* \"#utility.yul\":16317:16491   */\n      pop\n      jump\t// out\n        /* \"#utility.yul\":16497:16863   */\n    tag_164:\n        /* \"#utility.yul\":16639:16642   */\n      0x00\n        /* \"#utility.yul\":16660:16727   */\n      tag_313\n        /* \"#utility.yul\":16724:16726   */\n      0x18\n        /* \"#utility.yul\":16719:16722   */\n      dup4\n        /* \"#utility.yul\":16660:16727   */\n      tag_146\n      jump\t// in\n    tag_313:\n        /* \"#utility.yul\":16653:16727   */\n      swap2\n      pop\n        /* \"#utility.yul\":16736:16829   */\n      tag_314\n        /* \"#utility.yul\":16825:16828   */\n      dup3\n        /* \"#utility.yul\":16736:16829   */\n      tag_163\n      jump\t// in\n    tag_314:\n        /* \"#utility.yul\":16854:16856   */\n      0x20\n        /* \"#utility.yul\":16849:16852   */\n      dup3\n        /* \"#utility.yul\":16845:16857   */\n      add\n        /* \"#utility.yul\":16838:16857   */\n      swap1\n      pop\n        /* \"#utility.yul\":16497:16863   */\n      swap2\n      swap1\n      pop\n      jump\t// out\n        /* \"#utility.yul\":16869:17288   */\n    tag_112:\n        /* \"#utility.yul\":17035:17039   */\n      0x00\n        /* \"#utility.yul\":17073:17075   */\n      0x20\n        /* \"#utility.yul\":17062:17071   */\n      dup3\n        /* \"#utility.yul\":17058:17076   */\n      add\n        /* \"#utility.yul\":17050:17076   */\n      swap1\n      pop\n        /* \"#utility.yul\":17122:17131   */\n      dup2\n        /* \"#utility.yul\":17116:17120   */\n      dup2\n        /* \"#utility.yul\":17112:17132   */\n      sub\n        /* \"#utility.yul\":17108:17109   */\n      0x00\n        /* \"#utility.yul\":17097:17106   */\n      dup4\n        /* \"#utility.yul\":17093:17110   */\n      add\n        /* \"#utility.yul\":17086:17133   */\n      mstore\n        /* \"#utility.yul\":17150:17281   */\n      tag_316\n        /* \"#utility.yul\":17276:17280   */\n      dup2\n        /* \"#utility.yul\":17150:17281   */\n      tag_164\n      jump\t// in\n    tag_316:\n        /* \"#utility.yul\":17142:17281   */\n      swap1\n      pop\n        /* \"#utility.yul\":16869:17288   */\n      swap2\n      swap1\n      pop\n      jump\t// out\n\n    auxdata: 0xa2646970667358221220fb8d6683c9905c80307cd40754fedfdbe280b9e5d6b086dad820ca68692394c064736f6c634300081e0033\n}\n",
				"bytecode": {
					"linkReferences": {},
					"object": "6080604052348015600e575f5ffd5b503360025f6101000a81548173ffffffffffffffffffffffffffffffffffffffff021916908373ffffffffffffffffffffffffffffffffffffffff1602179055506113ba8061005c5f395ff3fe608060405234801561000f575f5ffd5b50600436106100cd575f3560e01c806383197ef01161008a57806397ad6afd1161006457806397ad6afd146101c1578063a84f499b146101f1578063ba05f0531461020f578063f317076c1461022b576100cd565b806383197ef01461019157806385e685311461019b57806389907717146101b7576100cd565b806309a34f00146100d15780630ae5e7391461010157806358bc73311461011d57806362e36eb81461013b5780636dd7d8ea1461014557806377b81aac14610161575b5f5ffd5b6100eb60048036038101906100e69190610b8f565b610247565b6040516100f89190610bf9565b60405180910390f35b61011b60048036038101906101169190610c4d565b610281565b005b610125610353565b6040516101329190610d2f565b60405180910390f35b6101436103de565b005b61015f600480360381019061015a9190610d79565b6104c9565b005b61017b60048036038101906101769190610d79565b6105df565b6040516101889190610dbe565b60405180910390f35b6101996105fc565b005b6101b560048036038101906101b09190610c4d565b6106c5565b005b6101bf610826565b005b6101db60048036038101906101d69190610b8f565b610967565b6040516101e89190610bf9565b60405180910390f35b6101f96109a2565b6040516102069190610d2f565b60405180910390f35b61022960048036038101906102249190610f13565b610a2c565b005b61024560048036038101906102409190610f13565b610ab9565b005b5f8181548110610255575f80fd5b905f5260205f20015f915054906101000a900473ffffffffffffffffffffffffffffffffffffffff1681565b60025f9054906101000a900473ffffffffffffffffffffffffffffffffffffffff1673ffffffffffffffffffffffffffffffffffffffff163373ffffffffffffffffffffffffffffffffffffffff1614610310576040517f08c379a000000000000000000000000000000000000000000000000000000000815260040161030790610fb4565b60405180910390fd5b8060025f6101000a81548173ffffffffffffffffffffffffffffffffffffffff021916908373ffffffffffffffffffffffffffffffffffffffff16021790555050565b606060018054806020026020016040519081016040528092919081815260200182805480156103d457602002820191905f5260205f20905b815f9054906101000a900473ffffffffffffffffffffffffffffffffffffffff1673ffffffffffffffffffffffffffffffffffffffff168152602001906001019080831161038b575b5050505050905090565b60035f3373ffffffffffffffffffffffffffffffffffffffff1673ffffffffffffffffffffffffffffffffffffffff1681526020019081526020015f205f9054906101000a900460ff1615610468576040517f08c379a000000000000000000000000000000000000000000000000000000000815260040161045f9061101c565b60405180910390fd5b5f33908060018154018082558091505060019003905f5260205f20015f9091909190916101000a81548173ffffffffffffffffffffffffffffffffffffffff021916908373ffffffffffffffffffffffffffffffffffffffff160217905550565b60035f3373ffffffffffffffffffffffffffffffffffffffff1673ffffffffffffffffffffffffffffffffffffffff1681526020019081526020015f205f9054906101000a900460ff1615610553576040517f08c379a000000000000000000000000000000000000000000000000000000000815260040161054a90611084565b60405180910390fd5b60035f8273ffffffffffffffffffffffffffffffffffffffff1673ffffffffffffffffffffffffffffffffffffffff1681526020019081526020015f205f9054906101000a900460ff166105dc576040517f08c379a00000000000000000000000000000000000000000000000000000000081526004016105d390611112565b60405180910390fd5b50565b6003602052805f5260405f205f915054906101000a900460ff1681565b60025f9054906101000a900473ffffffffffffffffffffffffffffffffffffffff1673ffffffffffffffffffffffffffffffffffffffff163373ffffffffffffffffffffffffffffffffffffffff161461068b576040517f08c379a0000000000000000000000000000000000000000000000000000000008152600401610682906111a0565b60405180910390fd5b60025f9054906101000a900473ffffffffffffffffffffffffffffffffffffffff1673ffffffffffffffffffffffffffffffffffffffff16ff5b60025f9054906101000a900473ffffffffffffffffffffffffffffffffffffffff1673ffffffffffffffffffffffffffffffffffffffff163373ffffffffffffffffffffffffffffffffffffffff1614610754576040517f08c379a000000000000000000000000000000000000000000000000000000000815260040161074b90610fb4565b60405180910390fd5b60025f9054906101000a900473ffffffffffffffffffffffffffffffffffffffff1673ffffffffffffffffffffffffffffffffffffffff168173ffffffffffffffffffffffffffffffffffffffff16036107e3576040517f08c379a00000000000000000000000000000000000000000000000000000000081526004016107da9061122e565b60405180910390fd5b3360025f6101000a81548173ffffffffffffffffffffffffffffffffffffffff021916908373ffffffffffffffffffffffffffffffffffffffff16021790555050565b60035f3373ffffffffffffffffffffffffffffffffffffffff1673ffffffffffffffffffffffffffffffffffffffff1681526020019081526020015f205f9054906101000a900460ff16156108b0576040517f08c379a00000000000000000000000000000000000000000000000000000000081526004016108a790611296565b60405180910390fd5b600133908060018154018082558091505060019003905f5260205f20015f9091909190916101000a81548173ffffffffffffffffffffffffffffffffffffffff021916908373ffffffffffffffffffffffffffffffffffffffff160217905550600160035f3373ffffffffffffffffffffffffffffffffffffffff1673ffffffffffffffffffffffffffffffffffffffff1681526020019081526020015f205f6101000a81548160ff021916908315150217905550565b60018181548110610976575f80fd5b905f5260205f20015f915054906101000a900473ffffffffffffffffffffffffffffffffffffffff1681565b60605f805480602002602001604051908101604052809291908181526020018280548015610a2257602002820191905f5260205f20905b815f9054906101000a900473ffffffffffffffffffffffffffffffffffffffff1673ffffffffffffffffffffffffffffffffffffffff16815260200190600101908083116109d9575b5050505050905090565b60035f3373ffffffffffffffffffffffffffffffffffffffff1673ffffffffffffffffffffffffffffffffffffffff1681526020019081526020015f205f9054906101000a900460ff1615610ab6576040517f08c379a0000000000000000000000000000000000000000000000000000000008152600401610aad906112fe565b60405180910390fd5b50565b60025f9054906101000a900473ffffffffffffffffffffffffffffffffffffffff1673ffffffffffffffffffffffffffffffffffffffff163373ffffffffffffffffffffffffffffffffffffffff1614610b48576040517f08c379a0000000000000000000000000000000000000000000000000000000008152600401610b3f90611366565b60405180910390fd5b50565b5f604051905090565b5f5ffd5b5f5ffd5b5f819050919050565b610b6e81610b5c565b8114610b78575f5ffd5b50565b5f81359050610b8981610b65565b92915050565b5f60208284031215610ba457610ba3610b54565b5b5f610bb184828501610b7b565b91505092915050565b5f73ffffffffffffffffffffffffffffffffffffffff82169050919050565b5f610be382610bba565b9050919050565b610bf381610bd9565b82525050565b5f602082019050610c0c5f830184610bea565b92915050565b5f610c1c82610bba565b9050919050565b610c2c81610c12565b8114610c36575f5ffd5b50565b5f81359050610c4781610c23565b92915050565b5f60208284031215610c6257610c61610b54565b5b5f610c6f84828501610c39565b91505092915050565b5f81519050919050565b5f82825260208201905092915050565b5f819050602082019050919050565b610caa81610bd9565b82525050565b5f610cbb8383610ca1565b60208301905092915050565b5f602082019050919050565b5f610cdd82610c78565b610ce78185610c82565b9350610cf283610c92565b805f5b83811015610d22578151610d098882610cb0565b9750610d1483610cc7565b925050600181019050610cf5565b5085935050505092915050565b5f6020820190508181035f830152610d478184610cd3565b905092915050565b610d5881610bd9565b8114610d62575f5ffd5b50565b5f81359050610d7381610d4f565b92915050565b5f60208284031215610d8e57610d8d610b54565b5b5f610d9b84828501610d65565b91505092915050565b5f8115159050919050565b610db881610da4565b82525050565b5f602082019050610dd15f830184610daf565b92915050565b5f5ffd5b5f5ffd5b5f601f19601f8301169050919050565b7f4e487b71000000000000000000000000000000000000000000000000000000005f52604160045260245ffd5b610e2582610ddf565b810181811067ffffffffffffffff82111715610e4457610e43610def565b5b80604052505050565b5f610e56610b4b565b9050610e628282610e1c565b919050565b5f67ffffffffffffffff821115610e8157610e80610def565b5b610e8a82610ddf565b9050602081019050919050565b828183375f83830152505050565b5f610eb7610eb284610e67565b610e4d565b905082815260208101848484011115610ed357610ed2610ddb565b5b610ede848285610e97565b509392505050565b5f82601f830112610efa57610ef9610dd7565b5b8135610f0a848260208601610ea5565b91505092915050565b5f60208284031215610f2857610f27610b54565b5b5f82013567ffffffffffffffff811115610f4557610f44610b58565b5b610f5184828501610ee6565b91505092915050565b5f82825260208201905092915050565b7f6f6e6c79206f776e65722063616e2067697665207468652061636365737300005f82015250565b5f610f9e601e83610f5a565b9150610fa982610f6a565b602082019050919050565b5f6020820190508181035f830152610fcb81610f92565b9050919050565b7f6f6e6c79206f6666696369616c2063616e2072656769737465720000000000005f82015250565b5f611006601a83610f5a565b915061101182610fd2565b602082019050919050565b5f6020820190508181035f83015261103381610ffa565b9050919050565b7f63616e277420766f7465206173206f6666696369616c730000000000000000005f82015250565b5f61106e601783610f5a565b91506110798261103a565b602082019050919050565b5f6020820190508181035f83015261109b81611062565b9050919050565b7f63616e646964617465206d7573742062652072656769737465726564206173205f8201527f6f6666696369616c730000000000000000000000000000000000000000000000602082015250565b5f6110fc602983610f5a565b9150611107826110a2565b604082019050919050565b5f6020820190508181035f830152611129816110f0565b9050919050565b7f6f6e6c79206f776e65722063616e2064657374726f792074686520636f6e74725f8201527f6163740000000000000000000000000000000000000000000000000000000000602082015250565b5f61118a602383610f5a565b915061119582611130565b604082019050919050565b5f6020820190508181035f8301526111b78161117e565b9050919050565b7f63757272656e74206f776e65722063616e2774207265766f6b652061636365735f8201527f7300000000000000000000000000000000000000000000000000000000000000602082015250565b5f611218602183610f5a565b9150611223826111be565b604082019050919050565b5f6020820190508181035f8301526112458161120c565b9050919050565b7f63616e2774207265676973746572206173206f6666696369616c7300000000005f82015250565b5f611280601b83610f5a565b915061128b8261124c565b602082019050919050565b5f6020820190508181035f8301526112ad81611274565b9050919050565b7f6f6e6c79206f6666696369616c732063616e2070726f706f7365206c617773005f82015250565b5f6112e8601f83610f5a565b91506112f3826112b4565b602082019050919050565b5f6020820190508181035f830152611315816112dc565b9050919050565b7f6f6e6c79206f776e65722063616e20656e616374206c617700000000000000005f82015250565b5f611350601883610f5a565b915061135b8261131c565b602082019050919050565b5f6020820190508181035f83015261137d81611344565b905091905056fea2646970667358221220fb8d6683c9905c80307cd40754fedfdbe280b9e5d6b086dad820ca68692394c064736f6c634300081e0033",
					"opcodes": "PUSH1 0x80 PUSH1 0x40 MSTORE CALLVALUE DUP1 ISZERO PUSH1 0xE JUMPI PUSH0 PUSH0 REVERT JUMPDEST POP CALLER PUSH1 0x2 PUSH0 PUSH2 0x100 EXP DUP2 SLOAD DUP2 PUSH20 0xFFFFFFFFFFFFFFFFFFFFFFFFFFFFFFFFFFFFFFFF MUL NOT AND SWAP1 DUP4 PUSH20 0xFFFFFFFFFFFFFFFFFFFFFFFFFFFFFFFFFFFFFFFF AND MUL OR SWAP1 SSTORE POP PUSH2 0x13BA DUP1 PUSH2 0x5C PUSH0 CODECOPY PUSH0 RETURN INVALID PUSH1 0x80 PUSH1 0x40 MSTORE CALLVALUE DUP1 ISZERO PUSH2 0xF JUMPI PUSH0 PUSH0 REVERT JUMPDEST POP PUSH1 0x4 CALLDATASIZE LT PUSH2 0xCD JUMPI PUSH0 CALLDATALOAD PUSH1 0xE0 SHR DUP1 PUSH4 0x83197EF0 GT PUSH2 0x8A JUMPI DUP1 PUSH4 0x97AD6AFD GT PUSH2 0x64 JUMPI DUP1 PUSH4 0x97AD6AFD EQ PUSH2 0x1C1 JUMPI DUP1 PUSH4 0xA84F499B EQ PUSH2 0x1F1 JUMPI DUP1 PUSH4 0xBA05F053 EQ PUSH2 0x20F JUMPI DUP1 PUSH4 0xF317076C EQ PUSH2 0x22B JUMPI PUSH2 0xCD JUMP JUMPDEST DUP1 PUSH4 0x83197EF0 EQ PUSH2 0x191 JUMPI DUP1 PUSH4 0x85E68531 EQ PUSH2 0x19B JUMPI DUP1 PUSH4 0x89907717 EQ PUSH2 0x1B7 JUMPI PUSH2 0xCD JUMP JUMPDEST DUP1 PUSH4 0x9A34F00 EQ PUSH2 0xD1 JUMPI DUP1 PUSH4 0xAE5E739 EQ PUSH2 0x101 JUMPI DUP1 PUSH4 0x58BC7331 EQ PUSH2 0x11D JUMPI DUP1 PUSH4 0x62E36EB8 EQ PUSH2 0x13B JUMPI DUP1 PUSH4 0x6DD7D8EA EQ PUSH2 0x145 JUMPI DUP1 PUSH4 0x77B81AAC EQ PUSH2 0x161 JUMPI JUMPDEST PUSH0 PUSH0 REVERT JUMPDEST PUSH2 0xEB PUSH1 0x4 DUP1 CALLDATASIZE SUB DUP2 ADD SWAP1 PUSH2 0xE6 SWAP2 SWAP1 PUSH2 0xB8F JUMP JUMPDEST PUSH2 0x247 JUMP JUMPDEST PUSH1 0x40 MLOAD PUSH2 0xF8 SWAP2 SWAP1 PUSH2 0xBF9 JUMP JUMPDEST PUSH1 0x40 MLOAD DUP1 SWAP2 SUB SWAP1 RETURN JUMPDEST PUSH2 0x11B PUSH1 0x4 DUP1 CALLDATASIZE SUB DUP2 ADD SWAP1 PUSH2 0x116 SWAP2 SWAP1 PUSH2 0xC4D JUMP JUMPDEST PUSH2 0x281 JUMP JUMPDEST STOP JUMPDEST PUSH2 0x125 PUSH2 0x353 JUMP JUMPDEST PUSH1 0x40 MLOAD PUSH2 0x132 SWAP2 SWAP1 PUSH2 0xD2F JUMP JUMPDEST PUSH1 0x40 MLOAD DUP1 SWAP2 SUB SWAP1 RETURN JUMPDEST PUSH2 0x143 PUSH2 0x3DE JUMP JUMPDEST STOP JUMPDEST PUSH2 0x15F PUSH1 0x4 DUP1 CALLDATASIZE SUB DUP2 ADD SWAP1 PUSH2 0x15A SWAP2 SWAP1 PUSH2 0xD79 JUMP JUMPDEST PUSH2 0x4C9 JUMP JUMPDEST STOP JUMPDEST PUSH2 0x17B PUSH1 0x4 DUP1 CALLDATASIZE SUB DUP2 ADD SWAP1 PUSH2 0x176 SWAP2 SWAP1 PUSH2 0xD79 JUMP JUMPDEST PUSH2 0x5DF JUMP JUMPDEST PUSH1 0x40 MLOAD PUSH2 0x188 SWAP2 SWAP1 PUSH2 0xDBE JUMP JUMPDEST PUSH1 0x40 MLOAD DUP1 SWAP2 SUB SWAP1 RETURN JUMPDEST PUSH2 0x199 PUSH2 0x5FC JUMP JUMPDEST STOP JUMPDEST PUSH2 0x1B5 PUSH1 0x4 DUP1 CALLDATASIZE SUB DUP2 ADD SWAP1 PUSH2 0x1B0 SWAP2 SWAP1 PUSH2 0xC4D JUMP JUMPDEST PUSH2 0x6C5 JUMP JUMPDEST STOP JUMPDEST PUSH2 0x1BF PUSH2 0x826 JUMP JUMPDEST STOP JUMPDEST PUSH2 0x1DB PUSH1 0x4 DUP1 CALLDATASIZE SUB DUP2 ADD SWAP1 PUSH2 0x1D6 SWAP2 SWAP1 PUSH2 0xB8F JUMP JUMPDEST PUSH2 0x967 JUMP JUMPDEST PUSH1 0x40 MLOAD PUSH2 0x1E8 SWAP2 SWAP1 PUSH2 0xBF9 JUMP JUMPDEST PUSH1 0x40 MLOAD DUP1 SWAP2 SUB SWAP1 RETURN JUMPDEST PUSH2 0x1F9 PUSH2 0x9A2 JUMP JUMPDEST PUSH1 0x40 MLOAD PUSH2 0x206 SWAP2 SWAP1 PUSH2 0xD2F JUMP JUMPDEST PUSH1 0x40 MLOAD DUP1 SWAP2 SUB SWAP1 RETURN JUMPDEST PUSH2 0x229 PUSH1 0x4 DUP1 CALLDATASIZE SUB DUP2 ADD SWAP1 PUSH2 0x224 SWAP2 SWAP1 PUSH2 0xF13 JUMP JUMPDEST PUSH2 0xA2C JUMP JUMPDEST STOP JUMPDEST PUSH2 0x245 PUSH1 0x4 DUP1 CALLDATASIZE SUB DUP2 ADD SWAP1 PUSH2 0x240 SWAP2 SWAP1 PUSH2 0xF13 JUMP JUMPDEST PUSH2 0xAB9 JUMP JUMPDEST STOP JUMPDEST PUSH0 DUP2 DUP2 SLOAD DUP2 LT PUSH2 0x255 JUMPI PUSH0 DUP1 REVERT JUMPDEST SWAP1 PUSH0 MSTORE PUSH1 0x20 PUSH0 KECCAK256 ADD PUSH0 SWAP2 POP SLOAD SWAP1 PUSH2 0x100 EXP SWAP1 DIV PUSH20 0xFFFFFFFFFFFFFFFFFFFFFFFFFFFFFFFFFFFFFFFF AND DUP2 JUMP JUMPDEST PUSH1 0x2 PUSH0 SWAP1 SLOAD SWAP1 PUSH2 0x100 EXP SWAP1 DIV PUSH20 0xFFFFFFFFFFFFFFFFFFFFFFFFFFFFFFFFFFFFFFFF AND PUSH20 0xFFFFFFFFFFFFFFFFFFFFFFFFFFFFFFFFFFFFFFFF AND CALLER PUSH20 0xFFFFFFFFFFFFFFFFFFFFFFFFFFFFFFFFFFFFFFFF AND EQ PUSH2 0x310 JUMPI PUSH1 0x40 MLOAD PUSH32 0x8C379A000000000000000000000000000000000000000000000000000000000 DUP2 MSTORE PUSH1 0x4 ADD PUSH2 0x307 SWAP1 PUSH2 0xFB4 JUMP JUMPDEST PUSH1 0x40 MLOAD DUP1 SWAP2 SUB SWAP1 REVERT JUMPDEST DUP1 PUSH1 0x2 PUSH0 PUSH2 0x100 EXP DUP2 SLOAD DUP2 PUSH20 0xFFFFFFFFFFFFFFFFFFFFFFFFFFFFFFFFFFFFFFFF MUL NOT AND SWAP1 DUP4 PUSH20 0xFFFFFFFFFFFFFFFFFFFFFFFFFFFFFFFFFFFFFFFF AND MUL OR SWAP1 SSTORE POP POP JUMP JUMPDEST PUSH1 0x60 PUSH1 0x1 DUP1 SLOAD DUP1 PUSH1 0x20 MUL PUSH1 0x20 ADD PUSH1 0x40 MLOAD SWAP1 DUP2 ADD PUSH1 0x40 MSTORE DUP1 SWAP3 SWAP2 SWAP1 DUP2 DUP2 MSTORE PUSH1 0x20 ADD DUP3 DUP1 SLOAD DUP1 ISZERO PUSH2 0x3D4 JUMPI PUSH1 0x20 MUL DUP3 ADD SWAP2 SWAP1 PUSH0 MSTORE PUSH1 0x20 PUSH0 KECCAK256 SWAP1 JUMPDEST DUP2 PUSH0 SWAP1 SLOAD SWAP1 PUSH2 0x100 EXP SWAP1 DIV PUSH20 0xFFFFFFFFFFFFFFFFFFFFFFFFFFFFFFFFFFFFFFFF AND PUSH20 0xFFFFFFFFFFFFFFFFFFFFFFFFFFFFFFFFFFFFFFFF AND DUP2 MSTORE PUSH1 0x20 ADD SWAP1 PUSH1 0x1 ADD SWAP1 DUP1 DUP4 GT PUSH2 0x38B JUMPI JUMPDEST POP POP POP POP POP SWAP1 POP SWAP1 JUMP JUMPDEST PUSH1 0x3 PUSH0 CALLER PUSH20 0xFFFFFFFFFFFFFFFFFFFFFFFFFFFFFFFFFFFFFFFF AND PUSH20 0xFFFFFFFFFFFFFFFFFFFFFFFFFFFFFFFFFFFFFFFF AND DUP2 MSTORE PUSH1 0x20 ADD SWAP1 DUP2 MSTORE PUSH1 0x20 ADD PUSH0 KECCAK256 PUSH0 SWAP1 SLOAD SWAP1 PUSH2 0x100 EXP SWAP1 DIV PUSH1 0xFF AND ISZERO PUSH2 0x468 JUMPI PUSH1 0x40 MLOAD PUSH32 0x8C379A000000000000000000000000000000000000000000000000000000000 DUP2 MSTORE PUSH1 0x4 ADD PUSH2 0x45F SWAP1 PUSH2 0x101C JUMP JUMPDEST PUSH1 0x40 MLOAD DUP1 SWAP2 SUB SWAP1 REVERT JUMPDEST PUSH0 CALLER SWAP1 DUP1 PUSH1 0x1 DUP2 SLOAD ADD DUP1 DUP3 SSTORE DUP1 SWAP2 POP POP PUSH1 0x1 SWAP1 SUB SWAP1 PUSH0 MSTORE PUSH1 0x20 PUSH0 KECCAK256 ADD PUSH0 SWAP1 SWAP2 SWAP1 SWAP2 SWAP1 SWAP2 PUSH2 0x100 EXP DUP2 SLOAD DUP2 PUSH20 0xFFFFFFFFFFFFFFFFFFFFFFFFFFFFFFFFFFFFFFFF MUL NOT AND SWAP1 DUP4 PUSH20 0xFFFFFFFFFFFFFFFFFFFFFFFFFFFFFFFFFFFFFFFF AND MUL OR SWAP1 SSTORE POP JUMP JUMPDEST PUSH1 0x3 PUSH0 CALLER PUSH20 0xFFFFFFFFFFFFFFFFFFFFFFFFFFFFFFFFFFFFFFFF AND PUSH20 0xFFFFFFFFFFFFFFFFFFFFFFFFFFFFFFFFFFFFFFFF AND DUP2 MSTORE PUSH1 0x20 ADD SWAP1 DUP2 MSTORE PUSH1 0x20 ADD PUSH0 KECCAK256 PUSH0 SWAP1 SLOAD SWAP1 PUSH2 0x100 EXP SWAP1 DIV PUSH1 0xFF AND ISZERO PUSH2 0x553 JUMPI PUSH1 0x40 MLOAD PUSH32 0x8C379A000000000000000000000000000000000000000000000000000000000 DUP2 MSTORE PUSH1 0x4 ADD PUSH2 0x54A SWAP1 PUSH2 0x1084 JUMP JUMPDEST PUSH1 0x40 MLOAD DUP1 SWAP2 SUB SWAP1 REVERT JUMPDEST PUSH1 0x3 PUSH0 DUP3 PUSH20 0xFFFFFFFFFFFFFFFFFFFFFFFFFFFFFFFFFFFFFFFF AND PUSH20 0xFFFFFFFFFFFFFFFFFFFFFFFFFFFFFFFFFFFFFFFF AND DUP2 MSTORE PUSH1 0x20 ADD SWAP1 DUP2 MSTORE PUSH1 0x20 ADD PUSH0 KECCAK256 PUSH0 SWAP1 SLOAD SWAP1 PUSH2 0x100 EXP SWAP1 DIV PUSH1 0xFF AND PUSH2 0x5DC JUMPI PUSH1 0x40 MLOAD PUSH32 0x8C379A000000000000000000000000000000000000000000000000000000000 DUP2 MSTORE PUSH1 0x4 ADD PUSH2 0x5D3 SWAP1 PUSH2 0x1112 JUMP JUMPDEST PUSH1 0x40 MLOAD DUP1 SWAP2 SUB SWAP1 REVERT JUMPDEST POP JUMP JUMPDEST PUSH1 0x3 PUSH1 0x20 MSTORE DUP1 PUSH0 MSTORE PUSH1 0x40 PUSH0 KECCAK256 PUSH0 SWAP2 POP SLOAD SWAP1 PUSH2 0x100 EXP SWAP1 DIV PUSH1 0xFF AND DUP2 JUMP JUMPDEST PUSH1 0x2 PUSH0 SWAP1 SLOAD SWAP1 PUSH2 0x100 EXP SWAP1 DIV PUSH20 0xFFFFFFFFFFFFFFFFFFFFFFFFFFFFFFFFFFFFFFFF AND PUSH20 0xFFFFFFFFFFFFFFFFFFFFFFFFFFFFFFFFFFFFFFFF AND CALLER PUSH20 0xFFFFFFFFFFFFFFFFFFFFFFFFFFFFFFFFFFFFFFFF AND EQ PUSH2 0x68B JUMPI PUSH1 0x40 MLOAD PUSH32 0x8C379A000000000000000000000000000000000000000000000000000000000 DUP2 MSTORE PUSH1 0x4 ADD PUSH2 0x682 SWAP1 PUSH2 0x11A0 JUMP JUMPDEST PUSH1 0x40 MLOAD DUP1 SWAP2 SUB SWAP1 REVERT JUMPDEST PUSH1 0x2 PUSH0 SWAP1 SLOAD SWAP1 PUSH2 0x100 EXP SWAP1 DIV PUSH20 0xFFFFFFFFFFFFFFFFFFFFFFFFFFFFFFFFFFFFFFFF AND PUSH20 0xFFFFFFFFFFFFFFFFFFFFFFFFFFFFFFFFFFFFFFFF AND SELFDESTRUCT JUMPDEST PUSH1 0x2 PUSH0 SWAP1 SLOAD SWAP1 PUSH2 0x100 EXP SWAP1 DIV PUSH20 0xFFFFFFFFFFFFFFFFFFFFFFFFFFFFFFFFFFFFFFFF AND PUSH20 0xFFFFFFFFFFFFFFFFFFFFFFFFFFFFFFFFFFFFFFFF AND CALLER PUSH20 0xFFFFFFFFFFFFFFFFFFFFFFFFFFFFFFFFFFFFFFFF AND EQ PUSH2 0x754 JUMPI PUSH1 0x40 MLOAD PUSH32 0x8C379A000000000000000000000000000000000000000000000000000000000 DUP2 MSTORE PUSH1 0x4 ADD PUSH2 0x74B SWAP1 PUSH2 0xFB4 JUMP JUMPDEST PUSH1 0x40 MLOAD DUP1 SWAP2 SUB SWAP1 REVERT JUMPDEST PUSH1 0x2 PUSH0 SWAP1 SLOAD SWAP1 PUSH2 0x100 EXP SWAP1 DIV PUSH20 0xFFFFFFFFFFFFFFFFFFFFFFFFFFFFFFFFFFFFFFFF AND PUSH20 0xFFFFFFFFFFFFFFFFFFFFFFFFFFFFFFFFFFFFFFFF AND DUP2 PUSH20 0xFFFFFFFFFFFFFFFFFFFFFFFFFFFFFFFFFFFFFFFF AND SUB PUSH2 0x7E3 JUMPI PUSH1 0x40 MLOAD PUSH32 0x8C379A000000000000000000000000000000000000000000000000000000000 DUP2 MSTORE PUSH1 0x4 ADD PUSH2 0x7DA SWAP1 PUSH2 0x122E JUMP JUMPDEST PUSH1 0x40 MLOAD DUP1 SWAP2 SUB SWAP1 REVERT JUMPDEST CALLER PUSH1 0x2 PUSH0 PUSH2 0x100 EXP DUP2 SLOAD DUP2 PUSH20 0xFFFFFFFFFFFFFFFFFFFFFFFFFFFFFFFFFFFFFFFF MUL NOT AND SWAP1 DUP4 PUSH20 0xFFFFFFFFFFFFFFFFFFFFFFFFFFFFFFFFFFFFFFFF AND MUL OR SWAP1 SSTORE POP POP JUMP JUMPDEST PUSH1 0x3 PUSH0 CALLER PUSH20 0xFFFFFFFFFFFFFFFFFFFFFFFFFFFFFFFFFFFFFFFF AND PUSH20 0xFFFFFFFFFFFFFFFFFFFFFFFFFFFFFFFFFFFFFFFF AND DUP2 MSTORE PUSH1 0x20 ADD SWAP1 DUP2 MSTORE PUSH1 0x20 ADD PUSH0 KECCAK256 PUSH0 SWAP1 SLOAD SWAP1 PUSH2 0x100 EXP SWAP1 DIV PUSH1 0xFF AND ISZERO PUSH2 0x8B0 JUMPI PUSH1 0x40 MLOAD PUSH32 0x8C379A000000000000000000000000000000000000000000000000000000000 DUP2 MSTORE PUSH1 0x4 ADD PUSH2 0x8A7 SWAP1 PUSH2 0x1296 JUMP JUMPDEST PUSH1 0x40 MLOAD DUP1 SWAP2 SUB SWAP1 REVERT JUMPDEST PUSH1 0x1 CALLER SWAP1 DUP1 PUSH1 0x1 DUP2 SLOAD ADD DUP1 DUP3 SSTORE DUP1 SWAP2 POP POP PUSH1 0x1 SWAP1 SUB SWAP1 PUSH0 MSTORE PUSH1 0x20 PUSH0 KECCAK256 ADD PUSH0 SWAP1 SWAP2 SWAP1 SWAP2 SWAP1 SWAP2 PUSH2 0x100 EXP DUP2 SLOAD DUP2 PUSH20 0xFFFFFFFFFFFFFFFFFFFFFFFFFFFFFFFFFFFFFFFF MUL NOT AND SWAP1 DUP4 PUSH20 0xFFFFFFFFFFFFFFFFFFFFFFFFFFFFFFFFFFFFFFFF AND MUL OR SWAP1 SSTORE POP PUSH1 0x1 PUSH1 0x3 PUSH0 CALLER PUSH20 0xFFFFFFFFFFFFFFFFFFFFFFFFFFFFFFFFFFFFFFFF AND PUSH20 0xFFFFFFFFFFFFFFFFFFFFFFFFFFFFFFFFFFFFFFFF AND DUP2 MSTORE PUSH1 0x20 ADD SWAP1 DUP2 MSTORE PUSH1 0x20 ADD PUSH0 KECCAK256 PUSH0 PUSH2 0x100 EXP DUP2 SLOAD DUP2 PUSH1 0xFF MUL NOT AND SWAP1 DUP4 ISZERO ISZERO MUL OR SWAP1 SSTORE POP JUMP JUMPDEST PUSH1 0x1 DUP2 DUP2 SLOAD DUP2 LT PUSH2 0x976 JUMPI PUSH0 DUP1 REVERT JUMPDEST SWAP1 PUSH0 MSTORE PUSH1 0x20 PUSH0 KECCAK256 ADD PUSH0 SWAP2 POP SLOAD SWAP1 PUSH2 0x100 EXP SWAP1 DIV PUSH20 0xFFFFFFFFFFFFFFFFFFFFFFFFFFFFFFFFFFFFFFFF AND DUP2 JUMP JUMPDEST PUSH1 0x60 PUSH0 DUP1 SLOAD DUP1 PUSH1 0x20 MUL PUSH1 0x20 ADD PUSH1 0x40 MLOAD SWAP1 DUP2 ADD PUSH1 0x40 MSTORE DUP1 SWAP3 SWAP2 SWAP1 DUP2 DUP2 MSTORE PUSH1 0x20 ADD DUP3 DUP1 SLOAD DUP1 ISZERO PUSH2 0xA22 JUMPI PUSH1 0x20 MUL DUP3 ADD SWAP2 SWAP1 PUSH0 MSTORE PUSH1 0x20 PUSH0 KECCAK256 SWAP1 JUMPDEST DUP2 PUSH0 SWAP1 SLOAD SWAP1 PUSH2 0x100 EXP SWAP1 DIV PUSH20 0xFFFFFFFFFFFFFFFFFFFFFFFFFFFFFFFFFFFFFFFF AND PUSH20 0xFFFFFFFFFFFFFFFFFFFFFFFFFFFFFFFFFFFFFFFF AND DUP2 MSTORE PUSH1 0x20 ADD SWAP1 PUSH1 0x1 ADD SWAP1 DUP1 DUP4 GT PUSH2 0x9D9 JUMPI JUMPDEST POP POP POP POP POP SWAP1 POP SWAP1 JUMP JUMPDEST PUSH1 0x3 PUSH0 CALLER PUSH20 0xFFFFFFFFFFFFFFFFFFFFFFFFFFFFFFFFFFFFFFFF AND PUSH20 0xFFFFFFFFFFFFFFFFFFFFFFFFFFFFFFFFFFFFFFFF AND DUP2 MSTORE PUSH1 0x20 ADD SWAP1 DUP2 MSTORE PUSH1 0x20 ADD PUSH0 KECCAK256 PUSH0 SWAP1 SLOAD SWAP1 PUSH2 0x100 EXP SWAP1 DIV PUSH1 0xFF AND ISZERO PUSH2 0xAB6 JUMPI PUSH1 0x40 MLOAD PUSH32 0x8C379A000000000000000000000000000000000000000000000000000000000 DUP2 MSTORE PUSH1 0x4 ADD PUSH2 0xAAD SWAP1 PUSH2 0x12FE JUMP JUMPDEST PUSH1 0x40 MLOAD DUP1 SWAP2 SUB SWAP1 REVERT JUMPDEST POP JUMP JUMPDEST PUSH1 0x2 PUSH0 SWAP1 SLOAD SWAP1 PUSH2 0x100 EXP SWAP1 DIV PUSH20 0xFFFFFFFFFFFFFFFFFFFFFFFFFFFFFFFFFFFFFFFF AND PUSH20 0xFFFFFFFFFFFFFFFFFFFFFFFFFFFFFFFFFFFFFFFF AND CALLER PUSH20 0xFFFFFFFFFFFFFFFFFFFFFFFFFFFFFFFFFFFFFFFF AND EQ PUSH2 0xB48 JUMPI PUSH1 0x40 MLOAD PUSH32 0x8C379A000000000000000000000000000000000000000000000000000000000 DUP2 MSTORE PUSH1 0x4 ADD PUSH2 0xB3F SWAP1 PUSH2 0x1366 JUMP JUMPDEST PUSH1 0x40 MLOAD DUP1 SWAP2 SUB SWAP1 REVERT JUMPDEST POP JUMP JUMPDEST PUSH0 PUSH1 0x40 MLOAD SWAP1 POP SWAP1 JUMP JUMPDEST PUSH0 PUSH0 REVERT JUMPDEST PUSH0 PUSH0 REVERT JUMPDEST PUSH0 DUP2 SWAP1 POP SWAP2 SWAP1 POP JUMP JUMPDEST PUSH2 0xB6E DUP2 PUSH2 0xB5C JUMP JUMPDEST DUP2 EQ PUSH2 0xB78 JUMPI PUSH0 PUSH0 REVERT JUMPDEST POP JUMP JUMPDEST PUSH0 DUP2 CALLDATALOAD SWAP1 POP PUSH2 0xB89 DUP2 PUSH2 0xB65 JUMP JUMPDEST SWAP3 SWAP2 POP POP JUMP JUMPDEST PUSH0 PUSH1 0x20 DUP3 DUP5 SUB SLT ISZERO PUSH2 0xBA4 JUMPI PUSH2 0xBA3 PUSH2 0xB54 JUMP JUMPDEST JUMPDEST PUSH0 PUSH2 0xBB1 DUP5 DUP3 DUP6 ADD PUSH2 0xB7B JUMP JUMPDEST SWAP2 POP POP SWAP3 SWAP2 POP POP JUMP JUMPDEST PUSH0 PUSH20 0xFFFFFFFFFFFFFFFFFFFFFFFFFFFFFFFFFFFFFFFF DUP3 AND SWAP1 POP SWAP2 SWAP1 POP JUMP JUMPDEST PUSH0 PUSH2 0xBE3 DUP3 PUSH2 0xBBA JUMP JUMPDEST SWAP1 POP SWAP2 SWAP1 POP JUMP JUMPDEST PUSH2 0xBF3 DUP2 PUSH2 0xBD9 JUMP JUMPDEST DUP3 MSTORE POP POP JUMP JUMPDEST PUSH0 PUSH1 0x20 DUP3 ADD SWAP1 POP PUSH2 0xC0C PUSH0 DUP4 ADD DUP5 PUSH2 0xBEA JUMP JUMPDEST SWAP3 SWAP2 POP POP JUMP JUMPDEST PUSH0 PUSH2 0xC1C DUP3 PUSH2 0xBBA JUMP JUMPDEST SWAP1 POP SWAP2 SWAP1 POP JUMP JUMPDEST PUSH2 0xC2C DUP2 PUSH2 0xC12 JUMP JUMPDEST DUP2 EQ PUSH2 0xC36 JUMPI PUSH0 PUSH0 REVERT JUMPDEST POP JUMP JUMPDEST PUSH0 DUP2 CALLDATALOAD SWAP1 POP PUSH2 0xC47 DUP2 PUSH2 0xC23 JUMP JUMPDEST SWAP3 SWAP2 POP POP JUMP JUMPDEST PUSH0 PUSH1 0x20 DUP3 DUP5 SUB SLT ISZERO PUSH2 0xC62 JUMPI PUSH2 0xC61 PUSH2 0xB54 JUMP JUMPDEST JUMPDEST PUSH0 PUSH2 0xC6F DUP5 DUP3 DUP6 ADD PUSH2 0xC39 JUMP JUMPDEST SWAP2 POP POP SWAP3 SWAP2 POP POP JUMP JUMPDEST PUSH0 DUP2 MLOAD SWAP1 POP SWAP2 SWAP1 POP JUMP JUMPDEST PUSH0 DUP3 DUP3 MSTORE PUSH1 0x20 DUP3 ADD SWAP1 POP SWAP3 SWAP2 POP POP JUMP JUMPDEST PUSH0 DUP2 SWAP1 POP PUSH1 0x20 DUP3 ADD SWAP1 POP SWAP2 SWAP1 POP JUMP JUMPDEST PUSH2 0xCAA DUP2 PUSH2 0xBD9 JUMP JUMPDEST DUP3 MSTORE POP POP JUMP JUMPDEST PUSH0 PUSH2 0xCBB DUP4 DUP4 PUSH2 0xCA1 JUMP JUMPDEST PUSH1 0x20 DUP4 ADD SWAP1 POP SWAP3 SWAP2 POP POP JUMP JUMPDEST PUSH0 PUSH1 0x20 DUP3 ADD SWAP1 POP SWAP2 SWAP1 POP JUMP JUMPDEST PUSH0 PUSH2 0xCDD DUP3 PUSH2 0xC78 JUMP JUMPDEST PUSH2 0xCE7 DUP2 DUP6 PUSH2 0xC82 JUMP JUMPDEST SWAP4 POP PUSH2 0xCF2 DUP4 PUSH2 0xC92 JUMP JUMPDEST DUP1 PUSH0 JUMPDEST DUP4 DUP2 LT ISZERO PUSH2 0xD22 JUMPI DUP2 MLOAD PUSH2 0xD09 DUP9 DUP3 PUSH2 0xCB0 JUMP JUMPDEST SWAP8 POP PUSH2 0xD14 DUP4 PUSH2 0xCC7 JUMP JUMPDEST SWAP3 POP POP PUSH1 0x1 DUP2 ADD SWAP1 POP PUSH2 0xCF5 JUMP JUMPDEST POP DUP6 SWAP4 POP POP POP POP SWAP3 SWAP2 POP POP JUMP JUMPDEST PUSH0 PUSH1 0x20 DUP3 ADD SWAP1 POP DUP2 DUP2 SUB PUSH0 DUP4 ADD MSTORE PUSH2 0xD47 DUP2 DUP5 PUSH2 0xCD3 JUMP JUMPDEST SWAP1 POP SWAP3 SWAP2 POP POP JUMP JUMPDEST PUSH2 0xD58 DUP2 PUSH2 0xBD9 JUMP JUMPDEST DUP2 EQ PUSH2 0xD62 JUMPI PUSH0 PUSH0 REVERT JUMPDEST POP JUMP JUMPDEST PUSH0 DUP2 CALLDATALOAD SWAP1 POP PUSH2 0xD73 DUP2 PUSH2 0xD4F JUMP JUMPDEST SWAP3 SWAP2 POP POP JUMP JUMPDEST PUSH0 PUSH1 0x20 DUP3 DUP5 SUB SLT ISZERO PUSH2 0xD8E JUMPI PUSH2 0xD8D PUSH2 0xB54 JUMP JUMPDEST JUMPDEST PUSH0 PUSH2 0xD9B DUP5 DUP3 DUP6 ADD PUSH2 0xD65 JUMP JUMPDEST SWAP2 POP POP SWAP3 SWAP2 POP POP JUMP JUMPDEST PUSH0 DUP2 ISZERO ISZERO SWAP1 POP SWAP2 SWAP1 POP JUMP JUMPDEST PUSH2 0xDB8 DUP2 PUSH2 0xDA4 JUMP JUMPDEST DUP3 MSTORE POP POP JUMP JUMPDEST PUSH0 PUSH1 0x20 DUP3 ADD SWAP1 POP PUSH2 0xDD1 PUSH0 DUP4 ADD DUP5 PUSH2 0xDAF JUMP JUMPDEST SWAP3 SWAP2 POP POP JUMP JUMPDEST PUSH0 PUSH0 REVERT JUMPDEST PUSH0 PUSH0 REVERT JUMPDEST PUSH0 PUSH1 0x1F NOT PUSH1 0x1F DUP4 ADD AND SWAP1 POP SWAP2 SWAP1 POP JUMP JUMPDEST PUSH32 0x4E487B7100000000000000000000000000000000000000000000000000000000 PUSH0 MSTORE PUSH1 0x41 PUSH1 0x4 MSTORE PUSH1 0x24 PUSH0 REVERT JUMPDEST PUSH2 0xE25 DUP3 PUSH2 0xDDF JUMP JUMPDEST DUP2 ADD DUP2 DUP2 LT PUSH8 0xFFFFFFFFFFFFFFFF DUP3 GT OR ISZERO PUSH2 0xE44 JUMPI PUSH2 0xE43 PUSH2 0xDEF JUMP JUMPDEST JUMPDEST DUP1 PUSH1 0x40 MSTORE POP POP POP JUMP JUMPDEST PUSH0 PUSH2 0xE56 PUSH2 0xB4B JUMP JUMPDEST SWAP1 POP PUSH2 0xE62 DUP3 DUP3 PUSH2 0xE1C JUMP JUMPDEST SWAP2 SWAP1 POP JUMP JUMPDEST PUSH0 PUSH8 0xFFFFFFFFFFFFFFFF DUP3 GT ISZERO PUSH2 0xE81 JUMPI PUSH2 0xE80 PUSH2 0xDEF JUMP JUMPDEST JUMPDEST PUSH2 0xE8A DUP3 PUSH2 0xDDF JUMP JUMPDEST SWAP1 POP PUSH1 0x20 DUP2 ADD SWAP1 POP SWAP2 SWAP1 POP JUMP JUMPDEST DUP3 DUP2 DUP4 CALLDATACOPY PUSH0 DUP4 DUP4 ADD MSTORE POP POP POP JUMP JUMPDEST PUSH0 PUSH2 0xEB7 PUSH2 0xEB2 DUP5 PUSH2 0xE67 JUMP JUMPDEST PUSH2 0xE4D JUMP JUMPDEST SWAP1 POP DUP3 DUP2 MSTORE PUSH1 0x20 DUP2 ADD DUP5 DUP5 DUP5 ADD GT ISZERO PUSH2 0xED3 JUMPI PUSH2 0xED2 PUSH2 0xDDB JUMP JUMPDEST JUMPDEST PUSH2 0xEDE DUP5 DUP3 DUP6 PUSH2 0xE97 JUMP JUMPDEST POP SWAP4 SWAP3 POP POP POP JUMP JUMPDEST PUSH0 DUP3 PUSH1 0x1F DUP4 ADD SLT PUSH2 0xEFA JUMPI PUSH2 0xEF9 PUSH2 0xDD7 JUMP JUMPDEST JUMPDEST DUP2 CALLDATALOAD PUSH2 0xF0A DUP5 DUP3 PUSH1 0x20 DUP7 ADD PUSH2 0xEA5 JUMP JUMPDEST SWAP2 POP POP SWAP3 SWAP2 POP POP JUMP JUMPDEST PUSH0 PUSH1 0x20 DUP3 DUP5 SUB SLT ISZERO PUSH2 0xF28 JUMPI PUSH2 0xF27 PUSH2 0xB54 JUMP JUMPDEST JUMPDEST PUSH0 DUP3 ADD CALLDATALOAD PUSH8 0xFFFFFFFFFFFFFFFF DUP2 GT ISZERO PUSH2 0xF45 JUMPI PUSH2 0xF44 PUSH2 0xB58 JUMP JUMPDEST JUMPDEST PUSH2 0xF51 DUP5 DUP3 DUP6 ADD PUSH2 0xEE6 JUMP JUMPDEST SWAP2 POP POP SWAP3 SWAP2 POP POP JUMP JUMPDEST PUSH0 DUP3 DUP3 MSTORE PUSH1 0x20 DUP3 ADD SWAP1 POP SWAP3 SWAP2 POP POP JUMP JUMPDEST PUSH32 0x6F6E6C79206F776E65722063616E206769766520746865206163636573730000 PUSH0 DUP3 ADD MSTORE POP JUMP JUMPDEST PUSH0 PUSH2 0xF9E PUSH1 0x1E DUP4 PUSH2 0xF5A JUMP JUMPDEST SWAP2 POP PUSH2 0xFA9 DUP3 PUSH2 0xF6A JUMP JUMPDEST PUSH1 0x20 DUP3 ADD SWAP1 POP SWAP2 SWAP1 POP JUMP JUMPDEST PUSH0 PUSH1 0x20 DUP3 ADD SWAP1 POP DUP2 DUP2 SUB PUSH0 DUP4 ADD MSTORE PUSH2 0xFCB DUP2 PUSH2 0xF92 JUMP JUMPDEST SWAP1 POP SWAP2 SWAP1 POP JUMP JUMPDEST PUSH32 0x6F6E6C79206F6666696369616C2063616E207265676973746572000000000000 PUSH0 DUP3 ADD MSTORE POP JUMP JUMPDEST PUSH0 PUSH2 0x1006 PUSH1 0x1A DUP4 PUSH2 0xF5A JUMP JUMPDEST SWAP2 POP PUSH2 0x1011 DUP3 PUSH2 0xFD2 JUMP JUMPDEST PUSH1 0x20 DUP3 ADD SWAP1 POP SWAP2 SWAP1 POP JUMP JUMPDEST PUSH0 PUSH1 0x20 DUP3 ADD SWAP1 POP DUP2 DUP2 SUB PUSH0 DUP4 ADD MSTORE PUSH2 0x1033 DUP2 PUSH2 0xFFA JUMP JUMPDEST SWAP1 POP SWAP2 SWAP1 POP JUMP JUMPDEST PUSH32 0x63616E277420766F7465206173206F6666696369616C73000000000000000000 PUSH0 DUP3 ADD MSTORE POP JUMP JUMPDEST PUSH0 PUSH2 0x106E PUSH1 0x17 DUP4 PUSH2 0xF5A JUMP JUMPDEST SWAP2 POP PUSH2 0x1079 DUP3 PUSH2 0x103A JUMP JUMPDEST PUSH1 0x20 DUP3 ADD SWAP1 POP SWAP2 SWAP1 POP JUMP JUMPDEST PUSH0 PUSH1 0x20 DUP3 ADD SWAP1 POP DUP2 DUP2 SUB PUSH0 DUP4 ADD MSTORE PUSH2 0x109B DUP2 PUSH2 0x1062 JUMP JUMPDEST SWAP1 POP SWAP2 SWAP1 POP JUMP JUMPDEST PUSH32 0x63616E646964617465206D757374206265207265676973746572656420617320 PUSH0 DUP3 ADD MSTORE PUSH32 0x6F6666696369616C730000000000000000000000000000000000000000000000 PUSH1 0x20 DUP3 ADD MSTORE POP JUMP JUMPDEST PUSH0 PUSH2 0x10FC PUSH1 0x29 DUP4 PUSH2 0xF5A JUMP JUMPDEST SWAP2 POP PUSH2 0x1107 DUP3 PUSH2 0x10A2 JUMP JUMPDEST PUSH1 0x40 DUP3 ADD SWAP1 POP SWAP2 SWAP1 POP JUMP JUMPDEST PUSH0 PUSH1 0x20 DUP3 ADD SWAP1 POP DUP2 DUP2 SUB PUSH0 DUP4 ADD MSTORE PUSH2 0x1129 DUP2 PUSH2 0x10F0 JUMP JUMPDEST SWAP1 POP SWAP2 SWAP1 POP JUMP JUMPDEST PUSH32 0x6F6E6C79206F776E65722063616E2064657374726F792074686520636F6E7472 PUSH0 DUP3 ADD MSTORE PUSH32 0x6163740000000000000000000000000000000000000000000000000000000000 PUSH1 0x20 DUP3 ADD MSTORE POP JUMP JUMPDEST PUSH0 PUSH2 0x118A PUSH1 0x23 DUP4 PUSH2 0xF5A JUMP JUMPDEST SWAP2 POP PUSH2 0x1195 DUP3 PUSH2 0x1130 JUMP JUMPDEST PUSH1 0x40 DUP3 ADD SWAP1 POP SWAP2 SWAP1 POP JUMP JUMPDEST PUSH0 PUSH1 0x20 DUP3 ADD SWAP1 POP DUP2 DUP2 SUB PUSH0 DUP4 ADD MSTORE PUSH2 0x11B7 DUP2 PUSH2 0x117E JUMP JUMPDEST SWAP1 POP SWAP2 SWAP1 POP JUMP JUMPDEST PUSH32 0x63757272656E74206F776E65722063616E2774207265766F6B65206163636573 PUSH0 DUP3 ADD MSTORE PUSH32 0x7300000000000000000000000000000000000000000000000000000000000000 PUSH1 0x20 DUP3 ADD MSTORE POP JUMP JUMPDEST PUSH0 PUSH2 0x1218 PUSH1 0x21 DUP4 PUSH2 0xF5A JUMP JUMPDEST SWAP2 POP PUSH2 0x1223 DUP3 PUSH2 0x11BE JUMP JUMPDEST PUSH1 0x40 DUP3 ADD SWAP1 POP SWAP2 SWAP1 POP JUMP JUMPDEST PUSH0 PUSH1 0x20 DUP3 ADD SWAP1 POP DUP2 DUP2 SUB PUSH0 DUP4 ADD MSTORE PUSH2 0x1245 DUP2 PUSH2 0x120C JUMP JUMPDEST SWAP1 POP SWAP2 SWAP1 POP JUMP JUMPDEST PUSH32 0x63616E2774207265676973746572206173206F6666696369616C730000000000 PUSH0 DUP3 ADD MSTORE POP JUMP JUMPDEST PUSH0 PUSH2 0x1280 PUSH1 0x1B DUP4 PUSH2 0xF5A JUMP JUMPDEST SWAP2 POP PUSH2 0x128B DUP3 PUSH2 0x124C JUMP JUMPDEST PUSH1 0x20 DUP3 ADD SWAP1 POP SWAP2 SWAP1 POP JUMP JUMPDEST PUSH0 PUSH1 0x20 DUP3 ADD SWAP1 POP DUP2 DUP2 SUB PUSH0 DUP4 ADD MSTORE PUSH2 0x12AD DUP2 PUSH2 0x1274 JUMP JUMPDEST SWAP1 POP SWAP2 SWAP1 POP JUMP JUMPDEST PUSH32 0x6F6E6C79206F6666696369616C732063616E2070726F706F7365206C61777300 PUSH0 DUP3 ADD MSTORE POP JUMP JUMPDEST PUSH0 PUSH2 0x12E8 PUSH1 0x1F DUP4 PUSH2 0xF5A JUMP JUMPDEST SWAP2 POP PUSH2 0x12F3 DUP3 PUSH2 0x12B4 JUMP JUMPDEST PUSH1 0x20 DUP3 ADD SWAP1 POP SWAP2 SWAP1 POP JUMP JUMPDEST PUSH0 PUSH1 0x20 DUP3 ADD SWAP1 POP DUP2 DUP2 SUB PUSH0 DUP4 ADD MSTORE PUSH2 0x1315 DUP2 PUSH2 0x12DC JUMP JUMPDEST SWAP1 POP SWAP2 SWAP1 POP JUMP JUMPDEST PUSH32 0x6F6E6C79206F776E65722063616E20656E616374206C61770000000000000000 PUSH0 DUP3 ADD MSTORE POP JUMP JUMPDEST PUSH0 PUSH2 0x1350 PUSH1 0x18 DUP4 PUSH2 0xF5A JUMP JUMPDEST SWAP2 POP PUSH2 0x135B DUP3 PUSH2 0x131C JUMP JUMPDEST PUSH1 0x20 DUP3 ADD SWAP1 POP SWAP2 SWAP1 POP JUMP JUMPDEST PUSH0 PUSH1 0x20 DUP3 ADD SWAP1 POP DUP2 DUP2 SUB PUSH0 DUP4 ADD MSTORE PUSH2 0x137D DUP2 PUSH2 0x1344 JUMP JUMPDEST SWAP1 POP SWAP2 SWAP1 POP JUMP INVALID LOG2 PUSH5 0x6970667358 0x22 SLT KECCAK256 EXTSTATICCALL DUP14 PUSH7 0x83C9905C80307C 0xD4 SMOD SLOAD INVALID 0xDF 0xDB 0xE2 DUP1 0xB9 JUMPF 0xD6B0 DUP7 0xDA 0xD8 KECCAK256 0xCA PUSH9 0x692394C064736F6C63 NUMBER STOP ADDMOD 0x1E STOP CALLER "
				},
				"gasEstimates": {
					"creation": {
						"codeDepositCost": "1010000",
						"executionCost": "25310",
						"totalCost": "1035310"
					},
					"external": {
						"citizens(uint256)": "4944",
						"destroy()": "32070",
						"enactlaw(string)": "infinite",
						"getOfficials()": "infinite",
						"getcitizens()": "infinite",
						"grantAccess(address)": "26907",
						"isOfficial(address)": "2944",
						"officials(uint256)": "4966",
						"proposeLaw(string)": "infinite",
						"registerAsCitizen()": "51026",
						"registerAsOfficial()": "75380",
						"revokeAccess(address)": "29098",
						"vote(address)": "5320"
					}
				},
				"methodIdentifiers": {
					"citizens(uint256)": "09a34f00",
					"destroy()": "83197ef0",
					"enactlaw(string)": "f317076c",
					"getOfficials()": "58bc7331",
					"getcitizens()": "a84f499b",
					"grantAccess(address)": "0ae5e739",
					"isOfficial(address)": "77b81aac",
					"officials(uint256)": "97ad6afd",
					"proposeLaw(string)": "ba05f053",
					"registerAsCitizen()": "62e36eb8",
					"registerAsOfficial()": "89907717",
					"revokeAccess(address)": "85e68531",
					"vote(address)": "6dd7d8ea"
				}
			},
			"storageLayout": {
				"storage": [
					{
						"astId": 4,
						"contract": "government.sol:Government",
						"label": "citizens",
						"offset": 0,
						"slot": "0",
						"type": "t_array(t_address)dyn_storage"
					},
					{
						"astId": 7,
						"contract": "government.sol:Government",
						"label": "officials",
						"offset": 0,
						"slot": "1",
						"type": "t_array(t_address)dyn_storage"
					},
					{
						"astId": 9,
						"contract": "government.sol:Government",
						"label": "owner",
						"offset": 0,
						"slot": "2",
						"type": "t_address_payable"
					},
					{
						"astId": 13,
						"contract": "government.sol:Government",
						"label": "isOfficial",
						"offset": 0,
						"slot": "3",
						"type": "t_mapping(t_address,t_bool)"
					}
				],
				"types": {
					"t_address": {
						"encoding": "inplace",
						"label": "address",
						"numberOfBytes": "20"
					},
					"t_address_payable": {
						"encoding": "inplace",
						"label": "address payable",
						"numberOfBytes": "20"
					},
					"t_array(t_address)dyn_storage": {
						"base": "t_address",
						"encoding": "dynamic_array",
						"label": "address[]",
						"numberOfBytes": "32"
					},
					"t_bool": {
						"encoding": "inplace",
						"label": "bool",
						"numberOfBytes": "1"
					},
					"t_mapping(t_address,t_bool)": {
						"encoding": "mapping",
						"key": "t_address",
						"label": "mapping(address => bool)",
						"numberOfBytes": "32",
						"value": "t_bool"
					}
				}
			},
			"userdoc": {
				"kind": "user",
				"methods": {},
				"version": 1
			}
		}
	}
}