{
	"automotive.sol": {
		"Automotive": {
			"abi": [
				{
					"inputs": [],
					"stateMutability": "nonpayable",
					"type": "constructor"
				},
				{
					"anonymous": false,
					"inputs": [
						{
							"indexed": false,
							"internalType": "address",
							"name": "buyer",
							"type": "address"
						},
						{
							"indexed": false,
							"internalType": "string",
							"name": "make",
							"type": "string"
						},
						{
							"indexed": false,
							"internalType": "string",
							"name": "model",
							"type": "string"
						},
						{
							"indexed": false,
							"internalType": "uint256",
							"name": "price",
							"type": "uint256"
						}
					],
					"name": "Purchase",
					"type": "event"
				},
				{
					"inputs": [
						{
							"internalType": "string",
							"name": "_make",
							"type": "string"
						},
						{
							"internalType": "string",
							"name": "_model",
							"type": "string"
						}
					],
					"name": "buyVehicle",
					"outputs": [],
					"stateMutability": "payable",
					"type": "function"
				},
				{
					"inputs": [
						{
							"internalType": "address",
							"name": "",
							"type": "address"
						}
					],
					"name": "buyers",
					"outputs": [
						{
							"internalType": "bool",
							"name": "",
							"type": "bool"
						}
					],
					"stateMutability": "view",
					"type": "function"
				},
				{
					"inputs": [],
					"name": "checkOwnership",
					"outputs": [
						{
							"internalType": "bool",
							"name": "",
							"type": "bool"
						}
					],
					"stateMutability": "view",
					"type": "function"
				},
				{
					"inputs": [],
					"name": "owner",
					"outputs": [
						{
							"internalType": "address",
							"name": "",
							"type": "address"
						}
					],
					"stateMutability": "view",
					"type": "function"
				},
				{
					"inputs": [],
					"name": "price",
					"outputs": [
						{
							"internalType": "uint256",
							"name": "",
							"type": "uint256"
						}
					],
					"stateMutability": "view",
					"type": "function"
				},
				{
					"inputs": [
						{
							"internalType": "uint256",
							"name": "_price",
							"type": "uint256"
						}
					],
					"name": "setPrice",
					"outputs": [],
					"stateMutability": "nonpayable",
					"type": "function"
				},
				{
					"inputs": [],
					"name": "vehicleMake",
					"outputs": [
						{
							"internalType": "string",
							"name": "",
							"type": "string"
						}
					],
					"stateMutability": "view",
					"type": "function"
				},
				{
					"inputs": [],
					"name": "vehicleModel",
					"outputs": [
						{
							"internalType": "string",
							"name": "",
							"type": "string"
						}
					],
					"stateMutability": "view",
					"type": "function"
				}
			],
			"devdoc": {
				"kind": "dev",
				"methods": {},
				"version": 1
			},
			"evm": {
				"assembly": "    /* \"automotive.sol\":59:905  contract Automotive{... */\n  mstore(0x40, 0x80)\n    /* \"automotive.sol\":318:367  constructor() {... */\n  callvalue\n  dup1\n  iszero\n  tag_1\n  jumpi\n  revert(0x00, 0x00)\ntag_1:\n  pop\n    /* \"automotive.sol\":349:359  msg.sender */\n  caller\n    /* \"automotive.sol\":343:348  owner */\n  0x00\n  0x00\n    /* \"automotive.sol\":343:359  owner=msg.sender */\n  0x0100\n  exp\n  dup2\n  sload\n  dup2\n  0xffffffffffffffffffffffffffffffffffffffff\n  mul\n  not\n  and\n  swap1\n  dup4\n  0xffffffffffffffffffffffffffffffffffffffff\n  and\n  mul\n  or\n  swap1\n  sstore\n  pop\n    /* \"automotive.sol\":59:905  contract Automotive{... */\n  dataSize(sub_0)\n  dup1\n  dataOffset(sub_0)\n  0x00\n  codecopy\n  0x00\n  return\nstop\n\nsub_0: assembly {\n        /* \"automotive.sol\":59:905  contract Automotive{... */\n      mstore(0x40, 0x80)\n      jumpi(tag_1, lt(calldatasize, 0x04))\n      shr(0xe0, calldataload(0x00))\n      dup1\n      0x97a993aa\n      gt\n      tag_10\n      jumpi\n      dup1\n      0x97a993aa\n      eq\n      tag_6\n      jumpi\n      dup1\n      0xa035b1fe\n      eq\n      tag_7\n      jumpi\n      dup1\n      0xd25cf0f5\n      eq\n      tag_8\n      jumpi\n      dup1\n      0xf2c09670\n      eq\n      tag_9\n      jumpi\n      jump(tag_1)\n    tag_10:\n      dup1\n      0x219a1d77\n      eq\n      tag_2\n      jumpi\n      dup1\n      0x8da5cb5b\n      eq\n      tag_3\n      jumpi\n      dup1\n      0x91b7f5ed\n      eq\n      tag_4\n      jumpi\n      dup1\n      0x975d279c\n      eq\n      tag_5\n      jumpi\n    tag_1:\n      revert(0x00, 0x00)\n        /* \"automotive.sol\":807:902  function checkOwnership() public view returns(bool){... */\n    tag_2:\n      callvalue\n      dup1\n      iszero\n      tag_11\n      jumpi\n      revert(0x00, 0x00)\n    tag_11:\n      pop\n      tag_12\n      tag_13\n      jump\t// in\n    tag_12:\n      mload(0x40)\n      tag_14\n      swap2\n      swap1\n      tag_15\n      jump\t// in\n    tag_14:\n      mload(0x40)\n      dup1\n      swap2\n      sub\n      swap1\n      return\n        /* \"automotive.sol\":85:105  address public owner */\n    tag_3:\n      callvalue\n      dup1\n      iszero\n      tag_16\n      jumpi\n      revert(0x00, 0x00)\n    tag_16:\n      pop\n      tag_17\n      tag_18\n      jump\t// in\n    tag_17:\n      mload(0x40)\n      tag_19\n      swap2\n      swap1\n      tag_20\n      jump\t// in\n    tag_19:\n      mload(0x40)\n      dup1\n      swap2\n      sub\n      swap1\n      return\n        /* \"automotive.sol\":694:801  function setPrice(uint _price) public{... */\n    tag_4:\n      callvalue\n      dup1\n      iszero\n      tag_21\n      jumpi\n      revert(0x00, 0x00)\n    tag_21:\n      pop\n      tag_22\n      0x04\n      dup1\n      calldatasize\n      sub\n      dup2\n      add\n      swap1\n      tag_23\n      swap2\n      swap1\n      tag_24\n      jump\t// in\n    tag_23:\n      tag_25\n      jump\t// in\n    tag_22:\n      stop\n        /* \"automotive.sol\":373:688  function buyVehicle(string memory _make, string memory _model) public payable {... */\n    tag_5:\n      tag_26\n      0x04\n      dup1\n      calldatasize\n      sub\n      dup2\n      add\n      swap1\n      tag_27\n      swap2\n      swap1\n      tag_28\n      jump\t// in\n    tag_27:\n      tag_29\n      jump\t// in\n    tag_26:\n      stop\n        /* \"automotive.sol\":112:148  mapping(address=>bool) public buyers */\n    tag_6:\n      callvalue\n      dup1\n      iszero\n      tag_30\n      jumpi\n      revert(0x00, 0x00)\n    tag_30:\n      pop\n      tag_31\n      0x04\n      dup1\n      calldatasize\n      sub\n      dup2\n      add\n      swap1\n      tag_32\n      swap2\n      swap1\n      tag_33\n      jump\t// in\n    tag_32:\n      tag_34\n      jump\t// in\n    tag_31:\n      mload(0x40)\n      tag_35\n      swap2\n      swap1\n      tag_15\n      jump\t// in\n    tag_35:\n      mload(0x40)\n      dup1\n      swap2\n      sub\n      swap1\n      return\n        /* \"automotive.sol\":220:237  uint public price */\n    tag_7:\n      callvalue\n      dup1\n      iszero\n      tag_36\n      jumpi\n      revert(0x00, 0x00)\n    tag_36:\n      pop\n      tag_37\n      tag_38\n      jump\t// in\n    tag_37:\n      mload(0x40)\n      tag_39\n      swap2\n      swap1\n      tag_40\n      jump\t// in\n    tag_39:\n      mload(0x40)\n      dup1\n      swap2\n      sub\n      swap1\n      return\n        /* \"automotive.sol\":155:180  string public vehicleMake */\n    tag_8:\n      callvalue\n      dup1\n      iszero\n      tag_41\n      jumpi\n      revert(0x00, 0x00)\n    tag_41:\n      pop\n      tag_42\n      tag_43\n      jump\t// in\n    tag_42:\n      mload(0x40)\n      tag_44\n      swap2\n      swap1\n      tag_45\n      jump\t// in\n    tag_44:\n      mload(0x40)\n      dup1\n      swap2\n      sub\n      swap1\n      return\n        /* \"automotive.sol\":187:213  string public vehicleModel */\n    tag_9:\n      callvalue\n      dup1\n      iszero\n      tag_46\n      jumpi\n      revert(0x00, 0x00)\n    tag_46:\n      pop\n      tag_47\n      tag_48\n      jump\t// in\n    tag_47:\n      mload(0x40)\n      tag_49\n      swap2\n      swap1\n      tag_45\n      jump\t// in\n    tag_49:\n      mload(0x40)\n      dup1\n      swap2\n      sub\n      swap1\n      return\n        /* \"automotive.sol\":807:902  function checkOwnership() public view returns(bool){... */\n    tag_13:\n        /* \"automotive.sol\":853:857  bool */\n      0x00\n        /* \"automotive.sol\":876:882  buyers */\n      0x01\n        /* \"automotive.sol\":876:894  buyers[msg.sender] */\n      0x00\n        /* \"automotive.sol\":883:893  msg.sender */\n      caller\n        /* \"automotive.sol\":876:894  buyers[msg.sender] */\n      0xffffffffffffffffffffffffffffffffffffffff\n      and\n      0xffffffffffffffffffffffffffffffffffffffff\n      and\n      dup2\n      mstore\n      0x20\n      add\n      swap1\n      dup2\n      mstore\n      0x20\n      add\n      0x00\n      keccak256\n      0x00\n      swap1\n      sload\n      swap1\n      0x0100\n      exp\n      swap1\n      div\n      0xff\n      and\n        /* \"automotive.sol\":869:894  return buyers[msg.sender] */\n      swap1\n      pop\n        /* \"automotive.sol\":807:902  function checkOwnership() public view returns(bool){... */\n      swap1\n      jump\t// out\n        /* \"automotive.sol\":85:105  address public owner */\n    tag_18:\n      0x00\n      0x00\n      swap1\n      sload\n      swap1\n      0x0100\n      exp\n      swap1\n      div\n      0xffffffffffffffffffffffffffffffffffffffff\n      and\n      dup2\n      jump\t// out\n        /* \"automotive.sol\":694:801  function setPrice(uint _price) public{... */\n    tag_25:\n        /* \"automotive.sol\":764:769  owner */\n      0x00\n      0x00\n      swap1\n      sload\n      swap1\n      0x0100\n      exp\n      swap1\n      div\n      0xffffffffffffffffffffffffffffffffffffffff\n      and\n        /* \"automotive.sol\":750:769  msg.sender == owner */\n      0xffffffffffffffffffffffffffffffffffffffff\n      and\n        /* \"automotive.sol\":750:760  msg.sender */\n      caller\n        /* \"automotive.sol\":750:769  msg.sender == owner */\n      0xffffffffffffffffffffffffffffffffffffffff\n      and\n      eq\n        /* \"automotive.sol\":742:770  require(msg.sender == owner) */\n      tag_52\n      jumpi\n      revert(0x00, 0x00)\n    tag_52:\n        /* \"automotive.sol\":787:793  _price */\n      dup1\n        /* \"automotive.sol\":781:786  price */\n      0x04\n        /* \"automotive.sol\":781:793  price=_price */\n      dup2\n      swap1\n      sstore\n      pop\n        /* \"automotive.sol\":694:801  function setPrice(uint _price) public{... */\n      pop\n      jump\t// out\n        /* \"automotive.sol\":373:688  function buyVehicle(string memory _make, string memory _model) public payable {... */\n    tag_29:\n        /* \"automotive.sol\":481:486  price */\n      sload(0x04)\n        /* \"automotive.sol\":470:479  msg.value */\n      callvalue\n        /* \"automotive.sol\":470:486  msg.value>=price */\n      lt\n      iszero\n        /* \"automotive.sol\":462:487  require(msg.value>=price) */\n      tag_54\n      jumpi\n      revert(0x00, 0x00)\n    tag_54:\n        /* \"automotive.sol\":527:532  false */\n      0x00\n        /* \"automotive.sol\":506:532  buyers[msg.sender]== false */\n      iszero\n      iszero\n        /* \"automotive.sol\":506:512  buyers */\n      0x01\n        /* \"automotive.sol\":506:524  buyers[msg.sender] */\n      0x00\n        /* \"automotive.sol\":513:523  msg.sender */\n      caller\n        /* \"automotive.sol\":506:524  buyers[msg.sender] */\n      0xffffffffffffffffffffffffffffffffffffffff\n      and\n      0xffffffffffffffffffffffffffffffffffffffff\n      and\n      dup2\n      mstore\n      0x20\n      add\n      swap1\n      dup2\n      mstore\n      0x20\n      add\n      0x00\n      keccak256\n      0x00\n      swap1\n      sload\n      swap1\n      0x0100\n      exp\n      swap1\n      div\n      0xff\n      and\n        /* \"automotive.sol\":506:532  buyers[msg.sender]== false */\n      iszero\n      iszero\n      eq\n        /* \"automotive.sol\":498:533  require(buyers[msg.sender]== false) */\n      tag_55\n      jumpi\n      revert(0x00, 0x00)\n    tag_55:\n        /* \"automotive.sol\":563:567  true */\n      0x01\n        /* \"automotive.sol\":544:550  buyers */\n      dup1\n        /* \"automotive.sol\":544:562  buyers[msg.sender] */\n      0x00\n        /* \"automotive.sol\":551:561  msg.sender */\n      caller\n        /* \"automotive.sol\":544:562  buyers[msg.sender] */\n      0xffffffffffffffffffffffffffffffffffffffff\n      and\n      0xffffffffffffffffffffffffffffffffffffffff\n      and\n      dup2\n      mstore\n      0x20\n      add\n      swap1\n      dup2\n      mstore\n      0x20\n      add\n      0x00\n      keccak256\n      0x00\n        /* \"automotive.sol\":544:567  buyers[msg.sender]=true */\n      0x0100\n      exp\n      dup2\n      sload\n      dup2\n      0xff\n      mul\n      not\n      and\n      swap1\n      dup4\n      iszero\n      iszero\n      mul\n      or\n      swap1\n      sstore\n      pop\n        /* \"automotive.sol\":590:595  _make */\n      dup2\n        /* \"automotive.sol\":578:589  vehicleMake */\n      0x02\n        /* \"automotive.sol\":578:595  vehicleMake=_make */\n      swap1\n      dup2\n      tag_56\n      swap2\n      swap1\n      tag_57\n      jump\t// in\n    tag_56:\n      pop\n        /* \"automotive.sol\":619:625  _model */\n      dup1\n        /* \"automotive.sol\":606:618  vehicleModel */\n      0x03\n        /* \"automotive.sol\":606:625  vehicleModel=_model */\n      swap1\n      dup2\n      tag_58\n      swap2\n      swap1\n      tag_57\n      jump\t// in\n    tag_58:\n      pop\n        /* \"automotive.sol\":640:680  Purchase(msg.sender,_make,_model, price) */\n      0xb7d525d230b4a7b392c8e8c7cb545883b05ad379bddb9fc3c91a3e340b88222b\n        /* \"automotive.sol\":649:659  msg.sender */\n      caller\n        /* \"automotive.sol\":660:665  _make */\n      dup4\n        /* \"automotive.sol\":666:672  _model */\n      dup4\n        /* \"automotive.sol\":674:679  price */\n      sload(0x04)\n        /* \"automotive.sol\":640:680  Purchase(msg.sender,_make,_model, price) */\n      mload(0x40)\n      tag_59\n      swap5\n      swap4\n      swap3\n      swap2\n      swap1\n      tag_60\n      jump\t// in\n    tag_59:\n      mload(0x40)\n      dup1\n      swap2\n      sub\n      swap1\n      log1\n        /* \"automotive.sol\":373:688  function buyVehicle(string memory _make, string memory _model) public payable {... */\n      pop\n      pop\n      jump\t// out\n        /* \"automotive.sol\":112:148  mapping(address=>bool) public buyers */\n    tag_34:\n      mstore(0x20, 0x01)\n      dup1\n      0x00\n      mstore\n      keccak256(0x00, 0x40)\n      0x00\n      swap2\n      pop\n      sload\n      swap1\n      0x0100\n      exp\n      swap1\n      div\n      0xff\n      and\n      dup2\n      jump\t// out\n        /* \"automotive.sol\":220:237  uint public price */\n    tag_38:\n      sload(0x04)\n      dup2\n      jump\t// out\n        /* \"automotive.sol\":155:180  string public vehicleMake */\n    tag_43:\n      0x02\n      dup1\n      sload\n      tag_61\n      swap1\n      tag_62\n      jump\t// in\n    tag_61:\n      dup1\n      0x1f\n      add\n      0x20\n      dup1\n      swap2\n      div\n      mul\n      0x20\n      add\n      mload(0x40)\n      swap1\n      dup2\n      add\n      0x40\n      mstore\n      dup1\n      swap3\n      swap2\n      swap1\n      dup2\n      dup2\n      mstore\n      0x20\n      add\n      dup3\n      dup1\n      sload\n      tag_63\n      swap1\n      tag_62\n      jump\t// in\n    tag_63:\n      dup1\n      iszero\n      tag_64\n      jumpi\n      dup1\n      0x1f\n      lt\n      tag_65\n      jumpi\n      0x0100\n      dup1\n      dup4\n      sload\n      div\n      mul\n      dup4\n      mstore\n      swap2\n      0x20\n      add\n      swap2\n      jump(tag_64)\n    tag_65:\n      dup3\n      add\n      swap2\n      swap1\n      0x00\n      mstore\n      keccak256(0x00, 0x20)\n      swap1\n    tag_66:\n      dup2\n      sload\n      dup2\n      mstore\n      swap1\n      0x01\n      add\n      swap1\n      0x20\n      add\n      dup1\n      dup4\n      gt\n      tag_66\n      jumpi\n      dup3\n      swap1\n      sub\n      0x1f\n      and\n      dup3\n      add\n      swap2\n    tag_64:\n      pop\n      pop\n      pop\n      pop\n      pop\n      dup2\n      jump\t// out\n        /* \"automotive.sol\":187:213  string public vehicleModel */\n    tag_48:\n      0x03\n      dup1\n      sload\n      tag_67\n      swap1\n      tag_62\n      jump\t// in\n    tag_67:\n      dup1\n      0x1f\n      add\n      0x20\n      dup1\n      swap2\n      div\n      mul\n      0x20\n      add\n      mload(0x40)\n      swap1\n      dup2\n      add\n      0x40\n      mstore\n      dup1\n      swap3\n      swap2\n      swap1\n      dup2\n      dup2\n      mstore\n      0x20\n      add\n      dup3\n      dup1\n      sload\n      tag_68\n      swap1\n      tag_62\n      jump\t// in\n    tag_68:\n      dup1\n      iszero\n      tag_69\n      jumpi\n      dup1\n      0x1f\n      lt\n      tag_70\n      jumpi\n      0x0100\n      dup1\n      dup4\n      sload\n      div\n      mul\n      dup4\n      mstore\n      swap2\n      0x20\n      add\n      swap2\n      jump(tag_69)\n    tag_70:\n      dup3\n      add\n      swap2\n      swap1\n      0x00\n      mstore\n      keccak256(0x00, 0x20)\n      swap1\n    tag_71:\n      dup2\n      sload\n      dup2\n      mstore\n      swap1\n      0x01\n      add\n      swap1\n      0x20\n      add\n      dup1\n      dup4\n      gt\n      tag_71\n      jumpi\n      dup3\n      swap1\n      sub\n      0x1f\n      and\n      dup3\n      add\n      swap2\n    tag_69:\n      pop\n      pop\n      pop\n      pop\n      pop\n      dup2\n      jump\t// out\n        /* \"#utility.yul\":7:97   */\n    tag_72:\n        /* \"#utility.yul\":41:48   */\n      0x00\n        /* \"#utility.yul\":84:89   */\n      dup2\n        /* \"#utility.yul\":77:90   */\n      iszero\n        /* \"#utility.yul\":70:91   */\n      iszero\n        /* \"#utility.yul\":59:91   */\n      swap1\n      pop\n        /* \"#utility.yul\":7:97   */\n      swap2\n      swap1\n      pop\n      jump\t// out\n        /* \"#utility.yul\":103:212   */\n    tag_73:\n        /* \"#utility.yul\":184:205   */\n      tag_119\n        /* \"#utility.yul\":199:204   */\n      dup2\n        /* \"#utility.yul\":184:205   */\n      tag_72\n      jump\t// in\n    tag_119:\n        /* \"#utility.yul\":179:182   */\n      dup3\n        /* \"#utility.yul\":172:206   */\n      mstore\n        /* \"#utility.yul\":103:212   */\n      pop\n      pop\n      jump\t// out\n        /* \"#utility.yul\":218:428   */\n    tag_15:\n        /* \"#utility.yul\":305:309   */\n      0x00\n        /* \"#utility.yul\":343:345   */\n      0x20\n        /* \"#utility.yul\":332:341   */\n      dup3\n        /* \"#utility.yul\":328:346   */\n      add\n        /* \"#utility.yul\":320:346   */\n      swap1\n      pop\n        /* \"#utility.yul\":356:421   */\n      tag_121\n        /* \"#utility.yul\":418:419   */\n      0x00\n        /* \"#utility.yul\":407:416   */\n      dup4\n        /* \"#utility.yul\":403:420   */\n      add\n        /* \"#utility.yul\":394:400   */\n      dup5\n        /* \"#utility.yul\":356:421   */\n      tag_73\n      jump\t// in\n    tag_121:\n        /* \"#utility.yul\":218:428   */\n      swap3\n      swap2\n      pop\n      pop\n      jump\t// out\n        /* \"#utility.yul\":434:560   */\n    tag_74:\n        /* \"#utility.yul\":471:478   */\n      0x00\n        /* \"#utility.yul\":511:553   */\n      0xffffffffffffffffffffffffffffffffffffffff\n        /* \"#utility.yul\":504:509   */\n      dup3\n        /* \"#utility.yul\":500:554   */\n      and\n        /* \"#utility.yul\":489:554   */\n      swap1\n      pop\n        /* \"#utility.yul\":434:560   */\n      swap2\n      swap1\n      pop\n      jump\t// out\n        /* \"#utility.yul\":566:662   */\n    tag_75:\n        /* \"#utility.yul\":603:610   */\n      0x00\n        /* \"#utility.yul\":632:656   */\n      tag_124\n        /* \"#utility.yul\":650:655   */\n      dup3\n        /* \"#utility.yul\":632:656   */\n      tag_74\n      jump\t// in\n    tag_124:\n        /* \"#utility.yul\":621:656   */\n      swap1\n      pop\n        /* \"#utility.yul\":566:662   */\n      swap2\n      swap1\n      pop\n      jump\t// out\n        /* \"#utility.yul\":668:786   */\n    tag_76:\n        /* \"#utility.yul\":755:779   */\n      tag_126\n        /* \"#utility.yul\":773:778   */\n      dup2\n        /* \"#utility.yul\":755:779   */\n      tag_75\n      jump\t// in\n    tag_126:\n        /* \"#utility.yul\":750:753   */\n      dup3\n        /* \"#utility.yul\":743:780   */\n      mstore\n        /* \"#utility.yul\":668:786   */\n      pop\n      pop\n      jump\t// out\n        /* \"#utility.yul\":792:1014   */\n    tag_20:\n        /* \"#utility.yul\":885:889   */\n      0x00\n        /* \"#utility.yul\":923:925   */\n      0x20\n        /* \"#utility.yul\":912:921   */\n      dup3\n        /* \"#utility.yul\":908:926   */\n      add\n        /* \"#utility.yul\":900:926   */\n      swap1\n      pop\n        /* \"#utility.yul\":936:1007   */\n      tag_128\n        /* \"#utility.yul\":1004:1005   */\n      0x00\n        /* \"#utility.yul\":993:1002   */\n      dup4\n        /* \"#utility.yul\":989:1006   */\n      add\n        /* \"#utility.yul\":980:986   */\n      dup5\n        /* \"#utility.yul\":936:1007   */\n      tag_76\n      jump\t// in\n    tag_128:\n        /* \"#utility.yul\":792:1014   */\n      swap3\n      swap2\n      pop\n      pop\n      jump\t// out\n        /* \"#utility.yul\":1020:1095   */\n    tag_77:\n        /* \"#utility.yul\":1053:1059   */\n      0x00\n        /* \"#utility.yul\":1086:1088   */\n      0x40\n        /* \"#utility.yul\":1080:1089   */\n      mload\n        /* \"#utility.yul\":1070:1089   */\n      swap1\n      pop\n        /* \"#utility.yul\":1020:1095   */\n      swap1\n      jump\t// out\n        /* \"#utility.yul\":1101:1218   */\n    tag_78:\n        /* \"#utility.yul\":1210:1211   */\n      0x00\n        /* \"#utility.yul\":1207:1208   */\n      0x00\n        /* \"#utility.yul\":1200:1212   */\n      revert\n        /* \"#utility.yul\":1224:1341   */\n    tag_79:\n        /* \"#utility.yul\":1333:1334   */\n      0x00\n        /* \"#utility.yul\":1330:1331   */\n      0x00\n        /* \"#utility.yul\":1323:1335   */\n      revert\n        /* \"#utility.yul\":1347:1424   */\n    tag_80:\n        /* \"#utility.yul\":1384:1391   */\n      0x00\n        /* \"#utility.yul\":1413:1418   */\n      dup2\n        /* \"#utility.yul\":1402:1418   */\n      swap1\n      pop\n        /* \"#utility.yul\":1347:1424   */\n      swap2\n      swap1\n      pop\n      jump\t// out\n        /* \"#utility.yul\":1430:1552   */\n    tag_81:\n        /* \"#utility.yul\":1503:1527   */\n      tag_134\n        /* \"#utility.yul\":1521:1526   */\n      dup2\n        /* \"#utility.yul\":1503:1527   */\n      tag_80\n      jump\t// in\n    tag_134:\n        /* \"#utility.yul\":1496:1501   */\n      dup2\n        /* \"#utility.yul\":1493:1528   */\n      eq\n        /* \"#utility.yul\":1483:1546   */\n      tag_135\n      jumpi\n        /* \"#utility.yul\":1542:1543   */\n      0x00\n        /* \"#utility.yul\":1539:1540   */\n      0x00\n        /* \"#utility.yul\":1532:1544   */\n      revert\n        /* \"#utility.yul\":1483:1546   */\n    tag_135:\n        /* \"#utility.yul\":1430:1552   */\n      pop\n      jump\t// out\n        /* \"#utility.yul\":1558:1697   */\n    tag_82:\n        /* \"#utility.yul\":1604:1609   */\n      0x00\n        /* \"#utility.yul\":1642:1648   */\n      dup2\n        /* \"#utility.yul\":1629:1649   */\n      calldataload\n        /* \"#utility.yul\":1620:1649   */\n      swap1\n      pop\n        /* \"#utility.yul\":1658:1691   */\n      tag_137\n        /* \"#utility.yul\":1685:1690   */\n      dup2\n        /* \"#utility.yul\":1658:1691   */\n      tag_81\n      jump\t// in\n    tag_137:\n        /* \"#utility.yul\":1558:1697   */\n      swap3\n      swap2\n      pop\n      pop\n      jump\t// out\n        /* \"#utility.yul\":1703:2032   */\n    tag_24:\n        /* \"#utility.yul\":1762:1768   */\n      0x00\n        /* \"#utility.yul\":1811:1813   */\n      0x20\n        /* \"#utility.yul\":1799:1808   */\n      dup3\n        /* \"#utility.yul\":1790:1797   */\n      dup5\n        /* \"#utility.yul\":1786:1809   */\n      sub\n        /* \"#utility.yul\":1782:1814   */\n      slt\n        /* \"#utility.yul\":1779:1898   */\n      iszero\n      tag_139\n      jumpi\n        /* \"#utility.yul\":1817:1896   */\n      tag_140\n      tag_78\n      jump\t// in\n    tag_140:\n        /* \"#utility.yul\":1779:1898   */\n    tag_139:\n        /* \"#utility.yul\":1937:1938   */\n      0x00\n        /* \"#utility.yul\":1962:2015   */\n      tag_141\n        /* \"#utility.yul\":2007:2014   */\n      dup5\n        /* \"#utility.yul\":1998:2004   */\n      dup3\n        /* \"#utility.yul\":1987:1996   */\n      dup6\n        /* \"#utility.yul\":1983:2005   */\n      add\n        /* \"#utility.yul\":1962:2015   */\n      tag_82\n      jump\t// in\n    tag_141:\n        /* \"#utility.yul\":1952:2015   */\n      swap2\n      pop\n        /* \"#utility.yul\":1908:2025   */\n      pop\n        /* \"#utility.yul\":1703:2032   */\n      swap3\n      swap2\n      pop\n      pop\n      jump\t// out\n        /* \"#utility.yul\":2038:2155   */\n    tag_83:\n        /* \"#utility.yul\":2147:2148   */\n      0x00\n        /* \"#utility.yul\":2144:2145   */\n      0x00\n        /* \"#utility.yul\":2137:2149   */\n      revert\n        /* \"#utility.yul\":2161:2278   */\n    tag_84:\n        /* \"#utility.yul\":2270:2271   */\n      0x00\n        /* \"#utility.yul\":2267:2268   */\n      0x00\n        /* \"#utility.yul\":2260:2272   */\n      revert\n        /* \"#utility.yul\":2284:2386   */\n    tag_85:\n        /* \"#utility.yul\":2325:2331   */\n      0x00\n        /* \"#utility.yul\":2376:2378   */\n      0x1f\n        /* \"#utility.yul\":2372:2379   */\n      not\n        /* \"#utility.yul\":2367:2369   */\n      0x1f\n        /* \"#utility.yul\":2360:2365   */\n      dup4\n        /* \"#utility.yul\":2356:2370   */\n      add\n        /* \"#utility.yul\":2352:2380   */\n      and\n        /* \"#utility.yul\":2342:2380   */\n      swap1\n      pop\n        /* \"#utility.yul\":2284:2386   */\n      swap2\n      swap1\n      pop\n      jump\t// out\n        /* \"#utility.yul\":2392:2572   */\n    tag_86:\n        /* \"#utility.yul\":2440:2517   */\n      0x4e487b7100000000000000000000000000000000000000000000000000000000\n        /* \"#utility.yul\":2437:2438   */\n      0x00\n        /* \"#utility.yul\":2430:2518   */\n      mstore\n        /* \"#utility.yul\":2537:2541   */\n      0x41\n        /* \"#utility.yul\":2534:2535   */\n      0x04\n        /* \"#utility.yul\":2527:2542   */\n      mstore\n        /* \"#utility.yul\":2561:2565   */\n      0x24\n        /* \"#utility.yul\":2558:2559   */\n      0x00\n        /* \"#utility.yul\":2551:2566   */\n      revert\n        /* \"#utility.yul\":2578:2859   */\n    tag_87:\n        /* \"#utility.yul\":2661:2688   */\n      tag_147\n        /* \"#utility.yul\":2683:2687   */\n      dup3\n        /* \"#utility.yul\":2661:2688   */\n      tag_85\n      jump\t// in\n    tag_147:\n        /* \"#utility.yul\":2653:2659   */\n      dup2\n        /* \"#utility.yul\":2649:2689   */\n      add\n        /* \"#utility.yul\":2791:2797   */\n      dup2\n        /* \"#utility.yul\":2779:2789   */\n      dup2\n        /* \"#utility.yul\":2776:2798   */\n      lt\n        /* \"#utility.yul\":2755:2773   */\n      0xffffffffffffffff\n        /* \"#utility.yul\":2743:2753   */\n      dup3\n        /* \"#utility.yul\":2740:2774   */\n      gt\n        /* \"#utility.yul\":2737:2799   */\n      or\n        /* \"#utility.yul\":2734:2822   */\n      iszero\n      tag_148\n      jumpi\n        /* \"#utility.yul\":2802:2820   */\n      tag_149\n      tag_86\n      jump\t// in\n    tag_149:\n        /* \"#utility.yul\":2734:2822   */\n    tag_148:\n        /* \"#utility.yul\":2842:2852   */\n      dup1\n        /* \"#utility.yul\":2838:2840   */\n      0x40\n        /* \"#utility.yul\":2831:2853   */\n      mstore\n        /* \"#utility.yul\":2621:2859   */\n      pop\n        /* \"#utility.yul\":2578:2859   */\n      pop\n      pop\n      jump\t// out\n        /* \"#utility.yul\":2865:2994   */\n    tag_88:\n        /* \"#utility.yul\":2899:2905   */\n      0x00\n        /* \"#utility.yul\":2926:2946   */\n      tag_151\n      tag_77\n      jump\t// in\n    tag_151:\n        /* \"#utility.yul\":2916:2946   */\n      swap1\n      pop\n        /* \"#utility.yul\":2955:2988   */\n      tag_152\n        /* \"#utility.yul\":2983:2987   */\n      dup3\n        /* \"#utility.yul\":2975:2981   */\n      dup3\n        /* \"#utility.yul\":2955:2988   */\n      tag_87\n      jump\t// in\n    tag_152:\n        /* \"#utility.yul\":2865:2994   */\n      swap2\n      swap1\n      pop\n      jump\t// out\n        /* \"#utility.yul\":3000:3308   */\n    tag_89:\n        /* \"#utility.yul\":3062:3066   */\n      0x00\n        /* \"#utility.yul\":3152:3170   */\n      0xffffffffffffffff\n        /* \"#utility.yul\":3144:3150   */\n      dup3\n        /* \"#utility.yul\":3141:3171   */\n      gt\n        /* \"#utility.yul\":3138:3194   */\n      iszero\n      tag_154\n      jumpi\n        /* \"#utility.yul\":3174:3192   */\n      tag_155\n      tag_86\n      jump\t// in\n    tag_155:\n        /* \"#utility.yul\":3138:3194   */\n    tag_154:\n        /* \"#utility.yul\":3212:3241   */\n      tag_156\n        /* \"#utility.yul\":3234:3240   */\n      dup3\n        /* \"#utility.yul\":3212:3241   */\n      tag_85\n      jump\t// in\n    tag_156:\n        /* \"#utility.yul\":3204:3241   */\n      swap1\n      pop\n        /* \"#utility.yul\":3296:3300   */\n      0x20\n        /* \"#utility.yul\":3290:3294   */\n      dup2\n        /* \"#utility.yul\":3286:3301   */\n      add\n        /* \"#utility.yul\":3278:3301   */\n      swap1\n      pop\n        /* \"#utility.yul\":3000:3308   */\n      swap2\n      swap1\n      pop\n      jump\t// out\n        /* \"#utility.yul\":3314:3462   */\n    tag_90:\n        /* \"#utility.yul\":3412:3418   */\n      dup3\n        /* \"#utility.yul\":3407:3410   */\n      dup2\n        /* \"#utility.yul\":3402:3405   */\n      dup4\n        /* \"#utility.yul\":3389:3419   */\n      calldatacopy\n        /* \"#utility.yul\":3453:3454   */\n      0x00\n        /* \"#utility.yul\":3444:3450   */\n      dup4\n        /* \"#utility.yul\":3439:3442   */\n      dup4\n        /* \"#utility.yul\":3435:3451   */\n      add\n        /* \"#utility.yul\":3428:3455   */\n      mstore\n        /* \"#utility.yul\":3314:3462   */\n      pop\n      pop\n      pop\n      jump\t// out\n        /* \"#utility.yul\":3468:3893   */\n    tag_91:\n        /* \"#utility.yul\":3546:3551   */\n      0x00\n        /* \"#utility.yul\":3571:3637   */\n      tag_159\n        /* \"#utility.yul\":3587:3636   */\n      tag_160\n        /* \"#utility.yul\":3629:3635   */\n      dup5\n        /* \"#utility.yul\":3587:3636   */\n      tag_89\n      jump\t// in\n    tag_160:\n        /* \"#utility.yul\":3571:3637   */\n      tag_88\n      jump\t// in\n    tag_159:\n        /* \"#utility.yul\":3562:3637   */\n      swap1\n      pop\n        /* \"#utility.yul\":3660:3666   */\n      dup3\n        /* \"#utility.yul\":3653:3658   */\n      dup2\n        /* \"#utility.yul\":3646:3667   */\n      mstore\n        /* \"#utility.yul\":3698:3702   */\n      0x20\n        /* \"#utility.yul\":3691:3696   */\n      dup2\n        /* \"#utility.yul\":3687:3703   */\n      add\n        /* \"#utility.yul\":3736:3739   */\n      dup5\n        /* \"#utility.yul\":3727:3733   */\n      dup5\n        /* \"#utility.yul\":3722:3725   */\n      dup5\n        /* \"#utility.yul\":3718:3734   */\n      add\n        /* \"#utility.yul\":3715:3740   */\n      gt\n        /* \"#utility.yul\":3712:3824   */\n      iszero\n      tag_161\n      jumpi\n        /* \"#utility.yul\":3743:3822   */\n      tag_162\n      tag_84\n      jump\t// in\n    tag_162:\n        /* \"#utility.yul\":3712:3824   */\n    tag_161:\n        /* \"#utility.yul\":3833:3887   */\n      tag_163\n        /* \"#utility.yul\":3880:3886   */\n      dup5\n        /* \"#utility.yul\":3875:3878   */\n      dup3\n        /* \"#utility.yul\":3870:3873   */\n      dup6\n        /* \"#utility.yul\":3833:3887   */\n      tag_90\n      jump\t// in\n    tag_163:\n        /* \"#utility.yul\":3552:3893   */\n      pop\n        /* \"#utility.yul\":3468:3893   */\n      swap4\n      swap3\n      pop\n      pop\n      pop\n      jump\t// out\n        /* \"#utility.yul\":3913:4253   */\n    tag_92:\n        /* \"#utility.yul\":3969:3974   */\n      0x00\n        /* \"#utility.yul\":4018:4021   */\n      dup3\n        /* \"#utility.yul\":4011:4015   */\n      0x1f\n        /* \"#utility.yul\":4003:4009   */\n      dup4\n        /* \"#utility.yul\":3999:4016   */\n      add\n        /* \"#utility.yul\":3995:4022   */\n      slt\n        /* \"#utility.yul\":3985:4107   */\n      tag_165\n      jumpi\n        /* \"#utility.yul\":4026:4105   */\n      tag_166\n      tag_83\n      jump\t// in\n    tag_166:\n        /* \"#utility.yul\":3985:4107   */\n    tag_165:\n        /* \"#utility.yul\":4143:4149   */\n      dup2\n        /* \"#utility.yul\":4130:4150   */\n      calldataload\n        /* \"#utility.yul\":4168:4247   */\n      tag_167\n        /* \"#utility.yul\":4243:4246   */\n      dup5\n        /* \"#utility.yul\":4235:4241   */\n      dup3\n        /* \"#utility.yul\":4228:4232   */\n      0x20\n        /* \"#utility.yul\":4220:4226   */\n      dup7\n        /* \"#utility.yul\":4216:4233   */\n      add\n        /* \"#utility.yul\":4168:4247   */\n      tag_91\n      jump\t// in\n    tag_167:\n        /* \"#utility.yul\":4159:4247   */\n      swap2\n      pop\n        /* \"#utility.yul\":3975:4253   */\n      pop\n        /* \"#utility.yul\":3913:4253   */\n      swap3\n      swap2\n      pop\n      pop\n      jump\t// out\n        /* \"#utility.yul\":4259:5093   */\n    tag_28:\n        /* \"#utility.yul\":4347:4353   */\n      0x00\n        /* \"#utility.yul\":4355:4361   */\n      0x00\n        /* \"#utility.yul\":4404:4406   */\n      0x40\n        /* \"#utility.yul\":4392:4401   */\n      dup4\n        /* \"#utility.yul\":4383:4390   */\n      dup6\n        /* \"#utility.yul\":4379:4402   */\n      sub\n        /* \"#utility.yul\":4375:4407   */\n      slt\n        /* \"#utility.yul\":4372:4491   */\n      iszero\n      tag_169\n      jumpi\n        /* \"#utility.yul\":4410:4489   */\n      tag_170\n      tag_78\n      jump\t// in\n    tag_170:\n        /* \"#utility.yul\":4372:4491   */\n    tag_169:\n        /* \"#utility.yul\":4558:4559   */\n      0x00\n        /* \"#utility.yul\":4547:4556   */\n      dup4\n        /* \"#utility.yul\":4543:4560   */\n      add\n        /* \"#utility.yul\":4530:4561   */\n      calldataload\n        /* \"#utility.yul\":4588:4606   */\n      0xffffffffffffffff\n        /* \"#utility.yul\":4580:4586   */\n      dup2\n        /* \"#utility.yul\":4577:4607   */\n      gt\n        /* \"#utility.yul\":4574:4691   */\n      iszero\n      tag_171\n      jumpi\n        /* \"#utility.yul\":4610:4689   */\n      tag_172\n      tag_79\n      jump\t// in\n    tag_172:\n        /* \"#utility.yul\":4574:4691   */\n    tag_171:\n        /* \"#utility.yul\":4715:4778   */\n      tag_173\n        /* \"#utility.yul\":4770:4777   */\n      dup6\n        /* \"#utility.yul\":4761:4767   */\n      dup3\n        /* \"#utility.yul\":4750:4759   */\n      dup7\n        /* \"#utility.yul\":4746:4768   */\n      add\n        /* \"#utility.yul\":4715:4778   */\n      tag_92\n      jump\t// in\n    tag_173:\n        /* \"#utility.yul\":4705:4778   */\n      swap3\n      pop\n        /* \"#utility.yul\":4501:4788   */\n      pop\n        /* \"#utility.yul\":4855:4857   */\n      0x20\n        /* \"#utility.yul\":4844:4853   */\n      dup4\n        /* \"#utility.yul\":4840:4858   */\n      add\n        /* \"#utility.yul\":4827:4859   */\n      calldataload\n        /* \"#utility.yul\":4886:4904   */\n      0xffffffffffffffff\n        /* \"#utility.yul\":4878:4884   */\n      dup2\n        /* \"#utility.yul\":4875:4905   */\n      gt\n        /* \"#utility.yul\":4872:4989   */\n      iszero\n      tag_174\n      jumpi\n        /* \"#utility.yul\":4908:4987   */\n      tag_175\n      tag_79\n      jump\t// in\n    tag_175:\n        /* \"#utility.yul\":4872:4989   */\n    tag_174:\n        /* \"#utility.yul\":5013:5076   */\n      tag_176\n        /* \"#utility.yul\":5068:5075   */\n      dup6\n        /* \"#utility.yul\":5059:5065   */\n      dup3\n        /* \"#utility.yul\":5048:5057   */\n      dup7\n        /* \"#utility.yul\":5044:5066   */\n      add\n        /* \"#utility.yul\":5013:5076   */\n      tag_92\n      jump\t// in\n    tag_176:\n        /* \"#utility.yul\":5003:5076   */\n      swap2\n      pop\n        /* \"#utility.yul\":4798:5086   */\n      pop\n        /* \"#utility.yul\":4259:5093   */\n      swap3\n      pop\n      swap3\n      swap1\n      pop\n      jump\t// out\n        /* \"#utility.yul\":5099:5221   */\n    tag_93:\n        /* \"#utility.yul\":5172:5196   */\n      tag_178\n        /* \"#utility.yul\":5190:5195   */\n      dup2\n        /* \"#utility.yul\":5172:5196   */\n      tag_75\n      jump\t// in\n    tag_178:\n        /* \"#utility.yul\":5165:5170   */\n      dup2\n        /* \"#utility.yul\":5162:5197   */\n      eq\n        /* \"#utility.yul\":5152:5215   */\n      tag_179\n      jumpi\n        /* \"#utility.yul\":5211:5212   */\n      0x00\n        /* \"#utility.yul\":5208:5209   */\n      0x00\n        /* \"#utility.yul\":5201:5213   */\n      revert\n        /* \"#utility.yul\":5152:5215   */\n    tag_179:\n        /* \"#utility.yul\":5099:5221   */\n      pop\n      jump\t// out\n        /* \"#utility.yul\":5227:5366   */\n    tag_94:\n        /* \"#utility.yul\":5273:5278   */\n      0x00\n        /* \"#utility.yul\":5311:5317   */\n      dup2\n        /* \"#utility.yul\":5298:5318   */\n      calldataload\n        /* \"#utility.yul\":5289:5318   */\n      swap1\n      pop\n        /* \"#utility.yul\":5327:5360   */\n      tag_181\n        /* \"#utility.yul\":5354:5359   */\n      dup2\n        /* \"#utility.yul\":5327:5360   */\n      tag_93\n      jump\t// in\n    tag_181:\n        /* \"#utility.yul\":5227:5366   */\n      swap3\n      swap2\n      pop\n      pop\n      jump\t// out\n        /* \"#utility.yul\":5372:5701   */\n    tag_33:\n        /* \"#utility.yul\":5431:5437   */\n      0x00\n        /* \"#utility.yul\":5480:5482   */\n      0x20\n        /* \"#utility.yul\":5468:5477   */\n      dup3\n        /* \"#utility.yul\":5459:5466   */\n      dup5\n        /* \"#utility.yul\":5455:5478   */\n      sub\n        /* \"#utility.yul\":5451:5483   */\n      slt\n        /* \"#utility.yul\":5448:5567   */\n      iszero\n      tag_183\n      jumpi\n        /* \"#utility.yul\":5486:5565   */\n      tag_184\n      tag_78\n      jump\t// in\n    tag_184:\n        /* \"#utility.yul\":5448:5567   */\n    tag_183:\n        /* \"#utility.yul\":5606:5607   */\n      0x00\n        /* \"#utility.yul\":5631:5684   */\n      tag_185\n        /* \"#utility.yul\":5676:5683   */\n      dup5\n        /* \"#utility.yul\":5667:5673   */\n      dup3\n        /* \"#utility.yul\":5656:5665   */\n      dup6\n        /* \"#utility.yul\":5652:5674   */\n      add\n        /* \"#utility.yul\":5631:5684   */\n      tag_94\n      jump\t// in\n    tag_185:\n        /* \"#utility.yul\":5621:5684   */\n      swap2\n      pop\n        /* \"#utility.yul\":5577:5694   */\n      pop\n        /* \"#utility.yul\":5372:5701   */\n      swap3\n      swap2\n      pop\n      pop\n      jump\t// out\n        /* \"#utility.yul\":5707:5825   */\n    tag_95:\n        /* \"#utility.yul\":5794:5818   */\n      tag_187\n        /* \"#utility.yul\":5812:5817   */\n      dup2\n        /* \"#utility.yul\":5794:5818   */\n      tag_80\n      jump\t// in\n    tag_187:\n        /* \"#utility.yul\":5789:5792   */\n      dup3\n        /* \"#utility.yul\":5782:5819   */\n      mstore\n        /* \"#utility.yul\":5707:5825   */\n      pop\n      pop\n      jump\t// out\n        /* \"#utility.yul\":5831:6053   */\n    tag_40:\n        /* \"#utility.yul\":5924:5928   */\n      0x00\n        /* \"#utility.yul\":5962:5964   */\n      0x20\n        /* \"#utility.yul\":5951:5960   */\n      dup3\n        /* \"#utility.yul\":5947:5965   */\n      add\n        /* \"#utility.yul\":5939:5965   */\n      swap1\n      pop\n        /* \"#utility.yul\":5975:6046   */\n      tag_189\n        /* \"#utility.yul\":6043:6044   */\n      0x00\n        /* \"#utility.yul\":6032:6041   */\n      dup4\n        /* \"#utility.yul\":6028:6045   */\n      add\n        /* \"#utility.yul\":6019:6025   */\n      dup5\n        /* \"#utility.yul\":5975:6046   */\n      tag_95\n      jump\t// in\n    tag_189:\n        /* \"#utility.yul\":5831:6053   */\n      swap3\n      swap2\n      pop\n      pop\n      jump\t// out\n        /* \"#utility.yul\":6059:6158   */\n    tag_96:\n        /* \"#utility.yul\":6111:6117   */\n      0x00\n        /* \"#utility.yul\":6145:6150   */\n      dup2\n        /* \"#utility.yul\":6139:6151   */\n      mload\n        /* \"#utility.yul\":6129:6151   */\n      swap1\n      pop\n        /* \"#utility.yul\":6059:6158   */\n      swap2\n      swap1\n      pop\n      jump\t// out\n        /* \"#utility.yul\":6164:6333   */\n    tag_97:\n        /* \"#utility.yul\":6248:6259   */\n      0x00\n        /* \"#utility.yul\":6282:6288   */\n      dup3\n        /* \"#utility.yul\":6277:6280   */\n      dup3\n        /* \"#utility.yul\":6270:6289   */\n      mstore\n        /* \"#utility.yul\":6322:6326   */\n      0x20\n        /* \"#utility.yul\":6317:6320   */\n      dup3\n        /* \"#utility.yul\":6313:6327   */\n      add\n        /* \"#utility.yul\":6298:6327   */\n      swap1\n      pop\n        /* \"#utility.yul\":6164:6333   */\n      swap3\n      swap2\n      pop\n      pop\n      jump\t// out\n        /* \"#utility.yul\":6339:6478   */\n    tag_98:\n        /* \"#utility.yul\":6428:6434   */\n      dup3\n        /* \"#utility.yul\":6423:6426   */\n      dup2\n        /* \"#utility.yul\":6418:6421   */\n      dup4\n        /* \"#utility.yul\":6412:6435   */\n      mcopy\n        /* \"#utility.yul\":6469:6470   */\n      0x00\n        /* \"#utility.yul\":6460:6466   */\n      dup4\n        /* \"#utility.yul\":6455:6458   */\n      dup4\n        /* \"#utility.yul\":6451:6467   */\n      add\n        /* \"#utility.yul\":6444:6471   */\n      mstore\n        /* \"#utility.yul\":6339:6478   */\n      pop\n      pop\n      pop\n      jump\t// out\n        /* \"#utility.yul\":6484:6861   */\n    tag_99:\n        /* \"#utility.yul\":6572:6575   */\n      0x00\n        /* \"#utility.yul\":6600:6639   */\n      tag_194\n        /* \"#utility.yul\":6633:6638   */\n      dup3\n        /* \"#utility.yul\":6600:6639   */\n      tag_96\n      jump\t// in\n    tag_194:\n        /* \"#utility.yul\":6655:6726   */\n      tag_195\n        /* \"#utility.yul\":6719:6725   */\n      dup2\n        /* \"#utility.yul\":6714:6717   */\n      dup6\n        /* \"#utility.yul\":6655:6726   */\n      tag_97\n      jump\t// in\n    tag_195:\n        /* \"#utility.yul\":6648:6726   */\n      swap4\n      pop\n        /* \"#utility.yul\":6735:6800   */\n      tag_196\n        /* \"#utility.yul\":6793:6799   */\n      dup2\n        /* \"#utility.yul\":6788:6791   */\n      dup6\n        /* \"#utility.yul\":6781:6785   */\n      0x20\n        /* \"#utility.yul\":6774:6779   */\n      dup7\n        /* \"#utility.yul\":6770:6786   */\n      add\n        /* \"#utility.yul\":6735:6800   */\n      tag_98\n      jump\t// in\n    tag_196:\n        /* \"#utility.yul\":6825:6854   */\n      tag_197\n        /* \"#utility.yul\":6847:6853   */\n      dup2\n        /* \"#utility.yul\":6825:6854   */\n      tag_85\n      jump\t// in\n    tag_197:\n        /* \"#utility.yul\":6820:6823   */\n      dup5\n        /* \"#utility.yul\":6816:6855   */\n      add\n        /* \"#utility.yul\":6809:6855   */\n      swap2\n      pop\n        /* \"#utility.yul\":6576:6861   */\n      pop\n        /* \"#utility.yul\":6484:6861   */\n      swap3\n      swap2\n      pop\n      pop\n      jump\t// out\n        /* \"#utility.yul\":6867:7180   */\n    tag_45:\n        /* \"#utility.yul\":6980:6984   */\n      0x00\n        /* \"#utility.yul\":7018:7020   */\n      0x20\n        /* \"#utility.yul\":7007:7016   */\n      dup3\n        /* \"#utility.yul\":7003:7021   */\n      add\n        /* \"#utility.yul\":6995:7021   */\n      swap1\n      pop\n        /* \"#utility.yul\":7067:7076   */\n      dup2\n        /* \"#utility.yul\":7061:7065   */\n      dup2\n        /* \"#utility.yul\":7057:7077   */\n      sub\n        /* \"#utility.yul\":7053:7054   */\n      0x00\n        /* \"#utility.yul\":7042:7051   */\n      dup4\n        /* \"#utility.yul\":7038:7055   */\n      add\n        /* \"#utility.yul\":7031:7078   */\n      mstore\n        /* \"#utility.yul\":7095:7173   */\n      tag_199\n        /* \"#utility.yul\":7168:7172   */\n      dup2\n        /* \"#utility.yul\":7159:7165   */\n      dup5\n        /* \"#utility.yul\":7095:7173   */\n      tag_99\n      jump\t// in\n    tag_199:\n        /* \"#utility.yul\":7087:7173   */\n      swap1\n      pop\n        /* \"#utility.yul\":6867:7180   */\n      swap3\n      swap2\n      pop\n      pop\n      jump\t// out\n        /* \"#utility.yul\":7186:7366   */\n    tag_100:\n        /* \"#utility.yul\":7234:7311   */\n      0x4e487b7100000000000000000000000000000000000000000000000000000000\n        /* \"#utility.yul\":7231:7232   */\n      0x00\n        /* \"#utility.yul\":7224:7312   */\n      mstore\n        /* \"#utility.yul\":7331:7335   */\n      0x22\n        /* \"#utility.yul\":7328:7329   */\n      0x04\n        /* \"#utility.yul\":7321:7336   */\n      mstore\n        /* \"#utility.yul\":7355:7359   */\n      0x24\n        /* \"#utility.yul\":7352:7353   */\n      0x00\n        /* \"#utility.yul\":7345:7360   */\n      revert\n        /* \"#utility.yul\":7372:7692   */\n    tag_62:\n        /* \"#utility.yul\":7416:7422   */\n      0x00\n        /* \"#utility.yul\":7453:7454   */\n      0x02\n        /* \"#utility.yul\":7447:7451   */\n      dup3\n        /* \"#utility.yul\":7443:7455   */\n      div\n        /* \"#utility.yul\":7433:7455   */\n      swap1\n      pop\n        /* \"#utility.yul\":7500:7501   */\n      0x01\n        /* \"#utility.yul\":7494:7498   */\n      dup3\n        /* \"#utility.yul\":7490:7502   */\n      and\n        /* \"#utility.yul\":7521:7539   */\n      dup1\n        /* \"#utility.yul\":7511:7592   */\n      tag_202\n      jumpi\n        /* \"#utility.yul\":7577:7581   */\n      0x7f\n        /* \"#utility.yul\":7569:7575   */\n      dup3\n        /* \"#utility.yul\":7565:7582   */\n      and\n        /* \"#utility.yul\":7555:7582   */\n      swap2\n      pop\n        /* \"#utility.yul\":7511:7592   */\n    tag_202:\n        /* \"#utility.yul\":7639:7641   */\n      0x20\n        /* \"#utility.yul\":7631:7637   */\n      dup3\n        /* \"#utility.yul\":7628:7642   */\n      lt\n        /* \"#utility.yul\":7608:7626   */\n      dup2\n        /* \"#utility.yul\":7605:7643   */\n      sub\n        /* \"#utility.yul\":7602:7686   */\n      tag_203\n      jumpi\n        /* \"#utility.yul\":7658:7676   */\n      tag_204\n      tag_100\n      jump\t// in\n    tag_204:\n        /* \"#utility.yul\":7602:7686   */\n    tag_203:\n        /* \"#utility.yul\":7423:7692   */\n      pop\n        /* \"#utility.yul\":7372:7692   */\n      swap2\n      swap1\n      pop\n      jump\t// out\n        /* \"#utility.yul\":7698:7839   */\n    tag_101:\n        /* \"#utility.yul\":7747:7751   */\n      0x00\n        /* \"#utility.yul\":7770:7773   */\n      dup2\n        /* \"#utility.yul\":7762:7773   */\n      swap1\n      pop\n        /* \"#utility.yul\":7793:7796   */\n      dup2\n        /* \"#utility.yul\":7790:7791   */\n      0x00\n        /* \"#utility.yul\":7783:7797   */\n      mstore\n        /* \"#utility.yul\":7827:7831   */\n      0x20\n        /* \"#utility.yul\":7824:7825   */\n      0x00\n        /* \"#utility.yul\":7814:7832   */\n      keccak256\n        /* \"#utility.yul\":7806:7832   */\n      swap1\n      pop\n        /* \"#utility.yul\":7698:7839   */\n      swap2\n      swap1\n      pop\n      jump\t// out\n        /* \"#utility.yul\":7845:7938   */\n    tag_102:\n        /* \"#utility.yul\":7882:7888   */\n      0x00\n        /* \"#utility.yul\":7929:7931   */\n      0x20\n        /* \"#utility.yul\":7924:7926   */\n      0x1f\n        /* \"#utility.yul\":7917:7922   */\n      dup4\n        /* \"#utility.yul\":7913:7927   */\n      add\n        /* \"#utility.yul\":7909:7932   */\n      div\n        /* \"#utility.yul\":7899:7932   */\n      swap1\n      pop\n        /* \"#utility.yul\":7845:7938   */\n      swap2\n      swap1\n      pop\n      jump\t// out\n        /* \"#utility.yul\":7944:8051   */\n    tag_103:\n        /* \"#utility.yul\":7988:7996   */\n      0x00\n        /* \"#utility.yul\":8038:8043   */\n      dup3\n        /* \"#utility.yul\":8032:8036   */\n      dup3\n        /* \"#utility.yul\":8028:8044   */\n      shl\n        /* \"#utility.yul\":8007:8044   */\n      swap1\n      pop\n        /* \"#utility.yul\":7944:8051   */\n      swap3\n      swap2\n      pop\n      pop\n      jump\t// out\n        /* \"#utility.yul\":8057:8450   */\n    tag_104:\n        /* \"#utility.yul\":8126:8132   */\n      0x00\n        /* \"#utility.yul\":8176:8177   */\n      0x08\n        /* \"#utility.yul\":8164:8174   */\n      dup4\n        /* \"#utility.yul\":8160:8178   */\n      mul\n        /* \"#utility.yul\":8199:8296   */\n      tag_209\n        /* \"#utility.yul\":8229:8295   */\n      0xffffffffffffffffffffffffffffffffffffffffffffffffffffffffffffffff\n        /* \"#utility.yul\":8218:8227   */\n      dup3\n        /* \"#utility.yul\":8199:8296   */\n      tag_103\n      jump\t// in\n    tag_209:\n        /* \"#utility.yul\":8317:8356   */\n      tag_210\n        /* \"#utility.yul\":8347:8355   */\n      dup7\n        /* \"#utility.yul\":8336:8345   */\n      dup4\n        /* \"#utility.yul\":8317:8356   */\n      tag_103\n      jump\t// in\n    tag_210:\n        /* \"#utility.yul\":8305:8356   */\n      swap6\n      pop\n        /* \"#utility.yul\":8389:8393   */\n      dup1\n        /* \"#utility.yul\":8385:8394   */\n      not\n        /* \"#utility.yul\":8378:8383   */\n      dup5\n        /* \"#utility.yul\":8374:8395   */\n      and\n        /* \"#utility.yul\":8365:8395   */\n      swap4\n      pop\n        /* \"#utility.yul\":8438:8442   */\n      dup1\n        /* \"#utility.yul\":8428:8436   */\n      dup7\n        /* \"#utility.yul\":8424:8443   */\n      and\n        /* \"#utility.yul\":8417:8422   */\n      dup5\n        /* \"#utility.yul\":8414:8444   */\n      or\n        /* \"#utility.yul\":8404:8444   */\n      swap3\n      pop\n        /* \"#utility.yul\":8133:8450   */\n      pop\n      pop\n        /* \"#utility.yul\":8057:8450   */\n      swap4\n      swap3\n      pop\n      pop\n      pop\n      jump\t// out\n        /* \"#utility.yul\":8456:8516   */\n    tag_105:\n        /* \"#utility.yul\":8484:8487   */\n      0x00\n        /* \"#utility.yul\":8505:8510   */\n      dup2\n        /* \"#utility.yul\":8498:8510   */\n      swap1\n      pop\n        /* \"#utility.yul\":8456:8516   */\n      swap2\n      swap1\n      pop\n      jump\t// out\n        /* \"#utility.yul\":8522:8664   */\n    tag_106:\n        /* \"#utility.yul\":8572:8581   */\n      0x00\n        /* \"#utility.yul\":8605:8658   */\n      tag_213\n        /* \"#utility.yul\":8623:8657   */\n      tag_214\n        /* \"#utility.yul\":8632:8656   */\n      tag_215\n        /* \"#utility.yul\":8650:8655   */\n      dup5\n        /* \"#utility.yul\":8632:8656   */\n      tag_80\n      jump\t// in\n    tag_215:\n        /* \"#utility.yul\":8623:8657   */\n      tag_105\n      jump\t// in\n    tag_214:\n        /* \"#utility.yul\":8605:8658   */\n      tag_80\n      jump\t// in\n    tag_213:\n        /* \"#utility.yul\":8592:8658   */\n      swap1\n      pop\n        /* \"#utility.yul\":8522:8664   */\n      swap2\n      swap1\n      pop\n      jump\t// out\n        /* \"#utility.yul\":8670:8745   */\n    tag_107:\n        /* \"#utility.yul\":8713:8716   */\n      0x00\n        /* \"#utility.yul\":8734:8739   */\n      dup2\n        /* \"#utility.yul\":8727:8739   */\n      swap1\n      pop\n        /* \"#utility.yul\":8670:8745   */\n      swap2\n      swap1\n      pop\n      jump\t// out\n        /* \"#utility.yul\":8751:9020   */\n    tag_108:\n        /* \"#utility.yul\":8861:8900   */\n      tag_218\n        /* \"#utility.yul\":8892:8899   */\n      dup4\n        /* \"#utility.yul\":8861:8900   */\n      tag_106\n      jump\t// in\n    tag_218:\n        /* \"#utility.yul\":8922:9013   */\n      tag_219\n        /* \"#utility.yul\":8971:9012   */\n      tag_220\n        /* \"#utility.yul\":8995:9011   */\n      dup3\n        /* \"#utility.yul\":8971:9012   */\n      tag_107\n      jump\t// in\n    tag_220:\n        /* \"#utility.yul\":8963:8969   */\n      dup5\n        /* \"#utility.yul\":8956:8960   */\n      dup5\n        /* \"#utility.yul\":8950:8961   */\n      sload\n        /* \"#utility.yul\":8922:9013   */\n      tag_104\n      jump\t// in\n    tag_219:\n        /* \"#utility.yul\":8916:8920   */\n      dup3\n        /* \"#utility.yul\":8909:9014   */\n      sstore\n        /* \"#utility.yul\":8827:9020   */\n      pop\n        /* \"#utility.yul\":8751:9020   */\n      pop\n      pop\n      pop\n      jump\t// out\n        /* \"#utility.yul\":9026:9099   */\n    tag_109:\n        /* \"#utility.yul\":9071:9074   */\n      0x00\n        /* \"#utility.yul\":9092:9093   */\n      0x00\n        /* \"#utility.yul\":9085:9093   */\n      swap1\n      pop\n        /* \"#utility.yul\":9026:9099   */\n      swap1\n      jump\t// out\n        /* \"#utility.yul\":9105:9294   */\n    tag_110:\n        /* \"#utility.yul\":9182:9214   */\n      tag_223\n      tag_109\n      jump\t// in\n    tag_223:\n        /* \"#utility.yul\":9223:9288   */\n      tag_224\n        /* \"#utility.yul\":9281:9287   */\n      dup2\n        /* \"#utility.yul\":9273:9279   */\n      dup5\n        /* \"#utility.yul\":9267:9271   */\n      dup5\n        /* \"#utility.yul\":9223:9288   */\n      tag_108\n      jump\t// in\n    tag_224:\n        /* \"#utility.yul\":9158:9294   */\n      pop\n        /* \"#utility.yul\":9105:9294   */\n      pop\n      pop\n      jump\t// out\n        /* \"#utility.yul\":9300:9486   */\n    tag_111:\n        /* \"#utility.yul\":9360:9480   */\n    tag_226:\n        /* \"#utility.yul\":9377:9380   */\n      dup2\n        /* \"#utility.yul\":9370:9375   */\n      dup2\n        /* \"#utility.yul\":9367:9381   */\n      lt\n        /* \"#utility.yul\":9360:9480   */\n      iszero\n      tag_228\n      jumpi\n        /* \"#utility.yul\":9431:9470   */\n      tag_229\n        /* \"#utility.yul\":9468:9469   */\n      0x00\n        /* \"#utility.yul\":9461:9466   */\n      dup3\n        /* \"#utility.yul\":9431:9470   */\n      tag_110\n      jump\t// in\n    tag_229:\n        /* \"#utility.yul\":9404:9405   */\n      0x01\n        /* \"#utility.yul\":9397:9402   */\n      dup2\n        /* \"#utility.yul\":9393:9406   */\n      add\n        /* \"#utility.yul\":9384:9406   */\n      swap1\n      pop\n        /* \"#utility.yul\":9360:9480   */\n      jump(tag_226)\n    tag_228:\n        /* \"#utility.yul\":9300:9486   */\n      pop\n      pop\n      jump\t// out\n        /* \"#utility.yul\":9492:10035   */\n    tag_112:\n        /* \"#utility.yul\":9593:9595   */\n      0x1f\n        /* \"#utility.yul\":9588:9591   */\n      dup3\n        /* \"#utility.yul\":9585:9596   */\n      gt\n        /* \"#utility.yul\":9582:10028   */\n      iszero\n      tag_231\n      jumpi\n        /* \"#utility.yul\":9627:9665   */\n      tag_232\n        /* \"#utility.yul\":9659:9664   */\n      dup2\n        /* \"#utility.yul\":9627:9665   */\n      tag_101\n      jump\t// in\n    tag_232:\n        /* \"#utility.yul\":9711:9740   */\n      tag_233\n        /* \"#utility.yul\":9729:9739   */\n      dup5\n        /* \"#utility.yul\":9711:9740   */\n      tag_102\n      jump\t// in\n    tag_233:\n        /* \"#utility.yul\":9701:9709   */\n      dup2\n        /* \"#utility.yul\":9697:9741   */\n      add\n        /* \"#utility.yul\":9894:9896   */\n      0x20\n        /* \"#utility.yul\":9882:9892   */\n      dup6\n        /* \"#utility.yul\":9879:9897   */\n      lt\n        /* \"#utility.yul\":9876:9925   */\n      iszero\n      tag_234\n      jumpi\n        /* \"#utility.yul\":9915:9923   */\n      dup2\n        /* \"#utility.yul\":9900:9923   */\n      swap1\n      pop\n        /* \"#utility.yul\":9876:9925   */\n    tag_234:\n        /* \"#utility.yul\":9938:10018   */\n      tag_235\n        /* \"#utility.yul\":9994:10016   */\n      tag_236\n        /* \"#utility.yul\":10012:10015   */\n      dup6\n        /* \"#utility.yul\":9994:10016   */\n      tag_102\n      jump\t// in\n    tag_236:\n        /* \"#utility.yul\":9984:9992   */\n      dup4\n        /* \"#utility.yul\":9980:10017   */\n      add\n        /* \"#utility.yul\":9967:9978   */\n      dup3\n        /* \"#utility.yul\":9938:10018   */\n      tag_111\n      jump\t// in\n    tag_235:\n        /* \"#utility.yul\":9597:10028   */\n      pop\n      pop\n        /* \"#utility.yul\":9582:10028   */\n    tag_231:\n        /* \"#utility.yul\":9492:10035   */\n      pop\n      pop\n      pop\n      jump\t// out\n        /* \"#utility.yul\":10041:10158   */\n    tag_113:\n        /* \"#utility.yul\":10095:10103   */\n      0x00\n        /* \"#utility.yul\":10145:10150   */\n      dup3\n        /* \"#utility.yul\":10139:10143   */\n      dup3\n        /* \"#utility.yul\":10135:10151   */\n      shr\n        /* \"#utility.yul\":10114:10151   */\n      swap1\n      pop\n        /* \"#utility.yul\":10041:10158   */\n      swap3\n      swap2\n      pop\n      pop\n      jump\t// out\n        /* \"#utility.yul\":10164:10333   */\n    tag_114:\n        /* \"#utility.yul\":10208:10214   */\n      0x00\n        /* \"#utility.yul\":10241:10292   */\n      tag_239\n        /* \"#utility.yul\":10289:10290   */\n      0x00\n        /* \"#utility.yul\":10285:10291   */\n      not\n        /* \"#utility.yul\":10277:10282   */\n      dup5\n        /* \"#utility.yul\":10274:10275   */\n      0x08\n        /* \"#utility.yul\":10270:10283   */\n      mul\n        /* \"#utility.yul\":10241:10292   */\n      tag_113\n      jump\t// in\n    tag_239:\n        /* \"#utility.yul\":10237:10293   */\n      not\n        /* \"#utility.yul\":10322:10326   */\n      dup1\n        /* \"#utility.yul\":10316:10320   */\n      dup4\n        /* \"#utility.yul\":10312:10327   */\n      and\n        /* \"#utility.yul\":10302:10327   */\n      swap2\n      pop\n        /* \"#utility.yul\":10215:10333   */\n      pop\n        /* \"#utility.yul\":10164:10333   */\n      swap3\n      swap2\n      pop\n      pop\n      jump\t// out\n        /* \"#utility.yul\":10338:10633   */\n    tag_115:\n        /* \"#utility.yul\":10414:10418   */\n      0x00\n        /* \"#utility.yul\":10560:10589   */\n      tag_241\n        /* \"#utility.yul\":10585:10588   */\n      dup4\n        /* \"#utility.yul\":10579:10583   */\n      dup4\n        /* \"#utility.yul\":10560:10589   */\n      tag_114\n      jump\t// in\n    tag_241:\n        /* \"#utility.yul\":10552:10589   */\n      swap2\n      pop\n        /* \"#utility.yul\":10622:10625   */\n      dup3\n        /* \"#utility.yul\":10619:10620   */\n      0x02\n        /* \"#utility.yul\":10615:10626   */\n      mul\n        /* \"#utility.yul\":10609:10613   */\n      dup3\n        /* \"#utility.yul\":10606:10627   */\n      or\n        /* \"#utility.yul\":10598:10627   */\n      swap1\n      pop\n        /* \"#utility.yul\":10338:10633   */\n      swap3\n      swap2\n      pop\n      pop\n      jump\t// out\n        /* \"#utility.yul\":10638:12033   */\n    tag_57:\n        /* \"#utility.yul\":10755:10792   */\n      tag_243\n        /* \"#utility.yul\":10788:10791   */\n      dup3\n        /* \"#utility.yul\":10755:10792   */\n      tag_96\n      jump\t// in\n    tag_243:\n        /* \"#utility.yul\":10857:10875   */\n      0xffffffffffffffff\n        /* \"#utility.yul\":10849:10855   */\n      dup2\n        /* \"#utility.yul\":10846:10876   */\n      gt\n        /* \"#utility.yul\":10843:10899   */\n      iszero\n      tag_244\n      jumpi\n        /* \"#utility.yul\":10879:10897   */\n      tag_245\n      tag_86\n      jump\t// in\n    tag_245:\n        /* \"#utility.yul\":10843:10899   */\n    tag_244:\n        /* \"#utility.yul\":10923:10961   */\n      tag_246\n        /* \"#utility.yul\":10955:10959   */\n      dup3\n        /* \"#utility.yul\":10949:10960   */\n      sload\n        /* \"#utility.yul\":10923:10961   */\n      tag_62\n      jump\t// in\n    tag_246:\n        /* \"#utility.yul\":11008:11075   */\n      tag_247\n        /* \"#utility.yul\":11068:11074   */\n      dup3\n        /* \"#utility.yul\":11060:11066   */\n      dup3\n        /* \"#utility.yul\":11054:11058   */\n      dup6\n        /* \"#utility.yul\":11008:11075   */\n      tag_112\n      jump\t// in\n    tag_247:\n        /* \"#utility.yul\":11102:11103   */\n      0x00\n        /* \"#utility.yul\":11126:11130   */\n      0x20\n        /* \"#utility.yul\":11113:11130   */\n      swap1\n      pop\n        /* \"#utility.yul\":11158:11160   */\n      0x1f\n        /* \"#utility.yul\":11150:11156   */\n      dup4\n        /* \"#utility.yul\":11147:11161   */\n      gt\n        /* \"#utility.yul\":11175:11176   */\n      0x01\n        /* \"#utility.yul\":11170:11788   */\n      dup2\n      eq\n      tag_249\n      jumpi\n        /* \"#utility.yul\":11832:11833   */\n      0x00\n        /* \"#utility.yul\":11849:11855   */\n      dup5\n        /* \"#utility.yul\":11846:11923   */\n      iszero\n      tag_250\n      jumpi\n        /* \"#utility.yul\":11898:11907   */\n      dup3\n        /* \"#utility.yul\":11893:11896   */\n      dup8\n        /* \"#utility.yul\":11889:11908   */\n      add\n        /* \"#utility.yul\":11883:11909   */\n      mload\n        /* \"#utility.yul\":11874:11909   */\n      swap1\n      pop\n        /* \"#utility.yul\":11846:11923   */\n    tag_250:\n        /* \"#utility.yul\":11949:12016   */\n      tag_251\n        /* \"#utility.yul\":12009:12015   */\n      dup6\n        /* \"#utility.yul\":12002:12007   */\n      dup3\n        /* \"#utility.yul\":11949:12016   */\n      tag_115\n      jump\t// in\n    tag_251:\n        /* \"#utility.yul\":11943:11947   */\n      dup7\n        /* \"#utility.yul\":11936:12017   */\n      sstore\n        /* \"#utility.yul\":11805:12027   */\n      pop\n        /* \"#utility.yul\":11140:12027   */\n      jump(tag_248)\n        /* \"#utility.yul\":11170:11788   */\n    tag_249:\n        /* \"#utility.yul\":11222:11226   */\n      0x1f\n        /* \"#utility.yul\":11218:11227   */\n      not\n        /* \"#utility.yul\":11210:11216   */\n      dup5\n        /* \"#utility.yul\":11206:11228   */\n      and\n        /* \"#utility.yul\":11256:11293   */\n      tag_252\n        /* \"#utility.yul\":11288:11292   */\n      dup7\n        /* \"#utility.yul\":11256:11293   */\n      tag_101\n      jump\t// in\n    tag_252:\n        /* \"#utility.yul\":11315:11316   */\n      0x00\n        /* \"#utility.yul\":11329:11537   */\n    tag_253:\n        /* \"#utility.yul\":11343:11350   */\n      dup3\n        /* \"#utility.yul\":11340:11341   */\n      dup2\n        /* \"#utility.yul\":11337:11351   */\n      lt\n        /* \"#utility.yul\":11329:11537   */\n      iszero\n      tag_255\n      jumpi\n        /* \"#utility.yul\":11422:11431   */\n      dup5\n        /* \"#utility.yul\":11417:11420   */\n      dup10\n        /* \"#utility.yul\":11413:11432   */\n      add\n        /* \"#utility.yul\":11407:11433   */\n      mload\n        /* \"#utility.yul\":11399:11405   */\n      dup3\n        /* \"#utility.yul\":11392:11434   */\n      sstore\n        /* \"#utility.yul\":11473:11474   */\n      0x01\n        /* \"#utility.yul\":11465:11471   */\n      dup3\n        /* \"#utility.yul\":11461:11475   */\n      add\n        /* \"#utility.yul\":11451:11475   */\n      swap2\n      pop\n        /* \"#utility.yul\":11520:11522   */\n      0x20\n        /* \"#utility.yul\":11509:11518   */\n      dup6\n        /* \"#utility.yul\":11505:11523   */\n      add\n        /* \"#utility.yul\":11492:11523   */\n      swap5\n      pop\n        /* \"#utility.yul\":11366:11370   */\n      0x20\n        /* \"#utility.yul\":11363:11364   */\n      dup2\n        /* \"#utility.yul\":11359:11371   */\n      add\n        /* \"#utility.yul\":11354:11371   */\n      swap1\n      pop\n        /* \"#utility.yul\":11329:11537   */\n      jump(tag_253)\n    tag_255:\n        /* \"#utility.yul\":11565:11571   */\n      dup7\n        /* \"#utility.yul\":11556:11563   */\n      dup4\n        /* \"#utility.yul\":11553:11572   */\n      lt\n        /* \"#utility.yul\":11550:11729   */\n      iszero\n      tag_256\n      jumpi\n        /* \"#utility.yul\":11623:11632   */\n      dup5\n        /* \"#utility.yul\":11618:11621   */\n      dup10\n        /* \"#utility.yul\":11614:11633   */\n      add\n        /* \"#utility.yul\":11608:11634   */\n      mload\n        /* \"#utility.yul\":11666:11714   */\n      tag_257\n        /* \"#utility.yul\":11708:11712   */\n      0x1f\n        /* \"#utility.yul\":11700:11706   */\n      dup10\n        /* \"#utility.yul\":11696:11713   */\n      and\n        /* \"#utility.yul\":11685:11694   */\n      dup3\n        /* \"#utility.yul\":11666:11714   */\n      tag_114\n      jump\t// in\n    tag_257:\n        /* \"#utility.yul\":11658:11664   */\n      dup4\n        /* \"#utility.yul\":11651:11715   */\n      sstore\n        /* \"#utility.yul\":11573:11729   */\n      pop\n        /* \"#utility.yul\":11550:11729   */\n    tag_256:\n        /* \"#utility.yul\":11775:11776   */\n      0x01\n        /* \"#utility.yul\":11771:11772   */\n      0x02\n        /* \"#utility.yul\":11763:11769   */\n      dup9\n        /* \"#utility.yul\":11759:11773   */\n      mul\n        /* \"#utility.yul\":11755:11777   */\n      add\n        /* \"#utility.yul\":11749:11753   */\n      dup9\n        /* \"#utility.yul\":11742:11778   */\n      sstore\n        /* \"#utility.yul\":11177:11788   */\n      pop\n      pop\n      pop\n        /* \"#utility.yul\":11140:12027   */\n    tag_248:\n      pop\n        /* \"#utility.yul\":10730:12033   */\n      pop\n      pop\n      pop\n        /* \"#utility.yul\":10638:12033   */\n      pop\n      pop\n      jump\t// out\n        /* \"#utility.yul\":12039:12774   */\n    tag_60:\n        /* \"#utility.yul\":12256:12260   */\n      0x00\n        /* \"#utility.yul\":12294:12297   */\n      0x80\n        /* \"#utility.yul\":12283:12292   */\n      dup3\n        /* \"#utility.yul\":12279:12298   */\n      add\n        /* \"#utility.yul\":12271:12298   */\n      swap1\n      pop\n        /* \"#utility.yul\":12308:12379   */\n      tag_259\n        /* \"#utility.yul\":12376:12377   */\n      0x00\n        /* \"#utility.yul\":12365:12374   */\n      dup4\n        /* \"#utility.yul\":12361:12378   */\n      add\n        /* \"#utility.yul\":12352:12358   */\n      dup8\n        /* \"#utility.yul\":12308:12379   */\n      tag_76\n      jump\t// in\n    tag_259:\n        /* \"#utility.yul\":12426:12435   */\n      dup2\n        /* \"#utility.yul\":12420:12424   */\n      dup2\n        /* \"#utility.yul\":12416:12436   */\n      sub\n        /* \"#utility.yul\":12411:12413   */\n      0x20\n        /* \"#utility.yul\":12400:12409   */\n      dup4\n        /* \"#utility.yul\":12396:12414   */\n      add\n        /* \"#utility.yul\":12389:12437   */\n      mstore\n        /* \"#utility.yul\":12454:12532   */\n      tag_260\n        /* \"#utility.yul\":12527:12531   */\n      dup2\n        /* \"#utility.yul\":12518:12524   */\n      dup7\n        /* \"#utility.yul\":12454:12532   */\n      tag_99\n      jump\t// in\n    tag_260:\n        /* \"#utility.yul\":12446:12532   */\n      swap1\n      pop\n        /* \"#utility.yul\":12579:12588   */\n      dup2\n        /* \"#utility.yul\":12573:12577   */\n      dup2\n        /* \"#utility.yul\":12569:12589   */\n      sub\n        /* \"#utility.yul\":12564:12566   */\n      0x40\n        /* \"#utility.yul\":12553:12562   */\n      dup4\n        /* \"#utility.yul\":12549:12567   */\n      add\n        /* \"#utility.yul\":12542:12590   */\n      mstore\n        /* \"#utility.yul\":12607:12685   */\n      tag_261\n        /* \"#utility.yul\":12680:12684   */\n      dup2\n        /* \"#utility.yul\":12671:12677   */\n      dup6\n        /* \"#utility.yul\":12607:12685   */\n      tag_99\n      jump\t// in\n    tag_261:\n        /* \"#utility.yul\":12599:12685   */\n      swap1\n      pop\n        /* \"#utility.yul\":12695:12767   */\n      tag_262\n        /* \"#utility.yul\":12763:12765   */\n      0x60\n        /* \"#utility.yul\":12752:12761   */\n      dup4\n        /* \"#utility.yul\":12748:12766   */\n      add\n        /* \"#utility.yul\":12739:12745   */\n      dup5\n        /* \"#utility.yul\":12695:12767   */\n      tag_95\n      jump\t// in\n    tag_262:\n        /* \"#utility.yul\":12039:12774   */\n      swap6\n      swap5\n      pop\n      pop\n      pop\n      pop\n      pop\n      jump\t// out\n\n    auxdata: 0xa2646970667358221220fa1cf461e82d7dd775cf836253513069e4888f2c96e448d4d4272a4d7c35783664736f6c634300081e0033\n}\n",
				"bytecode": {
					"linkReferences": {},
					"object": "6080604052348015600e575f5ffd5b50335f5f6101000a81548173ffffffffffffffffffffffffffffffffffffffff021916908373ffffffffffffffffffffffffffffffffffffffff160217905550610bf98061005b5f395ff3fe60806040526004361061007a575f3560e01c806397a993aa1161004d57806397a993aa14610116578063a035b1fe14610152578063d25cf0f51461017c578063f2c09670146101a65761007a565b8063219a1d771461007e5780638da5cb5b146100a857806391b7f5ed146100d2578063975d279c146100fa575b5f5ffd5b348015610089575f5ffd5b506100926101d0565b60405161009f9190610517565b60405180910390f35b3480156100b3575f5ffd5b506100bc610220565b6040516100c9919061056f565b60405180910390f35b3480156100dd575f5ffd5b506100f860048036038101906100f391906105cc565b610244565b005b610114600480360381019061010f9190610733565b6102a5565b005b348015610121575f5ffd5b5061013c600480360381019061013791906107d3565b6103c2565b6040516101499190610517565b60405180910390f35b34801561015d575f5ffd5b506101666103df565b604051610173919061080d565b60405180910390f35b348015610187575f5ffd5b506101906103e5565b60405161019d9190610886565b60405180910390f35b3480156101b1575f5ffd5b506101ba610471565b6040516101c79190610886565b60405180910390f35b5f60015f3373ffffffffffffffffffffffffffffffffffffffff1673ffffffffffffffffffffffffffffffffffffffff1681526020019081526020015f205f9054906101000a900460ff16905090565b5f5f9054906101000a900473ffffffffffffffffffffffffffffffffffffffff1681565b5f5f9054906101000a900473ffffffffffffffffffffffffffffffffffffffff1673ffffffffffffffffffffffffffffffffffffffff163373ffffffffffffffffffffffffffffffffffffffff161461029b575f5ffd5b8060048190555050565b6004543410156102b3575f5ffd5b5f151560015f3373ffffffffffffffffffffffffffffffffffffffff1673ffffffffffffffffffffffffffffffffffffffff1681526020019081526020015f205f9054906101000a900460ff1615151461030b575f5ffd5b6001805f3373ffffffffffffffffffffffffffffffffffffffff1673ffffffffffffffffffffffffffffffffffffffff1681526020019081526020015f205f6101000a81548160ff021916908315150217905550816002908161036e9190610aa3565b50806003908161037e9190610aa3565b507fb7d525d230b4a7b392c8e8c7cb545883b05ad379bddb9fc3c91a3e340b88222b3383836004546040516103b69493929190610b72565b60405180910390a15050565b6001602052805f5260405f205f915054906101000a900460ff1681565b60045481565b600280546103f2906108d3565b80601f016020809104026020016040519081016040528092919081815260200182805461041e906108d3565b80156104695780601f1061044057610100808354040283529160200191610469565b820191905f5260205f20905b81548152906001019060200180831161044c57829003601f168201915b505050505081565b6003805461047e906108d3565b80601f01602080910402602001604051908101604052809291908181526020018280546104aa906108d3565b80156104f55780601f106104cc576101008083540402835291602001916104f5565b820191905f5260205f20905b8154815290600101906020018083116104d857829003601f168201915b505050505081565b5f8115159050919050565b610511816104fd565b82525050565b5f60208201905061052a5f830184610508565b92915050565b5f73ffffffffffffffffffffffffffffffffffffffff82169050919050565b5f61055982610530565b9050919050565b6105698161054f565b82525050565b5f6020820190506105825f830184610560565b92915050565b5f604051905090565b5f5ffd5b5f5ffd5b5f819050919050565b6105ab81610599565b81146105b5575f5ffd5b50565b5f813590506105c6816105a2565b92915050565b5f602082840312156105e1576105e0610591565b5b5f6105ee848285016105b8565b91505092915050565b5f5ffd5b5f5ffd5b5f601f19601f8301169050919050565b7f4e487b71000000000000000000000000000000000000000000000000000000005f52604160045260245ffd5b610645826105ff565b810181811067ffffffffffffffff821117156106645761066361060f565b5b80604052505050565b5f610676610588565b9050610682828261063c565b919050565b5f67ffffffffffffffff8211156106a1576106a061060f565b5b6106aa826105ff565b9050602081019050919050565b828183375f83830152505050565b5f6106d76106d284610687565b61066d565b9050828152602081018484840111156106f3576106f26105fb565b5b6106fe8482856106b7565b509392505050565b5f82601f83011261071a576107196105f7565b5b813561072a8482602086016106c5565b91505092915050565b5f5f6040838503121561074957610748610591565b5b5f83013567ffffffffffffffff81111561076657610765610595565b5b61077285828601610706565b925050602083013567ffffffffffffffff81111561079357610792610595565b5b61079f85828601610706565b9150509250929050565b6107b28161054f565b81146107bc575f5ffd5b50565b5f813590506107cd816107a9565b92915050565b5f602082840312156107e8576107e7610591565b5b5f6107f5848285016107bf565b91505092915050565b61080781610599565b82525050565b5f6020820190506108205f8301846107fe565b92915050565b5f81519050919050565b5f82825260208201905092915050565b8281835e5f83830152505050565b5f61085882610826565b6108628185610830565b9350610872818560208601610840565b61087b816105ff565b840191505092915050565b5f6020820190508181035f83015261089e818461084e565b905092915050565b7f4e487b71000000000000000000000000000000000000000000000000000000005f52602260045260245ffd5b5f60028204905060018216806108ea57607f821691505b6020821081036108fd576108fc6108a6565b5b50919050565b5f819050815f5260205f209050919050565b5f6020601f8301049050919050565b5f82821b905092915050565b5f6008830261095f7fffffffffffffffffffffffffffffffffffffffffffffffffffffffffffffffff82610924565b6109698683610924565b95508019841693508086168417925050509392505050565b5f819050919050565b5f6109a461099f61099a84610599565b610981565b610599565b9050919050565b5f819050919050565b6109bd8361098a565b6109d16109c9826109ab565b848454610930565b825550505050565b5f5f905090565b6109e86109d9565b6109f38184846109b4565b505050565b5b81811015610a1657610a0b5f826109e0565b6001810190506109f9565b5050565b601f821115610a5b57610a2c81610903565b610a3584610915565b81016020851015610a44578190505b610a58610a5085610915565b8301826109f8565b50505b505050565b5f82821c905092915050565b5f610a7b5f1984600802610a60565b1980831691505092915050565b5f610a938383610a6c565b9150826002028217905092915050565b610aac82610826565b67ffffffffffffffff811115610ac557610ac461060f565b5b610acf82546108d3565b610ada828285610a1a565b5f60209050601f831160018114610b0b575f8415610af9578287015190505b610b038582610a88565b865550610b6a565b601f198416610b1986610903565b5f5b82811015610b4057848901518255600182019150602085019450602081019050610b1b565b86831015610b5d5784890151610b59601f891682610a6c565b8355505b6001600288020188555050505b505050505050565b5f608082019050610b855f830187610560565b8181036020830152610b97818661084e565b90508181036040830152610bab818561084e565b9050610bba60608301846107fe565b9594505050505056fea2646970667358221220fa1cf461e82d7dd775cf836253513069e4888f2c96e448d4d4272a4d7c35783664736f6c634300081e0033",
					"opcodes": "PUSH1 0x80 PUSH1 0x40 MSTORE CALLVALUE DUP1 ISZERO PUSH1 0xE JUMPI PUSH0 PUSH0 REVERT JUMPDEST POP CALLER PUSH0 PUSH0 PUSH2 0x100 EXP DUP2 SLOAD DUP2 PUSH20 0xFFFFFFFFFFFFFFFFFFFFFFFFFFFFFFFFFFFFFFFF MUL NOT AND SWAP1 DUP4 PUSH20 0xFFFFFFFFFFFFFFFFFFFFFFFFFFFFFFFFFFFFFFFF AND MUL OR SWAP1 SSTORE POP PUSH2 0xBF9 DUP1 PUSH2 0x5B PUSH0 CODECOPY PUSH0 RETURN INVALID PUSH1 0x80 PUSH1 0x40 MSTORE PUSH1 0x4 CALLDATASIZE LT PUSH2 0x7A JUMPI PUSH0 CALLDATALOAD PUSH1 0xE0 SHR DUP1 PUSH4 0x97A993AA GT PUSH2 0x4D JUMPI DUP1 PUSH4 0x97A993AA EQ PUSH2 0x116 JUMPI DUP1 PUSH4 0xA035B1FE EQ PUSH2 0x152 JUMPI DUP1 PUSH4 0xD25CF0F5 EQ PUSH2 0x17C JUMPI DUP1 PUSH4 0xF2C09670 EQ PUSH2 0x1A6 JUMPI PUSH2 0x7A JUMP JUMPDEST DUP1 PUSH4 0x219A1D77 EQ PUSH2 0x7E JUMPI DUP1 PUSH4 0x8DA5CB5B EQ PUSH2 0xA8 JUMPI DUP1 PUSH4 0x91B7F5ED EQ PUSH2 0xD2 JUMPI DUP1 PUSH4 0x975D279C EQ PUSH2 0xFA JUMPI JUMPDEST PUSH0 PUSH0 REVERT JUMPDEST CALLVALUE DUP1 ISZERO PUSH2 0x89 JUMPI PUSH0 PUSH0 REVERT JUMPDEST POP PUSH2 0x92 PUSH2 0x1D0 JUMP JUMPDEST PUSH1 0x40 MLOAD PUSH2 0x9F SWAP2 SWAP1 PUSH2 0x517 JUMP JUMPDEST PUSH1 0x40 MLOAD DUP1 SWAP2 SUB SWAP1 RETURN JUMPDEST CALLVALUE DUP1 ISZERO PUSH2 0xB3 JUMPI PUSH0 PUSH0 REVERT JUMPDEST POP PUSH2 0xBC PUSH2 0x220 JUMP JUMPDEST PUSH1 0x40 MLOAD PUSH2 0xC9 SWAP2 SWAP1 PUSH2 0x56F JUMP JUMPDEST PUSH1 0x40 MLOAD DUP1 SWAP2 SUB SWAP1 RETURN JUMPDEST CALLVALUE DUP1 ISZERO PUSH2 0xDD JUMPI PUSH0 PUSH0 REVERT JUMPDEST POP PUSH2 0xF8 PUSH1 0x4 DUP1 CALLDATASIZE SUB DUP2 ADD SWAP1 PUSH2 0xF3 SWAP2 SWAP1 PUSH2 0x5CC JUMP JUMPDEST PUSH2 0x244 JUMP JUMPDEST STOP JUMPDEST PUSH2 0x114 PUSH1 0x4 DUP1 CALLDATASIZE SUB DUP2 ADD SWAP1 PUSH2 0x10F SWAP2 SWAP1 PUSH2 0x733 JUMP JUMPDEST PUSH2 0x2A5 JUMP JUMPDEST STOP JUMPDEST CALLVALUE DUP1 ISZERO PUSH2 0x121 JUMPI PUSH0 PUSH0 REVERT JUMPDEST POP PUSH2 0x13C PUSH1 0x4 DUP1 CALLDATASIZE SUB DUP2 ADD SWAP1 PUSH2 0x137 SWAP2 SWAP1 PUSH2 0x7D3 JUMP JUMPDEST PUSH2 0x3C2 JUMP JUMPDEST PUSH1 0x40 MLOAD PUSH2 0x149 SWAP2 SWAP1 PUSH2 0x517 JUMP JUMPDEST PUSH1 0x40 MLOAD DUP1 SWAP2 SUB SWAP1 RETURN JUMPDEST CALLVALUE DUP1 ISZERO PUSH2 0x15D JUMPI PUSH0 PUSH0 REVERT JUMPDEST POP PUSH2 0x166 PUSH2 0x3DF JUMP JUMPDEST PUSH1 0x40 MLOAD PUSH2 0x173 SWAP2 SWAP1 PUSH2 0x80D JUMP JUMPDEST PUSH1 0x40 MLOAD DUP1 SWAP2 SUB SWAP1 RETURN JUMPDEST CALLVALUE DUP1 ISZERO PUSH2 0x187 JUMPI PUSH0 PUSH0 REVERT JUMPDEST POP PUSH2 0x190 PUSH2 0x3E5 JUMP JUMPDEST PUSH1 0x40 MLOAD PUSH2 0x19D SWAP2 SWAP1 PUSH2 0x886 JUMP JUMPDEST PUSH1 0x40 MLOAD DUP1 SWAP2 SUB SWAP1 RETURN JUMPDEST CALLVALUE DUP1 ISZERO PUSH2 0x1B1 JUMPI PUSH0 PUSH0 REVERT JUMPDEST POP PUSH2 0x1BA PUSH2 0x471 JUMP JUMPDEST PUSH1 0x40 MLOAD PUSH2 0x1C7 SWAP2 SWAP1 PUSH2 0x886 JUMP JUMPDEST PUSH1 0x40 MLOAD DUP1 SWAP2 SUB SWAP1 RETURN JUMPDEST PUSH0 PUSH1 0x1 PUSH0 CALLER PUSH20 0xFFFFFFFFFFFFFFFFFFFFFFFFFFFFFFFFFFFFFFFF AND PUSH20 0xFFFFFFFFFFFFFFFFFFFFFFFFFFFFFFFFFFFFFFFF AND DUP2 MSTORE PUSH1 0x20 ADD SWAP1 DUP2 MSTORE PUSH1 0x20 ADD PUSH0 KECCAK256 PUSH0 SWAP1 SLOAD SWAP1 PUSH2 0x100 EXP SWAP1 DIV PUSH1 0xFF AND SWAP1 POP SWAP1 JUMP JUMPDEST PUSH0 PUSH0 SWAP1 SLOAD SWAP1 PUSH2 0x100 EXP SWAP1 DIV PUSH20 0xFFFFFFFFFFFFFFFFFFFFFFFFFFFFFFFFFFFFFFFF AND DUP2 JUMP JUMPDEST PUSH0 PUSH0 SWAP1 SLOAD SWAP1 PUSH2 0x100 EXP SWAP1 DIV PUSH20 0xFFFFFFFFFFFFFFFFFFFFFFFFFFFFFFFFFFFFFFFF AND PUSH20 0xFFFFFFFFFFFFFFFFFFFFFFFFFFFFFFFFFFFFFFFF AND CALLER PUSH20 0xFFFFFFFFFFFFFFFFFFFFFFFFFFFFFFFFFFFFFFFF AND EQ PUSH2 0x29B JUMPI PUSH0 PUSH0 REVERT JUMPDEST DUP1 PUSH1 0x4 DUP2 SWAP1 SSTORE POP POP JUMP JUMPDEST PUSH1 0x4 SLOAD CALLVALUE LT ISZERO PUSH2 0x2B3 JUMPI PUSH0 PUSH0 REVERT JUMPDEST PUSH0 ISZERO ISZERO PUSH1 0x1 PUSH0 CALLER PUSH20 0xFFFFFFFFFFFFFFFFFFFFFFFFFFFFFFFFFFFFFFFF AND PUSH20 0xFFFFFFFFFFFFFFFFFFFFFFFFFFFFFFFFFFFFFFFF AND DUP2 MSTORE PUSH1 0x20 ADD SWAP1 DUP2 MSTORE PUSH1 0x20 ADD PUSH0 KECCAK256 PUSH0 SWAP1 SLOAD SWAP1 PUSH2 0x100 EXP SWAP1 DIV PUSH1 0xFF AND ISZERO ISZERO EQ PUSH2 0x30B JUMPI PUSH0 PUSH0 REVERT JUMPDEST PUSH1 0x1 DUP1 PUSH0 CALLER PUSH20 0xFFFFFFFFFFFFFFFFFFFFFFFFFFFFFFFFFFFFFFFF AND PUSH20 0xFFFFFFFFFFFFFFFFFFFFFFFFFFFFFFFFFFFFFFFF AND DUP2 MSTORE PUSH1 0x20 ADD SWAP1 DUP2 MSTORE PUSH1 0x20 ADD PUSH0 KECCAK256 PUSH0 PUSH2 0x100 EXP DUP2 SLOAD DUP2 PUSH1 0xFF MUL NOT AND SWAP1 DUP4 ISZERO ISZERO MUL OR SWAP1 SSTORE POP DUP2 PUSH1 0x2 SWAP1 DUP2 PUSH2 0x36E SWAP2 SWAP1 PUSH2 0xAA3 JUMP JUMPDEST POP DUP1 PUSH1 0x3 SWAP1 DUP2 PUSH2 0x37E SWAP2 SWAP1 PUSH2 0xAA3 JUMP JUMPDEST POP PUSH32 0xB7D525D230B4A7B392C8E8C7CB545883B05AD379BDDB9FC3C91A3E340B88222B CALLER DUP4 DUP4 PUSH1 0x4 SLOAD PUSH1 0x40 MLOAD PUSH2 0x3B6 SWAP5 SWAP4 SWAP3 SWAP2 SWAP1 PUSH2 0xB72 JUMP JUMPDEST PUSH1 0x40 MLOAD DUP1 SWAP2 SUB SWAP1 LOG1 POP POP JUMP JUMPDEST PUSH1 0x1 PUSH1 0x20 MSTORE DUP1 PUSH0 MSTORE PUSH1 0x40 PUSH0 KECCAK256 PUSH0 SWAP2 POP SLOAD SWAP1 PUSH2 0x100 EXP SWAP1 DIV PUSH1 0xFF AND DUP2 JUMP JUMPDEST PUSH1 0x4 SLOAD DUP2 JUMP JUMPDEST PUSH1 0x2 DUP1 SLOAD PUSH2 0x3F2 SWAP1 PUSH2 0x8D3 JUMP JUMPDEST DUP1 PUSH1 0x1F ADD PUSH1 0x20 DUP1 SWAP2 DIV MUL PUSH1 0x20 ADD PUSH1 0x40 MLOAD SWAP1 DUP2 ADD PUSH1 0x40 MSTORE DUP1 SWAP3 SWAP2 SWAP1 DUP2 DUP2 MSTORE PUSH1 0x20 ADD DUP3 DUP1 SLOAD PUSH2 0x41E SWAP1 PUSH2 0x8D3 JUMP JUMPDEST DUP1 ISZERO PUSH2 0x469 JUMPI DUP1 PUSH1 0x1F LT PUSH2 0x440 JUMPI PUSH2 0x100 DUP1 DUP4 SLOAD DIV MUL DUP4 MSTORE SWAP2 PUSH1 0x20 ADD SWAP2 PUSH2 0x469 JUMP JUMPDEST DUP3 ADD SWAP2 SWAP1 PUSH0 MSTORE PUSH1 0x20 PUSH0 KECCAK256 SWAP1 JUMPDEST DUP2 SLOAD DUP2 MSTORE SWAP1 PUSH1 0x1 ADD SWAP1 PUSH1 0x20 ADD DUP1 DUP4 GT PUSH2 0x44C JUMPI DUP3 SWAP1 SUB PUSH1 0x1F AND DUP3 ADD SWAP2 JUMPDEST POP POP POP POP POP DUP2 JUMP JUMPDEST PUSH1 0x3 DUP1 SLOAD PUSH2 0x47E SWAP1 PUSH2 0x8D3 JUMP JUMPDEST DUP1 PUSH1 0x1F ADD PUSH1 0x20 DUP1 SWAP2 DIV MUL PUSH1 0x20 ADD PUSH1 0x40 MLOAD SWAP1 DUP2 ADD PUSH1 0x40 MSTORE DUP1 SWAP3 SWAP2 SWAP1 DUP2 DUP2 MSTORE PUSH1 0x20 ADD DUP3 DUP1 SLOAD PUSH2 0x4AA SWAP1 PUSH2 0x8D3 JUMP JUMPDEST DUP1 ISZERO PUSH2 0x4F5 JUMPI DUP1 PUSH1 0x1F LT PUSH2 0x4CC JUMPI PUSH2 0x100 DUP1 DUP4 SLOAD DIV MUL DUP4 MSTORE SWAP2 PUSH1 0x20 ADD SWAP2 PUSH2 0x4F5 JUMP JUMPDEST DUP3 ADD SWAP2 SWAP1 PUSH0 MSTORE PUSH1 0x20 PUSH0 KECCAK256 SWAP1 JUMPDEST DUP2 SLOAD DUP2 MSTORE SWAP1 PUSH1 0x1 ADD SWAP1 PUSH1 0x20 ADD DUP1 DUP4 GT PUSH2 0x4D8 JUMPI DUP3 SWAP1 SUB PUSH1 0x1F AND DUP3 ADD SWAP2 JUMPDEST POP POP POP POP POP DUP2 JUMP JUMPDEST PUSH0 DUP2 ISZERO ISZERO SWAP1 POP SWAP2 SWAP1 POP JUMP JUMPDEST PUSH2 0x511 DUP2 PUSH2 0x4FD JUMP JUMPDEST DUP3 MSTORE POP POP JUMP JUMPDEST PUSH0 PUSH1 0x20 DUP3 ADD SWAP1 POP PUSH2 0x52A PUSH0 DUP4 ADD DUP5 PUSH2 0x508 JUMP JUMPDEST SWAP3 SWAP2 POP POP JUMP JUMPDEST PUSH0 PUSH20 0xFFFFFFFFFFFFFFFFFFFFFFFFFFFFFFFFFFFFFFFF DUP3 AND SWAP1 POP SWAP2 SWAP1 POP JUMP JUMPDEST PUSH0 PUSH2 0x559 DUP3 PUSH2 0x530 JUMP JUMPDEST SWAP1 POP SWAP2 SWAP1 POP JUMP JUMPDEST PUSH2 0x569 DUP2 PUSH2 0x54F JUMP JUMPDEST DUP3 MSTORE POP POP JUMP JUMPDEST PUSH0 PUSH1 0x20 DUP3 ADD SWAP1 POP PUSH2 0x582 PUSH0 DUP4 ADD DUP5 PUSH2 0x560 JUMP JUMPDEST SWAP3 SWAP2 POP POP JUMP JUMPDEST PUSH0 PUSH1 0x40 MLOAD SWAP1 POP SWAP1 JUMP JUMPDEST PUSH0 PUSH0 REVERT JUMPDEST PUSH0 PUSH0 REVERT JUMPDEST PUSH0 DUP2 SWAP1 POP SWAP2 SWAP1 POP JUMP JUMPDEST PUSH2 0x5AB DUP2 PUSH2 0x599 JUMP JUMPDEST DUP2 EQ PUSH2 0x5B5 JUMPI PUSH0 PUSH0 REVERT JUMPDEST POP JUMP JUMPDEST PUSH0 DUP2 CALLDATALOAD SWAP1 POP PUSH2 0x5C6 DUP2 PUSH2 0x5A2 JUMP JUMPDEST SWAP3 SWAP2 POP POP JUMP JUMPDEST PUSH0 PUSH1 0x20 DUP3 DUP5 SUB SLT ISZERO PUSH2 0x5E1 JUMPI PUSH2 0x5E0 PUSH2 0x591 JUMP JUMPDEST JUMPDEST PUSH0 PUSH2 0x5EE DUP5 DUP3 DUP6 ADD PUSH2 0x5B8 JUMP JUMPDEST SWAP2 POP POP SWAP3 SWAP2 POP POP JUMP JUMPDEST PUSH0 PUSH0 REVERT JUMPDEST PUSH0 PUSH0 REVERT JUMPDEST PUSH0 PUSH1 0x1F NOT PUSH1 0x1F DUP4 ADD AND SWAP1 POP SWAP2 SWAP1 POP JUMP JUMPDEST PUSH32 0x4E487B7100000000000000000000000000000000000000000000000000000000 PUSH0 MSTORE PUSH1 0x41 PUSH1 0x4 MSTORE PUSH1 0x24 PUSH0 REVERT JUMPDEST PUSH2 0x645 DUP3 PUSH2 0x5FF JUMP JUMPDEST DUP2 ADD DUP2 DUP2 LT PUSH8 0xFFFFFFFFFFFFFFFF DUP3 GT OR ISZERO PUSH2 0x664 JUMPI PUSH2 0x663 PUSH2 0x60F JUMP JUMPDEST JUMPDEST DUP1 PUSH1 0x40 MSTORE POP POP POP JUMP JUMPDEST PUSH0 PUSH2 0x676 PUSH2 0x588 JUMP JUMPDEST SWAP1 POP PUSH2 0x682 DUP3 DUP3 PUSH2 0x63C JUMP JUMPDEST SWAP2 SWAP1 POP JUMP JUMPDEST PUSH0 PUSH8 0xFFFFFFFFFFFFFFFF DUP3 GT ISZERO PUSH2 0x6A1 JUMPI PUSH2 0x6A0 PUSH2 0x60F JUMP JUMPDEST JUMPDEST PUSH2 0x6AA DUP3 PUSH2 0x5FF JUMP JUMPDEST SWAP1 POP PUSH1 0x20 DUP2 ADD SWAP1 POP SWAP2 SWAP1 POP JUMP JUMPDEST DUP3 DUP2 DUP4 CALLDATACOPY PUSH0 DUP4 DUP4 ADD MSTORE POP POP POP JUMP JUMPDEST PUSH0 PUSH2 0x6D7 PUSH2 0x6D2 DUP5 PUSH2 0x687 JUMP JUMPDEST PUSH2 0x66D JUMP JUMPDEST SWAP1 POP DUP3 DUP2 MSTORE PUSH1 0x20 DUP2 ADD DUP5 DUP5 DUP5 ADD GT ISZERO PUSH2 0x6F3 JUMPI PUSH2 0x6F2 PUSH2 0x5FB JUMP JUMPDEST JUMPDEST PUSH2 0x6FE DUP5 DUP3 DUP6 PUSH2 0x6B7 JUMP JUMPDEST POP SWAP4 SWAP3 POP POP POP JUMP JUMPDEST PUSH0 DUP3 PUSH1 0x1F DUP4 ADD SLT PUSH2 0x71A JUMPI PUSH2 0x719 PUSH2 0x5F7 JUMP JUMPDEST JUMPDEST DUP2 CALLDATALOAD PUSH2 0x72A DUP5 DUP3 PUSH1 0x20 DUP7 ADD PUSH2 0x6C5 JUMP JUMPDEST SWAP2 POP POP SWAP3 SWAP2 POP POP JUMP JUMPDEST PUSH0 PUSH0 PUSH1 0x40 DUP4 DUP6 SUB SLT ISZERO PUSH2 0x749 JUMPI PUSH2 0x748 PUSH2 0x591 JUMP JUMPDEST JUMPDEST PUSH0 DUP4 ADD CALLDATALOAD PUSH8 0xFFFFFFFFFFFFFFFF DUP2 GT ISZERO PUSH2 0x766 JUMPI PUSH2 0x765 PUSH2 0x595 JUMP JUMPDEST JUMPDEST PUSH2 0x772 DUP6 DUP3 DUP7 ADD PUSH2 0x706 JUMP JUMPDEST SWAP3 POP POP PUSH1 0x20 DUP4 ADD CALLDATALOAD PUSH8 0xFFFFFFFFFFFFFFFF DUP2 GT ISZERO PUSH2 0x793 JUMPI PUSH2 0x792 PUSH2 0x595 JUMP JUMPDEST JUMPDEST PUSH2 0x79F DUP6 DUP3 DUP7 ADD PUSH2 0x706 JUMP JUMPDEST SWAP2 POP POP SWAP3 POP SWAP3 SWAP1 POP JUMP JUMPDEST PUSH2 0x7B2 DUP2 PUSH2 0x54F JUMP JUMPDEST DUP2 EQ PUSH2 0x7BC JUMPI PUSH0 PUSH0 REVERT JUMPDEST POP JUMP JUMPDEST PUSH0 DUP2 CALLDATALOAD SWAP1 POP PUSH2 0x7CD DUP2 PUSH2 0x7A9 JUMP JUMPDEST SWAP3 SWAP2 POP POP JUMP JUMPDEST PUSH0 PUSH1 0x20 DUP3 DUP5 SUB SLT ISZERO PUSH2 0x7E8 JUMPI PUSH2 0x7E7 PUSH2 0x591 JUMP JUMPDEST JUMPDEST PUSH0 PUSH2 0x7F5 DUP5 DUP3 DUP6 ADD PUSH2 0x7BF JUMP JUMPDEST SWAP2 POP POP SWAP3 SWAP2 POP POP JUMP JUMPDEST PUSH2 0x807 DUP2 PUSH2 0x599 JUMP JUMPDEST DUP3 MSTORE POP POP JUMP JUMPDEST PUSH0 PUSH1 0x20 DUP3 ADD SWAP1 POP PUSH2 0x820 PUSH0 DUP4 ADD DUP5 PUSH2 0x7FE JUMP JUMPDEST SWAP3 SWAP2 POP POP JUMP JUMPDEST PUSH0 DUP2 MLOAD SWAP1 POP SWAP2 SWAP1 POP JUMP JUMPDEST PUSH0 DUP3 DUP3 MSTORE PUSH1 0x20 DUP3 ADD SWAP1 POP SWAP3 SWAP2 POP POP JUMP JUMPDEST DUP3 DUP2 DUP4 MCOPY PUSH0 DUP4 DUP4 ADD MSTORE POP POP POP JUMP JUMPDEST PUSH0 PUSH2 0x858 DUP3 PUSH2 0x826 JUMP JUMPDEST PUSH2 0x862 DUP2 DUP6 PUSH2 0x830 JUMP JUMPDEST SWAP4 POP PUSH2 0x872 DUP2 DUP6 PUSH1 0x20 DUP7 ADD PUSH2 0x840 JUMP JUMPDEST PUSH2 0x87B DUP2 PUSH2 0x5FF JUMP JUMPDEST DUP5 ADD SWAP2 POP POP SWAP3 SWAP2 POP POP JUMP JUMPDEST PUSH0 PUSH1 0x20 DUP3 ADD SWAP1 POP DUP2 DUP2 SUB PUSH0 DUP4 ADD MSTORE PUSH2 0x89E DUP2 DUP5 PUSH2 0x84E JUMP JUMPDEST SWAP1 POP SWAP3 SWAP2 POP POP JUMP JUMPDEST PUSH32 0x4E487B7100000000000000000000000000000000000000000000000000000000 PUSH0 MSTORE PUSH1 0x22 PUSH1 0x4 MSTORE PUSH1 0x24 PUSH0 REVERT JUMPDEST PUSH0 PUSH1 0x2 DUP3 DIV SWAP1 POP PUSH1 0x1 DUP3 AND DUP1 PUSH2 0x8EA JUMPI PUSH1 0x7F DUP3 AND SWAP2 POP JUMPDEST PUSH1 0x20 DUP3 LT DUP2 SUB PUSH2 0x8FD JUMPI PUSH2 0x8FC PUSH2 0x8A6 JUMP JUMPDEST JUMPDEST POP SWAP2 SWAP1 POP JUMP JUMPDEST PUSH0 DUP2 SWAP1 POP DUP2 PUSH0 MSTORE PUSH1 0x20 PUSH0 KECCAK256 SWAP1 POP SWAP2 SWAP1 POP JUMP JUMPDEST PUSH0 PUSH1 0x20 PUSH1 0x1F DUP4 ADD DIV SWAP1 POP SWAP2 SWAP1 POP JUMP JUMPDEST PUSH0 DUP3 DUP3 SHL SWAP1 POP SWAP3 SWAP2 POP POP JUMP JUMPDEST PUSH0 PUSH1 0x8 DUP4 MUL PUSH2 0x95F PUSH32 0xFFFFFFFFFFFFFFFFFFFFFFFFFFFFFFFFFFFFFFFFFFFFFFFFFFFFFFFFFFFFFFFF DUP3 PUSH2 0x924 JUMP JUMPDEST PUSH2 0x969 DUP7 DUP4 PUSH2 0x924 JUMP JUMPDEST SWAP6 POP DUP1 NOT DUP5 AND SWAP4 POP DUP1 DUP7 AND DUP5 OR SWAP3 POP POP POP SWAP4 SWAP3 POP POP POP JUMP JUMPDEST PUSH0 DUP2 SWAP1 POP SWAP2 SWAP1 POP JUMP JUMPDEST PUSH0 PUSH2 0x9A4 PUSH2 0x99F PUSH2 0x99A DUP5 PUSH2 0x599 JUMP JUMPDEST PUSH2 0x981 JUMP JUMPDEST PUSH2 0x599 JUMP JUMPDEST SWAP1 POP SWAP2 SWAP1 POP JUMP JUMPDEST PUSH0 DUP2 SWAP1 POP SWAP2 SWAP1 POP JUMP JUMPDEST PUSH2 0x9BD DUP4 PUSH2 0x98A JUMP JUMPDEST PUSH2 0x9D1 PUSH2 0x9C9 DUP3 PUSH2 0x9AB JUMP JUMPDEST DUP5 DUP5 SLOAD PUSH2 0x930 JUMP JUMPDEST DUP3 SSTORE POP POP POP POP JUMP JUMPDEST PUSH0 PUSH0 SWAP1 POP SWAP1 JUMP JUMPDEST PUSH2 0x9E8 PUSH2 0x9D9 JUMP JUMPDEST PUSH2 0x9F3 DUP2 DUP5 DUP5 PUSH2 0x9B4 JUMP JUMPDEST POP POP POP JUMP JUMPDEST JUMPDEST DUP2 DUP2 LT ISZERO PUSH2 0xA16 JUMPI PUSH2 0xA0B PUSH0 DUP3 PUSH2 0x9E0 JUMP JUMPDEST PUSH1 0x1 DUP2 ADD SWAP1 POP PUSH2 0x9F9 JUMP JUMPDEST POP POP JUMP JUMPDEST PUSH1 0x1F DUP3 GT ISZERO PUSH2 0xA5B JUMPI PUSH2 0xA2C DUP2 PUSH2 0x903 JUMP JUMPDEST PUSH2 0xA35 DUP5 PUSH2 0x915 JUMP JUMPDEST DUP2 ADD PUSH1 0x20 DUP6 LT ISZERO PUSH2 0xA44 JUMPI DUP2 SWAP1 POP JUMPDEST PUSH2 0xA58 PUSH2 0xA50 DUP6 PUSH2 0x915 JUMP JUMPDEST DUP4 ADD DUP3 PUSH2 0x9F8 JUMP JUMPDEST POP POP JUMPDEST POP POP POP JUMP JUMPDEST PUSH0 DUP3 DUP3 SHR SWAP1 POP SWAP3 SWAP2 POP POP JUMP JUMPDEST PUSH0 PUSH2 0xA7B PUSH0 NOT DUP5 PUSH1 0x8 MUL PUSH2 0xA60 JUMP JUMPDEST NOT DUP1 DUP4 AND SWAP2 POP POP SWAP3 SWAP2 POP POP JUMP JUMPDEST PUSH0 PUSH2 0xA93 DUP4 DUP4 PUSH2 0xA6C JUMP JUMPDEST SWAP2 POP DUP3 PUSH1 0x2 MUL DUP3 OR SWAP1 POP SWAP3 SWAP2 POP POP JUMP JUMPDEST PUSH2 0xAAC DUP3 PUSH2 0x826 JUMP JUMPDEST PUSH8 0xFFFFFFFFFFFFFFFF DUP2 GT ISZERO PUSH2 0xAC5 JUMPI PUSH2 0xAC4 PUSH2 0x60F JUMP JUMPDEST JUMPDEST PUSH2 0xACF DUP3 SLOAD PUSH2 0x8D3 JUMP JUMPDEST PUSH2 0xADA DUP3 DUP3 DUP6 PUSH2 0xA1A JUMP JUMPDEST PUSH0 PUSH1 0x20 SWAP1 POP PUSH1 0x1F DUP4 GT PUSH1 0x1 DUP2 EQ PUSH2 0xB0B JUMPI PUSH0 DUP5 ISZERO PUSH2 0xAF9 JUMPI DUP3 DUP8 ADD MLOAD SWAP1 POP JUMPDEST PUSH2 0xB03 DUP6 DUP3 PUSH2 0xA88 JUMP JUMPDEST DUP7 SSTORE POP PUSH2 0xB6A JUMP JUMPDEST PUSH1 0x1F NOT DUP5 AND PUSH2 0xB19 DUP7 PUSH2 0x903 JUMP JUMPDEST PUSH0 JUMPDEST DUP3 DUP2 LT ISZERO PUSH2 0xB40 JUMPI DUP5 DUP10 ADD MLOAD DUP3 SSTORE PUSH1 0x1 DUP3 ADD SWAP2 POP PUSH1 0x20 DUP6 ADD SWAP5 POP PUSH1 0x20 DUP2 ADD SWAP1 POP PUSH2 0xB1B JUMP JUMPDEST DUP7 DUP4 LT ISZERO PUSH2 0xB5D JUMPI DUP5 DUP10 ADD MLOAD PUSH2 0xB59 PUSH1 0x1F DUP10 AND DUP3 PUSH2 0xA6C JUMP JUMPDEST DUP4 SSTORE POP JUMPDEST PUSH1 0x1 PUSH1 0x2 DUP9 MUL ADD DUP9 SSTORE POP POP POP JUMPDEST POP POP POP POP POP POP JUMP JUMPDEST PUSH0 PUSH1 0x80 DUP3 ADD SWAP1 POP PUSH2 0xB85 PUSH0 DUP4 ADD DUP8 PUSH2 0x560 JUMP JUMPDEST DUP2 DUP2 SUB PUSH1 0x20 DUP4 ADD MSTORE PUSH2 0xB97 DUP2 DUP7 PUSH2 0x84E JUMP JUMPDEST SWAP1 POP DUP2 DUP2 SUB PUSH1 0x40 DUP4 ADD MSTORE PUSH2 0xBAB DUP2 DUP6 PUSH2 0x84E JUMP JUMPDEST SWAP1 POP PUSH2 0xBBA PUSH1 0x60 DUP4 ADD DUP5 PUSH2 0x7FE JUMP JUMPDEST SWAP6 SWAP5 POP POP POP POP POP JUMP INVALID LOG2 PUSH5 0x6970667358 0x22 SLT KECCAK256 STATICCALL SHR DELEGATECALL PUSH2 0xE82D PUSH30 0xD775CF836253513069E4888F2C96E448D4D4272A4D7C35783664736F6C63 NUMBER STOP ADDMOD 0x1E STOP CALLER "
				},
				"gasEstimates": {
					"creation": {
						"codeDepositCost": "613000",
						"executionCost": "24907",
						"totalCost": "637907"
					},
					"external": {
						"buyVehicle(string,string)": "infinite",
						"buyers(address)": "2833",
						"checkOwnership()": "2561",
						"owner()": "2530",
						"price()": "2447",
						"setPrice(uint256)": "24728",
						"vehicleMake()": "infinite",
						"vehicleModel()": "infinite"
					}
				},
				"methodIdentifiers": {
					"buyVehicle(string,string)": "975d279c",
					"buyers(address)": "97a993aa",
					"checkOwnership()": "219a1d77",
					"owner()": "8da5cb5b",
					"price()": "a035b1fe",
					"setPrice(uint256)": "91b7f5ed",
					"vehicleMake()": "d25cf0f5",
					"vehicleModel()": "f2c09670"
				}
			},
			"storageLayout": {
				"storage": [
					{
						"astId": 3,
						"contract": "automotive.sol:Automotive",
						"label": "owner",
						"offset": 0,
						"slot": "0",
						"type": "t_address"
					},
					{
						"astId": 7,
						"contract": "automotive.sol:Automotive",
						"label": "buyers",
						"offset": 0,
						"slot": "1",
						"type": "t_mapping(t_address,t_bool)"
					},
					{
						"astId": 9,
						"contract": "automotive.sol:Automotive",
						"label": "vehicleMake",
						"offset": 0,
						"slot": "2",
						"type": "t_string_storage"
					},
					{
						"astId": 11,
						"contract": "automotive.sol:Automotive",
						"label": "vehicleModel",
						"offset": 0,
						"slot": "3",
						"type": "t_string_storage"
					},
					{
						"astId": 13,
						"contract": "automotive.sol:Automotive",
						"label": "price",
						"offset": 0,
						"slot": "4",
						"type": "t_uint256"
					}
				],
				"types": {
					"t_address": {
						"encoding": "inplace",
						"label": "address",
						"numberOfBytes": "20"
					},
					"t_bool": {
						"encoding": "inplace",
						"label": "bool",
						"numberOfBytes": "1"
					},
					"t_mapping(t_address,t_bool)": {
						"encoding": "mapping",
						"key": "t_address",
						"label": "mapping(address => bool)",
						"numberOfBytes": "32",
						"value": "t_bool"
					},
					"t_string_storage": {
						"encoding": "bytes",
						"label": "string",
						"numberOfBytes": "32"
					},
					"t_uint256": {
						"encoding": "inplace",
						"label": "uint256",
						"numberOfBytes": "32"
					}
				}
			},
			"userdoc": {
				"kind": "user",
				"methods": {},
				"version": 1
			}
		}
	}
}