{
	"etherWallet.sol": {
		"Ether": {
			"abi": [
				{
					"inputs": [],
					"stateMutability": "nonpayable",
					"type": "constructor"
				},
				{
					"inputs": [],
					"name": "owner",
					"outputs": [
						{
							"internalType": "address payable",
							"name": "",
							"type": "address"
						}
					],
					"stateMutability": "view",
					"type": "function"
				},
				{
					"inputs": [],
					"name": "withdraw",
					"outputs": [],
					"stateMutability": "nonpayable",
					"type": "function"
				},
				{
					"stateMutability": "payable",
					"type": "receive"
				}
			],
			"devdoc": {
				"kind": "dev",
				"methods": {},
				"version": 1
			},
			"evm": {
				"assembly": "    /* \"etherWallet.sol\":58:365  contract Ether{... */\n  mstore(0x40, 0x80)\n    /* \"etherWallet.sol\":110:167  constructor(){... */\n  callvalue\n  dup1\n  iszero\n  tag_1\n  jumpi\n  revert(0x00, 0x00)\ntag_1:\n  pop\n    /* \"etherWallet.sol\":148:158  msg.sender */\n  caller\n    /* \"etherWallet.sol\":134:139  owner */\n  0x00\n  0x00\n    /* \"etherWallet.sol\":134:159  owner=payable(msg.sender) */\n  0x0100\n  exp\n  dup2\n  sload\n  dup2\n  0xffffffffffffffffffffffffffffffffffffffff\n  mul\n  not\n  and\n  swap1\n  dup4\n  0xffffffffffffffffffffffffffffffffffffffff\n  and\n  mul\n  or\n  swap1\n  sstore\n  pop\n    /* \"etherWallet.sol\":58:365  contract Ether{... */\n  dataSize(sub_0)\n  dup1\n  dataOffset(sub_0)\n  0x00\n  codecopy\n  0x00\n  return\nstop\n\nsub_0: assembly {\n        /* \"etherWallet.sol\":58:365  contract Ether{... */\n      mstore(0x40, 0x80)\n      jumpi(tag_1, lt(calldatasize, 0x04))\n      shr(0xe0, calldataload(0x00))\n      dup1\n      0x3ccfd60b\n      eq\n      tag_3\n      jumpi\n      dup1\n      0x8da5cb5b\n      eq\n      tag_4\n      jumpi\n      jump(tag_2)\n    tag_1:\n      jumpi(tag_2, calldatasize)\n      stop\n    tag_2:\n      revert(0x00, 0x00)\n        /* \"etherWallet.sol\":209:362  function withdraw() external {... */\n    tag_3:\n      callvalue\n      dup1\n      iszero\n      tag_7\n      jumpi\n      revert(0x00, 0x00)\n    tag_7:\n      pop\n      tag_8\n      tag_9\n      jump\t// in\n    tag_8:\n      stop\n        /* \"etherWallet.sol\":75:103  address payable public owner */\n    tag_4:\n      callvalue\n      dup1\n      iszero\n      tag_10\n      jumpi\n      revert(0x00, 0x00)\n    tag_10:\n      pop\n      tag_11\n      tag_12\n      jump\t// in\n    tag_11:\n      mload(0x40)\n      tag_13\n      swap2\n      swap1\n      tag_14\n      jump\t// in\n    tag_13:\n      mload(0x40)\n      dup1\n      swap2\n      sub\n      swap1\n      return\n        /* \"etherWallet.sol\":209:362  function withdraw() external {... */\n    tag_9:\n        /* \"etherWallet.sol\":271:276  owner */\n      0x00\n      0x00\n      swap1\n      sload\n      swap1\n      0x0100\n      exp\n      swap1\n      div\n      0xffffffffffffffffffffffffffffffffffffffff\n      and\n        /* \"etherWallet.sol\":257:276  msg.sender == owner */\n      0xffffffffffffffffffffffffffffffffffffffff\n      and\n        /* \"etherWallet.sol\":257:267  msg.sender */\n      caller\n        /* \"etherWallet.sol\":257:276  msg.sender == owner */\n      0xffffffffffffffffffffffffffffffffffffffff\n      and\n      eq\n        /* \"etherWallet.sol\":249:303  require(msg.sender == owner,\"only owner can withdraw\") */\n      tag_16\n      jumpi\n      mload(0x40)\n      0x08c379a000000000000000000000000000000000000000000000000000000000\n      dup2\n      mstore\n      0x04\n      add\n      tag_17\n      swap1\n      tag_18\n      jump\t// in\n    tag_17:\n      mload(0x40)\n      dup1\n      swap2\n      sub\n      swap1\n      revert\n    tag_16:\n        /* \"etherWallet.sol\":317:322  owner */\n      0x00\n      0x00\n      swap1\n      sload\n      swap1\n      0x0100\n      exp\n      swap1\n      div\n      0xffffffffffffffffffffffffffffffffffffffff\n      and\n        /* \"etherWallet.sol\":309:332  payable(owner).transfer */\n      0xffffffffffffffffffffffffffffffffffffffff\n      and\n        /* \"etherWallet.sol\":309:356  payable(owner).transfer (address(this).balance) */\n      0x08fc\n        /* \"etherWallet.sol\":334:355  address(this).balance */\n      selfbalance\n        /* \"etherWallet.sol\":309:356  payable(owner).transfer (address(this).balance) */\n      swap1\n      dup2\n      iszero\n      mul\n      swap1\n      mload(0x40)\n      0x00\n      mload(0x40)\n      dup1\n      dup4\n      sub\n      dup2\n      dup6\n      dup9\n      dup9\n      call\n      swap4\n      pop\n      pop\n      pop\n      pop\n      iszero\n      dup1\n      iszero\n      tag_20\n      jumpi\n      returndatacopy(0x00, 0x00, returndatasize)\n      revert(0x00, returndatasize)\n    tag_20:\n      pop\n        /* \"etherWallet.sol\":209:362  function withdraw() external {... */\n      jump\t// out\n        /* \"etherWallet.sol\":75:103  address payable public owner */\n    tag_12:\n      0x00\n      0x00\n      swap1\n      sload\n      swap1\n      0x0100\n      exp\n      swap1\n      div\n      0xffffffffffffffffffffffffffffffffffffffff\n      and\n      dup2\n      jump\t// out\n        /* \"#utility.yul\":7:133   */\n    tag_21:\n        /* \"#utility.yul\":44:51   */\n      0x00\n        /* \"#utility.yul\":84:126   */\n      0xffffffffffffffffffffffffffffffffffffffff\n        /* \"#utility.yul\":77:82   */\n      dup3\n        /* \"#utility.yul\":73:127   */\n      and\n        /* \"#utility.yul\":62:127   */\n      swap1\n      pop\n        /* \"#utility.yul\":7:133   */\n      swap2\n      swap1\n      pop\n      jump\t// out\n        /* \"#utility.yul\":139:243   */\n    tag_22:\n        /* \"#utility.yul\":184:191   */\n      0x00\n        /* \"#utility.yul\":213:237   */\n      tag_30\n        /* \"#utility.yul\":231:236   */\n      dup3\n        /* \"#utility.yul\":213:237   */\n      tag_21\n      jump\t// in\n    tag_30:\n        /* \"#utility.yul\":202:237   */\n      swap1\n      pop\n        /* \"#utility.yul\":139:243   */\n      swap2\n      swap1\n      pop\n      jump\t// out\n        /* \"#utility.yul\":249:391   */\n    tag_23:\n        /* \"#utility.yul\":352:384   */\n      tag_32\n        /* \"#utility.yul\":378:383   */\n      dup2\n        /* \"#utility.yul\":352:384   */\n      tag_22\n      jump\t// in\n    tag_32:\n        /* \"#utility.yul\":347:350   */\n      dup3\n        /* \"#utility.yul\":340:385   */\n      mstore\n        /* \"#utility.yul\":249:391   */\n      pop\n      pop\n      jump\t// out\n        /* \"#utility.yul\":397:651   */\n    tag_14:\n        /* \"#utility.yul\":506:510   */\n      0x00\n        /* \"#utility.yul\":544:546   */\n      0x20\n        /* \"#utility.yul\":533:542   */\n      dup3\n        /* \"#utility.yul\":529:547   */\n      add\n        /* \"#utility.yul\":521:547   */\n      swap1\n      pop\n        /* \"#utility.yul\":557:644   */\n      tag_34\n        /* \"#utility.yul\":641:642   */\n      0x00\n        /* \"#utility.yul\":630:639   */\n      dup4\n        /* \"#utility.yul\":626:643   */\n      add\n        /* \"#utility.yul\":617:623   */\n      dup5\n        /* \"#utility.yul\":557:644   */\n      tag_23\n      jump\t// in\n    tag_34:\n        /* \"#utility.yul\":397:651   */\n      swap3\n      swap2\n      pop\n      pop\n      jump\t// out\n        /* \"#utility.yul\":657:826   */\n    tag_24:\n        /* \"#utility.yul\":741:752   */\n      0x00\n        /* \"#utility.yul\":775:781   */\n      dup3\n        /* \"#utility.yul\":770:773   */\n      dup3\n        /* \"#utility.yul\":763:782   */\n      mstore\n        /* \"#utility.yul\":815:819   */\n      0x20\n        /* \"#utility.yul\":810:813   */\n      dup3\n        /* \"#utility.yul\":806:820   */\n      add\n        /* \"#utility.yul\":791:820   */\n      swap1\n      pop\n        /* \"#utility.yul\":657:826   */\n      swap3\n      swap2\n      pop\n      pop\n      jump\t// out\n        /* \"#utility.yul\":832:1005   */\n    tag_25:\n        /* \"#utility.yul\":972:997   */\n      0x6f6e6c79206f776e65722063616e207769746864726177000000000000000000\n        /* \"#utility.yul\":968:969   */\n      0x00\n        /* \"#utility.yul\":960:966   */\n      dup3\n        /* \"#utility.yul\":956:970   */\n      add\n        /* \"#utility.yul\":949:998   */\n      mstore\n        /* \"#utility.yul\":832:1005   */\n      pop\n      jump\t// out\n        /* \"#utility.yul\":1011:1377   */\n    tag_26:\n        /* \"#utility.yul\":1153:1156   */\n      0x00\n        /* \"#utility.yul\":1174:1241   */\n      tag_38\n        /* \"#utility.yul\":1238:1240   */\n      0x17\n        /* \"#utility.yul\":1233:1236   */\n      dup4\n        /* \"#utility.yul\":1174:1241   */\n      tag_24\n      jump\t// in\n    tag_38:\n        /* \"#utility.yul\":1167:1241   */\n      swap2\n      pop\n        /* \"#utility.yul\":1250:1343   */\n      tag_39\n        /* \"#utility.yul\":1339:1342   */\n      dup3\n        /* \"#utility.yul\":1250:1343   */\n      tag_25\n      jump\t// in\n    tag_39:\n        /* \"#utility.yul\":1368:1370   */\n      0x20\n        /* \"#utility.yul\":1363:1366   */\n      dup3\n        /* \"#utility.yul\":1359:1371   */\n      add\n        /* \"#utility.yul\":1352:1371   */\n      swap1\n      pop\n        /* \"#utility.yul\":1011:1377   */\n      swap2\n      swap1\n      pop\n      jump\t// out\n        /* \"#utility.yul\":1383:1802   */\n    tag_18:\n        /* \"#utility.yul\":1549:1553   */\n      0x00\n        /* \"#utility.yul\":1587:1589   */\n      0x20\n        /* \"#utility.yul\":1576:1585   */\n      dup3\n        /* \"#utility.yul\":1572:1590   */\n      add\n        /* \"#utility.yul\":1564:1590   */\n      swap1\n      pop\n        /* \"#utility.yul\":1636:1645   */\n      dup2\n        /* \"#utility.yul\":1630:1634   */\n      dup2\n        /* \"#utility.yul\":1626:1646   */\n      sub\n        /* \"#utility.yul\":1622:1623   */\n      0x00\n        /* \"#utility.yul\":1611:1620   */\n      dup4\n        /* \"#utility.yul\":1607:1624   */\n      add\n        /* \"#utility.yul\":1600:1647   */\n      mstore\n        /* \"#utility.yul\":1664:1795   */\n      tag_41\n        /* \"#utility.yul\":1790:1794   */\n      dup2\n        /* \"#utility.yul\":1664:1795   */\n      tag_26\n      jump\t// in\n    tag_41:\n        /* \"#utility.yul\":1656:1795   */\n      swap1\n      pop\n        /* \"#utility.yul\":1383:1802   */\n      swap2\n      swap1\n      pop\n      jump\t// out\n\n    auxdata: 0xa264697066735822122006801ffdeabfbdce97a3be1bda2671b3d1ea92acc02cf2a0ef319bf93b0d648964736f6c634300081e0033\n}\n",
				"bytecode": {
					"linkReferences": {},
					"object": "6080604052348015600e575f5ffd5b50335f5f6101000a81548173ffffffffffffffffffffffffffffffffffffffff021916908373ffffffffffffffffffffffffffffffffffffffff1602179055506102958061005b5f395ff3fe60806040526004361061002c575f3560e01c80633ccfd60b146100375780638da5cb5b1461004d57610033565b3661003357005b5f5ffd5b348015610042575f5ffd5b5061004b610077565b005b348015610058575f5ffd5b5061006161016b565b60405161006e91906101ce565b60405180910390f35b5f5f9054906101000a900473ffffffffffffffffffffffffffffffffffffffff1673ffffffffffffffffffffffffffffffffffffffff163373ffffffffffffffffffffffffffffffffffffffff1614610105576040517f08c379a00000000000000000000000000000000000000000000000000000000081526004016100fc90610241565b60405180910390fd5b5f5f9054906101000a900473ffffffffffffffffffffffffffffffffffffffff1673ffffffffffffffffffffffffffffffffffffffff166108fc4790811502906040515f60405180830381858888f19350505050158015610168573d5f5f3e3d5ffd5b50565b5f5f9054906101000a900473ffffffffffffffffffffffffffffffffffffffff1681565b5f73ffffffffffffffffffffffffffffffffffffffff82169050919050565b5f6101b88261018f565b9050919050565b6101c8816101ae565b82525050565b5f6020820190506101e15f8301846101bf565b92915050565b5f82825260208201905092915050565b7f6f6e6c79206f776e65722063616e2077697468647261770000000000000000005f82015250565b5f61022b6017836101e7565b9150610236826101f7565b602082019050919050565b5f6020820190508181035f8301526102588161021f565b905091905056fea264697066735822122006801ffdeabfbdce97a3be1bda2671b3d1ea92acc02cf2a0ef319bf93b0d648964736f6c634300081e0033",
					"opcodes": "PUSH1 0x80 PUSH1 0x40 MSTORE CALLVALUE DUP1 ISZERO PUSH1 0xE JUMPI PUSH0 PUSH0 REVERT JUMPDEST POP CALLER PUSH0 PUSH0 PUSH2 0x100 EXP DUP2 SLOAD DUP2 PUSH20 0xFFFFFFFFFFFFFFFFFFFFFFFFFFFFFFFFFFFFFFFF MUL NOT AND SWAP1 DUP4 PUSH20 0xFFFFFFFFFFFFFFFFFFFFFFFFFFFFFFFFFFFFFFFF AND MUL OR SWAP1 SSTORE POP PUSH2 0x295 DUP1 PUSH2 0x5B PUSH0 CODECOPY PUSH0 RETURN INVALID PUSH1 0x80 PUSH1 0x40 MSTORE PUSH1 0x4 CALLDATASIZE LT PUSH2 0x2C JUMPI PUSH0 CALLDATALOAD PUSH1 0xE0 SHR DUP1 PUSH4 0x3CCFD60B EQ PUSH2 0x37 JUMPI DUP1 PUSH4 0x8DA5CB5B EQ PUSH2 0x4D JUMPI PUSH2 0x33 JUMP JUMPDEST CALLDATASIZE PUSH2 0x33 JUMPI STOP JUMPDEST PUSH0 PUSH0 REVERT JUMPDEST CALLVALUE DUP1 ISZERO PUSH2 0x42 JUMPI PUSH0 PUSH0 REVERT JUMPDEST POP PUSH2 0x4B PUSH2 0x77 JUMP JUMPDEST STOP JUMPDEST CALLVALUE DUP1 ISZERO PUSH2 0x58 JUMPI PUSH0 PUSH0 REVERT JUMPDEST POP PUSH2 0x61 PUSH2 0x16B JUMP JUMPDEST PUSH1 0x40 MLOAD PUSH2 0x6E SWAP2 SWAP1 PUSH2 0x1CE JUMP JUMPDEST PUSH1 0x40 MLOAD DUP1 SWAP2 SUB SWAP1 RETURN JUMPDEST PUSH0 PUSH0 SWAP1 SLOAD SWAP1 PUSH2 0x100 EXP SWAP1 DIV PUSH20 0xFFFFFFFFFFFFFFFFFFFFFFFFFFFFFFFFFFFFFFFF AND PUSH20 0xFFFFFFFFFFFFFFFFFFFFFFFFFFFFFFFFFFFFFFFF AND CALLER PUSH20 0xFFFFFFFFFFFFFFFFFFFFFFFFFFFFFFFFFFFFFFFF AND EQ PUSH2 0x105 JUMPI PUSH1 0x40 MLOAD PUSH32 0x8C379A000000000000000000000000000000000000000000000000000000000 DUP2 MSTORE PUSH1 0x4 ADD PUSH2 0xFC SWAP1 PUSH2 0x241 JUMP JUMPDEST PUSH1 0x40 MLOAD DUP1 SWAP2 SUB SWAP1 REVERT JUMPDEST PUSH0 PUSH0 SWAP1 SLOAD SWAP1 PUSH2 0x100 EXP SWAP1 DIV PUSH20 0xFFFFFFFFFFFFFFFFFFFFFFFFFFFFFFFFFFFFFFFF AND PUSH20 0xFFFFFFFFFFFFFFFFFFFFFFFFFFFFFFFFFFFFFFFF AND PUSH2 0x8FC SELFBALANCE SWAP1 DUP2 ISZERO MUL SWAP1 PUSH1 0x40 MLOAD PUSH0 PUSH1 0x40 MLOAD DUP1 DUP4 SUB DUP2 DUP6 DUP9 DUP9 CALL SWAP4 POP POP POP POP ISZERO DUP1 ISZERO PUSH2 0x168 JUMPI RETURNDATASIZE PUSH0 PUSH0 RETURNDATACOPY RETURNDATASIZE PUSH0 REVERT JUMPDEST POP JUMP JUMPDEST PUSH0 PUSH0 SWAP1 SLOAD SWAP1 PUSH2 0x100 EXP SWAP1 DIV PUSH20 0xFFFFFFFFFFFFFFFFFFFFFFFFFFFFFFFFFFFFFFFF AND DUP2 JUMP JUMPDEST PUSH0 PUSH20 0xFFFFFFFFFFFFFFFFFFFFFFFFFFFFFFFFFFFFFFFF DUP3 AND SWAP1 POP SWAP2 SWAP1 POP JUMP JUMPDEST PUSH0 PUSH2 0x1B8 DUP3 PUSH2 0x18F JUMP JUMPDEST SWAP1 POP SWAP2 SWAP1 POP JUMP JUMPDEST PUSH2 0x1C8 DUP2 PUSH2 0x1AE JUMP JUMPDEST DUP3 MSTORE POP POP JUMP JUMPDEST PUSH0 PUSH1 0x20 DUP3 ADD SWAP1 POP PUSH2 0x1E1 PUSH0 DUP4 ADD DUP5 PUSH2 0x1BF JUMP JUMPDEST SWAP3 SWAP2 POP POP JUMP JUMPDEST PUSH0 DUP3 DUP3 MSTORE PUSH1 0x20 DUP3 ADD SWAP1 POP SWAP3 SWAP2 POP POP JUMP JUMPDEST PUSH32 0x6F6E6C79206F776E65722063616E207769746864726177000000000000000000 PUSH0 DUP3 ADD MSTORE POP JUMP JUMPDEST PUSH0 PUSH2 0x22B PUSH1 0x17 DUP4 PUSH2 0x1E7 JUMP JUMPDEST SWAP2 POP PUSH2 0x236 DUP3 PUSH2 0x1F7 JUMP JUMPDEST PUSH1 0x20 DUP3 ADD SWAP1 POP SWAP2 SWAP1 POP JUMP JUMPDEST PUSH0 PUSH1 0x20 DUP3 ADD SWAP1 POP DUP2 DUP2 SUB PUSH0 DUP4 ADD MSTORE PUSH2 0x258 DUP2 PUSH2 0x21F JUMP JUMPDEST SWAP1 POP SWAP2 SWAP1 POP JUMP INVALID LOG2 PUSH5 0x6970667358 0x22 SLT KECCAK256 MOD DUP1 0x1F REVERT 0xEA 0xBF 0xBD 0xCE SWAP8 LOG3 0xBE SHL 0xDA 0x26 PUSH18 0xB3D1EA92ACC02CF2A0EF319BF93B0D648964 PUSH20 0x6F6C634300081E00330000000000000000000000 "
				},
				"gasEstimates": {
					"creation": {
						"codeDepositCost": "132200",
						"executionCost": "24439",
						"totalCost": "156639"
					},
					"external": {
						"owner()": "2507",
						"withdraw()": "infinite"
					}
				},
				"methodIdentifiers": {
					"owner()": "8da5cb5b",
					"withdraw()": "3ccfd60b"
				}
			},
			"storageLayout": {
				"storage": [
					{
						"astId": 3,
						"contract": "etherWallet.sol:Ether",
						"label": "owner",
						"offset": 0,
						"slot": "0",
						"type": "t_address_payable"
					}
				],
				"types": {
					"t_address_payable": {
						"encoding": "inplace",
						"label": "address payable",
						"numberOfBytes": "20"
					}
				}
			},
			"userdoc": {
				"kind": "user",
				"methods": {},
				"version": 1
			}
		}
	}
}