{
	"todolist.sol": {
		"myTodo": {
			"abi": [
				{
					"inputs": [
						{
							"internalType": "uint64",
							"name": "index",
							"type": "uint64"
						}
					],
					"name": "completeTask",
					"outputs": [],
					"stateMutability": "nonpayable",
					"type": "function"
				},
				{
					"inputs": [
						{
							"internalType": "string",
							"name": "_content",
							"type": "string"
						},
						{
							"internalType": "bool",
							"name": "_complete",
							"type": "bool"
						}
					],
					"name": "createTask",
					"outputs": [],
					"stateMutability": "nonpayable",
					"type": "function"
				},
				{
					"inputs": [
						{
							"internalType": "uint256",
							"name": "index",
							"type": "uint256"
						}
					],
					"name": "getTask",
					"outputs": [
						{
							"internalType": "string",
							"name": "content",
							"type": "string"
						},
						{
							"internalType": "bool",
							"name": "complete",
							"type": "bool"
						}
					],
					"stateMutability": "view",
					"type": "function"
				},
				{
					"inputs": [
						{
							"internalType": "uint256",
							"name": "",
							"type": "uint256"
						}
					],
					"name": "tasks",
					"outputs": [
						{
							"internalType": "string",
							"name": "content",
							"type": "string"
						},
						{
							"internalType": "bool",
							"name": "complete",
							"type": "bool"
						}
					],
					"stateMutability": "view",
					"type": "function"
				}
			],
			"devdoc": {
				"kind": "dev",
				"methods": {},
				"version": 1
			},
			"evm": {
				"assembly": "    /* \"todolist.sol\":63:709  contract myTodo{... */\n  mstore(0x40, 0x80)\n  callvalue\n  dup1\n  iszero\n  tag_1\n  jumpi\n  revert(0x00, 0x00)\ntag_1:\n  pop\n  dataSize(sub_0)\n  dup1\n  dataOffset(sub_0)\n  0x00\n  codecopy\n  0x00\n  return\nstop\n\nsub_0: assembly {\n        /* \"todolist.sol\":63:709  contract myTodo{... */\n      mstore(0x40, 0x80)\n      callvalue\n      dup1\n      iszero\n      tag_1\n      jumpi\n      revert(0x00, 0x00)\n    tag_1:\n      pop\n      jumpi(tag_2, lt(calldatasize, 0x04))\n      shr(0xe0, calldataload(0x00))\n      dup1\n      0x16f70430\n      eq\n      tag_3\n      jumpi\n      dup1\n      0x1d65e77e\n      eq\n      tag_4\n      jumpi\n      dup1\n      0x8d977672\n      eq\n      tag_5\n      jumpi\n      dup1\n      0xfb3dc14d\n      eq\n      tag_6\n      jumpi\n    tag_2:\n      revert(0x00, 0x00)\n        /* \"todolist.sol\":185:309  function createTask(string calldata _content, bool _complete) public{... */\n    tag_3:\n      tag_7\n      0x04\n      dup1\n      calldatasize\n      sub\n      dup2\n      add\n      swap1\n      tag_8\n      swap2\n      swap1\n      tag_9\n      jump\t// in\n    tag_8:\n      tag_10\n      jump\t// in\n    tag_7:\n      stop\n        /* \"todolist.sol\":467:706  function getTask(uint index) public  view returns(string memory content, bool complete){... */\n    tag_4:\n      tag_11\n      0x04\n      dup1\n      calldatasize\n      sub\n      dup2\n      add\n      swap1\n      tag_12\n      swap2\n      swap1\n      tag_13\n      jump\t// in\n    tag_12:\n      tag_14\n      jump\t// in\n    tag_11:\n      mload(0x40)\n      tag_15\n      swap3\n      swap2\n      swap1\n      tag_16\n      jump\t// in\n    tag_15:\n      mload(0x40)\n      dup1\n      swap2\n      sub\n      swap1\n      return\n        /* \"todolist.sol\":159:178  Task[] public tasks */\n    tag_5:\n      tag_17\n      0x04\n      dup1\n      calldatasize\n      sub\n      dup2\n      add\n      swap1\n      tag_18\n      swap2\n      swap1\n      tag_13\n      jump\t// in\n    tag_18:\n      tag_19\n      jump\t// in\n    tag_17:\n      mload(0x40)\n      tag_20\n      swap3\n      swap2\n      swap1\n      tag_16\n      jump\t// in\n    tag_20:\n      mload(0x40)\n      dup1\n      swap2\n      sub\n      swap1\n      return\n        /* \"todolist.sol\":315:461  function completeTask(uint64 index) public{... */\n    tag_6:\n      tag_21\n      0x04\n      dup1\n      calldatasize\n      sub\n      dup2\n      add\n      swap1\n      tag_22\n      swap2\n      swap1\n      tag_23\n      jump\t// in\n    tag_22:\n      tag_24\n      jump\t// in\n    tag_21:\n      stop\n        /* \"todolist.sol\":185:309  function createTask(string calldata _content, bool _complete) public{... */\n    tag_10:\n        /* \"todolist.sol\":264:269  tasks */\n      0x00\n        /* \"todolist.sol\":275:300  Task(_content, _complete) */\n      mload(0x40)\n      dup1\n      0x40\n      add\n      0x40\n      mstore\n      dup1\n        /* \"todolist.sol\":280:288  _content */\n      dup6\n      dup6\n        /* \"todolist.sol\":275:300  Task(_content, _complete) */\n      dup1\n      dup1\n      0x1f\n      add\n      0x20\n      dup1\n      swap2\n      div\n      mul\n      0x20\n      add\n      mload(0x40)\n      swap1\n      dup2\n      add\n      0x40\n      mstore\n      dup1\n      swap4\n      swap3\n      swap2\n      swap1\n      dup2\n      dup2\n      mstore\n      0x20\n      add\n      dup4\n      dup4\n      dup1\n      dup3\n      dup5\n      calldatacopy\n      0x00\n      dup2\n      dup5\n      add\n      mstore\n      not(0x1f)\n      0x1f\n      dup3\n      add\n      and\n      swap1\n      pop\n      dup1\n      dup4\n      add\n      swap3\n      pop\n      pop\n      pop\n      pop\n      pop\n      pop\n      pop\n      dup2\n      mstore\n      0x20\n      add\n        /* \"todolist.sol\":290:299  _complete */\n      dup4\n        /* \"todolist.sol\":275:300  Task(_content, _complete) */\n      iszero\n      iszero\n      dup2\n      mstore\n      pop\n        /* \"todolist.sol\":264:301  tasks.push(Task(_content, _complete)) */\n      swap1\n      dup1\n      0x01\n      dup2\n      sload\n      add\n      dup1\n      dup3\n      sstore\n      dup1\n      swap2\n      pop\n      pop\n      0x01\n      swap1\n      sub\n      swap1\n      0x00\n      mstore\n      keccak256(0x00, 0x20)\n      swap1\n      0x02\n      mul\n      add\n      0x00\n      swap1\n      swap2\n      swap1\n      swap2\n      swap1\n      swap2\n      pop\n      0x00\n      dup3\n      add\n      mload\n      dup2\n      0x00\n      add\n      swap1\n      dup2\n      tag_27\n      swap2\n      swap1\n      tag_28\n      jump\t// in\n    tag_27:\n      pop\n      0x20\n      dup3\n      add\n      mload\n      dup2\n      0x01\n      add\n      exp(0x0100, 0x00)\n      dup2\n      sload\n      dup2\n      0xff\n      mul\n      not\n      and\n      swap1\n      dup4\n      iszero\n      iszero\n      mul\n      or\n      swap1\n      sstore\n      pop\n      pop\n      pop\n        /* \"todolist.sol\":185:309  function createTask(string calldata _content, bool _complete) public{... */\n      pop\n      pop\n      pop\n      jump\t// out\n        /* \"todolist.sol\":467:706  function getTask(uint index) public  view returns(string memory content, bool complete){... */\n    tag_14:\n        /* \"todolist.sol\":517:538  string memory content */\n      0x60\n        /* \"todolist.sol\":540:553  bool complete */\n      0x00\n        /* \"todolist.sol\":578:583  tasks */\n      0x00\n        /* \"todolist.sol\":578:590  tasks.length */\n      dup1\n      sload\n      swap1\n      pop\n        /* \"todolist.sol\":571:576  index */\n      dup4\n        /* \"todolist.sol\":571:590  index< tasks.length */\n      lt\n        /* \"todolist.sol\":563:613  require(index< tasks.length,\"Index out of bounds\") */\n      tag_30\n      jumpi\n      mload(0x40)\n      0x08c379a000000000000000000000000000000000000000000000000000000000\n      dup2\n      mstore\n      0x04\n      add\n      tag_31\n      swap1\n      tag_32\n      jump\t// in\n    tag_31:\n      mload(0x40)\n      dup1\n      swap2\n      sub\n      swap1\n      revert\n    tag_30:\n        /* \"todolist.sol\":622:639  Task storage task */\n      0x00\n        /* \"todolist.sol\":641:646  tasks */\n      0x00\n        /* \"todolist.sol\":647:652  index */\n      dup5\n        /* \"todolist.sol\":641:653  tasks[index] */\n      dup2\n      sload\n      dup2\n      lt\n      tag_33\n      jumpi\n      tag_34\n      tag_35\n      jump\t// in\n    tag_34:\n    tag_33:\n      swap1\n      0x00\n      mstore\n      keccak256(0x00, 0x20)\n      swap1\n      0x02\n      mul\n      add\n        /* \"todolist.sol\":622:653  Task storage task= tasks[index] */\n      swap1\n      pop\n        /* \"todolist.sol\":670:674  task */\n      dup1\n        /* \"todolist.sol\":670:682  task.content */\n      0x00\n      add\n        /* \"todolist.sol\":684:688  task */\n      dup2\n        /* \"todolist.sol\":684:697  task.complete */\n      0x01\n      add\n      0x00\n      swap1\n      sload\n      swap1\n      0x0100\n      exp\n      swap1\n      div\n      0xff\n      and\n        /* \"todolist.sol\":662:698  return (task.content, task.complete) */\n      dup2\n      dup1\n      sload\n      tag_37\n      swap1\n      tag_38\n      jump\t// in\n    tag_37:\n      dup1\n      0x1f\n      add\n      0x20\n      dup1\n      swap2\n      div\n      mul\n      0x20\n      add\n      mload(0x40)\n      swap1\n      dup2\n      add\n      0x40\n      mstore\n      dup1\n      swap3\n      swap2\n      swap1\n      dup2\n      dup2\n      mstore\n      0x20\n      add\n      dup3\n      dup1\n      sload\n      tag_39\n      swap1\n      tag_38\n      jump\t// in\n    tag_39:\n      dup1\n      iszero\n      tag_40\n      jumpi\n      dup1\n      0x1f\n      lt\n      tag_41\n      jumpi\n      0x0100\n      dup1\n      dup4\n      sload\n      div\n      mul\n      dup4\n      mstore\n      swap2\n      0x20\n      add\n      swap2\n      jump(tag_40)\n    tag_41:\n      dup3\n      add\n      swap2\n      swap1\n      0x00\n      mstore\n      keccak256(0x00, 0x20)\n      swap1\n    tag_42:\n      dup2\n      sload\n      dup2\n      mstore\n      swap1\n      0x01\n      add\n      swap1\n      0x20\n      add\n      dup1\n      dup4\n      gt\n      tag_42\n      jumpi\n      dup3\n      swap1\n      sub\n      0x1f\n      and\n      dup3\n      add\n      swap2\n    tag_40:\n      pop\n      pop\n      pop\n      pop\n      pop\n      swap2\n      pop\n      swap3\n      pop\n      swap3\n      pop\n      pop\n        /* \"todolist.sol\":467:706  function getTask(uint index) public  view returns(string memory content, bool complete){... */\n      swap2\n      pop\n      swap2\n      jump\t// out\n        /* \"todolist.sol\":159:178  Task[] public tasks */\n    tag_19:\n      0x00\n      dup2\n      dup2\n      sload\n      dup2\n      lt\n      tag_43\n      jumpi\n      0x00\n      dup1\n      revert\n    tag_43:\n      swap1\n      0x00\n      mstore\n      keccak256(0x00, 0x20)\n      swap1\n      0x02\n      mul\n      add\n      0x00\n      swap2\n      pop\n      swap1\n      pop\n      dup1\n      0x00\n      add\n      dup1\n      sload\n      tag_45\n      swap1\n      tag_38\n      jump\t// in\n    tag_45:\n      dup1\n      0x1f\n      add\n      0x20\n      dup1\n      swap2\n      div\n      mul\n      0x20\n      add\n      mload(0x40)\n      swap1\n      dup2\n      add\n      0x40\n      mstore\n      dup1\n      swap3\n      swap2\n      swap1\n      dup2\n      dup2\n      mstore\n      0x20\n      add\n      dup3\n      dup1\n      sload\n      tag_46\n      swap1\n      tag_38\n      jump\t// in\n    tag_46:\n      dup1\n      iszero\n      tag_47\n      jumpi\n      dup1\n      0x1f\n      lt\n      tag_48\n      jumpi\n      0x0100\n      dup1\n      dup4\n      sload\n      div\n      mul\n      dup4\n      mstore\n      swap2\n      0x20\n      add\n      swap2\n      jump(tag_47)\n    tag_48:\n      dup3\n      add\n      swap2\n      swap1\n      0x00\n      mstore\n      keccak256(0x00, 0x20)\n      swap1\n    tag_49:\n      dup2\n      sload\n      dup2\n      mstore\n      swap1\n      0x01\n      add\n      swap1\n      0x20\n      add\n      dup1\n      dup4\n      gt\n      tag_49\n      jumpi\n      dup3\n      swap1\n      sub\n      0x1f\n      and\n      dup3\n      add\n      swap2\n    tag_47:\n      pop\n      pop\n      pop\n      pop\n      pop\n      swap1\n      dup1\n      0x01\n      add\n      0x00\n      swap1\n      sload\n      swap1\n      0x0100\n      exp\n      swap1\n      div\n      0xff\n      and\n      swap1\n      pop\n      dup3\n      jump\t// out\n        /* \"todolist.sol\":315:461  function completeTask(uint64 index) public{... */\n    tag_24:\n        /* \"todolist.sol\":382:387  tasks */\n      0x00\n        /* \"todolist.sol\":382:394  tasks.length */\n      dup1\n      sload\n      swap1\n      pop\n        /* \"todolist.sol\":376:381  index */\n      dup2\n        /* \"todolist.sol\":376:394  index<tasks.length */\n      0xffffffffffffffff\n      and\n      lt\n        /* \"todolist.sol\":368:416  require(index<tasks.length, \"task is not exits\") */\n      tag_51\n      jumpi\n      mload(0x40)\n      0x08c379a000000000000000000000000000000000000000000000000000000000\n      dup2\n      mstore\n      0x04\n      add\n      tag_52\n      swap1\n      tag_53\n      jump\t// in\n    tag_52:\n      mload(0x40)\n      dup1\n      swap2\n      sub\n      swap1\n      revert\n    tag_51:\n        /* \"todolist.sol\":449:453  true */\n      0x01\n        /* \"todolist.sol\":427:432  tasks */\n      0x00\n        /* \"todolist.sol\":433:438  index */\n      dup3\n        /* \"todolist.sol\":427:439  tasks[index] */\n      0xffffffffffffffff\n      and\n      dup2\n      sload\n      dup2\n      lt\n      tag_54\n      jumpi\n      tag_55\n      tag_35\n      jump\t// in\n    tag_55:\n    tag_54:\n      swap1\n      0x00\n      mstore\n      keccak256(0x00, 0x20)\n      swap1\n      0x02\n      mul\n      add\n        /* \"todolist.sol\":427:448  tasks[index].complete */\n      0x01\n      add\n      0x00\n        /* \"todolist.sol\":427:453  tasks[index].complete=true */\n      0x0100\n      exp\n      dup2\n      sload\n      dup2\n      0xff\n      mul\n      not\n      and\n      swap1\n      dup4\n      iszero\n      iszero\n      mul\n      or\n      swap1\n      sstore\n      pop\n        /* \"todolist.sol\":315:461  function completeTask(uint64 index) public{... */\n      pop\n      jump\t// out\n        /* \"#utility.yul\":88:205   */\n    tag_58:\n        /* \"#utility.yul\":197:198   */\n      0x00\n        /* \"#utility.yul\":194:195   */\n      0x00\n        /* \"#utility.yul\":187:199   */\n      revert\n        /* \"#utility.yul\":211:328   */\n    tag_59:\n        /* \"#utility.yul\":320:321   */\n      0x00\n        /* \"#utility.yul\":317:318   */\n      0x00\n        /* \"#utility.yul\":310:322   */\n      revert\n        /* \"#utility.yul\":334:451   */\n    tag_60:\n        /* \"#utility.yul\":443:444   */\n      0x00\n        /* \"#utility.yul\":440:441   */\n      0x00\n        /* \"#utility.yul\":433:445   */\n      revert\n        /* \"#utility.yul\":457:574   */\n    tag_61:\n        /* \"#utility.yul\":566:567   */\n      0x00\n        /* \"#utility.yul\":563:564   */\n      0x00\n        /* \"#utility.yul\":556:568   */\n      revert\n        /* \"#utility.yul\":580:697   */\n    tag_62:\n        /* \"#utility.yul\":689:690   */\n      0x00\n        /* \"#utility.yul\":686:687   */\n      0x00\n        /* \"#utility.yul\":679:691   */\n      revert\n        /* \"#utility.yul\":717:1270   */\n    tag_63:\n        /* \"#utility.yul\":775:783   */\n      0x00\n        /* \"#utility.yul\":785:791   */\n      0x00\n        /* \"#utility.yul\":835:838   */\n      dup4\n        /* \"#utility.yul\":828:832   */\n      0x1f\n        /* \"#utility.yul\":820:826   */\n      dup5\n        /* \"#utility.yul\":816:833   */\n      add\n        /* \"#utility.yul\":812:839   */\n      slt\n        /* \"#utility.yul\":802:924   */\n      tag_108\n      jumpi\n        /* \"#utility.yul\":843:922   */\n      tag_109\n      tag_60\n      jump\t// in\n    tag_109:\n        /* \"#utility.yul\":802:924   */\n    tag_108:\n        /* \"#utility.yul\":956:962   */\n      dup3\n        /* \"#utility.yul\":943:963   */\n      calldataload\n        /* \"#utility.yul\":933:963   */\n      swap1\n      pop\n        /* \"#utility.yul\":986:1004   */\n      0xffffffffffffffff\n        /* \"#utility.yul\":978:984   */\n      dup2\n        /* \"#utility.yul\":975:1005   */\n      gt\n        /* \"#utility.yul\":972:1089   */\n      iszero\n      tag_110\n      jumpi\n        /* \"#utility.yul\":1008:1087   */\n      tag_111\n      tag_61\n      jump\t// in\n    tag_111:\n        /* \"#utility.yul\":972:1089   */\n    tag_110:\n        /* \"#utility.yul\":1122:1126   */\n      0x20\n        /* \"#utility.yul\":1114:1120   */\n      dup4\n        /* \"#utility.yul\":1110:1127   */\n      add\n        /* \"#utility.yul\":1098:1127   */\n      swap2\n      pop\n        /* \"#utility.yul\":1176:1179   */\n      dup4\n        /* \"#utility.yul\":1168:1172   */\n      0x01\n        /* \"#utility.yul\":1160:1166   */\n      dup3\n        /* \"#utility.yul\":1156:1173   */\n      mul\n        /* \"#utility.yul\":1146:1154   */\n      dup4\n        /* \"#utility.yul\":1142:1174   */\n      add\n        /* \"#utility.yul\":1139:1180   */\n      gt\n        /* \"#utility.yul\":1136:1264   */\n      iszero\n      tag_112\n      jumpi\n        /* \"#utility.yul\":1183:1262   */\n      tag_113\n      tag_62\n      jump\t// in\n    tag_113:\n        /* \"#utility.yul\":1136:1264   */\n    tag_112:\n        /* \"#utility.yul\":717:1270   */\n      swap3\n      pop\n      swap3\n      swap1\n      pop\n      jump\t// out\n        /* \"#utility.yul\":1276:1366   */\n    tag_64:\n        /* \"#utility.yul\":1310:1317   */\n      0x00\n        /* \"#utility.yul\":1353:1358   */\n      dup2\n        /* \"#utility.yul\":1346:1359   */\n      iszero\n        /* \"#utility.yul\":1339:1360   */\n      iszero\n        /* \"#utility.yul\":1328:1360   */\n      swap1\n      pop\n        /* \"#utility.yul\":1276:1366   */\n      swap2\n      swap1\n      pop\n      jump\t// out\n        /* \"#utility.yul\":1372:1488   */\n    tag_65:\n        /* \"#utility.yul\":1442:1463   */\n      tag_116\n        /* \"#utility.yul\":1457:1462   */\n      dup2\n        /* \"#utility.yul\":1442:1463   */\n      tag_64\n      jump\t// in\n    tag_116:\n        /* \"#utility.yul\":1435:1440   */\n      dup2\n        /* \"#utility.yul\":1432:1464   */\n      eq\n        /* \"#utility.yul\":1422:1482   */\n      tag_117\n      jumpi\n        /* \"#utility.yul\":1478:1479   */\n      0x00\n        /* \"#utility.yul\":1475:1476   */\n      0x00\n        /* \"#utility.yul\":1468:1480   */\n      revert\n        /* \"#utility.yul\":1422:1482   */\n    tag_117:\n        /* \"#utility.yul\":1372:1488   */\n      pop\n      jump\t// out\n        /* \"#utility.yul\":1494:1627   */\n    tag_66:\n        /* \"#utility.yul\":1537:1542   */\n      0x00\n        /* \"#utility.yul\":1575:1581   */\n      dup2\n        /* \"#utility.yul\":1562:1582   */\n      calldataload\n        /* \"#utility.yul\":1553:1582   */\n      swap1\n      pop\n        /* \"#utility.yul\":1591:1621   */\n      tag_119\n        /* \"#utility.yul\":1615:1620   */\n      dup2\n        /* \"#utility.yul\":1591:1621   */\n      tag_65\n      jump\t// in\n    tag_119:\n        /* \"#utility.yul\":1494:1627   */\n      swap3\n      swap2\n      pop\n      pop\n      jump\t// out\n        /* \"#utility.yul\":1633:2301   */\n    tag_9:\n        /* \"#utility.yul\":1710:1716   */\n      0x00\n        /* \"#utility.yul\":1718:1724   */\n      0x00\n        /* \"#utility.yul\":1726:1732   */\n      0x00\n        /* \"#utility.yul\":1775:1777   */\n      0x40\n        /* \"#utility.yul\":1763:1772   */\n      dup5\n        /* \"#utility.yul\":1754:1761   */\n      dup7\n        /* \"#utility.yul\":1750:1773   */\n      sub\n        /* \"#utility.yul\":1746:1778   */\n      slt\n        /* \"#utility.yul\":1743:1862   */\n      iszero\n      tag_121\n      jumpi\n        /* \"#utility.yul\":1781:1860   */\n      tag_122\n      tag_58\n      jump\t// in\n    tag_122:\n        /* \"#utility.yul\":1743:1862   */\n    tag_121:\n        /* \"#utility.yul\":1929:1930   */\n      0x00\n        /* \"#utility.yul\":1918:1927   */\n      dup5\n        /* \"#utility.yul\":1914:1931   */\n      add\n        /* \"#utility.yul\":1901:1932   */\n      calldataload\n        /* \"#utility.yul\":1959:1977   */\n      0xffffffffffffffff\n        /* \"#utility.yul\":1951:1957   */\n      dup2\n        /* \"#utility.yul\":1948:1978   */\n      gt\n        /* \"#utility.yul\":1945:2062   */\n      iszero\n      tag_123\n      jumpi\n        /* \"#utility.yul\":1981:2060   */\n      tag_124\n      tag_59\n      jump\t// in\n    tag_124:\n        /* \"#utility.yul\":1945:2062   */\n    tag_123:\n        /* \"#utility.yul\":2094:2159   */\n      tag_125\n        /* \"#utility.yul\":2151:2158   */\n      dup7\n        /* \"#utility.yul\":2142:2148   */\n      dup3\n        /* \"#utility.yul\":2131:2140   */\n      dup8\n        /* \"#utility.yul\":2127:2149   */\n      add\n        /* \"#utility.yul\":2094:2159   */\n      tag_63\n      jump\t// in\n    tag_125:\n        /* \"#utility.yul\":2076:2159   */\n      swap4\n      pop\n      swap4\n      pop\n        /* \"#utility.yul\":1872:2169   */\n      pop\n        /* \"#utility.yul\":2208:2210   */\n      0x20\n        /* \"#utility.yul\":2234:2284   */\n      tag_126\n        /* \"#utility.yul\":2276:2283   */\n      dup7\n        /* \"#utility.yul\":2267:2273   */\n      dup3\n        /* \"#utility.yul\":2256:2265   */\n      dup8\n        /* \"#utility.yul\":2252:2274   */\n      add\n        /* \"#utility.yul\":2234:2284   */\n      tag_66\n      jump\t// in\n    tag_126:\n        /* \"#utility.yul\":2224:2284   */\n      swap2\n      pop\n        /* \"#utility.yul\":2179:2294   */\n      pop\n        /* \"#utility.yul\":1633:2301   */\n      swap3\n      pop\n      swap3\n      pop\n      swap3\n      jump\t// out\n        /* \"#utility.yul\":2307:2384   */\n    tag_67:\n        /* \"#utility.yul\":2344:2351   */\n      0x00\n        /* \"#utility.yul\":2373:2378   */\n      dup2\n        /* \"#utility.yul\":2362:2378   */\n      swap1\n      pop\n        /* \"#utility.yul\":2307:2384   */\n      swap2\n      swap1\n      pop\n      jump\t// out\n        /* \"#utility.yul\":2390:2512   */\n    tag_68:\n        /* \"#utility.yul\":2463:2487   */\n      tag_129\n        /* \"#utility.yul\":2481:2486   */\n      dup2\n        /* \"#utility.yul\":2463:2487   */\n      tag_67\n      jump\t// in\n    tag_129:\n        /* \"#utility.yul\":2456:2461   */\n      dup2\n        /* \"#utility.yul\":2453:2488   */\n      eq\n        /* \"#utility.yul\":2443:2506   */\n      tag_130\n      jumpi\n        /* \"#utility.yul\":2502:2503   */\n      0x00\n        /* \"#utility.yul\":2499:2500   */\n      0x00\n        /* \"#utility.yul\":2492:2504   */\n      revert\n        /* \"#utility.yul\":2443:2506   */\n    tag_130:\n        /* \"#utility.yul\":2390:2512   */\n      pop\n      jump\t// out\n        /* \"#utility.yul\":2518:2657   */\n    tag_69:\n        /* \"#utility.yul\":2564:2569   */\n      0x00\n        /* \"#utility.yul\":2602:2608   */\n      dup2\n        /* \"#utility.yul\":2589:2609   */\n      calldataload\n        /* \"#utility.yul\":2580:2609   */\n      swap1\n      pop\n        /* \"#utility.yul\":2618:2651   */\n      tag_132\n        /* \"#utility.yul\":2645:2650   */\n      dup2\n        /* \"#utility.yul\":2618:2651   */\n      tag_68\n      jump\t// in\n    tag_132:\n        /* \"#utility.yul\":2518:2657   */\n      swap3\n      swap2\n      pop\n      pop\n      jump\t// out\n        /* \"#utility.yul\":2663:2992   */\n    tag_13:\n        /* \"#utility.yul\":2722:2728   */\n      0x00\n        /* \"#utility.yul\":2771:2773   */\n      0x20\n        /* \"#utility.yul\":2759:2768   */\n      dup3\n        /* \"#utility.yul\":2750:2757   */\n      dup5\n        /* \"#utility.yul\":2746:2769   */\n      sub\n        /* \"#utility.yul\":2742:2774   */\n      slt\n        /* \"#utility.yul\":2739:2858   */\n      iszero\n      tag_134\n      jumpi\n        /* \"#utility.yul\":2777:2856   */\n      tag_135\n      tag_58\n      jump\t// in\n    tag_135:\n        /* \"#utility.yul\":2739:2858   */\n    tag_134:\n        /* \"#utility.yul\":2897:2898   */\n      0x00\n        /* \"#utility.yul\":2922:2975   */\n      tag_136\n        /* \"#utility.yul\":2967:2974   */\n      dup5\n        /* \"#utility.yul\":2958:2964   */\n      dup3\n        /* \"#utility.yul\":2947:2956   */\n      dup6\n        /* \"#utility.yul\":2943:2965   */\n      add\n        /* \"#utility.yul\":2922:2975   */\n      tag_69\n      jump\t// in\n    tag_136:\n        /* \"#utility.yul\":2912:2975   */\n      swap2\n      pop\n        /* \"#utility.yul\":2868:2985   */\n      pop\n        /* \"#utility.yul\":2663:2992   */\n      swap3\n      swap2\n      pop\n      pop\n      jump\t// out\n        /* \"#utility.yul\":2998:3097   */\n    tag_70:\n        /* \"#utility.yul\":3050:3056   */\n      0x00\n        /* \"#utility.yul\":3084:3089   */\n      dup2\n        /* \"#utility.yul\":3078:3090   */\n      mload\n        /* \"#utility.yul\":3068:3090   */\n      swap1\n      pop\n        /* \"#utility.yul\":2998:3097   */\n      swap2\n      swap1\n      pop\n      jump\t// out\n        /* \"#utility.yul\":3103:3272   */\n    tag_71:\n        /* \"#utility.yul\":3187:3198   */\n      0x00\n        /* \"#utility.yul\":3221:3227   */\n      dup3\n        /* \"#utility.yul\":3216:3219   */\n      dup3\n        /* \"#utility.yul\":3209:3228   */\n      mstore\n        /* \"#utility.yul\":3261:3265   */\n      0x20\n        /* \"#utility.yul\":3256:3259   */\n      dup3\n        /* \"#utility.yul\":3252:3266   */\n      add\n        /* \"#utility.yul\":3237:3266   */\n      swap1\n      pop\n        /* \"#utility.yul\":3103:3272   */\n      swap3\n      swap2\n      pop\n      pop\n      jump\t// out\n        /* \"#utility.yul\":3278:3417   */\n    tag_72:\n        /* \"#utility.yul\":3367:3373   */\n      dup3\n        /* \"#utility.yul\":3362:3365   */\n      dup2\n        /* \"#utility.yul\":3357:3360   */\n      dup4\n        /* \"#utility.yul\":3351:3374   */\n      mcopy\n        /* \"#utility.yul\":3408:3409   */\n      0x00\n        /* \"#utility.yul\":3399:3405   */\n      dup4\n        /* \"#utility.yul\":3394:3397   */\n      dup4\n        /* \"#utility.yul\":3390:3406   */\n      add\n        /* \"#utility.yul\":3383:3410   */\n      mstore\n        /* \"#utility.yul\":3278:3417   */\n      pop\n      pop\n      pop\n      jump\t// out\n        /* \"#utility.yul\":3423:3525   */\n    tag_73:\n        /* \"#utility.yul\":3464:3470   */\n      0x00\n        /* \"#utility.yul\":3515:3517   */\n      0x1f\n        /* \"#utility.yul\":3511:3518   */\n      not\n        /* \"#utility.yul\":3506:3508   */\n      0x1f\n        /* \"#utility.yul\":3499:3504   */\n      dup4\n        /* \"#utility.yul\":3495:3509   */\n      add\n        /* \"#utility.yul\":3491:3519   */\n      and\n        /* \"#utility.yul\":3481:3519   */\n      swap1\n      pop\n        /* \"#utility.yul\":3423:3525   */\n      swap2\n      swap1\n      pop\n      jump\t// out\n        /* \"#utility.yul\":3531:3908   */\n    tag_74:\n        /* \"#utility.yul\":3619:3622   */\n      0x00\n        /* \"#utility.yul\":3647:3686   */\n      tag_142\n        /* \"#utility.yul\":3680:3685   */\n      dup3\n        /* \"#utility.yul\":3647:3686   */\n      tag_70\n      jump\t// in\n    tag_142:\n        /* \"#utility.yul\":3702:3773   */\n      tag_143\n        /* \"#utility.yul\":3766:3772   */\n      dup2\n        /* \"#utility.yul\":3761:3764   */\n      dup6\n        /* \"#utility.yul\":3702:3773   */\n      tag_71\n      jump\t// in\n    tag_143:\n        /* \"#utility.yul\":3695:3773   */\n      swap4\n      pop\n        /* \"#utility.yul\":3782:3847   */\n      tag_144\n        /* \"#utility.yul\":3840:3846   */\n      dup2\n        /* \"#utility.yul\":3835:3838   */\n      dup6\n        /* \"#utility.yul\":3828:3832   */\n      0x20\n        /* \"#utility.yul\":3821:3826   */\n      dup7\n        /* \"#utility.yul\":3817:3833   */\n      add\n        /* \"#utility.yul\":3782:3847   */\n      tag_72\n      jump\t// in\n    tag_144:\n        /* \"#utility.yul\":3872:3901   */\n      tag_145\n        /* \"#utility.yul\":3894:3900   */\n      dup2\n        /* \"#utility.yul\":3872:3901   */\n      tag_73\n      jump\t// in\n    tag_145:\n        /* \"#utility.yul\":3867:3870   */\n      dup5\n        /* \"#utility.yul\":3863:3902   */\n      add\n        /* \"#utility.yul\":3856:3902   */\n      swap2\n      pop\n        /* \"#utility.yul\":3623:3908   */\n      pop\n        /* \"#utility.yul\":3531:3908   */\n      swap3\n      swap2\n      pop\n      pop\n      jump\t// out\n        /* \"#utility.yul\":3914:4023   */\n    tag_75:\n        /* \"#utility.yul\":3995:4016   */\n      tag_147\n        /* \"#utility.yul\":4010:4015   */\n      dup2\n        /* \"#utility.yul\":3995:4016   */\n      tag_64\n      jump\t// in\n    tag_147:\n        /* \"#utility.yul\":3990:3993   */\n      dup3\n        /* \"#utility.yul\":3983:4017   */\n      mstore\n        /* \"#utility.yul\":3914:4023   */\n      pop\n      pop\n      jump\t// out\n        /* \"#utility.yul\":4029:4440   */\n    tag_16:\n        /* \"#utility.yul\":4164:4168   */\n      0x00\n        /* \"#utility.yul\":4202:4204   */\n      0x40\n        /* \"#utility.yul\":4191:4200   */\n      dup3\n        /* \"#utility.yul\":4187:4205   */\n      add\n        /* \"#utility.yul\":4179:4205   */\n      swap1\n      pop\n        /* \"#utility.yul\":4251:4260   */\n      dup2\n        /* \"#utility.yul\":4245:4249   */\n      dup2\n        /* \"#utility.yul\":4241:4261   */\n      sub\n        /* \"#utility.yul\":4237:4238   */\n      0x00\n        /* \"#utility.yul\":4226:4235   */\n      dup4\n        /* \"#utility.yul\":4222:4239   */\n      add\n        /* \"#utility.yul\":4215:4262   */\n      mstore\n        /* \"#utility.yul\":4279:4357   */\n      tag_149\n        /* \"#utility.yul\":4352:4356   */\n      dup2\n        /* \"#utility.yul\":4343:4349   */\n      dup6\n        /* \"#utility.yul\":4279:4357   */\n      tag_74\n      jump\t// in\n    tag_149:\n        /* \"#utility.yul\":4271:4357   */\n      swap1\n      pop\n        /* \"#utility.yul\":4367:4433   */\n      tag_150\n        /* \"#utility.yul\":4429:4431   */\n      0x20\n        /* \"#utility.yul\":4418:4427   */\n      dup4\n        /* \"#utility.yul\":4414:4432   */\n      add\n        /* \"#utility.yul\":4405:4411   */\n      dup5\n        /* \"#utility.yul\":4367:4433   */\n      tag_75\n      jump\t// in\n    tag_150:\n        /* \"#utility.yul\":4029:4440   */\n      swap4\n      swap3\n      pop\n      pop\n      pop\n      jump\t// out\n        /* \"#utility.yul\":4446:4547   */\n    tag_76:\n        /* \"#utility.yul\":4482:4489   */\n      0x00\n        /* \"#utility.yul\":4522:4540   */\n      0xffffffffffffffff\n        /* \"#utility.yul\":4515:4520   */\n      dup3\n        /* \"#utility.yul\":4511:4541   */\n      and\n        /* \"#utility.yul\":4500:4541   */\n      swap1\n      pop\n        /* \"#utility.yul\":4446:4547   */\n      swap2\n      swap1\n      pop\n      jump\t// out\n        /* \"#utility.yul\":4553:4673   */\n    tag_77:\n        /* \"#utility.yul\":4625:4648   */\n      tag_153\n        /* \"#utility.yul\":4642:4647   */\n      dup2\n        /* \"#utility.yul\":4625:4648   */\n      tag_76\n      jump\t// in\n    tag_153:\n        /* \"#utility.yul\":4618:4623   */\n      dup2\n        /* \"#utility.yul\":4615:4649   */\n      eq\n        /* \"#utility.yul\":4605:4667   */\n      tag_154\n      jumpi\n        /* \"#utility.yul\":4663:4664   */\n      0x00\n        /* \"#utility.yul\":4660:4661   */\n      0x00\n        /* \"#utility.yul\":4653:4665   */\n      revert\n        /* \"#utility.yul\":4605:4667   */\n    tag_154:\n        /* \"#utility.yul\":4553:4673   */\n      pop\n      jump\t// out\n        /* \"#utility.yul\":4679:4816   */\n    tag_78:\n        /* \"#utility.yul\":4724:4729   */\n      0x00\n        /* \"#utility.yul\":4762:4768   */\n      dup2\n        /* \"#utility.yul\":4749:4769   */\n      calldataload\n        /* \"#utility.yul\":4740:4769   */\n      swap1\n      pop\n        /* \"#utility.yul\":4778:4810   */\n      tag_156\n        /* \"#utility.yul\":4804:4809   */\n      dup2\n        /* \"#utility.yul\":4778:4810   */\n      tag_77\n      jump\t// in\n    tag_156:\n        /* \"#utility.yul\":4679:4816   */\n      swap3\n      swap2\n      pop\n      pop\n      jump\t// out\n        /* \"#utility.yul\":4822:5149   */\n    tag_23:\n        /* \"#utility.yul\":4880:4886   */\n      0x00\n        /* \"#utility.yul\":4929:4931   */\n      0x20\n        /* \"#utility.yul\":4917:4926   */\n      dup3\n        /* \"#utility.yul\":4908:4915   */\n      dup5\n        /* \"#utility.yul\":4904:4927   */\n      sub\n        /* \"#utility.yul\":4900:4932   */\n      slt\n        /* \"#utility.yul\":4897:5016   */\n      iszero\n      tag_158\n      jumpi\n        /* \"#utility.yul\":4935:5014   */\n      tag_159\n      tag_58\n      jump\t// in\n    tag_159:\n        /* \"#utility.yul\":4897:5016   */\n    tag_158:\n        /* \"#utility.yul\":5055:5056   */\n      0x00\n        /* \"#utility.yul\":5080:5132   */\n      tag_160\n        /* \"#utility.yul\":5124:5131   */\n      dup5\n        /* \"#utility.yul\":5115:5121   */\n      dup3\n        /* \"#utility.yul\":5104:5113   */\n      dup6\n        /* \"#utility.yul\":5100:5122   */\n      add\n        /* \"#utility.yul\":5080:5132   */\n      tag_78\n      jump\t// in\n    tag_160:\n        /* \"#utility.yul\":5070:5132   */\n      swap2\n      pop\n        /* \"#utility.yul\":5026:5142   */\n      pop\n        /* \"#utility.yul\":4822:5149   */\n      swap3\n      swap2\n      pop\n      pop\n      jump\t// out\n        /* \"#utility.yul\":5155:5335   */\n    tag_79:\n        /* \"#utility.yul\":5203:5280   */\n      0x4e487b7100000000000000000000000000000000000000000000000000000000\n        /* \"#utility.yul\":5200:5201   */\n      0x00\n        /* \"#utility.yul\":5193:5281   */\n      mstore\n        /* \"#utility.yul\":5300:5304   */\n      0x41\n        /* \"#utility.yul\":5297:5298   */\n      0x04\n        /* \"#utility.yul\":5290:5305   */\n      mstore\n        /* \"#utility.yul\":5324:5328   */\n      0x24\n        /* \"#utility.yul\":5321:5322   */\n      0x00\n        /* \"#utility.yul\":5314:5329   */\n      revert\n        /* \"#utility.yul\":5341:5521   */\n    tag_80:\n        /* \"#utility.yul\":5389:5466   */\n      0x4e487b7100000000000000000000000000000000000000000000000000000000\n        /* \"#utility.yul\":5386:5387   */\n      0x00\n        /* \"#utility.yul\":5379:5467   */\n      mstore\n        /* \"#utility.yul\":5486:5490   */\n      0x22\n        /* \"#utility.yul\":5483:5484   */\n      0x04\n        /* \"#utility.yul\":5476:5491   */\n      mstore\n        /* \"#utility.yul\":5510:5514   */\n      0x24\n        /* \"#utility.yul\":5507:5508   */\n      0x00\n        /* \"#utility.yul\":5500:5515   */\n      revert\n        /* \"#utility.yul\":5527:5847   */\n    tag_38:\n        /* \"#utility.yul\":5571:5577   */\n      0x00\n        /* \"#utility.yul\":5608:5609   */\n      0x02\n        /* \"#utility.yul\":5602:5606   */\n      dup3\n        /* \"#utility.yul\":5598:5610   */\n      div\n        /* \"#utility.yul\":5588:5610   */\n      swap1\n      pop\n        /* \"#utility.yul\":5655:5656   */\n      0x01\n        /* \"#utility.yul\":5649:5653   */\n      dup3\n        /* \"#utility.yul\":5645:5657   */\n      and\n        /* \"#utility.yul\":5676:5694   */\n      dup1\n        /* \"#utility.yul\":5666:5747   */\n      tag_164\n      jumpi\n        /* \"#utility.yul\":5732:5736   */\n      0x7f\n        /* \"#utility.yul\":5724:5730   */\n      dup3\n        /* \"#utility.yul\":5720:5737   */\n      and\n        /* \"#utility.yul\":5710:5737   */\n      swap2\n      pop\n        /* \"#utility.yul\":5666:5747   */\n    tag_164:\n        /* \"#utility.yul\":5794:5796   */\n      0x20\n        /* \"#utility.yul\":5786:5792   */\n      dup3\n        /* \"#utility.yul\":5783:5797   */\n      lt\n        /* \"#utility.yul\":5763:5781   */\n      dup2\n        /* \"#utility.yul\":5760:5798   */\n      sub\n        /* \"#utility.yul\":5757:5841   */\n      tag_165\n      jumpi\n        /* \"#utility.yul\":5813:5831   */\n      tag_166\n      tag_80\n      jump\t// in\n    tag_166:\n        /* \"#utility.yul\":5757:5841   */\n    tag_165:\n        /* \"#utility.yul\":5578:5847   */\n      pop\n        /* \"#utility.yul\":5527:5847   */\n      swap2\n      swap1\n      pop\n      jump\t// out\n        /* \"#utility.yul\":5853:5994   */\n    tag_81:\n        /* \"#utility.yul\":5902:5906   */\n      0x00\n        /* \"#utility.yul\":5925:5928   */\n      dup2\n        /* \"#utility.yul\":5917:5928   */\n      swap1\n      pop\n        /* \"#utility.yul\":5948:5951   */\n      dup2\n        /* \"#utility.yul\":5945:5946   */\n      0x00\n        /* \"#utility.yul\":5938:5952   */\n      mstore\n        /* \"#utility.yul\":5982:5986   */\n      0x20\n        /* \"#utility.yul\":5979:5980   */\n      0x00\n        /* \"#utility.yul\":5969:5987   */\n      keccak256\n        /* \"#utility.yul\":5961:5987   */\n      swap1\n      pop\n        /* \"#utility.yul\":5853:5994   */\n      swap2\n      swap1\n      pop\n      jump\t// out\n        /* \"#utility.yul\":6000:6093   */\n    tag_82:\n        /* \"#utility.yul\":6037:6043   */\n      0x00\n        /* \"#utility.yul\":6084:6086   */\n      0x20\n        /* \"#utility.yul\":6079:6081   */\n      0x1f\n        /* \"#utility.yul\":6072:6077   */\n      dup4\n        /* \"#utility.yul\":6068:6082   */\n      add\n        /* \"#utility.yul\":6064:6087   */\n      div\n        /* \"#utility.yul\":6054:6087   */\n      swap1\n      pop\n        /* \"#utility.yul\":6000:6093   */\n      swap2\n      swap1\n      pop\n      jump\t// out\n        /* \"#utility.yul\":6099:6206   */\n    tag_83:\n        /* \"#utility.yul\":6143:6151   */\n      0x00\n        /* \"#utility.yul\":6193:6198   */\n      dup3\n        /* \"#utility.yul\":6187:6191   */\n      dup3\n        /* \"#utility.yul\":6183:6199   */\n      shl\n        /* \"#utility.yul\":6162:6199   */\n      swap1\n      pop\n        /* \"#utility.yul\":6099:6206   */\n      swap3\n      swap2\n      pop\n      pop\n      jump\t// out\n        /* \"#utility.yul\":6212:6605   */\n    tag_84:\n        /* \"#utility.yul\":6281:6287   */\n      0x00\n        /* \"#utility.yul\":6331:6332   */\n      0x08\n        /* \"#utility.yul\":6319:6329   */\n      dup4\n        /* \"#utility.yul\":6315:6333   */\n      mul\n        /* \"#utility.yul\":6354:6451   */\n      tag_171\n        /* \"#utility.yul\":6384:6450   */\n      0xffffffffffffffffffffffffffffffffffffffffffffffffffffffffffffffff\n        /* \"#utility.yul\":6373:6382   */\n      dup3\n        /* \"#utility.yul\":6354:6451   */\n      tag_83\n      jump\t// in\n    tag_171:\n        /* \"#utility.yul\":6472:6511   */\n      tag_172\n        /* \"#utility.yul\":6502:6510   */\n      dup7\n        /* \"#utility.yul\":6491:6500   */\n      dup4\n        /* \"#utility.yul\":6472:6511   */\n      tag_83\n      jump\t// in\n    tag_172:\n        /* \"#utility.yul\":6460:6511   */\n      swap6\n      pop\n        /* \"#utility.yul\":6544:6548   */\n      dup1\n        /* \"#utility.yul\":6540:6549   */\n      not\n        /* \"#utility.yul\":6533:6538   */\n      dup5\n        /* \"#utility.yul\":6529:6550   */\n      and\n        /* \"#utility.yul\":6520:6550   */\n      swap4\n      pop\n        /* \"#utility.yul\":6593:6597   */\n      dup1\n        /* \"#utility.yul\":6583:6591   */\n      dup7\n        /* \"#utility.yul\":6579:6598   */\n      and\n        /* \"#utility.yul\":6572:6577   */\n      dup5\n        /* \"#utility.yul\":6569:6599   */\n      or\n        /* \"#utility.yul\":6559:6599   */\n      swap3\n      pop\n        /* \"#utility.yul\":6288:6605   */\n      pop\n      pop\n        /* \"#utility.yul\":6212:6605   */\n      swap4\n      swap3\n      pop\n      pop\n      pop\n      jump\t// out\n        /* \"#utility.yul\":6611:6671   */\n    tag_85:\n        /* \"#utility.yul\":6639:6642   */\n      0x00\n        /* \"#utility.yul\":6660:6665   */\n      dup2\n        /* \"#utility.yul\":6653:6665   */\n      swap1\n      pop\n        /* \"#utility.yul\":6611:6671   */\n      swap2\n      swap1\n      pop\n      jump\t// out\n        /* \"#utility.yul\":6677:6819   */\n    tag_86:\n        /* \"#utility.yul\":6727:6736   */\n      0x00\n        /* \"#utility.yul\":6760:6813   */\n      tag_175\n        /* \"#utility.yul\":6778:6812   */\n      tag_176\n        /* \"#utility.yul\":6787:6811   */\n      tag_177\n        /* \"#utility.yul\":6805:6810   */\n      dup5\n        /* \"#utility.yul\":6787:6811   */\n      tag_67\n      jump\t// in\n    tag_177:\n        /* \"#utility.yul\":6778:6812   */\n      tag_85\n      jump\t// in\n    tag_176:\n        /* \"#utility.yul\":6760:6813   */\n      tag_67\n      jump\t// in\n    tag_175:\n        /* \"#utility.yul\":6747:6813   */\n      swap1\n      pop\n        /* \"#utility.yul\":6677:6819   */\n      swap2\n      swap1\n      pop\n      jump\t// out\n        /* \"#utility.yul\":6825:6900   */\n    tag_87:\n        /* \"#utility.yul\":6868:6871   */\n      0x00\n        /* \"#utility.yul\":6889:6894   */\n      dup2\n        /* \"#utility.yul\":6882:6894   */\n      swap1\n      pop\n        /* \"#utility.yul\":6825:6900   */\n      swap2\n      swap1\n      pop\n      jump\t// out\n        /* \"#utility.yul\":6906:7175   */\n    tag_88:\n        /* \"#utility.yul\":7016:7055   */\n      tag_180\n        /* \"#utility.yul\":7047:7054   */\n      dup4\n        /* \"#utility.yul\":7016:7055   */\n      tag_86\n      jump\t// in\n    tag_180:\n        /* \"#utility.yul\":7077:7168   */\n      tag_181\n        /* \"#utility.yul\":7126:7167   */\n      tag_182\n        /* \"#utility.yul\":7150:7166   */\n      dup3\n        /* \"#utility.yul\":7126:7167   */\n      tag_87\n      jump\t// in\n    tag_182:\n        /* \"#utility.yul\":7118:7124   */\n      dup5\n        /* \"#utility.yul\":7111:7115   */\n      dup5\n        /* \"#utility.yul\":7105:7116   */\n      sload\n        /* \"#utility.yul\":7077:7168   */\n      tag_84\n      jump\t// in\n    tag_181:\n        /* \"#utility.yul\":7071:7075   */\n      dup3\n        /* \"#utility.yul\":7064:7169   */\n      sstore\n        /* \"#utility.yul\":6982:7175   */\n      pop\n        /* \"#utility.yul\":6906:7175   */\n      pop\n      pop\n      pop\n      jump\t// out\n        /* \"#utility.yul\":7181:7254   */\n    tag_89:\n        /* \"#utility.yul\":7226:7229   */\n      0x00\n        /* \"#utility.yul\":7247:7248   */\n      0x00\n        /* \"#utility.yul\":7240:7248   */\n      swap1\n      pop\n        /* \"#utility.yul\":7181:7254   */\n      swap1\n      jump\t// out\n        /* \"#utility.yul\":7260:7449   */\n    tag_90:\n        /* \"#utility.yul\":7337:7369   */\n      tag_185\n      tag_89\n      jump\t// in\n    tag_185:\n        /* \"#utility.yul\":7378:7443   */\n      tag_186\n        /* \"#utility.yul\":7436:7442   */\n      dup2\n        /* \"#utility.yul\":7428:7434   */\n      dup5\n        /* \"#utility.yul\":7422:7426   */\n      dup5\n        /* \"#utility.yul\":7378:7443   */\n      tag_88\n      jump\t// in\n    tag_186:\n        /* \"#utility.yul\":7313:7449   */\n      pop\n        /* \"#utility.yul\":7260:7449   */\n      pop\n      pop\n      jump\t// out\n        /* \"#utility.yul\":7455:7641   */\n    tag_91:\n        /* \"#utility.yul\":7515:7635   */\n    tag_188:\n        /* \"#utility.yul\":7532:7535   */\n      dup2\n        /* \"#utility.yul\":7525:7530   */\n      dup2\n        /* \"#utility.yul\":7522:7536   */\n      lt\n        /* \"#utility.yul\":7515:7635   */\n      iszero\n      tag_190\n      jumpi\n        /* \"#utility.yul\":7586:7625   */\n      tag_191\n        /* \"#utility.yul\":7623:7624   */\n      0x00\n        /* \"#utility.yul\":7616:7621   */\n      dup3\n        /* \"#utility.yul\":7586:7625   */\n      tag_90\n      jump\t// in\n    tag_191:\n        /* \"#utility.yul\":7559:7560   */\n      0x01\n        /* \"#utility.yul\":7552:7557   */\n      dup2\n        /* \"#utility.yul\":7548:7561   */\n      add\n        /* \"#utility.yul\":7539:7561   */\n      swap1\n      pop\n        /* \"#utility.yul\":7515:7635   */\n      jump(tag_188)\n    tag_190:\n        /* \"#utility.yul\":7455:7641   */\n      pop\n      pop\n      jump\t// out\n        /* \"#utility.yul\":7647:8190   */\n    tag_92:\n        /* \"#utility.yul\":7748:7750   */\n      0x1f\n        /* \"#utility.yul\":7743:7746   */\n      dup3\n        /* \"#utility.yul\":7740:7751   */\n      gt\n        /* \"#utility.yul\":7737:8183   */\n      iszero\n      tag_193\n      jumpi\n        /* \"#utility.yul\":7782:7820   */\n      tag_194\n        /* \"#utility.yul\":7814:7819   */\n      dup2\n        /* \"#utility.yul\":7782:7820   */\n      tag_81\n      jump\t// in\n    tag_194:\n        /* \"#utility.yul\":7866:7895   */\n      tag_195\n        /* \"#utility.yul\":7884:7894   */\n      dup5\n        /* \"#utility.yul\":7866:7895   */\n      tag_82\n      jump\t// in\n    tag_195:\n        /* \"#utility.yul\":7856:7864   */\n      dup2\n        /* \"#utility.yul\":7852:7896   */\n      add\n        /* \"#utility.yul\":8049:8051   */\n      0x20\n        /* \"#utility.yul\":8037:8047   */\n      dup6\n        /* \"#utility.yul\":8034:8052   */\n      lt\n        /* \"#utility.yul\":8031:8080   */\n      iszero\n      tag_196\n      jumpi\n        /* \"#utility.yul\":8070:8078   */\n      dup2\n        /* \"#utility.yul\":8055:8078   */\n      swap1\n      pop\n        /* \"#utility.yul\":8031:8080   */\n    tag_196:\n        /* \"#utility.yul\":8093:8173   */\n      tag_197\n        /* \"#utility.yul\":8149:8171   */\n      tag_198\n        /* \"#utility.yul\":8167:8170   */\n      dup6\n        /* \"#utility.yul\":8149:8171   */\n      tag_82\n      jump\t// in\n    tag_198:\n        /* \"#utility.yul\":8139:8147   */\n      dup4\n        /* \"#utility.yul\":8135:8172   */\n      add\n        /* \"#utility.yul\":8122:8133   */\n      dup3\n        /* \"#utility.yul\":8093:8173   */\n      tag_91\n      jump\t// in\n    tag_197:\n        /* \"#utility.yul\":7752:8183   */\n      pop\n      pop\n        /* \"#utility.yul\":7737:8183   */\n    tag_193:\n        /* \"#utility.yul\":7647:8190   */\n      pop\n      pop\n      pop\n      jump\t// out\n        /* \"#utility.yul\":8196:8313   */\n    tag_93:\n        /* \"#utility.yul\":8250:8258   */\n      0x00\n        /* \"#utility.yul\":8300:8305   */\n      dup3\n        /* \"#utility.yul\":8294:8298   */\n      dup3\n        /* \"#utility.yul\":8290:8306   */\n      shr\n        /* \"#utility.yul\":8269:8306   */\n      swap1\n      pop\n        /* \"#utility.yul\":8196:8313   */\n      swap3\n      swap2\n      pop\n      pop\n      jump\t// out\n        /* \"#utility.yul\":8319:8488   */\n    tag_94:\n        /* \"#utility.yul\":8363:8369   */\n      0x00\n        /* \"#utility.yul\":8396:8447   */\n      tag_201\n        /* \"#utility.yul\":8444:8445   */\n      0x00\n        /* \"#utility.yul\":8440:8446   */\n      not\n        /* \"#utility.yul\":8432:8437   */\n      dup5\n        /* \"#utility.yul\":8429:8430   */\n      0x08\n        /* \"#utility.yul\":8425:8438   */\n      mul\n        /* \"#utility.yul\":8396:8447   */\n      tag_93\n      jump\t// in\n    tag_201:\n        /* \"#utility.yul\":8392:8448   */\n      not\n        /* \"#utility.yul\":8477:8481   */\n      dup1\n        /* \"#utility.yul\":8471:8475   */\n      dup4\n        /* \"#utility.yul\":8467:8482   */\n      and\n        /* \"#utility.yul\":8457:8482   */\n      swap2\n      pop\n        /* \"#utility.yul\":8370:8488   */\n      pop\n        /* \"#utility.yul\":8319:8488   */\n      swap3\n      swap2\n      pop\n      pop\n      jump\t// out\n        /* \"#utility.yul\":8493:8788   */\n    tag_95:\n        /* \"#utility.yul\":8569:8573   */\n      0x00\n        /* \"#utility.yul\":8715:8744   */\n      tag_203\n        /* \"#utility.yul\":8740:8743   */\n      dup4\n        /* \"#utility.yul\":8734:8738   */\n      dup4\n        /* \"#utility.yul\":8715:8744   */\n      tag_94\n      jump\t// in\n    tag_203:\n        /* \"#utility.yul\":8707:8744   */\n      swap2\n      pop\n        /* \"#utility.yul\":8777:8780   */\n      dup3\n        /* \"#utility.yul\":8774:8775   */\n      0x02\n        /* \"#utility.yul\":8770:8781   */\n      mul\n        /* \"#utility.yul\":8764:8768   */\n      dup3\n        /* \"#utility.yul\":8761:8782   */\n      or\n        /* \"#utility.yul\":8753:8782   */\n      swap1\n      pop\n        /* \"#utility.yul\":8493:8788   */\n      swap3\n      swap2\n      pop\n      pop\n      jump\t// out\n        /* \"#utility.yul\":8793:10188   */\n    tag_28:\n        /* \"#utility.yul\":8910:8947   */\n      tag_205\n        /* \"#utility.yul\":8943:8946   */\n      dup3\n        /* \"#utility.yul\":8910:8947   */\n      tag_70\n      jump\t// in\n    tag_205:\n        /* \"#utility.yul\":9012:9030   */\n      0xffffffffffffffff\n        /* \"#utility.yul\":9004:9010   */\n      dup2\n        /* \"#utility.yul\":9001:9031   */\n      gt\n        /* \"#utility.yul\":8998:9054   */\n      iszero\n      tag_206\n      jumpi\n        /* \"#utility.yul\":9034:9052   */\n      tag_207\n      tag_79\n      jump\t// in\n    tag_207:\n        /* \"#utility.yul\":8998:9054   */\n    tag_206:\n        /* \"#utility.yul\":9078:9116   */\n      tag_208\n        /* \"#utility.yul\":9110:9114   */\n      dup3\n        /* \"#utility.yul\":9104:9115   */\n      sload\n        /* \"#utility.yul\":9078:9116   */\n      tag_38\n      jump\t// in\n    tag_208:\n        /* \"#utility.yul\":9163:9230   */\n      tag_209\n        /* \"#utility.yul\":9223:9229   */\n      dup3\n        /* \"#utility.yul\":9215:9221   */\n      dup3\n        /* \"#utility.yul\":9209:9213   */\n      dup6\n        /* \"#utility.yul\":9163:9230   */\n      tag_92\n      jump\t// in\n    tag_209:\n        /* \"#utility.yul\":9257:9258   */\n      0x00\n        /* \"#utility.yul\":9281:9285   */\n      0x20\n        /* \"#utility.yul\":9268:9285   */\n      swap1\n      pop\n        /* \"#utility.yul\":9313:9315   */\n      0x1f\n        /* \"#utility.yul\":9305:9311   */\n      dup4\n        /* \"#utility.yul\":9302:9316   */\n      gt\n        /* \"#utility.yul\":9330:9331   */\n      0x01\n        /* \"#utility.yul\":9325:9943   */\n      dup2\n      eq\n      tag_211\n      jumpi\n        /* \"#utility.yul\":9987:9988   */\n      0x00\n        /* \"#utility.yul\":10004:10010   */\n      dup5\n        /* \"#utility.yul\":10001:10078   */\n      iszero\n      tag_212\n      jumpi\n        /* \"#utility.yul\":10053:10062   */\n      dup3\n        /* \"#utility.yul\":10048:10051   */\n      dup8\n        /* \"#utility.yul\":10044:10063   */\n      add\n        /* \"#utility.yul\":10038:10064   */\n      mload\n        /* \"#utility.yul\":10029:10064   */\n      swap1\n      pop\n        /* \"#utility.yul\":10001:10078   */\n    tag_212:\n        /* \"#utility.yul\":10104:10171   */\n      tag_213\n        /* \"#utility.yul\":10164:10170   */\n      dup6\n        /* \"#utility.yul\":10157:10162   */\n      dup3\n        /* \"#utility.yul\":10104:10171   */\n      tag_95\n      jump\t// in\n    tag_213:\n        /* \"#utility.yul\":10098:10102   */\n      dup7\n        /* \"#utility.yul\":10091:10172   */\n      sstore\n        /* \"#utility.yul\":9960:10182   */\n      pop\n        /* \"#utility.yul\":9295:10182   */\n      jump(tag_210)\n        /* \"#utility.yul\":9325:9943   */\n    tag_211:\n        /* \"#utility.yul\":9377:9381   */\n      0x1f\n        /* \"#utility.yul\":9373:9382   */\n      not\n        /* \"#utility.yul\":9365:9371   */\n      dup5\n        /* \"#utility.yul\":9361:9383   */\n      and\n        /* \"#utility.yul\":9411:9448   */\n      tag_214\n        /* \"#utility.yul\":9443:9447   */\n      dup7\n        /* \"#utility.yul\":9411:9448   */\n      tag_81\n      jump\t// in\n    tag_214:\n        /* \"#utility.yul\":9470:9471   */\n      0x00\n        /* \"#utility.yul\":9484:9692   */\n    tag_215:\n        /* \"#utility.yul\":9498:9505   */\n      dup3\n        /* \"#utility.yul\":9495:9496   */\n      dup2\n        /* \"#utility.yul\":9492:9506   */\n      lt\n        /* \"#utility.yul\":9484:9692   */\n      iszero\n      tag_217\n      jumpi\n        /* \"#utility.yul\":9577:9586   */\n      dup5\n        /* \"#utility.yul\":9572:9575   */\n      dup10\n        /* \"#utility.yul\":9568:9587   */\n      add\n        /* \"#utility.yul\":9562:9588   */\n      mload\n        /* \"#utility.yul\":9554:9560   */\n      dup3\n        /* \"#utility.yul\":9547:9589   */\n      sstore\n        /* \"#utility.yul\":9628:9629   */\n      0x01\n        /* \"#utility.yul\":9620:9626   */\n      dup3\n        /* \"#utility.yul\":9616:9630   */\n      add\n        /* \"#utility.yul\":9606:9630   */\n      swap2\n      pop\n        /* \"#utility.yul\":9675:9677   */\n      0x20\n        /* \"#utility.yul\":9664:9673   */\n      dup6\n        /* \"#utility.yul\":9660:9678   */\n      add\n        /* \"#utility.yul\":9647:9678   */\n      swap5\n      pop\n        /* \"#utility.yul\":9521:9525   */\n      0x20\n        /* \"#utility.yul\":9518:9519   */\n      dup2\n        /* \"#utility.yul\":9514:9526   */\n      add\n        /* \"#utility.yul\":9509:9526   */\n      swap1\n      pop\n        /* \"#utility.yul\":9484:9692   */\n      jump(tag_215)\n    tag_217:\n        /* \"#utility.yul\":9720:9726   */\n      dup7\n        /* \"#utility.yul\":9711:9718   */\n      dup4\n        /* \"#utility.yul\":9708:9727   */\n      lt\n        /* \"#utility.yul\":9705:9884   */\n      iszero\n      tag_218\n      jumpi\n        /* \"#utility.yul\":9778:9787   */\n      dup5\n        /* \"#utility.yul\":9773:9776   */\n      dup10\n        /* \"#utility.yul\":9769:9788   */\n      add\n        /* \"#utility.yul\":9763:9789   */\n      mload\n        /* \"#utility.yul\":9821:9869   */\n      tag_219\n        /* \"#utility.yul\":9863:9867   */\n      0x1f\n        /* \"#utility.yul\":9855:9861   */\n      dup10\n        /* \"#utility.yul\":9851:9868   */\n      and\n        /* \"#utility.yul\":9840:9849   */\n      dup3\n        /* \"#utility.yul\":9821:9869   */\n      tag_94\n      jump\t// in\n    tag_219:\n        /* \"#utility.yul\":9813:9819   */\n      dup4\n        /* \"#utility.yul\":9806:9870   */\n      sstore\n        /* \"#utility.yul\":9728:9884   */\n      pop\n        /* \"#utility.yul\":9705:9884   */\n    tag_218:\n        /* \"#utility.yul\":9930:9931   */\n      0x01\n        /* \"#utility.yul\":9926:9927   */\n      0x02\n        /* \"#utility.yul\":9918:9924   */\n      dup9\n        /* \"#utility.yul\":9914:9928   */\n      mul\n        /* \"#utility.yul\":9910:9932   */\n      add\n        /* \"#utility.yul\":9904:9908   */\n      dup9\n        /* \"#utility.yul\":9897:9933   */\n      sstore\n        /* \"#utility.yul\":9332:9943   */\n      pop\n      pop\n      pop\n        /* \"#utility.yul\":9295:10182   */\n    tag_210:\n      pop\n        /* \"#utility.yul\":8885:10188   */\n      pop\n      pop\n      pop\n        /* \"#utility.yul\":8793:10188   */\n      pop\n      pop\n      jump\t// out\n        /* \"#utility.yul\":10194:10363   */\n    tag_96:\n        /* \"#utility.yul\":10334:10355   */\n      0x496e646578206f7574206f6620626f756e647300000000000000000000000000\n        /* \"#utility.yul\":10330:10331   */\n      0x00\n        /* \"#utility.yul\":10322:10328   */\n      dup3\n        /* \"#utility.yul\":10318:10332   */\n      add\n        /* \"#utility.yul\":10311:10356   */\n      mstore\n        /* \"#utility.yul\":10194:10363   */\n      pop\n      jump\t// out\n        /* \"#utility.yul\":10369:10735   */\n    tag_97:\n        /* \"#utility.yul\":10511:10514   */\n      0x00\n        /* \"#utility.yul\":10532:10599   */\n      tag_222\n        /* \"#utility.yul\":10596:10598   */\n      0x13\n        /* \"#utility.yul\":10591:10594   */\n      dup4\n        /* \"#utility.yul\":10532:10599   */\n      tag_71\n      jump\t// in\n    tag_222:\n        /* \"#utility.yul\":10525:10599   */\n      swap2\n      pop\n        /* \"#utility.yul\":10608:10701   */\n      tag_223\n        /* \"#utility.yul\":10697:10700   */\n      dup3\n        /* \"#utility.yul\":10608:10701   */\n      tag_96\n      jump\t// in\n    tag_223:\n        /* \"#utility.yul\":10726:10728   */\n      0x20\n        /* \"#utility.yul\":10721:10724   */\n      dup3\n        /* \"#utility.yul\":10717:10729   */\n      add\n        /* \"#utility.yul\":10710:10729   */\n      swap1\n      pop\n        /* \"#utility.yul\":10369:10735   */\n      swap2\n      swap1\n      pop\n      jump\t// out\n        /* \"#utility.yul\":10741:11160   */\n    tag_32:\n        /* \"#utility.yul\":10907:10911   */\n      0x00\n        /* \"#utility.yul\":10945:10947   */\n      0x20\n        /* \"#utility.yul\":10934:10943   */\n      dup3\n        /* \"#utility.yul\":10930:10948   */\n      add\n        /* \"#utility.yul\":10922:10948   */\n      swap1\n      pop\n        /* \"#utility.yul\":10994:11003   */\n      dup2\n        /* \"#utility.yul\":10988:10992   */\n      dup2\n        /* \"#utility.yul\":10984:11004   */\n      sub\n        /* \"#utility.yul\":10980:10981   */\n      0x00\n        /* \"#utility.yul\":10969:10978   */\n      dup4\n        /* \"#utility.yul\":10965:10982   */\n      add\n        /* \"#utility.yul\":10958:11005   */\n      mstore\n        /* \"#utility.yul\":11022:11153   */\n      tag_225\n        /* \"#utility.yul\":11148:11152   */\n      dup2\n        /* \"#utility.yul\":11022:11153   */\n      tag_97\n      jump\t// in\n    tag_225:\n        /* \"#utility.yul\":11014:11153   */\n      swap1\n      pop\n        /* \"#utility.yul\":10741:11160   */\n      swap2\n      swap1\n      pop\n      jump\t// out\n        /* \"#utility.yul\":11166:11346   */\n    tag_35:\n        /* \"#utility.yul\":11214:11291   */\n      0x4e487b7100000000000000000000000000000000000000000000000000000000\n        /* \"#utility.yul\":11211:11212   */\n      0x00\n        /* \"#utility.yul\":11204:11292   */\n      mstore\n        /* \"#utility.yul\":11311:11315   */\n      0x32\n        /* \"#utility.yul\":11308:11309   */\n      0x04\n        /* \"#utility.yul\":11301:11316   */\n      mstore\n        /* \"#utility.yul\":11335:11339   */\n      0x24\n        /* \"#utility.yul\":11332:11333   */\n      0x00\n        /* \"#utility.yul\":11325:11340   */\n      revert\n        /* \"#utility.yul\":11352:11519   */\n    tag_98:\n        /* \"#utility.yul\":11492:11511   */\n      0x7461736b206973206e6f74206578697473000000000000000000000000000000\n        /* \"#utility.yul\":11488:11489   */\n      0x00\n        /* \"#utility.yul\":11480:11486   */\n      dup3\n        /* \"#utility.yul\":11476:11490   */\n      add\n        /* \"#utility.yul\":11469:11512   */\n      mstore\n        /* \"#utility.yul\":11352:11519   */\n      pop\n      jump\t// out\n        /* \"#utility.yul\":11525:11891   */\n    tag_99:\n        /* \"#utility.yul\":11667:11670   */\n      0x00\n        /* \"#utility.yul\":11688:11755   */\n      tag_229\n        /* \"#utility.yul\":11752:11754   */\n      0x11\n        /* \"#utility.yul\":11747:11750   */\n      dup4\n        /* \"#utility.yul\":11688:11755   */\n      tag_71\n      jump\t// in\n    tag_229:\n        /* \"#utility.yul\":11681:11755   */\n      swap2\n      pop\n        /* \"#utility.yul\":11764:11857   */\n      tag_230\n        /* \"#utility.yul\":11853:11856   */\n      dup3\n        /* \"#utility.yul\":11764:11857   */\n      tag_98\n      jump\t// in\n    tag_230:\n        /* \"#utility.yul\":11882:11884   */\n      0x20\n        /* \"#utility.yul\":11877:11880   */\n      dup3\n        /* \"#utility.yul\":11873:11885   */\n      add\n        /* \"#utility.yul\":11866:11885   */\n      swap1\n      pop\n        /* \"#utility.yul\":11525:11891   */\n      swap2\n      swap1\n      pop\n      jump\t// out\n        /* \"#utility.yul\":11897:12316   */\n    tag_53:\n        /* \"#utility.yul\":12063:12067   */\n      0x00\n        /* \"#utility.yul\":12101:12103   */\n      0x20\n        /* \"#utility.yul\":12090:12099   */\n      dup3\n        /* \"#utility.yul\":12086:12104   */\n      add\n        /* \"#utility.yul\":12078:12104   */\n      swap1\n      pop\n        /* \"#utility.yul\":12150:12159   */\n      dup2\n        /* \"#utility.yul\":12144:12148   */\n      dup2\n        /* \"#utility.yul\":12140:12160   */\n      sub\n        /* \"#utility.yul\":12136:12137   */\n      0x00\n        /* \"#utility.yul\":12125:12134   */\n      dup4\n        /* \"#utility.yul\":12121:12138   */\n      add\n        /* \"#utility.yul\":12114:12161   */\n      mstore\n        /* \"#utility.yul\":12178:12309   */\n      tag_232\n        /* \"#utility.yul\":12304:12308   */\n      dup2\n        /* \"#utility.yul\":12178:12309   */\n      tag_99\n      jump\t// in\n    tag_232:\n        /* \"#utility.yul\":12170:12309   */\n      swap1\n      pop\n        /* \"#utility.yul\":11897:12316   */\n      swap2\n      swap1\n      pop\n      jump\t// out\n\n    auxdata: 0xa2646970667358221220692837db95a48f02726206a4d38baa78ded9d7c348d1fd96f1e86ce044188db364736f6c634300081e0033\n}\n",
				"bytecode": {
					"linkReferences": {},
					"object": "6080604052348015600e575f5ffd5b50610aa78061001c5f395ff3fe608060405234801561000f575f5ffd5b506004361061004a575f3560e01c806316f704301461004e5780631d65e77e1461006a5780638d9776721461009b578063fb3dc14d146100cc575b5f5ffd5b610068600480360381019061006391906104ab565b6100e8565b005b610084600480360381019061007f919061053b565b6101a3565b6040516100929291906105e5565b60405180910390f35b6100b560048036038101906100b0919061053b565b6102b6565b6040516100c39291906105e5565b60405180910390f35b6100e660048036038101906100e19190610650565b610376565b005b5f604051806040016040528085858080601f0160208091040260200160405190810160405280939291908181526020018383808284375f81840152601f19601f820116905080830192505050505050508152602001831515815250908060018154018082558091505060019003905f5260205f2090600202015f909190919091505f820151815f01908161017c91906108a5565b506020820151816001015f6101000a81548160ff0219169083151502179055505050505050565b60605f5f8054905083106101ec576040517f08c379a00000000000000000000000000000000000000000000000000000000081526004016101e3906109be565b60405180910390fd5b5f5f8481548110610200576101ff6109dc565b5b905f5260205f2090600202019050805f01816001015f9054906101000a900460ff1681805461022e906106d5565b80601f016020809104026020016040519081016040528092919081815260200182805461025a906106d5565b80156102a55780601f1061027c576101008083540402835291602001916102a5565b820191905f5260205f20905b81548152906001019060200180831161028857829003601f168201915b505050505091509250925050915091565b5f81815481106102c4575f80fd5b905f5260205f2090600202015f91509050805f0180546102e3906106d5565b80601f016020809104026020016040519081016040528092919081815260200182805461030f906106d5565b801561035a5780601f106103315761010080835404028352916020019161035a565b820191905f5260205f20905b81548152906001019060200180831161033d57829003601f168201915b505050505090806001015f9054906101000a900460ff16905082565b5f805490508167ffffffffffffffff16106103c6576040517f08c379a00000000000000000000000000000000000000000000000000000000081526004016103bd90610a53565b60405180910390fd5b60015f8267ffffffffffffffff16815481106103e5576103e46109dc565b5b905f5260205f2090600202016001015f6101000a81548160ff02191690831515021790555050565b5f5ffd5b5f5ffd5b5f5ffd5b5f5ffd5b5f5ffd5b5f5f83601f84011261043657610435610415565b5b8235905067ffffffffffffffff81111561045357610452610419565b5b60208301915083600182028301111561046f5761046e61041d565b5b9250929050565b5f8115159050919050565b61048a81610476565b8114610494575f5ffd5b50565b5f813590506104a581610481565b92915050565b5f5f5f604084860312156104c2576104c161040d565b5b5f84013567ffffffffffffffff8111156104df576104de610411565b5b6104eb86828701610421565b935093505060206104fe86828701610497565b9150509250925092565b5f819050919050565b61051a81610508565b8114610524575f5ffd5b50565b5f8135905061053581610511565b92915050565b5f602082840312156105505761054f61040d565b5b5f61055d84828501610527565b91505092915050565b5f81519050919050565b5f82825260208201905092915050565b8281835e5f83830152505050565b5f601f19601f8301169050919050565b5f6105a882610566565b6105b28185610570565b93506105c2818560208601610580565b6105cb8161058e565b840191505092915050565b6105df81610476565b82525050565b5f6040820190508181035f8301526105fd818561059e565b905061060c60208301846105d6565b9392505050565b5f67ffffffffffffffff82169050919050565b61062f81610613565b8114610639575f5ffd5b50565b5f8135905061064a81610626565b92915050565b5f602082840312156106655761066461040d565b5b5f6106728482850161063c565b91505092915050565b7f4e487b71000000000000000000000000000000000000000000000000000000005f52604160045260245ffd5b7f4e487b71000000000000000000000000000000000000000000000000000000005f52602260045260245ffd5b5f60028204905060018216806106ec57607f821691505b6020821081036106ff576106fe6106a8565b5b50919050565b5f819050815f5260205f209050919050565b5f6020601f8301049050919050565b5f82821b905092915050565b5f600883026107617fffffffffffffffffffffffffffffffffffffffffffffffffffffffffffffffff82610726565b61076b8683610726565b95508019841693508086168417925050509392505050565b5f819050919050565b5f6107a66107a161079c84610508565b610783565b610508565b9050919050565b5f819050919050565b6107bf8361078c565b6107d36107cb826107ad565b848454610732565b825550505050565b5f5f905090565b6107ea6107db565b6107f58184846107b6565b505050565b5b818110156108185761080d5f826107e2565b6001810190506107fb565b5050565b601f82111561085d5761082e81610705565b61083784610717565b81016020851015610846578190505b61085a61085285610717565b8301826107fa565b50505b505050565b5f82821c905092915050565b5f61087d5f1984600802610862565b1980831691505092915050565b5f610895838361086e565b9150826002028217905092915050565b6108ae82610566565b67ffffffffffffffff8111156108c7576108c661067b565b5b6108d182546106d5565b6108dc82828561081c565b5f60209050601f83116001811461090d575f84156108fb578287015190505b610905858261088a565b86555061096c565b601f19841661091b86610705565b5f5b828110156109425784890151825560018201915060208501945060208101905061091d565b8683101561095f578489015161095b601f89168261086e565b8355505b6001600288020188555050505b505050505050565b7f496e646578206f7574206f6620626f756e6473000000000000000000000000005f82015250565b5f6109a8601383610570565b91506109b382610974565b602082019050919050565b5f6020820190508181035f8301526109d58161099c565b9050919050565b7f4e487b71000000000000000000000000000000000000000000000000000000005f52603260045260245ffd5b7f7461736b206973206e6f742065786974730000000000000000000000000000005f82015250565b5f610a3d601183610570565b9150610a4882610a09565b602082019050919050565b5f6020820190508181035f830152610a6a81610a31565b905091905056fea2646970667358221220692837db95a48f02726206a4d38baa78ded9d7c348d1fd96f1e86ce044188db364736f6c634300081e0033",
					"opcodes": "PUSH1 0x80 PUSH1 0x40 MSTORE CALLVALUE DUP1 ISZERO PUSH1 0xE JUMPI PUSH0 PUSH0 REVERT JUMPDEST POP PUSH2 0xAA7 DUP1 PUSH2 0x1C PUSH0 CODECOPY PUSH0 RETURN INVALID PUSH1 0x80 PUSH1 0x40 MSTORE CALLVALUE DUP1 ISZERO PUSH2 0xF JUMPI PUSH0 PUSH0 REVERT JUMPDEST POP PUSH1 0x4 CALLDATASIZE LT PUSH2 0x4A JUMPI PUSH0 CALLDATALOAD PUSH1 0xE0 SHR DUP1 PUSH4 0x16F70430 EQ PUSH2 0x4E JUMPI DUP1 PUSH4 0x1D65E77E EQ PUSH2 0x6A JUMPI DUP1 PUSH4 0x8D977672 EQ PUSH2 0x9B JUMPI DUP1 PUSH4 0xFB3DC14D EQ PUSH2 0xCC JUMPI JUMPDEST PUSH0 PUSH0 REVERT JUMPDEST PUSH2 0x68 PUSH1 0x4 DUP1 CALLDATASIZE SUB DUP2 ADD SWAP1 PUSH2 0x63 SWAP2 SWAP1 PUSH2 0x4AB JUMP JUMPDEST PUSH2 0xE8 JUMP JUMPDEST STOP JUMPDEST PUSH2 0x84 PUSH1 0x4 DUP1 CALLDATASIZE SUB DUP2 ADD SWAP1 PUSH2 0x7F SWAP2 SWAP1 PUSH2 0x53B JUMP JUMPDEST PUSH2 0x1A3 JUMP JUMPDEST PUSH1 0x40 MLOAD PUSH2 0x92 SWAP3 SWAP2 SWAP1 PUSH2 0x5E5 JUMP JUMPDEST PUSH1 0x40 MLOAD DUP1 SWAP2 SUB SWAP1 RETURN JUMPDEST PUSH2 0xB5 PUSH1 0x4 DUP1 CALLDATASIZE SUB DUP2 ADD SWAP1 PUSH2 0xB0 SWAP2 SWAP1 PUSH2 0x53B JUMP JUMPDEST PUSH2 0x2B6 JUMP JUMPDEST PUSH1 0x40 MLOAD PUSH2 0xC3 SWAP3 SWAP2 SWAP1 PUSH2 0x5E5 JUMP JUMPDEST PUSH1 0x40 MLOAD DUP1 SWAP2 SUB SWAP1 RETURN JUMPDEST PUSH2 0xE6 PUSH1 0x4 DUP1 CALLDATASIZE SUB DUP2 ADD SWAP1 PUSH2 0xE1 SWAP2 SWAP1 PUSH2 0x650 JUMP JUMPDEST PUSH2 0x376 JUMP JUMPDEST STOP JUMPDEST PUSH0 PUSH1 0x40 MLOAD DUP1 PUSH1 0x40 ADD PUSH1 0x40 MSTORE DUP1 DUP6 DUP6 DUP1 DUP1 PUSH1 0x1F ADD PUSH1 0x20 DUP1 SWAP2 DIV MUL PUSH1 0x20 ADD PUSH1 0x40 MLOAD SWAP1 DUP2 ADD PUSH1 0x40 MSTORE DUP1 SWAP4 SWAP3 SWAP2 SWAP1 DUP2 DUP2 MSTORE PUSH1 0x20 ADD DUP4 DUP4 DUP1 DUP3 DUP5 CALLDATACOPY PUSH0 DUP2 DUP5 ADD MSTORE PUSH1 0x1F NOT PUSH1 0x1F DUP3 ADD AND SWAP1 POP DUP1 DUP4 ADD SWAP3 POP POP POP POP POP POP POP DUP2 MSTORE PUSH1 0x20 ADD DUP4 ISZERO ISZERO DUP2 MSTORE POP SWAP1 DUP1 PUSH1 0x1 DUP2 SLOAD ADD DUP1 DUP3 SSTORE DUP1 SWAP2 POP POP PUSH1 0x1 SWAP1 SUB SWAP1 PUSH0 MSTORE PUSH1 0x20 PUSH0 KECCAK256 SWAP1 PUSH1 0x2 MUL ADD PUSH0 SWAP1 SWAP2 SWAP1 SWAP2 SWAP1 SWAP2 POP PUSH0 DUP3 ADD MLOAD DUP2 PUSH0 ADD SWAP1 DUP2 PUSH2 0x17C SWAP2 SWAP1 PUSH2 0x8A5 JUMP JUMPDEST POP PUSH1 0x20 DUP3 ADD MLOAD DUP2 PUSH1 0x1 ADD PUSH0 PUSH2 0x100 EXP DUP2 SLOAD DUP2 PUSH1 0xFF MUL NOT AND SWAP1 DUP4 ISZERO ISZERO MUL OR SWAP1 SSTORE POP POP POP POP POP POP JUMP JUMPDEST PUSH1 0x60 PUSH0 PUSH0 DUP1 SLOAD SWAP1 POP DUP4 LT PUSH2 0x1EC JUMPI PUSH1 0x40 MLOAD PUSH32 0x8C379A000000000000000000000000000000000000000000000000000000000 DUP2 MSTORE PUSH1 0x4 ADD PUSH2 0x1E3 SWAP1 PUSH2 0x9BE JUMP JUMPDEST PUSH1 0x40 MLOAD DUP1 SWAP2 SUB SWAP1 REVERT JUMPDEST PUSH0 PUSH0 DUP5 DUP2 SLOAD DUP2 LT PUSH2 0x200 JUMPI PUSH2 0x1FF PUSH2 0x9DC JUMP JUMPDEST JUMPDEST SWAP1 PUSH0 MSTORE PUSH1 0x20 PUSH0 KECCAK256 SWAP1 PUSH1 0x2 MUL ADD SWAP1 POP DUP1 PUSH0 ADD DUP2 PUSH1 0x1 ADD PUSH0 SWAP1 SLOAD SWAP1 PUSH2 0x100 EXP SWAP1 DIV PUSH1 0xFF AND DUP2 DUP1 SLOAD PUSH2 0x22E SWAP1 PUSH2 0x6D5 JUMP JUMPDEST DUP1 PUSH1 0x1F ADD PUSH1 0x20 DUP1 SWAP2 DIV MUL PUSH1 0x20 ADD PUSH1 0x40 MLOAD SWAP1 DUP2 ADD PUSH1 0x40 MSTORE DUP1 SWAP3 SWAP2 SWAP1 DUP2 DUP2 MSTORE PUSH1 0x20 ADD DUP3 DUP1 SLOAD PUSH2 0x25A SWAP1 PUSH2 0x6D5 JUMP JUMPDEST DUP1 ISZERO PUSH2 0x2A5 JUMPI DUP1 PUSH1 0x1F LT PUSH2 0x27C JUMPI PUSH2 0x100 DUP1 DUP4 SLOAD DIV MUL DUP4 MSTORE SWAP2 PUSH1 0x20 ADD SWAP2 PUSH2 0x2A5 JUMP JUMPDEST DUP3 ADD SWAP2 SWAP1 PUSH0 MSTORE PUSH1 0x20 PUSH0 KECCAK256 SWAP1 JUMPDEST DUP2 SLOAD DUP2 MSTORE SWAP1 PUSH1 0x1 ADD SWAP1 PUSH1 0x20 ADD DUP1 DUP4 GT PUSH2 0x288 JUMPI DUP3 SWAP1 SUB PUSH1 0x1F AND DUP3 ADD SWAP2 JUMPDEST POP POP POP POP POP SWAP2 POP SWAP3 POP SWAP3 POP POP SWAP2 POP SWAP2 JUMP JUMPDEST PUSH0 DUP2 DUP2 SLOAD DUP2 LT PUSH2 0x2C4 JUMPI PUSH0 DUP1 REVERT JUMPDEST SWAP1 PUSH0 MSTORE PUSH1 0x20 PUSH0 KECCAK256 SWAP1 PUSH1 0x2 MUL ADD PUSH0 SWAP2 POP SWAP1 POP DUP1 PUSH0 ADD DUP1 SLOAD PUSH2 0x2E3 SWAP1 PUSH2 0x6D5 JUMP JUMPDEST DUP1 PUSH1 0x1F ADD PUSH1 0x20 DUP1 SWAP2 DIV MUL PUSH1 0x20 ADD PUSH1 0x40 MLOAD SWAP1 DUP2 ADD PUSH1 0x40 MSTORE DUP1 SWAP3 SWAP2 SWAP1 DUP2 DUP2 MSTORE PUSH1 0x20 ADD DUP3 DUP1 SLOAD PUSH2 0x30F SWAP1 PUSH2 0x6D5 JUMP JUMPDEST DUP1 ISZERO PUSH2 0x35A JUMPI DUP1 PUSH1 0x1F LT PUSH2 0x331 JUMPI PUSH2 0x100 DUP1 DUP4 SLOAD DIV MUL DUP4 MSTORE SWAP2 PUSH1 0x20 ADD SWAP2 PUSH2 0x35A JUMP JUMPDEST DUP3 ADD SWAP2 SWAP1 PUSH0 MSTORE PUSH1 0x20 PUSH0 KECCAK256 SWAP1 JUMPDEST DUP2 SLOAD DUP2 MSTORE SWAP1 PUSH1 0x1 ADD SWAP1 PUSH1 0x20 ADD DUP1 DUP4 GT PUSH2 0x33D JUMPI DUP3 SWAP1 SUB PUSH1 0x1F AND DUP3 ADD SWAP2 JUMPDEST POP POP POP POP POP SWAP1 DUP1 PUSH1 0x1 ADD PUSH0 SWAP1 SLOAD SWAP1 PUSH2 0x100 EXP SWAP1 DIV PUSH1 0xFF AND SWAP1 POP DUP3 JUMP JUMPDEST PUSH0 DUP1 SLOAD SWAP1 POP DUP2 PUSH8 0xFFFFFFFFFFFFFFFF AND LT PUSH2 0x3C6 JUMPI PUSH1 0x40 MLOAD PUSH32 0x8C379A000000000000000000000000000000000000000000000000000000000 DUP2 MSTORE PUSH1 0x4 ADD PUSH2 0x3BD SWAP1 PUSH2 0xA53 JUMP JUMPDEST PUSH1 0x40 MLOAD DUP1 SWAP2 SUB SWAP1 REVERT JUMPDEST PUSH1 0x1 PUSH0 DUP3 PUSH8 0xFFFFFFFFFFFFFFFF AND DUP2 SLOAD DUP2 LT PUSH2 0x3E5 JUMPI PUSH2 0x3E4 PUSH2 0x9DC JUMP JUMPDEST JUMPDEST SWAP1 PUSH0 MSTORE PUSH1 0x20 PUSH0 KECCAK256 SWAP1 PUSH1 0x2 MUL ADD PUSH1 0x1 ADD PUSH0 PUSH2 0x100 EXP DUP2 SLOAD DUP2 PUSH1 0xFF MUL NOT AND SWAP1 DUP4 ISZERO ISZERO MUL OR SWAP1 SSTORE POP POP JUMP JUMPDEST PUSH0 PUSH0 REVERT JUMPDEST PUSH0 PUSH0 REVERT JUMPDEST PUSH0 PUSH0 REVERT JUMPDEST PUSH0 PUSH0 REVERT JUMPDEST PUSH0 PUSH0 REVERT JUMPDEST PUSH0 PUSH0 DUP4 PUSH1 0x1F DUP5 ADD SLT PUSH2 0x436 JUMPI PUSH2 0x435 PUSH2 0x415 JUMP JUMPDEST JUMPDEST DUP3 CALLDATALOAD SWAP1 POP PUSH8 0xFFFFFFFFFFFFFFFF DUP2 GT ISZERO PUSH2 0x453 JUMPI PUSH2 0x452 PUSH2 0x419 JUMP JUMPDEST JUMPDEST PUSH1 0x20 DUP4 ADD SWAP2 POP DUP4 PUSH1 0x1 DUP3 MUL DUP4 ADD GT ISZERO PUSH2 0x46F JUMPI PUSH2 0x46E PUSH2 0x41D JUMP JUMPDEST JUMPDEST SWAP3 POP SWAP3 SWAP1 POP JUMP JUMPDEST PUSH0 DUP2 ISZERO ISZERO SWAP1 POP SWAP2 SWAP1 POP JUMP JUMPDEST PUSH2 0x48A DUP2 PUSH2 0x476 JUMP JUMPDEST DUP2 EQ PUSH2 0x494 JUMPI PUSH0 PUSH0 REVERT JUMPDEST POP JUMP JUMPDEST PUSH0 DUP2 CALLDATALOAD SWAP1 POP PUSH2 0x4A5 DUP2 PUSH2 0x481 JUMP JUMPDEST SWAP3 SWAP2 POP POP JUMP JUMPDEST PUSH0 PUSH0 PUSH0 PUSH1 0x40 DUP5 DUP7 SUB SLT ISZERO PUSH2 0x4C2 JUMPI PUSH2 0x4C1 PUSH2 0x40D JUMP JUMPDEST JUMPDEST PUSH0 DUP5 ADD CALLDATALOAD PUSH8 0xFFFFFFFFFFFFFFFF DUP2 GT ISZERO PUSH2 0x4DF JUMPI PUSH2 0x4DE PUSH2 0x411 JUMP JUMPDEST JUMPDEST PUSH2 0x4EB DUP7 DUP3 DUP8 ADD PUSH2 0x421 JUMP JUMPDEST SWAP4 POP SWAP4 POP POP PUSH1 0x20 PUSH2 0x4FE DUP7 DUP3 DUP8 ADD PUSH2 0x497 JUMP JUMPDEST SWAP2 POP POP SWAP3 POP SWAP3 POP SWAP3 JUMP JUMPDEST PUSH0 DUP2 SWAP1 POP SWAP2 SWAP1 POP JUMP JUMPDEST PUSH2 0x51A DUP2 PUSH2 0x508 JUMP JUMPDEST DUP2 EQ PUSH2 0x524 JUMPI PUSH0 PUSH0 REVERT JUMPDEST POP JUMP JUMPDEST PUSH0 DUP2 CALLDATALOAD SWAP1 POP PUSH2 0x535 DUP2 PUSH2 0x511 JUMP JUMPDEST SWAP3 SWAP2 POP POP JUMP JUMPDEST PUSH0 PUSH1 0x20 DUP3 DUP5 SUB SLT ISZERO PUSH2 0x550 JUMPI PUSH2 0x54F PUSH2 0x40D JUMP JUMPDEST JUMPDEST PUSH0 PUSH2 0x55D DUP5 DUP3 DUP6 ADD PUSH2 0x527 JUMP JUMPDEST SWAP2 POP POP SWAP3 SWAP2 POP POP JUMP JUMPDEST PUSH0 DUP2 MLOAD SWAP1 POP SWAP2 SWAP1 POP JUMP JUMPDEST PUSH0 DUP3 DUP3 MSTORE PUSH1 0x20 DUP3 ADD SWAP1 POP SWAP3 SWAP2 POP POP JUMP JUMPDEST DUP3 DUP2 DUP4 MCOPY PUSH0 DUP4 DUP4 ADD MSTORE POP POP POP JUMP JUMPDEST PUSH0 PUSH1 0x1F NOT PUSH1 0x1F DUP4 ADD AND SWAP1 POP SWAP2 SWAP1 POP JUMP JUMPDEST PUSH0 PUSH2 0x5A8 DUP3 PUSH2 0x566 JUMP JUMPDEST PUSH2 0x5B2 DUP2 DUP6 PUSH2 0x570 JUMP JUMPDEST SWAP4 POP PUSH2 0x5C2 DUP2 DUP6 PUSH1 0x20 DUP7 ADD PUSH2 0x580 JUMP JUMPDEST PUSH2 0x5CB DUP2 PUSH2 0x58E JUMP JUMPDEST DUP5 ADD SWAP2 POP POP SWAP3 SWAP2 POP POP JUMP JUMPDEST PUSH2 0x5DF DUP2 PUSH2 0x476 JUMP JUMPDEST DUP3 MSTORE POP POP JUMP JUMPDEST PUSH0 PUSH1 0x40 DUP3 ADD SWAP1 POP DUP2 DUP2 SUB PUSH0 DUP4 ADD MSTORE PUSH2 0x5FD DUP2 DUP6 PUSH2 0x59E JUMP JUMPDEST SWAP1 POP PUSH2 0x60C PUSH1 0x20 DUP4 ADD DUP5 PUSH2 0x5D6 JUMP JUMPDEST SWAP4 SWAP3 POP POP POP JUMP JUMPDEST PUSH0 PUSH8 0xFFFFFFFFFFFFFFFF DUP3 AND SWAP1 POP SWAP2 SWAP1 POP JUMP JUMPDEST PUSH2 0x62F DUP2 PUSH2 0x613 JUMP JUMPDEST DUP2 EQ PUSH2 0x639 JUMPI PUSH0 PUSH0 REVERT JUMPDEST POP JUMP JUMPDEST PUSH0 DUP2 CALLDATALOAD SWAP1 POP PUSH2 0x64A DUP2 PUSH2 0x626 JUMP JUMPDEST SWAP3 SWAP2 POP POP JUMP JUMPDEST PUSH0 PUSH1 0x20 DUP3 DUP5 SUB SLT ISZERO PUSH2 0x665 JUMPI PUSH2 0x664 PUSH2 0x40D JUMP JUMPDEST JUMPDEST PUSH0 PUSH2 0x672 DUP5 DUP3 DUP6 ADD PUSH2 0x63C JUMP JUMPDEST SWAP2 POP POP SWAP3 SWAP2 POP POP JUMP JUMPDEST PUSH32 0x4E487B7100000000000000000000000000000000000000000000000000000000 PUSH0 MSTORE PUSH1 0x41 PUSH1 0x4 MSTORE PUSH1 0x24 PUSH0 REVERT JUMPDEST PUSH32 0x4E487B7100000000000000000000000000000000000000000000000000000000 PUSH0 MSTORE PUSH1 0x22 PUSH1 0x4 MSTORE PUSH1 0x24 PUSH0 REVERT JUMPDEST PUSH0 PUSH1 0x2 DUP3 DIV SWAP1 POP PUSH1 0x1 DUP3 AND DUP1 PUSH2 0x6EC JUMPI PUSH1 0x7F DUP3 AND SWAP2 POP JUMPDEST PUSH1 0x20 DUP3 LT DUP2 SUB PUSH2 0x6FF JUMPI PUSH2 0x6FE PUSH2 0x6A8 JUMP JUMPDEST JUMPDEST POP SWAP2 SWAP1 POP JUMP JUMPDEST PUSH0 DUP2 SWAP1 POP DUP2 PUSH0 MSTORE PUSH1 0x20 PUSH0 KECCAK256 SWAP1 POP SWAP2 SWAP1 POP JUMP JUMPDEST PUSH0 PUSH1 0x20 PUSH1 0x1F DUP4 ADD DIV SWAP1 POP SWAP2 SWAP1 POP JUMP JUMPDEST PUSH0 DUP3 DUP3 SHL SWAP1 POP SWAP3 SWAP2 POP POP JUMP JUMPDEST PUSH0 PUSH1 0x8 DUP4 MUL PUSH2 0x761 PUSH32 0xFFFFFFFFFFFFFFFFFFFFFFFFFFFFFFFFFFFFFFFFFFFFFFFFFFFFFFFFFFFFFFFF DUP3 PUSH2 0x726 JUMP JUMPDEST PUSH2 0x76B DUP7 DUP4 PUSH2 0x726 JUMP JUMPDEST SWAP6 POP DUP1 NOT DUP5 AND SWAP4 POP DUP1 DUP7 AND DUP5 OR SWAP3 POP POP POP SWAP4 SWAP3 POP POP POP JUMP JUMPDEST PUSH0 DUP2 SWAP1 POP SWAP2 SWAP1 POP JUMP JUMPDEST PUSH0 PUSH2 0x7A6 PUSH2 0x7A1 PUSH2 0x79C DUP5 PUSH2 0x508 JUMP JUMPDEST PUSH2 0x783 JUMP JUMPDEST PUSH2 0x508 JUMP JUMPDEST SWAP1 POP SWAP2 SWAP1 POP JUMP JUMPDEST PUSH0 DUP2 SWAP1 POP SWAP2 SWAP1 POP JUMP JUMPDEST PUSH2 0x7BF DUP4 PUSH2 0x78C JUMP JUMPDEST PUSH2 0x7D3 PUSH2 0x7CB DUP3 PUSH2 0x7AD JUMP JUMPDEST DUP5 DUP5 SLOAD PUSH2 0x732 JUMP JUMPDEST DUP3 SSTORE POP POP POP POP JUMP JUMPDEST PUSH0 PUSH0 SWAP1 POP SWAP1 JUMP JUMPDEST PUSH2 0x7EA PUSH2 0x7DB JUMP JUMPDEST PUSH2 0x7F5 DUP2 DUP5 DUP5 PUSH2 0x7B6 JUMP JUMPDEST POP POP POP JUMP JUMPDEST JUMPDEST DUP2 DUP2 LT ISZERO PUSH2 0x818 JUMPI PUSH2 0x80D PUSH0 DUP3 PUSH2 0x7E2 JUMP JUMPDEST PUSH1 0x1 DUP2 ADD SWAP1 POP PUSH2 0x7FB JUMP JUMPDEST POP POP JUMP JUMPDEST PUSH1 0x1F DUP3 GT ISZERO PUSH2 0x85D JUMPI PUSH2 0x82E DUP2 PUSH2 0x705 JUMP JUMPDEST PUSH2 0x837 DUP5 PUSH2 0x717 JUMP JUMPDEST DUP2 ADD PUSH1 0x20 DUP6 LT ISZERO PUSH2 0x846 JUMPI DUP2 SWAP1 POP JUMPDEST PUSH2 0x85A PUSH2 0x852 DUP6 PUSH2 0x717 JUMP JUMPDEST DUP4 ADD DUP3 PUSH2 0x7FA JUMP JUMPDEST POP POP JUMPDEST POP POP POP JUMP JUMPDEST PUSH0 DUP3 DUP3 SHR SWAP1 POP SWAP3 SWAP2 POP POP JUMP JUMPDEST PUSH0 PUSH2 0x87D PUSH0 NOT DUP5 PUSH1 0x8 MUL PUSH2 0x862 JUMP JUMPDEST NOT DUP1 DUP4 AND SWAP2 POP POP SWAP3 SWAP2 POP POP JUMP JUMPDEST PUSH0 PUSH2 0x895 DUP4 DUP4 PUSH2 0x86E JUMP JUMPDEST SWAP2 POP DUP3 PUSH1 0x2 MUL DUP3 OR SWAP1 POP SWAP3 SWAP2 POP POP JUMP JUMPDEST PUSH2 0x8AE DUP3 PUSH2 0x566 JUMP JUMPDEST PUSH8 0xFFFFFFFFFFFFFFFF DUP2 GT ISZERO PUSH2 0x8C7 JUMPI PUSH2 0x8C6 PUSH2 0x67B JUMP JUMPDEST JUMPDEST PUSH2 0x8D1 DUP3 SLOAD PUSH2 0x6D5 JUMP JUMPDEST PUSH2 0x8DC DUP3 DUP3 DUP6 PUSH2 0x81C JUMP JUMPDEST PUSH0 PUSH1 0x20 SWAP1 POP PUSH1 0x1F DUP4 GT PUSH1 0x1 DUP2 EQ PUSH2 0x90D JUMPI PUSH0 DUP5 ISZERO PUSH2 0x8FB JUMPI DUP3 DUP8 ADD MLOAD SWAP1 POP JUMPDEST PUSH2 0x905 DUP6 DUP3 PUSH2 0x88A JUMP JUMPDEST DUP7 SSTORE POP PUSH2 0x96C JUMP JUMPDEST PUSH1 0x1F NOT DUP5 AND PUSH2 0x91B DUP7 PUSH2 0x705 JUMP JUMPDEST PUSH0 JUMPDEST DUP3 DUP2 LT ISZERO PUSH2 0x942 JUMPI DUP5 DUP10 ADD MLOAD DUP3 SSTORE PUSH1 0x1 DUP3 ADD SWAP2 POP PUSH1 0x20 DUP6 ADD SWAP5 POP PUSH1 0x20 DUP2 ADD SWAP1 POP PUSH2 0x91D JUMP JUMPDEST DUP7 DUP4 LT ISZERO PUSH2 0x95F JUMPI DUP5 DUP10 ADD MLOAD PUSH2 0x95B PUSH1 0x1F DUP10 AND DUP3 PUSH2 0x86E JUMP JUMPDEST DUP4 SSTORE POP JUMPDEST PUSH1 0x1 PUSH1 0x2 DUP9 MUL ADD DUP9 SSTORE POP POP POP JUMPDEST POP POP POP POP POP POP JUMP JUMPDEST PUSH32 0x496E646578206F7574206F6620626F756E647300000000000000000000000000 PUSH0 DUP3 ADD MSTORE POP JUMP JUMPDEST PUSH0 PUSH2 0x9A8 PUSH1 0x13 DUP4 PUSH2 0x570 JUMP JUMPDEST SWAP2 POP PUSH2 0x9B3 DUP3 PUSH2 0x974 JUMP JUMPDEST PUSH1 0x20 DUP3 ADD SWAP1 POP SWAP2 SWAP1 POP JUMP JUMPDEST PUSH0 PUSH1 0x20 DUP3 ADD SWAP1 POP DUP2 DUP2 SUB PUSH0 DUP4 ADD MSTORE PUSH2 0x9D5 DUP2 PUSH2 0x99C JUMP JUMPDEST SWAP1 POP SWAP2 SWAP1 POP JUMP JUMPDEST PUSH32 0x4E487B7100000000000000000000000000000000000000000000000000000000 PUSH0 MSTORE PUSH1 0x32 PUSH1 0x4 MSTORE PUSH1 0x24 PUSH0 REVERT JUMPDEST PUSH32 0x7461736B206973206E6F74206578697473000000000000000000000000000000 PUSH0 DUP3 ADD MSTORE POP JUMP JUMPDEST PUSH0 PUSH2 0xA3D PUSH1 0x11 DUP4 PUSH2 0x570 JUMP JUMPDEST SWAP2 POP PUSH2 0xA48 DUP3 PUSH2 0xA09 JUMP JUMPDEST PUSH1 0x20 DUP3 ADD SWAP1 POP SWAP2 SWAP1 POP JUMP JUMPDEST PUSH0 PUSH1 0x20 DUP3 ADD SWAP1 POP DUP2 DUP2 SUB PUSH0 DUP4 ADD MSTORE PUSH2 0xA6A DUP2 PUSH2 0xA31 JUMP JUMPDEST SWAP1 POP SWAP2 SWAP1 POP JUMP INVALID LOG2 PUSH5 0x6970667358 0x22 SLT KECCAK256 PUSH10 0x2837DB95A48F02726206 LOG4 0xD3 DUP12 0xAA PUSH25 0xDED9D7C348D1FD96F1E86CE044188DB364736F6C634300081E STOP CALLER "
				},
				"gasEstimates": {
					"creation": {
						"codeDepositCost": "545400",
						"executionCost": "579",
						"totalCost": "545979"
					},
					"external": {
						"completeTask(uint64)": "29053",
						"createTask(string,bool)": "infinite",
						"getTask(uint256)": "infinite",
						"tasks(uint256)": "infinite"
					}
				},
				"methodIdentifiers": {
					"completeTask(uint64)": "fb3dc14d",
					"createTask(string,bool)": "16f70430",
					"getTask(uint256)": "1d65e77e",
					"tasks(uint256)": "8d977672"
				}
			},
			"storageLayout": {
				"storage": [
					{
						"astId": 10,
						"contract": "todolist.sol:myTodo",
						"label": "tasks",
						"offset": 0,
						"slot": "0",
						"type": "t_array(t_struct(Task)6_storage)dyn_storage"
					}
				],
				"types": {
					"t_array(t_struct(Task)6_storage)dyn_storage": {
						"base": "t_struct(Task)6_storage",
						"encoding": "dynamic_array",
						"label": "struct myTodo.Task[]",
						"numberOfBytes": "32"
					},
					"t_bool": {
						"encoding": "inplace",
						"label": "bool",
						"numberOfBytes": "1"
					},
					"t_string_storage": {
						"encoding": "bytes",
						"label": "string",
						"numberOfBytes": "32"
					},
					"t_struct(Task)6_storage": {
						"encoding": "inplace",
						"label": "struct myTodo.Task",
						"members": [
							{
								"astId": 3,
								"contract": "todolist.sol:myTodo",
								"label": "content",
								"offset": 0,
								"slot": "0",
								"type": "t_string_storage"
							},
							{
								"astId": 5,
								"contract": "todolist.sol:myTodo",
								"label": "complete",
								"offset": 0,
								"slot": "1",
								"type": "t_bool"
							}
						],
						"numberOfBytes": "64"
					}
				}
			},
			"userdoc": {
				"kind": "user",
				"methods": {},
				"version": 1
			}
		}
	}
}