{
	"oil&gas.sol": {
		"OilAndGas": {
			"abi": [
				{
					"inputs": [],
					"stateMutability": "nonpayable",
					"type": "constructor"
				},
				{
					"anonymous": false,
					"inputs": [
						{
							"indexed": true,
							"internalType": "string",
							"name": "",
							"type": "string"
						},
						{
							"indexed": true,
							"internalType": "address",
							"name": "_protocols",
							"type": "address"
						}
					],
					"name": "OilWellAdded",
					"type": "event"
				},
				{
					"anonymous": false,
					"inputs": [
						{
							"indexed": true,
							"internalType": "string",
							"name": "",
							"type": "string"
						},
						{
							"indexed": false,
							"internalType": "uint256",
							"name": "_productioon",
							"type": "uint256"
						}
					],
					"name": "productionChanged",
					"type": "event"
				},
				{
					"inputs": [
						{
							"internalType": "address",
							"name": "_address",
							"type": "address"
						},
						{
							"internalType": "string",
							"name": "_name",
							"type": "string"
						},
						{
							"internalType": "uint256",
							"name": "_amount",
							"type": "uint256"
						},
						{
							"internalType": "uint256",
							"name": "pay",
							"type": "uint256"
						}
					],
					"name": "BuyOil",
					"outputs": [],
					"stateMutability": "payable",
					"type": "function"
				},
				{
					"inputs": [
						{
							"internalType": "string",
							"name": "_index",
							"type": "string"
						},
						{
							"internalType": "address",
							"name": "_operator",
							"type": "address"
						}
					],
					"name": "ChangeOperator",
					"outputs": [],
					"stateMutability": "nonpayable",
					"type": "function"
				},
				{
					"inputs": [
						{
							"internalType": "string",
							"name": "_name",
							"type": "string"
						},
						{
							"internalType": "uint256",
							"name": "_production",
							"type": "uint256"
						}
					],
					"name": "ChangeProduction",
					"outputs": [],
					"stateMutability": "nonpayable",
					"type": "function"
				},
				{
					"inputs": [
						{
							"internalType": "string",
							"name": "_name",
							"type": "string"
						}
					],
					"name": "CheckOil",
					"outputs": [
						{
							"internalType": "string",
							"name": "",
							"type": "string"
						},
						{
							"internalType": "uint256",
							"name": "",
							"type": "uint256"
						}
					],
					"stateMutability": "view",
					"type": "function"
				},
				{
					"inputs": [
						{
							"internalType": "uint256",
							"name": "_amount",
							"type": "uint256"
						},
						{
							"internalType": "uint256",
							"name": "_price",
							"type": "uint256"
						}
					],
					"name": "SetAmount",
					"outputs": [],
					"stateMutability": "payable",
					"type": "function"
				},
				{
					"inputs": [
						{
							"internalType": "uint256",
							"name": "",
							"type": "uint256"
						}
					],
					"name": "amountToPrice",
					"outputs": [
						{
							"internalType": "uint256",
							"name": "",
							"type": "uint256"
						}
					],
					"stateMutability": "view",
					"type": "function"
				},
				{
					"inputs": [
						{
							"internalType": "address",
							"name": "",
							"type": "address"
						}
					],
					"name": "buyers",
					"outputs": [
						{
							"internalType": "address",
							"name": "buyerAddress",
							"type": "address"
						},
						{
							"internalType": "string",
							"name": "oilName",
							"type": "string"
						},
						{
							"internalType": "uint256",
							"name": "amount",
							"type": "uint256"
						}
					],
					"stateMutability": "view",
					"type": "function"
				},
				{
					"inputs": [
						{
							"internalType": "string",
							"name": "_name",
							"type": "string"
						}
					],
					"name": "oilCreated",
					"outputs": [],
					"stateMutability": "nonpayable",
					"type": "function"
				},
				{
					"inputs": [
						{
							"internalType": "string",
							"name": "",
							"type": "string"
						}
					],
					"name": "oilWells",
					"outputs": [
						{
							"internalType": "string",
							"name": "name",
							"type": "string"
						},
						{
							"internalType": "address",
							"name": "operator",
							"type": "address"
						},
						{
							"internalType": "uint256",
							"name": "production",
							"type": "uint256"
						}
					],
					"stateMutability": "view",
					"type": "function"
				},
				{
					"inputs": [],
					"name": "owner",
					"outputs": [
						{
							"internalType": "address",
							"name": "",
							"type": "address"
						}
					],
					"stateMutability": "view",
					"type": "function"
				}
			],
			"devdoc": {
				"kind": "dev",
				"methods": {},
				"version": 1
			},
			"evm": {
				"assembly": "    /* \"oil&gas.sol\":60:1667  contract OilAndGas{... */\n  mstore(0x40, 0x80)\n    /* \"oil&gas.sol\":541:581  constructor(){... */\n  callvalue\n  dup1\n  iszero\n  tag_1\n  jumpi\n  revert(0x00, 0x00)\ntag_1:\n  pop\n    /* \"oil&gas.sol\":567:577  msg.sender */\n  caller\n    /* \"oil&gas.sol\":561:566  owner */\n  0x00\n  0x00\n    /* \"oil&gas.sol\":561:577  owner=msg.sender */\n  0x0100\n  exp\n  dup2\n  sload\n  dup2\n  0xffffffffffffffffffffffffffffffffffffffff\n  mul\n  not\n  and\n  swap1\n  dup4\n  0xffffffffffffffffffffffffffffffffffffffff\n  and\n  mul\n  or\n  swap1\n  sstore\n  pop\n    /* \"oil&gas.sol\":60:1667  contract OilAndGas{... */\n  dataSize(sub_0)\n  dup1\n  dataOffset(sub_0)\n  0x00\n  codecopy\n  0x00\n  return\nstop\n\nsub_0: assembly {\n        /* \"oil&gas.sol\":60:1667  contract OilAndGas{... */\n      mstore(0x40, 0x80)\n      jumpi(tag_1, lt(calldatasize, 0x04))\n      shr(0xe0, calldataload(0x00))\n      dup1\n      0x821c477f\n      gt\n      tag_12\n      jumpi\n      dup1\n      0x821c477f\n      eq\n      tag_7\n      jumpi\n      dup1\n      0x8da5cb5b\n      eq\n      tag_8\n      jumpi\n      dup1\n      0x97a993aa\n      eq\n      tag_9\n      jumpi\n      dup1\n      0xa00ac7bf\n      eq\n      tag_10\n      jumpi\n      dup1\n      0xf6f85be9\n      eq\n      tag_11\n      jumpi\n      jump(tag_1)\n    tag_12:\n      dup1\n      0x03985522\n      eq\n      tag_2\n      jumpi\n      dup1\n      0x32f6b4a2\n      eq\n      tag_3\n      jumpi\n      dup1\n      0x43870e38\n      eq\n      tag_4\n      jumpi\n      dup1\n      0x560ff06e\n      eq\n      tag_5\n      jumpi\n      dup1\n      0x6a1a1ff9\n      eq\n      tag_6\n      jumpi\n    tag_1:\n      revert(0x00, 0x00)\n        /* \"oil&gas.sol\":935:1059  function ChangeProduction(string memory _name, uint256 _production)public{... */\n    tag_2:\n      callvalue\n      dup1\n      iszero\n      tag_13\n      jumpi\n      revert(0x00, 0x00)\n    tag_13:\n      pop\n      tag_14\n      0x04\n      dup1\n      calldatasize\n      sub\n      dup2\n      add\n      swap1\n      tag_15\n      swap2\n      swap1\n      tag_16\n      jump\t// in\n    tag_15:\n      tag_17\n      jump\t// in\n    tag_14:\n      stop\n        /* \"oil&gas.sol\":1061:1207  function CheckOil(string memory _name)public view returns(string memory, uint256){... */\n    tag_3:\n      callvalue\n      dup1\n      iszero\n      tag_18\n      jumpi\n      revert(0x00, 0x00)\n    tag_18:\n      pop\n      tag_19\n      0x04\n      dup1\n      calldatasize\n      sub\n      dup2\n      add\n      swap1\n      tag_20\n      swap2\n      swap1\n      tag_21\n      jump\t// in\n    tag_20:\n      tag_22\n      jump\t// in\n    tag_19:\n      mload(0x40)\n      tag_23\n      swap3\n      swap2\n      swap1\n      tag_24\n      jump\t// in\n    tag_23:\n      mload(0x40)\n      dup1\n      swap2\n      sub\n      swap1\n      return\n        /* \"oil&gas.sol\":326:367  mapping(string=> OilWell) public oilWells */\n    tag_4:\n      callvalue\n      dup1\n      iszero\n      tag_25\n      jumpi\n      revert(0x00, 0x00)\n    tag_25:\n      pop\n      tag_26\n      0x04\n      dup1\n      calldatasize\n      sub\n      dup2\n      add\n      swap1\n      tag_27\n      swap2\n      swap1\n      tag_21\n      jump\t// in\n    tag_27:\n      tag_28\n      jump\t// in\n    tag_26:\n      mload(0x40)\n      tag_29\n      swap4\n      swap3\n      swap2\n      swap1\n      tag_30\n      jump\t// in\n    tag_29:\n      mload(0x40)\n      dup1\n      swap2\n      sub\n      swap1\n      return\n        /* \"oil&gas.sol\":1328:1664  function BuyOil(address _address, string memory _name, uint256 _amount, uint256 pay) public payable{... */\n    tag_5:\n      tag_31\n      0x04\n      dup1\n      calldatasize\n      sub\n      dup2\n      add\n      swap1\n      tag_32\n      swap2\n      swap1\n      tag_33\n      jump\t// in\n    tag_32:\n      tag_34\n      jump\t// in\n    tag_31:\n      stop\n        /* \"oil&gas.sol\":1209:1326  function SetAmount(uint256 _amount, uint256 _price) public payable Onlyowner {... */\n    tag_6:\n      tag_35\n      0x04\n      dup1\n      calldatasize\n      sub\n      dup2\n      add\n      swap1\n      tag_36\n      swap2\n      swap1\n      tag_37\n      jump\t// in\n    tag_36:\n      tag_38\n      jump\t// in\n    tag_35:\n      stop\n        /* \"oil&gas.sol\":277:323  mapping(uint256=>uint256) public amountToPrice */\n    tag_7:\n      callvalue\n      dup1\n      iszero\n      tag_39\n      jumpi\n      revert(0x00, 0x00)\n    tag_39:\n      pop\n      tag_40\n      0x04\n      dup1\n      calldatasize\n      sub\n      dup2\n      add\n      swap1\n      tag_41\n      swap2\n      swap1\n      tag_42\n      jump\t// in\n    tag_41:\n      tag_43\n      jump\t// in\n    tag_40:\n      mload(0x40)\n      tag_44\n      swap2\n      swap1\n      tag_45\n      jump\t// in\n    tag_44:\n      mload(0x40)\n      dup1\n      swap2\n      sub\n      swap1\n      return\n        /* \"oil&gas.sol\":81:101  address public owner */\n    tag_8:\n      callvalue\n      dup1\n      iszero\n      tag_46\n      jumpi\n      revert(0x00, 0x00)\n    tag_46:\n      pop\n      tag_47\n      tag_48\n      jump\t// in\n    tag_47:\n      mload(0x40)\n      tag_49\n      swap2\n      swap1\n      tag_50\n      jump\t// in\n    tag_49:\n      mload(0x40)\n      dup1\n      swap2\n      sub\n      swap1\n      return\n        /* \"oil&gas.sol\":370:407  mapping(address=>Buyer) public buyers */\n    tag_9:\n      callvalue\n      dup1\n      iszero\n      tag_51\n      jumpi\n      revert(0x00, 0x00)\n    tag_51:\n      pop\n      tag_52\n      0x04\n      dup1\n      calldatasize\n      sub\n      dup2\n      add\n      swap1\n      tag_53\n      swap2\n      swap1\n      tag_54\n      jump\t// in\n    tag_53:\n      tag_55\n      jump\t// in\n    tag_52:\n      mload(0x40)\n      tag_56\n      swap4\n      swap3\n      swap2\n      swap1\n      tag_57\n      jump\t// in\n    tag_56:\n      mload(0x40)\n      dup1\n      swap2\n      sub\n      swap1\n      return\n        /* \"oil&gas.sol\":814:933  function ChangeOperator(string  memory _index, address _operator )public{... */\n    tag_10:\n      callvalue\n      dup1\n      iszero\n      tag_58\n      jumpi\n      revert(0x00, 0x00)\n    tag_58:\n      pop\n      tag_59\n      0x04\n      dup1\n      calldatasize\n      sub\n      dup2\n      add\n      swap1\n      tag_60\n      swap2\n      swap1\n      tag_61\n      jump\t// in\n    tag_60:\n      tag_62\n      jump\t// in\n    tag_59:\n      stop\n        /* \"oil&gas.sol\":672:812  function oilCreated(string memory _name) public{... */\n    tag_11:\n      callvalue\n      dup1\n      iszero\n      tag_63\n      jumpi\n      revert(0x00, 0x00)\n    tag_63:\n      pop\n      tag_64\n      0x04\n      dup1\n      calldatasize\n      sub\n      dup2\n      add\n      swap1\n      tag_65\n      swap2\n      swap1\n      tag_21\n      jump\t// in\n    tag_65:\n      tag_66\n      jump\t// in\n    tag_64:\n      stop\n        /* \"oil&gas.sol\":935:1059  function ChangeProduction(string memory _name, uint256 _production)public{... */\n    tag_17:\n        /* \"oil&gas.sol\":1044:1055  _production */\n      dup1\n        /* \"oil&gas.sol\":1015:1023  oilWells */\n      0x02\n        /* \"oil&gas.sol\":1024:1029  _name */\n      dup4\n        /* \"oil&gas.sol\":1015:1030  oilWells[_name] */\n      mload(0x40)\n      tag_68\n      swap2\n      swap1\n      tag_69\n      jump\t// in\n    tag_68:\n      swap1\n      dup2\n      mstore\n      0x20\n      add\n      mload(0x40)\n      dup1\n      swap2\n      sub\n      swap1\n      keccak256\n        /* \"oil&gas.sol\":1015:1041  oilWells[_name].production */\n      0x02\n      add\n        /* \"oil&gas.sol\":1015:1055  oilWells[_name].production = _production */\n      dup2\n      swap1\n      sstore\n      pop\n        /* \"oil&gas.sol\":935:1059  function ChangeProduction(string memory _name, uint256 _production)public{... */\n      pop\n      pop\n      jump\t// out\n        /* \"oil&gas.sol\":1061:1207  function CheckOil(string memory _name)public view returns(string memory, uint256){... */\n    tag_22:\n        /* \"oil&gas.sol\":1119:1132  string memory */\n      0x60\n        /* \"oil&gas.sol\":1134:1141  uint256 */\n      0x00\n        /* \"oil&gas.sol\":1153:1161  oilWells */\n      0x02\n        /* \"oil&gas.sol\":1162:1167  _name */\n      dup4\n        /* \"oil&gas.sol\":1153:1168  oilWells[_name] */\n      mload(0x40)\n      tag_71\n      swap2\n      swap1\n      tag_69\n      jump\t// in\n    tag_71:\n      swap1\n      dup2\n      mstore\n      0x20\n      add\n      mload(0x40)\n      dup1\n      swap2\n      sub\n      swap1\n      keccak256\n        /* \"oil&gas.sol\":1153:1173  oilWells[_name].name */\n      0x00\n      add\n        /* \"oil&gas.sol\":1175:1183  oilWells */\n      0x02\n        /* \"oil&gas.sol\":1184:1189  _name */\n      dup5\n        /* \"oil&gas.sol\":1175:1190  oilWells[_name] */\n      mload(0x40)\n      tag_72\n      swap2\n      swap1\n      tag_69\n      jump\t// in\n    tag_72:\n      swap1\n      dup2\n      mstore\n      0x20\n      add\n      mload(0x40)\n      dup1\n      swap2\n      sub\n      swap1\n      keccak256\n        /* \"oil&gas.sol\":1175:1201  oilWells[_name].production */\n      0x02\n      add\n      sload\n        /* \"oil&gas.sol\":1145:1202  return (oilWells[_name].name, oilWells[_name].production) */\n      dup2\n      dup1\n      sload\n      tag_73\n      swap1\n      tag_74\n      jump\t// in\n    tag_73:\n      dup1\n      0x1f\n      add\n      0x20\n      dup1\n      swap2\n      div\n      mul\n      0x20\n      add\n      mload(0x40)\n      swap1\n      dup2\n      add\n      0x40\n      mstore\n      dup1\n      swap3\n      swap2\n      swap1\n      dup2\n      dup2\n      mstore\n      0x20\n      add\n      dup3\n      dup1\n      sload\n      tag_75\n      swap1\n      tag_74\n      jump\t// in\n    tag_75:\n      dup1\n      iszero\n      tag_76\n      jumpi\n      dup1\n      0x1f\n      lt\n      tag_77\n      jumpi\n      0x0100\n      dup1\n      dup4\n      sload\n      div\n      mul\n      dup4\n      mstore\n      swap2\n      0x20\n      add\n      swap2\n      jump(tag_76)\n    tag_77:\n      dup3\n      add\n      swap2\n      swap1\n      0x00\n      mstore\n      keccak256(0x00, 0x20)\n      swap1\n    tag_78:\n      dup2\n      sload\n      dup2\n      mstore\n      swap1\n      0x01\n      add\n      swap1\n      0x20\n      add\n      dup1\n      dup4\n      gt\n      tag_78\n      jumpi\n      dup3\n      swap1\n      sub\n      0x1f\n      and\n      dup3\n      add\n      swap2\n    tag_76:\n      pop\n      pop\n      pop\n      pop\n      pop\n      swap2\n      pop\n      swap2\n      pop\n      swap2\n      pop\n        /* \"oil&gas.sol\":1061:1207  function CheckOil(string memory _name)public view returns(string memory, uint256){... */\n      swap2\n      pop\n      swap2\n      jump\t// out\n        /* \"oil&gas.sol\":326:367  mapping(string=> OilWell) public oilWells */\n    tag_28:\n      0x02\n      dup2\n      dup1\n      mload\n      0x20\n      dup2\n      add\n      dup3\n      add\n      dup1\n      mload\n      dup5\n      dup3\n      mstore\n      0x20\n      dup4\n      add\n      0x20\n      dup6\n      add\n      keccak256\n      dup2\n      dup4\n      mstore\n      dup1\n      swap6\n      pop\n      pop\n      pop\n      pop\n      pop\n      pop\n      0x00\n      swap2\n      pop\n      swap1\n      pop\n      dup1\n      0x00\n      add\n      dup1\n      sload\n      tag_79\n      swap1\n      tag_74\n      jump\t// in\n    tag_79:\n      dup1\n      0x1f\n      add\n      0x20\n      dup1\n      swap2\n      div\n      mul\n      0x20\n      add\n      mload(0x40)\n      swap1\n      dup2\n      add\n      0x40\n      mstore\n      dup1\n      swap3\n      swap2\n      swap1\n      dup2\n      dup2\n      mstore\n      0x20\n      add\n      dup3\n      dup1\n      sload\n      tag_80\n      swap1\n      tag_74\n      jump\t// in\n    tag_80:\n      dup1\n      iszero\n      tag_81\n      jumpi\n      dup1\n      0x1f\n      lt\n      tag_82\n      jumpi\n      0x0100\n      dup1\n      dup4\n      sload\n      div\n      mul\n      dup4\n      mstore\n      swap2\n      0x20\n      add\n      swap2\n      jump(tag_81)\n    tag_82:\n      dup3\n      add\n      swap2\n      swap1\n      0x00\n      mstore\n      keccak256(0x00, 0x20)\n      swap1\n    tag_83:\n      dup2\n      sload\n      dup2\n      mstore\n      swap1\n      0x01\n      add\n      swap1\n      0x20\n      add\n      dup1\n      dup4\n      gt\n      tag_83\n      jumpi\n      dup3\n      swap1\n      sub\n      0x1f\n      and\n      dup3\n      add\n      swap2\n    tag_81:\n      pop\n      pop\n      pop\n      pop\n      pop\n      swap1\n      dup1\n      0x01\n      add\n      0x00\n      swap1\n      sload\n      swap1\n      0x0100\n      exp\n      swap1\n      div\n      0xffffffffffffffffffffffffffffffffffffffff\n      and\n      swap1\n      dup1\n      0x02\n      add\n      sload\n      swap1\n      pop\n      dup4\n      jump\t// out\n        /* \"oil&gas.sol\":1328:1664  function BuyOil(address _address, string memory _name, uint256 _amount, uint256 pay) public payable{... */\n    tag_34:\n        /* \"oil&gas.sol\":1450:1451  0 */\n      0x00\n        /* \"oil&gas.sol\":1442:1449  _amount */\n      dup3\n        /* \"oil&gas.sol\":1442:1451  _amount>0 */\n      gt\n        /* \"oil&gas.sol\":1442:1460  _amount>0 && pay>0 */\n      dup1\n      iszero\n      tag_85\n      jumpi\n      pop\n        /* \"oil&gas.sol\":1459:1460  0 */\n      0x00\n        /* \"oil&gas.sol\":1455:1458  pay */\n      dup2\n        /* \"oil&gas.sol\":1455:1460  pay>0 */\n      gt\n        /* \"oil&gas.sol\":1442:1460  _amount>0 && pay>0 */\n    tag_85:\n        /* \"oil&gas.sol\":1434:1491  require(_amount>0 && pay>0, \"Amount and pay must be grw\") */\n      tag_86\n      jumpi\n      mload(0x40)\n      0x08c379a000000000000000000000000000000000000000000000000000000000\n      dup2\n      mstore\n      0x04\n      add\n      tag_87\n      swap1\n      tag_88\n      jump\t// in\n    tag_87:\n      mload(0x40)\n      dup1\n      swap2\n      sub\n      swap1\n      revert\n    tag_86:\n        /* \"oil&gas.sol\":1528:1535  _amount */\n      dup2\n        /* \"oil&gas.sol\":1498:1506  oilWells */\n      0x02\n        /* \"oil&gas.sol\":1507:1512  _name */\n      dup5\n        /* \"oil&gas.sol\":1498:1513  oilWells[_name] */\n      mload(0x40)\n      tag_89\n      swap2\n      swap1\n      tag_69\n      jump\t// in\n    tag_89:\n      swap1\n      dup2\n      mstore\n      0x20\n      add\n      mload(0x40)\n      dup1\n      swap2\n      sub\n      swap1\n      keccak256\n        /* \"oil&gas.sol\":1498:1524  oilWells[_name].production */\n      0x02\n      add\n      0x00\n        /* \"oil&gas.sol\":1498:1535  oilWells[_name].production -= _amount */\n      dup3\n      dup3\n      sload\n      tag_90\n      swap2\n      swap1\n      tag_91\n      jump\t// in\n    tag_90:\n      swap3\n      pop\n      pop\n      dup2\n      swap1\n      sstore\n      pop\n        /* \"oil&gas.sol\":1569:1576  _amount */\n      dup2\n        /* \"oil&gas.sol\":1542:1548  buyers */\n      0x03\n        /* \"oil&gas.sol\":1542:1558  buyers[_address] */\n      0x00\n        /* \"oil&gas.sol\":1549:1557  _address */\n      dup7\n        /* \"oil&gas.sol\":1542:1558  buyers[_address] */\n      0xffffffffffffffffffffffffffffffffffffffff\n      and\n      0xffffffffffffffffffffffffffffffffffffffff\n      and\n      dup2\n      mstore\n      0x20\n      add\n      swap1\n      dup2\n      mstore\n      0x20\n      add\n      0x00\n      keccak256\n        /* \"oil&gas.sol\":1542:1565  buyers[_address].amount */\n      0x02\n      add\n      0x00\n        /* \"oil&gas.sol\":1542:1576  buyers[_address].amount += _amount */\n      dup3\n      dup3\n      sload\n      tag_92\n      swap2\n      swap1\n      tag_93\n      jump\t// in\n    tag_92:\n      swap3\n      pop\n      pop\n      dup2\n      swap1\n      sstore\n      pop\n        /* \"oil&gas.sol\":1609:1614  _name */\n      dup3\n        /* \"oil&gas.sol\":1583:1589  buyers */\n      0x03\n        /* \"oil&gas.sol\":1583:1599  buyers[_address] */\n      0x00\n        /* \"oil&gas.sol\":1590:1598  _address */\n      dup7\n        /* \"oil&gas.sol\":1583:1599  buyers[_address] */\n      0xffffffffffffffffffffffffffffffffffffffff\n      and\n      0xffffffffffffffffffffffffffffffffffffffff\n      and\n      dup2\n      mstore\n      0x20\n      add\n      swap1\n      dup2\n      mstore\n      0x20\n      add\n      0x00\n      keccak256\n        /* \"oil&gas.sol\":1583:1607  buyers[_address].oilName */\n      0x01\n      add\n        /* \"oil&gas.sol\":1583:1614  buyers[_address].oilName= _name */\n      swap1\n      dup2\n      tag_94\n      swap2\n      swap1\n      tag_95\n      jump\t// in\n    tag_94:\n      pop\n        /* \"oil&gas.sol\":1652:1660  _address */\n      dup4\n        /* \"oil&gas.sol\":1621:1627  buyers */\n      0x03\n        /* \"oil&gas.sol\":1621:1637  buyers[_address] */\n      0x00\n        /* \"oil&gas.sol\":1628:1636  _address */\n      dup7\n        /* \"oil&gas.sol\":1621:1637  buyers[_address] */\n      0xffffffffffffffffffffffffffffffffffffffff\n      and\n      0xffffffffffffffffffffffffffffffffffffffff\n      and\n      dup2\n      mstore\n      0x20\n      add\n      swap1\n      dup2\n      mstore\n      0x20\n      add\n      0x00\n      keccak256\n        /* \"oil&gas.sol\":1621:1650  buyers[_address].buyerAddress */\n      0x00\n      add\n      0x00\n        /* \"oil&gas.sol\":1621:1660  buyers[_address].buyerAddress= _address */\n      0x0100\n      exp\n      dup2\n      sload\n      dup2\n      0xffffffffffffffffffffffffffffffffffffffff\n      mul\n      not\n      and\n      swap1\n      dup4\n      0xffffffffffffffffffffffffffffffffffffffff\n      and\n      mul\n      or\n      swap1\n      sstore\n      pop\n        /* \"oil&gas.sol\":1328:1664  function BuyOil(address _address, string memory _name, uint256 _amount, uint256 pay) public payable{... */\n      pop\n      pop\n      pop\n      pop\n      jump\t// out\n        /* \"oil&gas.sol\":1209:1326  function SetAmount(uint256 _amount, uint256 _price) public payable Onlyowner {... */\n    tag_38:\n        /* \"oil&gas.sol\":629:634  owner */\n      0x00\n      0x00\n      swap1\n      sload\n      swap1\n      0x0100\n      exp\n      swap1\n      div\n      0xffffffffffffffffffffffffffffffffffffffff\n      and\n        /* \"oil&gas.sol\":616:634  msg.sender== owner */\n      0xffffffffffffffffffffffffffffffffffffffff\n      and\n        /* \"oil&gas.sol\":616:626  msg.sender */\n      caller\n        /* \"oil&gas.sol\":616:634  msg.sender== owner */\n      0xffffffffffffffffffffffffffffffffffffffff\n      and\n      eq\n        /* \"oil&gas.sol\":608:658  require(msg.sender== owner, \"Only owner can call\") */\n      tag_97\n      jumpi\n      mload(0x40)\n      0x08c379a000000000000000000000000000000000000000000000000000000000\n      dup2\n      mstore\n      0x04\n      add\n      tag_98\n      swap1\n      tag_99\n      jump\t// in\n    tag_98:\n      mload(0x40)\n      dup1\n      swap2\n      sub\n      swap1\n      revert\n    tag_97:\n        /* \"oil&gas.sol\":1316:1322  _price */\n      dup1\n        /* \"oil&gas.sol\":1293:1306  amountToPrice */\n      0x01\n        /* \"oil&gas.sol\":1293:1315  amountToPrice[_amount] */\n      0x00\n        /* \"oil&gas.sol\":1307:1314  _amount */\n      dup5\n        /* \"oil&gas.sol\":1293:1315  amountToPrice[_amount] */\n      dup2\n      mstore\n      0x20\n      add\n      swap1\n      dup2\n      mstore\n      0x20\n      add\n      0x00\n      keccak256\n        /* \"oil&gas.sol\":1293:1322  amountToPrice[_amount]=_price */\n      dup2\n      swap1\n      sstore\n      pop\n        /* \"oil&gas.sol\":1209:1326  function SetAmount(uint256 _amount, uint256 _price) public payable Onlyowner {... */\n      pop\n      pop\n      jump\t// out\n        /* \"oil&gas.sol\":277:323  mapping(uint256=>uint256) public amountToPrice */\n    tag_43:\n      mstore(0x20, 0x01)\n      dup1\n      0x00\n      mstore\n      keccak256(0x00, 0x40)\n      0x00\n      swap2\n      pop\n      swap1\n      pop\n      sload\n      dup2\n      jump\t// out\n        /* \"oil&gas.sol\":81:101  address public owner */\n    tag_48:\n      0x00\n      0x00\n      swap1\n      sload\n      swap1\n      0x0100\n      exp\n      swap1\n      div\n      0xffffffffffffffffffffffffffffffffffffffff\n      and\n      dup2\n      jump\t// out\n        /* \"oil&gas.sol\":370:407  mapping(address=>Buyer) public buyers */\n    tag_55:\n      mstore(0x20, 0x03)\n      dup1\n      0x00\n      mstore\n      keccak256(0x00, 0x40)\n      0x00\n      swap2\n      pop\n      swap1\n      pop\n      dup1\n      0x00\n      add\n      0x00\n      swap1\n      sload\n      swap1\n      0x0100\n      exp\n      swap1\n      div\n      0xffffffffffffffffffffffffffffffffffffffff\n      and\n      swap1\n      dup1\n      0x01\n      add\n      dup1\n      sload\n      tag_101\n      swap1\n      tag_74\n      jump\t// in\n    tag_101:\n      dup1\n      0x1f\n      add\n      0x20\n      dup1\n      swap2\n      div\n      mul\n      0x20\n      add\n      mload(0x40)\n      swap1\n      dup2\n      add\n      0x40\n      mstore\n      dup1\n      swap3\n      swap2\n      swap1\n      dup2\n      dup2\n      mstore\n      0x20\n      add\n      dup3\n      dup1\n      sload\n      tag_102\n      swap1\n      tag_74\n      jump\t// in\n    tag_102:\n      dup1\n      iszero\n      tag_103\n      jumpi\n      dup1\n      0x1f\n      lt\n      tag_104\n      jumpi\n      0x0100\n      dup1\n      dup4\n      sload\n      div\n      mul\n      dup4\n      mstore\n      swap2\n      0x20\n      add\n      swap2\n      jump(tag_103)\n    tag_104:\n      dup3\n      add\n      swap2\n      swap1\n      0x00\n      mstore\n      keccak256(0x00, 0x20)\n      swap1\n    tag_105:\n      dup2\n      sload\n      dup2\n      mstore\n      swap1\n      0x01\n      add\n      swap1\n      0x20\n      add\n      dup1\n      dup4\n      gt\n      tag_105\n      jumpi\n      dup3\n      swap1\n      sub\n      0x1f\n      and\n      dup3\n      add\n      swap2\n    tag_103:\n      pop\n      pop\n      pop\n      pop\n      pop\n      swap1\n      dup1\n      0x02\n      add\n      sload\n      swap1\n      pop\n      dup4\n      jump\t// out\n        /* \"oil&gas.sol\":814:933  function ChangeOperator(string  memory _index, address _operator )public{... */\n    tag_62:\n        /* \"oil&gas.sol\":919:928  _operator */\n      dup1\n        /* \"oil&gas.sol\":893:901  oilWells */\n      0x02\n        /* \"oil&gas.sol\":902:908  _index */\n      dup4\n        /* \"oil&gas.sol\":893:909  oilWells[_index] */\n      mload(0x40)\n      tag_107\n      swap2\n      swap1\n      tag_69\n      jump\t// in\n    tag_107:\n      swap1\n      dup2\n      mstore\n      0x20\n      add\n      mload(0x40)\n      dup1\n      swap2\n      sub\n      swap1\n      keccak256\n        /* \"oil&gas.sol\":893:918  oilWells[_index].operator */\n      0x01\n      add\n      0x00\n        /* \"oil&gas.sol\":893:928  oilWells[_index].operator=_operator */\n      0x0100\n      exp\n      dup2\n      sload\n      dup2\n      0xffffffffffffffffffffffffffffffffffffffff\n      mul\n      not\n      and\n      swap1\n      dup4\n      0xffffffffffffffffffffffffffffffffffffffff\n      and\n      mul\n      or\n      swap1\n      sstore\n      pop\n        /* \"oil&gas.sol\":814:933  function ChangeOperator(string  memory _index, address _operator )public{... */\n      pop\n      pop\n      jump\t// out\n        /* \"oil&gas.sol\":672:812  function oilCreated(string memory _name) public{... */\n    tag_66:\n        /* \"oil&gas.sol\":740:769  OilWell(_name, msg.sender, 0) */\n      mload(0x40)\n      dup1\n      0x60\n      add\n      0x40\n      mstore\n      dup1\n        /* \"oil&gas.sol\":748:753  _name */\n      dup3\n        /* \"oil&gas.sol\":740:769  OilWell(_name, msg.sender, 0) */\n      dup2\n      mstore\n      0x20\n      add\n        /* \"oil&gas.sol\":755:765  msg.sender */\n      caller\n        /* \"oil&gas.sol\":740:769  OilWell(_name, msg.sender, 0) */\n      0xffffffffffffffffffffffffffffffffffffffff\n      and\n      dup2\n      mstore\n      0x20\n      add\n        /* \"oil&gas.sol\":767:768  0 */\n      0x00\n        /* \"oil&gas.sol\":740:769  OilWell(_name, msg.sender, 0) */\n      dup2\n      mstore\n      pop\n        /* \"oil&gas.sol\":723:731  oilWells */\n      0x02\n        /* \"oil&gas.sol\":732:737  _name */\n      dup3\n        /* \"oil&gas.sol\":723:738  oilWells[_name] */\n      mload(0x40)\n      tag_109\n      swap2\n      swap1\n      tag_69\n      jump\t// in\n    tag_109:\n      swap1\n      dup2\n      mstore\n      0x20\n      add\n      mload(0x40)\n      dup1\n      swap2\n      sub\n      swap1\n      keccak256\n        /* \"oil&gas.sol\":723:769  oilWells[_name]= OilWell(_name, msg.sender, 0) */\n      0x00\n      dup3\n      add\n      mload\n      dup2\n      0x00\n      add\n      swap1\n      dup2\n      tag_110\n      swap2\n      swap1\n      tag_95\n      jump\t// in\n    tag_110:\n      pop\n      0x20\n      dup3\n      add\n      mload\n      dup2\n      0x01\n      add\n      exp(0x0100, 0x00)\n      dup2\n      sload\n      dup2\n      0xffffffffffffffffffffffffffffffffffffffff\n      mul\n      not\n      and\n      swap1\n      dup4\n      0xffffffffffffffffffffffffffffffffffffffff\n      and\n      mul\n      or\n      swap1\n      sstore\n      pop\n      0x40\n      dup3\n      add\n      mload\n      dup2\n      0x02\n      add\n      sstore\n      swap1\n      pop\n      pop\n        /* \"oil&gas.sol\":797:807  msg.sender */\n      caller\n        /* \"oil&gas.sol\":777:808  OilWellAdded(_name, msg.sender) */\n      0xffffffffffffffffffffffffffffffffffffffff\n      and\n        /* \"oil&gas.sol\":790:795  _name */\n      dup2\n        /* \"oil&gas.sol\":777:808  OilWellAdded(_name, msg.sender) */\n      mload(0x40)\n      tag_111\n      swap2\n      swap1\n      tag_69\n      jump\t// in\n    tag_111:\n      mload(0x40)\n      dup1\n      swap2\n      sub\n      swap1\n      keccak256\n      0x5303d8f6a62614d593a982ffe01281d91a27f12026951b9567b58807fdebb5df\n      mload(0x40)\n      mload(0x40)\n      dup1\n      swap2\n      sub\n      swap1\n      log3\n        /* \"oil&gas.sol\":672:812  function oilCreated(string memory _name) public{... */\n      pop\n      jump\t// out\n        /* \"#utility.yul\":7:82   */\n    tag_112:\n        /* \"#utility.yul\":40:46   */\n      0x00\n        /* \"#utility.yul\":73:75   */\n      0x40\n        /* \"#utility.yul\":67:76   */\n      mload\n        /* \"#utility.yul\":57:76   */\n      swap1\n      pop\n        /* \"#utility.yul\":7:82   */\n      swap1\n      jump\t// out\n        /* \"#utility.yul\":88:205   */\n    tag_113:\n        /* \"#utility.yul\":197:198   */\n      0x00\n        /* \"#utility.yul\":194:195   */\n      0x00\n        /* \"#utility.yul\":187:199   */\n      revert\n        /* \"#utility.yul\":211:328   */\n    tag_114:\n        /* \"#utility.yul\":320:321   */\n      0x00\n        /* \"#utility.yul\":317:318   */\n      0x00\n        /* \"#utility.yul\":310:322   */\n      revert\n        /* \"#utility.yul\":334:451   */\n    tag_115:\n        /* \"#utility.yul\":443:444   */\n      0x00\n        /* \"#utility.yul\":440:441   */\n      0x00\n        /* \"#utility.yul\":433:445   */\n      revert\n        /* \"#utility.yul\":457:574   */\n    tag_116:\n        /* \"#utility.yul\":566:567   */\n      0x00\n        /* \"#utility.yul\":563:564   */\n      0x00\n        /* \"#utility.yul\":556:568   */\n      revert\n        /* \"#utility.yul\":580:682   */\n    tag_117:\n        /* \"#utility.yul\":621:627   */\n      0x00\n        /* \"#utility.yul\":672:674   */\n      0x1f\n        /* \"#utility.yul\":668:675   */\n      not\n        /* \"#utility.yul\":663:665   */\n      0x1f\n        /* \"#utility.yul\":656:661   */\n      dup4\n        /* \"#utility.yul\":652:666   */\n      add\n        /* \"#utility.yul\":648:676   */\n      and\n        /* \"#utility.yul\":638:676   */\n      swap1\n      pop\n        /* \"#utility.yul\":580:682   */\n      swap2\n      swap1\n      pop\n      jump\t// out\n        /* \"#utility.yul\":688:868   */\n    tag_118:\n        /* \"#utility.yul\":736:813   */\n      0x4e487b7100000000000000000000000000000000000000000000000000000000\n        /* \"#utility.yul\":733:734   */\n      0x00\n        /* \"#utility.yul\":726:814   */\n      mstore\n        /* \"#utility.yul\":833:837   */\n      0x41\n        /* \"#utility.yul\":830:831   */\n      0x04\n        /* \"#utility.yul\":823:838   */\n      mstore\n        /* \"#utility.yul\":857:861   */\n      0x24\n        /* \"#utility.yul\":854:855   */\n      0x00\n        /* \"#utility.yul\":847:862   */\n      revert\n        /* \"#utility.yul\":874:1155   */\n    tag_119:\n        /* \"#utility.yul\":957:984   */\n      tag_170\n        /* \"#utility.yul\":979:983   */\n      dup3\n        /* \"#utility.yul\":957:984   */\n      tag_117\n      jump\t// in\n    tag_170:\n        /* \"#utility.yul\":949:955   */\n      dup2\n        /* \"#utility.yul\":945:985   */\n      add\n        /* \"#utility.yul\":1087:1093   */\n      dup2\n        /* \"#utility.yul\":1075:1085   */\n      dup2\n        /* \"#utility.yul\":1072:1094   */\n      lt\n        /* \"#utility.yul\":1051:1069   */\n      0xffffffffffffffff\n        /* \"#utility.yul\":1039:1049   */\n      dup3\n        /* \"#utility.yul\":1036:1070   */\n      gt\n        /* \"#utility.yul\":1033:1095   */\n      or\n        /* \"#utility.yul\":1030:1118   */\n      iszero\n      tag_171\n      jumpi\n        /* \"#utility.yul\":1098:1116   */\n      tag_172\n      tag_118\n      jump\t// in\n    tag_172:\n        /* \"#utility.yul\":1030:1118   */\n    tag_171:\n        /* \"#utility.yul\":1138:1148   */\n      dup1\n        /* \"#utility.yul\":1134:1136   */\n      0x40\n        /* \"#utility.yul\":1127:1149   */\n      mstore\n        /* \"#utility.yul\":917:1155   */\n      pop\n        /* \"#utility.yul\":874:1155   */\n      pop\n      pop\n      jump\t// out\n        /* \"#utility.yul\":1161:1290   */\n    tag_120:\n        /* \"#utility.yul\":1195:1201   */\n      0x00\n        /* \"#utility.yul\":1222:1242   */\n      tag_174\n      tag_112\n      jump\t// in\n    tag_174:\n        /* \"#utility.yul\":1212:1242   */\n      swap1\n      pop\n        /* \"#utility.yul\":1251:1284   */\n      tag_175\n        /* \"#utility.yul\":1279:1283   */\n      dup3\n        /* \"#utility.yul\":1271:1277   */\n      dup3\n        /* \"#utility.yul\":1251:1284   */\n      tag_119\n      jump\t// in\n    tag_175:\n        /* \"#utility.yul\":1161:1290   */\n      swap2\n      swap1\n      pop\n      jump\t// out\n        /* \"#utility.yul\":1296:1604   */\n    tag_121:\n        /* \"#utility.yul\":1358:1362   */\n      0x00\n        /* \"#utility.yul\":1448:1466   */\n      0xffffffffffffffff\n        /* \"#utility.yul\":1440:1446   */\n      dup3\n        /* \"#utility.yul\":1437:1467   */\n      gt\n        /* \"#utility.yul\":1434:1490   */\n      iszero\n      tag_177\n      jumpi\n        /* \"#utility.yul\":1470:1488   */\n      tag_178\n      tag_118\n      jump\t// in\n    tag_178:\n        /* \"#utility.yul\":1434:1490   */\n    tag_177:\n        /* \"#utility.yul\":1508:1537   */\n      tag_179\n        /* \"#utility.yul\":1530:1536   */\n      dup3\n        /* \"#utility.yul\":1508:1537   */\n      tag_117\n      jump\t// in\n    tag_179:\n        /* \"#utility.yul\":1500:1537   */\n      swap1\n      pop\n        /* \"#utility.yul\":1592:1596   */\n      0x20\n        /* \"#utility.yul\":1586:1590   */\n      dup2\n        /* \"#utility.yul\":1582:1597   */\n      add\n        /* \"#utility.yul\":1574:1597   */\n      swap1\n      pop\n        /* \"#utility.yul\":1296:1604   */\n      swap2\n      swap1\n      pop\n      jump\t// out\n        /* \"#utility.yul\":1610:1758   */\n    tag_122:\n        /* \"#utility.yul\":1708:1714   */\n      dup3\n        /* \"#utility.yul\":1703:1706   */\n      dup2\n        /* \"#utility.yul\":1698:1701   */\n      dup4\n        /* \"#utility.yul\":1685:1715   */\n      calldatacopy\n        /* \"#utility.yul\":1749:1750   */\n      0x00\n        /* \"#utility.yul\":1740:1746   */\n      dup4\n        /* \"#utility.yul\":1735:1738   */\n      dup4\n        /* \"#utility.yul\":1731:1747   */\n      add\n        /* \"#utility.yul\":1724:1751   */\n      mstore\n        /* \"#utility.yul\":1610:1758   */\n      pop\n      pop\n      pop\n      jump\t// out\n        /* \"#utility.yul\":1764:2189   */\n    tag_123:\n        /* \"#utility.yul\":1842:1847   */\n      0x00\n        /* \"#utility.yul\":1867:1933   */\n      tag_182\n        /* \"#utility.yul\":1883:1932   */\n      tag_183\n        /* \"#utility.yul\":1925:1931   */\n      dup5\n        /* \"#utility.yul\":1883:1932   */\n      tag_121\n      jump\t// in\n    tag_183:\n        /* \"#utility.yul\":1867:1933   */\n      tag_120\n      jump\t// in\n    tag_182:\n        /* \"#utility.yul\":1858:1933   */\n      swap1\n      pop\n        /* \"#utility.yul\":1956:1962   */\n      dup3\n        /* \"#utility.yul\":1949:1954   */\n      dup2\n        /* \"#utility.yul\":1942:1963   */\n      mstore\n        /* \"#utility.yul\":1994:1998   */\n      0x20\n        /* \"#utility.yul\":1987:1992   */\n      dup2\n        /* \"#utility.yul\":1983:1999   */\n      add\n        /* \"#utility.yul\":2032:2035   */\n      dup5\n        /* \"#utility.yul\":2023:2029   */\n      dup5\n        /* \"#utility.yul\":2018:2021   */\n      dup5\n        /* \"#utility.yul\":2014:2030   */\n      add\n        /* \"#utility.yul\":2011:2036   */\n      gt\n        /* \"#utility.yul\":2008:2120   */\n      iszero\n      tag_184\n      jumpi\n        /* \"#utility.yul\":2039:2118   */\n      tag_185\n      tag_116\n      jump\t// in\n    tag_185:\n        /* \"#utility.yul\":2008:2120   */\n    tag_184:\n        /* \"#utility.yul\":2129:2183   */\n      tag_186\n        /* \"#utility.yul\":2176:2182   */\n      dup5\n        /* \"#utility.yul\":2171:2174   */\n      dup3\n        /* \"#utility.yul\":2166:2169   */\n      dup6\n        /* \"#utility.yul\":2129:2183   */\n      tag_122\n      jump\t// in\n    tag_186:\n        /* \"#utility.yul\":1848:2189   */\n      pop\n        /* \"#utility.yul\":1764:2189   */\n      swap4\n      swap3\n      pop\n      pop\n      pop\n      jump\t// out\n        /* \"#utility.yul\":2209:2549   */\n    tag_124:\n        /* \"#utility.yul\":2265:2270   */\n      0x00\n        /* \"#utility.yul\":2314:2317   */\n      dup3\n        /* \"#utility.yul\":2307:2311   */\n      0x1f\n        /* \"#utility.yul\":2299:2305   */\n      dup4\n        /* \"#utility.yul\":2295:2312   */\n      add\n        /* \"#utility.yul\":2291:2318   */\n      slt\n        /* \"#utility.yul\":2281:2403   */\n      tag_188\n      jumpi\n        /* \"#utility.yul\":2322:2401   */\n      tag_189\n      tag_115\n      jump\t// in\n    tag_189:\n        /* \"#utility.yul\":2281:2403   */\n    tag_188:\n        /* \"#utility.yul\":2439:2445   */\n      dup2\n        /* \"#utility.yul\":2426:2446   */\n      calldataload\n        /* \"#utility.yul\":2464:2543   */\n      tag_190\n        /* \"#utility.yul\":2539:2542   */\n      dup5\n        /* \"#utility.yul\":2531:2537   */\n      dup3\n        /* \"#utility.yul\":2524:2528   */\n      0x20\n        /* \"#utility.yul\":2516:2522   */\n      dup7\n        /* \"#utility.yul\":2512:2529   */\n      add\n        /* \"#utility.yul\":2464:2543   */\n      tag_123\n      jump\t// in\n    tag_190:\n        /* \"#utility.yul\":2455:2543   */\n      swap2\n      pop\n        /* \"#utility.yul\":2271:2549   */\n      pop\n        /* \"#utility.yul\":2209:2549   */\n      swap3\n      swap2\n      pop\n      pop\n      jump\t// out\n        /* \"#utility.yul\":2555:2632   */\n    tag_125:\n        /* \"#utility.yul\":2592:2599   */\n      0x00\n        /* \"#utility.yul\":2621:2626   */\n      dup2\n        /* \"#utility.yul\":2610:2626   */\n      swap1\n      pop\n        /* \"#utility.yul\":2555:2632   */\n      swap2\n      swap1\n      pop\n      jump\t// out\n        /* \"#utility.yul\":2638:2760   */\n    tag_126:\n        /* \"#utility.yul\":2711:2735   */\n      tag_193\n        /* \"#utility.yul\":2729:2734   */\n      dup2\n        /* \"#utility.yul\":2711:2735   */\n      tag_125\n      jump\t// in\n    tag_193:\n        /* \"#utility.yul\":2704:2709   */\n      dup2\n        /* \"#utility.yul\":2701:2736   */\n      eq\n        /* \"#utility.yul\":2691:2754   */\n      tag_194\n      jumpi\n        /* \"#utility.yul\":2750:2751   */\n      0x00\n        /* \"#utility.yul\":2747:2748   */\n      0x00\n        /* \"#utility.yul\":2740:2752   */\n      revert\n        /* \"#utility.yul\":2691:2754   */\n    tag_194:\n        /* \"#utility.yul\":2638:2760   */\n      pop\n      jump\t// out\n        /* \"#utility.yul\":2766:2905   */\n    tag_127:\n        /* \"#utility.yul\":2812:2817   */\n      0x00\n        /* \"#utility.yul\":2850:2856   */\n      dup2\n        /* \"#utility.yul\":2837:2857   */\n      calldataload\n        /* \"#utility.yul\":2828:2857   */\n      swap1\n      pop\n        /* \"#utility.yul\":2866:2899   */\n      tag_196\n        /* \"#utility.yul\":2893:2898   */\n      dup2\n        /* \"#utility.yul\":2866:2899   */\n      tag_126\n      jump\t// in\n    tag_196:\n        /* \"#utility.yul\":2766:2905   */\n      swap3\n      swap2\n      pop\n      pop\n      jump\t// out\n        /* \"#utility.yul\":2911:3565   */\n    tag_16:\n        /* \"#utility.yul\":2989:2995   */\n      0x00\n        /* \"#utility.yul\":2997:3003   */\n      0x00\n        /* \"#utility.yul\":3046:3048   */\n      0x40\n        /* \"#utility.yul\":3034:3043   */\n      dup4\n        /* \"#utility.yul\":3025:3032   */\n      dup6\n        /* \"#utility.yul\":3021:3044   */\n      sub\n        /* \"#utility.yul\":3017:3049   */\n      slt\n        /* \"#utility.yul\":3014:3133   */\n      iszero\n      tag_198\n      jumpi\n        /* \"#utility.yul\":3052:3131   */\n      tag_199\n      tag_113\n      jump\t// in\n    tag_199:\n        /* \"#utility.yul\":3014:3133   */\n    tag_198:\n        /* \"#utility.yul\":3200:3201   */\n      0x00\n        /* \"#utility.yul\":3189:3198   */\n      dup4\n        /* \"#utility.yul\":3185:3202   */\n      add\n        /* \"#utility.yul\":3172:3203   */\n      calldataload\n        /* \"#utility.yul\":3230:3248   */\n      0xffffffffffffffff\n        /* \"#utility.yul\":3222:3228   */\n      dup2\n        /* \"#utility.yul\":3219:3249   */\n      gt\n        /* \"#utility.yul\":3216:3333   */\n      iszero\n      tag_200\n      jumpi\n        /* \"#utility.yul\":3252:3331   */\n      tag_201\n      tag_114\n      jump\t// in\n    tag_201:\n        /* \"#utility.yul\":3216:3333   */\n    tag_200:\n        /* \"#utility.yul\":3357:3420   */\n      tag_202\n        /* \"#utility.yul\":3412:3419   */\n      dup6\n        /* \"#utility.yul\":3403:3409   */\n      dup3\n        /* \"#utility.yul\":3392:3401   */\n      dup7\n        /* \"#utility.yul\":3388:3410   */\n      add\n        /* \"#utility.yul\":3357:3420   */\n      tag_124\n      jump\t// in\n    tag_202:\n        /* \"#utility.yul\":3347:3420   */\n      swap3\n      pop\n        /* \"#utility.yul\":3143:3430   */\n      pop\n        /* \"#utility.yul\":3469:3471   */\n      0x20\n        /* \"#utility.yul\":3495:3548   */\n      tag_203\n        /* \"#utility.yul\":3540:3547   */\n      dup6\n        /* \"#utility.yul\":3531:3537   */\n      dup3\n        /* \"#utility.yul\":3520:3529   */\n      dup7\n        /* \"#utility.yul\":3516:3538   */\n      add\n        /* \"#utility.yul\":3495:3548   */\n      tag_127\n      jump\t// in\n    tag_203:\n        /* \"#utility.yul\":3485:3548   */\n      swap2\n      pop\n        /* \"#utility.yul\":3440:3558   */\n      pop\n        /* \"#utility.yul\":2911:3565   */\n      swap3\n      pop\n      swap3\n      swap1\n      pop\n      jump\t// out\n        /* \"#utility.yul\":3571:4080   */\n    tag_21:\n        /* \"#utility.yul\":3640:3646   */\n      0x00\n        /* \"#utility.yul\":3689:3691   */\n      0x20\n        /* \"#utility.yul\":3677:3686   */\n      dup3\n        /* \"#utility.yul\":3668:3675   */\n      dup5\n        /* \"#utility.yul\":3664:3687   */\n      sub\n        /* \"#utility.yul\":3660:3692   */\n      slt\n        /* \"#utility.yul\":3657:3776   */\n      iszero\n      tag_205\n      jumpi\n        /* \"#utility.yul\":3695:3774   */\n      tag_206\n      tag_113\n      jump\t// in\n    tag_206:\n        /* \"#utility.yul\":3657:3776   */\n    tag_205:\n        /* \"#utility.yul\":3843:3844   */\n      0x00\n        /* \"#utility.yul\":3832:3841   */\n      dup3\n        /* \"#utility.yul\":3828:3845   */\n      add\n        /* \"#utility.yul\":3815:3846   */\n      calldataload\n        /* \"#utility.yul\":3873:3891   */\n      0xffffffffffffffff\n        /* \"#utility.yul\":3865:3871   */\n      dup2\n        /* \"#utility.yul\":3862:3892   */\n      gt\n        /* \"#utility.yul\":3859:3976   */\n      iszero\n      tag_207\n      jumpi\n        /* \"#utility.yul\":3895:3974   */\n      tag_208\n      tag_114\n      jump\t// in\n    tag_208:\n        /* \"#utility.yul\":3859:3976   */\n    tag_207:\n        /* \"#utility.yul\":4000:4063   */\n      tag_209\n        /* \"#utility.yul\":4055:4062   */\n      dup5\n        /* \"#utility.yul\":4046:4052   */\n      dup3\n        /* \"#utility.yul\":4035:4044   */\n      dup6\n        /* \"#utility.yul\":4031:4053   */\n      add\n        /* \"#utility.yul\":4000:4063   */\n      tag_124\n      jump\t// in\n    tag_209:\n        /* \"#utility.yul\":3990:4063   */\n      swap2\n      pop\n        /* \"#utility.yul\":3786:4073   */\n      pop\n        /* \"#utility.yul\":3571:4080   */\n      swap3\n      swap2\n      pop\n      pop\n      jump\t// out\n        /* \"#utility.yul\":4086:4185   */\n    tag_128:\n        /* \"#utility.yul\":4138:4144   */\n      0x00\n        /* \"#utility.yul\":4172:4177   */\n      dup2\n        /* \"#utility.yul\":4166:4178   */\n      mload\n        /* \"#utility.yul\":4156:4178   */\n      swap1\n      pop\n        /* \"#utility.yul\":4086:4185   */\n      swap2\n      swap1\n      pop\n      jump\t// out\n        /* \"#utility.yul\":4191:4360   */\n    tag_129:\n        /* \"#utility.yul\":4275:4286   */\n      0x00\n        /* \"#utility.yul\":4309:4315   */\n      dup3\n        /* \"#utility.yul\":4304:4307   */\n      dup3\n        /* \"#utility.yul\":4297:4316   */\n      mstore\n        /* \"#utility.yul\":4349:4353   */\n      0x20\n        /* \"#utility.yul\":4344:4347   */\n      dup3\n        /* \"#utility.yul\":4340:4354   */\n      add\n        /* \"#utility.yul\":4325:4354   */\n      swap1\n      pop\n        /* \"#utility.yul\":4191:4360   */\n      swap3\n      swap2\n      pop\n      pop\n      jump\t// out\n        /* \"#utility.yul\":4366:4505   */\n    tag_130:\n        /* \"#utility.yul\":4455:4461   */\n      dup3\n        /* \"#utility.yul\":4450:4453   */\n      dup2\n        /* \"#utility.yul\":4445:4448   */\n      dup4\n        /* \"#utility.yul\":4439:4462   */\n      mcopy\n        /* \"#utility.yul\":4496:4497   */\n      0x00\n        /* \"#utility.yul\":4487:4493   */\n      dup4\n        /* \"#utility.yul\":4482:4485   */\n      dup4\n        /* \"#utility.yul\":4478:4494   */\n      add\n        /* \"#utility.yul\":4471:4498   */\n      mstore\n        /* \"#utility.yul\":4366:4505   */\n      pop\n      pop\n      pop\n      jump\t// out\n        /* \"#utility.yul\":4511:4888   */\n    tag_131:\n        /* \"#utility.yul\":4599:4602   */\n      0x00\n        /* \"#utility.yul\":4627:4666   */\n      tag_214\n        /* \"#utility.yul\":4660:4665   */\n      dup3\n        /* \"#utility.yul\":4627:4666   */\n      tag_128\n      jump\t// in\n    tag_214:\n        /* \"#utility.yul\":4682:4753   */\n      tag_215\n        /* \"#utility.yul\":4746:4752   */\n      dup2\n        /* \"#utility.yul\":4741:4744   */\n      dup6\n        /* \"#utility.yul\":4682:4753   */\n      tag_129\n      jump\t// in\n    tag_215:\n        /* \"#utility.yul\":4675:4753   */\n      swap4\n      pop\n        /* \"#utility.yul\":4762:4827   */\n      tag_216\n        /* \"#utility.yul\":4820:4826   */\n      dup2\n        /* \"#utility.yul\":4815:4818   */\n      dup6\n        /* \"#utility.yul\":4808:4812   */\n      0x20\n        /* \"#utility.yul\":4801:4806   */\n      dup7\n        /* \"#utility.yul\":4797:4813   */\n      add\n        /* \"#utility.yul\":4762:4827   */\n      tag_130\n      jump\t// in\n    tag_216:\n        /* \"#utility.yul\":4852:4881   */\n      tag_217\n        /* \"#utility.yul\":4874:4880   */\n      dup2\n        /* \"#utility.yul\":4852:4881   */\n      tag_117\n      jump\t// in\n    tag_217:\n        /* \"#utility.yul\":4847:4850   */\n      dup5\n        /* \"#utility.yul\":4843:4882   */\n      add\n        /* \"#utility.yul\":4836:4882   */\n      swap2\n      pop\n        /* \"#utility.yul\":4603:4888   */\n      pop\n        /* \"#utility.yul\":4511:4888   */\n      swap3\n      swap2\n      pop\n      pop\n      jump\t// out\n        /* \"#utility.yul\":4894:5012   */\n    tag_132:\n        /* \"#utility.yul\":4981:5005   */\n      tag_219\n        /* \"#utility.yul\":4999:5004   */\n      dup2\n        /* \"#utility.yul\":4981:5005   */\n      tag_125\n      jump\t// in\n    tag_219:\n        /* \"#utility.yul\":4976:4979   */\n      dup3\n        /* \"#utility.yul\":4969:5006   */\n      mstore\n        /* \"#utility.yul\":4894:5012   */\n      pop\n      pop\n      jump\t// out\n        /* \"#utility.yul\":5018:5441   */\n    tag_24:\n        /* \"#utility.yul\":5159:5163   */\n      0x00\n        /* \"#utility.yul\":5197:5199   */\n      0x40\n        /* \"#utility.yul\":5186:5195   */\n      dup3\n        /* \"#utility.yul\":5182:5200   */\n      add\n        /* \"#utility.yul\":5174:5200   */\n      swap1\n      pop\n        /* \"#utility.yul\":5246:5255   */\n      dup2\n        /* \"#utility.yul\":5240:5244   */\n      dup2\n        /* \"#utility.yul\":5236:5256   */\n      sub\n        /* \"#utility.yul\":5232:5233   */\n      0x00\n        /* \"#utility.yul\":5221:5230   */\n      dup4\n        /* \"#utility.yul\":5217:5234   */\n      add\n        /* \"#utility.yul\":5210:5257   */\n      mstore\n        /* \"#utility.yul\":5274:5352   */\n      tag_221\n        /* \"#utility.yul\":5347:5351   */\n      dup2\n        /* \"#utility.yul\":5338:5344   */\n      dup6\n        /* \"#utility.yul\":5274:5352   */\n      tag_131\n      jump\t// in\n    tag_221:\n        /* \"#utility.yul\":5266:5352   */\n      swap1\n      pop\n        /* \"#utility.yul\":5362:5434   */\n      tag_222\n        /* \"#utility.yul\":5430:5432   */\n      0x20\n        /* \"#utility.yul\":5419:5428   */\n      dup4\n        /* \"#utility.yul\":5415:5433   */\n      add\n        /* \"#utility.yul\":5406:5412   */\n      dup5\n        /* \"#utility.yul\":5362:5434   */\n      tag_132\n      jump\t// in\n    tag_222:\n        /* \"#utility.yul\":5018:5441   */\n      swap4\n      swap3\n      pop\n      pop\n      pop\n      jump\t// out\n        /* \"#utility.yul\":5447:5573   */\n    tag_133:\n        /* \"#utility.yul\":5484:5491   */\n      0x00\n        /* \"#utility.yul\":5524:5566   */\n      0xffffffffffffffffffffffffffffffffffffffff\n        /* \"#utility.yul\":5517:5522   */\n      dup3\n        /* \"#utility.yul\":5513:5567   */\n      and\n        /* \"#utility.yul\":5502:5567   */\n      swap1\n      pop\n        /* \"#utility.yul\":5447:5573   */\n      swap2\n      swap1\n      pop\n      jump\t// out\n        /* \"#utility.yul\":5579:5675   */\n    tag_134:\n        /* \"#utility.yul\":5616:5623   */\n      0x00\n        /* \"#utility.yul\":5645:5669   */\n      tag_225\n        /* \"#utility.yul\":5663:5668   */\n      dup3\n        /* \"#utility.yul\":5645:5669   */\n      tag_133\n      jump\t// in\n    tag_225:\n        /* \"#utility.yul\":5634:5669   */\n      swap1\n      pop\n        /* \"#utility.yul\":5579:5675   */\n      swap2\n      swap1\n      pop\n      jump\t// out\n        /* \"#utility.yul\":5681:5799   */\n    tag_135:\n        /* \"#utility.yul\":5768:5792   */\n      tag_227\n        /* \"#utility.yul\":5786:5791   */\n      dup2\n        /* \"#utility.yul\":5768:5792   */\n      tag_134\n      jump\t// in\n    tag_227:\n        /* \"#utility.yul\":5763:5766   */\n      dup3\n        /* \"#utility.yul\":5756:5793   */\n      mstore\n        /* \"#utility.yul\":5681:5799   */\n      pop\n      pop\n      jump\t// out\n        /* \"#utility.yul\":5805:6338   */\n    tag_30:\n        /* \"#utility.yul\":5974:5978   */\n      0x00\n        /* \"#utility.yul\":6012:6014   */\n      0x60\n        /* \"#utility.yul\":6001:6010   */\n      dup3\n        /* \"#utility.yul\":5997:6015   */\n      add\n        /* \"#utility.yul\":5989:6015   */\n      swap1\n      pop\n        /* \"#utility.yul\":6061:6070   */\n      dup2\n        /* \"#utility.yul\":6055:6059   */\n      dup2\n        /* \"#utility.yul\":6051:6071   */\n      sub\n        /* \"#utility.yul\":6047:6048   */\n      0x00\n        /* \"#utility.yul\":6036:6045   */\n      dup4\n        /* \"#utility.yul\":6032:6049   */\n      add\n        /* \"#utility.yul\":6025:6072   */\n      mstore\n        /* \"#utility.yul\":6089:6167   */\n      tag_229\n        /* \"#utility.yul\":6162:6166   */\n      dup2\n        /* \"#utility.yul\":6153:6159   */\n      dup7\n        /* \"#utility.yul\":6089:6167   */\n      tag_131\n      jump\t// in\n    tag_229:\n        /* \"#utility.yul\":6081:6167   */\n      swap1\n      pop\n        /* \"#utility.yul\":6177:6249   */\n      tag_230\n        /* \"#utility.yul\":6245:6247   */\n      0x20\n        /* \"#utility.yul\":6234:6243   */\n      dup4\n        /* \"#utility.yul\":6230:6248   */\n      add\n        /* \"#utility.yul\":6221:6227   */\n      dup6\n        /* \"#utility.yul\":6177:6249   */\n      tag_135\n      jump\t// in\n    tag_230:\n        /* \"#utility.yul\":6259:6331   */\n      tag_231\n        /* \"#utility.yul\":6327:6329   */\n      0x40\n        /* \"#utility.yul\":6316:6325   */\n      dup4\n        /* \"#utility.yul\":6312:6330   */\n      add\n        /* \"#utility.yul\":6303:6309   */\n      dup5\n        /* \"#utility.yul\":6259:6331   */\n      tag_132\n      jump\t// in\n    tag_231:\n        /* \"#utility.yul\":5805:6338   */\n      swap5\n      swap4\n      pop\n      pop\n      pop\n      pop\n      jump\t// out\n        /* \"#utility.yul\":6344:6466   */\n    tag_136:\n        /* \"#utility.yul\":6417:6441   */\n      tag_233\n        /* \"#utility.yul\":6435:6440   */\n      dup2\n        /* \"#utility.yul\":6417:6441   */\n      tag_134\n      jump\t// in\n    tag_233:\n        /* \"#utility.yul\":6410:6415   */\n      dup2\n        /* \"#utility.yul\":6407:6442   */\n      eq\n        /* \"#utility.yul\":6397:6460   */\n      tag_234\n      jumpi\n        /* \"#utility.yul\":6456:6457   */\n      0x00\n        /* \"#utility.yul\":6453:6454   */\n      0x00\n        /* \"#utility.yul\":6446:6458   */\n      revert\n        /* \"#utility.yul\":6397:6460   */\n    tag_234:\n        /* \"#utility.yul\":6344:6466   */\n      pop\n      jump\t// out\n        /* \"#utility.yul\":6472:6611   */\n    tag_137:\n        /* \"#utility.yul\":6518:6523   */\n      0x00\n        /* \"#utility.yul\":6556:6562   */\n      dup2\n        /* \"#utility.yul\":6543:6563   */\n      calldataload\n        /* \"#utility.yul\":6534:6563   */\n      swap1\n      pop\n        /* \"#utility.yul\":6572:6605   */\n      tag_236\n        /* \"#utility.yul\":6599:6604   */\n      dup2\n        /* \"#utility.yul\":6572:6605   */\n      tag_136\n      jump\t// in\n    tag_236:\n        /* \"#utility.yul\":6472:6611   */\n      swap3\n      swap2\n      pop\n      pop\n      jump\t// out\n        /* \"#utility.yul\":6617:7562   */\n    tag_33:\n        /* \"#utility.yul\":6713:6719   */\n      0x00\n        /* \"#utility.yul\":6721:6727   */\n      0x00\n        /* \"#utility.yul\":6729:6735   */\n      0x00\n        /* \"#utility.yul\":6737:6743   */\n      0x00\n        /* \"#utility.yul\":6786:6789   */\n      0x80\n        /* \"#utility.yul\":6774:6783   */\n      dup6\n        /* \"#utility.yul\":6765:6772   */\n      dup8\n        /* \"#utility.yul\":6761:6784   */\n      sub\n        /* \"#utility.yul\":6757:6790   */\n      slt\n        /* \"#utility.yul\":6754:6874   */\n      iszero\n      tag_238\n      jumpi\n        /* \"#utility.yul\":6793:6872   */\n      tag_239\n      tag_113\n      jump\t// in\n    tag_239:\n        /* \"#utility.yul\":6754:6874   */\n    tag_238:\n        /* \"#utility.yul\":6913:6914   */\n      0x00\n        /* \"#utility.yul\":6938:6991   */\n      tag_240\n        /* \"#utility.yul\":6983:6990   */\n      dup8\n        /* \"#utility.yul\":6974:6980   */\n      dup3\n        /* \"#utility.yul\":6963:6972   */\n      dup9\n        /* \"#utility.yul\":6959:6981   */\n      add\n        /* \"#utility.yul\":6938:6991   */\n      tag_137\n      jump\t// in\n    tag_240:\n        /* \"#utility.yul\":6928:6991   */\n      swap5\n      pop\n        /* \"#utility.yul\":6884:7001   */\n      pop\n        /* \"#utility.yul\":7068:7070   */\n      0x20\n        /* \"#utility.yul\":7057:7066   */\n      dup6\n        /* \"#utility.yul\":7053:7071   */\n      add\n        /* \"#utility.yul\":7040:7072   */\n      calldataload\n        /* \"#utility.yul\":7099:7117   */\n      0xffffffffffffffff\n        /* \"#utility.yul\":7091:7097   */\n      dup2\n        /* \"#utility.yul\":7088:7118   */\n      gt\n        /* \"#utility.yul\":7085:7202   */\n      iszero\n      tag_241\n      jumpi\n        /* \"#utility.yul\":7121:7200   */\n      tag_242\n      tag_114\n      jump\t// in\n    tag_242:\n        /* \"#utility.yul\":7085:7202   */\n    tag_241:\n        /* \"#utility.yul\":7226:7289   */\n      tag_243\n        /* \"#utility.yul\":7281:7288   */\n      dup8\n        /* \"#utility.yul\":7272:7278   */\n      dup3\n        /* \"#utility.yul\":7261:7270   */\n      dup9\n        /* \"#utility.yul\":7257:7279   */\n      add\n        /* \"#utility.yul\":7226:7289   */\n      tag_124\n      jump\t// in\n    tag_243:\n        /* \"#utility.yul\":7216:7289   */\n      swap4\n      pop\n        /* \"#utility.yul\":7011:7299   */\n      pop\n        /* \"#utility.yul\":7338:7340   */\n      0x40\n        /* \"#utility.yul\":7364:7417   */\n      tag_244\n        /* \"#utility.yul\":7409:7416   */\n      dup8\n        /* \"#utility.yul\":7400:7406   */\n      dup3\n        /* \"#utility.yul\":7389:7398   */\n      dup9\n        /* \"#utility.yul\":7385:7407   */\n      add\n        /* \"#utility.yul\":7364:7417   */\n      tag_127\n      jump\t// in\n    tag_244:\n        /* \"#utility.yul\":7354:7417   */\n      swap3\n      pop\n        /* \"#utility.yul\":7309:7427   */\n      pop\n        /* \"#utility.yul\":7466:7468   */\n      0x60\n        /* \"#utility.yul\":7492:7545   */\n      tag_245\n        /* \"#utility.yul\":7537:7544   */\n      dup8\n        /* \"#utility.yul\":7528:7534   */\n      dup3\n        /* \"#utility.yul\":7517:7526   */\n      dup9\n        /* \"#utility.yul\":7513:7535   */\n      add\n        /* \"#utility.yul\":7492:7545   */\n      tag_127\n      jump\t// in\n    tag_245:\n        /* \"#utility.yul\":7482:7545   */\n      swap2\n      pop\n        /* \"#utility.yul\":7437:7555   */\n      pop\n        /* \"#utility.yul\":6617:7562   */\n      swap3\n      swap6\n      swap2\n      swap5\n      pop\n      swap3\n      pop\n      jump\t// out\n        /* \"#utility.yul\":7568:8042   */\n    tag_37:\n        /* \"#utility.yul\":7636:7642   */\n      0x00\n        /* \"#utility.yul\":7644:7650   */\n      0x00\n        /* \"#utility.yul\":7693:7695   */\n      0x40\n        /* \"#utility.yul\":7681:7690   */\n      dup4\n        /* \"#utility.yul\":7672:7679   */\n      dup6\n        /* \"#utility.yul\":7668:7691   */\n      sub\n        /* \"#utility.yul\":7664:7696   */\n      slt\n        /* \"#utility.yul\":7661:7780   */\n      iszero\n      tag_247\n      jumpi\n        /* \"#utility.yul\":7699:7778   */\n      tag_248\n      tag_113\n      jump\t// in\n    tag_248:\n        /* \"#utility.yul\":7661:7780   */\n    tag_247:\n        /* \"#utility.yul\":7819:7820   */\n      0x00\n        /* \"#utility.yul\":7844:7897   */\n      tag_249\n        /* \"#utility.yul\":7889:7896   */\n      dup6\n        /* \"#utility.yul\":7880:7886   */\n      dup3\n        /* \"#utility.yul\":7869:7878   */\n      dup7\n        /* \"#utility.yul\":7865:7887   */\n      add\n        /* \"#utility.yul\":7844:7897   */\n      tag_127\n      jump\t// in\n    tag_249:\n        /* \"#utility.yul\":7834:7897   */\n      swap3\n      pop\n        /* \"#utility.yul\":7790:7907   */\n      pop\n        /* \"#utility.yul\":7946:7948   */\n      0x20\n        /* \"#utility.yul\":7972:8025   */\n      tag_250\n        /* \"#utility.yul\":8017:8024   */\n      dup6\n        /* \"#utility.yul\":8008:8014   */\n      dup3\n        /* \"#utility.yul\":7997:8006   */\n      dup7\n        /* \"#utility.yul\":7993:8015   */\n      add\n        /* \"#utility.yul\":7972:8025   */\n      tag_127\n      jump\t// in\n    tag_250:\n        /* \"#utility.yul\":7962:8025   */\n      swap2\n      pop\n        /* \"#utility.yul\":7917:8035   */\n      pop\n        /* \"#utility.yul\":7568:8042   */\n      swap3\n      pop\n      swap3\n      swap1\n      pop\n      jump\t// out\n        /* \"#utility.yul\":8048:8377   */\n    tag_42:\n        /* \"#utility.yul\":8107:8113   */\n      0x00\n        /* \"#utility.yul\":8156:8158   */\n      0x20\n        /* \"#utility.yul\":8144:8153   */\n      dup3\n        /* \"#utility.yul\":8135:8142   */\n      dup5\n        /* \"#utility.yul\":8131:8154   */\n      sub\n        /* \"#utility.yul\":8127:8159   */\n      slt\n        /* \"#utility.yul\":8124:8243   */\n      iszero\n      tag_252\n      jumpi\n        /* \"#utility.yul\":8162:8241   */\n      tag_253\n      tag_113\n      jump\t// in\n    tag_253:\n        /* \"#utility.yul\":8124:8243   */\n    tag_252:\n        /* \"#utility.yul\":8282:8283   */\n      0x00\n        /* \"#utility.yul\":8307:8360   */\n      tag_254\n        /* \"#utility.yul\":8352:8359   */\n      dup5\n        /* \"#utility.yul\":8343:8349   */\n      dup3\n        /* \"#utility.yul\":8332:8341   */\n      dup6\n        /* \"#utility.yul\":8328:8350   */\n      add\n        /* \"#utility.yul\":8307:8360   */\n      tag_127\n      jump\t// in\n    tag_254:\n        /* \"#utility.yul\":8297:8360   */\n      swap2\n      pop\n        /* \"#utility.yul\":8253:8370   */\n      pop\n        /* \"#utility.yul\":8048:8377   */\n      swap3\n      swap2\n      pop\n      pop\n      jump\t// out\n        /* \"#utility.yul\":8383:8605   */\n    tag_45:\n        /* \"#utility.yul\":8476:8480   */\n      0x00\n        /* \"#utility.yul\":8514:8516   */\n      0x20\n        /* \"#utility.yul\":8503:8512   */\n      dup3\n        /* \"#utility.yul\":8499:8517   */\n      add\n        /* \"#utility.yul\":8491:8517   */\n      swap1\n      pop\n        /* \"#utility.yul\":8527:8598   */\n      tag_256\n        /* \"#utility.yul\":8595:8596   */\n      0x00\n        /* \"#utility.yul\":8584:8593   */\n      dup4\n        /* \"#utility.yul\":8580:8597   */\n      add\n        /* \"#utility.yul\":8571:8577   */\n      dup5\n        /* \"#utility.yul\":8527:8598   */\n      tag_132\n      jump\t// in\n    tag_256:\n        /* \"#utility.yul\":8383:8605   */\n      swap3\n      swap2\n      pop\n      pop\n      jump\t// out\n        /* \"#utility.yul\":8611:8833   */\n    tag_50:\n        /* \"#utility.yul\":8704:8708   */\n      0x00\n        /* \"#utility.yul\":8742:8744   */\n      0x20\n        /* \"#utility.yul\":8731:8740   */\n      dup3\n        /* \"#utility.yul\":8727:8745   */\n      add\n        /* \"#utility.yul\":8719:8745   */\n      swap1\n      pop\n        /* \"#utility.yul\":8755:8826   */\n      tag_258\n        /* \"#utility.yul\":8823:8824   */\n      0x00\n        /* \"#utility.yul\":8812:8821   */\n      dup4\n        /* \"#utility.yul\":8808:8825   */\n      add\n        /* \"#utility.yul\":8799:8805   */\n      dup5\n        /* \"#utility.yul\":8755:8826   */\n      tag_135\n      jump\t// in\n    tag_258:\n        /* \"#utility.yul\":8611:8833   */\n      swap3\n      swap2\n      pop\n      pop\n      jump\t// out\n        /* \"#utility.yul\":8839:9168   */\n    tag_54:\n        /* \"#utility.yul\":8898:8904   */\n      0x00\n        /* \"#utility.yul\":8947:8949   */\n      0x20\n        /* \"#utility.yul\":8935:8944   */\n      dup3\n        /* \"#utility.yul\":8926:8933   */\n      dup5\n        /* \"#utility.yul\":8922:8945   */\n      sub\n        /* \"#utility.yul\":8918:8950   */\n      slt\n        /* \"#utility.yul\":8915:9034   */\n      iszero\n      tag_260\n      jumpi\n        /* \"#utility.yul\":8953:9032   */\n      tag_261\n      tag_113\n      jump\t// in\n    tag_261:\n        /* \"#utility.yul\":8915:9034   */\n    tag_260:\n        /* \"#utility.yul\":9073:9074   */\n      0x00\n        /* \"#utility.yul\":9098:9151   */\n      tag_262\n        /* \"#utility.yul\":9143:9150   */\n      dup5\n        /* \"#utility.yul\":9134:9140   */\n      dup3\n        /* \"#utility.yul\":9123:9132   */\n      dup6\n        /* \"#utility.yul\":9119:9141   */\n      add\n        /* \"#utility.yul\":9098:9151   */\n      tag_137\n      jump\t// in\n    tag_262:\n        /* \"#utility.yul\":9088:9151   */\n      swap2\n      pop\n        /* \"#utility.yul\":9044:9161   */\n      pop\n        /* \"#utility.yul\":8839:9168   */\n      swap3\n      swap2\n      pop\n      pop\n      jump\t// out\n        /* \"#utility.yul\":9174:9707   */\n    tag_57:\n        /* \"#utility.yul\":9343:9347   */\n      0x00\n        /* \"#utility.yul\":9381:9383   */\n      0x60\n        /* \"#utility.yul\":9370:9379   */\n      dup3\n        /* \"#utility.yul\":9366:9384   */\n      add\n        /* \"#utility.yul\":9358:9384   */\n      swap1\n      pop\n        /* \"#utility.yul\":9394:9465   */\n      tag_264\n        /* \"#utility.yul\":9462:9463   */\n      0x00\n        /* \"#utility.yul\":9451:9460   */\n      dup4\n        /* \"#utility.yul\":9447:9464   */\n      add\n        /* \"#utility.yul\":9438:9444   */\n      dup7\n        /* \"#utility.yul\":9394:9465   */\n      tag_135\n      jump\t// in\n    tag_264:\n        /* \"#utility.yul\":9512:9521   */\n      dup2\n        /* \"#utility.yul\":9506:9510   */\n      dup2\n        /* \"#utility.yul\":9502:9522   */\n      sub\n        /* \"#utility.yul\":9497:9499   */\n      0x20\n        /* \"#utility.yul\":9486:9495   */\n      dup4\n        /* \"#utility.yul\":9482:9500   */\n      add\n        /* \"#utility.yul\":9475:9523   */\n      mstore\n        /* \"#utility.yul\":9540:9618   */\n      tag_265\n        /* \"#utility.yul\":9613:9617   */\n      dup2\n        /* \"#utility.yul\":9604:9610   */\n      dup6\n        /* \"#utility.yul\":9540:9618   */\n      tag_131\n      jump\t// in\n    tag_265:\n        /* \"#utility.yul\":9532:9618   */\n      swap1\n      pop\n        /* \"#utility.yul\":9628:9700   */\n      tag_266\n        /* \"#utility.yul\":9696:9698   */\n      0x40\n        /* \"#utility.yul\":9685:9694   */\n      dup4\n        /* \"#utility.yul\":9681:9699   */\n      add\n        /* \"#utility.yul\":9672:9678   */\n      dup5\n        /* \"#utility.yul\":9628:9700   */\n      tag_132\n      jump\t// in\n    tag_266:\n        /* \"#utility.yul\":9174:9707   */\n      swap5\n      swap4\n      pop\n      pop\n      pop\n      pop\n      jump\t// out\n        /* \"#utility.yul\":9713:10367   */\n    tag_61:\n        /* \"#utility.yul\":9791:9797   */\n      0x00\n        /* \"#utility.yul\":9799:9805   */\n      0x00\n        /* \"#utility.yul\":9848:9850   */\n      0x40\n        /* \"#utility.yul\":9836:9845   */\n      dup4\n        /* \"#utility.yul\":9827:9834   */\n      dup6\n        /* \"#utility.yul\":9823:9846   */\n      sub\n        /* \"#utility.yul\":9819:9851   */\n      slt\n        /* \"#utility.yul\":9816:9935   */\n      iszero\n      tag_268\n      jumpi\n        /* \"#utility.yul\":9854:9933   */\n      tag_269\n      tag_113\n      jump\t// in\n    tag_269:\n        /* \"#utility.yul\":9816:9935   */\n    tag_268:\n        /* \"#utility.yul\":10002:10003   */\n      0x00\n        /* \"#utility.yul\":9991:10000   */\n      dup4\n        /* \"#utility.yul\":9987:10004   */\n      add\n        /* \"#utility.yul\":9974:10005   */\n      calldataload\n        /* \"#utility.yul\":10032:10050   */\n      0xffffffffffffffff\n        /* \"#utility.yul\":10024:10030   */\n      dup2\n        /* \"#utility.yul\":10021:10051   */\n      gt\n        /* \"#utility.yul\":10018:10135   */\n      iszero\n      tag_270\n      jumpi\n        /* \"#utility.yul\":10054:10133   */\n      tag_271\n      tag_114\n      jump\t// in\n    tag_271:\n        /* \"#utility.yul\":10018:10135   */\n    tag_270:\n        /* \"#utility.yul\":10159:10222   */\n      tag_272\n        /* \"#utility.yul\":10214:10221   */\n      dup6\n        /* \"#utility.yul\":10205:10211   */\n      dup3\n        /* \"#utility.yul\":10194:10203   */\n      dup7\n        /* \"#utility.yul\":10190:10212   */\n      add\n        /* \"#utility.yul\":10159:10222   */\n      tag_124\n      jump\t// in\n    tag_272:\n        /* \"#utility.yul\":10149:10222   */\n      swap3\n      pop\n        /* \"#utility.yul\":9945:10232   */\n      pop\n        /* \"#utility.yul\":10271:10273   */\n      0x20\n        /* \"#utility.yul\":10297:10350   */\n      tag_273\n        /* \"#utility.yul\":10342:10349   */\n      dup6\n        /* \"#utility.yul\":10333:10339   */\n      dup3\n        /* \"#utility.yul\":10322:10331   */\n      dup7\n        /* \"#utility.yul\":10318:10340   */\n      add\n        /* \"#utility.yul\":10297:10350   */\n      tag_137\n      jump\t// in\n    tag_273:\n        /* \"#utility.yul\":10287:10350   */\n      swap2\n      pop\n        /* \"#utility.yul\":10242:10360   */\n      pop\n        /* \"#utility.yul\":9713:10367   */\n      swap3\n      pop\n      swap3\n      swap1\n      pop\n      jump\t// out\n        /* \"#utility.yul\":10373:10521   */\n    tag_138:\n        /* \"#utility.yul\":10475:10486   */\n      0x00\n        /* \"#utility.yul\":10512:10515   */\n      dup2\n        /* \"#utility.yul\":10497:10515   */\n      swap1\n      pop\n        /* \"#utility.yul\":10373:10521   */\n      swap3\n      swap2\n      pop\n      pop\n      jump\t// out\n        /* \"#utility.yul\":10527:10917   */\n    tag_139:\n        /* \"#utility.yul\":10633:10636   */\n      0x00\n        /* \"#utility.yul\":10661:10700   */\n      tag_276\n        /* \"#utility.yul\":10694:10699   */\n      dup3\n        /* \"#utility.yul\":10661:10700   */\n      tag_128\n      jump\t// in\n    tag_276:\n        /* \"#utility.yul\":10716:10805   */\n      tag_277\n        /* \"#utility.yul\":10798:10804   */\n      dup2\n        /* \"#utility.yul\":10793:10796   */\n      dup6\n        /* \"#utility.yul\":10716:10805   */\n      tag_138\n      jump\t// in\n    tag_277:\n        /* \"#utility.yul\":10709:10805   */\n      swap4\n      pop\n        /* \"#utility.yul\":10814:10879   */\n      tag_278\n        /* \"#utility.yul\":10872:10878   */\n      dup2\n        /* \"#utility.yul\":10867:10870   */\n      dup6\n        /* \"#utility.yul\":10860:10864   */\n      0x20\n        /* \"#utility.yul\":10853:10858   */\n      dup7\n        /* \"#utility.yul\":10849:10865   */\n      add\n        /* \"#utility.yul\":10814:10879   */\n      tag_130\n      jump\t// in\n    tag_278:\n        /* \"#utility.yul\":10904:10910   */\n      dup1\n        /* \"#utility.yul\":10899:10902   */\n      dup5\n        /* \"#utility.yul\":10895:10911   */\n      add\n        /* \"#utility.yul\":10888:10911   */\n      swap2\n      pop\n        /* \"#utility.yul\":10637:10917   */\n      pop\n        /* \"#utility.yul\":10527:10917   */\n      swap3\n      swap2\n      pop\n      pop\n      jump\t// out\n        /* \"#utility.yul\":10923:11198   */\n    tag_69:\n        /* \"#utility.yul\":11055:11058   */\n      0x00\n        /* \"#utility.yul\":11077:11172   */\n      tag_280\n        /* \"#utility.yul\":11168:11171   */\n      dup3\n        /* \"#utility.yul\":11159:11165   */\n      dup5\n        /* \"#utility.yul\":11077:11172   */\n      tag_139\n      jump\t// in\n    tag_280:\n        /* \"#utility.yul\":11070:11172   */\n      swap2\n      pop\n        /* \"#utility.yul\":11189:11192   */\n      dup2\n        /* \"#utility.yul\":11182:11192   */\n      swap1\n      pop\n        /* \"#utility.yul\":10923:11198   */\n      swap3\n      swap2\n      pop\n      pop\n      jump\t// out\n        /* \"#utility.yul\":11204:11384   */\n    tag_140:\n        /* \"#utility.yul\":11252:11329   */\n      0x4e487b7100000000000000000000000000000000000000000000000000000000\n        /* \"#utility.yul\":11249:11250   */\n      0x00\n        /* \"#utility.yul\":11242:11330   */\n      mstore\n        /* \"#utility.yul\":11349:11353   */\n      0x22\n        /* \"#utility.yul\":11346:11347   */\n      0x04\n        /* \"#utility.yul\":11339:11354   */\n      mstore\n        /* \"#utility.yul\":11373:11377   */\n      0x24\n        /* \"#utility.yul\":11370:11371   */\n      0x00\n        /* \"#utility.yul\":11363:11378   */\n      revert\n        /* \"#utility.yul\":11390:11710   */\n    tag_74:\n        /* \"#utility.yul\":11434:11440   */\n      0x00\n        /* \"#utility.yul\":11471:11472   */\n      0x02\n        /* \"#utility.yul\":11465:11469   */\n      dup3\n        /* \"#utility.yul\":11461:11473   */\n      div\n        /* \"#utility.yul\":11451:11473   */\n      swap1\n      pop\n        /* \"#utility.yul\":11518:11519   */\n      0x01\n        /* \"#utility.yul\":11512:11516   */\n      dup3\n        /* \"#utility.yul\":11508:11520   */\n      and\n        /* \"#utility.yul\":11539:11557   */\n      dup1\n        /* \"#utility.yul\":11529:11610   */\n      tag_283\n      jumpi\n        /* \"#utility.yul\":11595:11599   */\n      0x7f\n        /* \"#utility.yul\":11587:11593   */\n      dup3\n        /* \"#utility.yul\":11583:11600   */\n      and\n        /* \"#utility.yul\":11573:11600   */\n      swap2\n      pop\n        /* \"#utility.yul\":11529:11610   */\n    tag_283:\n        /* \"#utility.yul\":11657:11659   */\n      0x20\n        /* \"#utility.yul\":11649:11655   */\n      dup3\n        /* \"#utility.yul\":11646:11660   */\n      lt\n        /* \"#utility.yul\":11626:11644   */\n      dup2\n        /* \"#utility.yul\":11623:11661   */\n      sub\n        /* \"#utility.yul\":11620:11704   */\n      tag_284\n      jumpi\n        /* \"#utility.yul\":11676:11694   */\n      tag_285\n      tag_140\n      jump\t// in\n    tag_285:\n        /* \"#utility.yul\":11620:11704   */\n    tag_284:\n        /* \"#utility.yul\":11441:11710   */\n      pop\n        /* \"#utility.yul\":11390:11710   */\n      swap2\n      swap1\n      pop\n      jump\t// out\n        /* \"#utility.yul\":11716:11892   */\n    tag_141:\n        /* \"#utility.yul\":11856:11884   */\n      0x416d6f756e7420616e6420706179206d75737420626520677277000000000000\n        /* \"#utility.yul\":11852:11853   */\n      0x00\n        /* \"#utility.yul\":11844:11850   */\n      dup3\n        /* \"#utility.yul\":11840:11854   */\n      add\n        /* \"#utility.yul\":11833:11885   */\n      mstore\n        /* \"#utility.yul\":11716:11892   */\n      pop\n      jump\t// out\n        /* \"#utility.yul\":11898:12264   */\n    tag_142:\n        /* \"#utility.yul\":12040:12043   */\n      0x00\n        /* \"#utility.yul\":12061:12128   */\n      tag_288\n        /* \"#utility.yul\":12125:12127   */\n      0x1a\n        /* \"#utility.yul\":12120:12123   */\n      dup4\n        /* \"#utility.yul\":12061:12128   */\n      tag_129\n      jump\t// in\n    tag_288:\n        /* \"#utility.yul\":12054:12128   */\n      swap2\n      pop\n        /* \"#utility.yul\":12137:12230   */\n      tag_289\n        /* \"#utility.yul\":12226:12229   */\n      dup3\n        /* \"#utility.yul\":12137:12230   */\n      tag_141\n      jump\t// in\n    tag_289:\n        /* \"#utility.yul\":12255:12257   */\n      0x20\n        /* \"#utility.yul\":12250:12253   */\n      dup3\n        /* \"#utility.yul\":12246:12258   */\n      add\n        /* \"#utility.yul\":12239:12258   */\n      swap1\n      pop\n        /* \"#utility.yul\":11898:12264   */\n      swap2\n      swap1\n      pop\n      jump\t// out\n        /* \"#utility.yul\":12270:12689   */\n    tag_88:\n        /* \"#utility.yul\":12436:12440   */\n      0x00\n        /* \"#utility.yul\":12474:12476   */\n      0x20\n        /* \"#utility.yul\":12463:12472   */\n      dup3\n        /* \"#utility.yul\":12459:12477   */\n      add\n        /* \"#utility.yul\":12451:12477   */\n      swap1\n      pop\n        /* \"#utility.yul\":12523:12532   */\n      dup2\n        /* \"#utility.yul\":12517:12521   */\n      dup2\n        /* \"#utility.yul\":12513:12533   */\n      sub\n        /* \"#utility.yul\":12509:12510   */\n      0x00\n        /* \"#utility.yul\":12498:12507   */\n      dup4\n        /* \"#utility.yul\":12494:12511   */\n      add\n        /* \"#utility.yul\":12487:12534   */\n      mstore\n        /* \"#utility.yul\":12551:12682   */\n      tag_291\n        /* \"#utility.yul\":12677:12681   */\n      dup2\n        /* \"#utility.yul\":12551:12682   */\n      tag_142\n      jump\t// in\n    tag_291:\n        /* \"#utility.yul\":12543:12682   */\n      swap1\n      pop\n        /* \"#utility.yul\":12270:12689   */\n      swap2\n      swap1\n      pop\n      jump\t// out\n        /* \"#utility.yul\":12695:12875   */\n    tag_143:\n        /* \"#utility.yul\":12743:12820   */\n      0x4e487b7100000000000000000000000000000000000000000000000000000000\n        /* \"#utility.yul\":12740:12741   */\n      0x00\n        /* \"#utility.yul\":12733:12821   */\n      mstore\n        /* \"#utility.yul\":12840:12844   */\n      0x11\n        /* \"#utility.yul\":12837:12838   */\n      0x04\n        /* \"#utility.yul\":12830:12845   */\n      mstore\n        /* \"#utility.yul\":12864:12868   */\n      0x24\n        /* \"#utility.yul\":12861:12862   */\n      0x00\n        /* \"#utility.yul\":12854:12869   */\n      revert\n        /* \"#utility.yul\":12881:13075   */\n    tag_91:\n        /* \"#utility.yul\":12921:12925   */\n      0x00\n        /* \"#utility.yul\":12941:12961   */\n      tag_294\n        /* \"#utility.yul\":12959:12960   */\n      dup3\n        /* \"#utility.yul\":12941:12961   */\n      tag_125\n      jump\t// in\n    tag_294:\n        /* \"#utility.yul\":12936:12961   */\n      swap2\n      pop\n        /* \"#utility.yul\":12975:12995   */\n      tag_295\n        /* \"#utility.yul\":12993:12994   */\n      dup4\n        /* \"#utility.yul\":12975:12995   */\n      tag_125\n      jump\t// in\n    tag_295:\n        /* \"#utility.yul\":12970:12995   */\n      swap3\n      pop\n        /* \"#utility.yul\":13019:13020   */\n      dup3\n        /* \"#utility.yul\":13016:13017   */\n      dup3\n        /* \"#utility.yul\":13012:13021   */\n      sub\n        /* \"#utility.yul\":13004:13021   */\n      swap1\n      pop\n        /* \"#utility.yul\":13043:13044   */\n      dup2\n        /* \"#utility.yul\":13037:13041   */\n      dup2\n        /* \"#utility.yul\":13034:13045   */\n      gt\n        /* \"#utility.yul\":13031:13068   */\n      iszero\n      tag_296\n      jumpi\n        /* \"#utility.yul\":13048:13066   */\n      tag_297\n      tag_143\n      jump\t// in\n    tag_297:\n        /* \"#utility.yul\":13031:13068   */\n    tag_296:\n        /* \"#utility.yul\":12881:13075   */\n      swap3\n      swap2\n      pop\n      pop\n      jump\t// out\n        /* \"#utility.yul\":13081:13272   */\n    tag_93:\n        /* \"#utility.yul\":13121:13124   */\n      0x00\n        /* \"#utility.yul\":13140:13160   */\n      tag_299\n        /* \"#utility.yul\":13158:13159   */\n      dup3\n        /* \"#utility.yul\":13140:13160   */\n      tag_125\n      jump\t// in\n    tag_299:\n        /* \"#utility.yul\":13135:13160   */\n      swap2\n      pop\n        /* \"#utility.yul\":13174:13194   */\n      tag_300\n        /* \"#utility.yul\":13192:13193   */\n      dup4\n        /* \"#utility.yul\":13174:13194   */\n      tag_125\n      jump\t// in\n    tag_300:\n        /* \"#utility.yul\":13169:13194   */\n      swap3\n      pop\n        /* \"#utility.yul\":13217:13218   */\n      dup3\n        /* \"#utility.yul\":13214:13215   */\n      dup3\n        /* \"#utility.yul\":13210:13219   */\n      add\n        /* \"#utility.yul\":13203:13219   */\n      swap1\n      pop\n        /* \"#utility.yul\":13238:13241   */\n      dup1\n        /* \"#utility.yul\":13235:13236   */\n      dup3\n        /* \"#utility.yul\":13232:13242   */\n      gt\n        /* \"#utility.yul\":13229:13265   */\n      iszero\n      tag_301\n      jumpi\n        /* \"#utility.yul\":13245:13263   */\n      tag_302\n      tag_143\n      jump\t// in\n    tag_302:\n        /* \"#utility.yul\":13229:13265   */\n    tag_301:\n        /* \"#utility.yul\":13081:13272   */\n      swap3\n      swap2\n      pop\n      pop\n      jump\t// out\n        /* \"#utility.yul\":13278:13419   */\n    tag_144:\n        /* \"#utility.yul\":13327:13331   */\n      0x00\n        /* \"#utility.yul\":13350:13353   */\n      dup2\n        /* \"#utility.yul\":13342:13353   */\n      swap1\n      pop\n        /* \"#utility.yul\":13373:13376   */\n      dup2\n        /* \"#utility.yul\":13370:13371   */\n      0x00\n        /* \"#utility.yul\":13363:13377   */\n      mstore\n        /* \"#utility.yul\":13407:13411   */\n      0x20\n        /* \"#utility.yul\":13404:13405   */\n      0x00\n        /* \"#utility.yul\":13394:13412   */\n      keccak256\n        /* \"#utility.yul\":13386:13412   */\n      swap1\n      pop\n        /* \"#utility.yul\":13278:13419   */\n      swap2\n      swap1\n      pop\n      jump\t// out\n        /* \"#utility.yul\":13425:13518   */\n    tag_145:\n        /* \"#utility.yul\":13462:13468   */\n      0x00\n        /* \"#utility.yul\":13509:13511   */\n      0x20\n        /* \"#utility.yul\":13504:13506   */\n      0x1f\n        /* \"#utility.yul\":13497:13502   */\n      dup4\n        /* \"#utility.yul\":13493:13507   */\n      add\n        /* \"#utility.yul\":13489:13512   */\n      div\n        /* \"#utility.yul\":13479:13512   */\n      swap1\n      pop\n        /* \"#utility.yul\":13425:13518   */\n      swap2\n      swap1\n      pop\n      jump\t// out\n        /* \"#utility.yul\":13524:13631   */\n    tag_146:\n        /* \"#utility.yul\":13568:13576   */\n      0x00\n        /* \"#utility.yul\":13618:13623   */\n      dup3\n        /* \"#utility.yul\":13612:13616   */\n      dup3\n        /* \"#utility.yul\":13608:13624   */\n      shl\n        /* \"#utility.yul\":13587:13624   */\n      swap1\n      pop\n        /* \"#utility.yul\":13524:13631   */\n      swap3\n      swap2\n      pop\n      pop\n      jump\t// out\n        /* \"#utility.yul\":13637:14030   */\n    tag_147:\n        /* \"#utility.yul\":13706:13712   */\n      0x00\n        /* \"#utility.yul\":13756:13757   */\n      0x08\n        /* \"#utility.yul\":13744:13754   */\n      dup4\n        /* \"#utility.yul\":13740:13758   */\n      mul\n        /* \"#utility.yul\":13779:13876   */\n      tag_307\n        /* \"#utility.yul\":13809:13875   */\n      0xffffffffffffffffffffffffffffffffffffffffffffffffffffffffffffffff\n        /* \"#utility.yul\":13798:13807   */\n      dup3\n        /* \"#utility.yul\":13779:13876   */\n      tag_146\n      jump\t// in\n    tag_307:\n        /* \"#utility.yul\":13897:13936   */\n      tag_308\n        /* \"#utility.yul\":13927:13935   */\n      dup7\n        /* \"#utility.yul\":13916:13925   */\n      dup4\n        /* \"#utility.yul\":13897:13936   */\n      tag_146\n      jump\t// in\n    tag_308:\n        /* \"#utility.yul\":13885:13936   */\n      swap6\n      pop\n        /* \"#utility.yul\":13969:13973   */\n      dup1\n        /* \"#utility.yul\":13965:13974   */\n      not\n        /* \"#utility.yul\":13958:13963   */\n      dup5\n        /* \"#utility.yul\":13954:13975   */\n      and\n        /* \"#utility.yul\":13945:13975   */\n      swap4\n      pop\n        /* \"#utility.yul\":14018:14022   */\n      dup1\n        /* \"#utility.yul\":14008:14016   */\n      dup7\n        /* \"#utility.yul\":14004:14023   */\n      and\n        /* \"#utility.yul\":13997:14002   */\n      dup5\n        /* \"#utility.yul\":13994:14024   */\n      or\n        /* \"#utility.yul\":13984:14024   */\n      swap3\n      pop\n        /* \"#utility.yul\":13713:14030   */\n      pop\n      pop\n        /* \"#utility.yul\":13637:14030   */\n      swap4\n      swap3\n      pop\n      pop\n      pop\n      jump\t// out\n        /* \"#utility.yul\":14036:14096   */\n    tag_148:\n        /* \"#utility.yul\":14064:14067   */\n      0x00\n        /* \"#utility.yul\":14085:14090   */\n      dup2\n        /* \"#utility.yul\":14078:14090   */\n      swap1\n      pop\n        /* \"#utility.yul\":14036:14096   */\n      swap2\n      swap1\n      pop\n      jump\t// out\n        /* \"#utility.yul\":14102:14244   */\n    tag_149:\n        /* \"#utility.yul\":14152:14161   */\n      0x00\n        /* \"#utility.yul\":14185:14238   */\n      tag_311\n        /* \"#utility.yul\":14203:14237   */\n      tag_312\n        /* \"#utility.yul\":14212:14236   */\n      tag_313\n        /* \"#utility.yul\":14230:14235   */\n      dup5\n        /* \"#utility.yul\":14212:14236   */\n      tag_125\n      jump\t// in\n    tag_313:\n        /* \"#utility.yul\":14203:14237   */\n      tag_148\n      jump\t// in\n    tag_312:\n        /* \"#utility.yul\":14185:14238   */\n      tag_125\n      jump\t// in\n    tag_311:\n        /* \"#utility.yul\":14172:14238   */\n      swap1\n      pop\n        /* \"#utility.yul\":14102:14244   */\n      swap2\n      swap1\n      pop\n      jump\t// out\n        /* \"#utility.yul\":14250:14325   */\n    tag_150:\n        /* \"#utility.yul\":14293:14296   */\n      0x00\n        /* \"#utility.yul\":14314:14319   */\n      dup2\n        /* \"#utility.yul\":14307:14319   */\n      swap1\n      pop\n        /* \"#utility.yul\":14250:14325   */\n      swap2\n      swap1\n      pop\n      jump\t// out\n        /* \"#utility.yul\":14331:14600   */\n    tag_151:\n        /* \"#utility.yul\":14441:14480   */\n      tag_316\n        /* \"#utility.yul\":14472:14479   */\n      dup4\n        /* \"#utility.yul\":14441:14480   */\n      tag_149\n      jump\t// in\n    tag_316:\n        /* \"#utility.yul\":14502:14593   */\n      tag_317\n        /* \"#utility.yul\":14551:14592   */\n      tag_318\n        /* \"#utility.yul\":14575:14591   */\n      dup3\n        /* \"#utility.yul\":14551:14592   */\n      tag_150\n      jump\t// in\n    tag_318:\n        /* \"#utility.yul\":14543:14549   */\n      dup5\n        /* \"#utility.yul\":14536:14540   */\n      dup5\n        /* \"#utility.yul\":14530:14541   */\n      sload\n        /* \"#utility.yul\":14502:14593   */\n      tag_147\n      jump\t// in\n    tag_317:\n        /* \"#utility.yul\":14496:14500   */\n      dup3\n        /* \"#utility.yul\":14489:14594   */\n      sstore\n        /* \"#utility.yul\":14407:14600   */\n      pop\n        /* \"#utility.yul\":14331:14600   */\n      pop\n      pop\n      pop\n      jump\t// out\n        /* \"#utility.yul\":14606:14679   */\n    tag_152:\n        /* \"#utility.yul\":14651:14654   */\n      0x00\n        /* \"#utility.yul\":14672:14673   */\n      0x00\n        /* \"#utility.yul\":14665:14673   */\n      swap1\n      pop\n        /* \"#utility.yul\":14606:14679   */\n      swap1\n      jump\t// out\n        /* \"#utility.yul\":14685:14874   */\n    tag_153:\n        /* \"#utility.yul\":14762:14794   */\n      tag_321\n      tag_152\n      jump\t// in\n    tag_321:\n        /* \"#utility.yul\":14803:14868   */\n      tag_322\n        /* \"#utility.yul\":14861:14867   */\n      dup2\n        /* \"#utility.yul\":14853:14859   */\n      dup5\n        /* \"#utility.yul\":14847:14851   */\n      dup5\n        /* \"#utility.yul\":14803:14868   */\n      tag_151\n      jump\t// in\n    tag_322:\n        /* \"#utility.yul\":14738:14874   */\n      pop\n        /* \"#utility.yul\":14685:14874   */\n      pop\n      pop\n      jump\t// out\n        /* \"#utility.yul\":14880:15066   */\n    tag_154:\n        /* \"#utility.yul\":14940:15060   */\n    tag_324:\n        /* \"#utility.yul\":14957:14960   */\n      dup2\n        /* \"#utility.yul\":14950:14955   */\n      dup2\n        /* \"#utility.yul\":14947:14961   */\n      lt\n        /* \"#utility.yul\":14940:15060   */\n      iszero\n      tag_326\n      jumpi\n        /* \"#utility.yul\":15011:15050   */\n      tag_327\n        /* \"#utility.yul\":15048:15049   */\n      0x00\n        /* \"#utility.yul\":15041:15046   */\n      dup3\n        /* \"#utility.yul\":15011:15050   */\n      tag_153\n      jump\t// in\n    tag_327:\n        /* \"#utility.yul\":14984:14985   */\n      0x01\n        /* \"#utility.yul\":14977:14982   */\n      dup2\n        /* \"#utility.yul\":14973:14986   */\n      add\n        /* \"#utility.yul\":14964:14986   */\n      swap1\n      pop\n        /* \"#utility.yul\":14940:15060   */\n      jump(tag_324)\n    tag_326:\n        /* \"#utility.yul\":14880:15066   */\n      pop\n      pop\n      jump\t// out\n        /* \"#utility.yul\":15072:15615   */\n    tag_155:\n        /* \"#utility.yul\":15173:15175   */\n      0x1f\n        /* \"#utility.yul\":15168:15171   */\n      dup3\n        /* \"#utility.yul\":15165:15176   */\n      gt\n        /* \"#utility.yul\":15162:15608   */\n      iszero\n      tag_329\n      jumpi\n        /* \"#utility.yul\":15207:15245   */\n      tag_330\n        /* \"#utility.yul\":15239:15244   */\n      dup2\n        /* \"#utility.yul\":15207:15245   */\n      tag_144\n      jump\t// in\n    tag_330:\n        /* \"#utility.yul\":15291:15320   */\n      tag_331\n        /* \"#utility.yul\":15309:15319   */\n      dup5\n        /* \"#utility.yul\":15291:15320   */\n      tag_145\n      jump\t// in\n    tag_331:\n        /* \"#utility.yul\":15281:15289   */\n      dup2\n        /* \"#utility.yul\":15277:15321   */\n      add\n        /* \"#utility.yul\":15474:15476   */\n      0x20\n        /* \"#utility.yul\":15462:15472   */\n      dup6\n        /* \"#utility.yul\":15459:15477   */\n      lt\n        /* \"#utility.yul\":15456:15505   */\n      iszero\n      tag_332\n      jumpi\n        /* \"#utility.yul\":15495:15503   */\n      dup2\n        /* \"#utility.yul\":15480:15503   */\n      swap1\n      pop\n        /* \"#utility.yul\":15456:15505   */\n    tag_332:\n        /* \"#utility.yul\":15518:15598   */\n      tag_333\n        /* \"#utility.yul\":15574:15596   */\n      tag_334\n        /* \"#utility.yul\":15592:15595   */\n      dup6\n        /* \"#utility.yul\":15574:15596   */\n      tag_145\n      jump\t// in\n    tag_334:\n        /* \"#utility.yul\":15564:15572   */\n      dup4\n        /* \"#utility.yul\":15560:15597   */\n      add\n        /* \"#utility.yul\":15547:15558   */\n      dup3\n        /* \"#utility.yul\":15518:15598   */\n      tag_154\n      jump\t// in\n    tag_333:\n        /* \"#utility.yul\":15177:15608   */\n      pop\n      pop\n        /* \"#utility.yul\":15162:15608   */\n    tag_329:\n        /* \"#utility.yul\":15072:15615   */\n      pop\n      pop\n      pop\n      jump\t// out\n        /* \"#utility.yul\":15621:15738   */\n    tag_156:\n        /* \"#utility.yul\":15675:15683   */\n      0x00\n        /* \"#utility.yul\":15725:15730   */\n      dup3\n        /* \"#utility.yul\":15719:15723   */\n      dup3\n        /* \"#utility.yul\":15715:15731   */\n      shr\n        /* \"#utility.yul\":15694:15731   */\n      swap1\n      pop\n        /* \"#utility.yul\":15621:15738   */\n      swap3\n      swap2\n      pop\n      pop\n      jump\t// out\n        /* \"#utility.yul\":15744:15913   */\n    tag_157:\n        /* \"#utility.yul\":15788:15794   */\n      0x00\n        /* \"#utility.yul\":15821:15872   */\n      tag_337\n        /* \"#utility.yul\":15869:15870   */\n      0x00\n        /* \"#utility.yul\":15865:15871   */\n      not\n        /* \"#utility.yul\":15857:15862   */\n      dup5\n        /* \"#utility.yul\":15854:15855   */\n      0x08\n        /* \"#utility.yul\":15850:15863   */\n      mul\n        /* \"#utility.yul\":15821:15872   */\n      tag_156\n      jump\t// in\n    tag_337:\n        /* \"#utility.yul\":15817:15873   */\n      not\n        /* \"#utility.yul\":15902:15906   */\n      dup1\n        /* \"#utility.yul\":15896:15900   */\n      dup4\n        /* \"#utility.yul\":15892:15907   */\n      and\n        /* \"#utility.yul\":15882:15907   */\n      swap2\n      pop\n        /* \"#utility.yul\":15795:15913   */\n      pop\n        /* \"#utility.yul\":15744:15913   */\n      swap3\n      swap2\n      pop\n      pop\n      jump\t// out\n        /* \"#utility.yul\":15918:16213   */\n    tag_158:\n        /* \"#utility.yul\":15994:15998   */\n      0x00\n        /* \"#utility.yul\":16140:16169   */\n      tag_339\n        /* \"#utility.yul\":16165:16168   */\n      dup4\n        /* \"#utility.yul\":16159:16163   */\n      dup4\n        /* \"#utility.yul\":16140:16169   */\n      tag_157\n      jump\t// in\n    tag_339:\n        /* \"#utility.yul\":16132:16169   */\n      swap2\n      pop\n        /* \"#utility.yul\":16202:16205   */\n      dup3\n        /* \"#utility.yul\":16199:16200   */\n      0x02\n        /* \"#utility.yul\":16195:16206   */\n      mul\n        /* \"#utility.yul\":16189:16193   */\n      dup3\n        /* \"#utility.yul\":16186:16207   */\n      or\n        /* \"#utility.yul\":16178:16207   */\n      swap1\n      pop\n        /* \"#utility.yul\":15918:16213   */\n      swap3\n      swap2\n      pop\n      pop\n      jump\t// out\n        /* \"#utility.yul\":16218:17613   */\n    tag_95:\n        /* \"#utility.yul\":16335:16372   */\n      tag_341\n        /* \"#utility.yul\":16368:16371   */\n      dup3\n        /* \"#utility.yul\":16335:16372   */\n      tag_128\n      jump\t// in\n    tag_341:\n        /* \"#utility.yul\":16437:16455   */\n      0xffffffffffffffff\n        /* \"#utility.yul\":16429:16435   */\n      dup2\n        /* \"#utility.yul\":16426:16456   */\n      gt\n        /* \"#utility.yul\":16423:16479   */\n      iszero\n      tag_342\n      jumpi\n        /* \"#utility.yul\":16459:16477   */\n      tag_343\n      tag_118\n      jump\t// in\n    tag_343:\n        /* \"#utility.yul\":16423:16479   */\n    tag_342:\n        /* \"#utility.yul\":16503:16541   */\n      tag_344\n        /* \"#utility.yul\":16535:16539   */\n      dup3\n        /* \"#utility.yul\":16529:16540   */\n      sload\n        /* \"#utility.yul\":16503:16541   */\n      tag_74\n      jump\t// in\n    tag_344:\n        /* \"#utility.yul\":16588:16655   */\n      tag_345\n        /* \"#utility.yul\":16648:16654   */\n      dup3\n        /* \"#utility.yul\":16640:16646   */\n      dup3\n        /* \"#utility.yul\":16634:16638   */\n      dup6\n        /* \"#utility.yul\":16588:16655   */\n      tag_155\n      jump\t// in\n    tag_345:\n        /* \"#utility.yul\":16682:16683   */\n      0x00\n        /* \"#utility.yul\":16706:16710   */\n      0x20\n        /* \"#utility.yul\":16693:16710   */\n      swap1\n      pop\n        /* \"#utility.yul\":16738:16740   */\n      0x1f\n        /* \"#utility.yul\":16730:16736   */\n      dup4\n        /* \"#utility.yul\":16727:16741   */\n      gt\n        /* \"#utility.yul\":16755:16756   */\n      0x01\n        /* \"#utility.yul\":16750:17368   */\n      dup2\n      eq\n      tag_347\n      jumpi\n        /* \"#utility.yul\":17412:17413   */\n      0x00\n        /* \"#utility.yul\":17429:17435   */\n      dup5\n        /* \"#utility.yul\":17426:17503   */\n      iszero\n      tag_348\n      jumpi\n        /* \"#utility.yul\":17478:17487   */\n      dup3\n        /* \"#utility.yul\":17473:17476   */\n      dup8\n        /* \"#utility.yul\":17469:17488   */\n      add\n        /* \"#utility.yul\":17463:17489   */\n      mload\n        /* \"#utility.yul\":17454:17489   */\n      swap1\n      pop\n        /* \"#utility.yul\":17426:17503   */\n    tag_348:\n        /* \"#utility.yul\":17529:17596   */\n      tag_349\n        /* \"#utility.yul\":17589:17595   */\n      dup6\n        /* \"#utility.yul\":17582:17587   */\n      dup3\n        /* \"#utility.yul\":17529:17596   */\n      tag_158\n      jump\t// in\n    tag_349:\n        /* \"#utility.yul\":17523:17527   */\n      dup7\n        /* \"#utility.yul\":17516:17597   */\n      sstore\n        /* \"#utility.yul\":17385:17607   */\n      pop\n        /* \"#utility.yul\":16720:17607   */\n      jump(tag_346)\n        /* \"#utility.yul\":16750:17368   */\n    tag_347:\n        /* \"#utility.yul\":16802:16806   */\n      0x1f\n        /* \"#utility.yul\":16798:16807   */\n      not\n        /* \"#utility.yul\":16790:16796   */\n      dup5\n        /* \"#utility.yul\":16786:16808   */\n      and\n        /* \"#utility.yul\":16836:16873   */\n      tag_350\n        /* \"#utility.yul\":16868:16872   */\n      dup7\n        /* \"#utility.yul\":16836:16873   */\n      tag_144\n      jump\t// in\n    tag_350:\n        /* \"#utility.yul\":16895:16896   */\n      0x00\n        /* \"#utility.yul\":16909:17117   */\n    tag_351:\n        /* \"#utility.yul\":16923:16930   */\n      dup3\n        /* \"#utility.yul\":16920:16921   */\n      dup2\n        /* \"#utility.yul\":16917:16931   */\n      lt\n        /* \"#utility.yul\":16909:17117   */\n      iszero\n      tag_353\n      jumpi\n        /* \"#utility.yul\":17002:17011   */\n      dup5\n        /* \"#utility.yul\":16997:17000   */\n      dup10\n        /* \"#utility.yul\":16993:17012   */\n      add\n        /* \"#utility.yul\":16987:17013   */\n      mload\n        /* \"#utility.yul\":16979:16985   */\n      dup3\n        /* \"#utility.yul\":16972:17014   */\n      sstore\n        /* \"#utility.yul\":17053:17054   */\n      0x01\n        /* \"#utility.yul\":17045:17051   */\n      dup3\n        /* \"#utility.yul\":17041:17055   */\n      add\n        /* \"#utility.yul\":17031:17055   */\n      swap2\n      pop\n        /* \"#utility.yul\":17100:17102   */\n      0x20\n        /* \"#utility.yul\":17089:17098   */\n      dup6\n        /* \"#utility.yul\":17085:17103   */\n      add\n        /* \"#utility.yul\":17072:17103   */\n      swap5\n      pop\n        /* \"#utility.yul\":16946:16950   */\n      0x20\n        /* \"#utility.yul\":16943:16944   */\n      dup2\n        /* \"#utility.yul\":16939:16951   */\n      add\n        /* \"#utility.yul\":16934:16951   */\n      swap1\n      pop\n        /* \"#utility.yul\":16909:17117   */\n      jump(tag_351)\n    tag_353:\n        /* \"#utility.yul\":17145:17151   */\n      dup7\n        /* \"#utility.yul\":17136:17143   */\n      dup4\n        /* \"#utility.yul\":17133:17152   */\n      lt\n        /* \"#utility.yul\":17130:17309   */\n      iszero\n      tag_354\n      jumpi\n        /* \"#utility.yul\":17203:17212   */\n      dup5\n        /* \"#utility.yul\":17198:17201   */\n      dup10\n        /* \"#utility.yul\":17194:17213   */\n      add\n        /* \"#utility.yul\":17188:17214   */\n      mload\n        /* \"#utility.yul\":17246:17294   */\n      tag_355\n        /* \"#utility.yul\":17288:17292   */\n      0x1f\n        /* \"#utility.yul\":17280:17286   */\n      dup10\n        /* \"#utility.yul\":17276:17293   */\n      and\n        /* \"#utility.yul\":17265:17274   */\n      dup3\n        /* \"#utility.yul\":17246:17294   */\n      tag_157\n      jump\t// in\n    tag_355:\n        /* \"#utility.yul\":17238:17244   */\n      dup4\n        /* \"#utility.yul\":17231:17295   */\n      sstore\n        /* \"#utility.yul\":17153:17309   */\n      pop\n        /* \"#utility.yul\":17130:17309   */\n    tag_354:\n        /* \"#utility.yul\":17355:17356   */\n      0x01\n        /* \"#utility.yul\":17351:17352   */\n      0x02\n        /* \"#utility.yul\":17343:17349   */\n      dup9\n        /* \"#utility.yul\":17339:17353   */\n      mul\n        /* \"#utility.yul\":17335:17357   */\n      add\n        /* \"#utility.yul\":17329:17333   */\n      dup9\n        /* \"#utility.yul\":17322:17358   */\n      sstore\n        /* \"#utility.yul\":16757:17368   */\n      pop\n      pop\n      pop\n        /* \"#utility.yul\":16720:17607   */\n    tag_346:\n      pop\n        /* \"#utility.yul\":16310:17613   */\n      pop\n      pop\n      pop\n        /* \"#utility.yul\":16218:17613   */\n      pop\n      pop\n      jump\t// out\n        /* \"#utility.yul\":17619:17788   */\n    tag_159:\n        /* \"#utility.yul\":17759:17780   */\n      0x4f6e6c79206f776e65722063616e2063616c6c00000000000000000000000000\n        /* \"#utility.yul\":17755:17756   */\n      0x00\n        /* \"#utility.yul\":17747:17753   */\n      dup3\n        /* \"#utility.yul\":17743:17757   */\n      add\n        /* \"#utility.yul\":17736:17781   */\n      mstore\n        /* \"#utility.yul\":17619:17788   */\n      pop\n      jump\t// out\n        /* \"#utility.yul\":17794:18160   */\n    tag_160:\n        /* \"#utility.yul\":17936:17939   */\n      0x00\n        /* \"#utility.yul\":17957:18024   */\n      tag_358\n        /* \"#utility.yul\":18021:18023   */\n      0x13\n        /* \"#utility.yul\":18016:18019   */\n      dup4\n        /* \"#utility.yul\":17957:18024   */\n      tag_129\n      jump\t// in\n    tag_358:\n        /* \"#utility.yul\":17950:18024   */\n      swap2\n      pop\n        /* \"#utility.yul\":18033:18126   */\n      tag_359\n        /* \"#utility.yul\":18122:18125   */\n      dup3\n        /* \"#utility.yul\":18033:18126   */\n      tag_159\n      jump\t// in\n    tag_359:\n        /* \"#utility.yul\":18151:18153   */\n      0x20\n        /* \"#utility.yul\":18146:18149   */\n      dup3\n        /* \"#utility.yul\":18142:18154   */\n      add\n        /* \"#utility.yul\":18135:18154   */\n      swap1\n      pop\n        /* \"#utility.yul\":17794:18160   */\n      swap2\n      swap1\n      pop\n      jump\t// out\n        /* \"#utility.yul\":18166:18585   */\n    tag_99:\n        /* \"#utility.yul\":18332:18336   */\n      0x00\n        /* \"#utility.yul\":18370:18372   */\n      0x20\n        /* \"#utility.yul\":18359:18368   */\n      dup3\n        /* \"#utility.yul\":18355:18373   */\n      add\n        /* \"#utility.yul\":18347:18373   */\n      swap1\n      pop\n        /* \"#utility.yul\":18419:18428   */\n      dup2\n        /* \"#utility.yul\":18413:18417   */\n      dup2\n        /* \"#utility.yul\":18409:18429   */\n      sub\n        /* \"#utility.yul\":18405:18406   */\n      0x00\n        /* \"#utility.yul\":18394:18403   */\n      dup4\n        /* \"#utility.yul\":18390:18407   */\n      add\n        /* \"#utility.yul\":18383:18430   */\n      mstore\n        /* \"#utility.yul\":18447:18578   */\n      tag_361\n        /* \"#utility.yul\":18573:18577   */\n      dup2\n        /* \"#utility.yul\":18447:18578   */\n      tag_160\n      jump\t// in\n    tag_361:\n        /* \"#utility.yul\":18439:18578   */\n      swap1\n      pop\n        /* \"#utility.yul\":18166:18585   */\n      swap2\n      swap1\n      pop\n      jump\t// out\n\n    auxdata: 0xa26469706673582212204fe80176d73f5b5f724e82bd9f49c98416cd8fce4f67e382766d0695082daeb864736f6c634300081e0033\n}\n",
				"bytecode": {
					"linkReferences": {},
					"object": "6080604052348015600e575f5ffd5b50335f5f6101000a81548173ffffffffffffffffffffffffffffffffffffffff021916908373ffffffffffffffffffffffffffffffffffffffff1602179055506113088061005b5f395ff3fe608060405260043610610090575f3560e01c8063821c477f11610058578063821c477f1461016f5780638da5cb5b146101ab57806397a993aa146101d5578063a00ac7bf14610213578063f6f85be91461023b57610090565b8063039855221461009457806332f6b4a2146100bc57806343870e38146100f9578063560ff06e146101375780636a1a1ff914610153575b5f5ffd5b34801561009f575f5ffd5b506100ba60048036038101906100b59190610a94565b610263565b005b3480156100c7575f5ffd5b506100e260048036038101906100dd9190610aee565b61028d565b6040516100f0929190610ba4565b60405180910390f35b348015610104575f5ffd5b5061011f600480360381019061011a9190610aee565b610365565b60405161012e93929190610c11565b60405180910390f35b610151600480360381019061014c9190610c77565b610448565b005b61016d60048036038101906101689190610cf7565b6105f3565b005b34801561017a575f5ffd5b5061019560048036038101906101909190610d35565b61069b565b6040516101a29190610d60565b60405180910390f35b3480156101b6575f5ffd5b506101bf6106b0565b6040516101cc9190610d79565b60405180910390f35b3480156101e0575f5ffd5b506101fb60048036038101906101f69190610d92565b6106d4565b60405161020a93929190610dbd565b60405180910390f35b34801561021e575f5ffd5b5061023960048036038101906102349190610df9565b61079f565b005b348015610246575f5ffd5b50610261600480360381019061025c9190610aee565b610802565b005b806002836040516102749190610e8d565b9081526020016040518091039020600201819055505050565b60605f6002836040516102a09190610e8d565b90815260200160405180910390205f016002846040516102c09190610e8d565b9081526020016040518091039020600201548180546102de90610ed0565b80601f016020809104026020016040519081016040528092919081815260200182805461030a90610ed0565b80156103555780601f1061032c57610100808354040283529160200191610355565b820191905f5260205f20905b81548152906001019060200180831161033857829003601f168201915b5050505050915091509150915091565b6002818051602081018201805184825260208301602085012081835280955050505050505f91509050805f01805461039c90610ed0565b80601f01602080910402602001604051908101604052809291908181526020018280546103c890610ed0565b80156104135780601f106103ea57610100808354040283529160200191610413565b820191905f5260205f20905b8154815290600101906020018083116103f657829003601f168201915b505050505090806001015f9054906101000a900473ffffffffffffffffffffffffffffffffffffffff16908060020154905083565b5f8211801561045657505f81115b610495576040517f08c379a000000000000000000000000000000000000000000000000000000000815260040161048c90610f4a565b60405180910390fd5b816002846040516104a69190610e8d565b90815260200160405180910390206002015f8282546104c59190610f95565b925050819055508160035f8673ffffffffffffffffffffffffffffffffffffffff1673ffffffffffffffffffffffffffffffffffffffff1681526020019081526020015f206002015f82825461051b9190610fc8565b925050819055508260035f8673ffffffffffffffffffffffffffffffffffffffff1673ffffffffffffffffffffffffffffffffffffffff1681526020019081526020015f20600101908161056f919061119b565b508360035f8673ffffffffffffffffffffffffffffffffffffffff1673ffffffffffffffffffffffffffffffffffffffff1681526020019081526020015f205f015f6101000a81548173ffffffffffffffffffffffffffffffffffffffff021916908373ffffffffffffffffffffffffffffffffffffffff16021790555050505050565b5f5f9054906101000a900473ffffffffffffffffffffffffffffffffffffffff1673ffffffffffffffffffffffffffffffffffffffff163373ffffffffffffffffffffffffffffffffffffffff1614610681576040517f08c379a0000000000000000000000000000000000000000000000000000000008152600401610678906112b4565b60405180910390fd5b8060015f8481526020019081526020015f20819055505050565b6001602052805f5260405f205f915090505481565b5f5f9054906101000a900473ffffffffffffffffffffffffffffffffffffffff1681565b6003602052805f5260405f205f91509050805f015f9054906101000a900473ffffffffffffffffffffffffffffffffffffffff169080600101805461071890610ed0565b80601f016020809104026020016040519081016040528092919081815260200182805461074490610ed0565b801561078f5780601f106107665761010080835404028352916020019161078f565b820191905f5260205f20905b81548152906001019060200180831161077257829003601f168201915b5050505050908060020154905083565b806002836040516107b09190610e8d565b90815260200160405180910390206001015f6101000a81548173ffffffffffffffffffffffffffffffffffffffff021916908373ffffffffffffffffffffffffffffffffffffffff1602179055505050565b60405180606001604052808281526020013373ffffffffffffffffffffffffffffffffffffffff1681526020015f8152506002826040516108439190610e8d565b90815260200160405180910390205f820151815f019081610864919061119b565b506020820151816001015f6101000a81548173ffffffffffffffffffffffffffffffffffffffff021916908373ffffffffffffffffffffffffffffffffffffffff160217905550604082015181600201559050503373ffffffffffffffffffffffffffffffffffffffff16816040516108dd9190610e8d565b60405180910390207f5303d8f6a62614d593a982ffe01281d91a27f12026951b9567b58807fdebb5df60405160405180910390a350565b5f604051905090565b5f5ffd5b5f5ffd5b5f5ffd5b5f5ffd5b5f601f19601f8301169050919050565b7f4e487b71000000000000000000000000000000000000000000000000000000005f52604160045260245ffd5b6109738261092d565b810181811067ffffffffffffffff821117156109925761099161093d565b5b80604052505050565b5f6109a4610914565b90506109b0828261096a565b919050565b5f67ffffffffffffffff8211156109cf576109ce61093d565b5b6109d88261092d565b9050602081019050919050565b828183375f83830152505050565b5f610a05610a00846109b5565b61099b565b905082815260208101848484011115610a2157610a20610929565b5b610a2c8482856109e5565b509392505050565b5f82601f830112610a4857610a47610925565b5b8135610a588482602086016109f3565b91505092915050565b5f819050919050565b610a7381610a61565b8114610a7d575f5ffd5b50565b5f81359050610a8e81610a6a565b92915050565b5f5f60408385031215610aaa57610aa961091d565b5b5f83013567ffffffffffffffff811115610ac757610ac6610921565b5b610ad385828601610a34565b9250506020610ae485828601610a80565b9150509250929050565b5f60208284031215610b0357610b0261091d565b5b5f82013567ffffffffffffffff811115610b2057610b1f610921565b5b610b2c84828501610a34565b91505092915050565b5f81519050919050565b5f82825260208201905092915050565b8281835e5f83830152505050565b5f610b6782610b35565b610b718185610b3f565b9350610b81818560208601610b4f565b610b8a8161092d565b840191505092915050565b610b9e81610a61565b82525050565b5f6040820190508181035f830152610bbc8185610b5d565b9050610bcb6020830184610b95565b9392505050565b5f73ffffffffffffffffffffffffffffffffffffffff82169050919050565b5f610bfb82610bd2565b9050919050565b610c0b81610bf1565b82525050565b5f6060820190508181035f830152610c298186610b5d565b9050610c386020830185610c02565b610c456040830184610b95565b949350505050565b610c5681610bf1565b8114610c60575f5ffd5b50565b5f81359050610c7181610c4d565b92915050565b5f5f5f5f60808587031215610c8f57610c8e61091d565b5b5f610c9c87828801610c63565b945050602085013567ffffffffffffffff811115610cbd57610cbc610921565b5b610cc987828801610a34565b9350506040610cda87828801610a80565b9250506060610ceb87828801610a80565b91505092959194509250565b5f5f60408385031215610d0d57610d0c61091d565b5b5f610d1a85828601610a80565b9250506020610d2b85828601610a80565b9150509250929050565b5f60208284031215610d4a57610d4961091d565b5b5f610d5784828501610a80565b91505092915050565b5f602082019050610d735f830184610b95565b92915050565b5f602082019050610d8c5f830184610c02565b92915050565b5f60208284031215610da757610da661091d565b5b5f610db484828501610c63565b91505092915050565b5f606082019050610dd05f830186610c02565b8181036020830152610de28185610b5d565b9050610df16040830184610b95565b949350505050565b5f5f60408385031215610e0f57610e0e61091d565b5b5f83013567ffffffffffffffff811115610e2c57610e2b610921565b5b610e3885828601610a34565b9250506020610e4985828601610c63565b9150509250929050565b5f81905092915050565b5f610e6782610b35565b610e718185610e53565b9350610e81818560208601610b4f565b80840191505092915050565b5f610e988284610e5d565b915081905092915050565b7f4e487b71000000000000000000000000000000000000000000000000000000005f52602260045260245ffd5b5f6002820490506001821680610ee757607f821691505b602082108103610efa57610ef9610ea3565b5b50919050565b7f416d6f756e7420616e6420706179206d757374206265206772770000000000005f82015250565b5f610f34601a83610b3f565b9150610f3f82610f00565b602082019050919050565b5f6020820190508181035f830152610f6181610f28565b9050919050565b7f4e487b71000000000000000000000000000000000000000000000000000000005f52601160045260245ffd5b5f610f9f82610a61565b9150610faa83610a61565b9250828203905081811115610fc257610fc1610f68565b5b92915050565b5f610fd282610a61565b9150610fdd83610a61565b9250828201905080821115610ff557610ff4610f68565b5b92915050565b5f819050815f5260205f209050919050565b5f6020601f8301049050919050565b5f82821b905092915050565b5f600883026110577fffffffffffffffffffffffffffffffffffffffffffffffffffffffffffffffff8261101c565b611061868361101c565b95508019841693508086168417925050509392505050565b5f819050919050565b5f61109c61109761109284610a61565b611079565b610a61565b9050919050565b5f819050919050565b6110b583611082565b6110c96110c1826110a3565b848454611028565b825550505050565b5f5f905090565b6110e06110d1565b6110eb8184846110ac565b505050565b5b8181101561110e576111035f826110d8565b6001810190506110f1565b5050565b601f8211156111535761112481610ffb565b61112d8461100d565b8101602085101561113c578190505b6111506111488561100d565b8301826110f0565b50505b505050565b5f82821c905092915050565b5f6111735f1984600802611158565b1980831691505092915050565b5f61118b8383611164565b9150826002028217905092915050565b6111a482610b35565b67ffffffffffffffff8111156111bd576111bc61093d565b5b6111c78254610ed0565b6111d2828285611112565b5f60209050601f831160018114611203575f84156111f1578287015190505b6111fb8582611180565b865550611262565b601f19841661121186610ffb565b5f5b8281101561123857848901518255600182019150602085019450602081019050611213565b868310156112555784890151611251601f891682611164565b8355505b6001600288020188555050505b505050505050565b7f4f6e6c79206f776e65722063616e2063616c6c000000000000000000000000005f82015250565b5f61129e601383610b3f565b91506112a98261126a565b602082019050919050565b5f6020820190508181035f8301526112cb81611292565b905091905056fea26469706673582212204fe80176d73f5b5f724e82bd9f49c98416cd8fce4f67e382766d0695082daeb864736f6c634300081e0033",
					"opcodes": "PUSH1 0x80 PUSH1 0x40 MSTORE CALLVALUE DUP1 ISZERO PUSH1 0xE JUMPI PUSH0 PUSH0 REVERT JUMPDEST POP CALLER PUSH0 PUSH0 PUSH2 0x100 EXP DUP2 SLOAD DUP2 PUSH20 0xFFFFFFFFFFFFFFFFFFFFFFFFFFFFFFFFFFFFFFFF MUL NOT AND SWAP1 DUP4 PUSH20 0xFFFFFFFFFFFFFFFFFFFFFFFFFFFFFFFFFFFFFFFF AND MUL OR SWAP1 SSTORE POP PUSH2 0x1308 DUP1 PUSH2 0x5B PUSH0 CODECOPY PUSH0 RETURN INVALID PUSH1 0x80 PUSH1 0x40 MSTORE PUSH1 0x4 CALLDATASIZE LT PUSH2 0x90 JUMPI PUSH0 CALLDATALOAD PUSH1 0xE0 SHR DUP1 PUSH4 0x821C477F GT PUSH2 0x58 JUMPI DUP1 PUSH4 0x821C477F EQ PUSH2 0x16F JUMPI DUP1 PUSH4 0x8DA5CB5B EQ PUSH2 0x1AB JUMPI DUP1 PUSH4 0x97A993AA EQ PUSH2 0x1D5 JUMPI DUP1 PUSH4 0xA00AC7BF EQ PUSH2 0x213 JUMPI DUP1 PUSH4 0xF6F85BE9 EQ PUSH2 0x23B JUMPI PUSH2 0x90 JUMP JUMPDEST DUP1 PUSH4 0x3985522 EQ PUSH2 0x94 JUMPI DUP1 PUSH4 0x32F6B4A2 EQ PUSH2 0xBC JUMPI DUP1 PUSH4 0x43870E38 EQ PUSH2 0xF9 JUMPI DUP1 PUSH4 0x560FF06E EQ PUSH2 0x137 JUMPI DUP1 PUSH4 0x6A1A1FF9 EQ PUSH2 0x153 JUMPI JUMPDEST PUSH0 PUSH0 REVERT JUMPDEST CALLVALUE DUP1 ISZERO PUSH2 0x9F JUMPI PUSH0 PUSH0 REVERT JUMPDEST POP PUSH2 0xBA PUSH1 0x4 DUP1 CALLDATASIZE SUB DUP2 ADD SWAP1 PUSH2 0xB5 SWAP2 SWAP1 PUSH2 0xA94 JUMP JUMPDEST PUSH2 0x263 JUMP JUMPDEST STOP JUMPDEST CALLVALUE DUP1 ISZERO PUSH2 0xC7 JUMPI PUSH0 PUSH0 REVERT JUMPDEST POP PUSH2 0xE2 PUSH1 0x4 DUP1 CALLDATASIZE SUB DUP2 ADD SWAP1 PUSH2 0xDD SWAP2 SWAP1 PUSH2 0xAEE JUMP JUMPDEST PUSH2 0x28D JUMP JUMPDEST PUSH1 0x40 MLOAD PUSH2 0xF0 SWAP3 SWAP2 SWAP1 PUSH2 0xBA4 JUMP JUMPDEST PUSH1 0x40 MLOAD DUP1 SWAP2 SUB SWAP1 RETURN JUMPDEST CALLVALUE DUP1 ISZERO PUSH2 0x104 JUMPI PUSH0 PUSH0 REVERT JUMPDEST POP PUSH2 0x11F PUSH1 0x4 DUP1 CALLDATASIZE SUB DUP2 ADD SWAP1 PUSH2 0x11A SWAP2 SWAP1 PUSH2 0xAEE JUMP JUMPDEST PUSH2 0x365 JUMP JUMPDEST PUSH1 0x40 MLOAD PUSH2 0x12E SWAP4 SWAP3 SWAP2 SWAP1 PUSH2 0xC11 JUMP JUMPDEST PUSH1 0x40 MLOAD DUP1 SWAP2 SUB SWAP1 RETURN JUMPDEST PUSH2 0x151 PUSH1 0x4 DUP1 CALLDATASIZE SUB DUP2 ADD SWAP1 PUSH2 0x14C SWAP2 SWAP1 PUSH2 0xC77 JUMP JUMPDEST PUSH2 0x448 JUMP JUMPDEST STOP JUMPDEST PUSH2 0x16D PUSH1 0x4 DUP1 CALLDATASIZE SUB DUP2 ADD SWAP1 PUSH2 0x168 SWAP2 SWAP1 PUSH2 0xCF7 JUMP JUMPDEST PUSH2 0x5F3 JUMP JUMPDEST STOP JUMPDEST CALLVALUE DUP1 ISZERO PUSH2 0x17A JUMPI PUSH0 PUSH0 REVERT JUMPDEST POP PUSH2 0x195 PUSH1 0x4 DUP1 CALLDATASIZE SUB DUP2 ADD SWAP1 PUSH2 0x190 SWAP2 SWAP1 PUSH2 0xD35 JUMP JUMPDEST PUSH2 0x69B JUMP JUMPDEST PUSH1 0x40 MLOAD PUSH2 0x1A2 SWAP2 SWAP1 PUSH2 0xD60 JUMP JUMPDEST PUSH1 0x40 MLOAD DUP1 SWAP2 SUB SWAP1 RETURN JUMPDEST CALLVALUE DUP1 ISZERO PUSH2 0x1B6 JUMPI PUSH0 PUSH0 REVERT JUMPDEST POP PUSH2 0x1BF PUSH2 0x6B0 JUMP JUMPDEST PUSH1 0x40 MLOAD PUSH2 0x1CC SWAP2 SWAP1 PUSH2 0xD79 JUMP JUMPDEST PUSH1 0x40 MLOAD DUP1 SWAP2 SUB SWAP1 RETURN JUMPDEST CALLVALUE DUP1 ISZERO PUSH2 0x1E0 JUMPI PUSH0 PUSH0 REVERT JUMPDEST POP PUSH2 0x1FB PUSH1 0x4 DUP1 CALLDATASIZE SUB DUP2 ADD SWAP1 PUSH2 0x1F6 SWAP2 SWAP1 PUSH2 0xD92 JUMP JUMPDEST PUSH2 0x6D4 JUMP JUMPDEST PUSH1 0x40 MLOAD PUSH2 0x20A SWAP4 SWAP3 SWAP2 SWAP1 PUSH2 0xDBD JUMP JUMPDEST PUSH1 0x40 MLOAD DUP1 SWAP2 SUB SWAP1 RETURN JUMPDEST CALLVALUE DUP1 ISZERO PUSH2 0x21E JUMPI PUSH0 PUSH0 REVERT JUMPDEST POP PUSH2 0x239 PUSH1 0x4 DUP1 CALLDATASIZE SUB DUP2 ADD SWAP1 PUSH2 0x234 SWAP2 SWAP1 PUSH2 0xDF9 JUMP JUMPDEST PUSH2 0x79F JUMP JUMPDEST STOP JUMPDEST CALLVALUE DUP1 ISZERO PUSH2 0x246 JUMPI PUSH0 PUSH0 REVERT JUMPDEST POP PUSH2 0x261 PUSH1 0x4 DUP1 CALLDATASIZE SUB DUP2 ADD SWAP1 PUSH2 0x25C SWAP2 SWAP1 PUSH2 0xAEE JUMP JUMPDEST PUSH2 0x802 JUMP JUMPDEST STOP JUMPDEST DUP1 PUSH1 0x2 DUP4 PUSH1 0x40 MLOAD PUSH2 0x274 SWAP2 SWAP1 PUSH2 0xE8D JUMP JUMPDEST SWAP1 DUP2 MSTORE PUSH1 0x20 ADD PUSH1 0x40 MLOAD DUP1 SWAP2 SUB SWAP1 KECCAK256 PUSH1 0x2 ADD DUP2 SWAP1 SSTORE POP POP POP JUMP JUMPDEST PUSH1 0x60 PUSH0 PUSH1 0x2 DUP4 PUSH1 0x40 MLOAD PUSH2 0x2A0 SWAP2 SWAP1 PUSH2 0xE8D JUMP JUMPDEST SWAP1 DUP2 MSTORE PUSH1 0x20 ADD PUSH1 0x40 MLOAD DUP1 SWAP2 SUB SWAP1 KECCAK256 PUSH0 ADD PUSH1 0x2 DUP5 PUSH1 0x40 MLOAD PUSH2 0x2C0 SWAP2 SWAP1 PUSH2 0xE8D JUMP JUMPDEST SWAP1 DUP2 MSTORE PUSH1 0x20 ADD PUSH1 0x40 MLOAD DUP1 SWAP2 SUB SWAP1 KECCAK256 PUSH1 0x2 ADD SLOAD DUP2 DUP1 SLOAD PUSH2 0x2DE SWAP1 PUSH2 0xED0 JUMP JUMPDEST DUP1 PUSH1 0x1F ADD PUSH1 0x20 DUP1 SWAP2 DIV MUL PUSH1 0x20 ADD PUSH1 0x40 MLOAD SWAP1 DUP2 ADD PUSH1 0x40 MSTORE DUP1 SWAP3 SWAP2 SWAP1 DUP2 DUP2 MSTORE PUSH1 0x20 ADD DUP3 DUP1 SLOAD PUSH2 0x30A SWAP1 PUSH2 0xED0 JUMP JUMPDEST DUP1 ISZERO PUSH2 0x355 JUMPI DUP1 PUSH1 0x1F LT PUSH2 0x32C JUMPI PUSH2 0x100 DUP1 DUP4 SLOAD DIV MUL DUP4 MSTORE SWAP2 PUSH1 0x20 ADD SWAP2 PUSH2 0x355 JUMP JUMPDEST DUP3 ADD SWAP2 SWAP1 PUSH0 MSTORE PUSH1 0x20 PUSH0 KECCAK256 SWAP1 JUMPDEST DUP2 SLOAD DUP2 MSTORE SWAP1 PUSH1 0x1 ADD SWAP1 PUSH1 0x20 ADD DUP1 DUP4 GT PUSH2 0x338 JUMPI DUP3 SWAP1 SUB PUSH1 0x1F AND DUP3 ADD SWAP2 JUMPDEST POP POP POP POP POP SWAP2 POP SWAP2 POP SWAP2 POP SWAP2 POP SWAP2 JUMP JUMPDEST PUSH1 0x2 DUP2 DUP1 MLOAD PUSH1 0x20 DUP2 ADD DUP3 ADD DUP1 MLOAD DUP5 DUP3 MSTORE PUSH1 0x20 DUP4 ADD PUSH1 0x20 DUP6 ADD KECCAK256 DUP2 DUP4 MSTORE DUP1 SWAP6 POP POP POP POP POP POP PUSH0 SWAP2 POP SWAP1 POP DUP1 PUSH0 ADD DUP1 SLOAD PUSH2 0x39C SWAP1 PUSH2 0xED0 JUMP JUMPDEST DUP1 PUSH1 0x1F ADD PUSH1 0x20 DUP1 SWAP2 DIV MUL PUSH1 0x20 ADD PUSH1 0x40 MLOAD SWAP1 DUP2 ADD PUSH1 0x40 MSTORE DUP1 SWAP3 SWAP2 SWAP1 DUP2 DUP2 MSTORE PUSH1 0x20 ADD DUP3 DUP1 SLOAD PUSH2 0x3C8 SWAP1 PUSH2 0xED0 JUMP JUMPDEST DUP1 ISZERO PUSH2 0x413 JUMPI DUP1 PUSH1 0x1F LT PUSH2 0x3EA JUMPI PUSH2 0x100 DUP1 DUP4 SLOAD DIV MUL DUP4 MSTORE SWAP2 PUSH1 0x20 ADD SWAP2 PUSH2 0x413 JUMP JUMPDEST DUP3 ADD SWAP2 SWAP1 PUSH0 MSTORE PUSH1 0x20 PUSH0 KECCAK256 SWAP1 JUMPDEST DUP2 SLOAD DUP2 MSTORE SWAP1 PUSH1 0x1 ADD SWAP1 PUSH1 0x20 ADD DUP1 DUP4 GT PUSH2 0x3F6 JUMPI DUP3 SWAP1 SUB PUSH1 0x1F AND DUP3 ADD SWAP2 JUMPDEST POP POP POP POP POP SWAP1 DUP1 PUSH1 0x1 ADD PUSH0 SWAP1 SLOAD SWAP1 PUSH2 0x100 EXP SWAP1 DIV PUSH20 0xFFFFFFFFFFFFFFFFFFFFFFFFFFFFFFFFFFFFFFFF AND SWAP1 DUP1 PUSH1 0x2 ADD SLOAD SWAP1 POP DUP4 JUMP JUMPDEST PUSH0 DUP3 GT DUP1 ISZERO PUSH2 0x456 JUMPI POP PUSH0 DUP2 GT JUMPDEST PUSH2 0x495 JUMPI PUSH1 0x40 MLOAD PUSH32 0x8C379A000000000000000000000000000000000000000000000000000000000 DUP2 MSTORE PUSH1 0x4 ADD PUSH2 0x48C SWAP1 PUSH2 0xF4A JUMP JUMPDEST PUSH1 0x40 MLOAD DUP1 SWAP2 SUB SWAP1 REVERT JUMPDEST DUP2 PUSH1 0x2 DUP5 PUSH1 0x40 MLOAD PUSH2 0x4A6 SWAP2 SWAP1 PUSH2 0xE8D JUMP JUMPDEST SWAP1 DUP2 MSTORE PUSH1 0x20 ADD PUSH1 0x40 MLOAD DUP1 SWAP2 SUB SWAP1 KECCAK256 PUSH1 0x2 ADD PUSH0 DUP3 DUP3 SLOAD PUSH2 0x4C5 SWAP2 SWAP1 PUSH2 0xF95 JUMP JUMPDEST SWAP3 POP POP DUP2 SWAP1 SSTORE POP DUP2 PUSH1 0x3 PUSH0 DUP7 PUSH20 0xFFFFFFFFFFFFFFFFFFFFFFFFFFFFFFFFFFFFFFFF AND PUSH20 0xFFFFFFFFFFFFFFFFFFFFFFFFFFFFFFFFFFFFFFFF AND DUP2 MSTORE PUSH1 0x20 ADD SWAP1 DUP2 MSTORE PUSH1 0x20 ADD PUSH0 KECCAK256 PUSH1 0x2 ADD PUSH0 DUP3 DUP3 SLOAD PUSH2 0x51B SWAP2 SWAP1 PUSH2 0xFC8 JUMP JUMPDEST SWAP3 POP POP DUP2 SWAP1 SSTORE POP DUP3 PUSH1 0x3 PUSH0 DUP7 PUSH20 0xFFFFFFFFFFFFFFFFFFFFFFFFFFFFFFFFFFFFFFFF AND PUSH20 0xFFFFFFFFFFFFFFFFFFFFFFFFFFFFFFFFFFFFFFFF AND DUP2 MSTORE PUSH1 0x20 ADD SWAP1 DUP2 MSTORE PUSH1 0x20 ADD PUSH0 KECCAK256 PUSH1 0x1 ADD SWAP1 DUP2 PUSH2 0x56F SWAP2 SWAP1 PUSH2 0x119B JUMP JUMPDEST POP DUP4 PUSH1 0x3 PUSH0 DUP7 PUSH20 0xFFFFFFFFFFFFFFFFFFFFFFFFFFFFFFFFFFFFFFFF AND PUSH20 0xFFFFFFFFFFFFFFFFFFFFFFFFFFFFFFFFFFFFFFFF AND DUP2 MSTORE PUSH1 0x20 ADD SWAP1 DUP2 MSTORE PUSH1 0x20 ADD PUSH0 KECCAK256 PUSH0 ADD PUSH0 PUSH2 0x100 EXP DUP2 SLOAD DUP2 PUSH20 0xFFFFFFFFFFFFFFFFFFFFFFFFFFFFFFFFFFFFFFFF MUL NOT AND SWAP1 DUP4 PUSH20 0xFFFFFFFFFFFFFFFFFFFFFFFFFFFFFFFFFFFFFFFF AND MUL OR SWAP1 SSTORE POP POP POP POP POP JUMP JUMPDEST PUSH0 PUSH0 SWAP1 SLOAD SWAP1 PUSH2 0x100 EXP SWAP1 DIV PUSH20 0xFFFFFFFFFFFFFFFFFFFFFFFFFFFFFFFFFFFFFFFF AND PUSH20 0xFFFFFFFFFFFFFFFFFFFFFFFFFFFFFFFFFFFFFFFF AND CALLER PUSH20 0xFFFFFFFFFFFFFFFFFFFFFFFFFFFFFFFFFFFFFFFF AND EQ PUSH2 0x681 JUMPI PUSH1 0x40 MLOAD PUSH32 0x8C379A000000000000000000000000000000000000000000000000000000000 DUP2 MSTORE PUSH1 0x4 ADD PUSH2 0x678 SWAP1 PUSH2 0x12B4 JUMP JUMPDEST PUSH1 0x40 MLOAD DUP1 SWAP2 SUB SWAP1 REVERT JUMPDEST DUP1 PUSH1 0x1 PUSH0 DUP5 DUP2 MSTORE PUSH1 0x20 ADD SWAP1 DUP2 MSTORE PUSH1 0x20 ADD PUSH0 KECCAK256 DUP2 SWAP1 SSTORE POP POP POP JUMP JUMPDEST PUSH1 0x1 PUSH1 0x20 MSTORE DUP1 PUSH0 MSTORE PUSH1 0x40 PUSH0 KECCAK256 PUSH0 SWAP2 POP SWAP1 POP SLOAD DUP2 JUMP JUMPDEST PUSH0 PUSH0 SWAP1 SLOAD SWAP1 PUSH2 0x100 EXP SWAP1 DIV PUSH20 0xFFFFFFFFFFFFFFFFFFFFFFFFFFFFFFFFFFFFFFFF AND DUP2 JUMP JUMPDEST PUSH1 0x3 PUSH1 0x20 MSTORE DUP1 PUSH0 MSTORE PUSH1 0x40 PUSH0 KECCAK256 PUSH0 SWAP2 POP SWAP1 POP DUP1 PUSH0 ADD PUSH0 SWAP1 SLOAD SWAP1 PUSH2 0x100 EXP SWAP1 DIV PUSH20 0xFFFFFFFFFFFFFFFFFFFFFFFFFFFFFFFFFFFFFFFF AND SWAP1 DUP1 PUSH1 0x1 ADD DUP1 SLOAD PUSH2 0x718 SWAP1 PUSH2 0xED0 JUMP JUMPDEST DUP1 PUSH1 0x1F ADD PUSH1 0x20 DUP1 SWAP2 DIV MUL PUSH1 0x20 ADD PUSH1 0x40 MLOAD SWAP1 DUP2 ADD PUSH1 0x40 MSTORE DUP1 SWAP3 SWAP2 SWAP1 DUP2 DUP2 MSTORE PUSH1 0x20 ADD DUP3 DUP1 SLOAD PUSH2 0x744 SWAP1 PUSH2 0xED0 JUMP JUMPDEST DUP1 ISZERO PUSH2 0x78F JUMPI DUP1 PUSH1 0x1F LT PUSH2 0x766 JUMPI PUSH2 0x100 DUP1 DUP4 SLOAD DIV MUL DUP4 MSTORE SWAP2 PUSH1 0x20 ADD SWAP2 PUSH2 0x78F JUMP JUMPDEST DUP3 ADD SWAP2 SWAP1 PUSH0 MSTORE PUSH1 0x20 PUSH0 KECCAK256 SWAP1 JUMPDEST DUP2 SLOAD DUP2 MSTORE SWAP1 PUSH1 0x1 ADD SWAP1 PUSH1 0x20 ADD DUP1 DUP4 GT PUSH2 0x772 JUMPI DUP3 SWAP1 SUB PUSH1 0x1F AND DUP3 ADD SWAP2 JUMPDEST POP POP POP POP POP SWAP1 DUP1 PUSH1 0x2 ADD SLOAD SWAP1 POP DUP4 JUMP JUMPDEST DUP1 PUSH1 0x2 DUP4 PUSH1 0x40 MLOAD PUSH2 0x7B0 SWAP2 SWAP1 PUSH2 0xE8D JUMP JUMPDEST SWAP1 DUP2 MSTORE PUSH1 0x20 ADD PUSH1 0x40 MLOAD DUP1 SWAP2 SUB SWAP1 KECCAK256 PUSH1 0x1 ADD PUSH0 PUSH2 0x100 EXP DUP2 SLOAD DUP2 PUSH20 0xFFFFFFFFFFFFFFFFFFFFFFFFFFFFFFFFFFFFFFFF MUL NOT AND SWAP1 DUP4 PUSH20 0xFFFFFFFFFFFFFFFFFFFFFFFFFFFFFFFFFFFFFFFF AND MUL OR SWAP1 SSTORE POP POP POP JUMP JUMPDEST PUSH1 0x40 MLOAD DUP1 PUSH1 0x60 ADD PUSH1 0x40 MSTORE DUP1 DUP3 DUP2 MSTORE PUSH1 0x20 ADD CALLER PUSH20 0xFFFFFFFFFFFFFFFFFFFFFFFFFFFFFFFFFFFFFFFF AND DUP2 MSTORE PUSH1 0x20 ADD PUSH0 DUP2 MSTORE POP PUSH1 0x2 DUP3 PUSH1 0x40 MLOAD PUSH2 0x843 SWAP2 SWAP1 PUSH2 0xE8D JUMP JUMPDEST SWAP1 DUP2 MSTORE PUSH1 0x20 ADD PUSH1 0x40 MLOAD DUP1 SWAP2 SUB SWAP1 KECCAK256 PUSH0 DUP3 ADD MLOAD DUP2 PUSH0 ADD SWAP1 DUP2 PUSH2 0x864 SWAP2 SWAP1 PUSH2 0x119B JUMP JUMPDEST POP PUSH1 0x20 DUP3 ADD MLOAD DUP2 PUSH1 0x1 ADD PUSH0 PUSH2 0x100 EXP DUP2 SLOAD DUP2 PUSH20 0xFFFFFFFFFFFFFFFFFFFFFFFFFFFFFFFFFFFFFFFF MUL NOT AND SWAP1 DUP4 PUSH20 0xFFFFFFFFFFFFFFFFFFFFFFFFFFFFFFFFFFFFFFFF AND MUL OR SWAP1 SSTORE POP PUSH1 0x40 DUP3 ADD MLOAD DUP2 PUSH1 0x2 ADD SSTORE SWAP1 POP POP CALLER PUSH20 0xFFFFFFFFFFFFFFFFFFFFFFFFFFFFFFFFFFFFFFFF AND DUP2 PUSH1 0x40 MLOAD PUSH2 0x8DD SWAP2 SWAP1 PUSH2 0xE8D JUMP JUMPDEST PUSH1 0x40 MLOAD DUP1 SWAP2 SUB SWAP1 KECCAK256 PUSH32 0x5303D8F6A62614D593A982FFE01281D91A27F12026951B9567B58807FDEBB5DF PUSH1 0x40 MLOAD PUSH1 0x40 MLOAD DUP1 SWAP2 SUB SWAP1 LOG3 POP JUMP JUMPDEST PUSH0 PUSH1 0x40 MLOAD SWAP1 POP SWAP1 JUMP JUMPDEST PUSH0 PUSH0 REVERT JUMPDEST PUSH0 PUSH0 REVERT JUMPDEST PUSH0 PUSH0 REVERT JUMPDEST PUSH0 PUSH0 REVERT JUMPDEST PUSH0 PUSH1 0x1F NOT PUSH1 0x1F DUP4 ADD AND SWAP1 POP SWAP2 SWAP1 POP JUMP JUMPDEST PUSH32 0x4E487B7100000000000000000000000000000000000000000000000000000000 PUSH0 MSTORE PUSH1 0x41 PUSH1 0x4 MSTORE PUSH1 0x24 PUSH0 REVERT JUMPDEST PUSH2 0x973 DUP3 PUSH2 0x92D JUMP JUMPDEST DUP2 ADD DUP2 DUP2 LT PUSH8 0xFFFFFFFFFFFFFFFF DUP3 GT OR ISZERO PUSH2 0x992 JUMPI PUSH2 0x991 PUSH2 0x93D JUMP JUMPDEST JUMPDEST DUP1 PUSH1 0x40 MSTORE POP POP POP JUMP JUMPDEST PUSH0 PUSH2 0x9A4 PUSH2 0x914 JUMP JUMPDEST SWAP1 POP PUSH2 0x9B0 DUP3 DUP3 PUSH2 0x96A JUMP JUMPDEST SWAP2 SWAP1 POP JUMP JUMPDEST PUSH0 PUSH8 0xFFFFFFFFFFFFFFFF DUP3 GT ISZERO PUSH2 0x9CF JUMPI PUSH2 0x9CE PUSH2 0x93D JUMP JUMPDEST JUMPDEST PUSH2 0x9D8 DUP3 PUSH2 0x92D JUMP JUMPDEST SWAP1 POP PUSH1 0x20 DUP2 ADD SWAP1 POP SWAP2 SWAP1 POP JUMP JUMPDEST DUP3 DUP2 DUP4 CALLDATACOPY PUSH0 DUP4 DUP4 ADD MSTORE POP POP POP JUMP JUMPDEST PUSH0 PUSH2 0xA05 PUSH2 0xA00 DUP5 PUSH2 0x9B5 JUMP JUMPDEST PUSH2 0x99B JUMP JUMPDEST SWAP1 POP DUP3 DUP2 MSTORE PUSH1 0x20 DUP2 ADD DUP5 DUP5 DUP5 ADD GT ISZERO PUSH2 0xA21 JUMPI PUSH2 0xA20 PUSH2 0x929 JUMP JUMPDEST JUMPDEST PUSH2 0xA2C DUP5 DUP3 DUP6 PUSH2 0x9E5 JUMP JUMPDEST POP SWAP4 SWAP3 POP POP POP JUMP JUMPDEST PUSH0 DUP3 PUSH1 0x1F DUP4 ADD SLT PUSH2 0xA48 JUMPI PUSH2 0xA47 PUSH2 0x925 JUMP JUMPDEST JUMPDEST DUP2 CALLDATALOAD PUSH2 0xA58 DUP5 DUP3 PUSH1 0x20 DUP7 ADD PUSH2 0x9F3 JUMP JUMPDEST SWAP2 POP POP SWAP3 SWAP2 POP POP JUMP JUMPDEST PUSH0 DUP2 SWAP1 POP SWAP2 SWAP1 POP JUMP JUMPDEST PUSH2 0xA73 DUP2 PUSH2 0xA61 JUMP JUMPDEST DUP2 EQ PUSH2 0xA7D JUMPI PUSH0 PUSH0 REVERT JUMPDEST POP JUMP JUMPDEST PUSH0 DUP2 CALLDATALOAD SWAP1 POP PUSH2 0xA8E DUP2 PUSH2 0xA6A JUMP JUMPDEST SWAP3 SWAP2 POP POP JUMP JUMPDEST PUSH0 PUSH0 PUSH1 0x40 DUP4 DUP6 SUB SLT ISZERO PUSH2 0xAAA JUMPI PUSH2 0xAA9 PUSH2 0x91D JUMP JUMPDEST JUMPDEST PUSH0 DUP4 ADD CALLDATALOAD PUSH8 0xFFFFFFFFFFFFFFFF DUP2 GT ISZERO PUSH2 0xAC7 JUMPI PUSH2 0xAC6 PUSH2 0x921 JUMP JUMPDEST JUMPDEST PUSH2 0xAD3 DUP6 DUP3 DUP7 ADD PUSH2 0xA34 JUMP JUMPDEST SWAP3 POP POP PUSH1 0x20 PUSH2 0xAE4 DUP6 DUP3 DUP7 ADD PUSH2 0xA80 JUMP JUMPDEST SWAP2 POP POP SWAP3 POP SWAP3 SWAP1 POP JUMP JUMPDEST PUSH0 PUSH1 0x20 DUP3 DUP5 SUB SLT ISZERO PUSH2 0xB03 JUMPI PUSH2 0xB02 PUSH2 0x91D JUMP JUMPDEST JUMPDEST PUSH0 DUP3 ADD CALLDATALOAD PUSH8 0xFFFFFFFFFFFFFFFF DUP2 GT ISZERO PUSH2 0xB20 JUMPI PUSH2 0xB1F PUSH2 0x921 JUMP JUMPDEST JUMPDEST PUSH2 0xB2C DUP5 DUP3 DUP6 ADD PUSH2 0xA34 JUMP JUMPDEST SWAP2 POP POP SWAP3 SWAP2 POP POP JUMP JUMPDEST PUSH0 DUP2 MLOAD SWAP1 POP SWAP2 SWAP1 POP JUMP JUMPDEST PUSH0 DUP3 DUP3 MSTORE PUSH1 0x20 DUP3 ADD SWAP1 POP SWAP3 SWAP2 POP POP JUMP JUMPDEST DUP3 DUP2 DUP4 MCOPY PUSH0 DUP4 DUP4 ADD MSTORE POP POP POP JUMP JUMPDEST PUSH0 PUSH2 0xB67 DUP3 PUSH2 0xB35 JUMP JUMPDEST PUSH2 0xB71 DUP2 DUP6 PUSH2 0xB3F JUMP JUMPDEST SWAP4 POP PUSH2 0xB81 DUP2 DUP6 PUSH1 0x20 DUP7 ADD PUSH2 0xB4F JUMP JUMPDEST PUSH2 0xB8A DUP2 PUSH2 0x92D JUMP JUMPDEST DUP5 ADD SWAP2 POP POP SWAP3 SWAP2 POP POP JUMP JUMPDEST PUSH2 0xB9E DUP2 PUSH2 0xA61 JUMP JUMPDEST DUP3 MSTORE POP POP JUMP JUMPDEST PUSH0 PUSH1 0x40 DUP3 ADD SWAP1 POP DUP2 DUP2 SUB PUSH0 DUP4 ADD MSTORE PUSH2 0xBBC DUP2 DUP6 PUSH2 0xB5D JUMP JUMPDEST SWAP1 POP PUSH2 0xBCB PUSH1 0x20 DUP4 ADD DUP5 PUSH2 0xB95 JUMP JUMPDEST SWAP4 SWAP3 POP POP POP JUMP JUMPDEST PUSH0 PUSH20 0xFFFFFFFFFFFFFFFFFFFFFFFFFFFFFFFFFFFFFFFF DUP3 AND SWAP1 POP SWAP2 SWAP1 POP JUMP JUMPDEST PUSH0 PUSH2 0xBFB DUP3 PUSH2 0xBD2 JUMP JUMPDEST SWAP1 POP SWAP2 SWAP1 POP JUMP JUMPDEST PUSH2 0xC0B DUP2 PUSH2 0xBF1 JUMP JUMPDEST DUP3 MSTORE POP POP JUMP JUMPDEST PUSH0 PUSH1 0x60 DUP3 ADD SWAP1 POP DUP2 DUP2 SUB PUSH0 DUP4 ADD MSTORE PUSH2 0xC29 DUP2 DUP7 PUSH2 0xB5D JUMP JUMPDEST SWAP1 POP PUSH2 0xC38 PUSH1 0x20 DUP4 ADD DUP6 PUSH2 0xC02 JUMP JUMPDEST PUSH2 0xC45 PUSH1 0x40 DUP4 ADD DUP5 PUSH2 0xB95 JUMP JUMPDEST SWAP5 SWAP4 POP POP POP POP JUMP JUMPDEST PUSH2 0xC56 DUP2 PUSH2 0xBF1 JUMP JUMPDEST DUP2 EQ PUSH2 0xC60 JUMPI PUSH0 PUSH0 REVERT JUMPDEST POP JUMP JUMPDEST PUSH0 DUP2 CALLDATALOAD SWAP1 POP PUSH2 0xC71 DUP2 PUSH2 0xC4D JUMP JUMPDEST SWAP3 SWAP2 POP POP JUMP JUMPDEST PUSH0 PUSH0 PUSH0 PUSH0 PUSH1 0x80 DUP6 DUP8 SUB SLT ISZERO PUSH2 0xC8F JUMPI PUSH2 0xC8E PUSH2 0x91D JUMP JUMPDEST JUMPDEST PUSH0 PUSH2 0xC9C DUP8 DUP3 DUP9 ADD PUSH2 0xC63 JUMP JUMPDEST SWAP5 POP POP PUSH1 0x20 DUP6 ADD CALLDATALOAD PUSH8 0xFFFFFFFFFFFFFFFF DUP2 GT ISZERO PUSH2 0xCBD JUMPI PUSH2 0xCBC PUSH2 0x921 JUMP JUMPDEST JUMPDEST PUSH2 0xCC9 DUP8 DUP3 DUP9 ADD PUSH2 0xA34 JUMP JUMPDEST SWAP4 POP POP PUSH1 0x40 PUSH2 0xCDA DUP8 DUP3 DUP9 ADD PUSH2 0xA80 JUMP JUMPDEST SWAP3 POP POP PUSH1 0x60 PUSH2 0xCEB DUP8 DUP3 DUP9 ADD PUSH2 0xA80 JUMP JUMPDEST SWAP2 POP POP SWAP3 SWAP6 SWAP2 SWAP5 POP SWAP3 POP JUMP JUMPDEST PUSH0 PUSH0 PUSH1 0x40 DUP4 DUP6 SUB SLT ISZERO PUSH2 0xD0D JUMPI PUSH2 0xD0C PUSH2 0x91D JUMP JUMPDEST JUMPDEST PUSH0 PUSH2 0xD1A DUP6 DUP3 DUP7 ADD PUSH2 0xA80 JUMP JUMPDEST SWAP3 POP POP PUSH1 0x20 PUSH2 0xD2B DUP6 DUP3 DUP7 ADD PUSH2 0xA80 JUMP JUMPDEST SWAP2 POP POP SWAP3 POP SWAP3 SWAP1 POP JUMP JUMPDEST PUSH0 PUSH1 0x20 DUP3 DUP5 SUB SLT ISZERO PUSH2 0xD4A JUMPI PUSH2 0xD49 PUSH2 0x91D JUMP JUMPDEST JUMPDEST PUSH0 PUSH2 0xD57 DUP5 DUP3 DUP6 ADD PUSH2 0xA80 JUMP JUMPDEST SWAP2 POP POP SWAP3 SWAP2 POP POP JUMP JUMPDEST PUSH0 PUSH1 0x20 DUP3 ADD SWAP1 POP PUSH2 0xD73 PUSH0 DUP4 ADD DUP5 PUSH2 0xB95 JUMP JUMPDEST SWAP3 SWAP2 POP POP JUMP JUMPDEST PUSH0 PUSH1 0x20 DUP3 ADD SWAP1 POP PUSH2 0xD8C PUSH0 DUP4 ADD DUP5 PUSH2 0xC02 JUMP JUMPDEST SWAP3 SWAP2 POP POP JUMP JUMPDEST PUSH0 PUSH1 0x20 DUP3 DUP5 SUB SLT ISZERO PUSH2 0xDA7 JUMPI PUSH2 0xDA6 PUSH2 0x91D JUMP JUMPDEST JUMPDEST PUSH0 PUSH2 0xDB4 DUP5 DUP3 DUP6 ADD PUSH2 0xC63 JUMP JUMPDEST SWAP2 POP POP SWAP3 SWAP2 POP POP JUMP JUMPDEST PUSH0 PUSH1 0x60 DUP3 ADD SWAP1 POP PUSH2 0xDD0 PUSH0 DUP4 ADD DUP7 PUSH2 0xC02 JUMP JUMPDEST DUP2 DUP2 SUB PUSH1 0x20 DUP4 ADD MSTORE PUSH2 0xDE2 DUP2 DUP6 PUSH2 0xB5D JUMP JUMPDEST SWAP1 POP PUSH2 0xDF1 PUSH1 0x40 DUP4 ADD DUP5 PUSH2 0xB95 JUMP JUMPDEST SWAP5 SWAP4 POP POP POP POP JUMP JUMPDEST PUSH0 PUSH0 PUSH1 0x40 DUP4 DUP6 SUB SLT ISZERO PUSH2 0xE0F JUMPI PUSH2 0xE0E PUSH2 0x91D JUMP JUMPDEST JUMPDEST PUSH0 DUP4 ADD CALLDATALOAD PUSH8 0xFFFFFFFFFFFFFFFF DUP2 GT ISZERO PUSH2 0xE2C JUMPI PUSH2 0xE2B PUSH2 0x921 JUMP JUMPDEST JUMPDEST PUSH2 0xE38 DUP6 DUP3 DUP7 ADD PUSH2 0xA34 JUMP JUMPDEST SWAP3 POP POP PUSH1 0x20 PUSH2 0xE49 DUP6 DUP3 DUP7 ADD PUSH2 0xC63 JUMP JUMPDEST SWAP2 POP POP SWAP3 POP SWAP3 SWAP1 POP JUMP JUMPDEST PUSH0 DUP2 SWAP1 POP SWAP3 SWAP2 POP POP JUMP JUMPDEST PUSH0 PUSH2 0xE67 DUP3 PUSH2 0xB35 JUMP JUMPDEST PUSH2 0xE71 DUP2 DUP6 PUSH2 0xE53 JUMP JUMPDEST SWAP4 POP PUSH2 0xE81 DUP2 DUP6 PUSH1 0x20 DUP7 ADD PUSH2 0xB4F JUMP JUMPDEST DUP1 DUP5 ADD SWAP2 POP POP SWAP3 SWAP2 POP POP JUMP JUMPDEST PUSH0 PUSH2 0xE98 DUP3 DUP5 PUSH2 0xE5D JUMP JUMPDEST SWAP2 POP DUP2 SWAP1 POP SWAP3 SWAP2 POP POP JUMP JUMPDEST PUSH32 0x4E487B7100000000000000000000000000000000000000000000000000000000 PUSH0 MSTORE PUSH1 0x22 PUSH1 0x4 MSTORE PUSH1 0x24 PUSH0 REVERT JUMPDEST PUSH0 PUSH1 0x2 DUP3 DIV SWAP1 POP PUSH1 0x1 DUP3 AND DUP1 PUSH2 0xEE7 JUMPI PUSH1 0x7F DUP3 AND SWAP2 POP JUMPDEST PUSH1 0x20 DUP3 LT DUP2 SUB PUSH2 0xEFA JUMPI PUSH2 0xEF9 PUSH2 0xEA3 JUMP JUMPDEST JUMPDEST POP SWAP2 SWAP1 POP JUMP JUMPDEST PUSH32 0x416D6F756E7420616E6420706179206D75737420626520677277000000000000 PUSH0 DUP3 ADD MSTORE POP JUMP JUMPDEST PUSH0 PUSH2 0xF34 PUSH1 0x1A DUP4 PUSH2 0xB3F JUMP JUMPDEST SWAP2 POP PUSH2 0xF3F DUP3 PUSH2 0xF00 JUMP JUMPDEST PUSH1 0x20 DUP3 ADD SWAP1 POP SWAP2 SWAP1 POP JUMP JUMPDEST PUSH0 PUSH1 0x20 DUP3 ADD SWAP1 POP DUP2 DUP2 SUB PUSH0 DUP4 ADD MSTORE PUSH2 0xF61 DUP2 PUSH2 0xF28 JUMP JUMPDEST SWAP1 POP SWAP2 SWAP1 POP JUMP JUMPDEST PUSH32 0x4E487B7100000000000000000000000000000000000000000000000000000000 PUSH0 MSTORE PUSH1 0x11 PUSH1 0x4 MSTORE PUSH1 0x24 PUSH0 REVERT JUMPDEST PUSH0 PUSH2 0xF9F DUP3 PUSH2 0xA61 JUMP JUMPDEST SWAP2 POP PUSH2 0xFAA DUP4 PUSH2 0xA61 JUMP JUMPDEST SWAP3 POP DUP3 DUP3 SUB SWAP1 POP DUP2 DUP2 GT ISZERO PUSH2 0xFC2 JUMPI PUSH2 0xFC1 PUSH2 0xF68 JUMP JUMPDEST JUMPDEST SWAP3 SWAP2 POP POP JUMP JUMPDEST PUSH0 PUSH2 0xFD2 DUP3 PUSH2 0xA61 JUMP JUMPDEST SWAP2 POP PUSH2 0xFDD DUP4 PUSH2 0xA61 JUMP JUMPDEST SWAP3 POP DUP3 DUP3 ADD SWAP1 POP DUP1 DUP3 GT ISZERO PUSH2 0xFF5 JUMPI PUSH2 0xFF4 PUSH2 0xF68 JUMP JUMPDEST JUMPDEST SWAP3 SWAP2 POP POP JUMP JUMPDEST PUSH0 DUP2 SWAP1 POP DUP2 PUSH0 MSTORE PUSH1 0x20 PUSH0 KECCAK256 SWAP1 POP SWAP2 SWAP1 POP JUMP JUMPDEST PUSH0 PUSH1 0x20 PUSH1 0x1F DUP4 ADD DIV SWAP1 POP SWAP2 SWAP1 POP JUMP JUMPDEST PUSH0 DUP3 DUP3 SHL SWAP1 POP SWAP3 SWAP2 POP POP JUMP JUMPDEST PUSH0 PUSH1 0x8 DUP4 MUL PUSH2 0x1057 PUSH32 0xFFFFFFFFFFFFFFFFFFFFFFFFFFFFFFFFFFFFFFFFFFFFFFFFFFFFFFFFFFFFFFFF DUP3 PUSH2 0x101C JUMP JUMPDEST PUSH2 0x1061 DUP7 DUP4 PUSH2 0x101C JUMP JUMPDEST SWAP6 POP DUP1 NOT DUP5 AND SWAP4 POP DUP1 DUP7 AND DUP5 OR SWAP3 POP POP POP SWAP4 SWAP3 POP POP POP JUMP JUMPDEST PUSH0 DUP2 SWAP1 POP SWAP2 SWAP1 POP JUMP JUMPDEST PUSH0 PUSH2 0x109C PUSH2 0x1097 PUSH2 0x1092 DUP5 PUSH2 0xA61 JUMP JUMPDEST PUSH2 0x1079 JUMP JUMPDEST PUSH2 0xA61 JUMP JUMPDEST SWAP1 POP SWAP2 SWAP1 POP JUMP JUMPDEST PUSH0 DUP2 SWAP1 POP SWAP2 SWAP1 POP JUMP JUMPDEST PUSH2 0x10B5 DUP4 PUSH2 0x1082 JUMP JUMPDEST PUSH2 0x10C9 PUSH2 0x10C1 DUP3 PUSH2 0x10A3 JUMP JUMPDEST DUP5 DUP5 SLOAD PUSH2 0x1028 JUMP JUMPDEST DUP3 SSTORE POP POP POP POP JUMP JUMPDEST PUSH0 PUSH0 SWAP1 POP SWAP1 JUMP JUMPDEST PUSH2 0x10E0 PUSH2 0x10D1 JUMP JUMPDEST PUSH2 0x10EB DUP2 DUP5 DUP5 PUSH2 0x10AC JUMP JUMPDEST POP POP POP JUMP JUMPDEST JUMPDEST DUP2 DUP2 LT ISZERO PUSH2 0x110E JUMPI PUSH2 0x1103 PUSH0 DUP3 PUSH2 0x10D8 JUMP JUMPDEST PUSH1 0x1 DUP2 ADD SWAP1 POP PUSH2 0x10F1 JUMP JUMPDEST POP POP JUMP JUMPDEST PUSH1 0x1F DUP3 GT ISZERO PUSH2 0x1153 JUMPI PUSH2 0x1124 DUP2 PUSH2 0xFFB JUMP JUMPDEST PUSH2 0x112D DUP5 PUSH2 0x100D JUMP JUMPDEST DUP2 ADD PUSH1 0x20 DUP6 LT ISZERO PUSH2 0x113C JUMPI DUP2 SWAP1 POP JUMPDEST PUSH2 0x1150 PUSH2 0x1148 DUP6 PUSH2 0x100D JUMP JUMPDEST DUP4 ADD DUP3 PUSH2 0x10F0 JUMP JUMPDEST POP POP JUMPDEST POP POP POP JUMP JUMPDEST PUSH0 DUP3 DUP3 SHR SWAP1 POP SWAP3 SWAP2 POP POP JUMP JUMPDEST PUSH0 PUSH2 0x1173 PUSH0 NOT DUP5 PUSH1 0x8 MUL PUSH2 0x1158 JUMP JUMPDEST NOT DUP1 DUP4 AND SWAP2 POP POP SWAP3 SWAP2 POP POP JUMP JUMPDEST PUSH0 PUSH2 0x118B DUP4 DUP4 PUSH2 0x1164 JUMP JUMPDEST SWAP2 POP DUP3 PUSH1 0x2 MUL DUP3 OR SWAP1 POP SWAP3 SWAP2 POP POP JUMP JUMPDEST PUSH2 0x11A4 DUP3 PUSH2 0xB35 JUMP JUMPDEST PUSH8 0xFFFFFFFFFFFFFFFF DUP2 GT ISZERO PUSH2 0x11BD JUMPI PUSH2 0x11BC PUSH2 0x93D JUMP JUMPDEST JUMPDEST PUSH2 0x11C7 DUP3 SLOAD PUSH2 0xED0 JUMP JUMPDEST PUSH2 0x11D2 DUP3 DUP3 DUP6 PUSH2 0x1112 JUMP JUMPDEST PUSH0 PUSH1 0x20 SWAP1 POP PUSH1 0x1F DUP4 GT PUSH1 0x1 DUP2 EQ PUSH2 0x1203 JUMPI PUSH0 DUP5 ISZERO PUSH2 0x11F1 JUMPI DUP3 DUP8 ADD MLOAD SWAP1 POP JUMPDEST PUSH2 0x11FB DUP6 DUP3 PUSH2 0x1180 JUMP JUMPDEST DUP7 SSTORE POP PUSH2 0x1262 JUMP JUMPDEST PUSH1 0x1F NOT DUP5 AND PUSH2 0x1211 DUP7 PUSH2 0xFFB JUMP JUMPDEST PUSH0 JUMPDEST DUP3 DUP2 LT ISZERO PUSH2 0x1238 JUMPI DUP5 DUP10 ADD MLOAD DUP3 SSTORE PUSH1 0x1 DUP3 ADD SWAP2 POP PUSH1 0x20 DUP6 ADD SWAP5 POP PUSH1 0x20 DUP2 ADD SWAP1 POP PUSH2 0x1213 JUMP JUMPDEST DUP7 DUP4 LT ISZERO PUSH2 0x1255 JUMPI DUP5 DUP10 ADD MLOAD PUSH2 0x1251 PUSH1 0x1F DUP10 AND DUP3 PUSH2 0x1164 JUMP JUMPDEST DUP4 SSTORE POP JUMPDEST PUSH1 0x1 PUSH1 0x2 DUP9 MUL ADD DUP9 SSTORE POP POP POP JUMPDEST POP POP POP POP POP POP JUMP JUMPDEST PUSH32 0x4F6E6C79206F776E65722063616E2063616C6C00000000000000000000000000 PUSH0 DUP3 ADD MSTORE POP JUMP JUMPDEST PUSH0 PUSH2 0x129E PUSH1 0x13 DUP4 PUSH2 0xB3F JUMP JUMPDEST SWAP2 POP PUSH2 0x12A9 DUP3 PUSH2 0x126A JUMP JUMPDEST PUSH1 0x20 DUP3 ADD SWAP1 POP SWAP2 SWAP1 POP JUMP JUMPDEST PUSH0 PUSH1 0x20 DUP3 ADD SWAP1 POP DUP2 DUP2 SUB PUSH0 DUP4 ADD MSTORE PUSH2 0x12CB DUP2 PUSH2 0x1292 JUMP JUMPDEST SWAP1 POP SWAP2 SWAP1 POP JUMP INVALID LOG2 PUSH5 0x6970667358 0x22 SLT KECCAK256 0x4F 0xE8 ADD PUSH23 0xD73F5B5F724E82BD9F49C98416CD8FCE4F67E382766D06 SWAP6 ADDMOD 0x2D 0xAE 0xB8 PUSH5 0x736F6C6343 STOP ADDMOD 0x1E STOP CALLER "
				},
				"gasEstimates": {
					"creation": {
						"codeDepositCost": "974400",
						"executionCost": "25276",
						"totalCost": "999676"
					},
					"external": {
						"BuyOil(address,string,uint256,uint256)": "infinite",
						"ChangeOperator(string,address)": "infinite",
						"ChangeProduction(string,uint256)": "infinite",
						"CheckOil(string)": "infinite",
						"SetAmount(uint256,uint256)": "infinite",
						"amountToPrice(uint256)": "infinite",
						"buyers(address)": "infinite",
						"oilCreated(string)": "infinite",
						"oilWells(string)": "infinite",
						"owner()": "2529"
					}
				},
				"methodIdentifiers": {
					"BuyOil(address,string,uint256,uint256)": "560ff06e",
					"ChangeOperator(string,address)": "a00ac7bf",
					"ChangeProduction(string,uint256)": "03985522",
					"CheckOil(string)": "32f6b4a2",
					"SetAmount(uint256,uint256)": "6a1a1ff9",
					"amountToPrice(uint256)": "821c477f",
					"buyers(address)": "97a993aa",
					"oilCreated(string)": "f6f85be9",
					"oilWells(string)": "43870e38",
					"owner()": "8da5cb5b"
				}
			},
			"storageLayout": {
				"storage": [
					{
						"astId": 3,
						"contract": "oil&gas.sol:OilAndGas",
						"label": "owner",
						"offset": 0,
						"slot": "0",
						"type": "t_address"
					},
					{
						"astId": 21,
						"contract": "oil&gas.sol:OilAndGas",
						"label": "amountToPrice",
						"offset": 0,
						"slot": "1",
						"type": "t_mapping(t_uint256,t_uint256)"
					},
					{
						"astId": 26,
						"contract": "oil&gas.sol:OilAndGas",
						"label": "oilWells",
						"offset": 0,
						"slot": "2",
						"type": "t_mapping(t_string_memory_ptr,t_struct(OilWell)10_storage)"
					},
					{
						"astId": 31,
						"contract": "oil&gas.sol:OilAndGas",
						"label": "buyers",
						"offset": 0,
						"slot": "3",
						"type": "t_mapping(t_address,t_struct(Buyer)17_storage)"
					}
				],
				"types": {
					"t_address": {
						"encoding": "inplace",
						"label": "address",
						"numberOfBytes": "20"
					},
					"t_mapping(t_address,t_struct(Buyer)17_storage)": {
						"encoding": "mapping",
						"key": "t_address",
						"label": "mapping(address => struct OilAndGas.Buyer)",
						"numberOfBytes": "32",
						"value": "t_struct(Buyer)17_storage"
					},
					"t_mapping(t_string_memory_ptr,t_struct(OilWell)10_storage)": {
						"encoding": "mapping",
						"key": "t_string_memory_ptr",
						"label": "mapping(string => struct OilAndGas.OilWell)",
						"numberOfBytes": "32",
						"value": "t_struct(OilWell)10_storage"
					},
					"t_mapping(t_uint256,t_uint256)": {
						"encoding": "mapping",
						"key": "t_uint256",
						"label": "mapping(uint256 => uint256)",
						"numberOfBytes": "32",
						"value": "t_uint256"
					},
					"t_string_memory_ptr": {
						"encoding": "bytes",
						"label": "string",
						"numberOfBytes": "32"
					},
					"t_string_storage": {
						"encoding": "bytes",
						"label": "string",
						"numberOfBytes": "32"
					},
					"t_struct(Buyer)17_storage": {
						"encoding": "inplace",
						"label": "struct OilAndGas.Buyer",
						"members": [
							{
								"astId": 12,
								"contract": "oil&gas.sol:OilAndGas",
								"label": "buyerAddress",
								"offset": 0,
								"slot": "0",
								"type": "t_address"
							},
							{
								"astId": 14,
								"contract": "oil&gas.sol:OilAndGas",
								"label": "oilName",
								"offset": 0,
								"slot": "1",
								"type": "t_string_storage"
							},
							{
								"astId": 16,
								"contract": "oil&gas.sol:OilAndGas",
								"label": "amount",
								"offset": 0,
								"slot": "2",
								"type": "t_uint256"
							}
						],
						"numberOfBytes": "96"
					},
					"t_struct(OilWell)10_storage": {
						"encoding": "inplace",
						"label": "struct OilAndGas.OilWell",
						"members": [
							{
								"astId": 5,
								"contract": "oil&gas.sol:OilAndGas",
								"label": "name",
								"offset": 0,
								"slot": "0",
								"type": "t_string_storage"
							},
							{
								"astId": 7,
								"contract": "oil&gas.sol:OilAndGas",
								"label": "operator",
								"offset": 0,
								"slot": "1",
								"type": "t_address"
							},
							{
								"astId": 9,
								"contract": "oil&gas.sol:OilAndGas",
								"label": "production",
								"offset": 0,
								"slot": "2",
								"type": "t_uint256"
							}
						],
						"numberOfBytes": "96"
					},
					"t_uint256": {
						"encoding": "inplace",
						"label": "uint256",
						"numberOfBytes": "32"
					}
				}
			},
			"userdoc": {
				"kind": "user",
				"methods": {},
				"version": 1
			}
		}
	}
}