{
	"data": {
		"bytecode": {
			"linkReferences": {},
			"object": "608060405234801561000f575f5ffd5b50604051611a25380380611a25833981810160405281019061003191906100d0565b816006819055503360015f6101000a81548173ffffffffffffffffffffffffffffffffffffffff021916908373ffffffffffffffffffffffffffffffffffffffff1602179055504281610084919061013b565b6003819055506064600281905550505061016e565b5f5ffd5b5f819050919050565b6100af8161009d565b81146100b9575f5ffd5b50565b5f815190506100ca816100a6565b92915050565b5f5f604083850312156100e6576100e5610099565b5b5f6100f3858286016100bc565b9250506020610104858286016100bc565b9150509250929050565b7f4e487b71000000000000000000000000000000000000000000000000000000005f52601160045260245ffd5b5f6101458261009d565b91506101508361009d565b92508282019050808211156101685761016761010e565b5b92915050565b6118aa8061017b5f395ff3fe6080604052600436106100dc575f3560e01c80634e260f6f1161007e57806381d12c581161005857806381d12c581461025e578063d4b839921461029e578063db638f0b146102c8578063e241227e146102f2576100dc565b80634e260f6f146101f4578063590e1ae31461021e5780636c6b138814610234576100dc565b80631f6d4942116100ba5780631f6d49421461013c57806329dcb0cf14610178578063481c6a75146101a25780634cb6f4a5146101cc576100dc565b806306e99fef146100e057806312065fe0146100ea5780631b16bb5c14610114575b5f5ffd5b6100e861031a565b005b3480156100f5575f5ffd5b506100fe61046a565b60405161010b9190610c58565b60405180910390f35b34801561011f575f5ffd5b5061013a60048036038101906101359190610e42565b610471565b005b348015610147575f5ffd5b50610162600480360381019061015d9190610ee9565b6105b4565b60405161016f9190610c58565b60405180910390f35b348015610183575f5ffd5b5061018c6105c8565b6040516101999190610c58565b60405180910390f35b3480156101ad575f5ffd5b506101b66105ce565b6040516101c39190610f23565b60405180910390f35b3480156101d7575f5ffd5b506101f260048036038101906101ed9190610f3c565b6105f3565b005b3480156101ff575f5ffd5b5061020861078a565b6040516102159190610c58565b60405180910390f35b348015610229575f5ffd5b50610232610790565b005b34801561023f575f5ffd5b50610248610929565b6040516102559190610c58565b60405180910390f35b348015610269575f5ffd5b50610284600480360381019061027f9190610f3c565b61092f565b604051610295959493929190610ff0565b60405180910390f35b3480156102a9575f5ffd5b506102b2610a13565b6040516102bf9190610c58565b60405180910390f35b3480156102d3575f5ffd5b506102dc610a19565b6040516102e99190610c58565b60405180910390f35b3480156102fd575f5ffd5b5061031860048036038101906103139190610f3c565b610a1f565b005b600354421161035e576040517f08c379a000000000000000000000000000000000000000000000000000000000815260040161035590611092565b60405180910390fd5b6002543410156103a3576040517f08c379a000000000000000000000000000000000000000000000000000000000815260040161039a90611120565b60405180910390fd5b5f5f5f3373ffffffffffffffffffffffffffffffffffffffff1673ffffffffffffffffffffffffffffffffffffffff1681526020019081526020015f2054036103fe5760055f8154809291906103f89061116b565b91905055505b345f5f3373ffffffffffffffffffffffffffffffffffffffff1673ffffffffffffffffffffffffffffffffffffffff1681526020019081526020015f205f82825461044991906111b2565b925050819055503460045f82825461046191906111b2565b92505081905550565b5f47905090565b60015f9054906101000a900473ffffffffffffffffffffffffffffffffffffffff1673ffffffffffffffffffffffffffffffffffffffff163373ffffffffffffffffffffffffffffffffffffffff1614610500576040517f08c379a00000000000000000000000000000000000000000000000000000000081526004016104f790611255565b60405180910390fd5b5f60075f60085481526020019081526020015f20905060085f8154809291906105289061116b565b919050555083815f01908161053d9190611470565b5082816001015f6101000a81548173ffffffffffffffffffffffffffffffffffffffff021916908373ffffffffffffffffffffffffffffffffffffffff1602179055508181600201819055505f8160010160146101000a81548160ff0219169083151502179055505f816003018190555050505050565b5f602052805f5260405f205f915090505481565b60035481565b60015f9054906101000a900473ffffffffffffffffffffffffffffffffffffffff1681565b5f5f5f3373ffffffffffffffffffffffffffffffffffffffff1673ffffffffffffffffffffffffffffffffffffffff1681526020019081526020015f205411610671576040517f08c379a000000000000000000000000000000000000000000000000000000000815260040161066890611589565b60405180910390fd5b5f60075f8381526020019081526020015f2090505f1515816004015f3373ffffffffffffffffffffffffffffffffffffffff1673ffffffffffffffffffffffffffffffffffffffff1681526020019081526020015f205f9054906101000a900460ff16151514610716576040517f08c379a000000000000000000000000000000000000000000000000000000000815260040161070d906115f1565b60405180910390fd5b6001816004015f3373ffffffffffffffffffffffffffffffffffffffff1673ffffffffffffffffffffffffffffffffffffffff1681526020019081526020015f205f6101000a81548160ff021916908315150217905550806003015f8154809291906107819061116b565b91905055505050565b60055481565b600354421180156107a45750600654600454105b6107e3576040517f08c379a00000000000000000000000000000000000000000000000000000000081526004016107da90611659565b60405180910390fd5b5f5f5f3373ffffffffffffffffffffffffffffffffffffffff1673ffffffffffffffffffffffffffffffffffffffff1681526020019081526020015f205411610861576040517f08c379a0000000000000000000000000000000000000000000000000000000008152600401610858906116c1565b60405180910390fd5b5f3390508073ffffffffffffffffffffffffffffffffffffffff166108fc5f5f3373ffffffffffffffffffffffffffffffffffffffff1673ffffffffffffffffffffffffffffffffffffffff1681526020019081526020015f205490811502906040515f60405180830381858888f193505050501580156108e4573d5f5f3e3d5ffd5b505f5f5f3373ffffffffffffffffffffffffffffffffffffffff1673ffffffffffffffffffffffffffffffffffffffff1681526020019081526020015f208190555050565b60025481565b6007602052805f5260405f205f91509050805f01805461094e906112a0565b80601f016020809104026020016040519081016040528092919081815260200182805461097a906112a0565b80156109c55780601f1061099c576101008083540402835291602001916109c5565b820191905f5260205f20905b8154815290600101906020018083116109a857829003601f168201915b505050505090806001015f9054906101000a900473ffffffffffffffffffffffffffffffffffffffff16908060010160149054906101000a900460ff16908060020154908060030154905085565b60065481565b60045481565b60015f9054906101000a900473ffffffffffffffffffffffffffffffffffffffff1673ffffffffffffffffffffffffffffffffffffffff163373ffffffffffffffffffffffffffffffffffffffff1614610aae576040517f08c379a0000000000000000000000000000000000000000000000000000000008152600401610aa590611255565b60405180910390fd5b6006546004541015610af5576040517f08c379a0000000000000000000000000000000000000000000000000000000008152600401610aec90611729565b60405180910390fd5b5f60075f8381526020019081526020015f2090505f15158160010160149054906101000a900460ff16151514610b60576040517f08c379a0000000000000000000000000000000000000000000000000000000008152600401610b5790611791565b60405180910390fd5b6002600554610b6f91906117dc565b816003015411610bb4576040517f08c379a0000000000000000000000000000000000000000000000000000000008152600401610bab90611856565b60405180910390fd5b806001015f9054906101000a900473ffffffffffffffffffffffffffffffffffffffff1673ffffffffffffffffffffffffffffffffffffffff166108fc826002015490811502906040515f60405180830381858888f19350505050158015610c1e573d5f5f3e3d5ffd5b5060018160010160146101000a81548160ff0219169083151502179055505050565b5f819050919050565b610c5281610c40565b82525050565b5f602082019050610c6b5f830184610c49565b92915050565b5f604051905090565b5f5ffd5b5f5ffd5b5f5ffd5b5f5ffd5b5f601f19601f8301169050919050565b7f4e487b71000000000000000000000000000000000000000000000000000000005f52604160045260245ffd5b610cd082610c8a565b810181811067ffffffffffffffff82111715610cef57610cee610c9a565b5b80604052505050565b5f610d01610c71565b9050610d0d8282610cc7565b919050565b5f67ffffffffffffffff821115610d2c57610d2b610c9a565b5b610d3582610c8a565b9050602081019050919050565b828183375f83830152505050565b5f610d62610d5d84610d12565b610cf8565b905082815260208101848484011115610d7e57610d7d610c86565b5b610d89848285610d42565b509392505050565b5f82601f830112610da557610da4610c82565b5b8135610db5848260208601610d50565b91505092915050565b5f73ffffffffffffffffffffffffffffffffffffffff82169050919050565b5f610de782610dbe565b9050919050565b610df781610ddd565b8114610e01575f5ffd5b50565b5f81359050610e1281610dee565b92915050565b610e2181610c40565b8114610e2b575f5ffd5b50565b5f81359050610e3c81610e18565b92915050565b5f5f5f60608486031215610e5957610e58610c7a565b5b5f84013567ffffffffffffffff811115610e7657610e75610c7e565b5b610e8286828701610d91565b9350506020610e9386828701610e04565b9250506040610ea486828701610e2e565b9150509250925092565b5f610eb882610dbe565b9050919050565b610ec881610eae565b8114610ed2575f5ffd5b50565b5f81359050610ee381610ebf565b92915050565b5f60208284031215610efe57610efd610c7a565b5b5f610f0b84828501610ed5565b91505092915050565b610f1d81610eae565b82525050565b5f602082019050610f365f830184610f14565b92915050565b5f60208284031215610f5157610f50610c7a565b5b5f610f5e84828501610e2e565b91505092915050565b5f81519050919050565b5f82825260208201905092915050565b8281835e5f83830152505050565b5f610f9982610f67565b610fa38185610f71565b9350610fb3818560208601610f81565b610fbc81610c8a565b840191505092915050565b610fd081610ddd565b82525050565b5f8115159050919050565b610fea81610fd6565b82525050565b5f60a0820190508181035f8301526110088188610f8f565b90506110176020830187610fc7565b6110246040830186610fe1565b6110316060830185610c49565b61103e6080830184610c49565b9695505050505050565b7f446561646c696e652068617320706173736564000000000000000000000000005f82015250565b5f61107c601383610f71565b915061108782611048565b602082019050919050565b5f6020820190508181035f8301526110a981611070565b9050919050565b7f204d696e696d756d20636f6e747269627574696f6e206973206e6f74207361745f8201527f6973666965642100000000000000000000000000000000000000000000000000602082015250565b5f61110a602783610f71565b9150611115826110b0565b604082019050919050565b5f6020820190508181035f830152611137816110fe565b9050919050565b7f4e487b71000000000000000000000000000000000000000000000000000000005f52601160045260245ffd5b5f61117582610c40565b91507fffffffffffffffffffffffffffffffffffffffffffffffffffffffffffffffff82036111a7576111a661113e565b5b600182019050919050565b5f6111bc82610c40565b91506111c783610c40565b92508282019050808211156111df576111de61113e565b5b92915050565b7f6f6e6c79206d616e616765722063616e2063616c6c20746869732066756e63745f8201527f696f6e0000000000000000000000000000000000000000000000000000000000602082015250565b5f61123f602383610f71565b915061124a826111e5565b604082019050919050565b5f6020820190508181035f83015261126c81611233565b9050919050565b7f4e487b71000000000000000000000000000000000000000000000000000000005f52602260045260245ffd5b5f60028204905060018216806112b757607f821691505b6020821081036112ca576112c9611273565b5b50919050565b5f819050815f5260205f209050919050565b5f6020601f8301049050919050565b5f82821b905092915050565b5f6008830261132c7fffffffffffffffffffffffffffffffffffffffffffffffffffffffffffffffff826112f1565b61133686836112f1565b95508019841693508086168417925050509392505050565b5f819050919050565b5f61137161136c61136784610c40565b61134e565b610c40565b9050919050565b5f819050919050565b61138a83611357565b61139e61139682611378565b8484546112fd565b825550505050565b5f5f905090565b6113b56113a6565b6113c0818484611381565b505050565b5b818110156113e3576113d85f826113ad565b6001810190506113c6565b5050565b601f821115611428576113f9816112d0565b611402846112e2565b81016020851015611411578190505b61142561141d856112e2565b8301826113c5565b50505b505050565b5f82821c905092915050565b5f6114485f198460080261142d565b1980831691505092915050565b5f6114608383611439565b9150826002028217905092915050565b61147982610f67565b67ffffffffffffffff81111561149257611491610c9a565b5b61149c82546112a0565b6114a78282856113e7565b5f60209050601f8311600181146114d8575f84156114c6578287015190505b6114d08582611455565b865550611537565b601f1984166114e6866112d0565b5f5b8281101561150d578489015182556001820191506020850194506020810190506114e8565b8683101561152a5784890151611526601f891682611439565b8355505b6001600288020188555050505b505050505050565b7f596f75206d75737420636f6e74726962757465000000000000000000000000005f82015250565b5f611573601383610f71565b915061157e8261153f565b602082019050919050565b5f6020820190508181035f8301526115a081611567565b9050919050565b7f596f75206861766520616c726561647920766f746564000000000000000000005f82015250565b5f6115db601683610f71565b91506115e6826115a7565b602082019050919050565b5f6020820190508181035f830152611608816115cf565b9050919050565b7f596f7520617265206e6f7420656c696769626c6520666f7220726566756e64005f82015250565b5f611643601f83610f71565b915061164e8261160f565b602082019050919050565b5f6020820190508181035f83015261167081611637565b9050919050565b7f596f752063616e277420726566756e64000000000000000000000000000000005f82015250565b5f6116ab601083610f71565b91506116b682611677565b602082019050919050565b5f6020820190508181035f8301526116d88161169f565b9050919050565b7f546172676574206973206e6f74207265616368656400000000000000000000005f82015250565b5f611713601583610f71565b915061171e826116df565b602082019050919050565b5f6020820190508181035f83015261174081611707565b9050919050565b7f546865207265717565737420686173206265656e20636f6d706c6574656400005f82015250565b5f61177b601e83610f71565b915061178682611747565b602082019050919050565b5f6020820190508181035f8301526117a88161176f565b9050919050565b7f4e487b71000000000000000000000000000000000000000000000000000000005f52601260045260245ffd5b5f6117e682610c40565b91506117f183610c40565b925082611801576118006117af565b5b828204905092915050565b7f6d616a6f7269747920646f65736e277420737570706f727400000000000000005f82015250565b5f611840601883610f71565b915061184b8261180c565b602082019050919050565b5f6020820190508181035f83015261186d81611834565b905091905056fea26469706673582212209fce5c0814f18740be2ab1829bf9b9ad5bd84b027d1e30cc2f1eeebc11ca656564736f6c634300081e0033",
			"opcodes": "PUSH1 0x80 PUSH1 0x40 MSTORE CALLVALUE DUP1 ISZERO PUSH2 0xF JUMPI PUSH0 PUSH0 REVERT JUMPDEST POP PUSH1 0x40 MLOAD PUSH2 0x1A25 CODESIZE SUB DUP1 PUSH2 0x1A25 DUP4 CODECOPY DUP2 DUP2 ADD PUSH1 0x40 MSTORE DUP2 ADD SWAP1 PUSH2 0x31 SWAP2 SWAP1 PUSH2 0xD0 JUMP JUMPDEST DUP2 PUSH1 0x6 DUP2 SWAP1 SSTORE POP CALLER PUSH1 0x1 PUSH0 PUSH2 0x100 EXP DUP2 SLOAD DUP2 PUSH20 0xFFFFFFFFFFFFFFFFFFFFFFFFFFFFFFFFFFFFFFFF MUL NOT AND SWAP1 DUP4 PUSH20 0xFFFFFFFFFFFFFFFFFFFFFFFFFFFFFFFFFFFFFFFF AND MUL OR SWAP1 SSTORE POP TIMESTAMP DUP2 PUSH2 0x84 SWAP2 SWAP1 PUSH2 0x13B JUMP JUMPDEST PUSH1 0x3 DUP2 SWAP1 SSTORE POP PUSH1 0x64 PUSH1 0x2 DUP2 SWAP1 SSTORE POP POP POP PUSH2 0x16E JUMP JUMPDEST PUSH0 PUSH0 REVERT JUMPDEST PUSH0 DUP2 SWAP1 POP SWAP2 SWAP1 POP JUMP JUMPDEST PUSH2 0xAF DUP2 PUSH2 0x9D JUMP JUMPDEST DUP2 EQ PUSH2 0xB9 JUMPI PUSH0 PUSH0 REVERT JUMPDEST POP JUMP JUMPDEST PUSH0 DUP2 MLOAD SWAP1 POP PUSH2 0xCA DUP2 PUSH2 0xA6 JUMP JUMPDEST SWAP3 SWAP2 POP POP JUMP JUMPDEST PUSH0 PUSH0 PUSH1 0x40 DUP4 DUP6 SUB SLT ISZERO PUSH2 0xE6 JUMPI PUSH2 0xE5 PUSH2 0x99 JUMP JUMPDEST JUMPDEST PUSH0 PUSH2 0xF3 DUP6 DUP3 DUP7 ADD PUSH2 0xBC JUMP JUMPDEST SWAP3 POP POP PUSH1 0x20 PUSH2 0x104 DUP6 DUP3 DUP7 ADD PUSH2 0xBC JUMP JUMPDEST SWAP2 POP POP SWAP3 POP SWAP3 SWAP1 POP JUMP JUMPDEST PUSH32 0x4E487B7100000000000000000000000000000000000000000000000000000000 PUSH0 MSTORE PUSH1 0x11 PUSH1 0x4 MSTORE PUSH1 0x24 PUSH0 REVERT JUMPDEST PUSH0 PUSH2 0x145 DUP3 PUSH2 0x9D JUMP JUMPDEST SWAP2 POP PUSH2 0x150 DUP4 PUSH2 0x9D JUMP JUMPDEST SWAP3 POP DUP3 DUP3 ADD SWAP1 POP DUP1 DUP3 GT ISZERO PUSH2 0x168 JUMPI PUSH2 0x167 PUSH2 0x10E JUMP JUMPDEST JUMPDEST SWAP3 SWAP2 POP POP JUMP JUMPDEST PUSH2 0x18AA DUP1 PUSH2 0x17B PUSH0 CODECOPY PUSH0 RETURN INVALID PUSH1 0x80 PUSH1 0x40 MSTORE PUSH1 0x4 CALLDATASIZE LT PUSH2 0xDC JUMPI PUSH0 CALLDATALOAD PUSH1 0xE0 SHR DUP1 PUSH4 0x4E260F6F GT PUSH2 0x7E JUMPI DUP1 PUSH4 0x81D12C58 GT PUSH2 0x58 JUMPI DUP1 PUSH4 0x81D12C58 EQ PUSH2 0x25E JUMPI DUP1 PUSH4 0xD4B83992 EQ PUSH2 0x29E JUMPI DUP1 PUSH4 0xDB638F0B EQ PUSH2 0x2C8 JUMPI DUP1 PUSH4 0xE241227E EQ PUSH2 0x2F2 JUMPI PUSH2 0xDC JUMP JUMPDEST DUP1 PUSH4 0x4E260F6F EQ PUSH2 0x1F4 JUMPI DUP1 PUSH4 0x590E1AE3 EQ PUSH2 0x21E JUMPI DUP1 PUSH4 0x6C6B1388 EQ PUSH2 0x234 JUMPI PUSH2 0xDC JUMP JUMPDEST DUP1 PUSH4 0x1F6D4942 GT PUSH2 0xBA JUMPI DUP1 PUSH4 0x1F6D4942 EQ PUSH2 0x13C JUMPI DUP1 PUSH4 0x29DCB0CF EQ PUSH2 0x178 JUMPI DUP1 PUSH4 0x481C6A75 EQ PUSH2 0x1A2 JUMPI DUP1 PUSH4 0x4CB6F4A5 EQ PUSH2 0x1CC JUMPI PUSH2 0xDC JUMP JUMPDEST DUP1 PUSH4 0x6E99FEF EQ PUSH2 0xE0 JUMPI DUP1 PUSH4 0x12065FE0 EQ PUSH2 0xEA JUMPI DUP1 PUSH4 0x1B16BB5C EQ PUSH2 0x114 JUMPI JUMPDEST PUSH0 PUSH0 REVERT JUMPDEST PUSH2 0xE8 PUSH2 0x31A JUMP JUMPDEST STOP JUMPDEST CALLVALUE DUP1 ISZERO PUSH2 0xF5 JUMPI PUSH0 PUSH0 REVERT JUMPDEST POP PUSH2 0xFE PUSH2 0x46A JUMP JUMPDEST PUSH1 0x40 MLOAD PUSH2 0x10B SWAP2 SWAP1 PUSH2 0xC58 JUMP JUMPDEST PUSH1 0x40 MLOAD DUP1 SWAP2 SUB SWAP1 RETURN JUMPDEST CALLVALUE DUP1 ISZERO PUSH2 0x11F JUMPI PUSH0 PUSH0 REVERT JUMPDEST POP PUSH2 0x13A PUSH1 0x4 DUP1 CALLDATASIZE SUB DUP2 ADD SWAP1 PUSH2 0x135 SWAP2 SWAP1 PUSH2 0xE42 JUMP JUMPDEST PUSH2 0x471 JUMP JUMPDEST STOP JUMPDEST CALLVALUE DUP1 ISZERO PUSH2 0x147 JUMPI PUSH0 PUSH0 REVERT JUMPDEST POP PUSH2 0x162 PUSH1 0x4 DUP1 CALLDATASIZE SUB DUP2 ADD SWAP1 PUSH2 0x15D SWAP2 SWAP1 PUSH2 0xEE9 JUMP JUMPDEST PUSH2 0x5B4 JUMP JUMPDEST PUSH1 0x40 MLOAD PUSH2 0x16F SWAP2 SWAP1 PUSH2 0xC58 JUMP JUMPDEST PUSH1 0x40 MLOAD DUP1 SWAP2 SUB SWAP1 RETURN JUMPDEST CALLVALUE DUP1 ISZERO PUSH2 0x183 JUMPI PUSH0 PUSH0 REVERT JUMPDEST POP PUSH2 0x18C PUSH2 0x5C8 JUMP JUMPDEST PUSH1 0x40 MLOAD PUSH2 0x199 SWAP2 SWAP1 PUSH2 0xC58 JUMP JUMPDEST PUSH1 0x40 MLOAD DUP1 SWAP2 SUB SWAP1 RETURN JUMPDEST CALLVALUE DUP1 ISZERO PUSH2 0x1AD JUMPI PUSH0 PUSH0 REVERT JUMPDEST POP PUSH2 0x1B6 PUSH2 0x5CE JUMP JUMPDEST PUSH1 0x40 MLOAD PUSH2 0x1C3 SWAP2 SWAP1 PUSH2 0xF23 JUMP JUMPDEST PUSH1 0x40 MLOAD DUP1 SWAP2 SUB SWAP1 RETURN JUMPDEST CALLVALUE DUP1 ISZERO PUSH2 0x1D7 JUMPI PUSH0 PUSH0 REVERT JUMPDEST POP PUSH2 0x1F2 PUSH1 0x4 DUP1 CALLDATASIZE SUB DUP2 ADD SWAP1 PUSH2 0x1ED SWAP2 SWAP1 PUSH2 0xF3C JUMP JUMPDEST PUSH2 0x5F3 JUMP JUMPDEST STOP JUMPDEST CALLVALUE DUP1 ISZERO PUSH2 0x1FF JUMPI PUSH0 PUSH0 REVERT JUMPDEST POP PUSH2 0x208 PUSH2 0x78A JUMP JUMPDEST PUSH1 0x40 MLOAD PUSH2 0x215 SWAP2 SWAP1 PUSH2 0xC58 JUMP JUMPDEST PUSH1 0x40 MLOAD DUP1 SWAP2 SUB SWAP1 RETURN JUMPDEST CALLVALUE DUP1 ISZERO PUSH2 0x229 JUMPI PUSH0 PUSH0 REVERT JUMPDEST POP PUSH2 0x232 PUSH2 0x790 JUMP JUMPDEST STOP JUMPDEST CALLVALUE DUP1 ISZERO PUSH2 0x23F JUMPI PUSH0 PUSH0 REVERT JUMPDEST POP PUSH2 0x248 PUSH2 0x929 JUMP JUMPDEST PUSH1 0x40 MLOAD PUSH2 0x255 SWAP2 SWAP1 PUSH2 0xC58 JUMP JUMPDEST PUSH1 0x40 MLOAD DUP1 SWAP2 SUB SWAP1 RETURN JUMPDEST CALLVALUE DUP1 ISZERO PUSH2 0x269 JUMPI PUSH0 PUSH0 REVERT JUMPDEST POP PUSH2 0x284 PUSH1 0x4 DUP1 CALLDATASIZE SUB DUP2 ADD SWAP1 PUSH2 0x27F SWAP2 SWAP1 PUSH2 0xF3C JUMP JUMPDEST PUSH2 0x92F JUMP JUMPDEST PUSH1 0x40 MLOAD PUSH2 0x295 SWAP6 SWAP5 SWAP4 SWAP3 SWAP2 SWAP1 PUSH2 0xFF0 JUMP JUMPDEST PUSH1 0x40 MLOAD DUP1 SWAP2 SUB SWAP1 RETURN JUMPDEST CALLVALUE DUP1 ISZERO PUSH2 0x2A9 JUMPI PUSH0 PUSH0 REVERT JUMPDEST POP PUSH2 0x2B2 PUSH2 0xA13 JUMP JUMPDEST PUSH1 0x40 MLOAD PUSH2 0x2BF SWAP2 SWAP1 PUSH2 0xC58 JUMP JUMPDEST PUSH1 0x40 MLOAD DUP1 SWAP2 SUB SWAP1 RETURN JUMPDEST CALLVALUE DUP1 ISZERO PUSH2 0x2D3 JUMPI PUSH0 PUSH0 REVERT JUMPDEST POP PUSH2 0x2DC PUSH2 0xA19 JUMP JUMPDEST PUSH1 0x40 MLOAD PUSH2 0x2E9 SWAP2 SWAP1 PUSH2 0xC58 JUMP JUMPDEST PUSH1 0x40 MLOAD DUP1 SWAP2 SUB SWAP1 RETURN JUMPDEST CALLVALUE DUP1 ISZERO PUSH2 0x2FD JUMPI PUSH0 PUSH0 REVERT JUMPDEST POP PUSH2 0x318 PUSH1 0x4 DUP1 CALLDATASIZE SUB DUP2 ADD SWAP1 PUSH2 0x313 SWAP2 SWAP1 PUSH2 0xF3C JUMP JUMPDEST PUSH2 0xA1F JUMP JUMPDEST STOP JUMPDEST PUSH1 0x3 SLOAD TIMESTAMP GT PUSH2 0x35E JUMPI PUSH1 0x40 MLOAD PUSH32 0x8C379A000000000000000000000000000000000000000000000000000000000 DUP2 MSTORE PUSH1 0x4 ADD PUSH2 0x355 SWAP1 PUSH2 0x1092 JUMP JUMPDEST PUSH1 0x40 MLOAD DUP1 SWAP2 SUB SWAP1 REVERT JUMPDEST PUSH1 0x2 SLOAD CALLVALUE LT ISZERO PUSH2 0x3A3 JUMPI PUSH1 0x40 MLOAD PUSH32 0x8C379A000000000000000000000000000000000000000000000000000000000 DUP2 MSTORE PUSH1 0x4 ADD PUSH2 0x39A SWAP1 PUSH2 0x1120 JUMP JUMPDEST PUSH1 0x40 MLOAD DUP1 SWAP2 SUB SWAP1 REVERT JUMPDEST PUSH0 PUSH0 PUSH0 CALLER PUSH20 0xFFFFFFFFFFFFFFFFFFFFFFFFFFFFFFFFFFFFFFFF AND PUSH20 0xFFFFFFFFFFFFFFFFFFFFFFFFFFFFFFFFFFFFFFFF AND DUP2 MSTORE PUSH1 0x20 ADD SWAP1 DUP2 MSTORE PUSH1 0x20 ADD PUSH0 KECCAK256 SLOAD SUB PUSH2 0x3FE JUMPI PUSH1 0x5 PUSH0 DUP2 SLOAD DUP1 SWAP3 SWAP2 SWAP1 PUSH2 0x3F8 SWAP1 PUSH2 0x116B JUMP JUMPDEST SWAP2 SWAP1 POP SSTORE POP JUMPDEST CALLVALUE PUSH0 PUSH0 CALLER PUSH20 0xFFFFFFFFFFFFFFFFFFFFFFFFFFFFFFFFFFFFFFFF AND PUSH20 0xFFFFFFFFFFFFFFFFFFFFFFFFFFFFFFFFFFFFFFFF AND DUP2 MSTORE PUSH1 0x20 ADD SWAP1 DUP2 MSTORE PUSH1 0x20 ADD PUSH0 KECCAK256 PUSH0 DUP3 DUP3 SLOAD PUSH2 0x449 SWAP2 SWAP1 PUSH2 0x11B2 JUMP JUMPDEST SWAP3 POP POP DUP2 SWAP1 SSTORE POP CALLVALUE PUSH1 0x4 PUSH0 DUP3 DUP3 SLOAD PUSH2 0x461 SWAP2 SWAP1 PUSH2 0x11B2 JUMP JUMPDEST SWAP3 POP POP DUP2 SWAP1 SSTORE POP JUMP JUMPDEST PUSH0 SELFBALANCE SWAP1 POP SWAP1 JUMP JUMPDEST PUSH1 0x1 PUSH0 SWAP1 SLOAD SWAP1 PUSH2 0x100 EXP SWAP1 DIV PUSH20 0xFFFFFFFFFFFFFFFFFFFFFFFFFFFFFFFFFFFFFFFF AND PUSH20 0xFFFFFFFFFFFFFFFFFFFFFFFFFFFFFFFFFFFFFFFF AND CALLER PUSH20 0xFFFFFFFFFFFFFFFFFFFFFFFFFFFFFFFFFFFFFFFF AND EQ PUSH2 0x500 JUMPI PUSH1 0x40 MLOAD PUSH32 0x8C379A000000000000000000000000000000000000000000000000000000000 DUP2 MSTORE PUSH1 0x4 ADD PUSH2 0x4F7 SWAP1 PUSH2 0x1255 JUMP JUMPDEST PUSH1 0x40 MLOAD DUP1 SWAP2 SUB SWAP1 REVERT JUMPDEST PUSH0 PUSH1 0x7 PUSH0 PUSH1 0x8 SLOAD DUP2 MSTORE PUSH1 0x20 ADD SWAP1 DUP2 MSTORE PUSH1 0x20 ADD PUSH0 KECCAK256 SWAP1 POP PUSH1 0x8 PUSH0 DUP2 SLOAD DUP1 SWAP3 SWAP2 SWAP1 PUSH2 0x528 SWAP1 PUSH2 0x116B JUMP JUMPDEST SWAP2 SWAP1 POP SSTORE POP DUP4 DUP2 PUSH0 ADD SWAP1 DUP2 PUSH2 0x53D SWAP2 SWAP1 PUSH2 0x1470 JUMP JUMPDEST POP DUP3 DUP2 PUSH1 0x1 ADD PUSH0 PUSH2 0x100 EXP DUP2 SLOAD DUP2 PUSH20 0xFFFFFFFFFFFFFFFFFFFFFFFFFFFFFFFFFFFFFFFF MUL NOT AND SWAP1 DUP4 PUSH20 0xFFFFFFFFFFFFFFFFFFFFFFFFFFFFFFFFFFFFFFFF AND MUL OR SWAP1 SSTORE POP DUP2 DUP2 PUSH1 0x2 ADD DUP2 SWAP1 SSTORE POP PUSH0 DUP2 PUSH1 0x1 ADD PUSH1 0x14 PUSH2 0x100 EXP DUP2 SLOAD DUP2 PUSH1 0xFF MUL NOT AND SWAP1 DUP4 ISZERO ISZERO MUL OR SWAP1 SSTORE POP PUSH0 DUP2 PUSH1 0x3 ADD DUP2 SWAP1 SSTORE POP POP POP POP POP JUMP JUMPDEST PUSH0 PUSH1 0x20 MSTORE DUP1 PUSH0 MSTORE PUSH1 0x40 PUSH0 KECCAK256 PUSH0 SWAP2 POP SWAP1 POP SLOAD DUP2 JUMP JUMPDEST PUSH1 0x3 SLOAD DUP2 JUMP JUMPDEST PUSH1 0x1 PUSH0 SWAP1 SLOAD SWAP1 PUSH2 0x100 EXP SWAP1 DIV PUSH20 0xFFFFFFFFFFFFFFFFFFFFFFFFFFFFFFFFFFFFFFFF AND DUP2 JUMP JUMPDEST PUSH0 PUSH0 PUSH0 CALLER PUSH20 0xFFFFFFFFFFFFFFFFFFFFFFFFFFFFFFFFFFFFFFFF AND PUSH20 0xFFFFFFFFFFFFFFFFFFFFFFFFFFFFFFFFFFFFFFFF AND DUP2 MSTORE PUSH1 0x20 ADD SWAP1 DUP2 MSTORE PUSH1 0x20 ADD PUSH0 KECCAK256 SLOAD GT PUSH2 0x671 JUMPI PUSH1 0x40 MLOAD PUSH32 0x8C379A000000000000000000000000000000000000000000000000000000000 DUP2 MSTORE PUSH1 0x4 ADD PUSH2 0x668 SWAP1 PUSH2 0x1589 JUMP JUMPDEST PUSH1 0x40 MLOAD DUP1 SWAP2 SUB SWAP1 REVERT JUMPDEST PUSH0 PUSH1 0x7 PUSH0 DUP4 DUP2 MSTORE PUSH1 0x20 ADD SWAP1 DUP2 MSTORE PUSH1 0x20 ADD PUSH0 KECCAK256 SWAP1 POP PUSH0 ISZERO ISZERO DUP2 PUSH1 0x4 ADD PUSH0 CALLER PUSH20 0xFFFFFFFFFFFFFFFFFFFFFFFFFFFFFFFFFFFFFFFF AND PUSH20 0xFFFFFFFFFFFFFFFFFFFFFFFFFFFFFFFFFFFFFFFF AND DUP2 MSTORE PUSH1 0x20 ADD SWAP1 DUP2 MSTORE PUSH1 0x20 ADD PUSH0 KECCAK256 PUSH0 SWAP1 SLOAD SWAP1 PUSH2 0x100 EXP SWAP1 DIV PUSH1 0xFF AND ISZERO ISZERO EQ PUSH2 0x716 JUMPI PUSH1 0x40 MLOAD PUSH32 0x8C379A000000000000000000000000000000000000000000000000000000000 DUP2 MSTORE PUSH1 0x4 ADD PUSH2 0x70D SWAP1 PUSH2 0x15F1 JUMP JUMPDEST PUSH1 0x40 MLOAD DUP1 SWAP2 SUB SWAP1 REVERT JUMPDEST PUSH1 0x1 DUP2 PUSH1 0x4 ADD PUSH0 CALLER PUSH20 0xFFFFFFFFFFFFFFFFFFFFFFFFFFFFFFFFFFFFFFFF AND PUSH20 0xFFFFFFFFFFFFFFFFFFFFFFFFFFFFFFFFFFFFFFFF AND DUP2 MSTORE PUSH1 0x20 ADD SWAP1 DUP2 MSTORE PUSH1 0x20 ADD PUSH0 KECCAK256 PUSH0 PUSH2 0x100 EXP DUP2 SLOAD DUP2 PUSH1 0xFF MUL NOT AND SWAP1 DUP4 ISZERO ISZERO MUL OR SWAP1 SSTORE POP DUP1 PUSH1 0x3 ADD PUSH0 DUP2 SLOAD DUP1 SWAP3 SWAP2 SWAP1 PUSH2 0x781 SWAP1 PUSH2 0x116B JUMP JUMPDEST SWAP2 SWAP1 POP SSTORE POP POP POP JUMP JUMPDEST PUSH1 0x5 SLOAD DUP2 JUMP JUMPDEST PUSH1 0x3 SLOAD TIMESTAMP GT DUP1 ISZERO PUSH2 0x7A4 JUMPI POP PUSH1 0x6 SLOAD PUSH1 0x4 SLOAD LT JUMPDEST PUSH2 0x7E3 JUMPI PUSH1 0x40 MLOAD PUSH32 0x8C379A000000000000000000000000000000000000000000000000000000000 DUP2 MSTORE PUSH1 0x4 ADD PUSH2 0x7DA SWAP1 PUSH2 0x1659 JUMP JUMPDEST PUSH1 0x40 MLOAD DUP1 SWAP2 SUB SWAP1 REVERT JUMPDEST PUSH0 PUSH0 PUSH0 CALLER PUSH20 0xFFFFFFFFFFFFFFFFFFFFFFFFFFFFFFFFFFFFFFFF AND PUSH20 0xFFFFFFFFFFFFFFFFFFFFFFFFFFFFFFFFFFFFFFFF AND DUP2 MSTORE PUSH1 0x20 ADD SWAP1 DUP2 MSTORE PUSH1 0x20 ADD PUSH0 KECCAK256 SLOAD GT PUSH2 0x861 JUMPI PUSH1 0x40 MLOAD PUSH32 0x8C379A000000000000000000000000000000000000000000000000000000000 DUP2 MSTORE PUSH1 0x4 ADD PUSH2 0x858 SWAP1 PUSH2 0x16C1 JUMP JUMPDEST PUSH1 0x40 MLOAD DUP1 SWAP2 SUB SWAP1 REVERT JUMPDEST PUSH0 CALLER SWAP1 POP DUP1 PUSH20 0xFFFFFFFFFFFFFFFFFFFFFFFFFFFFFFFFFFFFFFFF AND PUSH2 0x8FC PUSH0 PUSH0 CALLER PUSH20 0xFFFFFFFFFFFFFFFFFFFFFFFFFFFFFFFFFFFFFFFF AND PUSH20 0xFFFFFFFFFFFFFFFFFFFFFFFFFFFFFFFFFFFFFFFF AND DUP2 MSTORE PUSH1 0x20 ADD SWAP1 DUP2 MSTORE PUSH1 0x20 ADD PUSH0 KECCAK256 SLOAD SWAP1 DUP2 ISZERO MUL SWAP1 PUSH1 0x40 MLOAD PUSH0 PUSH1 0x40 MLOAD DUP1 DUP4 SUB DUP2 DUP6 DUP9 DUP9 CALL SWAP4 POP POP POP POP ISZERO DUP1 ISZERO PUSH2 0x8E4 JUMPI RETURNDATASIZE PUSH0 PUSH0 RETURNDATACOPY RETURNDATASIZE PUSH0 REVERT JUMPDEST POP PUSH0 PUSH0 PUSH0 CALLER PUSH20 0xFFFFFFFFFFFFFFFFFFFFFFFFFFFFFFFFFFFFFFFF AND PUSH20 0xFFFFFFFFFFFFFFFFFFFFFFFFFFFFFFFFFFFFFFFF AND DUP2 MSTORE PUSH1 0x20 ADD SWAP1 DUP2 MSTORE PUSH1 0x20 ADD PUSH0 KECCAK256 DUP2 SWAP1 SSTORE POP POP JUMP JUMPDEST PUSH1 0x2 SLOAD DUP2 JUMP JUMPDEST PUSH1 0x7 PUSH1 0x20 MSTORE DUP1 PUSH0 MSTORE PUSH1 0x40 PUSH0 KECCAK256 PUSH0 SWAP2 POP SWAP1 POP DUP1 PUSH0 ADD DUP1 SLOAD PUSH2 0x94E SWAP1 PUSH2 0x12A0 JUMP JUMPDEST DUP1 PUSH1 0x1F ADD PUSH1 0x20 DUP1 SWAP2 DIV MUL PUSH1 0x20 ADD PUSH1 0x40 MLOAD SWAP1 DUP2 ADD PUSH1 0x40 MSTORE DUP1 SWAP3 SWAP2 SWAP1 DUP2 DUP2 MSTORE PUSH1 0x20 ADD DUP3 DUP1 SLOAD PUSH2 0x97A SWAP1 PUSH2 0x12A0 JUMP JUMPDEST DUP1 ISZERO PUSH2 0x9C5 JUMPI DUP1 PUSH1 0x1F LT PUSH2 0x99C JUMPI PUSH2 0x100 DUP1 DUP4 SLOAD DIV MUL DUP4 MSTORE SWAP2 PUSH1 0x20 ADD SWAP2 PUSH2 0x9C5 JUMP JUMPDEST DUP3 ADD SWAP2 SWAP1 PUSH0 MSTORE PUSH1 0x20 PUSH0 KECCAK256 SWAP1 JUMPDEST DUP2 SLOAD DUP2 MSTORE SWAP1 PUSH1 0x1 ADD SWAP1 PUSH1 0x20 ADD DUP1 DUP4 GT PUSH2 0x9A8 JUMPI DUP3 SWAP1 SUB PUSH1 0x1F AND DUP3 ADD SWAP2 JUMPDEST POP POP POP POP POP SWAP1 DUP1 PUSH1 0x1 ADD PUSH0 SWAP1 SLOAD SWAP1 PUSH2 0x100 EXP SWAP1 DIV PUSH20 0xFFFFFFFFFFFFFFFFFFFFFFFFFFFFFFFFFFFFFFFF AND SWAP1 DUP1 PUSH1 0x1 ADD PUSH1 0x14 SWAP1 SLOAD SWAP1 PUSH2 0x100 EXP SWAP1 DIV PUSH1 0xFF AND SWAP1 DUP1 PUSH1 0x2 ADD SLOAD SWAP1 DUP1 PUSH1 0x3 ADD SLOAD SWAP1 POP DUP6 JUMP JUMPDEST PUSH1 0x6 SLOAD DUP2 JUMP JUMPDEST PUSH1 0x4 SLOAD DUP2 JUMP JUMPDEST PUSH1 0x1 PUSH0 SWAP1 SLOAD SWAP1 PUSH2 0x100 EXP SWAP1 DIV PUSH20 0xFFFFFFFFFFFFFFFFFFFFFFFFFFFFFFFFFFFFFFFF AND PUSH20 0xFFFFFFFFFFFFFFFFFFFFFFFFFFFFFFFFFFFFFFFF AND CALLER PUSH20 0xFFFFFFFFFFFFFFFFFFFFFFFFFFFFFFFFFFFFFFFF AND EQ PUSH2 0xAAE JUMPI PUSH1 0x40 MLOAD PUSH32 0x8C379A000000000000000000000000000000000000000000000000000000000 DUP2 MSTORE PUSH1 0x4 ADD PUSH2 0xAA5 SWAP1 PUSH2 0x1255 JUMP JUMPDEST PUSH1 0x40 MLOAD DUP1 SWAP2 SUB SWAP1 REVERT JUMPDEST PUSH1 0x6 SLOAD PUSH1 0x4 SLOAD LT ISZERO PUSH2 0xAF5 JUMPI PUSH1 0x40 MLOAD PUSH32 0x8C379A000000000000000000000000000000000000000000000000000000000 DUP2 MSTORE PUSH1 0x4 ADD PUSH2 0xAEC SWAP1 PUSH2 0x1729 JUMP JUMPDEST PUSH1 0x40 MLOAD DUP1 SWAP2 SUB SWAP1 REVERT JUMPDEST PUSH0 PUSH1 0x7 PUSH0 DUP4 DUP2 MSTORE PUSH1 0x20 ADD SWAP1 DUP2 MSTORE PUSH1 0x20 ADD PUSH0 KECCAK256 SWAP1 POP PUSH0 ISZERO ISZERO DUP2 PUSH1 0x1 ADD PUSH1 0x14 SWAP1 SLOAD SWAP1 PUSH2 0x100 EXP SWAP1 DIV PUSH1 0xFF AND ISZERO ISZERO EQ PUSH2 0xB60 JUMPI PUSH1 0x40 MLOAD PUSH32 0x8C379A000000000000000000000000000000000000000000000000000000000 DUP2 MSTORE PUSH1 0x4 ADD PUSH2 0xB57 SWAP1 PUSH2 0x1791 JUMP JUMPDEST PUSH1 0x40 MLOAD DUP1 SWAP2 SUB SWAP1 REVERT JUMPDEST PUSH1 0x2 PUSH1 0x5 SLOAD PUSH2 0xB6F SWAP2 SWAP1 PUSH2 0x17DC JUMP JUMPDEST DUP2 PUSH1 0x3 ADD SLOAD GT PUSH2 0xBB4 JUMPI PUSH1 0x40 MLOAD PUSH32 0x8C379A000000000000000000000000000000000000000000000000000000000 DUP2 MSTORE PUSH1 0x4 ADD PUSH2 0xBAB SWAP1 PUSH2 0x1856 JUMP JUMPDEST PUSH1 0x40 MLOAD DUP1 SWAP2 SUB SWAP1 REVERT JUMPDEST DUP1 PUSH1 0x1 ADD PUSH0 SWAP1 SLOAD SWAP1 PUSH2 0x100 EXP SWAP1 DIV PUSH20 0xFFFFFFFFFFFFFFFFFFFFFFFFFFFFFFFFFFFFFFFF AND PUSH20 0xFFFFFFFFFFFFFFFFFFFFFFFFFFFFFFFFFFFFFFFF AND PUSH2 0x8FC DUP3 PUSH1 0x2 ADD SLOAD SWAP1 DUP2 ISZERO MUL SWAP1 PUSH1 0x40 MLOAD PUSH0 PUSH1 0x40 MLOAD DUP1 DUP4 SUB DUP2 DUP6 DUP9 DUP9 CALL SWAP4 POP POP POP POP ISZERO DUP1 ISZERO PUSH2 0xC1E JUMPI RETURNDATASIZE PUSH0 PUSH0 RETURNDATACOPY RETURNDATASIZE PUSH0 REVERT JUMPDEST POP PUSH1 0x1 DUP2 PUSH1 0x1 ADD PUSH1 0x14 PUSH2 0x100 EXP DUP2 SLOAD DUP2 PUSH1 0xFF MUL NOT AND SWAP1 DUP4 ISZERO ISZERO MUL OR SWAP1 SSTORE POP POP POP JUMP JUMPDEST PUSH0 DUP2 SWAP1 POP SWAP2 SWAP1 POP JUMP JUMPDEST PUSH2 0xC52 DUP2 PUSH2 0xC40 JUMP JUMPDEST DUP3 MSTORE POP POP JUMP JUMPDEST PUSH0 PUSH1 0x20 DUP3 ADD SWAP1 POP PUSH2 0xC6B PUSH0 DUP4 ADD DUP5 PUSH2 0xC49 JUMP JUMPDEST SWAP3 SWAP2 POP POP JUMP JUMPDEST PUSH0 PUSH1 0x40 MLOAD SWAP1 POP SWAP1 JUMP JUMPDEST PUSH0 PUSH0 REVERT JUMPDEST PUSH0 PUSH0 REVERT JUMPDEST PUSH0 PUSH0 REVERT JUMPDEST PUSH0 PUSH0 REVERT JUMPDEST PUSH0 PUSH1 0x1F NOT PUSH1 0x1F DUP4 ADD AND SWAP1 POP SWAP2 SWAP1 POP JUMP JUMPDEST PUSH32 0x4E487B7100000000000000000000000000000000000000000000000000000000 PUSH0 MSTORE PUSH1 0x41 PUSH1 0x4 MSTORE PUSH1 0x24 PUSH0 REVERT JUMPDEST PUSH2 0xCD0 DUP3 PUSH2 0xC8A JUMP JUMPDEST DUP2 ADD DUP2 DUP2 LT PUSH8 0xFFFFFFFFFFFFFFFF DUP3 GT OR ISZERO PUSH2 0xCEF JUMPI PUSH2 0xCEE PUSH2 0xC9A JUMP JUMPDEST JUMPDEST DUP1 PUSH1 0x40 MSTORE POP POP POP JUMP JUMPDEST PUSH0 PUSH2 0xD01 PUSH2 0xC71 JUMP JUMPDEST SWAP1 POP PUSH2 0xD0D DUP3 DUP3 PUSH2 0xCC7 JUMP JUMPDEST SWAP2 SWAP1 POP JUMP JUMPDEST PUSH0 PUSH8 0xFFFFFFFFFFFFFFFF DUP3 GT ISZERO PUSH2 0xD2C JUMPI PUSH2 0xD2B PUSH2 0xC9A JUMP JUMPDEST JUMPDEST PUSH2 0xD35 DUP3 PUSH2 0xC8A JUMP JUMPDEST SWAP1 POP PUSH1 0x20 DUP2 ADD SWAP1 POP SWAP2 SWAP1 POP JUMP JUMPDEST DUP3 DUP2 DUP4 CALLDATACOPY PUSH0 DUP4 DUP4 ADD MSTORE POP POP POP JUMP JUMPDEST PUSH0 PUSH2 0xD62 PUSH2 0xD5D DUP5 PUSH2 0xD12 JUMP JUMPDEST PUSH2 0xCF8 JUMP JUMPDEST SWAP1 POP DUP3 DUP2 MSTORE PUSH1 0x20 DUP2 ADD DUP5 DUP5 DUP5 ADD GT ISZERO PUSH2 0xD7E JUMPI PUSH2 0xD7D PUSH2 0xC86 JUMP JUMPDEST JUMPDEST PUSH2 0xD89 DUP5 DUP3 DUP6 PUSH2 0xD42 JUMP JUMPDEST POP SWAP4 SWAP3 POP POP POP JUMP JUMPDEST PUSH0 DUP3 PUSH1 0x1F DUP4 ADD SLT PUSH2 0xDA5 JUMPI PUSH2 0xDA4 PUSH2 0xC82 JUMP JUMPDEST JUMPDEST DUP2 CALLDATALOAD PUSH2 0xDB5 DUP5 DUP3 PUSH1 0x20 DUP7 ADD PUSH2 0xD50 JUMP JUMPDEST SWAP2 POP POP SWAP3 SWAP2 POP POP JUMP JUMPDEST PUSH0 PUSH20 0xFFFFFFFFFFFFFFFFFFFFFFFFFFFFFFFFFFFFFFFF DUP3 AND SWAP1 POP SWAP2 SWAP1 POP JUMP JUMPDEST PUSH0 PUSH2 0xDE7 DUP3 PUSH2 0xDBE JUMP JUMPDEST SWAP1 POP SWAP2 SWAP1 POP JUMP JUMPDEST PUSH2 0xDF7 DUP2 PUSH2 0xDDD JUMP JUMPDEST DUP2 EQ PUSH2 0xE01 JUMPI PUSH0 PUSH0 REVERT JUMPDEST POP JUMP JUMPDEST PUSH0 DUP2 CALLDATALOAD SWAP1 POP PUSH2 0xE12 DUP2 PUSH2 0xDEE JUMP JUMPDEST SWAP3 SWAP2 POP POP JUMP JUMPDEST PUSH2 0xE21 DUP2 PUSH2 0xC40 JUMP JUMPDEST DUP2 EQ PUSH2 0xE2B JUMPI PUSH0 PUSH0 REVERT JUMPDEST POP JUMP JUMPDEST PUSH0 DUP2 CALLDATALOAD SWAP1 POP PUSH2 0xE3C DUP2 PUSH2 0xE18 JUMP JUMPDEST SWAP3 SWAP2 POP POP JUMP JUMPDEST PUSH0 PUSH0 PUSH0 PUSH1 0x60 DUP5 DUP7 SUB SLT ISZERO PUSH2 0xE59 JUMPI PUSH2 0xE58 PUSH2 0xC7A JUMP JUMPDEST JUMPDEST PUSH0 DUP5 ADD CALLDATALOAD PUSH8 0xFFFFFFFFFFFFFFFF DUP2 GT ISZERO PUSH2 0xE76 JUMPI PUSH2 0xE75 PUSH2 0xC7E JUMP JUMPDEST JUMPDEST PUSH2 0xE82 DUP7 DUP3 DUP8 ADD PUSH2 0xD91 JUMP JUMPDEST SWAP4 POP POP PUSH1 0x20 PUSH2 0xE93 DUP7 DUP3 DUP8 ADD PUSH2 0xE04 JUMP JUMPDEST SWAP3 POP POP PUSH1 0x40 PUSH2 0xEA4 DUP7 DUP3 DUP8 ADD PUSH2 0xE2E JUMP JUMPDEST SWAP2 POP POP SWAP3 POP SWAP3 POP SWAP3 JUMP JUMPDEST PUSH0 PUSH2 0xEB8 DUP3 PUSH2 0xDBE JUMP JUMPDEST SWAP1 POP SWAP2 SWAP1 POP JUMP JUMPDEST PUSH2 0xEC8 DUP2 PUSH2 0xEAE JUMP JUMPDEST DUP2 EQ PUSH2 0xED2 JUMPI PUSH0 PUSH0 REVERT JUMPDEST POP JUMP JUMPDEST PUSH0 DUP2 CALLDATALOAD SWAP1 POP PUSH2 0xEE3 DUP2 PUSH2 0xEBF JUMP JUMPDEST SWAP3 SWAP2 POP POP JUMP JUMPDEST PUSH0 PUSH1 0x20 DUP3 DUP5 SUB SLT ISZERO PUSH2 0xEFE JUMPI PUSH2 0xEFD PUSH2 0xC7A JUMP JUMPDEST JUMPDEST PUSH0 PUSH2 0xF0B DUP5 DUP3 DUP6 ADD PUSH2 0xED5 JUMP JUMPDEST SWAP2 POP POP SWAP3 SWAP2 POP POP JUMP JUMPDEST PUSH2 0xF1D DUP2 PUSH2 0xEAE JUMP JUMPDEST DUP3 MSTORE POP POP JUMP JUMPDEST PUSH0 PUSH1 0x20 DUP3 ADD SWAP1 POP PUSH2 0xF36 PUSH0 DUP4 ADD DUP5 PUSH2 0xF14 JUMP JUMPDEST SWAP3 SWAP2 POP POP JUMP JUMPDEST PUSH0 PUSH1 0x20 DUP3 DUP5 SUB SLT ISZERO PUSH2 0xF51 JUMPI PUSH2 0xF50 PUSH2 0xC7A JUMP JUMPDEST JUMPDEST PUSH0 PUSH2 0xF5E DUP5 DUP3 DUP6 ADD PUSH2 0xE2E JUMP JUMPDEST SWAP2 POP POP SWAP3 SWAP2 POP POP JUMP JUMPDEST PUSH0 DUP2 MLOAD SWAP1 POP SWAP2 SWAP1 POP JUMP JUMPDEST PUSH0 DUP3 DUP3 MSTORE PUSH1 0x20 DUP3 ADD SWAP1 POP SWAP3 SWAP2 POP POP JUMP JUMPDEST DUP3 DUP2 DUP4 MCOPY PUSH0 DUP4 DUP4 ADD MSTORE POP POP POP JUMP JUMPDEST PUSH0 PUSH2 0xF99 DUP3 PUSH2 0xF67 JUMP JUMPDEST PUSH2 0xFA3 DUP2 DUP6 PUSH2 0xF71 JUMP JUMPDEST SWAP4 POP PUSH2 0xFB3 DUP2 DUP6 PUSH1 0x20 DUP7 ADD PUSH2 0xF81 JUMP JUMPDEST PUSH2 0xFBC DUP2 PUSH2 0xC8A JUMP JUMPDEST DUP5 ADD SWAP2 POP POP SWAP3 SWAP2 POP POP JUMP JUMPDEST PUSH2 0xFD0 DUP2 PUSH2 0xDDD JUMP JUMPDEST DUP3 MSTORE POP POP JUMP JUMPDEST PUSH0 DUP2 ISZERO ISZERO SWAP1 POP SWAP2 SWAP1 POP JUMP JUMPDEST PUSH2 0xFEA DUP2 PUSH2 0xFD6 JUMP JUMPDEST DUP3 MSTORE POP POP JUMP JUMPDEST PUSH0 PUSH1 0xA0 DUP3 ADD SWAP1 POP DUP2 DUP2 SUB PUSH0 DUP4 ADD MSTORE PUSH2 0x1008 DUP2 DUP9 PUSH2 0xF8F JUMP JUMPDEST SWAP1 POP PUSH2 0x1017 PUSH1 0x20 DUP4 ADD DUP8 PUSH2 0xFC7 JUMP JUMPDEST PUSH2 0x1024 PUSH1 0x40 DUP4 ADD DUP7 PUSH2 0xFE1 JUMP JUMPDEST PUSH2 0x1031 PUSH1 0x60 DUP4 ADD DUP6 PUSH2 0xC49 JUMP JUMPDEST PUSH2 0x103E PUSH1 0x80 DUP4 ADD DUP5 PUSH2 0xC49 JUMP JUMPDEST SWAP7 SWAP6 POP POP POP POP POP POP JUMP JUMPDEST PUSH32 0x446561646C696E65206861732070617373656400000000000000000000000000 PUSH0 DUP3 ADD MSTORE POP JUMP JUMPDEST PUSH0 PUSH2 0x107C PUSH1 0x13 DUP4 PUSH2 0xF71 JUMP JUMPDEST SWAP2 POP PUSH2 0x1087 DUP3 PUSH2 0x1048 JUMP JUMPDEST PUSH1 0x20 DUP3 ADD SWAP1 POP SWAP2 SWAP1 POP JUMP JUMPDEST PUSH0 PUSH1 0x20 DUP3 ADD SWAP1 POP DUP2 DUP2 SUB PUSH0 DUP4 ADD MSTORE PUSH2 0x10A9 DUP2 PUSH2 0x1070 JUMP JUMPDEST SWAP1 POP SWAP2 SWAP1 POP JUMP JUMPDEST PUSH32 0x204D696E696D756D20636F6E747269627574696F6E206973206E6F7420736174 PUSH0 DUP3 ADD MSTORE PUSH32 0x6973666965642100000000000000000000000000000000000000000000000000 PUSH1 0x20 DUP3 ADD MSTORE POP JUMP JUMPDEST PUSH0 PUSH2 0x110A PUSH1 0x27 DUP4 PUSH2 0xF71 JUMP JUMPDEST SWAP2 POP PUSH2 0x1115 DUP3 PUSH2 0x10B0 JUMP JUMPDEST PUSH1 0x40 DUP3 ADD SWAP1 POP SWAP2 SWAP1 POP JUMP JUMPDEST PUSH0 PUSH1 0x20 DUP3 ADD SWAP1 POP DUP2 DUP2 SUB PUSH0 DUP4 ADD MSTORE PUSH2 0x1137 DUP2 PUSH2 0x10FE JUMP JUMPDEST SWAP1 POP SWAP2 SWAP1 POP JUMP JUMPDEST PUSH32 0x4E487B7100000000000000000000000000000000000000000000000000000000 PUSH0 MSTORE PUSH1 0x11 PUSH1 0x4 MSTORE PUSH1 0x24 PUSH0 REVERT JUMPDEST PUSH0 PUSH2 0x1175 DUP3 PUSH2 0xC40 JUMP JUMPDEST SWAP2 POP PUSH32 0xFFFFFFFFFFFFFFFFFFFFFFFFFFFFFFFFFFFFFFFFFFFFFFFFFFFFFFFFFFFFFFFF DUP3 SUB PUSH2 0x11A7 JUMPI PUSH2 0x11A6 PUSH2 0x113E JUMP JUMPDEST JUMPDEST PUSH1 0x1 DUP3 ADD SWAP1 POP SWAP2 SWAP1 POP JUMP JUMPDEST PUSH0 PUSH2 0x11BC DUP3 PUSH2 0xC40 JUMP JUMPDEST SWAP2 POP PUSH2 0x11C7 DUP4 PUSH2 0xC40 JUMP JUMPDEST SWAP3 POP DUP3 DUP3 ADD SWAP1 POP DUP1 DUP3 GT ISZERO PUSH2 0x11DF JUMPI PUSH2 0x11DE PUSH2 0x113E JUMP JUMPDEST JUMPDEST SWAP3 SWAP2 POP POP JUMP JUMPDEST PUSH32 0x6F6E6C79206D616E616765722063616E2063616C6C20746869732066756E6374 PUSH0 DUP3 ADD MSTORE PUSH32 0x696F6E0000000000000000000000000000000000000000000000000000000000 PUSH1 0x20 DUP3 ADD MSTORE POP JUMP JUMPDEST PUSH0 PUSH2 0x123F PUSH1 0x23 DUP4 PUSH2 0xF71 JUMP JUMPDEST SWAP2 POP PUSH2 0x124A DUP3 PUSH2 0x11E5 JUMP JUMPDEST PUSH1 0x40 DUP3 ADD SWAP1 POP SWAP2 SWAP1 POP JUMP JUMPDEST PUSH0 PUSH1 0x20 DUP3 ADD SWAP1 POP DUP2 DUP2 SUB PUSH0 DUP4 ADD MSTORE PUSH2 0x126C DUP2 PUSH2 0x1233 JUMP JUMPDEST SWAP1 POP SWAP2 SWAP1 POP JUMP JUMPDEST PUSH32 0x4E487B7100000000000000000000000000000000000000000000000000000000 PUSH0 MSTORE PUSH1 0x22 PUSH1 0x4 MSTORE PUSH1 0x24 PUSH0 REVERT JUMPDEST PUSH0 PUSH1 0x2 DUP3 DIV SWAP1 POP PUSH1 0x1 DUP3 AND DUP1 PUSH2 0x12B7 JUMPI PUSH1 0x7F DUP3 AND SWAP2 POP JUMPDEST PUSH1 0x20 DUP3 LT DUP2 SUB PUSH2 0x12CA JUMPI PUSH2 0x12C9 PUSH2 0x1273 JUMP JUMPDEST JUMPDEST POP SWAP2 SWAP1 POP JUMP JUMPDEST PUSH0 DUP2 SWAP1 POP DUP2 PUSH0 MSTORE PUSH1 0x20 PUSH0 KECCAK256 SWAP1 POP SWAP2 SWAP1 POP JUMP JUMPDEST PUSH0 PUSH1 0x20 PUSH1 0x1F DUP4 ADD DIV SWAP1 POP SWAP2 SWAP1 POP JUMP JUMPDEST PUSH0 DUP3 DUP3 SHL SWAP1 POP SWAP3 SWAP2 POP POP JUMP JUMPDEST PUSH0 PUSH1 0x8 DUP4 MUL PUSH2 0x132C PUSH32 0xFFFFFFFFFFFFFFFFFFFFFFFFFFFFFFFFFFFFFFFFFFFFFFFFFFFFFFFFFFFFFFFF DUP3 PUSH2 0x12F1 JUMP JUMPDEST PUSH2 0x1336 DUP7 DUP4 PUSH2 0x12F1 JUMP JUMPDEST SWAP6 POP DUP1 NOT DUP5 AND SWAP4 POP DUP1 DUP7 AND DUP5 OR SWAP3 POP POP POP SWAP4 SWAP3 POP POP POP JUMP JUMPDEST PUSH0 DUP2 SWAP1 POP SWAP2 SWAP1 POP JUMP JUMPDEST PUSH0 PUSH2 0x1371 PUSH2 0x136C PUSH2 0x1367 DUP5 PUSH2 0xC40 JUMP JUMPDEST PUSH2 0x134E JUMP JUMPDEST PUSH2 0xC40 JUMP JUMPDEST SWAP1 POP SWAP2 SWAP1 POP JUMP JUMPDEST PUSH0 DUP2 SWAP1 POP SWAP2 SWAP1 POP JUMP JUMPDEST PUSH2 0x138A DUP4 PUSH2 0x1357 JUMP JUMPDEST PUSH2 0x139E PUSH2 0x1396 DUP3 PUSH2 0x1378 JUMP JUMPDEST DUP5 DUP5 SLOAD PUSH2 0x12FD JUMP JUMPDEST DUP3 SSTORE POP POP POP POP JUMP JUMPDEST PUSH0 PUSH0 SWAP1 POP SWAP1 JUMP JUMPDEST PUSH2 0x13B5 PUSH2 0x13A6 JUMP JUMPDEST PUSH2 0x13C0 DUP2 DUP5 DUP5 PUSH2 0x1381 JUMP JUMPDEST POP POP POP JUMP JUMPDEST JUMPDEST DUP2 DUP2 LT ISZERO PUSH2 0x13E3 JUMPI PUSH2 0x13D8 PUSH0 DUP3 PUSH2 0x13AD JUMP JUMPDEST PUSH1 0x1 DUP2 ADD SWAP1 POP PUSH2 0x13C6 JUMP JUMPDEST POP POP JUMP JUMPDEST PUSH1 0x1F DUP3 GT ISZERO PUSH2 0x1428 JUMPI PUSH2 0x13F9 DUP2 PUSH2 0x12D0 JUMP JUMPDEST PUSH2 0x1402 DUP5 PUSH2 0x12E2 JUMP JUMPDEST DUP2 ADD PUSH1 0x20 DUP6 LT ISZERO PUSH2 0x1411 JUMPI DUP2 SWAP1 POP JUMPDEST PUSH2 0x1425 PUSH2 0x141D DUP6 PUSH2 0x12E2 JUMP JUMPDEST DUP4 ADD DUP3 PUSH2 0x13C5 JUMP JUMPDEST POP POP JUMPDEST POP POP POP JUMP JUMPDEST PUSH0 DUP3 DUP3 SHR SWAP1 POP SWAP3 SWAP2 POP POP JUMP JUMPDEST PUSH0 PUSH2 0x1448 PUSH0 NOT DUP5 PUSH1 0x8 MUL PUSH2 0x142D JUMP JUMPDEST NOT DUP1 DUP4 AND SWAP2 POP POP SWAP3 SWAP2 POP POP JUMP JUMPDEST PUSH0 PUSH2 0x1460 DUP4 DUP4 PUSH2 0x1439 JUMP JUMPDEST SWAP2 POP DUP3 PUSH1 0x2 MUL DUP3 OR SWAP1 POP SWAP3 SWAP2 POP POP JUMP JUMPDEST PUSH2 0x1479 DUP3 PUSH2 0xF67 JUMP JUMPDEST PUSH8 0xFFFFFFFFFFFFFFFF DUP2 GT ISZERO PUSH2 0x1492 JUMPI PUSH2 0x1491 PUSH2 0xC9A JUMP JUMPDEST JUMPDEST PUSH2 0x149C DUP3 SLOAD PUSH2 0x12A0 JUMP JUMPDEST PUSH2 0x14A7 DUP3 DUP3 DUP6 PUSH2 0x13E7 JUMP JUMPDEST PUSH0 PUSH1 0x20 SWAP1 POP PUSH1 0x1F DUP4 GT PUSH1 0x1 DUP2 EQ PUSH2 0x14D8 JUMPI PUSH0 DUP5 ISZERO PUSH2 0x14C6 JUMPI DUP3 DUP8 ADD MLOAD SWAP1 POP JUMPDEST PUSH2 0x14D0 DUP6 DUP3 PUSH2 0x1455 JUMP JUMPDEST DUP7 SSTORE POP PUSH2 0x1537 JUMP JUMPDEST PUSH1 0x1F NOT DUP5 AND PUSH2 0x14E6 DUP7 PUSH2 0x12D0 JUMP JUMPDEST PUSH0 JUMPDEST DUP3 DUP2 LT ISZERO PUSH2 0x150D JUMPI DUP5 DUP10 ADD MLOAD DUP3 SSTORE PUSH1 0x1 DUP3 ADD SWAP2 POP PUSH1 0x20 DUP6 ADD SWAP5 POP PUSH1 0x20 DUP2 ADD SWAP1 POP PUSH2 0x14E8 JUMP JUMPDEST DUP7 DUP4 LT ISZERO PUSH2 0x152A JUMPI DUP5 DUP10 ADD MLOAD PUSH2 0x1526 PUSH1 0x1F DUP10 AND DUP3 PUSH2 0x1439 JUMP JUMPDEST DUP4 SSTORE POP JUMPDEST PUSH1 0x1 PUSH1 0x2 DUP9 MUL ADD DUP9 SSTORE POP POP POP JUMPDEST POP POP POP POP POP POP JUMP JUMPDEST PUSH32 0x596F75206D75737420636F6E7472696275746500000000000000000000000000 PUSH0 DUP3 ADD MSTORE POP JUMP JUMPDEST PUSH0 PUSH2 0x1573 PUSH1 0x13 DUP4 PUSH2 0xF71 JUMP JUMPDEST SWAP2 POP PUSH2 0x157E DUP3 PUSH2 0x153F JUMP JUMPDEST PUSH1 0x20 DUP3 ADD SWAP1 POP SWAP2 SWAP1 POP JUMP JUMPDEST PUSH0 PUSH1 0x20 DUP3 ADD SWAP1 POP DUP2 DUP2 SUB PUSH0 DUP4 ADD MSTORE PUSH2 0x15A0 DUP2 PUSH2 0x1567 JUMP JUMPDEST SWAP1 POP SWAP2 SWAP1 POP JUMP JUMPDEST PUSH32 0x596F75206861766520616C726561647920766F74656400000000000000000000 PUSH0 DUP3 ADD MSTORE POP JUMP JUMPDEST PUSH0 PUSH2 0x15DB PUSH1 0x16 DUP4 PUSH2 0xF71 JUMP JUMPDEST SWAP2 POP PUSH2 0x15E6 DUP3 PUSH2 0x15A7 JUMP JUMPDEST PUSH1 0x20 DUP3 ADD SWAP1 POP SWAP2 SWAP1 POP JUMP JUMPDEST PUSH0 PUSH1 0x20 DUP3 ADD SWAP1 POP DUP2 DUP2 SUB PUSH0 DUP4 ADD MSTORE PUSH2 0x1608 DUP2 PUSH2 0x15CF JUMP JUMPDEST SWAP1 POP SWAP2 SWAP1 POP JUMP JUMPDEST PUSH32 0x596F7520617265206E6F7420656C696769626C6520666F7220726566756E6400 PUSH0 DUP3 ADD MSTORE POP JUMP JUMPDEST PUSH0 PUSH2 0x1643 PUSH1 0x1F DUP4 PUSH2 0xF71 JUMP JUMPDEST SWAP2 POP PUSH2 0x164E DUP3 PUSH2 0x160F JUMP JUMPDEST PUSH1 0x20 DUP3 ADD SWAP1 POP SWAP2 SWAP1 POP JUMP JUMPDEST PUSH0 PUSH1 0x20 DUP3 ADD SWAP1 POP DUP2 DUP2 SUB PUSH0 DUP4 ADD MSTORE PUSH2 0x1670 DUP2 PUSH2 0x1637 JUMP JUMPDEST SWAP1 POP SWAP2 SWAP1 POP JUMP JUMPDEST PUSH32 0x596F752063616E277420726566756E6400000000000000000000000000000000 PUSH0 DUP3 ADD MSTORE POP JUMP JUMPDEST PUSH0 PUSH2 0x16AB PUSH1 0x10 DUP4 PUSH2 0xF71 JUMP JUMPDEST SWAP2 POP PUSH2 0x16B6 DUP3 PUSH2 0x1677 JUMP JUMPDEST PUSH1 0x20 DUP3 ADD SWAP1 POP SWAP2 SWAP1 POP JUMP JUMPDEST PUSH0 PUSH1 0x20 DUP3 ADD SWAP1 POP DUP2 DUP2 SUB PUSH0 DUP4 ADD MSTORE PUSH2 0x16D8 DUP2 PUSH2 0x169F JUMP JUMPDEST SWAP1 POP SWAP2 SWAP1 POP JUMP JUMPDEST PUSH32 0x546172676574206973206E6F7420726561636865640000000000000000000000 PUSH0 DUP3 ADD MSTORE POP JUMP JUMPDEST PUSH0 PUSH2 0x1713 PUSH1 0x15 DUP4 PUSH2 0xF71 JUMP JUMPDEST SWAP2 POP PUSH2 0x171E DUP3 PUSH2 0x16DF JUMP JUMPDEST PUSH1 0x20 DUP3 ADD SWAP1 POP SWAP2 SWAP1 POP JUMP JUMPDEST PUSH0 PUSH1 0x20 DUP3 ADD SWAP1 POP DUP2 DUP2 SUB PUSH0 DUP4 ADD MSTORE PUSH2 0x1740 DUP2 PUSH2 0x1707 JUMP JUMPDEST SWAP1 POP SWAP2 SWAP1 POP JUMP JUMPDEST PUSH32 0x546865207265717565737420686173206265656E20636F6D706C657465640000 PUSH0 DUP3 ADD MSTORE POP JUMP JUMPDEST PUSH0 PUSH2 0x177B PUSH1 0x1E DUP4 PUSH2 0xF71 JUMP JUMPDEST SWAP2 POP PUSH2 0x1786 DUP3 PUSH2 0x1747 JUMP JUMPDEST PUSH1 0x20 DUP3 ADD SWAP1 POP SWAP2 SWAP1 POP JUMP JUMPDEST PUSH0 PUSH1 0x20 DUP3 ADD SWAP1 POP DUP2 DUP2 SUB PUSH0 DUP4 ADD MSTORE PUSH2 0x17A8 DUP2 PUSH2 0x176F JUMP JUMPDEST SWAP1 POP SWAP2 SWAP1 POP JUMP JUMPDEST PUSH32 0x4E487B7100000000000000000000000000000000000000000000000000000000 PUSH0 MSTORE PUSH1 0x12 PUSH1 0x4 MSTORE PUSH1 0x24 PUSH0 REVERT JUMPDEST PUSH0 PUSH2 0x17E6 DUP3 PUSH2 0xC40 JUMP JUMPDEST SWAP2 POP PUSH2 0x17F1 DUP4 PUSH2 0xC40 JUMP JUMPDEST SWAP3 POP DUP3 PUSH2 0x1801 JUMPI PUSH2 0x1800 PUSH2 0x17AF JUMP JUMPDEST JUMPDEST DUP3 DUP3 DIV SWAP1 POP SWAP3 SWAP2 POP POP JUMP JUMPDEST PUSH32 0x6D616A6F7269747920646F65736E277420737570706F72740000000000000000 PUSH0 DUP3 ADD MSTORE POP JUMP JUMPDEST PUSH0 PUSH2 0x1840 PUSH1 0x18 DUP4 PUSH2 0xF71 JUMP JUMPDEST SWAP2 POP PUSH2 0x184B DUP3 PUSH2 0x180C JUMP JUMPDEST PUSH1 0x20 DUP3 ADD SWAP1 POP SWAP2 SWAP1 POP JUMP JUMPDEST PUSH0 PUSH1 0x20 DUP3 ADD SWAP1 POP DUP2 DUP2 SUB PUSH0 DUP4 ADD MSTORE PUSH2 0x186D DUP2 PUSH2 0x1834 JUMP JUMPDEST SWAP1 POP SWAP2 SWAP1 POP JUMP INVALID LOG2 PUSH5 0x6970667358 0x22 SLT KECCAK256 SWAP16 0xCE TLOAD ADDMOD EQ CALL DUP8 BLOCKHASH 0xBE 0x2A 0xB1 DUP3 SWAP12 EXTDELEGATECALL 0xB9 0xAD JUMPDEST 0xD8 0x4B MUL PUSH30 0x1E30CC2F1EEEBC11CA656564736F6C634300081E00330000000000000000 "
		},
		"gasEstimates": {
			"creation": {
				"codeDepositCost": "1262800",
				"executionCost": "infinite",
				"totalCost": "infinite"
			},
			"external": {
				"contributors(address)": "2824",
				"createRequest(string,address,uint256)": "infinite",
				"deadline()": "2470",
				"getBalance()": "380",
				"makePaymnt(uint256)": "infinite",
				"manager()": "2575",
				"minmumContributions()": "2492",
				"noOfContributors()": "2448",
				"raiseAmount()": "2491",
				"refund()": "infinite",
				"requests(uint256)": "infinite",
				"sendEth()": "infinite",
				"target()": "2469",
				"voteRequest(uint256)": "infinite"
			}
		},
		"methodIdentifiers": {
			"contributors(address)": "1f6d4942",
			"createRequest(string,address,uint256)": "1b16bb5c",
			"deadline()": "29dcb0cf",
			"getBalance()": "12065fe0",
			"makePaymnt(uint256)": "e241227e",
			"manager()": "481c6a75",
			"minmumContributions()": "6c6b1388",
			"noOfContributors()": "4e260f6f",
			"raiseAmount()": "db638f0b",
			"refund()": "590e1ae3",
			"requests(uint256)": "81d12c58",
			"sendEth()": "06e99fef",
			"target()": "d4b83992",
			"voteRequest(uint256)": "4cb6f4a5"
		}
	},
	"abi": [
		{
			"inputs": [
				{
					"internalType": "uint256",
					"name": "_target",
					"type": "uint256"
				},
				{
					"internalType": "uint256",
					"name": "_deadline",
					"type": "uint256"
				}
			],
			"stateMutability": "nonpayable",
			"type": "constructor"
		},
		{
			"inputs": [
				{
					"internalType": "address",
					"name": "",
					"type": "address"
				}
			],
			"name": "contributors",
			"outputs": [
				{
					"internalType": "uint256",
					"name": "",
					"type": "uint256"
				}
			],
			"stateMutability": "view",
			"type": "function"
		},
		{
			"inputs": [
				{
					"internalType": "string",
					"name": "_description",
					"type": "string"
				},
				{
					"internalType": "address payable",
					"name": "_recipient",
					"type": "address"
				},
				{
					"internalType": "uint256",
					"name": "_value",
					"type": "uint256"
				}
			],
			"name": "createRequest",
			"outputs": [],
			"stateMutability": "nonpayable",
			"type": "function"
		},
		{
			"inputs": [],
			"name": "deadline",
			"outputs": [
				{
					"internalType": "uint256",
					"name": "",
					"type": "uint256"
				}
			],
			"stateMutability": "view",
			"type": "function"
		},
		{
			"inputs": [],
			"name": "getBalance",
			"outputs": [
				{
					"internalType": "uint256",
					"name": "",
					"type": "uint256"
				}
			],
			"stateMutability": "view",
			"type": "function"
		},
		{
			"inputs": [
				{
					"internalType": "uint256",
					"name": "_requestNo",
					"type": "uint256"
				}
			],
			"name": "makePaymnt",
			"outputs": [],
			"stateMutability": "nonpayable",
			"type": "function"
		},
		{
			"inputs": [],
			"name": "manager",
			"outputs": [
				{
					"internalType": "address",
					"name": "",
					"type": "address"
				}
			],
			"stateMutability": "view",
			"type": "function"
		},
		{
			"inputs": [],
			"name": "minmumContributions",
			"outputs": [
				{
					"internalType": "uint256",
					"name": "",
					"type": "uint256"
				}
			],
			"stateMutability": "view",
			"type": "function"
		},
		{
			"inputs": [],
			"name": "noOfContributors",
			"outputs": [
				{
					"internalType": "uint256",
					"name": "",
					"type": "uint256"
				}
			],
			"stateMutability": "view",
			"type": "function"
		},
		{
			"inputs": [],
			"name": "raiseAmount",
			"outputs": [
				{
					"internalType": "uint256",
					"name": "",
					"type": "uint256"
				}
			],
			"stateMutability": "view",
			"type": "function"
		},
		{
			"inputs": [],
			"name": "refund",
			"outputs": [],
			"stateMutability": "nonpayable",
			"type": "function"
		},
		{
			"inputs": [
				{
					"internalType": "uint256",
					"name": "",
					"type": "uint256"
				}
			],
			"name": "requests",
			"outputs": [
				{
					"internalType": "string",
					"name": "description",
					"type": "string"
				},
				{
					"internalType": "address payable",
					"name": "recipient",
					"type": "address"
				},
				{
					"internalType": "bool",
					"name": "completed",
					"type": "bool"
				},
				{
					"internalType": "uint256",
					"name": "value",
					"type": "uint256"
				},
				{
					"internalType": "uint256",
					"name": "noOfVoter",
					"type": "uint256"
				}
			],
			"stateMutability": "view",
			"type": "function"
		},
		{
			"inputs": [],
			"name": "sendEth",
			"outputs": [],
			"stateMutability": "payable",
			"type": "function"
		},
		{
			"inputs": [],
			"name": "target",
			"outputs": [
				{
					"internalType": "uint256",
					"name": "",
					"type": "uint256"
				}
			],
			"stateMutability": "view",
			"type": "function"
		},
		{
			"inputs": [
				{
					"internalType": "uint256",
					"name": "_requestNo",
					"type": "uint256"
				}
			],
			"name": "voteRequest",
			"outputs": [],
			"stateMutability": "nonpayable",
			"type": "function"
		}
	]
}