{
	"data": {
		"bytecode": {
			"linkReferences": {},
			"object": "6080604052348015600e575f5ffd5b50335f5f6101000a81548173ffffffffffffffffffffffffffffffffffffffff021916908373ffffffffffffffffffffffffffffffffffffffff160217905550611d148061005b5f395ff3fe6080604052600436106100fd575f3560e01c806366d16cc31161009457806397a993aa1161006357806397a993aa14610328578063a00ac7bf14610366578063a6d278c51461038e578063de91e75f146103b6578063e9c57109146103f2576100fd565b806366d16cc31461026e578063756862561461029857806389625494146102c25780638da5cb5b146102fe576100fd565b806343870e38116100d057806343870e38146101ba578063556b790f146101f8578063560ff06e146102365780635994270a14610252576100fd565b8063039855221461010157806306661abd1461012957806320f3daf91461015357806332f6b4a21461017d575b5f5ffd5b34801561010c575f5ffd5b5061012760048036038101906101229190611147565b61042e565b005b348015610134575f5ffd5b5061013d610458565b60405161014a91906111b0565b60405180910390f35b34801561015e575f5ffd5b5061016761045e565b60405161017491906111b0565b60405180910390f35b348015610188575f5ffd5b506101a3600480360381019061019e91906111c9565b610467565b6040516101b1929190611270565b60405180910390f35b3480156101c5575f5ffd5b506101e060048036038101906101db91906111c9565b61053f565b6040516101ef939291906112dd565b60405180910390f35b348015610203575f5ffd5b5061021e60048036038101906102199190611319565b610622565b60405161022d93929190611344565b60405180910390f35b610250600480360381019061024b91906113aa565b6106ed565b005b61026c6004803603810190610267919061142a565b610a3e565b005b348015610279575f5ffd5b50610282610b03565b60405161028f91906111b0565b60405180910390f35b3480156102a3575f5ffd5b506102ac610b09565b6040516102b99190611604565b60405180910390f35b3480156102cd575f5ffd5b506102e860048036038101906102e39190611624565b610cae565b6040516102f59190611669565b60405180910390f35b348015610309575f5ffd5b50610312610ccb565b60405161031f9190611682565b60405180910390f35b348015610333575f5ffd5b5061034e60048036038101906103499190611624565b610cef565b60405161035d93929190611344565b60405180910390f35b348015610371575f5ffd5b5061038c6004803603810190610387919061169b565b610dba565b005b348015610399575f5ffd5b506103b460048036038101906103af9190611147565b610e1d565b005b3480156103c1575f5ffd5b506103dc60048036038101906103d791906111c9565b610f30565b6040516103e991906111b0565b60405180910390f35b3480156103fd575f5ffd5b5061041860048036038101906104139190611147565b610f5a565b60405161042591906111b0565b60405180910390f35b8060068360405161043f919061172f565b9081526020016040518091039020600201819055505050565b60025481565b5f600154905090565b60605f60068360405161047a919061172f565b90815260200160405180910390205f0160068460405161049a919061172f565b9081526020016040518091039020600201548180546104b890611772565b80601f01602080910402602001604051908101604052809291908181526020018280546104e490611772565b801561052f5780601f106105065761010080835404028352916020019161052f565b820191905f5260205f20905b81548152906001019060200180831161051257829003601f168201915b5050505050915091509150915091565b6006818051602081018201805184825260208301602085012081835280955050505050505f91509050805f01805461057690611772565b80601f01602080910402602001604051908101604052809291908181526020018280546105a290611772565b80156105ed5780601f106105c4576101008083540402835291602001916105ed565b820191905f5260205f20905b8154815290600101906020018083116105d057829003601f168201915b505050505090806001015f9054906101000a900473ffffffffffffffffffffffffffffffffffffffff16908060020154905083565b6003602052805f5260405f205f91509050805f015f9054906101000a900473ffffffffffffffffffffffffffffffffffffffff169080600101805461066690611772565b80601f016020809104026020016040519081016040528092919081815260200182805461069290611772565b80156106dd5780601f106106b4576101008083540402835291602001916106dd565b820191905f5260205f20905b8154815290600101906020018083116106c057829003601f168201915b5050505050908060020154905083565b5f821180156106fb57505f81115b61073a576040517f08c379a000000000000000000000000000000000000000000000000000000000815260040161073190611812565b60405180910390fd5b8060058460405161074b919061172f565b90815260200160405180910390205f8481526020019081526020015f2054146107a9576040517f08c379a00000000000000000000000000000000000000000000000000000000081526004016107a09061187a565b60405180910390fd5b816006846040516107ba919061172f565b908152602001604051809103902060020154101561080d576040517f08c379a0000000000000000000000000000000000000000000000000000000008152600401610804906118e2565b60405180910390fd5b60045f8573ffffffffffffffffffffffffffffffffffffffff1673ffffffffffffffffffffffffffffffffffffffff1681526020019081526020015f205f9054906101000a900460ff166108c857600160045f8673ffffffffffffffffffffffffffffffffffffffff1673ffffffffffffffffffffffffffffffffffffffff1681526020019081526020015f205f6101000a81548160ff02191690831515021790555060025f8154809291906108c29061192d565b91905055505b816006846040516108d9919061172f565b90815260200160405180910390206002015f8282546108f89190611974565b925050819055508160075f8673ffffffffffffffffffffffffffffffffffffffff1673ffffffffffffffffffffffffffffffffffffffff1681526020019081526020015f206002015f82825461094e91906119a7565b925050819055508260075f8673ffffffffffffffffffffffffffffffffffffffff1673ffffffffffffffffffffffffffffffffffffffff1681526020019081526020015f2060010190816109a29190611b7a565b508360075f8673ffffffffffffffffffffffffffffffffffffffff1673ffffffffffffffffffffffffffffffffffffffff1681526020019081526020015f205f015f6101000a81548173ffffffffffffffffffffffffffffffffffffffff021916908373ffffffffffffffffffffffffffffffffffffffff1602179055508060015f828254610a3191906119a7565b9250508190555050505050565b5f5f9054906101000a900473ffffffffffffffffffffffffffffffffffffffff1673ffffffffffffffffffffffffffffffffffffffff163373ffffffffffffffffffffffffffffffffffffffff1614610acc576040517f08c379a0000000000000000000000000000000000000000000000000000000008152600401610ac390611c93565b60405180910390fd5b80600584604051610add919061172f565b90815260200160405180910390205f8481526020019081526020015f2081905550505050565b60015481565b60605f60025467ffffffffffffffff811115610b2857610b27610ff0565b5b604051908082528060200260200182016040528015610b6157816020015b610b4e610f92565b815260200190600190039081610b465790505b5090505f5f90505b600254811015610ca65760035f8281526020019081526020015f206040518060600160405290815f82015f9054906101000a900473ffffffffffffffffffffffffffffffffffffffff1673ffffffffffffffffffffffffffffffffffffffff1673ffffffffffffffffffffffffffffffffffffffff168152602001600182018054610bf390611772565b80601f0160208091040260200160405190810160405280929190818152602001828054610c1f90611772565b8015610c6a5780601f10610c4157610100808354040283529160200191610c6a565b820191905f5260205f20905b815481529060010190602001808311610c4d57829003601f168201915b50505050508152602001600282015481525050828281518110610c9057610c8f611cb1565b5b6020026020010181905250806001019050610b69565b508091505090565b6004602052805f5260405f205f915054906101000a900460ff1681565b5f5f9054906101000a900473ffffffffffffffffffffffffffffffffffffffff1681565b6007602052805f5260405f205f91509050805f015f9054906101000a900473ffffffffffffffffffffffffffffffffffffffff1690806001018054610d3390611772565b80601f0160208091040260200160405190810160405280929190818152602001828054610d5f90611772565b8015610daa5780601f10610d8157610100808354040283529160200191610daa565b820191905f5260205f20905b815481529060010190602001808311610d8d57829003601f168201915b5050505050908060020154905083565b80600683604051610dcb919061172f565b90815260200160405180910390206001015f6101000a81548173ffffffffffffffffffffffffffffffffffffffff021916908373ffffffffffffffffffffffffffffffffffffffff1602179055505050565b60405180606001604052808381526020013373ffffffffffffffffffffffffffffffffffffffff16815260200182815250600683604051610e5e919061172f565b90815260200160405180910390205f820151815f019081610e7f9190611b7a565b506020820151816001015f6101000a81548173ffffffffffffffffffffffffffffffffffffffff021916908373ffffffffffffffffffffffffffffffffffffffff160217905550604082015181600201559050503373ffffffffffffffffffffffffffffffffffffffff1682604051610ef8919061172f565b60405180910390207f5303d8f6a62614d593a982ffe01281d91a27f12026951b9567b58807fdebb5df60405160405180910390a35050565b5f600682604051610f41919061172f565b9081526020016040518091039020600201549050919050565b600582805160208101820180518482526020830160208501208183528095505050505050602052805f5260405f205f91509150505481565b60405180606001604052805f73ffffffffffffffffffffffffffffffffffffffff168152602001606081526020015f81525090565b5f604051905090565b5f5ffd5b5f5ffd5b5f5ffd5b5f5ffd5b5f601f19601f8301169050919050565b7f4e487b71000000000000000000000000000000000000000000000000000000005f52604160045260245ffd5b61102682610fe0565b810181811067ffffffffffffffff8211171561104557611044610ff0565b5b80604052505050565b5f611057610fc7565b9050611063828261101d565b919050565b5f67ffffffffffffffff82111561108257611081610ff0565b5b61108b82610fe0565b9050602081019050919050565b828183375f83830152505050565b5f6110b86110b384611068565b61104e565b9050828152602081018484840111156110d4576110d3610fdc565b5b6110df848285611098565b509392505050565b5f82601f8301126110fb576110fa610fd8565b5b813561110b8482602086016110a6565b91505092915050565b5f819050919050565b61112681611114565b8114611130575f5ffd5b50565b5f813590506111418161111d565b92915050565b5f5f6040838503121561115d5761115c610fd0565b5b5f83013567ffffffffffffffff81111561117a57611179610fd4565b5b611186858286016110e7565b925050602061119785828601611133565b9150509250929050565b6111aa81611114565b82525050565b5f6020820190506111c35f8301846111a1565b92915050565b5f602082840312156111de576111dd610fd0565b5b5f82013567ffffffffffffffff8111156111fb576111fa610fd4565b5b611207848285016110e7565b91505092915050565b5f81519050919050565b5f82825260208201905092915050565b8281835e5f83830152505050565b5f61124282611210565b61124c818561121a565b935061125c81856020860161122a565b61126581610fe0565b840191505092915050565b5f6040820190508181035f8301526112888185611238565b905061129760208301846111a1565b9392505050565b5f73ffffffffffffffffffffffffffffffffffffffff82169050919050565b5f6112c78261129e565b9050919050565b6112d7816112bd565b82525050565b5f6060820190508181035f8301526112f58186611238565b905061130460208301856112ce565b61131160408301846111a1565b949350505050565b5f6020828403121561132e5761132d610fd0565b5b5f61133b84828501611133565b91505092915050565b5f6060820190506113575f8301866112ce565b81810360208301526113698185611238565b905061137860408301846111a1565b949350505050565b611389816112bd565b8114611393575f5ffd5b50565b5f813590506113a481611380565b92915050565b5f5f5f5f608085870312156113c2576113c1610fd0565b5b5f6113cf87828801611396565b945050602085013567ffffffffffffffff8111156113f0576113ef610fd4565b5b6113fc878288016110e7565b935050604061140d87828801611133565b925050606061141e87828801611133565b91505092959194509250565b5f5f5f6060848603121561144157611440610fd0565b5b5f84013567ffffffffffffffff81111561145e5761145d610fd4565b5b61146a868287016110e7565b935050602061147b86828701611133565b925050604061148c86828701611133565b9150509250925092565b5f81519050919050565b5f82825260208201905092915050565b5f819050602082019050919050565b6114c8816112bd565b82525050565b5f82825260208201905092915050565b5f6114e882611210565b6114f281856114ce565b935061150281856020860161122a565b61150b81610fe0565b840191505092915050565b61151f81611114565b82525050565b5f606083015f83015161153a5f8601826114bf565b506020830151848203602086015261155282826114de565b91505060408301516115676040860182611516565b508091505092915050565b5f61157d8383611525565b905092915050565b5f602082019050919050565b5f61159b82611496565b6115a581856114a0565b9350836020820285016115b7856114b0565b805f5b858110156115f257848403895281516115d38582611572565b94506115de83611585565b925060208a019950506001810190506115ba565b50829750879550505050505092915050565b5f6020820190508181035f83015261161c8184611591565b905092915050565b5f6020828403121561163957611638610fd0565b5b5f61164684828501611396565b91505092915050565b5f8115159050919050565b6116638161164f565b82525050565b5f60208201905061167c5f83018461165a565b92915050565b5f6020820190506116955f8301846112ce565b92915050565b5f5f604083850312156116b1576116b0610fd0565b5b5f83013567ffffffffffffffff8111156116ce576116cd610fd4565b5b6116da858286016110e7565b92505060206116eb85828601611396565b9150509250929050565b5f81905092915050565b5f61170982611210565b61171381856116f5565b935061172381856020860161122a565b80840191505092915050565b5f61173a82846116ff565b915081905092915050565b7f4e487b71000000000000000000000000000000000000000000000000000000005f52602260045260245ffd5b5f600282049050600182168061178957607f821691505b60208210810361179c5761179b611745565b5b50919050565b7f416d6f756e7420616e6420706179206d757374206265206772656174657220745f8201527f68616e2030000000000000000000000000000000000000000000000000000000602082015250565b5f6117fc60258361121a565b9150611807826117a2565b604082019050919050565b5f6020820190508181035f830152611829816117f0565b9050919050565b7f496e73756666696369656e742062616c616e63650000000000000000000000005f82015250565b5f61186460148361121a565b915061186f82611830565b602082019050919050565b5f6020820190508181035f83015261189181611858565b9050919050565b7f6e6f7420656e6f756768206f696c7300000000000000000000000000000000005f82015250565b5f6118cc600f8361121a565b91506118d782611898565b602082019050919050565b5f6020820190508181035f8301526118f9816118c0565b9050919050565b7f4e487b71000000000000000000000000000000000000000000000000000000005f52601160045260245ffd5b5f61193782611114565b91507fffffffffffffffffffffffffffffffffffffffffffffffffffffffffffffffff820361196957611968611900565b5b600182019050919050565b5f61197e82611114565b915061198983611114565b92508282039050818111156119a1576119a0611900565b5b92915050565b5f6119b182611114565b91506119bc83611114565b92508282019050808211156119d4576119d3611900565b5b92915050565b5f819050815f5260205f209050919050565b5f6020601f8301049050919050565b5f82821b905092915050565b5f60088302611a367fffffffffffffffffffffffffffffffffffffffffffffffffffffffffffffffff826119fb565b611a4086836119fb565b95508019841693508086168417925050509392505050565b5f819050919050565b5f611a7b611a76611a7184611114565b611a58565b611114565b9050919050565b5f819050919050565b611a9483611a61565b611aa8611aa082611a82565b848454611a07565b825550505050565b5f5f905090565b611abf611ab0565b611aca818484611a8b565b505050565b5b81811015611aed57611ae25f82611ab7565b600181019050611ad0565b5050565b601f821115611b3257611b03816119da565b611b0c846119ec565b81016020851015611b1b578190505b611b2f611b27856119ec565b830182611acf565b50505b505050565b5f82821c905092915050565b5f611b525f1984600802611b37565b1980831691505092915050565b5f611b6a8383611b43565b9150826002028217905092915050565b611b8382611210565b67ffffffffffffffff811115611b9c57611b9b610ff0565b5b611ba68254611772565b611bb1828285611af1565b5f60209050601f831160018114611be2575f8415611bd0578287015190505b611bda8582611b5f565b865550611c41565b601f198416611bf0866119da565b5f5b82811015611c1757848901518255600182019150602085019450602081019050611bf2565b86831015611c345784890151611c30601f891682611b43565b8355505b6001600288020188555050505b505050505050565b7f4f6e6c79206f776e65722063616e2063616c6c000000000000000000000000005f82015250565b5f611c7d60138361121a565b9150611c8882611c49565b602082019050919050565b5f6020820190508181035f830152611caa81611c71565b9050919050565b7f4e487b71000000000000000000000000000000000000000000000000000000005f52603260045260245ffdfea2646970667358221220871fc01ee506c74a8b87ddc29b13f393aae93a3f704782cc45c9f62ae3198f4064736f6c634300081e0033",
			"opcodes": "PUSH1 0x80 PUSH1 0x40 MSTORE CALLVALUE DUP1 ISZERO PUSH1 0xE JUMPI PUSH0 PUSH0 REVERT JUMPDEST POP CALLER PUSH0 PUSH0 PUSH2 0x100 EXP DUP2 SLOAD DUP2 PUSH20 0xFFFFFFFFFFFFFFFFFFFFFFFFFFFFFFFFFFFFFFFF MUL NOT AND SWAP1 DUP4 PUSH20 0xFFFFFFFFFFFFFFFFFFFFFFFFFFFFFFFFFFFFFFFF AND MUL OR SWAP1 SSTORE POP PUSH2 0x1D14 DUP1 PUSH2 0x5B PUSH0 CODECOPY PUSH0 RETURN INVALID PUSH1 0x80 PUSH1 0x40 MSTORE PUSH1 0x4 CALLDATASIZE LT PUSH2 0xFD JUMPI PUSH0 CALLDATALOAD PUSH1 0xE0 SHR DUP1 PUSH4 0x66D16CC3 GT PUSH2 0x94 JUMPI DUP1 PUSH4 0x97A993AA GT PUSH2 0x63 JUMPI DUP1 PUSH4 0x97A993AA EQ PUSH2 0x328 JUMPI DUP1 PUSH4 0xA00AC7BF EQ PUSH2 0x366 JUMPI DUP1 PUSH4 0xA6D278C5 EQ PUSH2 0x38E JUMPI DUP1 PUSH4 0xDE91E75F EQ PUSH2 0x3B6 JUMPI DUP1 PUSH4 0xE9C57109 EQ PUSH2 0x3F2 JUMPI PUSH2 0xFD JUMP JUMPDEST DUP1 PUSH4 0x66D16CC3 EQ PUSH2 0x26E JUMPI DUP1 PUSH4 0x75686256 EQ PUSH2 0x298 JUMPI DUP1 PUSH4 0x89625494 EQ PUSH2 0x2C2 JUMPI DUP1 PUSH4 0x8DA5CB5B EQ PUSH2 0x2FE JUMPI PUSH2 0xFD JUMP JUMPDEST DUP1 PUSH4 0x43870E38 GT PUSH2 0xD0 JUMPI DUP1 PUSH4 0x43870E38 EQ PUSH2 0x1BA JUMPI DUP1 PUSH4 0x556B790F EQ PUSH2 0x1F8 JUMPI DUP1 PUSH4 0x560FF06E EQ PUSH2 0x236 JUMPI DUP1 PUSH4 0x5994270A EQ PUSH2 0x252 JUMPI PUSH2 0xFD JUMP JUMPDEST DUP1 PUSH4 0x3985522 EQ PUSH2 0x101 JUMPI DUP1 PUSH4 0x6661ABD EQ PUSH2 0x129 JUMPI DUP1 PUSH4 0x20F3DAF9 EQ PUSH2 0x153 JUMPI DUP1 PUSH4 0x32F6B4A2 EQ PUSH2 0x17D JUMPI JUMPDEST PUSH0 PUSH0 REVERT JUMPDEST CALLVALUE DUP1 ISZERO PUSH2 0x10C JUMPI PUSH0 PUSH0 REVERT JUMPDEST POP PUSH2 0x127 PUSH1 0x4 DUP1 CALLDATASIZE SUB DUP2 ADD SWAP1 PUSH2 0x122 SWAP2 SWAP1 PUSH2 0x1147 JUMP JUMPDEST PUSH2 0x42E JUMP JUMPDEST STOP JUMPDEST CALLVALUE DUP1 ISZERO PUSH2 0x134 JUMPI PUSH0 PUSH0 REVERT JUMPDEST POP PUSH2 0x13D PUSH2 0x458 JUMP JUMPDEST PUSH1 0x40 MLOAD PUSH2 0x14A SWAP2 SWAP1 PUSH2 0x11B0 JUMP JUMPDEST PUSH1 0x40 MLOAD DUP1 SWAP2 SUB SWAP1 RETURN JUMPDEST CALLVALUE DUP1 ISZERO PUSH2 0x15E JUMPI PUSH0 PUSH0 REVERT JUMPDEST POP PUSH2 0x167 PUSH2 0x45E JUMP JUMPDEST PUSH1 0x40 MLOAD PUSH2 0x174 SWAP2 SWAP1 PUSH2 0x11B0 JUMP JUMPDEST PUSH1 0x40 MLOAD DUP1 SWAP2 SUB SWAP1 RETURN JUMPDEST CALLVALUE DUP1 ISZERO PUSH2 0x188 JUMPI PUSH0 PUSH0 REVERT JUMPDEST POP PUSH2 0x1A3 PUSH1 0x4 DUP1 CALLDATASIZE SUB DUP2 ADD SWAP1 PUSH2 0x19E SWAP2 SWAP1 PUSH2 0x11C9 JUMP JUMPDEST PUSH2 0x467 JUMP JUMPDEST PUSH1 0x40 MLOAD PUSH2 0x1B1 SWAP3 SWAP2 SWAP1 PUSH2 0x1270 JUMP JUMPDEST PUSH1 0x40 MLOAD DUP1 SWAP2 SUB SWAP1 RETURN JUMPDEST CALLVALUE DUP1 ISZERO PUSH2 0x1C5 JUMPI PUSH0 PUSH0 REVERT JUMPDEST POP PUSH2 0x1E0 PUSH1 0x4 DUP1 CALLDATASIZE SUB DUP2 ADD SWAP1 PUSH2 0x1DB SWAP2 SWAP1 PUSH2 0x11C9 JUMP JUMPDEST PUSH2 0x53F JUMP JUMPDEST PUSH1 0x40 MLOAD PUSH2 0x1EF SWAP4 SWAP3 SWAP2 SWAP1 PUSH2 0x12DD JUMP JUMPDEST PUSH1 0x40 MLOAD DUP1 SWAP2 SUB SWAP1 RETURN JUMPDEST CALLVALUE DUP1 ISZERO PUSH2 0x203 JUMPI PUSH0 PUSH0 REVERT JUMPDEST POP PUSH2 0x21E PUSH1 0x4 DUP1 CALLDATASIZE SUB DUP2 ADD SWAP1 PUSH2 0x219 SWAP2 SWAP1 PUSH2 0x1319 JUMP JUMPDEST PUSH2 0x622 JUMP JUMPDEST PUSH1 0x40 MLOAD PUSH2 0x22D SWAP4 SWAP3 SWAP2 SWAP1 PUSH2 0x1344 JUMP JUMPDEST PUSH1 0x40 MLOAD DUP1 SWAP2 SUB SWAP1 RETURN JUMPDEST PUSH2 0x250 PUSH1 0x4 DUP1 CALLDATASIZE SUB DUP2 ADD SWAP1 PUSH2 0x24B SWAP2 SWAP1 PUSH2 0x13AA JUMP JUMPDEST PUSH2 0x6ED JUMP JUMPDEST STOP JUMPDEST PUSH2 0x26C PUSH1 0x4 DUP1 CALLDATASIZE SUB DUP2 ADD SWAP1 PUSH2 0x267 SWAP2 SWAP1 PUSH2 0x142A JUMP JUMPDEST PUSH2 0xA3E JUMP JUMPDEST STOP JUMPDEST CALLVALUE DUP1 ISZERO PUSH2 0x279 JUMPI PUSH0 PUSH0 REVERT JUMPDEST POP PUSH2 0x282 PUSH2 0xB03 JUMP JUMPDEST PUSH1 0x40 MLOAD PUSH2 0x28F SWAP2 SWAP1 PUSH2 0x11B0 JUMP JUMPDEST PUSH1 0x40 MLOAD DUP1 SWAP2 SUB SWAP1 RETURN JUMPDEST CALLVALUE DUP1 ISZERO PUSH2 0x2A3 JUMPI PUSH0 PUSH0 REVERT JUMPDEST POP PUSH2 0x2AC PUSH2 0xB09 JUMP JUMPDEST PUSH1 0x40 MLOAD PUSH2 0x2B9 SWAP2 SWAP1 PUSH2 0x1604 JUMP JUMPDEST PUSH1 0x40 MLOAD DUP1 SWAP2 SUB SWAP1 RETURN JUMPDEST CALLVALUE DUP1 ISZERO PUSH2 0x2CD JUMPI PUSH0 PUSH0 REVERT JUMPDEST POP PUSH2 0x2E8 PUSH1 0x4 DUP1 CALLDATASIZE SUB DUP2 ADD SWAP1 PUSH2 0x2E3 SWAP2 SWAP1 PUSH2 0x1624 JUMP JUMPDEST PUSH2 0xCAE JUMP JUMPDEST PUSH1 0x40 MLOAD PUSH2 0x2F5 SWAP2 SWAP1 PUSH2 0x1669 JUMP JUMPDEST PUSH1 0x40 MLOAD DUP1 SWAP2 SUB SWAP1 RETURN JUMPDEST CALLVALUE DUP1 ISZERO PUSH2 0x309 JUMPI PUSH0 PUSH0 REVERT JUMPDEST POP PUSH2 0x312 PUSH2 0xCCB JUMP JUMPDEST PUSH1 0x40 MLOAD PUSH2 0x31F SWAP2 SWAP1 PUSH2 0x1682 JUMP JUMPDEST PUSH1 0x40 MLOAD DUP1 SWAP2 SUB SWAP1 RETURN JUMPDEST CALLVALUE DUP1 ISZERO PUSH2 0x333 JUMPI PUSH0 PUSH0 REVERT JUMPDEST POP PUSH2 0x34E PUSH1 0x4 DUP1 CALLDATASIZE SUB DUP2 ADD SWAP1 PUSH2 0x349 SWAP2 SWAP1 PUSH2 0x1624 JUMP JUMPDEST PUSH2 0xCEF JUMP JUMPDEST PUSH1 0x40 MLOAD PUSH2 0x35D SWAP4 SWAP3 SWAP2 SWAP1 PUSH2 0x1344 JUMP JUMPDEST PUSH1 0x40 MLOAD DUP1 SWAP2 SUB SWAP1 RETURN JUMPDEST CALLVALUE DUP1 ISZERO PUSH2 0x371 JUMPI PUSH0 PUSH0 REVERT JUMPDEST POP PUSH2 0x38C PUSH1 0x4 DUP1 CALLDATASIZE SUB DUP2 ADD SWAP1 PUSH2 0x387 SWAP2 SWAP1 PUSH2 0x169B JUMP JUMPDEST PUSH2 0xDBA JUMP JUMPDEST STOP JUMPDEST CALLVALUE DUP1 ISZERO PUSH2 0x399 JUMPI PUSH0 PUSH0 REVERT JUMPDEST POP PUSH2 0x3B4 PUSH1 0x4 DUP1 CALLDATASIZE SUB DUP2 ADD SWAP1 PUSH2 0x3AF SWAP2 SWAP1 PUSH2 0x1147 JUMP JUMPDEST PUSH2 0xE1D JUMP JUMPDEST STOP JUMPDEST CALLVALUE DUP1 ISZERO PUSH2 0x3C1 JUMPI PUSH0 PUSH0 REVERT JUMPDEST POP PUSH2 0x3DC PUSH1 0x4 DUP1 CALLDATASIZE SUB DUP2 ADD SWAP1 PUSH2 0x3D7 SWAP2 SWAP1 PUSH2 0x11C9 JUMP JUMPDEST PUSH2 0xF30 JUMP JUMPDEST PUSH1 0x40 MLOAD PUSH2 0x3E9 SWAP2 SWAP1 PUSH2 0x11B0 JUMP JUMPDEST PUSH1 0x40 MLOAD DUP1 SWAP2 SUB SWAP1 RETURN JUMPDEST CALLVALUE DUP1 ISZERO PUSH2 0x3FD JUMPI PUSH0 PUSH0 REVERT JUMPDEST POP PUSH2 0x418 PUSH1 0x4 DUP1 CALLDATASIZE SUB DUP2 ADD SWAP1 PUSH2 0x413 SWAP2 SWAP1 PUSH2 0x1147 JUMP JUMPDEST PUSH2 0xF5A JUMP JUMPDEST PUSH1 0x40 MLOAD PUSH2 0x425 SWAP2 SWAP1 PUSH2 0x11B0 JUMP JUMPDEST PUSH1 0x40 MLOAD DUP1 SWAP2 SUB SWAP1 RETURN JUMPDEST DUP1 PUSH1 0x6 DUP4 PUSH1 0x40 MLOAD PUSH2 0x43F SWAP2 SWAP1 PUSH2 0x172F JUMP JUMPDEST SWAP1 DUP2 MSTORE PUSH1 0x20 ADD PUSH1 0x40 MLOAD DUP1 SWAP2 SUB SWAP1 KECCAK256 PUSH1 0x2 ADD DUP2 SWAP1 SSTORE POP POP POP JUMP JUMPDEST PUSH1 0x2 SLOAD DUP2 JUMP JUMPDEST PUSH0 PUSH1 0x1 SLOAD SWAP1 POP SWAP1 JUMP JUMPDEST PUSH1 0x60 PUSH0 PUSH1 0x6 DUP4 PUSH1 0x40 MLOAD PUSH2 0x47A SWAP2 SWAP1 PUSH2 0x172F JUMP JUMPDEST SWAP1 DUP2 MSTORE PUSH1 0x20 ADD PUSH1 0x40 MLOAD DUP1 SWAP2 SUB SWAP1 KECCAK256 PUSH0 ADD PUSH1 0x6 DUP5 PUSH1 0x40 MLOAD PUSH2 0x49A SWAP2 SWAP1 PUSH2 0x172F JUMP JUMPDEST SWAP1 DUP2 MSTORE PUSH1 0x20 ADD PUSH1 0x40 MLOAD DUP1 SWAP2 SUB SWAP1 KECCAK256 PUSH1 0x2 ADD SLOAD DUP2 DUP1 SLOAD PUSH2 0x4B8 SWAP1 PUSH2 0x1772 JUMP JUMPDEST DUP1 PUSH1 0x1F ADD PUSH1 0x20 DUP1 SWAP2 DIV MUL PUSH1 0x20 ADD PUSH1 0x40 MLOAD SWAP1 DUP2 ADD PUSH1 0x40 MSTORE DUP1 SWAP3 SWAP2 SWAP1 DUP2 DUP2 MSTORE PUSH1 0x20 ADD DUP3 DUP1 SLOAD PUSH2 0x4E4 SWAP1 PUSH2 0x1772 JUMP JUMPDEST DUP1 ISZERO PUSH2 0x52F JUMPI DUP1 PUSH1 0x1F LT PUSH2 0x506 JUMPI PUSH2 0x100 DUP1 DUP4 SLOAD DIV MUL DUP4 MSTORE SWAP2 PUSH1 0x20 ADD SWAP2 PUSH2 0x52F JUMP JUMPDEST DUP3 ADD SWAP2 SWAP1 PUSH0 MSTORE PUSH1 0x20 PUSH0 KECCAK256 SWAP1 JUMPDEST DUP2 SLOAD DUP2 MSTORE SWAP1 PUSH1 0x1 ADD SWAP1 PUSH1 0x20 ADD DUP1 DUP4 GT PUSH2 0x512 JUMPI DUP3 SWAP1 SUB PUSH1 0x1F AND DUP3 ADD SWAP2 JUMPDEST POP POP POP POP POP SWAP2 POP SWAP2 POP SWAP2 POP SWAP2 POP SWAP2 JUMP JUMPDEST PUSH1 0x6 DUP2 DUP1 MLOAD PUSH1 0x20 DUP2 ADD DUP3 ADD DUP1 MLOAD DUP5 DUP3 MSTORE PUSH1 0x20 DUP4 ADD PUSH1 0x20 DUP6 ADD KECCAK256 DUP2 DUP4 MSTORE DUP1 SWAP6 POP POP POP POP POP POP PUSH0 SWAP2 POP SWAP1 POP DUP1 PUSH0 ADD DUP1 SLOAD PUSH2 0x576 SWAP1 PUSH2 0x1772 JUMP JUMPDEST DUP1 PUSH1 0x1F ADD PUSH1 0x20 DUP1 SWAP2 DIV MUL PUSH1 0x20 ADD PUSH1 0x40 MLOAD SWAP1 DUP2 ADD PUSH1 0x40 MSTORE DUP1 SWAP3 SWAP2 SWAP1 DUP2 DUP2 MSTORE PUSH1 0x20 ADD DUP3 DUP1 SLOAD PUSH2 0x5A2 SWAP1 PUSH2 0x1772 JUMP JUMPDEST DUP1 ISZERO PUSH2 0x5ED JUMPI DUP1 PUSH1 0x1F LT PUSH2 0x5C4 JUMPI PUSH2 0x100 DUP1 DUP4 SLOAD DIV MUL DUP4 MSTORE SWAP2 PUSH1 0x20 ADD SWAP2 PUSH2 0x5ED JUMP JUMPDEST DUP3 ADD SWAP2 SWAP1 PUSH0 MSTORE PUSH1 0x20 PUSH0 KECCAK256 SWAP1 JUMPDEST DUP2 SLOAD DUP2 MSTORE SWAP1 PUSH1 0x1 ADD SWAP1 PUSH1 0x20 ADD DUP1 DUP4 GT PUSH2 0x5D0 JUMPI DUP3 SWAP1 SUB PUSH1 0x1F AND DUP3 ADD SWAP2 JUMPDEST POP POP POP POP POP SWAP1 DUP1 PUSH1 0x1 ADD PUSH0 SWAP1 SLOAD SWAP1 PUSH2 0x100 EXP SWAP1 DIV PUSH20 0xFFFFFFFFFFFFFFFFFFFFFFFFFFFFFFFFFFFFFFFF AND SWAP1 DUP1 PUSH1 0x2 ADD SLOAD SWAP1 POP DUP4 JUMP JUMPDEST PUSH1 0x3 PUSH1 0x20 MSTORE DUP1 PUSH0 MSTORE PUSH1 0x40 PUSH0 KECCAK256 PUSH0 SWAP2 POP SWAP1 POP DUP1 PUSH0 ADD PUSH0 SWAP1 SLOAD SWAP1 PUSH2 0x100 EXP SWAP1 DIV PUSH20 0xFFFFFFFFFFFFFFFFFFFFFFFFFFFFFFFFFFFFFFFF AND SWAP1 DUP1 PUSH1 0x1 ADD DUP1 SLOAD PUSH2 0x666 SWAP1 PUSH2 0x1772 JUMP JUMPDEST DUP1 PUSH1 0x1F ADD PUSH1 0x20 DUP1 SWAP2 DIV MUL PUSH1 0x20 ADD PUSH1 0x40 MLOAD SWAP1 DUP2 ADD PUSH1 0x40 MSTORE DUP1 SWAP3 SWAP2 SWAP1 DUP2 DUP2 MSTORE PUSH1 0x20 ADD DUP3 DUP1 SLOAD PUSH2 0x692 SWAP1 PUSH2 0x1772 JUMP JUMPDEST DUP1 ISZERO PUSH2 0x6DD JUMPI DUP1 PUSH1 0x1F LT PUSH2 0x6B4 JUMPI PUSH2 0x100 DUP1 DUP4 SLOAD DIV MUL DUP4 MSTORE SWAP2 PUSH1 0x20 ADD SWAP2 PUSH2 0x6DD JUMP JUMPDEST DUP3 ADD SWAP2 SWAP1 PUSH0 MSTORE PUSH1 0x20 PUSH0 KECCAK256 SWAP1 JUMPDEST DUP2 SLOAD DUP2 MSTORE SWAP1 PUSH1 0x1 ADD SWAP1 PUSH1 0x20 ADD DUP1 DUP4 GT PUSH2 0x6C0 JUMPI DUP3 SWAP1 SUB PUSH1 0x1F AND DUP3 ADD SWAP2 JUMPDEST POP POP POP POP POP SWAP1 DUP1 PUSH1 0x2 ADD SLOAD SWAP1 POP DUP4 JUMP JUMPDEST PUSH0 DUP3 GT DUP1 ISZERO PUSH2 0x6FB JUMPI POP PUSH0 DUP2 GT JUMPDEST PUSH2 0x73A JUMPI PUSH1 0x40 MLOAD PUSH32 0x8C379A000000000000000000000000000000000000000000000000000000000 DUP2 MSTORE PUSH1 0x4 ADD PUSH2 0x731 SWAP1 PUSH2 0x1812 JUMP JUMPDEST PUSH1 0x40 MLOAD DUP1 SWAP2 SUB SWAP1 REVERT JUMPDEST DUP1 PUSH1 0x5 DUP5 PUSH1 0x40 MLOAD PUSH2 0x74B SWAP2 SWAP1 PUSH2 0x172F JUMP JUMPDEST SWAP1 DUP2 MSTORE PUSH1 0x20 ADD PUSH1 0x40 MLOAD DUP1 SWAP2 SUB SWAP1 KECCAK256 PUSH0 DUP5 DUP2 MSTORE PUSH1 0x20 ADD SWAP1 DUP2 MSTORE PUSH1 0x20 ADD PUSH0 KECCAK256 SLOAD EQ PUSH2 0x7A9 JUMPI PUSH1 0x40 MLOAD PUSH32 0x8C379A000000000000000000000000000000000000000000000000000000000 DUP2 MSTORE PUSH1 0x4 ADD PUSH2 0x7A0 SWAP1 PUSH2 0x187A JUMP JUMPDEST PUSH1 0x40 MLOAD DUP1 SWAP2 SUB SWAP1 REVERT JUMPDEST DUP2 PUSH1 0x6 DUP5 PUSH1 0x40 MLOAD PUSH2 0x7BA SWAP2 SWAP1 PUSH2 0x172F JUMP JUMPDEST SWAP1 DUP2 MSTORE PUSH1 0x20 ADD PUSH1 0x40 MLOAD DUP1 SWAP2 SUB SWAP1 KECCAK256 PUSH1 0x2 ADD SLOAD LT ISZERO PUSH2 0x80D JUMPI PUSH1 0x40 MLOAD PUSH32 0x8C379A000000000000000000000000000000000000000000000000000000000 DUP2 MSTORE PUSH1 0x4 ADD PUSH2 0x804 SWAP1 PUSH2 0x18E2 JUMP JUMPDEST PUSH1 0x40 MLOAD DUP1 SWAP2 SUB SWAP1 REVERT JUMPDEST PUSH1 0x4 PUSH0 DUP6 PUSH20 0xFFFFFFFFFFFFFFFFFFFFFFFFFFFFFFFFFFFFFFFF AND PUSH20 0xFFFFFFFFFFFFFFFFFFFFFFFFFFFFFFFFFFFFFFFF AND DUP2 MSTORE PUSH1 0x20 ADD SWAP1 DUP2 MSTORE PUSH1 0x20 ADD PUSH0 KECCAK256 PUSH0 SWAP1 SLOAD SWAP1 PUSH2 0x100 EXP SWAP1 DIV PUSH1 0xFF AND PUSH2 0x8C8 JUMPI PUSH1 0x1 PUSH1 0x4 PUSH0 DUP7 PUSH20 0xFFFFFFFFFFFFFFFFFFFFFFFFFFFFFFFFFFFFFFFF AND PUSH20 0xFFFFFFFFFFFFFFFFFFFFFFFFFFFFFFFFFFFFFFFF AND DUP2 MSTORE PUSH1 0x20 ADD SWAP1 DUP2 MSTORE PUSH1 0x20 ADD PUSH0 KECCAK256 PUSH0 PUSH2 0x100 EXP DUP2 SLOAD DUP2 PUSH1 0xFF MUL NOT AND SWAP1 DUP4 ISZERO ISZERO MUL OR SWAP1 SSTORE POP PUSH1 0x2 PUSH0 DUP2 SLOAD DUP1 SWAP3 SWAP2 SWAP1 PUSH2 0x8C2 SWAP1 PUSH2 0x192D JUMP JUMPDEST SWAP2 SWAP1 POP SSTORE POP JUMPDEST DUP2 PUSH1 0x6 DUP5 PUSH1 0x40 MLOAD PUSH2 0x8D9 SWAP2 SWAP1 PUSH2 0x172F JUMP JUMPDEST SWAP1 DUP2 MSTORE PUSH1 0x20 ADD PUSH1 0x40 MLOAD DUP1 SWAP2 SUB SWAP1 KECCAK256 PUSH1 0x2 ADD PUSH0 DUP3 DUP3 SLOAD PUSH2 0x8F8 SWAP2 SWAP1 PUSH2 0x1974 JUMP JUMPDEST SWAP3 POP POP DUP2 SWAP1 SSTORE POP DUP2 PUSH1 0x7 PUSH0 DUP7 PUSH20 0xFFFFFFFFFFFFFFFFFFFFFFFFFFFFFFFFFFFFFFFF AND PUSH20 0xFFFFFFFFFFFFFFFFFFFFFFFFFFFFFFFFFFFFFFFF AND DUP2 MSTORE PUSH1 0x20 ADD SWAP1 DUP2 MSTORE PUSH1 0x20 ADD PUSH0 KECCAK256 PUSH1 0x2 ADD PUSH0 DUP3 DUP3 SLOAD PUSH2 0x94E SWAP2 SWAP1 PUSH2 0x19A7 JUMP JUMPDEST SWAP3 POP POP DUP2 SWAP1 SSTORE POP DUP3 PUSH1 0x7 PUSH0 DUP7 PUSH20 0xFFFFFFFFFFFFFFFFFFFFFFFFFFFFFFFFFFFFFFFF AND PUSH20 0xFFFFFFFFFFFFFFFFFFFFFFFFFFFFFFFFFFFFFFFF AND DUP2 MSTORE PUSH1 0x20 ADD SWAP1 DUP2 MSTORE PUSH1 0x20 ADD PUSH0 KECCAK256 PUSH1 0x1 ADD SWAP1 DUP2 PUSH2 0x9A2 SWAP2 SWAP1 PUSH2 0x1B7A JUMP JUMPDEST POP DUP4 PUSH1 0x7 PUSH0 DUP7 PUSH20 0xFFFFFFFFFFFFFFFFFFFFFFFFFFFFFFFFFFFFFFFF AND PUSH20 0xFFFFFFFFFFFFFFFFFFFFFFFFFFFFFFFFFFFFFFFF AND DUP2 MSTORE PUSH1 0x20 ADD SWAP1 DUP2 MSTORE PUSH1 0x20 ADD PUSH0 KECCAK256 PUSH0 ADD PUSH0 PUSH2 0x100 EXP DUP2 SLOAD DUP2 PUSH20 0xFFFFFFFFFFFFFFFFFFFFFFFFFFFFFFFFFFFFFFFF MUL NOT AND SWAP1 DUP4 PUSH20 0xFFFFFFFFFFFFFFFFFFFFFFFFFFFFFFFFFFFFFFFF AND MUL OR SWAP1 SSTORE POP DUP1 PUSH1 0x1 PUSH0 DUP3 DUP3 SLOAD PUSH2 0xA31 SWAP2 SWAP1 PUSH2 0x19A7 JUMP JUMPDEST SWAP3 POP POP DUP2 SWAP1 SSTORE POP POP POP POP POP JUMP JUMPDEST PUSH0 PUSH0 SWAP1 SLOAD SWAP1 PUSH2 0x100 EXP SWAP1 DIV PUSH20 0xFFFFFFFFFFFFFFFFFFFFFFFFFFFFFFFFFFFFFFFF AND PUSH20 0xFFFFFFFFFFFFFFFFFFFFFFFFFFFFFFFFFFFFFFFF AND CALLER PUSH20 0xFFFFFFFFFFFFFFFFFFFFFFFFFFFFFFFFFFFFFFFF AND EQ PUSH2 0xACC JUMPI PUSH1 0x40 MLOAD PUSH32 0x8C379A000000000000000000000000000000000000000000000000000000000 DUP2 MSTORE PUSH1 0x4 ADD PUSH2 0xAC3 SWAP1 PUSH2 0x1C93 JUMP JUMPDEST PUSH1 0x40 MLOAD DUP1 SWAP2 SUB SWAP1 REVERT JUMPDEST DUP1 PUSH1 0x5 DUP5 PUSH1 0x40 MLOAD PUSH2 0xADD SWAP2 SWAP1 PUSH2 0x172F JUMP JUMPDEST SWAP1 DUP2 MSTORE PUSH1 0x20 ADD PUSH1 0x40 MLOAD DUP1 SWAP2 SUB SWAP1 KECCAK256 PUSH0 DUP5 DUP2 MSTORE PUSH1 0x20 ADD SWAP1 DUP2 MSTORE PUSH1 0x20 ADD PUSH0 KECCAK256 DUP2 SWAP1 SSTORE POP POP POP POP JUMP JUMPDEST PUSH1 0x1 SLOAD DUP2 JUMP JUMPDEST PUSH1 0x60 PUSH0 PUSH1 0x2 SLOAD PUSH8 0xFFFFFFFFFFFFFFFF DUP2 GT ISZERO PUSH2 0xB28 JUMPI PUSH2 0xB27 PUSH2 0xFF0 JUMP JUMPDEST JUMPDEST PUSH1 0x40 MLOAD SWAP1 DUP1 DUP3 MSTORE DUP1 PUSH1 0x20 MUL PUSH1 0x20 ADD DUP3 ADD PUSH1 0x40 MSTORE DUP1 ISZERO PUSH2 0xB61 JUMPI DUP2 PUSH1 0x20 ADD JUMPDEST PUSH2 0xB4E PUSH2 0xF92 JUMP JUMPDEST DUP2 MSTORE PUSH1 0x20 ADD SWAP1 PUSH1 0x1 SWAP1 SUB SWAP1 DUP2 PUSH2 0xB46 JUMPI SWAP1 POP JUMPDEST POP SWAP1 POP PUSH0 PUSH0 SWAP1 POP JUMPDEST PUSH1 0x2 SLOAD DUP2 LT ISZERO PUSH2 0xCA6 JUMPI PUSH1 0x3 PUSH0 DUP3 DUP2 MSTORE PUSH1 0x20 ADD SWAP1 DUP2 MSTORE PUSH1 0x20 ADD PUSH0 KECCAK256 PUSH1 0x40 MLOAD DUP1 PUSH1 0x60 ADD PUSH1 0x40 MSTORE SWAP1 DUP2 PUSH0 DUP3 ADD PUSH0 SWAP1 SLOAD SWAP1 PUSH2 0x100 EXP SWAP1 DIV PUSH20 0xFFFFFFFFFFFFFFFFFFFFFFFFFFFFFFFFFFFFFFFF AND PUSH20 0xFFFFFFFFFFFFFFFFFFFFFFFFFFFFFFFFFFFFFFFF AND PUSH20 0xFFFFFFFFFFFFFFFFFFFFFFFFFFFFFFFFFFFFFFFF AND DUP2 MSTORE PUSH1 0x20 ADD PUSH1 0x1 DUP3 ADD DUP1 SLOAD PUSH2 0xBF3 SWAP1 PUSH2 0x1772 JUMP JUMPDEST DUP1 PUSH1 0x1F ADD PUSH1 0x20 DUP1 SWAP2 DIV MUL PUSH1 0x20 ADD PUSH1 0x40 MLOAD SWAP1 DUP2 ADD PUSH1 0x40 MSTORE DUP1 SWAP3 SWAP2 SWAP1 DUP2 DUP2 MSTORE PUSH1 0x20 ADD DUP3 DUP1 SLOAD PUSH2 0xC1F SWAP1 PUSH2 0x1772 JUMP JUMPDEST DUP1 ISZERO PUSH2 0xC6A JUMPI DUP1 PUSH1 0x1F LT PUSH2 0xC41 JUMPI PUSH2 0x100 DUP1 DUP4 SLOAD DIV MUL DUP4 MSTORE SWAP2 PUSH1 0x20 ADD SWAP2 PUSH2 0xC6A JUMP JUMPDEST DUP3 ADD SWAP2 SWAP1 PUSH0 MSTORE PUSH1 0x20 PUSH0 KECCAK256 SWAP1 JUMPDEST DUP2 SLOAD DUP2 MSTORE SWAP1 PUSH1 0x1 ADD SWAP1 PUSH1 0x20 ADD DUP1 DUP4 GT PUSH2 0xC4D JUMPI DUP3 SWAP1 SUB PUSH1 0x1F AND DUP3 ADD SWAP2 JUMPDEST POP POP POP POP POP DUP2 MSTORE PUSH1 0x20 ADD PUSH1 0x2 DUP3 ADD SLOAD DUP2 MSTORE POP POP DUP3 DUP3 DUP2 MLOAD DUP2 LT PUSH2 0xC90 JUMPI PUSH2 0xC8F PUSH2 0x1CB1 JUMP JUMPDEST JUMPDEST PUSH1 0x20 MUL PUSH1 0x20 ADD ADD DUP2 SWAP1 MSTORE POP DUP1 PUSH1 0x1 ADD SWAP1 POP PUSH2 0xB69 JUMP JUMPDEST POP DUP1 SWAP2 POP POP SWAP1 JUMP JUMPDEST PUSH1 0x4 PUSH1 0x20 MSTORE DUP1 PUSH0 MSTORE PUSH1 0x40 PUSH0 KECCAK256 PUSH0 SWAP2 POP SLOAD SWAP1 PUSH2 0x100 EXP SWAP1 DIV PUSH1 0xFF AND DUP2 JUMP JUMPDEST PUSH0 PUSH0 SWAP1 SLOAD SWAP1 PUSH2 0x100 EXP SWAP1 DIV PUSH20 0xFFFFFFFFFFFFFFFFFFFFFFFFFFFFFFFFFFFFFFFF AND DUP2 JUMP JUMPDEST PUSH1 0x7 PUSH1 0x20 MSTORE DUP1 PUSH0 MSTORE PUSH1 0x40 PUSH0 KECCAK256 PUSH0 SWAP2 POP SWAP1 POP DUP1 PUSH0 ADD PUSH0 SWAP1 SLOAD SWAP1 PUSH2 0x100 EXP SWAP1 DIV PUSH20 0xFFFFFFFFFFFFFFFFFFFFFFFFFFFFFFFFFFFFFFFF AND SWAP1 DUP1 PUSH1 0x1 ADD DUP1 SLOAD PUSH2 0xD33 SWAP1 PUSH2 0x1772 JUMP JUMPDEST DUP1 PUSH1 0x1F ADD PUSH1 0x20 DUP1 SWAP2 DIV MUL PUSH1 0x20 ADD PUSH1 0x40 MLOAD SWAP1 DUP2 ADD PUSH1 0x40 MSTORE DUP1 SWAP3 SWAP2 SWAP1 DUP2 DUP2 MSTORE PUSH1 0x20 ADD DUP3 DUP1 SLOAD PUSH2 0xD5F SWAP1 PUSH2 0x1772 JUMP JUMPDEST DUP1 ISZERO PUSH2 0xDAA JUMPI DUP1 PUSH1 0x1F LT PUSH2 0xD81 JUMPI PUSH2 0x100 DUP1 DUP4 SLOAD DIV MUL DUP4 MSTORE SWAP2 PUSH1 0x20 ADD SWAP2 PUSH2 0xDAA JUMP JUMPDEST DUP3 ADD SWAP2 SWAP1 PUSH0 MSTORE PUSH1 0x20 PUSH0 KECCAK256 SWAP1 JUMPDEST DUP2 SLOAD DUP2 MSTORE SWAP1 PUSH1 0x1 ADD SWAP1 PUSH1 0x20 ADD DUP1 DUP4 GT PUSH2 0xD8D JUMPI DUP3 SWAP1 SUB PUSH1 0x1F AND DUP3 ADD SWAP2 JUMPDEST POP POP POP POP POP SWAP1 DUP1 PUSH1 0x2 ADD SLOAD SWAP1 POP DUP4 JUMP JUMPDEST DUP1 PUSH1 0x6 DUP4 PUSH1 0x40 MLOAD PUSH2 0xDCB SWAP2 SWAP1 PUSH2 0x172F JUMP JUMPDEST SWAP1 DUP2 MSTORE PUSH1 0x20 ADD PUSH1 0x40 MLOAD DUP1 SWAP2 SUB SWAP1 KECCAK256 PUSH1 0x1 ADD PUSH0 PUSH2 0x100 EXP DUP2 SLOAD DUP2 PUSH20 0xFFFFFFFFFFFFFFFFFFFFFFFFFFFFFFFFFFFFFFFF MUL NOT AND SWAP1 DUP4 PUSH20 0xFFFFFFFFFFFFFFFFFFFFFFFFFFFFFFFFFFFFFFFF AND MUL OR SWAP1 SSTORE POP POP POP JUMP JUMPDEST PUSH1 0x40 MLOAD DUP1 PUSH1 0x60 ADD PUSH1 0x40 MSTORE DUP1 DUP4 DUP2 MSTORE PUSH1 0x20 ADD CALLER PUSH20 0xFFFFFFFFFFFFFFFFFFFFFFFFFFFFFFFFFFFFFFFF AND DUP2 MSTORE PUSH1 0x20 ADD DUP3 DUP2 MSTORE POP PUSH1 0x6 DUP4 PUSH1 0x40 MLOAD PUSH2 0xE5E SWAP2 SWAP1 PUSH2 0x172F JUMP JUMPDEST SWAP1 DUP2 MSTORE PUSH1 0x20 ADD PUSH1 0x40 MLOAD DUP1 SWAP2 SUB SWAP1 KECCAK256 PUSH0 DUP3 ADD MLOAD DUP2 PUSH0 ADD SWAP1 DUP2 PUSH2 0xE7F SWAP2 SWAP1 PUSH2 0x1B7A JUMP JUMPDEST POP PUSH1 0x20 DUP3 ADD MLOAD DUP2 PUSH1 0x1 ADD PUSH0 PUSH2 0x100 EXP DUP2 SLOAD DUP2 PUSH20 0xFFFFFFFFFFFFFFFFFFFFFFFFFFFFFFFFFFFFFFFF MUL NOT AND SWAP1 DUP4 PUSH20 0xFFFFFFFFFFFFFFFFFFFFFFFFFFFFFFFFFFFFFFFF AND MUL OR SWAP1 SSTORE POP PUSH1 0x40 DUP3 ADD MLOAD DUP2 PUSH1 0x2 ADD SSTORE SWAP1 POP POP CALLER PUSH20 0xFFFFFFFFFFFFFFFFFFFFFFFFFFFFFFFFFFFFFFFF AND DUP3 PUSH1 0x40 MLOAD PUSH2 0xEF8 SWAP2 SWAP1 PUSH2 0x172F JUMP JUMPDEST PUSH1 0x40 MLOAD DUP1 SWAP2 SUB SWAP1 KECCAK256 PUSH32 0x5303D8F6A62614D593A982FFE01281D91A27F12026951B9567B58807FDEBB5DF PUSH1 0x40 MLOAD PUSH1 0x40 MLOAD DUP1 SWAP2 SUB SWAP1 LOG3 POP POP JUMP JUMPDEST PUSH0 PUSH1 0x6 DUP3 PUSH1 0x40 MLOAD PUSH2 0xF41 SWAP2 SWAP1 PUSH2 0x172F JUMP JUMPDEST SWAP1 DUP2 MSTORE PUSH1 0x20 ADD PUSH1 0x40 MLOAD DUP1 SWAP2 SUB SWAP1 KECCAK256 PUSH1 0x2 ADD SLOAD SWAP1 POP SWAP2 SWAP1 POP JUMP JUMPDEST PUSH1 0x5 DUP3 DUP1 MLOAD PUSH1 0x20 DUP2 ADD DUP3 ADD DUP1 MLOAD DUP5 DUP3 MSTORE PUSH1 0x20 DUP4 ADD PUSH1 0x20 DUP6 ADD KECCAK256 DUP2 DUP4 MSTORE DUP1 SWAP6 POP POP POP POP POP POP PUSH1 0x20 MSTORE DUP1 PUSH0 MSTORE PUSH1 0x40 PUSH0 KECCAK256 PUSH0 SWAP2 POP SWAP2 POP POP SLOAD DUP2 JUMP JUMPDEST PUSH1 0x40 MLOAD DUP1 PUSH1 0x60 ADD PUSH1 0x40 MSTORE DUP1 PUSH0 PUSH20 0xFFFFFFFFFFFFFFFFFFFFFFFFFFFFFFFFFFFFFFFF AND DUP2 MSTORE PUSH1 0x20 ADD PUSH1 0x60 DUP2 MSTORE PUSH1 0x20 ADD PUSH0 DUP2 MSTORE POP SWAP1 JUMP JUMPDEST PUSH0 PUSH1 0x40 MLOAD SWAP1 POP SWAP1 JUMP JUMPDEST PUSH0 PUSH0 REVERT JUMPDEST PUSH0 PUSH0 REVERT JUMPDEST PUSH0 PUSH0 REVERT JUMPDEST PUSH0 PUSH0 REVERT JUMPDEST PUSH0 PUSH1 0x1F NOT PUSH1 0x1F DUP4 ADD AND SWAP1 POP SWAP2 SWAP1 POP JUMP JUMPDEST PUSH32 0x4E487B7100000000000000000000000000000000000000000000000000000000 PUSH0 MSTORE PUSH1 0x41 PUSH1 0x4 MSTORE PUSH1 0x24 PUSH0 REVERT JUMPDEST PUSH2 0x1026 DUP3 PUSH2 0xFE0 JUMP JUMPDEST DUP2 ADD DUP2 DUP2 LT PUSH8 0xFFFFFFFFFFFFFFFF DUP3 GT OR ISZERO PUSH2 0x1045 JUMPI PUSH2 0x1044 PUSH2 0xFF0 JUMP JUMPDEST JUMPDEST DUP1 PUSH1 0x40 MSTORE POP POP POP JUMP JUMPDEST PUSH0 PUSH2 0x1057 PUSH2 0xFC7 JUMP JUMPDEST SWAP1 POP PUSH2 0x1063 DUP3 DUP3 PUSH2 0x101D JUMP JUMPDEST SWAP2 SWAP1 POP JUMP JUMPDEST PUSH0 PUSH8 0xFFFFFFFFFFFFFFFF DUP3 GT ISZERO PUSH2 0x1082 JUMPI PUSH2 0x1081 PUSH2 0xFF0 JUMP JUMPDEST JUMPDEST PUSH2 0x108B DUP3 PUSH2 0xFE0 JUMP JUMPDEST SWAP1 POP PUSH1 0x20 DUP2 ADD SWAP1 POP SWAP2 SWAP1 POP JUMP JUMPDEST DUP3 DUP2 DUP4 CALLDATACOPY PUSH0 DUP4 DUP4 ADD MSTORE POP POP POP JUMP JUMPDEST PUSH0 PUSH2 0x10B8 PUSH2 0x10B3 DUP5 PUSH2 0x1068 JUMP JUMPDEST PUSH2 0x104E JUMP JUMPDEST SWAP1 POP DUP3 DUP2 MSTORE PUSH1 0x20 DUP2 ADD DUP5 DUP5 DUP5 ADD GT ISZERO PUSH2 0x10D4 JUMPI PUSH2 0x10D3 PUSH2 0xFDC JUMP JUMPDEST JUMPDEST PUSH2 0x10DF DUP5 DUP3 DUP6 PUSH2 0x1098 JUMP JUMPDEST POP SWAP4 SWAP3 POP POP POP JUMP JUMPDEST PUSH0 DUP3 PUSH1 0x1F DUP4 ADD SLT PUSH2 0x10FB JUMPI PUSH2 0x10FA PUSH2 0xFD8 JUMP JUMPDEST JUMPDEST DUP2 CALLDATALOAD PUSH2 0x110B DUP5 DUP3 PUSH1 0x20 DUP7 ADD PUSH2 0x10A6 JUMP JUMPDEST SWAP2 POP POP SWAP3 SWAP2 POP POP JUMP JUMPDEST PUSH0 DUP2 SWAP1 POP SWAP2 SWAP1 POP JUMP JUMPDEST PUSH2 0x1126 DUP2 PUSH2 0x1114 JUMP JUMPDEST DUP2 EQ PUSH2 0x1130 JUMPI PUSH0 PUSH0 REVERT JUMPDEST POP JUMP JUMPDEST PUSH0 DUP2 CALLDATALOAD SWAP1 POP PUSH2 0x1141 DUP2 PUSH2 0x111D JUMP JUMPDEST SWAP3 SWAP2 POP POP JUMP JUMPDEST PUSH0 PUSH0 PUSH1 0x40 DUP4 DUP6 SUB SLT ISZERO PUSH2 0x115D JUMPI PUSH2 0x115C PUSH2 0xFD0 JUMP JUMPDEST JUMPDEST PUSH0 DUP4 ADD CALLDATALOAD PUSH8 0xFFFFFFFFFFFFFFFF DUP2 GT ISZERO PUSH2 0x117A JUMPI PUSH2 0x1179 PUSH2 0xFD4 JUMP JUMPDEST JUMPDEST PUSH2 0x1186 DUP6 DUP3 DUP7 ADD PUSH2 0x10E7 JUMP JUMPDEST SWAP3 POP POP PUSH1 0x20 PUSH2 0x1197 DUP6 DUP3 DUP7 ADD PUSH2 0x1133 JUMP JUMPDEST SWAP2 POP POP SWAP3 POP SWAP3 SWAP1 POP JUMP JUMPDEST PUSH2 0x11AA DUP2 PUSH2 0x1114 JUMP JUMPDEST DUP3 MSTORE POP POP JUMP JUMPDEST PUSH0 PUSH1 0x20 DUP3 ADD SWAP1 POP PUSH2 0x11C3 PUSH0 DUP4 ADD DUP5 PUSH2 0x11A1 JUMP JUMPDEST SWAP3 SWAP2 POP POP JUMP JUMPDEST PUSH0 PUSH1 0x20 DUP3 DUP5 SUB SLT ISZERO PUSH2 0x11DE JUMPI PUSH2 0x11DD PUSH2 0xFD0 JUMP JUMPDEST JUMPDEST PUSH0 DUP3 ADD CALLDATALOAD PUSH8 0xFFFFFFFFFFFFFFFF DUP2 GT ISZERO PUSH2 0x11FB JUMPI PUSH2 0x11FA PUSH2 0xFD4 JUMP JUMPDEST JUMPDEST PUSH2 0x1207 DUP5 DUP3 DUP6 ADD PUSH2 0x10E7 JUMP JUMPDEST SWAP2 POP POP SWAP3 SWAP2 POP POP JUMP JUMPDEST PUSH0 DUP2 MLOAD SWAP1 POP SWAP2 SWAP1 POP JUMP JUMPDEST PUSH0 DUP3 DUP3 MSTORE PUSH1 0x20 DUP3 ADD SWAP1 POP SWAP3 SWAP2 POP POP JUMP JUMPDEST DUP3 DUP2 DUP4 MCOPY PUSH0 DUP4 DUP4 ADD MSTORE POP POP POP JUMP JUMPDEST PUSH0 PUSH2 0x1242 DUP3 PUSH2 0x1210 JUMP JUMPDEST PUSH2 0x124C DUP2 DUP6 PUSH2 0x121A JUMP JUMPDEST SWAP4 POP PUSH2 0x125C DUP2 DUP6 PUSH1 0x20 DUP7 ADD PUSH2 0x122A JUMP JUMPDEST PUSH2 0x1265 DUP2 PUSH2 0xFE0 JUMP JUMPDEST DUP5 ADD SWAP2 POP POP SWAP3 SWAP2 POP POP JUMP JUMPDEST PUSH0 PUSH1 0x40 DUP3 ADD SWAP1 POP DUP2 DUP2 SUB PUSH0 DUP4 ADD MSTORE PUSH2 0x1288 DUP2 DUP6 PUSH2 0x1238 JUMP JUMPDEST SWAP1 POP PUSH2 0x1297 PUSH1 0x20 DUP4 ADD DUP5 PUSH2 0x11A1 JUMP JUMPDEST SWAP4 SWAP3 POP POP POP JUMP JUMPDEST PUSH0 PUSH20 0xFFFFFFFFFFFFFFFFFFFFFFFFFFFFFFFFFFFFFFFF DUP3 AND SWAP1 POP SWAP2 SWAP1 POP JUMP JUMPDEST PUSH0 PUSH2 0x12C7 DUP3 PUSH2 0x129E JUMP JUMPDEST SWAP1 POP SWAP2 SWAP1 POP JUMP JUMPDEST PUSH2 0x12D7 DUP2 PUSH2 0x12BD JUMP JUMPDEST DUP3 MSTORE POP POP JUMP JUMPDEST PUSH0 PUSH1 0x60 DUP3 ADD SWAP1 POP DUP2 DUP2 SUB PUSH0 DUP4 ADD MSTORE PUSH2 0x12F5 DUP2 DUP7 PUSH2 0x1238 JUMP JUMPDEST SWAP1 POP PUSH2 0x1304 PUSH1 0x20 DUP4 ADD DUP6 PUSH2 0x12CE JUMP JUMPDEST PUSH2 0x1311 PUSH1 0x40 DUP4 ADD DUP5 PUSH2 0x11A1 JUMP JUMPDEST SWAP5 SWAP4 POP POP POP POP JUMP JUMPDEST PUSH0 PUSH1 0x20 DUP3 DUP5 SUB SLT ISZERO PUSH2 0x132E JUMPI PUSH2 0x132D PUSH2 0xFD0 JUMP JUMPDEST JUMPDEST PUSH0 PUSH2 0x133B DUP5 DUP3 DUP6 ADD PUSH2 0x1133 JUMP JUMPDEST SWAP2 POP POP SWAP3 SWAP2 POP POP JUMP JUMPDEST PUSH0 PUSH1 0x60 DUP3 ADD SWAP1 POP PUSH2 0x1357 PUSH0 DUP4 ADD DUP7 PUSH2 0x12CE JUMP JUMPDEST DUP2 DUP2 SUB PUSH1 0x20 DUP4 ADD MSTORE PUSH2 0x1369 DUP2 DUP6 PUSH2 0x1238 JUMP JUMPDEST SWAP1 POP PUSH2 0x1378 PUSH1 0x40 DUP4 ADD DUP5 PUSH2 0x11A1 JUMP JUMPDEST SWAP5 SWAP4 POP POP POP POP JUMP JUMPDEST PUSH2 0x1389 DUP2 PUSH2 0x12BD JUMP JUMPDEST DUP2 EQ PUSH2 0x1393 JUMPI PUSH0 PUSH0 REVERT JUMPDEST POP JUMP JUMPDEST PUSH0 DUP2 CALLDATALOAD SWAP1 POP PUSH2 0x13A4 DUP2 PUSH2 0x1380 JUMP JUMPDEST SWAP3 SWAP2 POP POP JUMP JUMPDEST PUSH0 PUSH0 PUSH0 PUSH0 PUSH1 0x80 DUP6 DUP8 SUB SLT ISZERO PUSH2 0x13C2 JUMPI PUSH2 0x13C1 PUSH2 0xFD0 JUMP JUMPDEST JUMPDEST PUSH0 PUSH2 0x13CF DUP8 DUP3 DUP9 ADD PUSH2 0x1396 JUMP JUMPDEST SWAP5 POP POP PUSH1 0x20 DUP6 ADD CALLDATALOAD PUSH8 0xFFFFFFFFFFFFFFFF DUP2 GT ISZERO PUSH2 0x13F0 JUMPI PUSH2 0x13EF PUSH2 0xFD4 JUMP JUMPDEST JUMPDEST PUSH2 0x13FC DUP8 DUP3 DUP9 ADD PUSH2 0x10E7 JUMP JUMPDEST SWAP4 POP POP PUSH1 0x40 PUSH2 0x140D DUP8 DUP3 DUP9 ADD PUSH2 0x1133 JUMP JUMPDEST SWAP3 POP POP PUSH1 0x60 PUSH2 0x141E DUP8 DUP3 DUP9 ADD PUSH2 0x1133 JUMP JUMPDEST SWAP2 POP POP SWAP3 SWAP6 SWAP2 SWAP5 POP SWAP3 POP JUMP JUMPDEST PUSH0 PUSH0 PUSH0 PUSH1 0x60 DUP5 DUP7 SUB SLT ISZERO PUSH2 0x1441 JUMPI PUSH2 0x1440 PUSH2 0xFD0 JUMP JUMPDEST JUMPDEST PUSH0 DUP5 ADD CALLDATALOAD PUSH8 0xFFFFFFFFFFFFFFFF DUP2 GT ISZERO PUSH2 0x145E JUMPI PUSH2 0x145D PUSH2 0xFD4 JUMP JUMPDEST JUMPDEST PUSH2 0x146A DUP7 DUP3 DUP8 ADD PUSH2 0x10E7 JUMP JUMPDEST SWAP4 POP POP PUSH1 0x20 PUSH2 0x147B DUP7 DUP3 DUP8 ADD PUSH2 0x1133 JUMP JUMPDEST SWAP3 POP POP PUSH1 0x40 PUSH2 0x148C DUP7 DUP3 DUP8 ADD PUSH2 0x1133 JUMP JUMPDEST SWAP2 POP POP SWAP3 POP SWAP3 POP SWAP3 JUMP JUMPDEST PUSH0 DUP2 MLOAD SWAP1 POP SWAP2 SWAP1 POP JUMP JUMPDEST PUSH0 DUP3 DUP3 MSTORE PUSH1 0x20 DUP3 ADD SWAP1 POP SWAP3 SWAP2 POP POP JUMP JUMPDEST PUSH0 DUP2 SWAP1 POP PUSH1 0x20 DUP3 ADD SWAP1 POP SWAP2 SWAP1 POP JUMP JUMPDEST PUSH2 0x14C8 DUP2 PUSH2 0x12BD JUMP JUMPDEST DUP3 MSTORE POP POP JUMP JUMPDEST PUSH0 DUP3 DUP3 MSTORE PUSH1 0x20 DUP3 ADD SWAP1 POP SWAP3 SWAP2 POP POP JUMP JUMPDEST PUSH0 PUSH2 0x14E8 DUP3 PUSH2 0x1210 JUMP JUMPDEST PUSH2 0x14F2 DUP2 DUP6 PUSH2 0x14CE JUMP JUMPDEST SWAP4 POP PUSH2 0x1502 DUP2 DUP6 PUSH1 0x20 DUP7 ADD PUSH2 0x122A JUMP JUMPDEST PUSH2 0x150B DUP2 PUSH2 0xFE0 JUMP JUMPDEST DUP5 ADD SWAP2 POP POP SWAP3 SWAP2 POP POP JUMP JUMPDEST PUSH2 0x151F DUP2 PUSH2 0x1114 JUMP JUMPDEST DUP3 MSTORE POP POP JUMP JUMPDEST PUSH0 PUSH1 0x60 DUP4 ADD PUSH0 DUP4 ADD MLOAD PUSH2 0x153A PUSH0 DUP7 ADD DUP3 PUSH2 0x14BF JUMP JUMPDEST POP PUSH1 0x20 DUP4 ADD MLOAD DUP5 DUP3 SUB PUSH1 0x20 DUP7 ADD MSTORE PUSH2 0x1552 DUP3 DUP3 PUSH2 0x14DE JUMP JUMPDEST SWAP2 POP POP PUSH1 0x40 DUP4 ADD MLOAD PUSH2 0x1567 PUSH1 0x40 DUP7 ADD DUP3 PUSH2 0x1516 JUMP JUMPDEST POP DUP1 SWAP2 POP POP SWAP3 SWAP2 POP POP JUMP JUMPDEST PUSH0 PUSH2 0x157D DUP4 DUP4 PUSH2 0x1525 JUMP JUMPDEST SWAP1 POP SWAP3 SWAP2 POP POP JUMP JUMPDEST PUSH0 PUSH1 0x20 DUP3 ADD SWAP1 POP SWAP2 SWAP1 POP JUMP JUMPDEST PUSH0 PUSH2 0x159B DUP3 PUSH2 0x1496 JUMP JUMPDEST PUSH2 0x15A5 DUP2 DUP6 PUSH2 0x14A0 JUMP JUMPDEST SWAP4 POP DUP4 PUSH1 0x20 DUP3 MUL DUP6 ADD PUSH2 0x15B7 DUP6 PUSH2 0x14B0 JUMP JUMPDEST DUP1 PUSH0 JUMPDEST DUP6 DUP2 LT ISZERO PUSH2 0x15F2 JUMPI DUP5 DUP5 SUB DUP10 MSTORE DUP2 MLOAD PUSH2 0x15D3 DUP6 DUP3 PUSH2 0x1572 JUMP JUMPDEST SWAP5 POP PUSH2 0x15DE DUP4 PUSH2 0x1585 JUMP JUMPDEST SWAP3 POP PUSH1 0x20 DUP11 ADD SWAP10 POP POP PUSH1 0x1 DUP2 ADD SWAP1 POP PUSH2 0x15BA JUMP JUMPDEST POP DUP3 SWAP8 POP DUP8 SWAP6 POP POP POP POP POP POP SWAP3 SWAP2 POP POP JUMP JUMPDEST PUSH0 PUSH1 0x20 DUP3 ADD SWAP1 POP DUP2 DUP2 SUB PUSH0 DUP4 ADD MSTORE PUSH2 0x161C DUP2 DUP5 PUSH2 0x1591 JUMP JUMPDEST SWAP1 POP SWAP3 SWAP2 POP POP JUMP JUMPDEST PUSH0 PUSH1 0x20 DUP3 DUP5 SUB SLT ISZERO PUSH2 0x1639 JUMPI PUSH2 0x1638 PUSH2 0xFD0 JUMP JUMPDEST JUMPDEST PUSH0 PUSH2 0x1646 DUP5 DUP3 DUP6 ADD PUSH2 0x1396 JUMP JUMPDEST SWAP2 POP POP SWAP3 SWAP2 POP POP JUMP JUMPDEST PUSH0 DUP2 ISZERO ISZERO SWAP1 POP SWAP2 SWAP1 POP JUMP JUMPDEST PUSH2 0x1663 DUP2 PUSH2 0x164F JUMP JUMPDEST DUP3 MSTORE POP POP JUMP JUMPDEST PUSH0 PUSH1 0x20 DUP3 ADD SWAP1 POP PUSH2 0x167C PUSH0 DUP4 ADD DUP5 PUSH2 0x165A JUMP JUMPDEST SWAP3 SWAP2 POP POP JUMP JUMPDEST PUSH0 PUSH1 0x20 DUP3 ADD SWAP1 POP PUSH2 0x1695 PUSH0 DUP4 ADD DUP5 PUSH2 0x12CE JUMP JUMPDEST SWAP3 SWAP2 POP POP JUMP JUMPDEST PUSH0 PUSH0 PUSH1 0x40 DUP4 DUP6 SUB SLT ISZERO PUSH2 0x16B1 JUMPI PUSH2 0x16B0 PUSH2 0xFD0 JUMP JUMPDEST JUMPDEST PUSH0 DUP4 ADD CALLDATALOAD PUSH8 0xFFFFFFFFFFFFFFFF DUP2 GT ISZERO PUSH2 0x16CE JUMPI PUSH2 0x16CD PUSH2 0xFD4 JUMP JUMPDEST JUMPDEST PUSH2 0x16DA DUP6 DUP3 DUP7 ADD PUSH2 0x10E7 JUMP JUMPDEST SWAP3 POP POP PUSH1 0x20 PUSH2 0x16EB DUP6 DUP3 DUP7 ADD PUSH2 0x1396 JUMP JUMPDEST SWAP2 POP POP SWAP3 POP SWAP3 SWAP1 POP JUMP JUMPDEST PUSH0 DUP2 SWAP1 POP SWAP3 SWAP2 POP POP JUMP JUMPDEST PUSH0 PUSH2 0x1709 DUP3 PUSH2 0x1210 JUMP JUMPDEST PUSH2 0x1713 DUP2 DUP6 PUSH2 0x16F5 JUMP JUMPDEST SWAP4 POP PUSH2 0x1723 DUP2 DUP6 PUSH1 0x20 DUP7 ADD PUSH2 0x122A JUMP JUMPDEST DUP1 DUP5 ADD SWAP2 POP POP SWAP3 SWAP2 POP POP JUMP JUMPDEST PUSH0 PUSH2 0x173A DUP3 DUP5 PUSH2 0x16FF JUMP JUMPDEST SWAP2 POP DUP2 SWAP1 POP SWAP3 SWAP2 POP POP JUMP JUMPDEST PUSH32 0x4E487B7100000000000000000000000000000000000000000000000000000000 PUSH0 MSTORE PUSH1 0x22 PUSH1 0x4 MSTORE PUSH1 0x24 PUSH0 REVERT JUMPDEST PUSH0 PUSH1 0x2 DUP3 DIV SWAP1 POP PUSH1 0x1 DUP3 AND DUP1 PUSH2 0x1789 JUMPI PUSH1 0x7F DUP3 AND SWAP2 POP JUMPDEST PUSH1 0x20 DUP3 LT DUP2 SUB PUSH2 0x179C JUMPI PUSH2 0x179B PUSH2 0x1745 JUMP JUMPDEST JUMPDEST POP SWAP2 SWAP1 POP JUMP JUMPDEST PUSH32 0x416D6F756E7420616E6420706179206D75737420626520677265617465722074 PUSH0 DUP3 ADD MSTORE PUSH32 0x68616E2030000000000000000000000000000000000000000000000000000000 PUSH1 0x20 DUP3 ADD MSTORE POP JUMP JUMPDEST PUSH0 PUSH2 0x17FC PUSH1 0x25 DUP4 PUSH2 0x121A JUMP JUMPDEST SWAP2 POP PUSH2 0x1807 DUP3 PUSH2 0x17A2 JUMP JUMPDEST PUSH1 0x40 DUP3 ADD SWAP1 POP SWAP2 SWAP1 POP JUMP JUMPDEST PUSH0 PUSH1 0x20 DUP3 ADD SWAP1 POP DUP2 DUP2 SUB PUSH0 DUP4 ADD MSTORE PUSH2 0x1829 DUP2 PUSH2 0x17F0 JUMP JUMPDEST SWAP1 POP SWAP2 SWAP1 POP JUMP JUMPDEST PUSH32 0x496E73756666696369656E742062616C616E6365000000000000000000000000 PUSH0 DUP3 ADD MSTORE POP JUMP JUMPDEST PUSH0 PUSH2 0x1864 PUSH1 0x14 DUP4 PUSH2 0x121A JUMP JUMPDEST SWAP2 POP PUSH2 0x186F DUP3 PUSH2 0x1830 JUMP JUMPDEST PUSH1 0x20 DUP3 ADD SWAP1 POP SWAP2 SWAP1 POP JUMP JUMPDEST PUSH0 PUSH1 0x20 DUP3 ADD SWAP1 POP DUP2 DUP2 SUB PUSH0 DUP4 ADD MSTORE PUSH2 0x1891 DUP2 PUSH2 0x1858 JUMP JUMPDEST SWAP1 POP SWAP2 SWAP1 POP JUMP JUMPDEST PUSH32 0x6E6F7420656E6F756768206F696C730000000000000000000000000000000000 PUSH0 DUP3 ADD MSTORE POP JUMP JUMPDEST PUSH0 PUSH2 0x18CC PUSH1 0xF DUP4 PUSH2 0x121A JUMP JUMPDEST SWAP2 POP PUSH2 0x18D7 DUP3 PUSH2 0x1898 JUMP JUMPDEST PUSH1 0x20 DUP3 ADD SWAP1 POP SWAP2 SWAP1 POP JUMP JUMPDEST PUSH0 PUSH1 0x20 DUP3 ADD SWAP1 POP DUP2 DUP2 SUB PUSH0 DUP4 ADD MSTORE PUSH2 0x18F9 DUP2 PUSH2 0x18C0 JUMP JUMPDEST SWAP1 POP SWAP2 SWAP1 POP JUMP JUMPDEST PUSH32 0x4E487B7100000000000000000000000000000000000000000000000000000000 PUSH0 MSTORE PUSH1 0x11 PUSH1 0x4 MSTORE PUSH1 0x24 PUSH0 REVERT JUMPDEST PUSH0 PUSH2 0x1937 DUP3 PUSH2 0x1114 JUMP JUMPDEST SWAP2 POP PUSH32 0xFFFFFFFFFFFFFFFFFFFFFFFFFFFFFFFFFFFFFFFFFFFFFFFFFFFFFFFFFFFFFFFF DUP3 SUB PUSH2 0x1969 JUMPI PUSH2 0x1968 PUSH2 0x1900 JUMP JUMPDEST JUMPDEST PUSH1 0x1 DUP3 ADD SWAP1 POP SWAP2 SWAP1 POP JUMP JUMPDEST PUSH0 PUSH2 0x197E DUP3 PUSH2 0x1114 JUMP JUMPDEST SWAP2 POP PUSH2 0x1989 DUP4 PUSH2 0x1114 JUMP JUMPDEST SWAP3 POP DUP3 DUP3 SUB SWAP1 POP DUP2 DUP2 GT ISZERO PUSH2 0x19A1 JUMPI PUSH2 0x19A0 PUSH2 0x1900 JUMP JUMPDEST JUMPDEST SWAP3 SWAP2 POP POP JUMP JUMPDEST PUSH0 PUSH2 0x19B1 DUP3 PUSH2 0x1114 JUMP JUMPDEST SWAP2 POP PUSH2 0x19BC DUP4 PUSH2 0x1114 JUMP JUMPDEST SWAP3 POP DUP3 DUP3 ADD SWAP1 POP DUP1 DUP3 GT ISZERO PUSH2 0x19D4 JUMPI PUSH2 0x19D3 PUSH2 0x1900 JUMP JUMPDEST JUMPDEST SWAP3 SWAP2 POP POP JUMP JUMPDEST PUSH0 DUP2 SWAP1 POP DUP2 PUSH0 MSTORE PUSH1 0x20 PUSH0 KECCAK256 SWAP1 POP SWAP2 SWAP1 POP JUMP JUMPDEST PUSH0 PUSH1 0x20 PUSH1 0x1F DUP4 ADD DIV SWAP1 POP SWAP2 SWAP1 POP JUMP JUMPDEST PUSH0 DUP3 DUP3 SHL SWAP1 POP SWAP3 SWAP2 POP POP JUMP JUMPDEST PUSH0 PUSH1 0x8 DUP4 MUL PUSH2 0x1A36 PUSH32 0xFFFFFFFFFFFFFFFFFFFFFFFFFFFFFFFFFFFFFFFFFFFFFFFFFFFFFFFFFFFFFFFF DUP3 PUSH2 0x19FB JUMP JUMPDEST PUSH2 0x1A40 DUP7 DUP4 PUSH2 0x19FB JUMP JUMPDEST SWAP6 POP DUP1 NOT DUP5 AND SWAP4 POP DUP1 DUP7 AND DUP5 OR SWAP3 POP POP POP SWAP4 SWAP3 POP POP POP JUMP JUMPDEST PUSH0 DUP2 SWAP1 POP SWAP2 SWAP1 POP JUMP JUMPDEST PUSH0 PUSH2 0x1A7B PUSH2 0x1A76 PUSH2 0x1A71 DUP5 PUSH2 0x1114 JUMP JUMPDEST PUSH2 0x1A58 JUMP JUMPDEST PUSH2 0x1114 JUMP JUMPDEST SWAP1 POP SWAP2 SWAP1 POP JUMP JUMPDEST PUSH0 DUP2 SWAP1 POP SWAP2 SWAP1 POP JUMP JUMPDEST PUSH2 0x1A94 DUP4 PUSH2 0x1A61 JUMP JUMPDEST PUSH2 0x1AA8 PUSH2 0x1AA0 DUP3 PUSH2 0x1A82 JUMP JUMPDEST DUP5 DUP5 SLOAD PUSH2 0x1A07 JUMP JUMPDEST DUP3 SSTORE POP POP POP POP JUMP JUMPDEST PUSH0 PUSH0 SWAP1 POP SWAP1 JUMP JUMPDEST PUSH2 0x1ABF PUSH2 0x1AB0 JUMP JUMPDEST PUSH2 0x1ACA DUP2 DUP5 DUP5 PUSH2 0x1A8B JUMP JUMPDEST POP POP POP JUMP JUMPDEST JUMPDEST DUP2 DUP2 LT ISZERO PUSH2 0x1AED JUMPI PUSH2 0x1AE2 PUSH0 DUP3 PUSH2 0x1AB7 JUMP JUMPDEST PUSH1 0x1 DUP2 ADD SWAP1 POP PUSH2 0x1AD0 JUMP JUMPDEST POP POP JUMP JUMPDEST PUSH1 0x1F DUP3 GT ISZERO PUSH2 0x1B32 JUMPI PUSH2 0x1B03 DUP2 PUSH2 0x19DA JUMP JUMPDEST PUSH2 0x1B0C DUP5 PUSH2 0x19EC JUMP JUMPDEST DUP2 ADD PUSH1 0x20 DUP6 LT ISZERO PUSH2 0x1B1B JUMPI DUP2 SWAP1 POP JUMPDEST PUSH2 0x1B2F PUSH2 0x1B27 DUP6 PUSH2 0x19EC JUMP JUMPDEST DUP4 ADD DUP3 PUSH2 0x1ACF JUMP JUMPDEST POP POP JUMPDEST POP POP POP JUMP JUMPDEST PUSH0 DUP3 DUP3 SHR SWAP1 POP SWAP3 SWAP2 POP POP JUMP JUMPDEST PUSH0 PUSH2 0x1B52 PUSH0 NOT DUP5 PUSH1 0x8 MUL PUSH2 0x1B37 JUMP JUMPDEST NOT DUP1 DUP4 AND SWAP2 POP POP SWAP3 SWAP2 POP POP JUMP JUMPDEST PUSH0 PUSH2 0x1B6A DUP4 DUP4 PUSH2 0x1B43 JUMP JUMPDEST SWAP2 POP DUP3 PUSH1 0x2 MUL DUP3 OR SWAP1 POP SWAP3 SWAP2 POP POP JUMP JUMPDEST PUSH2 0x1B83 DUP3 PUSH2 0x1210 JUMP JUMPDEST PUSH8 0xFFFFFFFFFFFFFFFF DUP2 GT ISZERO PUSH2 0x1B9C JUMPI PUSH2 0x1B9B PUSH2 0xFF0 JUMP JUMPDEST JUMPDEST PUSH2 0x1BA6 DUP3 SLOAD PUSH2 0x1772 JUMP JUMPDEST PUSH2 0x1BB1 DUP3 DUP3 DUP6 PUSH2 0x1AF1 JUMP JUMPDEST PUSH0 PUSH1 0x20 SWAP1 POP PUSH1 0x1F DUP4 GT PUSH1 0x1 DUP2 EQ PUSH2 0x1BE2 JUMPI PUSH0 DUP5 ISZERO PUSH2 0x1BD0 JUMPI DUP3 DUP8 ADD MLOAD SWAP1 POP JUMPDEST PUSH2 0x1BDA DUP6 DUP3 PUSH2 0x1B5F JUMP JUMPDEST DUP7 SSTORE POP PUSH2 0x1C41 JUMP JUMPDEST PUSH1 0x1F NOT DUP5 AND PUSH2 0x1BF0 DUP7 PUSH2 0x19DA JUMP JUMPDEST PUSH0 JUMPDEST DUP3 DUP2 LT ISZERO PUSH2 0x1C17 JUMPI DUP5 DUP10 ADD MLOAD DUP3 SSTORE PUSH1 0x1 DUP3 ADD SWAP2 POP PUSH1 0x20 DUP6 ADD SWAP5 POP PUSH1 0x20 DUP2 ADD SWAP1 POP PUSH2 0x1BF2 JUMP JUMPDEST DUP7 DUP4 LT ISZERO PUSH2 0x1C34 JUMPI DUP5 DUP10 ADD MLOAD PUSH2 0x1C30 PUSH1 0x1F DUP10 AND DUP3 PUSH2 0x1B43 JUMP JUMPDEST DUP4 SSTORE POP JUMPDEST PUSH1 0x1 PUSH1 0x2 DUP9 MUL ADD DUP9 SSTORE POP POP POP JUMPDEST POP POP POP POP POP POP JUMP JUMPDEST PUSH32 0x4F6E6C79206F776E65722063616E2063616C6C00000000000000000000000000 PUSH0 DUP3 ADD MSTORE POP JUMP JUMPDEST PUSH0 PUSH2 0x1C7D PUSH1 0x13 DUP4 PUSH2 0x121A JUMP JUMPDEST SWAP2 POP PUSH2 0x1C88 DUP3 PUSH2 0x1C49 JUMP JUMPDEST PUSH1 0x20 DUP3 ADD SWAP1 POP SWAP2 SWAP1 POP JUMP JUMPDEST PUSH0 PUSH1 0x20 DUP3 ADD SWAP1 POP DUP2 DUP2 SUB PUSH0 DUP4 ADD MSTORE PUSH2 0x1CAA DUP2 PUSH2 0x1C71 JUMP JUMPDEST SWAP1 POP SWAP2 SWAP1 POP JUMP JUMPDEST PUSH32 0x4E487B7100000000000000000000000000000000000000000000000000000000 PUSH0 MSTORE PUSH1 0x32 PUSH1 0x4 MSTORE PUSH1 0x24 PUSH0 REVERT INVALID LOG2 PUSH5 0x6970667358 0x22 SLT KECCAK256 DUP8 0x1F 0xC0 0x1E JUMPF 0x6C7 BLOBBASEFEE DUP12 DUP8 0xDD 0xC2 SWAP12 SGT RETURN SWAP4 0xAA 0xE9 GASPRICE EXTCODEHASH PUSH17 0x4782CC45C9F62AE3198F4064736F6C6343 STOP ADDMOD 0x1E STOP CALLER "
		},
		"gasEstimates": {
			"creation": {
				"codeDepositCost": "1488800",
				"executionCost": "25817",
				"totalCost": "1514617"
			},
			"external": {
				"BuyOil(address,string,uint256,uint256)": "infinite",
				"BuyerList()": "infinite",
				"ChangeOperator(string,address)": "infinite",
				"ChangeProduction(string,uint256)": "infinite",
				"CheckOil(string)": "infinite",
				"SetAmount(string,uint256,uint256)": "infinite",
				"ShowProfit()": "2500",
				"amountToPrice(string,uint256)": "infinite",
				"buyerAddress(address)": "2900",
				"buyerAddresses(uint256)": "infinite",
				"buyers(address)": "infinite",
				"count()": "2471",
				"oilCreated(string,uint256)": "infinite",
				"oilWells(string)": "infinite",
				"owner()": "2596",
				"profit()": "2448",
				"remainOil(string)": "infinite"
			}
		},
		"methodIdentifiers": {
			"BuyOil(address,string,uint256,uint256)": "560ff06e",
			"BuyerList()": "75686256",
			"ChangeOperator(string,address)": "a00ac7bf",
			"ChangeProduction(string,uint256)": "03985522",
			"CheckOil(string)": "32f6b4a2",
			"SetAmount(string,uint256,uint256)": "5994270a",
			"ShowProfit()": "20f3daf9",
			"amountToPrice(string,uint256)": "e9c57109",
			"buyerAddress(address)": "89625494",
			"buyerAddresses(uint256)": "556b790f",
			"buyers(address)": "97a993aa",
			"count()": "06661abd",
			"oilCreated(string,uint256)": "a6d278c5",
			"oilWells(string)": "43870e38",
			"owner()": "8da5cb5b",
			"profit()": "66d16cc3",
			"remainOil(string)": "de91e75f"
		}
	},
	"abi": [
		{
			"inputs": [],
			"stateMutability": "nonpayable",
			"type": "constructor"
		},
		{
			"anonymous": false,
			"inputs": [
				{
					"indexed": true,
					"internalType": "string",
					"name": "",
					"type": "string"
				},
				{
					"indexed": true,
					"internalType": "address",
					"name": "_protocols",
					"type": "address"
				}
			],
			"name": "OilWellAdded",
			"type": "event"
		},
		{
			"anonymous": false,
			"inputs": [
				{
					"indexed": true,
					"internalType": "string",
					"name": "",
					"type": "string"
				},
				{
					"indexed": false,
					"internalType": "uint256",
					"name": "_productioon",
					"type": "uint256"
				}
			],
			"name": "productionChanged",
			"type": "event"
		},
		{
			"inputs": [
				{
					"internalType": "address",
					"name": "_address",
					"type": "address"
				},
				{
					"internalType": "string",
					"name": "_name",
					"type": "string"
				},
				{
					"internalType": "uint256",
					"name": "_amount",
					"type": "uint256"
				},
				{
					"internalType": "uint256",
					"name": "pay",
					"type": "uint256"
				}
			],
			"name": "BuyOil",
			"outputs": [],
			"stateMutability": "payable",
			"type": "function"
		},
		{
			"inputs": [],
			"name": "BuyerList",
			"outputs": [
				{
					"components": [
						{
							"internalType": "address",
							"name": "buyerAddress",
							"type": "address"
						},
						{
							"internalType": "string",
							"name": "oilName",
							"type": "string"
						},
						{
							"internalType": "uint256",
							"name": "amount",
							"type": "uint256"
						}
					],
					"internalType": "struct OilAndGas.Buyer[]",
					"name": "",
					"type": "tuple[]"
				}
			],
			"stateMutability": "view",
			"type": "function"
		},
		{
			"inputs": [
				{
					"internalType": "string",
					"name": "_index",
					"type": "string"
				},
				{
					"internalType": "address",
					"name": "_operator",
					"type": "address"
				}
			],
			"name": "ChangeOperator",
			"outputs": [],
			"stateMutability": "nonpayable",
			"type": "function"
		},
		{
			"inputs": [
				{
					"internalType": "string",
					"name": "_name",
					"type": "string"
				},
				{
					"internalType": "uint256",
					"name": "_production",
					"type": "uint256"
				}
			],
			"name": "ChangeProduction",
			"outputs": [],
			"stateMutability": "nonpayable",
			"type": "function"
		},
		{
			"inputs": [
				{
					"internalType": "string",
					"name": "_name",
					"type": "string"
				}
			],
			"name": "CheckOil",
			"outputs": [
				{
					"internalType": "string",
					"name": "",
					"type": "string"
				},
				{
					"internalType": "uint256",
					"name": "",
					"type": "uint256"
				}
			],
			"stateMutability": "view",
			"type": "function"
		},
		{
			"inputs": [
				{
					"internalType": "string",
					"name": "_name",
					"type": "string"
				},
				{
					"internalType": "uint256",
					"name": "_amount",
					"type": "uint256"
				},
				{
					"internalType": "uint256",
					"name": "_price",
					"type": "uint256"
				}
			],
			"name": "SetAmount",
			"outputs": [],
			"stateMutability": "payable",
			"type": "function"
		},
		{
			"inputs": [],
			"name": "ShowProfit",
			"outputs": [
				{
					"internalType": "uint256",
					"name": "",
					"type": "uint256"
				}
			],
			"stateMutability": "view",
			"type": "function"
		},
		{
			"inputs": [
				{
					"internalType": "string",
					"name": "",
					"type": "string"
				},
				{
					"internalType": "uint256",
					"name": "",
					"type": "uint256"
				}
			],
			"name": "amountToPrice",
			"outputs": [
				{
					"internalType": "uint256",
					"name": "",
					"type": "uint256"
				}
			],
			"stateMutability": "view",
			"type": "function"
		},
		{
			"inputs": [
				{
					"internalType": "address",
					"name": "",
					"type": "address"
				}
			],
			"name": "buyerAddress",
			"outputs": [
				{
					"internalType": "bool",
					"name": "",
					"type": "bool"
				}
			],
			"stateMutability": "view",
			"type": "function"
		},
		{
			"inputs": [
				{
					"internalType": "uint256",
					"name": "",
					"type": "uint256"
				}
			],
			"name": "buyerAddresses",
			"outputs": [
				{
					"internalType": "address",
					"name": "buyerAddress",
					"type": "address"
				},
				{
					"internalType": "string",
					"name": "oilName",
					"type": "string"
				},
				{
					"internalType": "uint256",
					"name": "amount",
					"type": "uint256"
				}
			],
			"stateMutability": "view",
			"type": "function"
		},
		{
			"inputs": [
				{
					"internalType": "address",
					"name": "",
					"type": "address"
				}
			],
			"name": "buyers",
			"outputs": [
				{
					"internalType": "address",
					"name": "buyerAddress",
					"type": "address"
				},
				{
					"internalType": "string",
					"name": "oilName",
					"type": "string"
				},
				{
					"internalType": "uint256",
					"name": "amount",
					"type": "uint256"
				}
			],
			"stateMutability": "view",
			"type": "function"
		},
		{
			"inputs": [],
			"name": "count",
			"outputs": [
				{
					"internalType": "uint256",
					"name": "",
					"type": "uint256"
				}
			],
			"stateMutability": "view",
			"type": "function"
		},
		{
			"inputs": [
				{
					"internalType": "string",
					"name": "_name",
					"type": "string"
				},
				{
					"internalType": "uint256",
					"name": "_production",
					"type": "uint256"
				}
			],
			"name": "oilCreated",
			"outputs": [],
			"stateMutability": "nonpayable",
			"type": "function"
		},
		{
			"inputs": [
				{
					"internalType": "string",
					"name": "",
					"type": "string"
				}
			],
			"name": "oilWells",
			"outputs": [
				{
					"internalType": "string",
					"name": "name",
					"type": "string"
				},
				{
					"internalType": "address",
					"name": "operator",
					"type": "address"
				},
				{
					"internalType": "uint256",
					"name": "production",
					"type": "uint256"
				}
			],
			"stateMutability": "view",
			"type": "function"
		},
		{
			"inputs": [],
			"name": "owner",
			"outputs": [
				{
					"internalType": "address",
					"name": "",
					"type": "address"
				}
			],
			"stateMutability": "view",
			"type": "function"
		},
		{
			"inputs": [],
			"name": "profit",
			"outputs": [
				{
					"internalType": "uint256",
					"name": "",
					"type": "uint256"
				}
			],
			"stateMutability": "view",
			"type": "function"
		},
		{
			"inputs": [
				{
					"internalType": "string",
					"name": "_name",
					"type": "string"
				}
			],
			"name": "remainOil",
			"outputs": [
				{
					"internalType": "uint256",
					"name": "",
					"type": "uint256"
				}
			],
			"stateMutability": "view",
			"type": "function"
		}
	]
}